S015000030315F5350495F53637265656E2E73726563A4
S31500000000A00400208D260000F124000089260000AF
S31500000010892600008926000089260000892600001E
S31500000020000000000000000000000000892600001B
S3150000003089260000000000008926000089260000AD
S3150000004081160000F5150000111700005917000071
S31500000050C51C00005D1C0000391D0000791D000054
S3150000006040003500000010080000000000000000FD
S315000000700000000000000800000000000000000072
S31500000080000000000000000003000000DC890020E2
S315000000905400002000000000DC890020448A002073
S315000000A0AC8A0020000000000000000000000000F4
S315000000B0000000000000000000000000000000003A
S315000000C0000000000000000000000000000000002A
S315000000D0000000000000000000000000000000001A
S315000000E00348044B834202D0034B03B118477047C1
S315000000F0A0000020A000002000000000064B0749D9
S31500000100C91A891048BF0131491003D0044B0BB1FD
S3150000011001481847704700BFA0000020A00000203B
S315000001200000000010B5064C237843B9FFF7D8FF4E
S31500000130044B13B10448AFF300800123237010BDB4
S31500000140C00400200000000084A2000108B5054B91
S315000001501BB105490548AFF30080BDE80840FFF72D
S31500000160CDBF00BF00000000C404002084A200012F
S3150000017000200749074BD1F8FC2042F08072C1F8F5
S31500000180FC201A6842F001021A605860704700BFEE
S3150000019000ED00E0001000E0014B5868704700BF1A
S315000001A0001000E0081A7047044B054A1B68A2FBC2
S315000001B003239B09B0FBF3F0704700BFD8890020EA
S315000001C0D34D6210022801D80120704708B502F00D
S315000001D04DFD092203461A60002008BD022801D8F9
S315000001E00020704708B502F041FD092203461A6057
S315000001F04FF0FF3008BD00BF08B502F037FD0922F9
S3150000020003461A604FF0FF3008BD00BF022808B54C
S3150000021004D84FF4005300204B6008BD02F026FDC1
S3150000022009230360002008BD08B50649064801F009
S3150000023007F800B908BD0B21044B054A054802F032
S3150000024009F900BF88500000F8880020C836000071
S31500000250A0370000E036000003790146022B0CD0DF
S31500000260042B04D0012B07D1064A137070470122D4
S315000002700548083100F09ABF70470122034B1A70F7
S31500000280704700BFDD040020F8880020DC04002051
S3150000029010B50648144600F089FF05490B78002B77
S315000002A0FCD000230B70204610BD00BFF88800204C
S315000002B0DC04002010B50648144600F071FF05491D
S315000002C00B78002BFCD000230B70204610BD00BF1E
S315000002D0F8880020DD04002040EA010C1FFA8CFC9F
S315000002E0BCF17F0F0CD830B5012B04460D4683B008
S315000002F008D02946204600F0DBFB002003B030BDC5
S3150000030001207047019200F0CBFB019A8242F0D1A6
S31500000310D2432946204692B200F0CAFBEDE700BF61
S31500000320402A28BF40222DE9F04F89B0BDF8484049
S31500000330834606949DF84C408A460794684C1F46AF
S315000003402488944259D000219146664B5000C0F152
S31500000350030001930FFA82FE198088460B460A466F
S31500000360614C00B2CDF808901FE0BCF1800F00F0A0
S31500000370AD8085B2B3B2002805F1060624F82CE05C
S31500000380A9F8022006EB810628DB4FF00108A2EB54
S315000003900E020A350EF1FF3E414405EB82050FFAC7
S315000003A08EFE0AB2724528B21FDC03F1010C1FFA59
S315000003B08CFC802B04EB830504EB8C0903F102060D
S315000003C079D0964524F82320A5F802E0CDDC85B245
S315000003D0AE1D0028634606EB8106D6DA4FF001080B
S315000003E041440AB2724530B2DFDDDDF808903C4A7E
S315000003F0A2F80090019A138004E03A4B01931B88FF
S31500000400002B60D007F0010307F0040907F0080885
S31500000410029307F00203CDE90498DDE90689002579
S31500000420314C03930EE0039B03BB049B5BBB059B14
S31500000430002B35D1019B01351A88ABB29A4204F1E3
S31500000440040440D9029BB4F90060B4F90270002B91
S31500000450E9D0AAEB07010BEB06004B46424609B270
S3150000046000B2FFF739FF039B002BDED0AAEB070192
S31500000470ABEB06004B46424609B200B2FFF72CFF33
S31500000480049B002BD3D00AEB0701ABEB06004B46CF
S31500000490424609B200B2FFF71FFF059B002BC9D0E9
S315000004A00AEB07010BEB06004B46424609B200B2C7
S315000004B0FFF712FFBEE7DDF80890B8F1000F96D1FE
S315000004C0074BA3F8009009B0BDE8F08F044BDDF8A8
S315000004D00890A3F80090019BA3F800C092E700BF24
S315000004E0E2060020E0060020E004002093422DE909
S315000004F0F84F9B46A8BF934693429946B8BF91468C
S3150000050081428846A8BF804681420D46B8BF05464F
S31500000510CB45BDF828709DF82C6039DC6FEA070AD8
S315000005201FFA8AFAA845D8BF444609DD2AE03A46AA
S315000005305946204600F0BCFA013424B2A54221DB1C
S315000005404BEA04039BB27F2BF6D8012EEFD1594616
S31500000550204600F0A5FA8742E9D12046013424B2AC
S315000005605246594600F0A4FA44EA0B03AC429BB249
S3150000057008DC7F2BE0D85946204600F091FA8742E6
S31500000580D5D1EAE70BF1010B0FFA8BFBD945C9DA96
S315000005900020BDE8F88F00BF2DE9F0431C46154644
S315000005A081460F4683B0BDF828809DF82C604346EF
S315000005B0009600F08BFA01352246013C4346394647
S315000005C048462DB224B2009600F080FA48464346CB
S315000005D022462946009600F0C7FA38464346224688
S315000005E02946009600F0C0FA002003B0BDE8F0836B
S315000005F030B583B0BDF818409DF81C501AB1CDE94E
S315000006000045FFF78DFE002003B030BD2DE9F04F09
S3150000061083B0BDF830A09DF834B0002B43D0203A0B
S315000006201D46D3B25E2B3ED86F68002F3BD06A784A
S315000006308E4613FB02F3A97801FB03F37AB38146D6
S31500000640002629781F44CDF804E021B30024019B3D
S3150000065003EB06080FFA88F8234603E00134E3B2F9
S31500000660994217D9AA78D80806FB0272125C03F0E1
S31500000670070342FA03F3DB07F0D509EB04005B46F8
S315000006804146524600B2FFF727FE01342978E3B20D
S315000006909942E7D86A780136F3B29A42D5D8002053
S315000006A003B0BDE8F08F032003B0BDE8F08F00BFB4
S315000006B02DE9F04F83B0BDF830B09DF834C0002A64
S315000006C04FD01E46002B4CD082465C6800E00834B2
S315000006D0238813B9A378002B3FD02078137898424B
S315000006E0F5D1607853789842F1D1A0789378984202
S315000006F0EDD17378D4F804805BB30027E1463278F5
S31500000700019112B30024019BDD192DB2234603E0AB
S315000007100134E3B29A4217D9B178D80807FB0181B0
S31500000720095C03F0070341FA03F3DB07F0D50AEB94
S3150000073004004B465A46294600B2FFF7CDFD013468
S315000007403278E3B29A42E7D873780137F9B28B422E
S31500000750D7D8002003B0BDE8F08F032003B0BDE872
S31500000760F08F022003B0BDE8F08F00BF2DE9F047FF
S3150000077082B00A9FBDF82C909DF830A0002A45D083
S315000007801E46002B42D0002F40D08846144685B224
S3150000079094F90020BAB1002A3CDA22F01F03403354
S315000007A015D022F00F03203318D022F007021032A2
S315000007B025D033782B44802B05DC94F901200134B5
S315000007C09DB2002AE7D1002002B0BDE8F0873B7851
S315000007D02B44802BF7DC02231C44D9E73B782B44BF
S315000007E0802BF0DC3B46224628B24146CDE9009AF2
S315000007F0FFF75EFF3B7803342B449DB2C8E73B7896
S315000008002B44802BDFDC04231C44C1E7022002B00A
S31500000810BDE8F08733782B44802BD4DCA2F120018D
S31500000820C9B25E29C9D833464146CDE9009A28B2F5
S31500000830FFF7ECFE33782B44BFE700BF2DE9F04FFE
S3150000084085B09DF83CB0002A37D0002B35D09446B1
S315000008500E9A92B31FFA81FA53449BB20093134641
S315000008604FF000094FF6FF77013380B2CDE9013C26
S315000008700CEB0006B6B20390019B039C03EB490503
S315000008800FFA8AF82B7815F8012C20B242EA0322D7
S31500000890BA4203D05B464146FFF71EFD0134A4B2BF
S315000008A0A64205F10205EDD10AF101031FFA83FA0A
S315000008B0029B9944009B5345DED1002005B0BDE85C
S315000008C0F08F00BF08B57E21024B034A034801F0B2
S315000008D0C1FD00BFC8360000784E0000003700009A
S315000008E00379012B04BF014A13707047E407002007
S315000008F0034630B5002283B04FF443711C488DF88F
S31500000900073001F05FFA002240F60711184801F09F
S3150000091059FA072301220DEB0301164801F09AF953
S3150000092042F21073144D154C2A78236052B90121F6
S31500000930013B0846236001F095FD2B7813B9236827
S31500000940002BF4D12B7873B14FF0000C42F21073E8
S31500000950012240F60711064885F800C0236001F021
S3150000096031FA03B030BD064802F052F8ECE700BF9A
S31500000970F088002028890020E4070020E8070020EE
S3150000098018370000034630B5012283B04FF4437197
S315000009901B488DF8073001F015FA002240F60711C2
S315000009A0174801F00FFA0723164D01220DEB03013C
S315000009B0154801F04FF9154C154B2A78236052B9AA
S315000009C00121013B0846236001F04CFD2B7813B949
S315000009D02368002BF4D12B7873B14FF0000C4FF441
S315000009E07A73012240F60711054885F800C0236096
S315000009F001F0E8F903B030BD064802F009F8ECE76B
S31500000A00F0880020E407002028890020E80700205D
S31500000A10A08601002C37000038B50D460446012299
S31500000A204FF44371184801F0CDF9002240F6071142
S31500000A30154801F0C7F92A46144D072321461448E4
S31500000A4001F008F9134C144B2A78236052B901219E
S31500000A50013B0846236001F005FD2B7813B9236896
S31500000A60002BF4D12B785BB100230B492B7021604E
S31500000A700122BDE8384040F60711034801F0A2B94B
S31500000A80064801F0C5FFEFE7F0880020E4070020E4
S31500000A9028890020E8070020A086010044370000CE
S31500000AA0024B00EBC11033F810007047F00800202D
S31500000AB040EA01039BB27F2B04D8034B00EBC11025
S31500000AC023F81020704700BFF008002081428C46B2
S31500000AD0A8BF84468142B8BF0146F0B51FFA8CFC18
S31500000AE088B284459DF8145036D81E4C4FEAC21E73
S31500000AF00BE07F2903D80EEB0C0124F811300CF122
S31500000B00010C1FFA8CFC604526D34CEA0201012D2C
S31500000B1089B2EED10EFA8CF634F816709F4210D0D8
S31500000B207F29E8D90CF1010C1FFA8CFC604513D320
S31500000B300EFA8CF634F816704CEA02019F4289B21E
S31500000B40EED17F290CF1010707D8D9431FFA87FC9C
S31500000B50604524F81610EBD2F0BD1FFA87FC6045FD
S31500000B60E6D2F0BDF00800208A4270B51646B8BF3E
S31500000B700E468A42A8BF0A46B6B2B2429DF8105047
S31500000B8027DC184C0BE07F2998BF00EBC21102F15D
S31500000B90010212B298BF24F81130B24219DC40EAC1
S31500000BA00201012D89B2EED100EBC21C34F81CE023
S31500000BB09E45E8D17F2902F1010E0BD80FFA8EF27D
S31500000BC06FEA030E40EA0201964289B224F81CE05D
S31500000BD0EADA70BD0FFA8EF2964240EA0201F8DBBD
S31500000BE089B2E1E7F00800208446F0B14FF6FF73C2
S31500000BF0984220D0134800B500F5004E0022114659
S31500000C006CF30F026CF30F01A0F580736CF31F42B7
S31500000C106CF31F41C3E9002108338342FAD103F57F
S31500000C2080707045EAD15DF804FB01464FF400423E
S31500000C30054801F0CDBF4FF40042FF21024801F004
S31500000C40C7BF00BFF0090020F00800204FF6FF7272
S31500000C501049030210B401F1FE0C981E0E4C084414
S31500000C609C4430F8021F13024A40120A34F812203C
S31500000C709BB25340C9B281EA132134F811201B02FA
S31500000C809BB2844582EA0302EBD110465DF8044B21
S31500000C90704700BFF0080020884E00002DE9F0479D
S31500000CA082B0FFF779FA4FF00008824646462E4D8D
S31500000CB02E4C2F4F06E008F10108B8F1800F04F51D
S31500000CC0807445D01FFA88F0FFF7C0FF35F8023F61
S31500000CD081468342EFD02A200196FFF709FE0421C0
S31500000CE0022281230DEB01008DF805208DF80730D7
S31500000CF0FFF792FE2B20FFF7FBFD042108F103030B
S31500000D00DBB20DEB01008DF805308DF80730FFF7EB
S31500000D1083FE2C20FFF7ECFD2146154B03F5807C66
S31500000D2031F8022F0233100A9C4503F8020C03F82F
S31500000D30012CF5D14FF48071384608F10108FFF710
S31500000D406BFEB8F1800FA5F8009004F58074B9D158
S31500000D50FFF722FA01465046FFF724FA02B0BDE833
S31500000D60F047FFF721BA00BFEA070020EE0800208F
S31500000D70E406002010B59749974800F049FD002881
S31500000D8040F025810446024640F20B31934801F0BB
S31500000D9019F84FF47A71642001F064FB012240F2E5
S31500000DA00B318E4801F00EF84FF47A71642001F091
S31500000DB059FB1120FFF79CFD4FF47A71782001F062
S31500000DC051FBB120FFF794FD0120FFF7DBFD2C203E
S31500000DD0FFF7D8FD2D20FFF7D5FDB220FFF788FDE0
S31500000DE00120FFF7CFFD2C20FFF7CCFD2D20FFF7CC
S31500000DF0C9FDB320FFF77CFD0120FFF7C3FD2C20C2
S31500000E00FFF7C0FD2D20FFF7BDFD0120FFF7BAFD5E
S31500000E102C20FFF7B7FD2D20FFF7B4FDB420FFF718
S31500000E2067FD0720FFF7AEFDC020FFF761FDA82094
S31500000E30FFF7A8FD0820FFF7A5FD8420FFF7A2FD18
S31500000E40C120FFF755FDC420FFF79CFDC220FFF728
S31500000E504FFD0D20FFF796FD2046FFF793FDC320BB
S31500000E60FFF746FD8D20FFF78DFD6A20FFF78AFD0F
S31500000E70C420FFF73DFD8D20FFF784FDEE20FFF730
S31500000E8081FDC520FFF734FD0520FFF77BFDE0203F
S31500000E90FFF72EFD0220FFF775FD1C20FFF772FD00
S31500000EA00720FFF76FFD1220FFF76CFD3720FFF7D5
S31500000EB069FD3220FFF766FD2920FFF763FD2D202F
S31500000EC0FFF760FD2920FFF75DFD2520FFF75AFD9E
S31500000ED02B20FFF757FD3920FFF754FD2046FFF77B
S31500000EE051FD0120FFF74EFD0320FFF74BFD1020BB
S31500000EF0FFF748FDE120FFF7FBFC0320FFF742FD6B
S31500000F001D20FFF73FFD0720FFF73CFD0620FFF7FA
S31500000F1039FD2E20FFF736FD2C20FFF733FD292063
S31500000F20FFF730FD2D20FFF72DFD2E20FFF72AFDC0
S31500000F302E20FFF727FD3720FFF724FD3F20FFF780
S31500000F4021FD2046FFF71EFD2046FFF71BFD022070
S31500000F50FFF718FD1020FFF715FD2020FFF7C8FC4E
S31500000F603A20FFF7C5FC0520FFF70CFD2A20FFF706
S31500000F70BFFC2046FFF706FD2046FFF703FD20468F
S31500000F80FFF700FD7F20FFF7FDFC2B20FFF7B0FCED
S31500000F902046FFF7F7FC2046FFF7F4FC2046FFF754
S31500000FA0F1FC7F20FFF7EEFC3620FFF7A1FCC820FE
S31500000FB0FFF7E8FC2920FFF79BFC21464FF400428F
S31500000FC0074801F005FEBDE81040FFF767BEFFF7D2
S31500000FD079FC00BFBC50000028890020F088002062
S31500000FE0F00800202DE9F04784B0FFF71DF9FFF760
S31500000FF0BFF8FFF7BFFE564EDFF87891DFF878812D
S31500001000544D554F00200024FFF7EEFD4FF4FC6AC7
S3150000101076230A22CDE900A419461046FFF766FAA0
S31500001020CDE901A42B461E214C4A00961420FFF759
S315000010309DFBCDE901A42B463C21494A00960F2091
S31500001040FFF794FB202330211A4601940846CDF879
S315000010500090FFF7F3FB40F2FF7A0522CDE900A4EA
S315000010600A2314211046FFF741FACDE900A40A230A
S31500001070052276216C20FFF739FA4FF6E07C16231D
S31500001080CDE900C4122267211920FFF785FA4FF631
S315000010901F0C48F2104ACDE900C40F2308221E2176
S315000010A04020FFF7A5FACDE901A42B4664212D4A7D
S315000010B000960520FFF75AFB2B46CDE901A42A4AE4
S315000010C0642100966E20FFF751FBFFF7E7FD4FF412
S315000010D07A718246084601F0C5F952460121384622
S315000010E001F02EFC2046FFF77FFD4FF4784A762369
S315000010F00A221946CDE900A41046FFF7F7F92B4658
S31500001100CDE901A41E21194A00961420FFF72EFBF3
S315000011102B46CDE901A43C21154A00960F20FFF786
S3150000112025FB202330211A4608460194CDF800807D
S31500001130FFF784FBFFF7B2FD4FF47A7104460846C9
S3150000114001F090F922460221384601F0F9FB59E7F1
S31500001150B047000080480000743700005C3700008C
S31500001160643700006C3700007037000090370000CD
S3150000117098370000B03F0000B0370000022800D0CA
S3150000118070470249024800F0F7BE00BF1451000044
S31500001190F088002008B5FFF725FF002008BD00BF36
S315000011A003460020C3E90512704700BF10B4046A65
S315000011B0A37803F07B03A3708378046A03F0030328
S315000011C0D21A0B44C0E90332A37843F08003A3701C
S315000011D0837803F00303022B06D0036A0A78002003
S315000011E0DA705DF8044B70470B88026A43F47E435D
S315000011F0D38100205DF8044B704700BFF0B5846AC8
S3150000120085B005460F4694466E46B4B194E80F0085
S3150000121086E80F00EB6920461B78A760236084F8F8
S3150000122004C0EB6AE3606B6A9847AC6A1CB196E847
S315000012300F0084E80F0005B0F0BD3446EAE700BFB2
S31500001240012203460878824012F0060F05D0CA69CB
S3150000125052681278120700F1CB8100224FF0010C80
S3150000126000F580002DE9F04100F58C500002C3E93D
S3150000127007101A704D6998785D628D696CF30100EC
S31500001280C3E90A2598704878D44C904214BF654645
S315000012900225987865F30100987091F90B5091F842
S315000012A00AE0680905F01F0620300CFA06F644F835
S315000012B02060BFF34F8FBFF36F8FC94805F1C0069B
S315000012C050F8267062F3104740F8267050F82660F2
S315000012D0C44E4FEA0E1E67195FFA8EFE87F800E3CA
S315000012E046F8253091F9055091F804E06F0905F0AC
S315000012F01F0820370CFA08F844F82780BFF34F8FF1
S31500001300BFF36F8F05F1C00750F8278062F31048CE
S3150000131040F8278050F827704FEA0E1E67195FFACB
S315000013208EFE87F800E346F8253091F9075091F8CC
S3150000133006E06F0905F01F0820370CFA08F844F894
S315000013402780BFF34F8FBFF36F8F05F1C00750F8AB
S31500001350278062F3104840F8278050F827704FEA3C
S315000013600E1E67195FFA8EFE87F800E346F82530F1
S3150000137091F9095091F808E06F0905F01F08203728
S315000013800CFA08F844F82780BFF34F8FBFF36F8F2E
S3150000139005F1C00750F8278062F3104840F827800F
S315000013A050F827004FEA0E10C0B22C4484F8000310
S315000013B046F82530EFF310868CF310884FF0004581
S315000013C00C788948E540446824EA0504446040688E
S315000013D086F31088186A8270186A0271186A427257
S315000013E0186A8272186AC272186A428340F2F93227
S315000013F008780CFA00FC1CEA020F02D040201A6A98
S31500001400D0740625012240F2F9301C6A25770C7843
S31500001410A240024240F0CA80CA7848788C78D2004E
S31500001420032842EA041200F0D58000280CBFE2200F
S31500001430F2201C6AD2B222701A6A9071CC69227BA1
S31500001440082A00F0C380186A520002F002024273B2
S3150000145000256278A078D201400100F02000D2B2C7
S315000014600243186A0572207802380128186A40F289
S31500001470A280D2B2C27160681A6A847854704578C4
S31500001480147865F301041470C4789474D4790078E0
S3150000149004F0A30400F05C002043D0710020C3E9EF
S315000014A00300C3E90500DC694D4A94F90540CD699E
S315000014B004F1C00152F8216095F800C060F31046AF
S315000014C042F821600CF0030C52F82110BFF35F8F35
S315000014D04FF0010E6109890004F01F0401F160411B
S315000014E001F561410EFA04F4C1F880410C60D96936
S315000014F091F90B4004F1C00152F8216060F31046E7
S3150000150042F8216052F82110BFF35F8F610989000C
S3150000151004F01F0401F160410EFA04F401F5614183
S31500001520C1F880410C60D96991F9074004F1C00106
S3150000153052F8216060F3104642F8216052F82110FB
S31500001540BFF35F8F6109890004F01F0401F1604158
S315000015500EFA04F401F56141C1F880410C60D969C5
S3150000156091F9091001F1C00452F8246060F31046A5
S3150000157042F8246052F82420BFF35F8F4A09920094
S3150000158001F01F0102F160420EFA01F102F561421B
S31500001590C2F8801111601A6A4CF0700C82F802C011
S315000015A06989124A19815A60BDE8F0814FF4784082
S315000015B01A6A908230E7FF2545702078022808BF16
S315000015C042F01002186AD2B2C27167E70A201A6A9C
S315000015D050733DE7F22042F040022AE700E100E0C6
S315000015E000600040AC890020004008405549435344
S315000015F003207047EFF30383103B1F4A5BB203F1EE
S31500001600C00152F8210020F4803042F8210052F83F
S3150000161021201A4A52F82300C3691B6983B1036962
S3150000162003B17047026A0021937803F07F0343F009
S3150000163004039370436AC160C3B18022FFF7DEBD25
S315000016400369026A002BEED08378C16803F00303B6
S31500001650022B0CD00B78D3708278D0E9031302F0FA
S3150000166003029B1A1144C0E90313D9E770470B889C
S3150000167043F47E43D381EFE700600040AC8900204D
S3150000168010B582B0EFF30383103B1F4A5BB203F140
S31500001690C00152F8210020F4803042F8210052F8AF
S315000016A021201A4A52F82340A27802F00303022BA3
S315000016B0236A0CBF198A5979A3690CBFC1F30801C3
S315000016C0C9B2019143B9636AB3B10422204602B09C
S315000016D0BDE81040FFF792BD02F0030201A9606960
S315000016E001F0CDFAD4E90521A37803F003031A44E7
S315000016F0C91AC4E9052109B102B010BD636A002BFD
S31500001700FAD00122E2E700BF00600040AC89002069
S3150000171010B5EFF303830E4A103B5CB252F8240077
S31500001720026A937803F07B039370436A1BB102222B
S315000017300021FFF763FD074A04F1C00352F82310A6
S3150000174021F4803142F8231052F8233010BD00BF37
S31500001750AC8900200060004010B5EFF303831A4AFD
S31500001760103B5CB252F82400837803F00303022B8B
S31500001770036A0CBF198A597993F804C00CBFC1F3E8
S315000017800801C9B21CF0100F0CF0380206D093F80D
S315000017901CC01CF0010F08BF42F0400293F804C0C1
S315000017A00CF0C70C83F804C0436A0BB1FFF726FDA3
S315000017B0064A04F1C00352F8231021F4803142F89E
S315000017C0231052F8233010BDAC8900200060004081
S315000017D030B5436A85B004468C4601ADABB193E89B
S315000017E0070085E8070062681846127883F804C087
S315000017F01A60A26A9A60236A9847636A1BB195E8E1
S31500001800070083E8070005B030BD2B46EBE700BFB5
S3150000181000222DE9F04F0B78416003F5800303F5B4
S315000018208C531B0283608B690D460362CB690446A9
S31500001830C0E909234B6983B093B14FF400215A687C
S315000018401268116059688268096805324A60D3E9EE
S3150000185001121868126890470646002840F0338146
S315000018602B6993B14FF000615A681268116059688C
S31500001870A268096803328A60D3E9011218681268FF
S3150000188090470646002840F028816068026A817AFF
S3150000189092F9023092F802C0002B437AAABF4FF0A9
S315000018A0FF0C4FF0040E4FF0000E012B18BF00275F
S315000018B092F8018012BFB94602274FF0050908F0D9
S315000018C003080129C37A48F0800800F00081012B43
S315000018D014BF49F0800949F0C009437B002B0CBFB7
S315000018E0EA26E226EFF3108A012383F310884FF0ED
S315000018F0004B01787E482BFA01FB416821EA0B0177
S31500001900416041688AF3108800204FF0840A5FFA2C
S3150000191089F14FF478490191A1685FFA88F88870D7
S31500001920A16891F804B081F804A0A168A1F8149008
S31500001930A16881F80080A1688F70A16840278E7128
S315000019401678A268019956700226A26882F812C01B
S31500001950A26882F807E0A2685173A268654910720E
S31500001960A2685072A2689072A268D072A268508370
S31500001970A268D774A268604F167795F805C095F9E6
S3150000198001205E4E4FEA0C1C06EB020E5FFA8CFC41
S315000019908EF800C347F8224002F1C00C51F82CE043
S315000019A060F3104E41F82CE051F82CC0BFF35F8F66
S315000019B04FEA521C4FEA8C0C02F01F020CF1604CED
S315000019C003FA02F20CF5614CCCF88021CCF8002029
S315000019D095F806C095F902204FEA0C1C06EB020E9C
S315000019E05FFA8CFC8EF800C347F8224002F1C00C67
S315000019F051F82CE060F3104E41F82CE051F82CC061
S31500001A00BFF35F8F4FEA521C4FEA8C0C02F01F02A5
S31500001A100CF1604C03FA02F20CF5614CCCF8802113
S31500001A20CCF8002095F807C095F903204FEA0C1C66
S31500001A3006EB020E5FFA8CFC8EF800C347F82240D4
S31500001A4002F1C00C51F82CE060F3104E41F82CE086
S31500001A5051F82CC0BFF35F8F4FEA521C4FEA8C0C33
S31500001A6002F01F020CF1604C03FA02F20CF5614C15
S31500001A70CCF88021CCF8002095F808C095F9042010
S31500001A804FEA0C151644EDB286F8005347F822408B
S31500001A9002F1C00551F8256060F3104641F8256053
S31500001AA051F82510BFF35F8F02F01F015209920013
S31500001AB002F160428B4002F56142C2F88031136048
S31500001AC006460F4B2360304603B0BDE8F08F002B6F
S31500001AD07FF403AF49F04009FFE66B69002BF2D0B3
S31500001AE09A681868136A9847304603B0BDE8F08FC5
S31500001AF00040084000600040AC89002000E100E0A2
S31500001B0053494353F8B51D4683689B7813F0300359
S31500001B1042D1C0E90533C0E903124368C5611646E0
S31500001B201A690446D2B145611B69AAB258680068B1
S31500001B30C281002932D04FF0020C5A681268D07860
S31500001B406CF38300D0705A68126851605A6818683E
S31500001B5011689A6853689847E8B963685A6952B138
S31500001B604EB1A5615B693246996818688E68ABB25A
S31500001B700021B04778B92369002B4BD063681A69F6
S31500001B80002A49D0F021A26893780B4393706368CA
S31500001B901A6972B10020F8BD0820F8BD5A682B4FAB
S31500001BA01268D07861F38300D0705A681268576063
S31500001BB0CCE75A69002AEDD12269002AEAD0012130
S31500001BC093F9013022485A0903F01F03203201FA23
S31500001BD003F340F82230BFF34F8FBFF36F8F636973
S31500001BE0E269934207D2D4E9021252B3D35CCB70B6
S31500001BF06369013363616268517A012912D092F9EF
S31500001C000130012203F01F0011495B09824041F8AF
S31500001C102320BFE7A021B6E75B69002B14BFF021A4
S31500001C207021B0E7E1690129E9D99942E7D9D4E9F8
S31500001C30021242B1D35CCB7063696268013363619F
S31500001C40DDE7CA70D4E7CA70F6E700BF64890020F2
S31500001C5000E100E013460022FFF754BFEFF30383D1
S31500001C60103B164A5BB203F1C00152F8210020F482
S31500001C70803042F8210052F82120114A52F82330D0
S31500001C805A69D9698A4208D2D3E9020199B18A5CB4
S31500001C90C2705A69D96901325A618A4200D07047C6
S31500001CA01A69002AFBD19A68937803F07B0343F004
S31500001CB0040393707047C170EBE700BF00600040FB
S31500001CC0AC890020EFF30383103B194A5BB203F1A2
S31500001CD0C00152F8210020F4803042F8210052F869
S31500001CE02120144A52F823305969DA69914208D200
S31500001CF0D3E90202D2B1525CC2705969DA69013184
S31500001D0059619969914207D24A1C98689A6140794B
S31500001D101A695054D3E90612914206D19A6893780B
S31500001D2003F03B0343F0040393707047C270E4E78B
S31500001D3000600040AC89002010B5EFF303830C4A25
S31500001D40103B5CB252F8240001218268937803F0BC
S31500001D5003039370FFF73CFD064A04F1C00352F8F3
S31500001D60231021F4803142F8231052F8233010BD9D
S31500001D70AC8900200060004010B5EFF303834FF0FC
S31500001D80840C0E4A103B5CB252F82400042182688F
S31500001D90937803F00303937083681A7983F804C079
S31500001DA0FFF716FD064A04F1C00352F8231021F48A
S31500001DB0803142F8231052F8233010BDAC89002040
S31500001DC0006000400120CBB2984080B202B9000406
S31500001DD00B0A5B0103F1804303F5002398600020A2
S31500001DE0704700BF2DE9F84F0388DBB182464FF0FC
S31500001DF0000B4FF00109DFF8D0800024304D4FEA88
S31500001E00CB07DAF8043035F8022BD91989889142C4
S31500001E100AD00134032CF4D1BAF800300BF1010BCF
S31500001E205B45EAD8BDE8F88FDB5909FA04F603F0FA
S31500001E30B853B3F1807FF6B298F8BB3413D033426F
S31500001E4031D1204A04F1200612F81630DB09E0D021
S31500001E5012F81630012123F08003C82002F816304C
S31500001E6000F000FBD5E7334211D0164A04F12001F9
S31500001E7012F81130DB09CCD112F81130C82043F02A
S31500001E80800302F81130012100F0ECFAC1E70120CD
S31500001E9000F0C6FB98F8BB340120334388F8BB3406
S31500001EA000F08EFBE1E7012000F0BAFB98F8BB34A6
S31500001EB0012023EA060388F8BB3400F081FBC0E763
S31500001EC0885100000030084000E00140F8B50646A1
S31500001ED0FFF788FFEFF31082012383F31088234F67
S31500001EE03B681BB92249CB704023CB703B6801335A
S31500001EF03B6082F31088338823B300211D4D08E030
S31500001F001B01134445F82340328801318BB29A42B3
S31500001F1018D9736853F8314003EBC1029288E00385
S31500001F204FEA1223D2B2EBD502EB031055F820E0AC
S31500001F3024F4803C2EF4803E45F820E01B0145F851
S31500001F4020C0DEE7EFF31082012383F310883B689D
S31500001F5013B13B68013B3B603B681BB980200449D9
S31500001F60CB70C87082F31088F8BD00BFA889002026
S31500001F70000D08400008084008B5034B03600846FA
S31500001F80FFF7A4FF002008BD54524F50844630B4DA
S31500001F9082B0019100921D4990F904201C4D51F820
S31500001FA02200C03255F822101A4C21F0807145F8F3
S31500001FB022109CF9041041F40041E28992B2914248
S31500001FC0FBD008222274019A0AB1019A4260009A53
S31500001FD00AB1009A8260C27802F0C001802913D04B
S31500001FE03F2A98BFC381182200200A4B08491A7459
S31500001FF09CF90430C03351F8232042F0807241F836
S31500002000232002B030BC70478381ECE7000000203B
S3150000201000600040005400400620704706207047CC
S31500002020034693F904300549C03351F823200020B4
S3150000203042F0807241F82320704700BF00600040E4
S31500002040034693F904300549C03351F82320002094
S3150000205022F0807241F82320704700BF00600040E4
S31500002060002290F90400124B53F82030C1E90022F7
S31500002070DA783F2A0CD94FF480728A60DA89D2B2B4
S31500002080CA60DA7802F0C002802A09D000207047C0
S315000020904FF480328A60DB8900209BB2CB607047A8
S315000020A04FF480320A609B8900209BB24B607047D8
S315000020B000000020062070470620704703460022D5
S315000020C030B593F904C0074C0CF1C00E54F82E102D
S315000020D0054D21F0807144F82E1045F82C201A6029
S315000020E0104630BD006000400000002030B5864636
S315000020F090F904301C4DC03355F823201B4C22F0B8
S31500002100807245F8232090F9042042F40042E389C6
S315000021109BB29A42FBD00B46DA789C463F2A05D9F9
S31500002120DA89D2B202EB022292B2DA819CF802205C
S3150000213010333F2AF0D84FF0080C18220B4B0C4DE9
S3150000214083F810C09EF904C0074C45F82C101A7489
S315000021509EF904300020C03354F8232042F08072E8
S3150000216044F8232030BD00BF00600040005400400A
S3150000217000000020F8B5274A044613780D4643B3FD
S315000021806B6893F90030002B3FDB234850F823207F
S31500002190002A3CD123712D68BDB12B46DA78194649
S315000021A03F2A05D9DA89D2B202EB022292B2DA814B
S315000021B08A7810333F2AF1D808211822174B197450
S315000021C094F9041040F821501A74154B002023602E
S315000021D0F8BD01261670EFF3108086F31088114AB9
S315000021E0116821F480011160126880F310880A4F8B
S315000021F019462022384600F0EBFC084B5F611E733F
S315000022006B6893F90030002BBFDA0B20F8BD08206D
S31500002210F8BD00BF65890020000000200054004082
S315000022200043544400400840064B074993F82600F3
S315000022301A6A51F82030C2F302620449D3400B6097
S31500002240704700BF00E00140A0040020D8890020AC
S31500002250704700BFF8B54AF2035001234549464A84
S31500002260A1F8FE03A2F80431B2F804319BB2002BA8
S31500002270FAD101204FF400454FF0090C3F4CDFF82E
S3150000228018E13F4EC4F804E0DFF810E13D4FC4F812
S315000022900CE0A2F800013C4A3649B0603060276085
S315000022A0A5602561626191F82620086A54F822200B
S315000022B0364EC0F30260C240326081F8133481F8B2
S315000022C0A2C091F880341BB991F8813499074CD09B
S315000022D0284D95F88034002B3CD00022254B83F8FE
S315000022E0812483F880240023224981F8323091F832
S315000022F03C301A07FBD543F2021000231D4A08851D
S3150000230081F82A3092F83C309B06FBD50320052342
S3150000231019494FF0F10C81F81C011D49116282F830
S31500002320263092F82630156A54F82300C5F3026465
S31500002330E04030600123F0244FF42540154981F830
S315000023400CC00B720C7382F8303082F85230A2F84F
S31500002350FE03F8BD0121C82085F8801400F082F83C
S3150000236095F88034012BFBD1B7E74FF47A70FFF76D
S315000023706FFFB8E700E0014000C00140A004002064
S3150000238000700040002D310100C2EB0BD8890020FF
S31500002390211201200020004000127A0000366E0152
S315000023A038B50025284C0121C82084F8285000F0B3
S315000023B059F884F8245094F82430002BFBD194F873
S315000023C02430214943F0020384F8243091F8243064
S315000023D0C3F340009B07F9D41B4A81F8220092F808
S315000023E0223003F0FF00002BF9D192F84030164955
S315000023F060F3C71382F8403091F84030DB09FBD117
S3150000240091F84200104A63F3C71081F8420092F82F
S315000024104230DB09FBD192F844000B4963F3C71045
S3150000242082F8440091F84430C3F3C014DB09F9D1B3
S31500002430012000F0F5F8054B012083F8BB44BDE808
S31500002440384000F0BDB800BF0030084000E0014051
S31500002450704700BF00BEFEE7A0F101000028FBD1D7
S31500002460704700BF1F4B204A1B6800FB01F19342D7
S3150000247013D302F1854202F5071203F5741302F62F
S31500002480834203F6FF03A2FB03231B0DA3FB0131CB
S315000024904FF0FF30F9B1FFF7DFBF4FF47A7210B497
S315000024A0A1FB02C41148B0FBF3F34FF0FF3044B96F
S315000024B0BCFBF3FC4FEA9C0088B15DF8044BFFF7C8
S315000024C0CBBF9B00B1FBF3F1A1FB0212002AF4D1B2
S315000024D0084620B1F1E71846002BDCD170475DF8BD
S315000024E0044B7047D889002000127A0000CA9A3B34
S315000024F070B500240B4B0C4EB3F82021B3F84051B5
S31500002500ADB2154025FA04F3DB0704D556F824309E
S31500002510E0B203B198470134102CF3D1014BA3F874
S31500002520305170BD006000406889002030B503203E
S3150000253085B000F075F800256FF0FF004FF0FF3210
S315000025401B4B1C4C986421462B464FF0010ECDE9DF
S315000025500122039231F8020F0EFA03FC013310B187
S31500002560012522EA0C02082BF4D1F5B10192124B97
S315000025700F4903200A67C3F88022029A4A67C3F804
S315000025808422039A8A67C3F8882200F019F8002388
S315000025900A4834F8022F03F1C00101330AB140F8AA
S315000025A02120082BF5D105B030BD4FF0FF32DEE714
S315000025B0008000407651000000E100E0006000402D
S315000025C0EFF31081012383F31088124B33F81020A8
S315000025D092B22AB133F81020013A92B223F81020B1
S315000025E033F810309BB293B910B40B4A0B4CB2F8C7
S315000025F0FE3334F810009BB243F4254323EA00036C
S31500002600A2F8FE3381F310885DF8044B704781F31E
S3150000261010887047CC89002000E0014094520000E9
S3150000262030B4EFF31081012383F310880E4A32F899
S3150000263010309BB26BB90D4C0D4DB4F8FE3335F826
S3150000264010C09BB243EA0C0343F425439BB2A4F8A3
S31500002650FE3332F8103001339BB222F8103081F38A
S31500002660108830BC704700BFCC89002000E00140D4
S315000026709452000008B500F0F9FA0C2203461A60DD
S315000026804FF0FF3008BD00BF00BE704708B500F030
S3150000269035F8FEF77FFDFEE7F8B5174F05463E68AD
S315000026A0A6B17C6806EB460604EB860602E00C340F
S315000026B0B4420BD0637AAB42F9D1D4E900020021CF
S315000026C0121A0C3400F084FAB442F3D1BE6896B103
S315000026D0FC6804EB061602E01034A6420BD0637BBE
S315000026E0AB42F9D1D4E90002A168121A103400F005
S315000026F0C6FAA642F3D1F8BDBC5100004FF47001F2
S31500002700274B284A70B50020C3F888109A60FEF758
S3150000271035FDFFF79FFD0120FEF730FD224B83F3C9
S315000027200A880020FFF7B8FFFFF77EFDFFF738FEA7
S315000027300320FFF775FF00234FF6FF701B4903F1D7
S31500002740080201330C2B21F81200F8D100240320D3
S31500002750FFF736FF0320FFF763FF154B03205C608E
S315000027609C60DC601C61FFF72BFF0220FEF706FD74
S315000027700120FFF791FF0F4D0F4B5B1BA3424FEA62
S31500002780A30605DD55F8043B01349847A642F9DC5B
S31500002790FFF7CCFEBDE870400020FFF759BE00BF32
S315000027A000ED00E000000000A0000020000D084041
S315000027B000000E402C53000030530000002310B5DB
S315000027C004468360818119464366C281082283617B
S315000027D0C0E90033C0E904335C3000F0F9F90D4B71
S315000027E0246263620C4BA3620C4BE3620C4B2363C3
S315000027F00C4B9C4206D003F16802944202D0D033BF
S315000028009C4205D104F15800BDE8104000F034BAEE
S3150000281010BD00BF212A0000432A00007B2A0000C9
S315000028209F2A0000DC890020024A0349034800F081
S3150000283069B800BF44000020353500005400002070
S3150000284041680C4B994210B5044601D000F072FE67
S31500002850A168094B994202D0204600F06BFEE16860
S31500002860064B994204D02046BDE8104000F062BEF7
S3150000287010BD00BFDC890020448A0020AC8A0020FD
S3150000288010B50B4B04210B4C0B4A20461A60002254
S31500002890FFF794FF04F1680001220921FFF78EFF7C
S315000028A004F1D00002221221BDE81040FFF786BFD6
S315000028B0148B0020DC89002029280000014800F044
S315000028C0DCB900BF1D8B0020014800F0D7B900BF5E
S315000028D01D8B002010B50446FFF7F0FF236A1BB1DD
S315000028E0BDE81040FFF7F0BF044B2362044B1B68A2
S315000028F0002BF5D1FFF7C4FFF2E700BF4128000027
S31500002900148B00202DE9F843074688461446002616
S31500002910D4E90195B9F1010905D52468002CF7D150
S315000029203046BDE8F883AB89012B07D9B5F90E30DF
S31500002930013303D029463846C04706436835E9E7E0
S315000029400FB407B5064904AB086853F8042B816831
S31500002950019300F0C3FA03B05DF804EB04B07047CE
S3150000296050000020036A70B505460E4684680BB910
S31500002970FFF7B0FF636EDB0705D4A389980502D481
S31500002980A06D00F07AF9A389190702D52369002BF7
S3150000299035D12146284600F0C5F880B34FF0FF3503
S315000029A0636EDA0705D4A3899B0502D4A06D00F0F7
S315000029B065F9284670BD002B04DAA2699A4217DC35
S315000029C00A2915D023685A1C22601970A36816F8C4
S315000029D0011F013BA3600029EDD1002B11DA22462D
S315000029E00A21284600F05FF80130D7D00A25D7E73C
S315000029F02246284600F057F80130E7D1CEE7013EDF
S31500002A00E4E723685A1C22600A221A70EEE70000E7
S31500002A10024B01461868FFF7A5BF00BF5000002013
S31500002A2010B50C46B1F90E1000F0FCF80028ABBF4B
S31500002A30636DA3891B1823F48053ACBF6365A38120
S31500002A4010BD2DE9F0411F468B8905460C46DB0576
S31500002A50164605D502230022B1F90E1000F0D0F873
S31500002A60A3893246B4F90E10284623F48053A38175
S31500002A703B46BDE8F04100F0E7B810B50C46B1F9A9
S31500002A800E1000F0BDF8431CA38915BF606523F442
S31500002A90805343F48053A38118BFA38110BDB1F9BD
S31500002AA00E1000F09DB8F8B50E461446054618B14E
S31500002AB0036A0BB9FFF70EFFA369A360A3891A0780
S31500002AC001D5236943B92146284600F02BF818B1F1
S31500002AD04FF0FF373846F8BD2368F6B2226937460D
S31500002AE0981A6369834205DC2146284600F022FDD8
S31500002AF00028EDD1A368013BA36023685A1C22601D
S31500002B001E70431C62699A4204D0A389DB07E1D593
S31500002B100A2EDFD12146284600F00CFD0028D9D028
S31500002B20D6E7000038B5294B05460C46186818B19B
S31500002B30036A0BB9FFF7CEFEB4F90C30190722D49D
S31500002B40DA0607D409222A6043F040034FF0FF302B
S31500002B50A38133E0580712D5616B41B104F14403F8
S31500002B60994202D0284600F097F800236363A389B0
S31500002B7023F02403A3810023636023692360A389D0
S31500002B8043F00803A38123694BB9A38903F4207397
S31500002B90B3F5007F03D02146284600F018FDB4F9AE
S31500002BA00C3013F001020AD00022A2606269524280
S31500002BB0A261226942B913F08000C5D138BD9907D8
S31500002BC058BF6269A260F4E70020F7E750000020D2
S31500002BD002440346934200D1704703F8011BF9E70C
S31500002BE038B50023054D044608462B60FDF7F6FA76
S31500002BF0431C02D12B6803B1236038BD188B00201B
S31500002C0038B50446064D0846114600222A601A4683
S31500002C10FDF7F2FA431C02D12B6803B1236038BDDD
S31500002C20188B002038B50446064D0846114600228A
S31500002C302A601A46FDF73EFB431C02D12B6803B1FE
S31500002C40236038BD188B002038B50446064D08466B
S31500002C50114600222A601A46FDF71AFB431C02D1D0
S31500002C602B6803B1236038BD188B0020014B186810
S31500002C70704700BF500000207047704770470A44F5
S31500002C80431E914200D1704710B511F8014B914295
S31500002C9003F8014FF9D110BD38B50546002941D0DA
S31500002CA051F8043C0C1F002BB8BFE41800F0E0F804
S31500002CB01D4A136833B9636014602846BDE838407E
S31500002CC000F0DCB8A34208D9206821188B4201BF66
S31500002CD019685B6809182160EDE71A465B680BB155
S31500002CE0A342FAD911685018A0420BD120680144BA
S31500002CF0501811608342E0D118685B68084453603D
S31500002D001060DAE702D90C232B60D6E72068211879
S31500002D108B4202BF19685B680918636008BF2160AF
S31500002D205460CAE738BD00BF248B002070B50F4E33
S31500002D300C460546316811B900F0A8FC3060214602
S31500002D40284600F0A3FC431C03D14FF0FF34204675
S31500002D5070BDC41C24F00304A042F8D0211A2846F2
S31500002D6000F094FC0130F2D1EFE700BF208B002089
S31500002D702DE9F843CD1C064625F0030508350C2D34
S31500002D8038BF0C25002D01DBA94204D90C23336082
S31500002D900020BDE8F883DFF8D48000F069F8D8F8A1
S31500002DA000301C4644BB29463046FFF7BFFF431C94
S31500002DB0044658D1D8F800402746002F43D1002CAE
S31500002DC04BD023683946304604EB030900F05EFC1D
S31500002DD0814542D1216830466D1A2946FFF7A6FF84
S31500002DE001303AD023682B442360D8F800305A6863
S31500002DF062BBC8F800700FE02268521B20D40B2A71
S31500002E0017D96119A342256018BF5960636808BFC6
S31500002E10C8F8001062514B60304600F02FF804F1FC
S31500002E200B00231D20F00700C21A1CBF1B1AA3505B
S31500002E30AFE76268A3420CBFC8F800205A60EBE710
S31500002E4023466468AEE73C467F68B6E71A465B6889
S31500002E50A342FBD100235360DEE70C2330463360E8
S31500002E6000F00CF894E70560D6E700BF248B00203D
S31500002E700148FFF702BF00BF1C8B00200148FFF787
S31500002E80FDBE00BF1C8B00209368013B002B9360A6
S31500002E9010B408DA9469A34201DB0A2903D15DF86C
S31500002EA0044BFFF700BE1368581C106008461970E3
S31500002EB05DF8044B7047F8B506460F461446D5181C
S31500002EC0AC4201D1002007E03A4614F8011B304617
S31500002ED0FFF7DAFF431CF3D1F8BD00002DE9F04FF0
S31500002EE00D469DB014469846064618B1036A0BB9BE
S31500002EF0FFF7F0FC6B6ED90705D4AB899A0502D4AF
S31500002F00A86DFFF7BAFEAB891B0701D52B699BB9E4
S31500002F1029463046FFF706FE70B16B6EDC0704D516
S31500002F204FF0FF301DB0BDE8F08FAB899805F7D4A0
S31500002F30A86DFFF7A3FEF3E70023CDF80C804FF052
S31500002F400109DFF8B481099320238DF82930302355
S31500002F508DF82A3023469A4613F8012B0AB1252A02
S31500002F60F9D1BAEB040B0BD05B4622462946304614
S31500002F70FFF7A1FF013000F0A780099A5A44099291
S31500002F809AF80030002B00F09F8000234FF0FF32AC
S31500002F900AF1010A049307938DF853301A93CDE989
S31500002FA0052354460522544814F8011B00F07EFB05
S31500002FB0049AD8B9D10644BF20238DF8533013079D
S31500002FC044BF2B238DF853309AF800302A2B15D0A6
S31500002FD0079A544600204FF00A0C214611F8013B8F
S31500002FE0303B092B4BD9B0B1079214E0A0EB080394
S31500002FF0A24609FA03F313430493D2E7039B191D70
S315000030001B68002B0391BBBF5B4242F00202079391
S315000030100793B8BF049223782E2B0AD163782A2B04
S3150000302032D1039B02341A1D1B6843EAE3730392F1
S315000030300593DFF8D4A003222178504600F036FB32
S3150000304038B1A0EB0A004022049B013482401343AE
S31500003050049314F8011B062228488DF8281000F066
S3150000306025FB00283FD0264B1BBB039B073323F0D1
S31500003070070308330393099B3B4409936AE70CFB58
S3150000308002320C460120A8E7002301344FF00A0C57
S3150000309019460593204610F8012B303A092A03D920
S315000030A0002BC6D00591C4E70CFB01210446012381
S315000030B0F0E703AB2A4604A930460093114BAFF361
S315000030C000800746781CD6D16B6ED90705D4AB892C
S315000030D09A0502D4A86DFFF7D1FDAB895B063FF5D3
S315000030E01FAF09981EE703AB2A4604A93046009392
S315000030F0044B00F07DF8E4E79E520000A852000061
S3150000310000000000B72E0000A45200002DE9F04791
S31500003110164698468A6807460B690C46DDF82090E5
S315000031209342B8BF1346336091F843200AB1013386
S3150000313033602368990642BF3368023333602568DB
S3150000314015F0060506D104F1190AE36832689B1AE0
S31500003150AB422BDC94F843302268003B18BF0123B6
S31500003160920630D404F1430241463846C84701303E
S3150000317023D023681A3454F80A2C03F00603042BD0
S315000031800ABF54F80E5C002533684FF0000608BFEE
S31500003190ED1A54F8123C08BF25EAE5759342C4BF00
S315000031A09B1AED18B5421AD1002008E001235246B9
S315000031B041463846C847013003D14FF0FF30BDE8DD
S315000031C0F0870135C1E7E1185A1C3020023322444A
S315000031D081F8430094F8451082F84310C2E70123B2
S315000031E0224641463846C8470130E6D00136D9E77F
S315000031F02DE9FF470F7E914680460C46782F9A466A
S315000032000C9E01F1430207D8622F0AD8002F00F066
S31500003210D180582F00F0B88004F1420684F842703D
S315000032203AE0A7F16303152BF6D801A151F823F074
S31500003230893200009D320000193200001932000068
S3150000324019320000193200009D32000019320000C8
S315000032501932000019320000193200009B330000B9
S31500003260C732000055330000193200001932000041
S31500003270BD33000019320000C732000019320000C9
S31500003280193200005D33000033681A1D1B68326076
S3150000329004F1420684F8423001239CE0336820683A
S315000032A0191D3160060601D51D6803E04506FBD5EC
S315000032B0B3F90050002D03DA2D236D4284F8433014
S315000032C058480A2311E021683368080653F8045B5E
S315000032D002D4490648BFADB26F2F3360514814BFC0
S315000032E00A230823002184F843106668002EA6608E
S315000032F005DB21682E4321F0040121604BD01646E0
S31500003300B5FBF3F103FB1157C75D06F8017D2F46A8
S315000033100D46BB42F4D9082B0BD12368DF0708D52D
S31500003320236961689942DEBF302306F8013C06F145
S31500003330FF36921B22614B4603AA21464046CDF832
S3150000334000A0FFF7E3FE01304AD14FF0FF3004B092
S31500003350BDE8F087236843F02003236078273248CE
S31500003360236884F845701F06316851F8045B02D45F
S315000033705F0648BFADB23160D90744BF43F02003B2
S3150000338023601DB11023ADE72648E9E7236823F043
S3150000339020032360F6E71646BDE733682568181D47
S315000033A0616930602E061B6801D5196002E0680667
S315000033B0FBD51980002316462361BCE7336800213C
S315000033C01A1D32601E686268304600F06FF908B157
S315000033D0801B606063682361002384F84330AAE79A
S315000033E02369324649464046D0470130ADD023686E
S315000033F09B0713D4E068039B9842B8BF1846A6E71C
S315000034000123324649464046D04701309DD001351A
S31500003410E36803995B1AAB42F2DCEBE7002504F1A3
S315000034201906F5E7AF520000C0520000B1F90C20B2
S315000034302DE9F041160705460C4654D44B68002B7F
S3150000344002DC0B6C002B48DDE66A002E45D000231B
S3150000345012F480522F68216A2B6030D0626DA389E6
S31500003460590705D56368D21A636B0BB1236CD21A60
S315000034700023E66A216A2846B047431CA38906D181
S3150000348029681D292BD82A4ACA40D60727D50022E3
S31500003490D90462602269226004D5421C01D12B68DE
S315000034A003B96065616B2F60B9B104F144039942B9
S315000034B002D02846FFF7F0FB002363630DE00123EB
S315000034C02846B0470246501CC9D12B68002BC6D0EF
S315000034D01D2B01D0162B1DD12F60002021E043F0BB
S315000034E040031BB21AE00F69002FF6D093070E684F
S315000034F00F600CBF4B690023A6EB07088B60B8F181
S31500003500000FEADD43463A46216A2846A66AB047D6
S31500003510002808DCB4F90C3043F040034FF0FF30CC
S31500003520A381BDE8F0810744A8EB0008E7E700BFE8
S315000035300100402038B50B6905460C4613B9002535
S31500003540284638BD18B1036A0BB9FFF7C3F9B4F9B9
S315000035500C30002BF3D0626ED00704D4990502D448
S31500003560A06DFFF78AFB28462146FFF75FFF636ED3
S315000035700546DA07E4D4A3899B05E1D4A06DFFF7DD
S315000035807DFBDDE770B50C46B1F90E1096B0154619
S3150000359000291E460CDAA389002113F0800F14BF00
S315000035A040234FF48063002031602B6016B070BD5D
S315000035B06A4600F049F80028EDDB019901F47041F4
S315000035C0A1F50053594259414FF48063EBE78B89CB
S315000035D0F7B59D0706460C4607D504F14703236059
S315000035E023610123636103B0F0BD01AB6A46FFF7B7
S315000035F0C9FF009F054630463946FFF7B9FB48B973
S31500003600B4F90C309A05EED423F0030343F0020319
S31500003610A381E2E7A389206043F08003A381019B95
S31500003620C4E904075BB1B4F90E10304600F01EF889
S3150000363028B1A38923F0030343F00103A381A389DF
S315000036401D43A581CFE7000038B50023064D04468B
S31500003650084611462B60FCF7D9FD431C02D12B68A6
S3150000366003B1236038BD00BF188B002038B5002396
S31500003670054D044608462B60FCF7A4FD431C02D109
S315000036802B6803B1236038BD188B002038B50023A2
S31500003690054D044608462B60FEF7ECFF431C02D19D
S315000036A02B6803B1236038BD188B0020C9B20346CE
S315000036B0024410B59342184601D1002003E0047875
S315000036C001338C42F6D110BD4653505F53554343E8
S315000036D0455353203D3D20657272000000000000F6
S315000036E02E2E2F7372632F554152545F6465627597
S315000036F0672F756172745F64656275672E6300007B
S315000037002E2E2F7372632F53637265656E2F73743B
S31500003710373733352E6300005B5354373733355D07
S3150000372020434D44E8B685E697B60D005B53543703
S315000037303733355D2042797465E8B685E697B60D70
S31500003740000000005B5354373733355D2044415445
S3150000375041E8B685E697B60D00000000E7958CE9CE
S315000037609DA23100E7BBBFE889B20000410000001E
S31500003770420000005BE7958CE99DA225645D20521E
S315000037806566726573683A20256C646D730D0A0070
S31500003790E7958CE99DA23200E7BAA2E889B200005B
S315000037A0554152545F64656275675F496E6974007E
S315000037B0FFFFFFFFFFFFFFFFF913DF03FF021F03FA
S315000037C01F03FF02FF02FF02FF02FF02FF02FF02CA
S315000037D0FF02FF02FF02FF02FF02FF02FF02FF02DB
S315000037E0FF02BF029B02170BFFFFFFFFFFFFFFFF5A
S315000037F0FFFFFFFFFFF75F03DF02DF021F031F0369
S315000038001F031F03FF02FF021F03FF021F03FF0226
S31500003810FF02FF021F03FF02FF021F031F03FF0237
S31500003820FF02FF027F035F035F03FFE7FFFFFFFF68
S31500003830FFFFFFFF5F031F033F03FF021F031F037B
S315000038401F031F031F037F03BD023E03B702B5021A
S31500003850F40298021D02FD025F031F031F031F03EC
S315000038601F03FF021F031F033F037F03FFFFFFFF2B
S31500003870FFFFBF02FF02FF021F031F033F031F03D9
S31500003880FF02DF029901FFF7FFFFFFFFFFFFFFFFC8
S31500003890FFFFFFFFFFFFFFFFFFFFBA02DF027E030E
S315000038A0FF021F031F031F031F033F03DF02FFFF68
S315000038B01E45FF021F03FF021F031F035F033F0393
S315000038C01E03FFFFFFFFFFFFFFFF76035C031D03E1
S315000038D01C03DA021B14FFFFFFFFFFFFFFFFDE02E0
S315000038E05F031F031F031F031F031F035F033F4DD8
S315000038F01C031F03FF021F031F031F033F03BA021C
S31500003900FFFFFFFFFFCF1F03FF023F03FF02FF0280
S31500003910FF02FF021F033F03BC02FFEFFFFFFFFF93
S315000039209B02FF02FF02FF021F031F035F03FA024F
S315000039303F031F031F031F03FF02FF029802FFFF3F
S31500003940FFFFFC02FF02FF02FF021F031F031F030C
S315000039501F03FF021F031F033F03FF021C03FFFF9A
S31500003960FFFF9902BF02DF021F031F031F031F038E
S315000039701F031F031F031F031F03DA02FFFFFFFFBF
S315000039807F02FF021F031F031F03FF02FF021F0325
S31500003990FF021F031F03FF02FF02FF027F03DF0276
S315000039A0FFFFFFFF1E043F03FF021F031F031F034A
S315000039B0FF021F031F037F03FD02FFFFFFFF9F029E
S315000039C05F031F03FF02FF021F03FF021F031F0304
S315000039D01F031F031F031F031F031F033F031F03B1
S315000039E09F03FFFFFFFF1F031F031F031F033F0369
S315000039F0FF021F031F03BF02FFFFFFFFFB021F03A0
S31500003A001F03FF021F03FFE7FFFFFFFFFFEF3F0359
S31500003A10FF02BF02FB01DC3CDB3CFC3CFB54FE022C
S31500003A201F03DD02FFFFFFF7FF02FF02FF021F0376
S31500003A30FF021F031F03FE02FFFFFFF71F031F0303
S31500003A401F03FF02FF02FFFFFFFFFFFFFFFF1F0332
S31500003A501F031F03FFF7FFFFFFFFFFFF5C0C1F03A2
S31500003A601F03FF02FFEFFFFFFD021F03FF021F03FD
S31500003A70FF023F031F03FFAFFFFFF601FF021F0315
S31500003A801F033F03FF02FFFFFFFFFFFFDD5D1F0375
S31500003A90DF02FFFFFFFFFFFFFFFF1602FF023F03EC
S31500003AA01F03FF02DD02FFFFFFAF5F031F03FF02DD
S31500003AB01F033F03FF02FFFFFFFF7F03FF02FF021B
S31500003AC01F033F03FF02FFFFFFFFFFFF2F02BD02A1
S31500003AD0FFFFFFFFFFFFFFFF7C037F03FF02FF02E5
S31500003AE0FF023F039E02FFFFFFFF3F031F03FF028C
S31500003AF01F033F039F02FFFFFFFF1F03FF021F037A
S31500003B001F031F03FF02FFFFFFFFFFFFF701FFFF7A
S31500003B10FFFFFFFFFFFF5502FF02FF021F031F0308
S31500003B201F031F031F03FFFFFFFF7F021F033F0348
S31500003B301F033F039D02FFFF56023F031F031F03A0
S31500003B401F033F033F03FFFFFFFFFFFFFFEFFFFFE3
S31500003B50FFFFFFFFD9023F031F031F031F031F03BE
S31500003B601F033F031F037602FFFFFD021F033F03F0
S31500003B701F033F039D02FFFF5902FF021F031F039E
S31500003B801F031F03BD02FFFFFFFFFFFFFFFFFFFF36
S31500003B90FFFF3C4D1F031F031F031F031F031F03CC
S31500003BA01F033F03FF02FC02FFFFDC023F033F034C
S31500003BB03F031F03FF02FFFF3C031F031F031F03F7
S31500003BC01F03FF021C03FFFFFFFFFFFFFFFFFFFFB7
S31500003BD0FFFFFFD7FF021F03FF021F031F033F0361
S31500003BE01F031F03FF02BB02FFFFFD02FF021F03AD
S31500003BF01F033F03DC02FFFF3402FF021F031F0304
S31500003C001F03FF02B702FFFFFFFFFFFFFFC7FFFF14
S31500003C10FFFFFFFFF601FF02FF023F031F031F0323
S31500003C201F031F031F03D301FFFFFD02FF023F0314
S31500003C301F03FF02FF02FFFFFFDF1F031F031F0318
S31500003C401F031F035803FFFFFFFFFFFF5E03FFFF76
S31500003C50FFFFFFFFFFFFBD023F033F031F031F03DD
S31500003C601F03FF021F03FFDFFFFFFF021F035F03A8
S31500003C70FF02FF02BE02FFFFFFFFFF021F031F033B
S31500003C801F031F03FFE7FFFFFFFFFFFFFF021502F2
S31500003C90FFFFFFFFFFFFFFFF1F031F031F031F039E
S31500003CA01F031F03FF02FFFFFFFF1F03FF021F0388
S31500003CB0FF02FF021F03FFAFFFFF5C021F031F038C
S31500003CC01F035F03FFF7FFFFFFFFFFEFDF02FF02A8
S31500003CD0FFCFFFFFFFFFFFFF5202FF021F031F037D
S31500003CE01F031F03DC02FFFFFFB71F03FF023F0393
S31500003CF0FF02FF021F037D02FFFFFFFF1F031F03DB
S31500003D001F031E03FFFFFFFFFFFFD602FF023F0355
S31500003D101F03FFFFFFFFFFFFFFFFDA021F031F0363
S31500003D201F03FF02FFFFFFFFFD02FF021F033F030A
S31500003D301F031F031F033F03FFE7FFFF5C021F0371
S31500003D401F037F03FFEFFFFFFFFF3903FF02FF02A1
S31500003D503F035702FFFFFFFFFFFFFFFF1F031F0386
S31500003D60FF029901FFFFFFF71F03FF02FF021F0378
S31500003D701F031F031F03FF027C03FFFFFFFFDF027A
S31500003D801F031E03FF021F03FF023F03FF021F0361
S31500003D901F031F037F03DF02FF029D021F031F0392
S31500003DA01C02FFFFFFFFBF03FF021F031F033F03AA
S31500003DB01F031F031F033F03FF02DC02FFFFFFFF7A
S31500003DC03F033F033F031F033F03FF021F03FF029F
S31500003DD01F03FF02FF021F033F035F035F037F030F
S31500003DE0FFFFFFFF3A03DF02FF021F031F033F032C
S31500003DF01F03FF02FF021F031F031F031A03FFFF18
S31500003E00FFFF9E03DF021F035F031F03FF023F0343
S31500003E101F031F031F031F033F035F031F03FFFF50
S31500003E20FFFFDF031F03DF02FF021F031F03FF0263
S31500003E307F033F03FF021F031F031F039F0274023A
S31500003E40FFFFFFFFFFEFFF025F033F033F03FF029A
S31500003E50FF021F033F03FF02FF02FFE7FFFFFFFF13
S31500003E601703FF02FF02FF021F031F03FF02FB02ED
S31500003E709F653F031F031F031F031F03FF02FF026C
S31500003E809B02FFFFFFFFFFFFFFFF1B1C1C031B0323
S31500003E901C0378021603FFFFFFFFFFFFFFFFFB0275
S31500003EA0FF02FF02FF02FF02FF023F03FF02DB3CAD
S31500003EB0FFFF9E02FF02FF021F031F031F031F03D4
S31500003EC0FF02FF023B03FFFFFFFFFFFFFFFFFFFFB6
S31500003ED0FFFFFFFFFFFFFFFFFFE7FC023F03FF02BD
S31500003EE0FF02FF021F031F031F031F033E03FFFF03
S31500003EF0FFFFFFEF5F033F031F031F03FF021F03C5
S31500003F001F03FF023F037F031F03DF023602520235
S31500003F1073029702BB027F033F03DF02FF021F0308
S31500003F201F031F031F033F031F03FF02FFFFFFFFC4
S31500003F30FFFFFFFFFFE75C02DF023F031F031F03D4
S31500003F401F031F031F031F031F03FF02FF02FF02BE
S31500003F501F031F03FF023F033F033F031F031F030C
S31500003F601F031F03FF021F035E03FFF7FFFFFFFF91
S31500003F70FFFFFFFFFFFFFFFF9D2C1C031F031F0317
S31500003F803F031F033F033F031F03FF023F033F039C
S31500003F903F033F033F031F031F031F033F031F038B
S31500003FA01F03FF02FC02F71BFFFFFFFFFFFFFFFFE0
S31500003FB09EF7FFFFDFFF35F5E3E0E3E8E3E0C2E865
S31500003FC0C3E0E2E0E3E003E1E3E003E1E3D8E3D8C2
S31500003FD0E3D8C3E0C3E0C3D8E3D8E3D8C2D8C2D895
S31500003FE0A2D8C2D8A2D8A1E03CFFDFFFFFFFDFF7CF
S31500003FF0FFFFBEFFC2F0C2F0A2E8C3E8C3F0C3F001
S31500004000C3E8C3E8C3E8C3E8E3E8E3E8E3E8E3E8D2
S31500004010E3E8C3E0C3E0C3E0C3E0C3E0C3E0C3E05A
S31500004020C3D8A3D8A2D8C2D8A2D0C2C07DF7FFFFFA
S315000040309EF7E3F0C3F0C2F0A2F0C3E8C3F0C3F00A
S31500004040C3F0E3E8C3E8C3E8C4E8C4E8C3E8C3E8E8
S31500004050C3E0C3E0C3E0C2E0C2E0C2E0C3E0C3E045
S31500004060A3D8A3D8C3E0A3D8A2D8A2D0A1C89EF74C
S31500004070B7FDE3E8C3F0C3F0A2F0C3F0C3F0C3F0AA
S31500004080C3E8C3E8C3E8C3E8C4E8C4E8C3E8C3E8D0
S31500004090E3E8E3E08CDBDFFFFFFF4491C2E0C2E030
S315000040A0A2D8A3D8A3D8A3D882D882D0A2C87CEF9E
S315000040B0E3E0A2E8A2F0A2E8A3E8C3F0C3F0C3E8F5
S315000040C0C3E8C3E8C3E8E3E8C3E8C3E8C4E8E3E851
S315000040D0E3D0FFFFFFFFFFFFFFFFFFFFFFFF24C946
S315000040E0C2D8A3D8A2D8A3D882D882D082D0E3C01F
S315000040F0C2E8C3F0C3F0C3F0C3F0A3E8C3F0C3E85B
S31500004100C3E8C3E8C3E8E3E8A39810E4E3E8E3E020
S315000041109EFFFFFFFFFFFFFFFFFFFFFFFFFFFFFF0A
S31500004120C2D8A3D8A3D8A3D8A2D8A2D0A2C881B8EF
S31500004130C3E8E3F0C3F0C3F0C3F0C3F0C3F0C3E8D1
S31500004140C3E8C3F04FD4FFFFFFFFFFFFE4D0E4E076
S31500004150FFFFFFFFFFFFC3D8A1D0BFFFFFFFDEFFBA
S31500004160C2D8A2D8A3D8A2D8A2D882D082C881C0E9
S31500004170C2E8C3F0C3F0C3F0C3F0C3F0C3E8C3E8BA
S31500004180E3E8FFF7FFFFFFFFFFFFFFFFA3E8E3E81A
S31500004190FFFFFFFFFFFFC3E0C3E0C2E0C3E0C3D8F9
S315000041A0C3D8A3D8A3D8A2E0A2D882D082C881C09F
S315000041B0C2E8C3F0C3F0C3F0C3E8C3E8E3E8C2F063
S315000041C0FFFFFFFFFFFFFFFFBEFFE2E8E3E0C3E004
S315000041D0FFFFFFFFFFFFC2D8C3E0C2E0C2E0C3E0BB
S315000041E0A3D8A3D8A3D8A2D8A2D082D082C8A2C06E
S315000041F0C2E0C3E8C3E8C3E8C3E8C3E8E3E8FFF7FF
S31500004200FFFFFFFFFFFFE3E0E3E0E3E0E3E0E3D8E7
S315000042107EFFFFFFFFFFFFFFFFF704B9C2D8C2E032
S31500004220C2D8A3D8A3D8A2D8A2D082D081C861B858
S31500004230C2E0C3E8C3E8C3E8C3E8C3E864B9FFFF64
S31500004240FFFFFFFFA1C8E3E0E3E003E1DEFFFFF7C6
S31500004250FFFFFFFFFFFFFFFFFFFFFFFFDFFFC3D0F3
S31500004260C2D8C2D8A3D8A2D882D082D081C861B819
S31500004270E3E0E3E8C3E8C3E8E3E8C4E8FFFFFFFFE1
S31500004280FFFFC3E8E3E8E3E0E4E8FFFFFFFFFFFF2B
S31500004290FFFFFFFFFFFFDFFFFFFFFFFFFFFFFFFF48
S315000042A0E791C2D8A2D8A2D082D082C882C861B80B
S315000042B0E2E0E3E8C3E8E3E8E3E8A4D8FFFFFFFFB2
S315000042C0DFFFE3E0E3E8C2E89DFFFFFFFFFFFFFF3C
S315000042D05DFFFFFFFFFFFFFF03C99EF7FFFFFFFF25
S315000042E0FFFF81B0A2D8A2D082C882C881C061B8BF
S315000042F0E3E0E3E8C3E8E4E8E3E8FEFFFFFFFFFFEF
S31500004300C4E0E3E0E3E804F1FFFFFFFFFFFFC3D0F3
S31500004310C3E0D6FDFFFFFFFF65A9C2D89DFFFFFFE3
S31500004320FFFFFFFFE2C8A2D082D082C881C060B082
S3150000433003E1E3E8C3E8E4E8E3E8FFFFFFFFFFFF8C
S31500004340E3E0C3E0E3E8E3D8FFFFFFFFDEFFE3E0DF
S31500004350E3E0E4E0FFFFFFFFFEF7C2D8C2D8FFFFAD
S31500004360FFFFFFFF75E5A2C882C862C881C061B8B9
S31500004370E3E0E3E8C3E8E3E8E3E0FFFFFFFFFFFF76
S31500004380E3E8E3E8E3E0E3A0FFFFFFFFE4B8E3E0F0
S31500004390C3E0C3D8FFFFFFFFFFFFC2D8C2D8C2E801
S315000043A0DFFFFFFFFFFF82C882C862C061C081B025
S315000043B0E2E0E3E8C3E0E3E0E4E0FFFFFFFFFFFF46
S315000043C0C3E0C3E0E3E005B9FFFFFFFF2491C3E0CC
S315000043D0C2E0C3E0FFFFFFFFFFFFC2D8C2D8A2D8EA
S315000043E0FFFFFFFFFFFF82C882C061C061B861A8FE
S315000043F0C2E0C3E0C3E0C3E0E3D8FFFFFFFFFFFF77
S31500004400C2E0E3E0E3E0A2E0FFFFFFFFFFFFC2D868
S31500004410C2E0E3D8FFFFFFFFFFFFC2D8C2D8A2D891
S31500004420FFFFFFFFFFFF82C081C061C061B881B09E
S31500004430C2E0C3E0C3E0C3E0E3E0FFFFFFFFFFFF2E
S31500004440E3D8C3E0C3E0A3E8FFFFFFFFFFFFFFFFE2
S31500004450FFFFFFFFFFFFFFFFDEFFC2D8A2D8A2D8F3
S31500004460DFFFFFFFFFFF81C081C061C081B840A8A8
S31500004470C2E0C3E0C3E0C3E0C3E0FEEFFFFFFFFF1F
S3150000448024D9C3E0C3E0C3E0C3D8FFFFFFFFFFFFAB
S31500004490FFFFFFFFFFFFBFFFC2D8C2D8A2D082D066
S315000044A0DFFFFFFFFFFF81C061B861B861B061A89F
S315000044B0C2D8C3E0C3E0C3E0C3E0C3D8FFFFFFFF39
S315000044C0FEFFE3D8C3E0C3E0C3D8C2D8FFFFFFFFB7
S315000044D0FFFFFFFFFFFFC2D8C2D8A2D8A2D0E2C812
S315000044E0FFFFFFFFFFFF82C061B861B861B061A046
S315000044F0A2E0C3E0C3E0C3E0C3E0E3D8FFFFFFFFF1
S31500004500FFFF61D8E3D8C3E0C3D8C2D8C2D8C2D8A7
S31500004510C2D0C2D8C2D8C2D8A2D8A2D082D0BEFF3A
S31500004520FFFFFFFF8DA362B861B861B061B061A8FB
S31500004530C2D8C3E0C3E0C3E0A3E0C2E025C1FFFFE9
S31500004540FFFFFFFFE2D8C2E0A2D8A3D8A2D8A2D824
S31500004550A2D8A2D8A2D8A2D8A2D0A2D0A2C0FFFF29
S31500004560FFFFFFFF81C062B861B841B041B060A0F3
S31500004570A2D8C3E0C3E0C3E0C3E0C3E0E2D8FFF7DC
S31500004580FFFFFFFFFFFFA2E8C2D8A2D8A2D8A2D899
S31500004590A2D8A2D8A2D8A2D0A2D083C8FFFFFFFF7C
S315000045A0FFFFA28862B861B861B041B041A860A0BF
S315000045B0A2D8C3E0C3E0A3D8A3D8C3E0C2D8A2E080
S315000045C0DFFFFFFFFFFFFFFF7EFFA2D0C2D8A2D80A
S315000045D0A2D8A2D0A2D061B8FEEFFFFFFFFFFFFF77
S315000045E09DFF82B861B861B041B041A861A840980A
S315000045F0A2E0C3E0A3D8A3D8A2D8A3D8A2D8C2D891
S31500004600C2D0FFFFFFFFFFFFFFFFFFFFFFFFFFFF20
S31500004610FFFFFFFFFFFFFFFFFFFFFFFFFFFFDFFFC4
S3150000462061B881B861B041B041B041A840A8609876
S31500004630A2D8A3D8A3D8A3D8A3D8A3D8A3D8A2D89E
S31500004640C2D8A2E0E288FFFFFFFFFFFFFFFFFFFFE8
S31500004650FFFFFFFFFFFFFFFFFFFFFFFFA3B082B8D3
S3150000466061B861B041B041B040A820A820A06098D0
S31500004670A2E0C2D8A3D8A3D8A3D8A3D8A2D8A3D837
S31500004680A2D8A2D8A2D8A2D0E3A0FFFFFFFFFFFFC7
S31500004690FFFFFFFFFFFFBFFF40B061B881B861B801
S315000046A061B041B041B041A840A020A020A0208820
S315000046B0FBFEA2D8A2D8A2D8A2D8A2D8A2D8A2D8A5
S315000046C0A2D8A2D082D0A2D0A2C8A2C8A2C882C0B4
S315000046D082C082C081C082C061B861B861B861B071
S315000046E041B041B040A820A840A020A020A09DF73E
S315000046F0FFFF82D8A2D8A2D0A2D0A2D0A2D082D0C8
S3150000470082D082D082C882C882C882C882C082C053
S3150000471062C081C061B861B861B841B061B041B0F2
S3150000472041A840A840A840A020A020984090FFFFA4
S31500004730FFFFDFF7A1D0A2D0A2D082D082C8A2C844
S3150000474082C882C882C882C881C081C081C061C057
S3150000475061B861B861B861B861B061B041B041A8F3
S3150000476040A840A020A020A020A020905EF7FFFF38
S31500004770BEF7FFFFFFFFBEF761B081C081C061C019
S3150000478061C061C061B861C061B860B861B840B06D
S3150000479061B061A840A840A840A020A020A040A0E9
S315000047A020982098209861907DF7FFFFFFFFDFFF9C
S315000047B0100C0200B8470000E4BDA00068480000E5
S315000047C0E5818F0050480000E5A5BD00384800008F
S315000047D0E6988E0020480000E6B8850008480000EC
S315000047E0E788B100F047000000000000000000006C
S315000047F0003CFC132009BC1F4420F81F4000E00FBA
S31500004800B0040807F47800000002C82F0812920FBF
S31500004810F47FC81F4810C41FC41F4410441800006A
S3150000482000007C3F4421443F7C214421443F7C21BD
S315000048300021C020203800000000883F08107C0CB2
S315000048404804E47F24042C043004480406060000CF
S3150000485010021004C83BC83F4C00CA7FC852C87F2C
S31500004860A852A8529820000020011001901F88200D
S315000048704C048A0488144864484428040807000045
S315000048800810010088480000000000000000000039
S31500004890000000000000000000000018181818189A
S315000048A018100010180000000000002C242424001A
S315000048B00000000000000000000000006824FE2444
S315000048C024247E2424000000000000107C1612160A
S315000048D0386848483E080800000000864B692E10DC
S315000048E00868949263000000000000003C26261C25
S315000048F04E527362FE0000000000001818181800DF
S315000049000000000000000000000000201018080C45
S315000049100C0C0C0808183020000000040810103099
S31500004920202020301018080400000010502C3856A3
S315000049301000000000000000000000000000181831
S3150000494018FE181818000000000000000000000003
S315000049500000001818100C00000000000000000005
S31500004960003C000000000000000000000000000005
S315000049700000001818000000000000406020301001
S315000049801008080404020000000000003C6642E231
S31500004990DACE42663C00000000000000181E12102D
S315000049A0101010107E000000000000003C626060E5
S315000049B0201008047E000000000000003E60602019
S315000049C03C4040603E0000000000000030382824D3
S315000049D02622FF2020000000000000007E060606BA
S315000049E07E4040603E00000000000000780C061289
S315000049F06E4242463C000000000000007E406020FF
S31500004A00301018080C000000000000003C46426C04
S31500004A10386642423C000000000000003C6642420C
S31500004A20665840201E000000000000000000181814
S31500004A300000001818000000000000000000181810
S31500004A400000001818100C000000000000002018DC
S31500004A500C060830600000000000000000000000A6
S31500004A607E007E00000000000000000000000C1820
S31500004A7020603008040000000000000C3860606010
S31500004A80180800080800000000000038448282BBB5
S31500004A90ADA5A5F52903023C0000000018382C241A
S31500004AA064467EC283000000000000003E6242624F
S31500004AB03E4242423E00000000000000780402022E
S31500004AC0020202067C000000000000003E6242C2B4
S31500004AD0C2C242621E000000000000007E060606FA
S31500004AE07E0606067E000000000000007E06060622
S31500004AF07E06060606000000000000007806020298
S31500004B00734242467C0000000000000042424242DE
S31500004B107E42424242000000000000007E18181843
S31500004B20181818187E000000000000003E20202003
S31500004B30202020221E000000000000004222120A4F
S31500004B400E1A322242000000000000000404040491
S31500004B50040404047C000000000000004666E6FA37
S31500004B60DADA8383830000000000000046464E4ADE
S31500004B705A52726262000000000000003C46C2C346
S31500004B80C3C3C2463C000000000000003E62424231
S31500004B90621E020202000000000000003C46C2C382
S31500004BA0C3C3C2463C18F000000000003E664666DD
S31500004BB03E36266646000000000000007C0602061F
S31500004BC0386040403E00000000000000FE18181843
S31500004BD0181818181800000000000000424242424F
S31500004BE0424242463C0000000000000083C24246AA
S31500004BF064242C3818000000000000008383829291
S31500004C00DADA6E666600000000000000C2662C1844
S31500004C1018382466C3000000000000008342662C9A
S31500004C203818181818000000000000007E402030D8
S31500004C30180804067E00000000000038080808086E
S31500004C4008080808080808380000000204040808D4
S31500004C5010103020604000000000003C3030303042
S31500004C60303030303030303C0000000018382446F8
S31500004C70000000000000000000000000000000002E
S31500004C8000000000000000FF000000040800000013
S31500004C9000000000000000000000000000003C6072
S31500004CA0407C42625E0000000000000202023A46BA
S31500004CB0424242423E00000000000000000078042C
S31500004CC0060206047C0000000000004040407C46CE
S31500004CD0424242665C0000000000000000003C46C4
S31500004CE0427E02067C000000000000F01808087EE4
S31500004CF00808080808000000000000000000FC6624
S31500004D0042661A027CC2423C0000000202023A4697
S31500004D1042424242420000000000001818001E10E5
S31500004D20101010107E0000000000002030003E2011
S31500004D30202020202020301E0000000606064636D1
S31500004D401E0E1626460000000000001E1010101051
S31500004D50101010107E0000000000000000006ED24F
S31500004D60D2D2D2D2D20000000000000000003A46A3
S31500004D7042424242420000000000000000003C4661
S31500004D8042C242463C0000000000000000003A46D5
S31500004D90424242423E0202020000000000007C46FF
S31500004DA0424242665C404040000000000000764EF1
S31500004DB0C6060606060000000000000000007C048F
S31500004DC0043C60403E0000000000000008087F0828
S31500004DD008080808780000000000000000004242B1
S31500004DE0424242665C000000000000000000C24231
S31500004DF066242C18180000000000000000008383C1
S31500004E00DA5A7A6666000000000000000000466478
S31500004E103818386446000000000000000000C24256
S31500004E2066242C3818180C070000000000007E606D
S31500004E30301808047E0000000000007018080808FA
S31500004E400C0E08080808187000001010101010103A
S31500004E5010101010101010100000000C1810101078
S31500004E60307010101010180C000000000000000038
S31500004E708ED26000000000005350495F535437370C
S31500004E8033355F496E69740000002110422063309B
S31500004E908440A550C660E770088129914AA16BB18C
S31500004EA08CC1ADD1CEE1EFF1311210027332522234
S31500004EB0B5529442F772D662399318837BB35AA3DC
S31500004EC0BDD39CC3FFF3DEE3622443342004011404
S31500004ED0E664C774A44485546AA54BB5288509952C
S31500004EE0EEE5CFF5ACC58DD55336722611163006D4
S31500004EF0D776F6669556B4465BB77AA7199738877C
S31500004F00DFF7FEE79DD7BCC7C448E5588668A77893
S31500004F104008611802282338CCC9EDD98EE9AFF9CB
S31500004F20488969990AA92BB9F55AD44AB77A966A73
S31500004F30711A500A333A122AFDDBDCCBBFFB9EEB1B
S31500004F40799B588B3BBB1AABA66C877CE44CC55C43
S31500004F50222C033C600C411CAEED8FFDECCDCDDD6B
S31500004F602AAD0BBD688D499D977EB66ED55EF44E13
S31500004F70133E322E511E700E9FFFBEEFDDDFFCCFBB
S31500004F801BBF3AAF599F788F8891A981CAB1EBA10F
S31500004F900CD12DC14EF16FE18010A100C230E3208B
S31500004FA00450254046706760B9839893FBA3DAB333
S31500004FB03DC31CD37FE35EF3B1029012F322D232DB
S31500004FC03542145277625672EAB5CBA5A895898503
S31500004FD06EF54FE52CD50DC5E234C324A01481042B
S31500004FE06674476424540544DBA7FAB79987B897D3
S31500004FF05FE77EF71DC73CD7D326F2369106B0167B
S3150000500057667676154634564CD96DC90EF92FE992
S31500005010C899E9898AB9ABA94458654806782768CA
S31500005020C018E1088238A3287DCB5CDB3FEB1EFB72
S31500005030F98BD89BBBAB9ABB754A545A376A167A1A
S31500005040F10AD01AB32A923A2EFD0FED6CDD4DCD42
S31500005050AABD8BADE89DC98D267C076C645C454C6A
S31500005060A23C832CE01CC10C1FEF3EFF5DCF7CDF12
S315000050709BAFBABFD98FF89F176E367E554E745EBA
S31500005080932EB23ED10EF01E020200000C000C015F
S315000050900C020C0300000000000000005902000092
S315000050A000000000A85000000001000020000020C1
S315000050B00F00FFFF00000000FFFF000004040506CC
S315000050C0070C0C0C0C00010101000000E45000006C
S315000050D0FC500000E108000000000000E050000065
S315000050E00100000054890020F0500000905100009B
S315000050F024000020F8500000050000005C89002014
S3150000510008510000905100003400002010510000AA
S31500005110040000000B000000205100000000000009
S315000051200000010008010000040000000B0200005E
S31500005130000001000003000000000104010300005C
S315000051400000010402030000040000000B0300003D
S31500005150040000000C030000000001040F0300001F
S31500005160000001040009000000000104010900001C
S3150000517004000000070900008C018D018E018F01DB
S31500005180980199019A019B0102040304040400009A
S3150000519075210000ED2000008D1F00002120000079
S315000051A041200000192000001D20000061200000A1
S315000051B0BD200000B5200000B9200000040000005A
S315000051C06452000008000000E451000002000000E4
S315000051D0D45100000000006800000068A000002014
S315000051E0A0000020000000680000006800000060C9
S315000051F000010C0800000068000000680000007054
S3150000520000010908000000680000006800000008AE
S31500005210000102080000006800000068600000004D
S31500005220000101082000002020000020000000608E
S3150000523000010C0320000020200000200000007068
S3150000524000010903200000202000002000000008C3
S315000052500000020320000020A000002060000000E3
S31500005260000001030000006800000068000100085B
S31500005270000000680000006800010008A00000208F
S31500005280A000002000000003C0040020288B00209E
S315000052900000000301000200080010002000232D7A
S315000052A0302B2000686C4C00656667454647003029
S315000052B03132333435363738394142434445460076
S315000052C03031323334353637383961626364656676
S315000052D0000000004275696C74207769746820527A
S315000052E0656E6573617320416476616E63656420E3
S315000052F0466C657869626C6520536F667477617277
S3150000530065205061636B6167652076657273696FAE
S315000053106E20362E342E3000362E342E300000000D
S309000053200000040679
S30900005324F8B500BF13
S30900005328F8B500BF0F
S3090000532C4D01000029
S30900005330250100004D
S3090100A100FFFFFFFF58
S3090100A200FFFDFFFF59
S3090100A280F8F8FFFFE5
S7050000268D47
