S015000030315F5350495F53637265656E2E73726563A4
S31500000000A004002055320000B93000005132000033
S3150000001051320000513200005132000051320000CE
S315000000200000000000000000000000005132000047
S315000000305132000000000000513200005132000031
S3150000004049220000BD210000D92200002123000022
S315000000508D28000025280000012900004129000004
S3150000006040003500000010080000000000000000FD
S315000000700000000000000800000000000000000072
S31500000080000000000000000003000000DC910020DA
S315000000905400002000000000DC9100204492002063
S315000000A0AC920020000000000000000000000000EC
S315000000B0000000000000000000000000000000003A
S315000000C0000000000000000000000000000000002A
S315000000D0000000000000000000000000000000001A
S315000000E00348044B834202D0034B03B118477047C1
S315000000F0A0000020A000002000000000064B0749D9
S31500000100C91A891048BF0131491003D0044B0BB1FD
S3150000011001481847704700BFA0000020A00000203B
S315000001200000000010B5064C237843B9FFF7D8FF4E
S31500000130044B13B10448AFF300800123237010BDB4
S31500000140C00400200000000084A2000108B5054B91
S315000001501BB105490548AFF30080BDE80840FFF72D
S31500000160CDBF00BF00000000C404002084A200012F
S3150000017000200749074BD1F8FC2042F08072C1F8F5
S31500000180FC201A6842F001021A605860704700BFEE
S3150000019000ED00E0001000E0014B5868704700BF1A
S315000001A0001000E0081A7047044B054A1B68A2FBC2
S315000001B003239B09B0FBF3F0704700BFD8910020E2
S315000001C0D34D6210022801D80120704708B503F00C
S315000001D031FB092203461A60002008BD022801D817
S315000001E00020704708B503F025FB092203461A6074
S315000001F04FF0FF3008BD00BF08B503F01BFB092216
S3150000020003461A604FF0FF3008BD00BF022808B54C
S3150000021004D84FF4005300204B6008BD03F00AFBDE
S3150000022009230360002008BD08B50649064801F009
S31500000230EBFD00B908BD0B21044B054A054802F049
S31500000240EDFE00BFE8510000F8900020904200004B
S315000002506C430000A842000003790146022B0CD033
S31500000260042B04D0012B07D1064A137070470122D4
S315000002700548083101F07EBD70470122034B1A7014
S31500000280704700BFDD040020F8900020DC04002049
S3150000029010B50648144601F06DFD05490B78002B94
S315000002A0FCD000230B70204610BD00BFF890002044
S315000002B0DC04002010B50648144601F055FD05493A
S315000002C00B78002BFCD000230B70204610BD00BF1E
S315000002D0F8900020DD04002040EA010C1FFA8CFC97
S315000002E0BCF17F0F0CD830B5012B04460D4683B008
S315000002F008D02946204601F00BF9002003B030BD96
S3150000030001207047019201F0FBF8019A8242F0D178
S31500000310D2432946204692B201F0FAF8EDE700BF33
S31500000320402A28BF40222DE9F04F89B0BDF8484049
S31500000330834606949DF84C408A460794684C1F46AF
S315000003402488944259D000219146664B5000C0F152
S31500000350030001930FFA82FE198088460B460A466F
S31500000360614C00B2CDF808901FE0BCF1800F00F0A0
S31500000370AD8085B2B3B2002805F1060624F82CE05C
S31500000380A9F8022006EB810628DB4FF00108A2EB54
S315000003900E020A350EF1FF3E414405EB82050FFAC7
S315000003A08EFE0AB2724528B21FDC03F1010C1FFA59
S315000003B08CFC802B04EB830504EB8C0903F102060D
S315000003C079D0964524F82320A5F802E0CDDC85B245
S315000003D0AE1D0028634606EB8106D6DA4FF001080B
S315000003E041440AB2724530B2DFDDDDF808903C4A7E
S315000003F0A2F80090019A138004E03A4B01931B88FF
S31500000400002B60D007F0010307F0040907F0080885
S31500000410029307F00203CDE90498DDE90689002579
S31500000420314C03930EE0039B03BB049B5BBB059B14
S31500000430002B35D1019B01351A88ABB29A4204F1E3
S31500000440040440D9029BB4F90060B4F90270002B91
S31500000450E9D0AAEB07010BEB06004B46424609B270
S3150000046000B2FFF739FF039B002BDED0AAEB070192
S31500000470ABEB06004B46424609B200B2FFF72CFF33
S31500000480049B002BD3D00AEB0701ABEB06004B46CF
S31500000490424609B200B2FFF71FFF059B002BC9D0E9
S315000004A00AEB07010BEB06004B46424609B200B2C7
S315000004B0FFF712FFBEE7DDF80890B8F1000F96D1FE
S315000004C0074BA3F8009009B0BDE8F08F044BDDF8A8
S315000004D00890A3F80090019BA3F800C092E700BF24
S315000004E0E2060020E0060020E00400202DE9F04F9F
S315000004F0824687B05145934687B20E46BDF8409076
S315000005009DF8448005938CB292B298B20EDD1946DE
S31500000510E41BA3B25945029327B25DDD0123801A7D
S3150000052082B20493019205B203930EE03F1BBBB265
S315000005300293059B3FB25B4558DC4FF0FF33151A1B
S31500000540AAB2049301922DB20393DDE901239C1A0A
S315000005506D4224B24AEA0B039BB27F2B07D8B8F14F
S31500000560010F23D04A465946504600F0D1FFB24506
S315000005702BD0A2B253001BB2AB4206DD0199521A30
S31500000580049914B28A440FFA8AFABB42E2DA029B51
S315000005901C44039B24B29B440FFA8BFB4AEA0B03D1
S315000005A09BB27F2BE3D8B8F1010FDBD159465046F9
S315000005B000F0A6FF8145D5D16FEA0902594650469B
S315000005C092B200F0A5FFB245D3D1059B9B45D0D191
S315000005D0002007B0BDE8F08F151A4FF0FF33012257
S315000005E0CDE90332ABB201932DB2AEE701234FF052
S315000005F0FF31801ACDE9033183B2019305B2A4E736
S3150000060093422DE9F84F9B46A8BF934693429946DD
S31500000610B8BF914681428846A8BF804681420D46B2
S31500000620B8BF0546CB45BDF828709DF82C6039DC6F
S315000006306FEA070A1FFA8AFAA845D8BF444609DDB9
S315000006402AE03A465946204600F062FF013424B2B9
S31500000650A54221DB4BEA04039BB27F2BF6D8012E81
S31500000660EFD15946204600F04BFF8742E9D120469C
S31500000670013424B25246594600F04AFF44EA0B03BD
S31500000680AC429BB208DC7F2BE0D85946204600F0EE
S3150000069037FF8742D5D1EAE70BF1010B0FFA8BFB47
S315000006A0D945C9DA0020BDE8F88F00BF2DE9F0432F
S315000006B01C46154681460F4683B0BDF828809DF836
S315000006C02C604346009600F03FFF01352246013C70
S315000006D04346394648462DB224B2009600F034FF10
S315000006E04846434622462946009600F07BFF384698
S315000006F0434622462946009600F074FF002003B0C8
S31500000700BDE8F0832DE9F04F86468842A8BF08462B
S315000007108E45B8BF8E4689B0BDF84C409A420494C7
S315000007209DF8504016461FFA80F8B8BF1E461FFABD
S315000007308EF79A429DF848B005941446A8BF1C4609
S31500000740A7EB0803C3F34E039B458CBF1D465D46CE
S31500000750B1B2A1EB040292B288BF5FFA83FB5308E1
S31500000760B5EB520F88BF5FFA83FBBBF1000F79D060
S31500000770424D4FEA4B032A4605F10209C3F1030332
S3150000078009EB4B090FFA8BFC22F802CB9145FBD102
S315000007904FF0000A0297D1460FE0A9EB0C090A3286
S315000007A00CF1FF3C0AF1010A02EB89020FFA8CFCFC
S315000007B00FFA8AF9E14513B210DC9AB2971D002BA5
S315000007C025F81C9007EB8A0725F819C0E5DA0AF127
S315000007D0010A0FFA8AF9E1453BB2EEDDCBF10009D9
S315000007E0B442029F1FFA89F938DCA6EB0B032246B6
S315000007F004EB0B0ACDE9060E0C46039312E00399AF
S31500000800ABEB040313448A421BB20FDCDDE906019D
S3150000081088421BDD013212B209F1010996421FFA24
S3150000082089F91BDB52450FFA89F3E8DA002BB8BFCA
S315000008305B429BB235F8131008EB0B00A7EB0B0CD1
S31500000840401A614400B209B28842E3DC059B029279
S315000008500093049B00F078FE029ADBE7002009B0C3
S31500000860BDE8F08F059B2246139371463346049CE0
S31500000870129409B0BDE8F04FFFF7C2BEE4060020AF
S3150000088088422DE9F04F0546A8BF0D468842B8BFFD
S31500000890084690468BB09A42A8BF1A46A9B2984518
S315000008A0049585B29DF85040B8BF98466B1A0590DE
S315000008B0C3F34E0084428CBF8446A4461FFA88F6D2
S315000008C097B2A6EB07091FFA89F988BFC4B24FEAA7
S315000008D05900BCEB590F88BFC4B2BDF854A09DF8AF
S315000008E058B09BB2002C70D02144274488B209B27C
S315000008F0361B0391B9B20691B1B22D1B0791B3EB2A
S31500000900440F4FEA44011FFA85FC3FB22DB236B2BE
S31500000910089128DC63004B453CDBDDF80C80224661
S31500000920394640460223CDE900ABFFF7F9FC3946CC
S31500000930224628460123CDE900ABFFF7F1FC4046ED
S31500000940224631460423CDE900ABFFF7E9FC2846F1
S31500000950082322463146CDE900ABFFF7E1FC002033
S315000009600BB0BDE8F08F0CF1FF31013000B209B2D7
S315000009705346CDF800B0CDE9080100F0E5FDDDE90C
S31500000980080153464246CDF800B000F0DDFD630095
S315000009904B45C2DA069B049803F10108079B0FFA40
S315000009A088F803F1FF390FFA89F953464A4641465A
S315000009B0CDF800B000F016FE4A464146534605986B
S315000009C0CDF800B000F00EFEA7E74346DDE90401CE
S315000009D0CDF854B0CDF850A00BB0BDE8F04FFFF7FE
S315000009E065BE00BF30B583B0BDF818409DF81C50F9
S315000009F01AB1CDE90045FFF793FC002003B030BDE6
S31500000A00402A28BF40222DE9F04F83468A46994660
S31500000A104FF080104FF08011ADF50B7D5600C6F1FA
S31500000A200306BDF850729DF854820DF1280C4AACAD
S31500000A3015B236B2ECE80201A445FBD14FF4807240
S31500000A40FF21204602F0A8FE1FFA8BF319469B46AB
S31500000A5009F00103039309F00803059309F0040361
S31500000A60049309F0020300228946CDE908781FFAAB
S31500000A708AFA069310E011B2491B0A3303EB81038D
S31500000A80013D1EB22DB2013211B20BF1010B8D42A6
S31500000A901FFA8BFBC0F21C81039B97B203B3ABB268
S31500000AA0AAEB03001FFA80FEBEF17F0F40F28B8097
S31500000AB011B28D4237DDAAEB070189B27F290FD823
S31500000AC00AA830F911004B441BB29842C4BF0AA8C9
S31500000AD020F8113034F911009842B8BF24F81130CB
S31500000AE0069B03B3ABB2AAEB030080B27F2840F2A9
S31500000AF0E88011B28D4240F39880AAEB070189B2D3
S31500000B007F2910D80AA830F91100A9EB03031BB2FC
S31500000B109842C4BF0AA820F8113034F9110098424F
S31500000B20B8BF24F81130049B1BB3ABB20AEB030128
S31500000B301FFA81FCBCF17F0F079140F2A58011B22C
S31500000B408D4240F384800AEB070189B27F2910D8D1
S31500000B500AA830F91100A9EB03031BB29842C4BFDF
S31500000B600AA820F8113034F911009842B8BF24F8C9
S31500000B701130059BF3B1ABB20AEB030080B27F28BC
S31500000B8040F29A8011B28D4214DD0AEB070189B258
S31500000B907F290FD80AA830F911004B441BB298429E
S31500000BA0C4BF0AA820F8113034F911009842B8BF22
S31500000BB024F81130002EB3B2BFF65DAF063303EB57
S31500000BC087031EB25FE70AA931F91EC00FFA8BF13F
S31500000BD08C4534F91EC0C4BF0AA820F81E108C45E7
S31500000BE0B8BF24F81E1011B28D423FF764AF0698C5
S31500000BF0002898D0A9EB070C0FFA8EF00FFA8CFCA0
S31500000C000DF1280E3EF910804FEA400EE045C4BFB4
S31500000C100DF1280828F810C034F90E006045B8BF59
S31500000C2024F80EC08D423FF768AF04980028A0D084
S31500000C300AEB03001FFA80FCBCF17F0F0790B9D8BE
S31500000C40A9EB070E0FFA8CFC0FFA8EFE23E005982F
S31500000C500028AFD0BDF81C007F28ABD800B20FFA31
S31500000C608BFC0DF1280E3EF910804FEA400EE04550
S31500000C70C4BF0DF1280828F810C034F90E006045ED
S31500000C80B8BF24F80EC07EE7A9EB070E0FFA8CFC5E
S31500000C900FFA8EFE11B20AA830F91C004FEA4C0872
S31500000CA07045C4BF0AA820F81CE034F908C0F44512
S31500000CB0B8BF24F808E043E700B20FFA8BFC11B284
S31500000CC0CFE7A9EB070C00B20FFA8CFC11B297E73D
S31500000CD00025DDE908780DF126060DF5937903E088
S31500000CE0B14505F101050FD036F9020F34F915109B
S31500000CF08842F5DC2AB23B46CDF8008000F024FCA1
S31500000D00B14505F10105EFD100200DF50B7DBDE8DC
S31500000D10F08F00BF2DE9F04F83B0BDF830A09DF8ED
S31500000D2034B0002B43D0203A1D46D3B25E2B3ED8BA
S31500000D306F68002F3BD06A788E4613FB02F3A978C2
S31500000D4001FB03F37AB38146002629781F44CDF8C8
S31500000D5004E021B30024019B03EB06080FFA88F890
S31500000D60234603E00134E3B2994217D9AA78D8089A
S31500000D7006FB0272125C03F0070342FA03F3DB0779
S31500000D80F0D509EB04005B464146524600B2FFF738
S31500000D90A3FA01342978E3B29942E7D86A78013692
S31500000DA0F3B29A42D5D8002003B0BDE8F08F0320F5
S31500000DB003B0BDE8F08F00BF2DE9F043154692F968
S31500000DC0002083B0BDF828809DF82C70A2B10E4695
S31500000DD0994684B202E015F9012F6AB120B24B465A
S31500000DE03146CDE90087FFF795FF99F800000444E6
S31500000DF0A4B220447F28EEDD002003B0BDE8F083D6
S31500000E002DE9F04F83B0BDF830B09DF834C0002A0C
S31500000E104FD01E46002B4CD082465C6800E008345A
S31500000E20238813B9A378002B3FD0207813789842F3
S31500000E30F5D1607853789842F1D1A07893789842AA
S31500000E40EDD17378D4F804805BB30027E14632789D
S31500000E50019112B30024019BDD192DB2234603E054
S31500000E600134E3B29A4217D9B178D80807FB018159
S31500000E70095C03F0070341FA03F3DB07F0D50AEB3D
S31500000E8004004B465A46294600B2FFF725FA0134BC
S31500000E903278E3B29A42E7D873780137F9B28B42D7
S31500000EA0D7D8002003B0BDE8F08F032003B0BDE81B
S31500000EB0F08F022003B0BDE8F08F00BF2DE9F047A8
S31500000EC082B00A9FBDF82C909DF830A0002A45D02C
S31500000ED01E46002B42D0002F40D08846144685B2CD
S31500000EE094F90020BAB1002A3CDA22F01F034033FD
S31500000EF015D022F00F03203318D022F0070210324B
S31500000F0025D033782B44802B05DC94F9012001345D
S31500000F109DB2002AE7D1002002B0BDE8F0873B78F9
S31500000F202B44802BF7DC02231C44D9E73B782B4467
S31500000F30802BF0DC3B46224628B24146CDE9009A9A
S31500000F40FFF75EFF3B7803342B449DB2C8E73B783E
S31500000F502B44802BDFDC04231C44C1E7022002B0B3
S31500000F60BDE8F08733782B44802BD4DCA2F1200136
S31500000F70C9B25E29C9D833464146CDE9009A28B29E
S31500000F80FFF7C8FE33782B44BFE700BF2DE9F04FCB
S31500000F9085B0DDF838801746BDF83CE09DF8402066
S31500000FA0B8F1000F4ED0002F4CD0002B4AD01FFABC
S31500000FB081FB81B2F81D4FEAD009039149465B4493
S31500000FC0D94600268B46CDE900E29BB207E009F13F
S31500000FD001011FFA81F95E449945B6B22ED0B9F1E6
S31500000FE07F0FF4D80FFA89FACDF808900025D1467C
S31500000FF0039C9A4604E001350134AF42A4B219D0ED
S31500001000C5F3CC0333447F2C9BB2F4D8EA4318F8DB
S31500001010031002F0070341FA03F3DB07EBD5DDE922
S31500001020002320B249460135FFF756F90134AF4295
S31500001030A4B2E5D15346DDF80890C8E7002005B014
S31500001040BDE8F08F022005B0BDE8F08F2DE9F04F26
S3150000105085B09DF83CB0002A37D0002B35D0944699
S315000010600E9A92B31FFA81FA53449BB20093134629
S315000010704FF000094FF6FF77013380B2CDE9013C0E
S315000010800CEB0006B6B20390019B039C03EB4905EB
S315000010900FFA8AF82B7815F8012C20B242EA0322BF
S315000010A0BA4203D05B464146FFF716F90134A4B2B3
S315000010B0A64205F10205EDD10AF101031FFA83FAF2
S315000010C0029B9944009B5345DED1002005B0BDE844
S315000010D0F08F00BF00283FD0F0B5044690F900100D
S315000010E0837889B2A1EB530001EB530194F90130E7
S315000010F094F803C09BB294F83660A3EB5C0203EB52
S315000011005C0385B2277985B000B209B212B21BB270
S315000011105EB902960097268E0196FFF7B1FB10B9CD
S3150000112094F905304BB905B0F0BD0026009702963C
S31500001130668E0196FFF7E6FAF1E7A38EE26ACDE93D
S3150000114001300235A36A009294F90110621D28B29B
S31500001150FFF7B4FE05B0F0BD02207047002852D05C
S3150000116044F2082200212DE9F047044690F9005088
S31500001170837890F90160ADB2A5EB530805EB5305F2
S31500001180C378B6B2A6EB530784B006EB5306B0F8A5
S315000011904C901FFA88F8CDE90021ADB2BFB2B6B2C5
S315000011A0B31CBA1CA91C08F102001BB212B209B288
S315000011B000B2B4F84EA0FFF723FA10B104B0BDE8B0
S315000011C0F087CDE9009033B229B23AB20FFA88F02F
S315000011D0FFF716FA0028F1D194F90430002BEDD070
S315000011E00290A36C08F10400CDE9003AE178636C43
S315000011F00C3901EBD17107EB6101221D09B200B276
S31500001200FFF75CFEDAE70220704700BF002857D0E0
S315000012102DE9F041837990F90010642B88BF64238F
S31500001220827889B2A1EB520C01EB52014FF0000219
S3150000123088BF8371C37884B05E080096029290F9E5
S315000012400120044692B20079A2EB530802EB530246
S3150000125013B2019009B295B20FFA8CF00FFA88F228
S315000012601FFA8CF7FFF70CFB1FFA88F8034608B93C
S31500001270A07910B904B0BDE8F081013EF6B2029340
S315000012800096A1786479023900FB01F10D480194BA
S3150000129080FB014007F1010CC9171FFA8CFCC1EB5A
S315000012A0601161446B1E08F101081BB20FFA88F247
S315000012B009B20FFA8CF0FFF725FA04B0BDE8F08109
S315000012C0022070471F85EB5108B58121024B034A66
S315000012D0034801F0A3FE00BF904200004851000001
S315000012E0C84200000379012B04BF014A13707047FE
S315000012F068080020034630B5002283B04FF44371DE
S3150000130019488DF8073001F041FB002240F607111D
S31500001310154801F03BFB072301220DEB030113489F
S3150000132001F07CFA42F21073114D124C2A782360B8
S3150000133052B90121013B0846236001F077FE2B7864
S3150000134013B92368002BF4D12B784BB1002301226B
S3150000135040F6071104482B7001F018FB03B030BDAE
S31500001360054802F039F9F1E7F090002028910020B5
S31500001370680800206C080020E0420000034630B5F3
S31500001380012283B04FF4437119488DF8073001F0FC
S31500001390FDFA002240F60711154801F0F7FA072377
S315000013A0144D01220DEB0301134801F037FA134CDB
S315000013B0134B2A78236052B90121013B084623606A
S315000013C001F034FE2B7813B92368002BF4D12B7867
S315000013D04BB10023012240F6071105482B7001F09E
S315000013E0D5FA03B030BD074802F0F6F8F1E700BFC2
S315000013F0F090002068080020289100206C0800204A
S31500001400A0860100F442000038B50D4604460122CC
S315000014104FF44371174801F0B9FA002240F607115C
S31500001420144801F0B3FA2A46134D07232146134800
S3150000143001F0F4F9124C134B2A78236052B90121BA
S31500001440013B0846236001F0F1FD2B7813B92368B0
S31500001450002BF4D12B784BB100232B700122BDE871
S31500001460384040F60711034801F090BA064802F0EA
S31500001470B3F8F1E7F09000206808002028910020DA
S315000014806C080020A08601000C4300002DE9F04105
S315000014900024074682B00331023203332A2096B273
S315000014A01FFA81F89DB20194FFF724FF2346042119
S315000014B00237BFB23A0A62F3070367F30F23320A11
S315000014C062F3174366F31F630DEB01000193FFF709
S315000014D09BFF2B20FFF70EFF04214FEA182262F331
S315000014E0070468F30F242A0A62F317440DEB010080
S315000014F065F31F640194FFF787FF02B0BDE8F08132
S31500001500024B00EBC11033F810007047F0100020BA
S3150000151040EA01039BB27F2B11D8094B00EBC110A7
S3150000152033F810C094450AD04FF0010C10B4054CA6
S3150000153023F8102004F801C05DF8044B704770478B
S31500001540F0100020701000202DE9F04394B27F2C9B
S315000015509DF81C503FD881420E46B8BF06468142D0
S31500001560A8BF01467F2EA8BF7F2621EAE1718E42E1
S3150000157031DB4FF00108194C194F4FEAC21E0BE040
S31500001580604505D00EEB010C07F8028024F81C001C
S31500001590013109B28E421EDB0EEB0100012D34F83B
S315000015A010C018BF1846EBD19C45DFF834900ED01A
S315000015B0481C714424F8113001B2B14209F80250B6
S315000015C009DC0EEB010034F810C09C45F0D16FEA3F
S315000015D00C0080B2D4E7BDE8F08300BFF010002015
S315000015E0701000202DE9F04384B27F2C9DF81C502A
S315000015F043D88A421646B8BF0E468A42A8BF0A4654
S315000016007F2EA8BF7F2622EAE272964235DB4FF094
S3150000161001081B4C1B4F0AE0F44504D0014424F892
S3150000162011C007F80280013212B2964225DB00EBA8
S31500001630C211012D34F811E018BF9C464FEAC211C1
S31500001640EAD19E45DFF83C9001EB000C10D009F87A
S315000016500250013212B2B24224F81C300DDC00EB0B
S31500001660C21134F811E0D1019E4501EB000CEED118
S315000016706FEA0E0C1FFA8CFCCEE7BDE8F08300BFC4
S31500001680F010002070100020F0B50126154FDFF88D
S3150000169058E0B91E07F50045A1F5807301E08B42BD
S315000016A016D033F8022F8242F9D00022144660F396
S315000016B00F0260F30F04A1F1FE0360F31F4260F313
S315000016C01F44C3E900240833BB42FAD18EF80060F8
S315000016D007F58077AF420EF1010E01F58071DBD17F
S315000016E0F0BD00BFF0110020701000200023F0B5FF
S315000016F02A2083B00193FFF7FDFD0421174B0DEB64
S3150000170001000193FFF780FE2B20FFF7F3FD042174
S31500001710134B0DEB01000193FFF776FE2C20FFF72C
S31500001720E9FD104D104C05F50047A4F580762946D5
S315000017300E4B31F8022F0233100AA34203F8020CB3
S3150000174003F8012CF5D14FF48071304605F580750C
S31500001750FFF75AFEBD42EAD103B0F0BD0002008198
S3150000176000030082EE1000206808002068070020B1
S3150000177010B59549954800F02FFE002840F02281CB
S315000017800446024640F20B31914801F0FFF84FF44F
S315000017907A71642001F04AFC012240F20B318C4838
S315000017A001F0F4F84FF47A71642001F03FFC112047
S315000017B0FFF7A0FD4FF47A71782001F037FCB120D5
S315000017C0FFF798FD0120FFF7D9FD2C20FFF7D6FD86
S315000017D02D20FFF7D3FDB220FFF78CFD0120FFF788
S315000017E0CDFD2C20FFF7CAFD2D20FFF7C7FDB32046
S315000017F0FFF780FD0120FFF7C1FD2C20FFF7BEFD9E
S315000018002D20FFF7BBFD0120FFF7B8FD2C20FFF7C9
S31500001810B5FD2D20FFF7B2FDB420FFF76BFD0720C5
S31500001820FFF7ACFDC020FFF765FDA820FFF7A6FD7A
S315000018300820FFF7A3FD8420FFF7A0FDC120FFF7D6
S3150000184059FDC420FFF79AFDC220FFF753FD0D2076
S31500001850FFF794FD2046FFF791FDC320FFF74AFDF1
S315000018608D20FFF78BFD6A20FFF788FDC420FFF768
S3150000187041FD8D20FFF782FDEE20FFF77FFDC5209D
S31500001880FFF738FD0520FFF779FDE020FFF732FD71
S315000018900220FFF773FD1C20FFF770FD0720FFF7FE
S315000018A06DFD1220FFF76AFD3720FFF767FD322036
S315000018B0FFF764FD2920FFF761FD2D20FFF75EFD90
S315000018C02920FFF75BFD2520FFF758FD2B20FFF7AA
S315000018D055FD3920FFF752FD2046FFF74FFD012049
S315000018E0FFF74CFD0320FFF749FD1020FFF746FDEB
S315000018F0E120FFF7FFFC0320FFF740FD1D20FFF767
S315000019003DFD0720FFF73AFD0620FFF737FD2E20A5
S31500001910FFF734FD2C20FFF731FD2920FFF72EFDC0
S315000019202D20FFF72BFD2E20FFF728FD2E20FFF799
S3150000193025FD3720FFF722FD3F20FFF71FFD20463C
S31500001940FFF71CFD2046FFF719FD0220FFF716FDE5
S315000019501020FFF713FD2020FFF7CCFC3A20FFF7FD
S31500001960C9FC0520FFF70AFD2A20FFF7C3FC204625
S31500001970FFF704FD2046FFF701FD2046FFF7FEFCBA
S315000019807F20FFF7FBFC2B20FFF7B4FC2046FFF778
S31500001990F5FC2046FFF7F2FC2046FFF7EFFC7F2020
S315000019A0FFF7ECFC3620FFF7A5FCC820FFF7E6FCA6
S315000019B02920FFF79FFC2046FFF766FEBDE8104092
S315000019C0FFF794BEFFF780FC1C5200002891002010
S315000019D0F09000202DE9F04F83B0FEF7DDFB0024E8
S315000019E03A4D3B4EDFF8F0B0019003E001310CB206
S315000019F0802C54D02B5DA1B2002BF7D027462B1993
S31500001A0006E013F8010F0FFA88F8002853D047466E
S31500001A107F2F07F10108F4D13B463A460020FFF735
S31500001A2035FD2C20FFF766FC4FF080086FF0010AA9
S31500001A3004F107090FFA89F9B945A8BFB9460FFAA3
S31500001A4089F9A145B8BF00211DDB4FF0000CE64621
S31500001A5020480AEB04213144A0F5807331F8022FA7
S31500001A60023303F8012C120A03F8022C9842F5D12E
S31500001A70631C05F804E01CB2A1450CF5807C00F55A
S31500001A808070E6DA614609F1010958460FFA89F4D1
S31500001A90FFF7BAFCBC42CBDD4446802CAAD1019F9D
S31500001AA0FEF77AFB01463846FEF77CFB03B0BDE83D
S31500001AB0F04FFEF779BB7F22BBB2FFF7E7FC2C2085
S31500001AC0FFF718FCA742B1DA444693E770100020EE
S31500001AD0F010002070090020700800202DE9F04F5A
S31500001AE09DB0FEF7A1FBFEF743FBFFF741FEDFF8D3
S31500001AF050920DF1180A00244FF6E0760020FFF709
S31500001B00C3FD4B46CDE900640221844A1E20FFF73F
S31500001B1053F94FF478480E234FF4FC674FF0010B4E
S31500001B20CDE900841A467D210220FEF7DFFC23461C
S31500001B30424613210320FEF7CFFB23464FF4FC62F7
S31500001B4013210620FEF7C8FB23463246132109203F
S31500001B50FEF7C2FB4B46CDE900744122112110204D
S31500001B60FFF7D8F8CDE90084262312223C211E2057
S31500001B70FEF746FDCDE90074262312225F2141209F
S31500001B80FEF794FDCDE900640F230A221C21702084
S31500001B90FEF728FF434600942C2237210320FFF747
S31500001BA0D3FC3B46009444222C213C20FFF71AFD2F
S31500001BB0CDE900644423302264214220FEF796FCDE
S31500001BC0574D422332226221CDE9006B4420FEF7B5
S31500001BD08DFC0FCD0DF1200CACE80F000FCDACE85D
S31500001BE00F000FCDACE80F0095E803008CE803006A
S31500001BF008A8FFF76FFA05F1080393E80300CAF88F
S31500001C0000000DF1180AADF81C105046090C8DF8AD
S31500001C101E10FFF7FBFAFFF7DDFE4FF47A71059011
S31500001C20084601F003FA5946059A3E4801F06CFC55
S31500001C302046FFF729FD4B46CDE9006402213A4ACA
S31500001C401E20FFF7B9F80E23CDE900841A467D2140
S31500001C500220FEF74BFCCDE901844FF006082A234B
S31500001C6012223721CDF800800320FEF74BFDCDE987
S31500001C7001742A2312227A21CDF800804420FEF72F
S31500001C80FFFDCDE9006409230E223B211E20FEF74D
S31500001C90B7FE4346CDE900740E223B216420FEF7D1
S31500001CA0AFFECDE900643021204B214A3720FFF7F3
S31500001CB0A7F820231F4ACDE9017400924B211A464A
S31500001CC00520FFF763F920231B4A019400924B215C
S31500001CD01A462A20FFF7BAF9CDE90164134C4B46A0
S31500001CE000946E21154A0520FFF7E8F8502205F109
S31500001CF0100108A801F0A7FD08A8FFF72FFAFFF7C3
S31500001D0069FE4FF47A710446084601F08FF92246BF
S31500001D100221044801F0F8FBEDE600BF2443000071
S31500001D2058510000304300004C430000FC4B0000BB
S31500001D30584300007C4B00007C4300005C430000DD
S31500001D40CC4C0000022800D070470249024800F03F
S31500001D50F7BE00BF74520000F090002008B5FFF7F0
S31500001D60BDFE002008BD00BF03460020C3E90512E2
S31500001D70704700BF10B4046AA37803F07B03A37016
S31500001D808378046A03F00303D21A0B44C0E90332D2
S31500001D90A37843F08003A370837803F00303022B38
S31500001DA006D0036A0A780020DA705DF8044B7047A3
S31500001DB00B88026A43F47E43D38100205DF8044B0E
S31500001DC0704700BFF0B5846A85B005460F46944655
S31500001DD06E46B4B194E80F0086E80F00EB69204622
S31500001DE01B78A760236084F804C0EB6AE3606B6A23
S31500001DF09847AC6A1CB196E80F0084E80F0005B05E
S31500001E00F0BD3446EAE700BF012203460878824067
S31500001E1012F0060F05D0CA6952681278120700F14F
S31500001E20CB8100224FF0010C00F580002DE9F04136
S31500001E3000F58C500002C3E907101A704D699878B6
S31500001E405D628D696CF30100C3E90A2598704878D4
S31500001E50D44C904214BF65460225987865F301007C
S31500001E60987091F90B5091F80AE0680905F01F0681
S31500001E7020300CFA06F644F82060BFF34F8FBFF30C
S31500001E806F8FC94805F1C00650F8267062F31047F7
S31500001E9040F8267050F82660C44E4FEA0E1E6719A9
S31500001EA05FFA8EFE87F800E346F8253091F9055073
S31500001EB091F804E06F0905F01F0820370CFA08F8BE
S31500001EC044F82780BFF34F8FBFF36F8F05F1C0072C
S31500001ED050F8278062F3104840F8278050F82770A2
S31500001EE04FEA0E1E67195FFA8EFE87F800E346F882
S31500001EF0253091F9075091F806E06F0905F01F08A3
S31500001F0020370CFA08F844F82780BFF34F8FBFF349
S31500001F106F8F05F1C00750F8278062F3104840F82C
S31500001F20278050F827704FEA0E1E67195FFA8EFE5B
S31500001F3087F800E346F8253091F9095091F808E052
S31500001F406F0905F01F0820370CFA08F844F82780B7
S31500001F50BFF34F8FBFF36F8F05F1C00750F827808F
S31500001F6062F3104840F8278050F827004FEA0E1019
S31500001F70C0B22C4484F8000346F82530EFF31086EF
S31500001F808CF310884FF000450C788948E54044688A
S31500001F9024EA05044460406886F31088186A827053
S31500001FA0186A0271186A4272186A8272186AC272D4
S31500001FB0186A428340F2F93208780CFA00FC1CEAEF
S31500001FC0020F02D040201A6AD0740625012240F280
S31500001FD0F9301C6A25770C78A240024240F0CA808C
S31500001FE0CA7848788C78D200032842EA041200F0B6
S31500001FF0D58000280CBFE220F2201C6AD2B22270E3
S315000020001A6A9071CC69227B082A00F0C380186A8C
S31500002010520002F00202427300256278A078D201D3
S31500002020400100F02000D2B20243186A05722078FF
S3150000203002380128186A40F2A280D2B2C2716068E2
S315000020401A6A847854704578147865F3010414701C
S31500002050C4789474D479007804F0A30400F05C008A
S315000020602043D0710020C3E90300C3E90500DC6901
S315000020704D4A94F90540CD6904F1C00152F821603A
S3150000208095F800C060F3104642F821600CF0030C8E
S3150000209052F82110BFF35F8F4FF0010E61098900DE
S315000020A004F01F0401F1604101F561410EFA04F4E8
S315000020B0C1F880410C60D96991F90B4004F1C00167
S315000020C052F8216060F3104642F8216052F8211060
S315000020D0BFF35F8F6109890004F01F0401F16041BD
S315000020E00EFA04F401F56141C1F880410C60D9692A
S315000020F091F9074004F1C00152F8216060F31046DF
S3150000210042F8216052F82110BFF35F8F6109890000
S3150000211004F01F0401F160410EFA04F401F5614177
S31500002120C1F880410C60D96991F9091001F1C00428
S3150000213052F8246060F3104642F8246052F82420D6
S31500002140BFF35F8F4A09920001F01F0102F160425E
S315000021500EFA01F102F56142C2F8801111601A6AA5
S315000021604CF0700C82F802C06989124A19815A60D3
S31500002170BDE8F0814FF478401A6A908230E7FF2577
S3150000218045702078022808BF42F01002186AD2B2C1
S31500002190C27167E70A201A6A50733DE7F22042F0DF
S315000021A040022AE700E100E000600040AC91002018
S315000021B0004008405549435303207047EFF303831B
S315000021C0103B1F4A5BB203F1C00152F8210020F414
S315000021D0803042F8210052F821201A4A52F8230092
S315000021E0C3691B6983B1036903B17047026A0021A1
S315000021F0937803F07F0343F004039370436AC1604E
S31500002200C3B18022FFF7DEBD0369026A002BEED060
S315000022108378C16803F00303022B0CD00B78D370CC
S315000022208278D0E9031302F003029B1A1144C0E935
S315000022300313D9E770470B8843F47E43D381EFE756
S3150000224000600040AC91002010B582B0EFF303832C
S31500002250103B1F4A5BB203F1C00152F8210020F483
S31500002260803042F8210052F821201A4A52F82340C1
S31500002270A27802F00303022B236A0CBF198A59794C
S31500002280A3690CBFC1F30801C9B2019143B9636ADE
S31500002290B3B10422204602B0BDE81040FFF792BD5C
S315000022A002F0030201A9606901F0CDFAD4E9052123
S315000022B0A37803F003031A44C91AC4E9052109B136
S315000022C002B010BD636A002BFAD00122E2E700BF1C
S315000022D000600040AC91002010B5EFF303830E4A76
S315000022E0103B5CB252F82400026A937803F07B0339
S315000022F09370436A1BB102220021FFF763FD074A70
S3150000230004F1C00352F8231021F4803142F823105F
S3150000231052F8233010BD00BFAC9100200060004091
S3150000232010B5EFF303831A4A103B5CB252F824004F
S31500002330837803F00303022B036A0CBF198A5979C9
S3150000234093F804C00CBFC1F30801C9B21CF0100F0A
S315000023500CF0380206D093F81CC01CF0010F08BF21
S3150000236042F0400293F804C00CF0C70C83F804C096
S31500002370436A0BB1FFF726FD064A04F1C00352F883
S31500002380231021F4803142F8231052F8233010BD77
S31500002390AC9100200060004030B5436A85B0044629
S315000023A08C4601ADABB193E8070085E8070062688B
S315000023B01846127883F804C01A60A26A9A60236AE3
S315000023C09847636A1BB195E8070083E8070005B0E4
S315000023D030BD2B46EBE700BF00222DE9F04F0B780E
S315000023E0416003F5800303F58C531B0283608B6900
S315000023F00D460362CB690446C0E909234B6983B0E5
S3150000240093B14FF400215A681268116059688268C6
S31500002410096805324A60D3E90112186812689047C4
S315000024200646002840F033812B6993B14FF00061D6
S315000024305A68126811605968A268096803328A608E
S31500002440D3E901121868126890470646002840F042
S3150000245028816068026A817A92F9023092F802C095
S31500002460002B437AAABF4FF0FF0C4FF0040E4FF03B
S31500002470000E012B18BF002792F8018012BFB94643
S3150000248002274FF0050908F003080129C37A48F02E
S31500002490800800F00081012B14BF49F0800949F043
S315000024A0C009437B002B0CBFEA26E226EFF3108A15
S315000024B0012383F310884FF0004B01787E482BFAF6
S315000024C001FB416821EA0B01416041688AF31088EB
S315000024D000204FF0840A5FFA89F14FF478490191A0
S315000024E0A1685FFA88F88870A16891F804B081F84D
S315000024F004A0A168A1F81490A16881F80080A168E1
S315000025008F70A16840278E711678A268019956705F
S315000025100226A26882F812C0A26882F807E0A268C2
S315000025205173A26865491072A2685072A2689072CF
S31500002530A268D072A2685083A268D774A268604F5E
S31500002540167795F805C095F901205E4E4FEA0C1CEA
S3150000255006EB020E5FFA8CFC8EF800C347F82240A9
S3150000256002F1C00C51F82CE060F3104E41F82CE05B
S3150000257051F82CC0BFF35F8F4FEA521C4FEA8C0C08
S3150000258002F01F020CF1604C03FA02F20CF5614CEA
S31500002590CCF88021CCF8002095F806C095F90220E9
S315000025A04FEA0C1C06EB020E5FFA8CFC8EF800C399
S315000025B047F8224002F1C00C51F82CE060F3104EAF
S315000025C041F82CE051F82CC0BFF35F8F4FEA521C44
S315000025D04FEA8C0C02F01F020CF1604C03FA02F277
S315000025E00CF5614CCCF88021CCF8002095F807C09A
S315000025F095F903204FEA0C1C06EB020E5FFA8CFCE1
S315000026008EF800C347F8224002F1C00C51F82CE0C6
S3150000261060F3104E41F82CE051F82CC0BFF35F8FE9
S315000026204FEA521C4FEA8C0C02F01F020CF1604C70
S3150000263003FA02F20CF5614CCCF88021CCF80020AC
S3150000264095F808C095F904204FEA0C151644EDB22A
S3150000265086F8005347F8224002F1C00551F825607C
S3150000266060F3104641F8256051F82510BFF35F8FDF
S3150000267002F01F015209920002F160428B4002F5FE
S315000026806142C2F88031136006460F4B2360304624
S3150000269003B0BDE8F08F002B7FF403AF49F040098B
S315000026A0FFE66B69002BF2D09A681868136A9847A0
S315000026B0304603B0BDE8F08F00400840006000409F
S315000026C0AC91002000E100E053494353F8B51D46A4
S315000026D083689B7813F0300342D1C0E90533C0E923
S315000026E003124368C56116461A690446D2B14561AC
S315000026F01B69AAB258680068C281002932D04FF01F
S31500002700020C5A681268D0786CF38300D0705A684D
S31500002710126851605A68186811689A685368984731
S31500002720E8B963685A6952B14EB1A5615B69324630
S31500002730996818688E68ABB20021B04778B92369EA
S31500002740002B4BD063681A69002A49D0F021A26891
S3150000275093780B43937063681A6972B10020F8BDD1
S315000027600820F8BD5A682B4F1268D07861F38300B1
S31500002770D0705A6812685760CCE75A69002AEDD1C2
S315000027802269002AEAD0012193F9013022485A0928
S3150000279003F01F03203201FA03F340F82230BFF39F
S315000027A04F8FBFF36F8F6369E269934207D2D4E913
S315000027B0021252B3D35CCB70636901336361626802
S315000027C0517A012912D092F90130012203F01F003B
S315000027D011495B09824041F82320BFE7A021B6E7F3
S315000027E05B69002B14BFF0217021B0E7E169012974
S315000027F0E9D99942E7D9D4E9021242B1D35CCB7048
S315000028006369626801336361DDE7CA70D4E7CA7041
S31500002810F6E700BF6491002000E100E013460022C5
S31500002820FFF754BFEFF30383103B164A5BB203F185
S31500002830C00152F8210020F4803042F8210052F8FD
S315000028402120114A52F823305A69D9698A4208D29E
S31500002850D3E9020199B18A5CC2705A69D969013219
S315000028605A618A4200D070471A69002AFBD19A68D9
S31500002870937803F07B0343F0040393707047C170B1
S31500002880EBE700BF00600040AC910020EFF303834C
S31500002890103B194A5BB203F1C00152F8210020F443
S315000028A0803042F8210052F82120144A52F8233091
S315000028B05969DA69914208D2D3E90202D2B1525C6F
S315000028C0C2705969DA69013159619969914207D231
S315000028D04A1C98689A6140791A695054D3E90612DD
S315000028E0914206D19A68937803F03B0343F00403C0
S315000028F093707047C270E4E700600040AC9100201E
S3150000290010B5EFF303830C4A103B5CB252F8240077
S3150000291001218268937803F003039370FFF73CFD6F
S31500002920064A04F1C00352F8231021F4803142F81C
S31500002930231052F8233010BDAC91002000600040F7
S3150000294010B5EFF303834FF0840C0E4A103B5CB2D4
S3150000295052F8240004218268937803F003039370ED
S3150000296083681A7983F804C0FFF716FD064A04F156
S31500002970C00352F8231021F4803142F8231052F894
S31500002980233010BDAC910020006000400120CBB286
S31500002990984080B202B900040B0A5B0103F1804340
S315000029A003F5002398600020704700BF2DE9F84F1B
S315000029B00388DBB182464FF0000B4FF00109DFF8C8
S315000029C0D0800024304D4FEACB07DAF8043035F8D2
S315000029D0022BD919898891420AD00134032CF4D1EB
S315000029E0BAF800300BF1010B5B45EAD8BDE8F88F69
S315000029F0DB5909FA04F603F0B853B3F1807FF6B257
S31500002A0098F8BB3413D0334231D1204A04F1200662
S31500002A1012F81630DB09E0D012F81630012123F047
S31500002A208003C82002F8163000F000FBD5E73342D9
S31500002A3011D0164A04F1200112F81130DB09CCD16D
S31500002A4012F81130C82043F0800302F8113001213A
S31500002A5000F0ECFAC1E7012000F0C6FB98F8BB34A1
S31500002A600120334388F8BB3400F08EFBE1E70120F8
S31500002A7000F0BAFB98F8BB34012023EA060388F875
S31500002A80BB3400F081FBC0E7E8520000003008408C
S31500002A9000E00140F8B50646FFF788FFEFF3108225
S31500002AA0012383F31088234F3B681BB92249CB705F
S31500002AB04023CB703B6801333B6082F31088338838
S31500002AC023B300211D4D08E01B01134445F82340A4
S31500002AD0328801318BB29A4218D9736853F8314063
S31500002AE003EBC1029288E0034FEA1223D2B2EBD580
S31500002AF002EB031055F820E024F4803C2EF4803ECF
S31500002B0045F820E01B0145F820C0DEE7EFF3108210
S31500002B10012383F310883B6813B13B68013B3B609C
S31500002B203B681BB980200449CB70C87082F31088BB
S31500002B30F8BD00BFA8910020000D0840000808401D
S31500002B4008B5034B03600846FFF7A4FF002008BD45
S31500002B5054524F50844630B482B0019100921D49C0
S31500002B6090F904201C4D51F82200C03255F822106D
S31500002B701A4C21F0807145F822109CF9041041F49A
S31500002B800041E28992B29142FBD008222274019A56
S31500002B900AB1019A4260009A0AB1009A8260C2782C
S31500002BA002F0C001802913D03F2A98BFC3811822A2
S31500002BB000200A4B08491A749CF90430C03351F8B6
S31500002BC0232042F0807241F8232002B030BC7047C7
S31500002BD08381ECE7000000200060004000540040C4
S31500002BE00620704706207047034693F904300549CE
S31500002BF0C03351F82320002042F0807241F8232090
S31500002C00704700BF00600040034693F90430054951
S31500002C10C03351F82320002022F0807241F823208F
S31500002C20704700BF00600040002290F90400124B7C
S31500002C3053F82030C1E90022DA783F2A0CD94FF444
S31500002C4080728A60DA89D2B2CA60DA7802F0C0028B
S31500002C50802A09D0002070474FF480328A60DB89D1
S31500002C6000209BB2CB6070474FF480320A609B898C
S31500002C7000209BB24B607047000000200620704782
S31500002C80062070470346002230B593F904C0074C6E
S31500002C900CF1C00E54F82E10054D21F0807144F849
S31500002CA02E1045F82C201A60104630BD00600040FA
S31500002CB00000002030B5864690F904301C4DC03324
S31500002CC055F823201B4C22F0807245F8232090F9FA
S31500002CD0042042F40042E3899BB29A42FBD00B46A1
S31500002CE0DA789C463F2A05D9DA89D2B202EB02226B
S31500002CF092B2DA819CF8022010333F2AF0D84FF0C6
S31500002D00080C18220B4B0C4D83F810C09EF904C01A
S31500002D10074C45F82C101A749EF904300020C03375
S31500002D2054F8232042F0807244F8232030BD00BFBF
S31500002D30006000400054004000000020F8B5274A1B
S31500002D40044613780D4643B36B6893F90030002BA5
S31500002D503FDB234850F82320002A3CD123712D68FD
S31500002D60BDB12B46DA7819463F2A05D9DA89D2B29F
S31500002D7002EB022292B2DA818A7810333F2AF1D826
S31500002D8008211822174B197494F9041040F82150A1
S31500002D901A74154B00202360F8BD01261670EFF358
S31500002DA0108086F31088114A116821F480011160A1
S31500002DB0126880F310880A4F19462022384600F020
S31500002DC0EBFC084B5F611E736B6893F90030002BB8
S31500002DD0BFDA0B20F8BD0820F8BD00BF65910020C2
S31500002DE000000020005400400043544400400840C6
S31500002DF0064B074993F826001A6A51F82030C2F3A9
S31500002E0002620449D3400B60704700BF00E00140F6
S31500002E10A0040020D8910020704700BFF8B54AF200
S31500002E20035001234549464AA1F8FE03A2F804319E
S31500002E30B2F804319BB2002BFAD101204FF40045C1
S31500002E404FF0090C3F4CDFF818E13F4EC4F804E0A0
S31500002E50DFF810E13D4FC4F80CE0A2F800013C4A4F
S31500002E603649B06030602760A5602561626191F8DF
S31500002E702620086A54F82220364EC0F30260C2406B
S31500002E80326081F8133481F8A2C091F880341BB9FE
S31500002E9091F8813499074CD0284D95F88034002B51
S31500002EA03CD00022254B83F8812483F8802400231C
S31500002EB0224981F8323091F83C301A07FBD543F2AB
S31500002EC0021000231D4A088581F82A3092F83C300A
S31500002ED09B06FBD50320052319494FF0F10C81F819
S31500002EE01C011D49116282F8263092F82630156AB7
S31500002EF054F82300C5F30264E04030600123F02457
S31500002F004FF42540154981F80CC00B720C7382F8FA
S31500002F10303082F85230A2F8FE03F8BD0121C820F5
S31500002F2085F8801400F082F895F88034012BFBD1E7
S31500002F30B7E74FF47A70FFF76FFFB8E700E001409C
S31500002F4000C00140A004002000700040002D3101A7
S31500002F5000C2EB0BD8910020211201200020004076
S31500002F6000127A0000366E0138B50025284C012182
S31500002F70C82084F8285000F059F884F8245094F8B2
S31500002F802430002BFBD194F82430214943F002036E
S31500002F9084F8243091F82430C3F340009B07F9D419
S31500002FA01B4A81F8220092F8223003F0FF00002B22
S31500002FB0F9D192F84030164960F3C71382F84030D1
S31500002FC091F84030DB09FBD191F84200104A63F3D7
S31500002FD0C71081F8420092F84230DB09FBD192F823
S31500002FE044000B4963F3C71082F8440091F844305B
S31500002FF0C3F3C014DB09F9D1012000F0F5F8054B45
S31500003000012083F8BB44BDE8384000F0BDB800BFDE
S315000030100030084000E00140704700BF00BEFEE7F8
S31500003020A0F101000028FBD1704700BF1F4B204ACA
S315000030301B6800FB01F1934213D302F1854202F5AE
S31500003040071203F5741302F6834203F6FF03A2FB8D
S3150000305003231B0DA3FB01314FF0FF30F9B1FFF73E
S31500003060DFBF4FF47A7210B4A1FB02C41148B0FB63
S31500003070F3F34FF0FF3044B9BCFBF3FC4FEA9C007E
S3150000308088B15DF8044BFFF7CBBF9B00B1FBF3F1B2
S31500003090A1FB0212002AF4D1084620B1F1E7184636
S315000030A0002BDCD170475DF8044B7047D8910020A7
S315000030B000127A0000CA9A3B70B500240B4B0C4EE6
S315000030C0B3F82021B3F84051ADB2154025FA04F308
S315000030D0DB0704D556F82430E0B203B19847013433
S315000030E0102CF3D1014BA3F8305170BD00600040A5
S315000030F06891002030B5032085B000F075F80025F2
S315000031006FF0FF004FF0FF321B4B1C4C98642146BA
S315000031102B464FF0010ECDE90122039231F8020F42
S315000031200EFA03FC013310B1012522EA0C02082B2A
S31500003130F4D1F5B10192124B0F4903200A67C3F887
S315000031408022029A4A67C3F88422039A8A67C3F8E0
S31500003150882200F019F800230A4834F8022F03F1F8
S31500003160C00101330AB140F82120082BF5D105B082
S3150000317030BD4FF0FF32DEE700800040D65200003F
S3150000318000E100E000600040EFF31081012383F3CB
S315000031901088124B33F8102092B22AB133F810205F
S315000031A0013A92B223F8102033F810309BB293B94B
S315000031B010B40B4A0B4CB2F8FE3334F810009BB235
S315000031C043F4254323EA0003A2F8FE3381F3108873
S315000031D05DF8044B704781F310887047CC9100204E
S315000031E000E00140F453000030B4EFF310810123F6
S315000031F083F310880E4A32F810309BB26BB90D4C2F
S315000032000D4DB4F8FE3335F810C09BB243EA0C03FB
S3150000321043F425439BB2A4F8FE3332F81030013351
S315000032209BB222F8103081F3108830BC704700BF83
S31500003230CC91002000E00140F453000008B500F0F6
S31500003240F9FA0C2203461A604FF0FF3008BD00BFA2
S3150000325000BE704708B500F035F8FEF77FFDFEE7C3
S31500003260F8B5174F05463E68A6B17C6806EB4606DC
S3150000327004EB860602E00C34B4420BD0637AAB4210
S31500003280F9D1D4E900020021121A0C3400F084FAB4
S31500003290B442F3D1BE6896B1FC6804EB061602E0B0
S315000032A01034A6420BD0637BAB42F9D1D4E90002BD
S315000032B0A168121A103400F0C6FAA642F3D1F8BD7E
S315000032C01C5300004FF47001274B284A70B50020AC
S315000032D0C3F888109A60FEF735FDFFF79FFD0120C1
S315000032E0FEF730FD224B83F30A880020FFF7B8FF74
S315000032F0FFF77EFDFFF738FE0320FFF775FF00237B
S315000033004FF6FF701B4903F1080201330C2B21F81D
S315000033101200F8D100240320FFF736FF0320FFF741
S3150000332063FF154B03205C609C60DC601C61FFF74B
S315000033302BFF0220FEF706FD0120FFF791FF0F4D40
S315000033400F4B5B1BA3424FEAA30605DD55F8043B72
S3150000335001349847A642F9DCFFF7CCFEBDE8704081
S315000033600020FFF759BE00BF00ED00E0000000009E
S31500003370A0000020000D084000000E408C54000004
S3150000338090540000002310B50446836081811946DD
S315000033904366C28108228361C0E90033C0E9043371
S315000033A05C3000F0F9F90D4B246263620C4BA362AA
S315000033B00C4BE3620C4B23630C4B9C4206D003F18F
S315000033C06802944202D0D0339C4205D104F15800E1
S315000033D0BDE8104000F034BA10BD00BFE93500006A
S315000033E00B3600004336000067360000DC910020F3
S315000033F0024A0349034800F069B800BF44000020B0
S31500003400FD4000005400002041680C4B994210B565
S31500003410044601D000F072FEA168094B994202D021
S31500003420204600F06BFEE168064B994204D0204628
S31500003430BDE8104000F062BE10BD00BFDC91002068
S3150000344044920020AC92002010B50B4B04210B4C8B
S315000034500B4A20461A600022FFF794FF04F1680029
S3150000346001220921FFF78EFF04F1D000022212216A
S31500003470BDE81040FFF786BF14930020DC910020C2
S31500003480F1330000014800F0DCB900BF1D930020B5
S31500003490014800F0D7B900BF1D93002010B50446BF
S315000034A0FFF7F0FF236A1BB1BDE81040FFF7F0BF3E
S315000034B0044B2362044B1B68002BF5D1FFF7C4FFB6
S315000034C0F2E700BF09340000149300202DE9F84309
S315000034D00746884614460026D4E90195B9F1010944
S315000034E005D52468002CF7D13046BDE8F883AB89B2
S315000034F0012B07D9B5F90E30013303D029463846DA
S31500003500C04706436835E9E70FB407B5064904AB7B
S31500003510086853F8042B8168019300F0C3FA03B0DE
S315000035205DF804EB04B0704750000020036A70B5E4
S3150000353005460E4684680BB9FFF7B0FF636EDB07DE
S3150000354005D4A389980502D4A06D00F07AF9A38961
S31500003550190702D52369002B35D12146284600F0EC
S31500003560C5F880B34FF0FF35636EDA0705D4A3893B
S315000035709B0502D4A06D00F065F9284670BD002BAE
S3150000358004DAA2699A4217DC0A2915D023685A1C64
S3150000359022601970A36816F8011F013BA360002979
S315000035A0EDD1002B11DA22460A21284600F05FF8F9
S315000035B00130D7D00A25D7E72246284600F057F82B
S315000035C00130E7D1CEE7013EE4E723685A1C2260CA
S315000035D00A221A70EEE70000024B01461868FFF750
S315000035E0A5BF00BF5000002010B50C46B1F90E1063
S315000035F000F0FCF80028ABBF636DA3891B1823F409
S315000036008053ACBF6365A38110BD2DE9F0411F4611
S315000036108B8905460C46DB05164605D50223002296
S31500003620B1F90E1000F0D0F8A3893246B4F90E10A5
S31500003630284623F48053A3813B46BDE8F04100F0C1
S31500003640E7B810B50C46B1F90E1000F0BDF8431CF2
S31500003650A38915BF606523F4805343F48053A38187
S3150000366018BFA38110BDB1F90E1000F09DB8F8B5D2
S315000036700E461446054618B1036A0BB9FFF70EFF4E
S31500003680A369A360A3891A0701D5236943B9214613
S31500003690284600F02BF818B14FF0FF373846F8BD32
S315000036A02368F6B222693746981A6369834205DCB5
S315000036B02146284600F022FD0028EDD1A368013BF3
S315000036C0A36023685A1C22601E70431C62699A42DA
S315000036D004D0A389DB07E1D50A2EDFD1214628468F
S315000036E000F00CFD0028D9D0D6E7000038B5294BEC
S315000036F005460C46186818B1036A0BB9FFF7CEFEEB
S31500003700B4F90C30190722D4DA0607D409222A6044
S3150000371043F040034FF0FF30A38133E0580712D542
S31500003720616B41B104F14403994202D0284600F08E
S3150000373097F800236363A38923F02403A38100235E
S31500003740636023692360A38943F00803A381236987
S315000037504BB9A38903F42073B3F5007F03D0214648
S31500003760284600F018FDB4F90C3013F001020AD017
S315000037700022A26062695242A261226942B913F034
S315000037808000C5D138BD990758BF6269A260F4E7C9
S315000037900020F7E75000002002440346934200D180
S315000037A0704703F8011BF9E738B50023054D0446B9
S315000037B008462B60FCF712FD431C02D12B6803B1AF
S315000037C0236038BD1893002038B50446064D0846D8
S315000037D0114600222A601A46FCF70EFD431C02D150
S315000037E02B6803B1236038BD1893002038B5044612
S315000037F0064D0846114600222A601A46FCF75AFD75
S31500003800431C02D12B6803B1236038BD18930020F6
S3150000381038B50446064D0846114600222A601A4667
S31500003820FCF736FD431C02D12B6803B1236038BD7B
S3150000383018930020014B1868704700BF5000002005
S315000038407047704770470A44431E914200D1704743
S3150000385010B511F8014B914203F8014FF9D110BD93
S3150000386038B50546002941D051F8043C0C1F002B01
S31500003870B8BFE41800F0E0F81D4A136833B9636076
S3150000388014602846BDE8384000F0DCB8A34208D9E9
S31500003890206821188B4201BF19685B6809182160EE
S315000038A0EDE71A465B680BB1A342FAD911685018C6
S315000038B0A0420BD120680144501811608342E0D128
S315000038C018685B68084453601060DAE702D90C2375
S315000038D02B60D6E7206821188B4202BF19685B6807
S315000038E00918636008BF21605460CAE738BD00BF8D
S315000038F02493002070B50F4E0C460546316811B969
S3150000390000F0A8FC30602146284600F0A3FC431CCA
S3150000391003D14FF0FF34204670BDC41C24F00304CD
S31500003920A042F8D0211A284600F094FC0130F2D1CA
S31500003930EFE700BF209300202DE9F843CD1C064693
S3150000394025F0030508350C2D38BF0C25002D01DBAD
S31500003950A94204D90C2333600020BDE8F883DFF8C0
S31500003960D48000F069F8D8F800301C4644BB2946DC
S315000039703046FFF7BFFF431C044658D1D8F8004035
S315000039802746002F43D1002C4BD0236839463046BA
S3150000399004EB030900F05EFC814542D12168304604
S315000039A06D1A2946FFF7A6FF01303AD023682B444B
S315000039B02360D8F800305A6862BBC8F800700FE080
S315000039C02268521B20D40B2A17D96119A3422560FD
S315000039D018BF5960636808BFC8F8001062514B6091
S315000039E0304600F02FF804F10B00231D20F00700ED
S315000039F0C21A1CBF1B1AA350AFE76268A3420CBFD2
S31500003A00C8F800205A60EBE723466468AEE73C46F8
S31500003A107F68B6E71A465B68A342FBD10023536072
S31500003A20DEE70C233046336000F00CF894E70560BF
S31500003A30D6E700BF249300200148FFF702BF00BF6E
S31500003A401C9300200148FFF7FDBE00BF1C93002019
S31500003A509368013B002B936010B408DA9469A34283
S31500003A6001DB0A2903D15DF8044BFFF700BE13689A
S31500003A70581C1060084619705DF8044B7047F8B57D
S31500003A8006460F461446D518AC4201D1002007E081
S31500003A903A4614F8011B3046FFF7DAFF431CF3D110
S31500003AA0F8BD00002DE9F04F0D469DB0144698462E
S31500003AB0064618B1036A0BB9FFF7F0FC6B6ED9071F
S31500003AC005D4AB899A0502D4A86DFFF7BAFEAB8977
S31500003AD01B0701D52B699BB929463046FFF706FE21
S31500003AE070B16B6EDC0704D54FF0FF301DB0BDE83A
S31500003AF0F08FAB899805F7D4A86DFFF7A3FEF3E71F
S31500003B000023CDF80C804FF00109DFF8B48109934A
S31500003B1020238DF8293030238DF82A3023469A4603
S31500003B2013F8012B0AB1252AF9D1BAEB040B0BD0F5
S31500003B305B46224629463046FFF7A1FF013000F0DA
S31500003B40A780099A5A4409929AF80030002B00F08F
S31500003B509F8000234FF0FF320AF1010A0493079376
S31500003B608DF853301A93CDE905235446052254485F
S31500003B7014F8011B00F07EFB049AD8B9D10644BFA5
S31500003B8020238DF85330130744BF2B238DF8533071
S31500003B909AF800302A2B15D0079A544600204FF089
S31500003BA00A0C214611F8013B303B092B4BD9B0B129
S31500003BB0079214E0A0EB0803A24609FA03F31343A5
S31500003BC00493D2E7039B191D1B68002B0391BBBF0F
S31500003BD05B4242F0020207930793B8BF0492237830
S31500003BE02E2B0AD163782A2B32D1039B02341A1D5D
S31500003BF01B6843EAE37303920593DFF8D4A003221C
S31500003C002178504600F036FB38B1A0EB0A0040227E
S31500003C10049B013482401343049314F8011B0622CB
S31500003C2028488DF8281000F025FB00283FD0264BA9
S31500003C301BBB039B073323F0070308330393099B3E
S31500003C403B4409936AE70CFB02320C460120A8E7C5
S31500003C50002301344FF00A0C19460593204610F84C
S31500003C60012B303A092A03D9002BC6D00591C4E7A7
S31500003C700CFB012104460123F0E703AB2A4604A905
S31500003C8030460093114BAFF300800746781CD6D11F
S31500003C906B6ED90705D4AB899A0502D4A86DFFF7D8
S31500003CA0D1FDAB895B063FF51FAF09981EE703AB55
S31500003CB02A4604A930460093044B00F07DF8E4E759
S31500003CC0FE53000008540000000000007F3A000088
S31500003CD0045400002DE9F047164698468A680746C0
S31500003CE00B690C46DDF820909342B8BF134633604B
S31500003CF091F843200AB1013333602368990642BF25
S31500003D00336802333360256815F0060506D104F1E1
S31500003D10190AE36832689B1AAB422BDC94F84330ED
S31500003D202268003B18BF0123920630D404F14302F7
S31500003D3041463846C847013023D023681A3454F820
S31500003D400A2C03F00603042B0ABF54F80E5C002568
S31500003D5033684FF0000608BFED1A54F8123C08BF4E
S31500003D6025EAE5759342C4BF9B1AED18B5421AD1F0
S31500003D70002008E00123524641463846C847013034
S31500003D8003D14FF0FF30BDE8F0870135C1E7E118F8
S31500003D905A1C30200233224481F8430094F845101F
S31500003DA082F84310C2E70123224641463846C847F7
S31500003DB00130E6D00136D9E72DE9FF470F7E91465F
S31500003DC080460C46782F9A460C9E01F1430207D88E
S31500003DD0622F0AD8002F00F0D180582F00F0B8804B
S31500003DE004F1420684F842703AE0A7F16303152B0A
S31500003DF0F6D801A151F823F0513E0000653E0000BF
S31500003E00E13D0000E13D0000E13D0000E13D000034
S31500003E10653E0000E13D0000E13D0000E13D00009F
S31500003E20E13D0000633F00008F3E00001D3F0000A3
S31500003E30E13D0000E13D0000853F0000E13D00005E
S31500003E408F3E0000E13D0000E13D0000253F0000FF
S31500003E5033681A1D1B68326004F1420684F842304A
S31500003E6001239CE033682068191D3160060601D5E0
S31500003E701D6803E04506FBD5B3F90050002D03DAB3
S31500003E802D236D4284F8433058480A2311E02168F7
S31500003E903368080653F8045B02D4490648BFADB23E
S31500003EA06F2F3360514814BF0A230823002184F87A
S31500003EB043106668002EA66005DB21682E4321F0BC
S31500003EC0040121604BD01646B5FBF3F103FB1157F5
S31500003ED0C75D06F8017D2F460D46BB42F4D9082B77
S31500003EE00BD12368DF0708D5236961689942DEBFD5
S31500003EF0302306F8013C06F1FF36921B22614B4641
S31500003F0003AA21464046CDF800A0FFF7E3FE0130A4
S31500003F104AD14FF0FF3004B0BDE8F087236843F084
S31500003F202003236078273248236884F845701F06EB
S31500003F30316851F8045B02D45F0648BFADB2316008
S31500003F40D90744BF43F0200323601DB11023ADE71A
S31500003F502648E9E7236823F020032360F6E71646A0
S31500003F60BDE733682568181D616930602E061B6839
S31500003F7001D5196002E06806FBD5198000231646B4
S31500003F802361BCE7336800211A1D32601E6862682F
S31500003F90304600F06FF908B1801B606063682361EA
S31500003FA0002384F84330AAE723693246494640464F
S31500003FB0D0470130ADD023689B0713D4E068039B3C
S31500003FC09842B8BF1846A6E70123324649464046FE
S31500003FD0D04701309DD00135E36803995B1AAB42A7
S31500003FE0F2DCEBE7002504F11906F5E70F540000B3
S31500003FF020540000B1F90C202DE9F04116070546C2
S315000040000C4654D44B68002B02DC0B6C002B48DDAD
S31500004010E66A002E45D0002312F480522F68216AEA
S315000040202B6030D0626DA389590705D56368D21A13
S31500004030636B0BB1236CD21A0023E66A216A284609
S31500004040B047431CA38906D129681D292BD82A4AC3
S31500004050CA40D60727D50022D904626022692260A9
S3150000406004D5421C01D12B6803B96065616B2F60D2
S31500004070B9B104F14403994202D02846FFF7F0FB98
S31500004080002363630DE001232846B0470246501C17
S31500004090C9D12B68002BC6D01D2B01D0162B1DD1E4
S315000040A02F60002021E043F040031BB21AE00F69A5
S315000040B0002FF6D093070E680F600CBF4B690023E4
S315000040C0A6EB07088B60B8F1000FEADD43463A46D7
S315000040D0216A2846A66AB047002808DCB4F90C30E5
S315000040E043F040034FF0FF30A381BDE8F081074461
S315000040F0A8EB0008E7E700BF0100402038B50B69D0
S3150000410005460C4613B90025284638BD18B1036A82
S315000041100BB9FFF7C3F9B4F90C30002BF3D0626E7C
S31500004120D00704D4990502D4A06DFFF78AFB284670
S315000041302146FFF75FFF636E0546DA07E4D4A389DD
S315000041409B05E1D4A06DFFF77DFBDDE770B50C465E
S31500004150B1F90E1096B0154600291E460CDAA38951
S31500004160002113F0800F14BF40234FF4806300201A
S3150000417031602B6016B070BD6A4600F049F8002821
S31500004180EDDB019901F47041A1F500535942594103
S315000041904FF48063EBE78B89F7B59D0706460C461F
S315000041A007D504F14703236023610123636103B04C
S315000041B0F0BD01AB6A46FFF7C9FF009F05463046D2
S315000041C03946FFF7B9FB48B9B4F90C309A05EED475
S315000041D023F0030343F00203A381E2E7A3892060EF
S315000041E043F08003A381019BC4E904075BB1B4F9E2
S315000041F00E10304600F01EF828B1A38923F0030301
S3150000420043F00103A381A3891D43A581CFE70000E5
S3150000421038B50023064D0446084611462B60FBF7C9
S31500004220F5FF431C02D12B6803B1236038BD00BFE4
S315000042301893002038B50023054D044608462B6028
S31500004240FBF7C0FF431C02D12B6803B1236038BDC6
S315000042501893002038B50023054D044608462B6008
S31500004260FEF7ECFF431C02D12B6803B1236038BD77
S3150000427018930020C9B20346024410B5934218466B
S3150000428001D1002003E0047801338C42F6D110BD41
S315000042904653505F53554343455353203D3D206598
S315000042A072720000000000002E2E2F7372632F55CD
S315000042B04152545F64656275672F756172745F64FD
S315000042C0656275672E6300002E2E2F7372632F535F
S315000042D0637265656E2F7374373733352E6300004E
S315000042E05B5354373733355D20434D44E8B685E696
S315000042F097B60D005B5354373733355D20427974DA
S3150000430065E8B685E697B60D000000005B535437A6
S315000043103733355D2044415441E8B685E697B60DFE
S315000043200000000053637265656E203100000000D6
S315000043305BE7958CE99DA225645D205265667265F2
S3150000434073683A20256C646D730D0A0053637265B9
S31500004350656E203200000000E6B58B00E6B58BE8FE
S31500004360AF95E5AE8CE688900000000055415254AA
S315000043705F64656275675F496E6974009EF7FFFF4B
S31500004380DFFF35F5E3E0E3E8E3E0C2E8C3E0E2E0BF
S31500004390E3E003E1E3E003E1E3D8E3D8E3D8C3E0F5
S315000043A0C3E0C3D8E3D8E3D8C2D8C2D8A2D8C2D80B
S315000043B0A2D8A1E03CFFDFFFFFFFDFF7FFFFBEFF54
S315000043C0C2F0C2F0A2E8C3E8C3F0C3F0C3E8C3E892
S315000043D0C3E8C3E8E3E8E3E8E3E8E3E8E3E8C3E0E7
S315000043E0C3E0C3E0C3E0C3E0C3E0C3E0C3D8A3D8DF
S315000043F0A2D8C2D8A2D0C2C07DF7FFFF9EF7E3F0D5
S31500004400C3F0C2F0A2F0C3E8C3F0C3F0C3F0E3E820
S31500004410C3E8C3E8C4E8C4E8C3E8C3E8C3E0C3E04C
S31500004420C3E0C2E0C2E0C2E0C3E0C3E0A3D8A3D8C1
S31500004430C3E0A3D8A2D8A2D0A1C89EF7B7FDE3E8EF
S31500004440C3F0C3F0A2F0C3F0C3F0C3F0C3E8C3E8FF
S31500004450C3E8C3E8C4E8C4E8C3E8C3E8E3E8E3E0C4
S315000044608CDBDFFFFFFF4491C2E0C2E0A2D8A3D8F5
S31500004470A3D8A3D882D882D0A2C87CEFE3E0A2E872
S31500004480A2F0A2E8A3E8C3F0C3F0C3E8C3E8C3E818
S31500004490C3E8E3E8C3E8C3E8C4E8E3E8E3D0FFFF22
S315000044A0FFFFFFFFFFFFFFFFFFFF24C9C2D8A3D80E
S315000044B0A2D8A3D882D882D082D0E3C0C2E8C3F003
S315000044C0C3F0C3F0C3F0A3E8C3F0C3E8C3E8C3E88E
S315000044D0C3E8E3E8A39810E4E3E8E3E09EFFFFFF08
S315000044E0FFFFFFFFFFFFFFFFFFFFFFFFC2D8A3D8BD
S315000044F0A3D8A3D8A2D8A2D0A2C881B8C3E8E3F0B3
S31500004500C3F0C3F0C3F0C3F0C3F0C3E8C3E8C3F01D
S315000045104FD4FFFFFFFFFFFFE4D0E4E0FFFFFFFF04
S31500004520FFFFC3D8A1D0BFFFFFFFDEFFC2D8A2D8CE
S31500004530A3D8A2D8A2D882D082C881C0C2E8C3F0CC
S31500004540C3F0C3F0C3F0C3F0C3E8C3E8E3E8FFF782
S31500004550FFFFFFFFFFFFFFFFA3E8E3E8FFFFFFFF0B
S31500004560FFFFC3E0C3E0C2E0C3E0C3D8C3D8A3D80B
S31500004570A3D8A2E0A2D882D082C881C0C2E8C3F084
S31500004580C3F0C3F0C3E8C3E8E3E8C2F0FFFFFFFFF0
S31500004590FFFFFFFFBEFFE2E8E3E0C3E0FFFFFFFF30
S315000045A0FFFFC2D8C3E0C2E0C2E0C3E0A3D8A3D8ED
S315000045B0A3D8A2D8A2D082D082C8A2C0C2E0C3E843
S315000045C0C3E8C3E8C3E8C3E8E3E8FFF7FFFFFFFF7C
S315000045D0FFFFE3E0E3E0E3E0E3E0E3D87EFFFFFF95
S315000045E0FFFFFFFFFFF704B9C2D8C2E0C2D8A3D8C5
S315000045F0A3D8A2D8A2D082D081C861B8C2E0C3E84D
S31500004600C3E8C3E8C3E8C3E864B9FFFFFFFFFFFFE1
S31500004610A1C8E3E0E3E003E1DEFFFFF7FFFFFFFFF2
S31500004620FFFFFFFFFFFFFFFFDFFFC3D0C2D8C2D8E7
S31500004630A3D8A2D882D082D081C861B8E3E0E3E8EB
S31500004640C3E8C3E8E3E8C4E8FFFFFFFFFFFFC3E8F2
S31500004650E3E8E3E0E4E8FFFFFFFFFFFFFFFFFFFF04
S31500004660FFFFDFFFFFFFFFFFFFFFFFFFE791C2D85E
S31500004670A2D8A2D082D082C882C861B8E2E0E3E8BC
S31500004680C3E8E3E8E3E8A4D8FFFFFFFFDFFFE3E0CA
S31500004690E3E8C2E89DFFFFFFFFFFFFFF5DFFFFFFAF
S315000046A0FFFFFFFF03C99EF7FFFFFFFFFFFF81B07C
S315000046B0A2D8A2D082C882C881C061B8E3E0E3E88C
S315000046C0C3E8E4E8E3E8FEFFFFFFFFFFC4E0E3E042
S315000046D0E3E804F1FFFFFFFFFFFFC3D0C3E0D6FD11
S315000046E0FFFFFFFF65A9C2D89DFFFFFFFFFFFFFF8A
S315000046F0E2C8A2D082D082C881C060B003E1E3E8FC
S31500004700C3E8E4E8E3E8FFFFFFFFFFFFE3E0C3E001
S31500004710E3E8E3D8FFFFFFFFDEFFE3E0E3E0E4E0EA
S31500004720FFFFFFFFFEF7C2D8C2D8FFFFFFFFFFFF64
S3150000473075E5A2C882C862C881C061B8E3E0E3E853
S31500004740C3E8E3E8E3E0FFFFFFFFFFFFE3E8E3E89A
S31500004750E3E0E3A0FFFFFFFFE4B8E3E0C3E0C3D874
S31500004760FFFFFFFFFFFFC2D8C2D8C2E8DFFFFFFF8F
S31500004770FFFF82C882C862C061C081B0E2E0E3E8A0
S31500004780C3E0E3E0E4E0FFFFFFFFFFFFC3E0C3E0B9
S31500004790E3E005B9FFFFFFFF2491C3E0C2E0C3E0F9
S315000047A0FFFFFFFFFFFFC2D8C2D8A2D8FFFFFFFF5F
S315000047B0FFFF82C882C061C061B861A8C2E0C3E0E1
S315000047C0C3E0C3E0E3D8FFFFFFFFFFFFC2E0E3E083
S315000047D0E3E0A2E0FFFFFFFFFFFFC2D8C2E0E3D89D
S315000047E0FFFFFFFFFFFFC2D8C2D8A2D8FFFFFFFF1F
S315000047F0FFFF82C081C061C061B881B0C2E0C3E082
S31500004800C3E0C3E0E3E0FFFFFFFFFFFFE3D8C3E041
S31500004810C3E0A3E8FFFFFFFFFFFFFFFFFFFFFFFF70
S31500004820FFFFFFFFDEFFC2D8A2D8A2D8DFFFFFFF3F
S31500004830FFFF81C081C061C081B840A8C2E0C3E06B
S31500004840C3E0C3E0C3E0FEEFFFFFFFFF24D9C3E0F0
S31500004850C3E0C3E0C3D8FFFFFFFFFFFFFFFFFFFF7B
S31500004860FFFFBFFFC2D8C2D8A2D082D0DFFFFFFFB2
S31500004870FFFF81C061B861B861B061A8C2D8C3E06A
S31500004880C3E0C3E0C3E0C3D8FFFFFFFFFEFFE3D8EA
S31500004890C3E0C3E0C3D8C2D8FFFFFFFFFFFFFFFF9F
S315000048A0FFFFC2D8C2D8A2D8A2D0E2C8FFFFFFFF3E
S315000048B0FFFF82C061B861B861B061A0A2E0C3E049
S315000048C0C3E0C3E0C3E0E3D8FFFFFFFFFFFF61D80B
S315000048D0E3D8C3E0C3D8C2D8C2D8C2D8C2D0C2D8DF
S315000048E0C2D8C2D8A2D8A2D082D0BEFFFFFFFFFF97
S315000048F08DA362B861B861B061B061A8C2D8C3E0E7
S31500004900C3E0C3E0A3E0C2E025C1FFFFFFFFFFFF56
S31500004910E2D8C2E0A2D8A3D8A2D8A2D8A2D8A2D858
S31500004920A2D8A2D8A2D0A2D0A2C0FFFFFFFFFFFF4D
S3150000493081C062B861B841B041B060A0A2D8C3E0FE
S31500004940C3E0C3E0C3E0C3E0E2D8FFF7FFFFFFFF29
S31500004950FFFFA2E8C2D8A2D8A2D8A2D8A2D8A2D8CD
S31500004960A2D8A2D0A2D083C8FFFFFFFFFFFFA28874
S3150000497062B861B861B041B041A860A0A2D8C3E0F6
S31500004980C3E0A3D8A3D8C3E0C2D8A2E0DFFFFFFFED
S31500004990FFFFFFFF7EFFA2D0C2D8A2D8A2D8A2D026
S315000049A0A2D061B8FEEFFFFFFFFFFFFF9DFF82B8B9
S315000049B061B861B041B041A861A84098A2E0C3E0E7
S315000049C0A3D8A3D8A2D8A3D8A2D8C2D8C2D0FFFF52
S315000049D0FFFFFFFFFFFFFFFFFFFFFFFFFFFFFFFFE1
S315000049E0FFFFFFFFFFFFFFFFFFFFDFFF61B881B89B
S315000049F061B041B041B041A840A86098A2D8A3D800
S31500004A00A3D8A3D8A3D8A3D8A3D8A2D8C2D8A2E0A3
S31500004A10E288FFFFFFFFFFFFFFFFFFFFFFFFFFFF34
S31500004A20FFFFFFFFFFFFFFFFA3B082B861B861B0D1
S31500004A3041B041B040A820A820A06098A2E0C2D80A
S31500004A40A3D8A3D8A3D8A3D8A2D8A3D8A2D8A2D88B
S31500004A50A2D8A2D0E3A0FFFFFFFFFFFFFFFFFFFFEB
S31500004A60FFFFBFFF40B061B881B861B861B041B027
S31500004A7041B041A840A020A020A02088FBFEA2D8DB
S31500004A80A2D8A2D8A2D8A2D8A2D8A2D8A2D8A2D058
S31500004A9082D0A2D0A2C8A2C8A2C882C082C082C048
S31500004AA081C082C061B861B861B861B041B041B03F
S31500004AB040A820A840A020A020A09DF7FFFF82D8F4
S31500004AC0A2D8A2D0A2D0A2D0A2D082D082D082D0A8
S31500004AD082C882C882C882C882C082C062C081C0C1
S31500004AE061B861B861B841B061B041B041A840A8B1
S31500004AF040A840A020A020984090FFFFFFFFDFF7CE
S31500004B00A1D0A2D0A2D082D082C8A2C882C882C8B0
S31500004B1082C882C881C081C081C061C061B861B8E5
S31500004B2061B861B861B061B041B041A840A840A089
S31500004B3020A020A020A020905EF7FFFFBEF7FFFF79
S31500004B40FFFFBEF761B081C081C061C061C061C0B6
S31500004B5061B861C061B860B861B840B061B061A8C1
S31500004B6040A840A840A020A020A040A020982098BF
S31500004B70209861907DF7FFFFFFFFDFFF0000000038
S31500004B8000000C0000001C0000007C000000780003
S31500004B900000F8000000E0000000C00000FE3F80BA
S31500004BA001FFFFC001FFFFE003FFFFC007FFFF801B
S31500004BB007FFFF0007FFFF0007FFFF0007FFFF00DB
S31500004BC007FFFF0007FFFF0007FFFF8007FFFFC08B
S31500004BD003FFFFF003FFFFF003FFFFE001FFFFE02D
S31500004BE000FFFFC000FFFF80007FFF00003E3F0088
S31500004BF0000000000000000000000000100C020091
S31500004C00044C0000E4BDA000B44C0000E5818F0018
S31500004C109C4C0000E5A5BD00844C0000E6988E0083
S31500004C206C4C0000E6B88500544C0000E788B100E3
S31500004C303C4C00000000000000000000003CFC139B
S31500004C402009BC1F4420F81F4000E00FB0040807ED
S31500004C50F47800000002C82F0812920FF47FC81FD4
S31500004C604810C41FC41F44104418000000007C3FB5
S31500004C704421443F7C214421443F7C210021C02023
S31500004C80203800000000883F08107C0C4804E47FB0
S31500004C9024042C0430044804060600001002100404
S31500004CA0C83BC83F4C00CA7FC852C87FA852A8520A
S31500004CB09820000020011001901F88204C048A04CF
S31500004CC0881448644844280408070000080C0100BA
S31500004CD0D44C0000000000000000000000000000AE
S31500004CE000001818181810001800000000002424EE
S31500004CF000000000000000000000002CFE247E24BE
S31500004D00240000000000107E121C68483E080000C7
S31500004D100000CE492E106894F200000000001C2608
S31500004D20360C5263FE000000000018180000000058
S31500004D300000000000003018080C0C0C08102000C1
S31500004D4000000C18302020201018040000001076F7
S31500004D503C10000000000000000000001818FE18BB
S31500004D6018000000000000000000001818100C00D9
S31500004D700000000000003C000000000000000000F1
S31500004D800000000018000000000040203010080C51
S31500004D90040200000000007E42F2CE423C00000009
S31500004DA00000001E101010107E0000000000007EA3
S31500004DB06020100C7E0000000000007E603C404039
S31500004DC03E00000000000030282422FF20000000E2
S31500004DD00000003E063E40403E0000000000003C51
S31500004DE0067E42427C0000000000007C6030100815
S31500004DF00C0000000000007E463C66427E0000007B
S31500004E000000007E426658601E00000000000000A0
S31500004E101800000018000000000000001800001034
S31500004E2018100C0000000000300806186000000092
S31500004E3000000000007E007E000000000000000070
S31500004E400C3060180400000000001C2060380800C8
S31500004E50180000000000788692A9A5B569023E00F8
S31500004E60000000182C24467E830000000000007E0F
S31500004E70423E42423E0000000000007C0202020662
S31500004E807C0000000000007EC2C2C2423E0000005C
S31500004E900000003E067E06067E0000000000003E82
S31500004EA0067E0606060000000000007C02724242F2
S31500004EB07C00000000000042427E424242000000A8
S31500004EC00000003C181818187E0000000000003C86
S31500004ED0202020203E00000000000062120E1A3240
S31500004EE06200000000000004040404047C000000CA
S31500004EF000000066E6DADA83830000000000004660
S31500004F004A5A5262620000000000007EC2C3C342D9
S31500004F103C0000000000007E42423E02020000000B
S31500004F200000007EC2C3C3423C10E0000000007EC9
S31500004F30463E3666460000000000007E021C6040C9
S31500004F407E0000000000007C1818181818000000E9
S31500004F5000000042424242427C000000000000C3C2
S31500004F604266243C1800000000000083829ADA663C
S31500004F7066000000000000462C183864C2000000DD
S31500004F80000000C2643C1818180000000000007CF5
S31500004F90201008047E0000000000380808080808F1
S31500004FA008083800000006040818102020400000F9
S31500004FB000003C303030303030303C00000000180B
S31500004FC02442000000000000000000000000000075
S31500004FD00000FF0000000C000000000000000000C0
S31500004FE0000000003C407C427E00000000000202FF
S31500004FF07A4642423E0000000000000078060206A3
S315000050007C000000000040407C4242625C000000E0
S31500005010000000003C427E027C0000000000F00818
S31500005020087E08080800000000000000FC42661A1E
S315000050307EC27E00000002027A4642424200000022
S31500005040000018001E1010107E0000000000300046
S315000050503E20202020201E000000060666160E3682
S315000050606600000000001E10101010107E000000E8
S31500005070000000006ED2D2D2D20000000000000074
S315000050807A46424242000000000000003C42C24212
S315000050903C000000000000007A4642423E02020048
S315000050A0000000007C4242625C40400000000000BC
S315000050B07E46060606000000000000007C063C4016
S315000050C03E000000000000087F0808087800000085
S315000050D000000000424242427C0000000000000046
S315000050E04246243C180000000000000083D25A6AA1
S315000050F06600000000000000462C182C4600000048
S31500005100000000004246243818180700000000007E
S315000051107E20180C7E0000000000700808080E08AB
S315000051200808700000101010101010101010100059
S3150000513000001C101010701010100C000000000071
S31500005140000EF200000000005350495F53543737F9
S3150000515033355F496E69740019581E0E034F4B00B4
S315000051600000000000000000000000000000000039
S315000051700000000000000000000000000000000029
S31500005180CC4C000000000000E0070000E0FF00003B
S315000051905A58280800E04B005F76300C5061737354
S315000051A021000000000000000000000000000000D8
S315000051B000000000000000000000000000000000E9
S315000051C000000000000000000000000000000000D9
S315000051D0000000000000000000000000CC4C0000B1
S315000051E00000000000F8E0FF020200000C000C01C5
S315000051F00C020C0300000000000000005902000031
S3150000520000000000085200000001000020000020FD
S315000052100F00FFFF00000000FFFF0000040405066A
S31500005220070C0C0C0C0001010100000044520000A8
S315000052305C520000E5120000000000004052000031
S31500005240010000005491002050520000F05200006E
S315000052502400002058520000050000005C91002048
S3150000526068520000F0520000340000207052000026
S31500005270040000000B000000805200000000000047
S315000052800000010008010000040000000B020000FD
S3150000529000000100000300000000010401030000FB
S315000052A00000010402030000040000000B030000DC
S315000052B0040000000C030000000001040F030000BE
S315000052C000000104000900000000010401090000BB
S315000052D004000000070900008C018D018E018F017A
S315000052E0980199019A019B01020403040404000039
S315000052F03D2D0000B52C0000552B0000E92B0000C9
S31500005300092C0000E12B0000E52B0000292C0000F1
S31500005310852C00007D2C0000812C0000040000007C
S31500005320C4530000080000004453000002000000BF
S31500005330345300000000006800000068A000002050
S31500005340A000002000000068000000680000006067
S3150000535000010C08000000680000006800000070F2
S31500005360000109080000006800000068000000084D
S3150000537000010208000000680000006860000000EC
S31500005380000101082000002020000020000000602D
S3150000539000010C0320000020200000200000007007
S315000053A00001090320000020200000200000000862
S315000053B00000020320000020A00000206000000082
S315000053C000000103000000680000006800010008FA
S315000053D0000000680000006800010008A00000202E
S315000053E0A000002000000003C00400202893002035
S315000053F00000000301000200080010002000232D19
S31500005400302B2000686C4C006566674546470030C7
S315000054103132333435363738394142434445460014
S315000054203031323334353637383961626364656614
S31500005430000000004275696C742077697468205218
S31500005440656E6573617320416476616E6365642081
S31500005450466C657869626C6520536F667477617215
S3150000546065205061636B6167652076657273696F4D
S315000054706E20362E342E3000362E342E30000000AC
S309000054800000040618
S30900005484F8B500BFB2
S30900005488F8B500BFAE
S3090000548C4D010000C8
S3090000549025010000EC
S3090100A100FFFFFFFF58
S3090100A200FFFDFFFF59
S3090100A280F8F8FFFFE5
S7050000325573
