:020000040800F2
:1000000058040020050100089D1900085512000839
:100010009919000871010008491D0008000000003E
:10002000000000000000000000000000CD190008E2
:100030007501000800000000A1190008CF19000890
:100040001F0100081F0100081F0100081F01000810
:100050001F0100081F0100081F0100081F01000800
:100060001F0100081F0100081F0100081F010008F0
:100070001F0100081F0100081F0100081F010008E0
:100080001F0100081F0100081F0100081F010008D0
:100090001F0100081F0100081F0100081F010008C0
:1000A0001F0100081F0100081F0100081F010008B0
:1000B0001F0100081F0100081F0100081F010008A0
:1000C0001F0100081F0100081F0100081F01000890
:1000D0001F010008391D00081F0100081F0100084A
:1000E0001F0100081F0100081F010008DFF810D0E1
:1000F00000F02CF800480047A51D0008AFF3008071
:10010000580400200648804706480047FEE7FEE7FF
:10011000FEE7FEE7FEE7FEE7FEE7FEE7FEE7FEE7B7
:100120003D1A0008ED000008D2B201E000F8012BF2
:10013000491EFBD270470022F6E710B513460A4667
:1001400004461946FFF7F0FF204610BD064C074D48
:1001500006E0E06840F0010394E807009847103497
:10016000AC42F6D3FFF7C6FFC48A0008E48A000851
:1001700000BFFEE7704772B600BFFEE701460022EF
:1001800091F82100022808D00420886300BF0020D5
:1001900081F8200000BF012070470868006820F047
:1001A0000E000B6818600868006820F001000B68FA
:1001B000186091F8403001209840CB6B58600120C6
:1001C00081F8210000BF002081F8200000BF104608
:1001D000E2E7000070B50446002594F821000228EB
:1001E00003D00420A063012548E02068006820F0C7
:1001F0000E00216808602068006820F00100216876
:1002000008601F492068884201D1012026E01C496E
:1002100014312068884201D110201FE0184928318C
:100220002068884201D1801518E015493C312068CA
:10023000884201D1801411E0114950312068884270
:1002400002D14FF4803009E00D49643120688842C2
:1002500002D14FF4801001E04FF080700849083956
:100260004860012084F8210000BF002084F82000AD
:1002700000BF606B10B12046616B8847284670BD97
:100280000800024070B5044600F0A6F9064625466F
:10029000681C10B104480078054400BF00F09CF9C8
:1002A000801BA842FAD370BD080000202DE9F84752
:1002B0000346002294466EE14FF0010808FA02F46A
:1002C000D1F8008008EA0400A0427DD1DFF8DCA26A
:1002D000D1F80480A8EB0A09D0453AD014DCB8F173
:1002E000030F50D009DCB8F1000F31D0B8F1010F85
:1002F0001CD0B8F1020F49D120E0B8F1110F18D08D
:10030000B8F1120F42D11EE0B9F5881F25D006DCE6
:10031000B9F5803F20D0B9F5801F37D11AE0B9F583
:10032000001F18D0B9F5041F30D117E0D1F80CC068
:100330002DE0D1F80C8008F1040C28E0D1F80C80F5
:1003400008F1080C23E0D1F80C8008F10C0C1EE039
:1003500000BF00BF00BF00BF00BF00BFD1F80880D2
:10036000B8F1000F02D14FF0040C0BE0D1F8088077
:10037000B8F1010F03D14FF0080C1C6102E04FF0FF
:10038000080C5C6103E04FF0000C00E000BF00BF10
:10039000FF2801D8984601E003F104084646FF28EB
:1003A00002D84FEA820803E0A2F108084FEA880861
:1003B0004746D6F800804FF00F0909FA07F928EAF6
:1003C00009080CFA07F900E088E048EA0908C6F8CD
:1003D0000080D1F8048008F08058B8F1805F7DD1AA
:1003E00000BFDFF8CC81D8F8188048F00108DFF8AA
:1003F000C091C9F81880C846D8F8188008F00108DC
:10040000CDF8008000BF00BF4FEAB9384FEA92092B
:1004100058F829504FEA82784FEA18794FF00F08C0
:1004200008FA09F825EA0805DFF88881434502D172
:100430004FF0000816E0DFF88081434502D14FF00D
:1004400001080FE0DFF87481434502D14FF0020844
:1004500008E0DFF86C81434502D14FF0030801E06A
:100460004FF004084FEA82794FEA197908FA09F83F
:1004700048EA0505DFF84C814FEA920948F829500F
:10048000D1F8048008F48018B8F5801F0AD1DFF88D
:100490003881D8F8008048EA0008DFF82C91C9F8C4
:1004A000008009E0DFF82081D8F8008028EA000801
:1004B000DFF81491C9F80080D1F8048008F400181E
:1004C000B8F5001F10D1DFF8008108F10408D8F852
:1004D000008048EA0008DFF8F09000E05AE009F1F7
:1004E0000409C9F800800DE0DFF8DC8008F1040899
:1004F000D8F8008028EA0008DFF8CC9009F1040958
:10050000C9F80080D1F8048008F40038B8F5003F3D
:100510000ED1DFF8B480A8F10408D8F8008048EACA
:100520000008DFF8A490A9F10409C9F800800DE0E3
:10053000DFF89480A8F10408D8F8008028EA0008C1
:10054000DFF88490A9F10409C9F80080D1F804808B
:1005500008F48038B8F5803F0ED1DFF86C80A8F140
:100560000808D8F8008048EA0008DFF85C90A9F194
:100570000809C9F800800DE0DFF84C80A8F10808F0
:10058000D8F8008028EA0008DFF83C90A9F10809B3
:10059000C9F80080521CD1F8008028FA02F8B8F19E
:1005A000000F7FF489AEBDE8F8870000000011104D
:1005B0000010024000080140000C01400010014002
:1005C0000014014008000140080401400AB1016123
:1005D00001E00B04036170470148006870470000A8
:1005E00000000020034800680349097808440149D5
:1005F00008607047000000200800002010B508487F
:10060000006840F0100006490860032000F0A0F8E0
:10061000002000F007F800F02BF8002010BD0000CB
:100620000020024070B504460E4800784FF47A71FD
:10063000B1FBF0F00C490968B1FBF0F5284600F079
:10064000F1FB08B1012070BD102C07D20022214619
:10065000501E00F03FF80548046001E00120F2E779
:100660000020F0E7080000200C000020040000201B
:1006700008B500BF0E48806940F001000C49886150
:100680000846806900F00100009000BF00BF00BF75
:100690000846C06940F08050C8610846C06900F053
:1006A0008050009000BF00BF052000F051F808BD49
:1006B0000010024001460846002809DB00F01F0335
:1006C00001229A4043099B0003F1E023C3F8002173
:1006D00000BF70472DE9F05F80460D4616460027A3
:1006E00001F034FB074639462A46334601F007003D
:1006F000C0F1070ABAF1040F02D94FF0040A01E071
:10070000C0F1070AD14600F1040ABAF1070F02D27C
:100710004FF0000A01E0A0F1030AD4464FF0010AAD
:100720000AFA09FAAAF1010A0AEA020A0AFA0CFA12
:100730004FF0010B0BFA0CFBABF1010B0BEA030BB7
:100740004AEA0B042146404601F008FBBDE8F09F51
:1007500000BF00F00702064B19684FF6FF0319406F
:10076000044B0B4343EA0221014B196000BF704761
:100770000CED00E00000FA0570B504460D460CB91A
:10078000012070BD5A48006800F00700A8420ED250
:100790005748006820F0070028435549086008467C
:1007A000006800F00700A84201D00120E9E72078A6
:1007B00000F0020002281DD1207800F00400042877
:1007C00005D14C48406840F4E0604A4948602078D0
:1007D00000F00800082805D14648406840F4605001
:1007E000444948604348406820F0F000A16808434D
:1007F00040494860207800F0010078B36068012823
:1008000006D13C48006800F4003090B90120B8E7F8
:100810006068022806D13748006800F0007040B9CF
:100820000120AEE73348006800F0020008B901205B
:10083000A7E73048406820F00300616808432D496D
:100840004860FFF7C9FE064609E0FFF7C5FE801BBA
:1008500041F28831884202D9032092E707E0254817
:10086000406800F00C006168B0EB810FEDD12048CA
:10087000006800F00700A8420ED91D48006820F06B
:10088000070028431A4908600846006800F007007E
:10089000A84201D0012074E7207800F00400042869
:1008A00007D11448406820F4E060E168084311492A
:1008B0004860207800F00800082808D10D484068FA
:1008C00020F46050216940EAC1000A49486000F004
:1008D0003FF808494968C1F30311074A515CC84011
:1008E0000649086006480068FFF79CFE002048E7BC
:1008F00000200240001002402E4D00080C00002095
:100900000400002001480068704700000C0000202F
:1009100000B5FFF7F7FF04494968C1F30221034A14
:10092000515CC84000BD0000001002403E4D000870
:1009300000B5FFF7E7FF04494968C1F3C221034A44
:10094000515CC84000BD0000001002403E4D000850
:1009500070B500210022002400230020134D696897
:1009600001F00C05F5B1042D02D0082D19D101E0DC
:100970000F4819E00F4DC1F38346AB5D01F480359C
:1009800055B10A4D6D68C5F340450B4E725D084D7B
:100990005D43B5FBF2F402E0084D03FB05F420468D
:1009A00002E000BF024800BF00BF70BD001002405F
:1009B00000127A001C4D00082C4D000800093D0073
:1009C000F8B504460CB90120F8BD207800F001000C
:1009D000002878D0F848406800F00C0004280CD0BB
:1009E000F548406800F00C00082811D1F248406832
:1009F00000F48030B0F5803F0AD1EF48006800F481
:100A0000003000285FD0606800285CD10120DBE75F
:100A100000BF6068B0F5803F06D1E748006840F449
:100A20008030E549086028E0606858B9E24800680D
:100A300020F48030E04908600846006820F48020F7
:100A400008601AE06068B0F5A02F0BD1DA480068A2
:100A500040F48020D84908600846006840F480309F
:100A600008600AE0D448006820F48030D249086069
:100A70000846006820F48020086000BF606888B1E4
:100A8000FFF7AAFD054606E0FFF7A6FD401B642818
:100A900001D9032098E7C848006800F40030002816
:100AA000F2D010E0FFF798FD054606E0FFF794FD51
:100AB000401B642801D9032086E7BF48006800F482
:100AC00000300028F2D1207800F00200022857D12F
:100AD000B948406800F00C0050B1B748406800F0D9
:100AE0000C00082818D1B448406800F4803098B948
:100AF000B148006800F0020020B12069012801D04F
:100B0000012061E7AC48006820F0F800616940EA24
:100B1000C100A949086033E02069E8B10120A74974
:100B20000860FFF759FD054606E0FFF755FD401B3D
:100B3000022801D9032047E79F48006800F002001F
:100B40000028F2D09C48006820F0F800616940EA73
:100B5000C1009949086013E0002098490860FFF738
:100B60003BFD054606E0FFF737FD401B022801D993
:100B7000032029E79048006800F002000028F2D125
:100B8000207800F0080008282DD1A069B8B1012014
:100B90008B490860FFF720FD054606E0FFF71CFDC6
:100BA000401B022801D903200EE78348406A00F069
:100BB00002000028F2D0012000F0F4FE13E0002033
:100BC0007F490860FFF708FD054606E0FFF704FDD2
:100BD000401B022801D90320F6E67748406A00F05E
:100BE00002000028F2D1207800F00400042873D11C
:100BF00000277148C06900F0805070B900BF6E488E
:100C0000C06940F080506C49C8610846C06900F076
:100C10008050009000BF00BF01276A48006800F4C0
:100C20008070B0B96748006840F48070654908601A
:100C3000FFF7D2FC054606E0FFF7CEFC401B642818
:100C400001D90320C0E65F48006800F480700028E6
:100C5000F2D000BFE068012806D15748006A40F092
:100C600001005549086227E0E06858B95248006A17
:100C700020F00100504908620846006A20F0040094
:100C8000086219E0E06805280BD14B48006A40F083
:100C90000400494908620846006A40F00100086201
:100CA0000AE04548006A20F001004349086208460E
:100CB000006A20F00400086200BFE068A0B1FFF7FE
:100CC0008BFC054609E0FFF787FC401B41F28831A9
:100CD000884202D9032077E622E03748006A00F014
:100CE00002000028EFD012E0FFF776FC054608E08E
:100CF000FFF772FC401B41F28831884201D9032082
:100D000062E62D48006A00F002000028F0D1012FB1
:100D100005D12948C06920F080502749C86100BF2B
:100D2000E069C8B32448406800F00C00082860D08F
:100D3000E069022848D1002020490866FFF74CFCF2
:100D4000054606E0FFF748FC401B022801D90320B6
:100D50003AE61948006800F000700028F2D1206AD5
:100D6000B0F5803F07D11448406820F40030A168F6
:100D7000084311494860D4E9080108430E4949680D
:100D800021F4741108430C49486001200B4908669E
:100D9000FFF722FC054607E03DE0FFF71DFC401B86
:100DA000022801D903200FE60348006800F0007014
:100DB0000028F2D02FE00000001002400000424264
:100DC0008004424200700040002014490866FFF78A
:100DD00003FC054606E0FFF7FFFB401B022801D994
:100DE0000320F1E50E48006800F000700028F2D101
:100DF00011E0E069012800D1E6E50948466806F4FB
:100E00008031206A814204D106F47011606A814207
:100E100001D00120D8E50020D6E5000000004242C4
:100E20000010024070B504462546681EB0F1807F70
:100E300001D301200FE0681E4FF0E02148610F212F
:100E40004FF0FF3000F08AFF00204FF0E021886172
:100E500007200861002070BD704770472DE9F84FEA
:100E60000446206805682068C668206847694FF016
:100E70000009CA4605F00F09B9F1000F0AD105F0C3
:100E8000200038B106F0200020B1204600F027FEF7
:100E9000BDE8F88FB9F1000F7BD007F0010018B959
:100EA00006F49070002874D005F0010030B106F40B
:100EB000807018B1606C40F00100606405F00400BF
:100EC00030B107F0010018B1606C40F002006064BE
:100ED00005F0020030B107F0010018B1606C40F07D
:100EE0000400606405F0080048B106F0200010B965
:100EF00007F0010018B1606C40F008006064606C9D
:100F0000002845D005F0200028B106F0200010B1DF
:100F1000204600F0E4FD20684069C0F3801A606C50
:100F200000F0080010B9BAF1000F2CD0204600F0F4
:100F300090FD2068406900F0400000B300BF00BF92
:100F40002168143151E8001F21F04000216814315C
:100F500041E80002002AF3D100BFE06B50B17748AE
:100F6000E16B4863E06BFFF735F988B1E06B416BEB
:100F700088470DE02046FFF770FF09E009E02046B2
:100F8000FFF76BFF04E02046FFF767FF0020606477
:100F90007EE7206B012877D105F01000002873D080
:100FA00006F010000028FAD000BF00200090206852
:100FB0000068009020684068009000BF00BF206873
:100FC000406900F0400000285FD0E06B0068406896
:100FD0001FFA80F8B8F1000F55D0A08D404552DDC2
:100FE000A4F82E80E06B8069202843D000BF00BFAA
:100FF00021680C3151E8001F21F4807021680C3108
:1010000041E80002002AF3D100BF00BF00BF216801
:10101000143151E8001F21F001002168143141E82A
:101020000002002AF3D100BF00BF00BF21681431C5
:1010300051E8001F21F040002168143141E800020E
:10104000002AF3D100BF202084F842000020206352
:1010500000BF00BF21680C3151E8001F21F01000D3
:1010600021680C3141E80002002AF3D100BFE06B97
:10107000FFF784F802206063A08DE28D801A81B2B0
:101080002046FFF7E9FE03E742E0A08DE18D401A1C
:101090001FFA80F8E08DD0B3B8F1000F37D000BF51
:1010A00000BF21680C3151E8001F21F490702168C5
:1010B0000C3141E80002002AF3D100BF00BF00BF9D
:1010C0002168143151E8001F21F00100216814311A
:1010D00041E80002002AF3D100BF202084F842003A
:1010E0000020206300BF00BF21680C3151E8001FC1
:1010F00021F0100021680C3141E80002002AF3D1F0
:1011000000BF0220606341462046FFF7A5FEBFE610
:1011100005F0800030B106F0800018B1204600F0E4
:10112000DBFDB5E605F0400030B106F0400018B137
:10113000204600F0C4FCABE600BFA9E63F1A000859
:1011400010B504460CB9012010BDA06900B100E043
:1011500000BF94F8410028B9002084F840002046E0
:1011600000F02AF8242084F841002068C06820F4A8
:1011700000502168C860204600F030FD20680069FA
:1011800020F49040216808612068406920F02A001E
:10119000216848612068C06840F400502168C86038
:1011A00000206064202084F8410084F84200002080
:1011B000606300BFC8E7000010B586B00446002099
:1011C00002900390049005901E492068884236D111
:1011D00000BF1D48806940F480401B498861084673
:1011E000806900F48040019000BF00BF00BF084646
:1011F000806940F0040088610846806900F00400BE
:10120000019000BF00BF4815029002200390032008
:10121000059002A90D48FFF749F84FF4806002904D
:1012200000200390049002A90848FFF73FF803222A
:1012300011462520FFF74EFA2520FFF73BFA06B0AE
:1012400010BD0000003801400010024000080140BD
:101250007047704700BFFEE72DE9F04104460D4698
:1012600016461F462A2000F049FBA11C88B200F058
:101270001DFBB11C88B200F019FB2B2000F03EFBD7
:10128000E91C88B200F012FBF91C88B200F00EFBDA
:101290002C2000F033FBBDE8F08170B505460E460A
:1012A00014463146284600F0B9F9204600F0FEFA0F
:1012B00070BD2DE9F04706460F4614461D46DDF881
:1012C00020A0681E83B2601E82B239463046FFF706
:1012D000C3FFB9460EE0B04606E0504600F0E6FA1D
:1012E00008F101001FFA80F8A045F6DB09F10100C2
:1012F0001FFA80F9A945EEDBBDE8F08700B585B09F
:1013000000BF4048806940F004003E4988610846BB
:10131000806900F00400009000BF00BF00BF0846D5
:10132000806940F0040088610846806900F004008C
:10133000009000BF00BF00BF0846806940F0040075
:1013400088610846806900F00400009000BF00BF7B
:1013500000BF0846806940F0040088610846806943
:1013600000F00400009000BF00BF00BF0846806985
:1013700040F0040088610846806900F00400009095
:1013800000BF00BF00BF0846806940F004008861CC
:101390000846806900F00400009000BF00BF0120F3
:1013A000019002900320049001A91748FEF77EFFE8
:1013B00002200190012002900320049001A912480C
:1013C000FEF774FF04200190012002900320049096
:1013D00001A90D48FEF76AFF082001900120029044
:1013E0000320049001A90848FEF760FF1020019037
:1013F000012002900320049001A90348FEF756FF44
:1014000005B000BD001002400008014010B5FFF714
:1014100075FF012204218048FFF7D8F81420FEF759
:1014200031FF002204217C48FFF7D0F81420FEF79A
:1014300029FF012204217848FFF7C8F87820FEF739
:1014400021FF012220217448FFF7C0F8112000F08D
:1014500055FA7820FEF716FFB12000F04FFA05206C
:1014600000F03AFA3A2000F037FA3A2000F034FA65
:10147000B22000F043FA052000F02EFA3A2000F0E6
:101480002BFA3A2000F028FAB32000F037FA0520B2
:1014900000F022FA3A2000F01FFA3A2000F01CFA7D
:1014A000052000F019FA3A2000F016FA3A2000F070
:1014B00013FAB42000F022FA032000F00DFA022003
:1014C00000F00AFAC02000F019FAA92000F004FA8E
:1014D000092000F001FA842000F0FEF9C12000F09C
:1014E0000DFAC42000F0F8F9C22000F007FA0D2030
:1014F00000F0F2F9002000F0EFF9C32000F0FEF94F
:101500008D2000F0E9F96A2000F0E6F9C42000F02F
:10151000F5F98D2000F0E0F9EE2000F0DDF9C520AE
:1015200000F0ECF9052000F0D7F9362000F0E6F9DC
:10153000C82000F0D1F93A2000F0E0F9052000F0D1
:10154000CBF9E02000F0DAF9072000F0C5F91E2001
:1015500000F0C2F90F2000F0BFF9192000F0BCF92B
:101560003A2000F0B9F9342000F0B6F92C2000F050
:10157000B3F92E2000F0B0F92C2000F0ADF92A20AC
:1015800000F0AAF9312000F0A7F93A2000F0A4F900
:10159000002000F0A1F9022000F09EF9012000F0E7
:1015A0009BF9102000F098F9E12000F0A7F9042041
:1015B00000F092F91B2000F08FF90B2000F08CF95D
:1015C000132000F089F9302000F086F92A2000F07D
:1015D00083F9252000F080F92A2000F07DF92920E8
:1015E00000F07AF9272000F077F9302000F074F944
:1015F0003D2000F071F9002000F06EF9012000F0AC
:101600006BF9042000F068F9102000F065F929203A
:1016100000F074F910BD00000008014070B50446E8
:101620000D462B46224629462046FFF715FE70BD83
:101630002DE9FF5F80468A4617469B460F9D002096
:101640000290CDF80080284605EBD071C1F3470425
:101650002046E21704EB5272D2102146E31704EB46
:101660005373DB10A4EBC3030BB1012300E0002391
:101670001A446A4392B20192A7F12000C7B20AEB62
:101680000500401E83B208EB0400401E82B25146A2
:101690004046FFF7E1FD002669E00C2D07D107EB7E
:1016A0004700354901EB8000805D03901BE0102D61
:1016B00005D1324800EB0710805D039013E0182D30
:1016C00007D107EB47002E4901EB0010805D039026
:1016D00009E0202D05D12B4800EB8710805D039099
:1016E00001E0BDE8FF9F4FF000093AE01098C8B94B
:1016F000012000FA09F00399084018B1584600F09B
:10170000D5F802E00E9800F0D1F80298401CC0B263
:101710000290029890FBF4F104FB1100E8B900205C
:10172000029021E0012000FA09F00399084020B15D
:101730005A4651464046FFF7B0FD08F101001FFA36
:1017400080F80098A8EB0000A04206D1DDF80080E8
:101750000AF101001FFA80FA06E009F1010000F029
:10176000FF09B9F1080FC1DB00BF701C86B20198F8
:10177000864292DB00BFB4E7464D0008BA5100082C
:10178000AA5700087A6900082DE9FC5F07468846D9
:1017900015461E46DDF83090002408EB0600401E7A
:1017A00083B27819401E82B241463846FFF754FD95
:1017B000A2461CE04FF0000B13E019F81420019230
:1017C000012000EB440019F800100091DDE900123F
:1017D00041EA022000F06AF8641C0BF101001FFAD4
:1017E00080FBAB45E9DB0AF101001FFA80FAB24544
:1017F000E0DBBDE8FC9F2DE9FE4F05460F46144691
:101800009846DDE90D6ADDF8309017E07F2D01DCA8
:101810007F2F01DDBDE8FE8FF0B2CDE9010ACDF8E2
:1018200000902278434639462846FFF701FF3046AC
:1018300006EBD07105EB61018DB2641C20787E2827
:1018400002DC20782028E1DA00BFE3E770B5044627
:10185000002210211448FEF7B9FE00251BE00022EB
:1018600001211148FEF7B2FE04F0800028B10122E8
:1018700002210D48FEF7AAFE04E0002202210A48D8
:10188000FEF7A4FE012211460748FEF79FFE600600
:10189000040E681CC5B2082DE1DB012210210248AC
:1018A000FEF794FE70BD00000008014010B504462C
:1018B000012208210748FEF789FE2012FFF7C6FF24
:1018C000E0B2FFF7C3FF012208210248FEF77EFEC7
:1018D00010BD00000008014010B504460122082197
:1018E0000548FEF773FE2046FFF7B0FF01220821EE
:1018F0000148FEF76BFE10BD0008014010B504461C
:10190000002208210548FEF761FE2046FFF79EFFF2
:10191000012208210148FEF759FE10BD00080140D0
:1019200008B500BF0D48806940F020000B49886170
:101930000846806900F02000009000BF00BF00BF93
:101940000846806940F0040088610846806900F01C
:101950000400009000BF00BF08BD0000001002405E
:1019600010B50B480B4908604FF4E1304860002186
:1019700008488160C16001610C21416100218161E1
:10198000C161FFF7DDFB08B1FEF7F5FB10BD0000FC
:10199000003801401000002000BFFEE700BFFEE756
:1019A0007047000008B508490968C9084FF47A7201
:1019B000B1FBF2F14143009100BF00BF00994A1E04
:1019C00000920029F9D108BD0C000020704710B525
:1019D000FEF708FE10BD00B58FB0282105A8FEF760
:1019E000AAFB14216846FEF7A6FB0120059000041F
:1019F0000690002007900120099002200C90C1035E
:101A00000D914FF4E0110E9105A8FEF7D9FF08B132
:101A1000FEF7B1FB0F200090022001900020029001
:101A20004FF4806003900020049002216846FEF786
:101A3000A3FE08B1FEF79FFB0FB000BD704770B565
:101A400005466C6A0020E085E0842046FFF705FA31
:101A500070BD00BF00BF02680C3252E8002F22F4B4
:101A6000907102680C3242E80013002BF3D100BFE2
:101A700000BF00BF0268143252E8002F22F00101BB
:101A80000268143242E80013002BF3D100BF016B4F
:101A900001290ED100BF00BF02680C3252E8002FAE
:101AA00022F0100102680C3242E80013002BF3D13F
:101AB00000BF202180F8421000210163704710B55B
:101AC00004462068C06820F040002168C8602020DB
:101AD00084F841002046FFF7BCFB002010BDF8B59C
:101AE000044694F84200222875D1A068B0F5805FC2
:101AF0000CD1206950B90025A66A20684068C0F35F
:101B000008003080A06A801CA06215E0A56A00264B
:101B1000A068B0F5805F03D0A06828B9206918B923
:101B200020684068287004E02068406800F07F006A
:101B30002870A06A401CA062E08D401E80B2E08543
:101B4000002846D12068C06820F020002168C860C5
:101B50002068C06820F480702168C86020684069EF
:101B600020F0010021684861202084F84200002014
:101B70006063206B012826D10020206300BF00BFD6
:101B800021680C3151E8001F21F0100021680C3150
:101B900041E80002002AF3D100BF2068006800F08D
:101BA000100010280AD100BF0020009020680068B3
:101BB000009020684068009000BF00BFA18D2046C3
:101BC000FFF74AF902E02046FFF742FB0020F8BD8C
:101BD00001E00020FBE70220F9E7000070B50446B1
:101BE0002168096921F44051E268114322681161BA
:101BF0002269A1681143626941EA02052168C96846
:101C000041F20C62914329432268D16021684969FD
:101C100021F44071A2691143226851612D4A216863
:101C2000914202D1FEF784FE01E0FEF771FE00EB67
:101C3000C00101EB001162689200B1FBF2F100EB10
:101C4000C00202EB001263689B00B2FBF3F2642354
:101C5000B2FBF3F202EBC20303EB0212A1EB82012F
:101C6000322202EB01116422B1FBF2F101F0F0012A
:101C700000EBC00202EB001263689B00B2FBF3F2C0
:101C80006423B2FBF3F201EB021200EBC00101EBA3
:101C9000001163689B00B1FBF3F100EBC00303EBA1
:101CA00000136668B600B3FBF6F36426B3FBF6F3E5
:101CB00003EBC30606EB0313A1EB8301322303EB13
:101CC00001116423B1FBF3F101F00F01114422680B
:101CD000916070BD00380140014691F84100212813
:101CE00028D18868B0F5805F0BD1086948B90A6AC5
:101CF0001088C0F308000B685860086A801C0862EE
:101D000005E00B6A581C086218780B685860C88C8C
:101D1000401E80B2C88458B90868C06820F08000AE
:101D20000B68D8600868C06840F040000B68D86055
:101D3000002070470220FCE710B50248FFF78EF83C
:101D400010BD00001000002000BFFEE70248006840
:101D5000C0F30220704700000CED00E010B5002831
:101D600004DB0A07130E054A135406E00A07140E93
:101D7000034A00F00F031B1FD45410BD00E400E021
:101D800018ED00E002E008C8121F08C1002AFAD1CD
:101D900070477047002001E001C1121F002AFBD1EB
:101DA000704700000EB5FEF729FCFFF714FEFFF7A1
:101DB000B7FDFFF7D5FDFFF729FB95E04FF6FF7064
:101DC00080231A46002100900846FFF772FA474820
:101DD00038236922002100900B20FFF7D5FC00205A
:101DE0000C214FF6FF724FF47843CDE900210290A9
:101DF0003FA246210A20FFF7FEFC00200C214FF6EF
:101E0000FF724FF47843CDE9002102903DA25A21A0
:101E10000720FFF7F0FC00200C214FF6FF724FF473
:101E20007843CDE9002102903BA26E211020FFF7FC
:101E3000E2FC4FF47A70FEF725FA4FF6FF7080232C
:101E40001A46002100900846FFF733FA4FF4784015
:101E500080232022002100900846FFF72AFA4FF441
:101E6000FC6080234022002100902020FFF721FA0F
:101E70001F2080236022002100904020FFF719FAE4
:101E80004FF6E07080231A46002100906020FFF793
:101E900010FA4FF47A70FEF7F5F94FF478404023CA
:101EA0001A46002100900846FFF703FA4FF4FC6041
:101EB00040238022002100901846FFF7FAF91F20E6
:101EC00080234022114600900020FFF7F2F94FF6E0
:101ED000FF7080231A46402100900846FFF7E9F979
:101EE0004FF47A70FEF7CEF968E700002C1F000867
:101EF000312E3434205446545F4C434420544553CF
:101F0000540000005245534F4C5554494F4E3A31FE
:101F1000323878313238000044524956455220490F
:101F2000433A53543737333500000000FFFFFFFFBB
:101F3000FFFFFFFFFFFFFFFFFFFFFFFFFFFFFFFFB1
:101F4000FFFFFFFFFFFFFFFFFFFFFFFFFFFFFFFFA1
:101F5000FFFFFFFFFFFFFFFFFFFFFFFFFFFFFFFF91
:101F6000FFFFFFFFFFFFFFFFFFFFEFFF96BF13D74E
:101F70000C7A047A047A0459047A047A043B043B08
:101F8000043A043A045A045A045A045A043A043AE1
:101F9000043A043A043A043A043A041904190419B4
:101FA00003D83437EFFFFFFFFFFFE7FF12F40BD931
:101FB00003F803F803D903B90BB913149E3CF7FFD8
:101FC000FFFFFFFFFFDFFFDFFFFFFFFFFFFFFFFF61
:101FD000FFFFFFFFFFFFFFFFFFFFFFFFFFFFFFFF11
:101FE000FFFFFFFFFFFFFFFFFFFFFFFFFFFFFFFF01
:101FF000FFFFFFFFFFFFFFFFFFFFFFFFFFFFFFFFF1
:10200000FFFFFFFFFFFFFFFFFFFFFFFFFFFFFFFFE0
:10201000FFFFFFFFFFFFFFFFFFFFFFFFFFFFFFFFD0
:10202000FFFFFFFFFFFFFFFFFFFFFFFFFFFFFFFFC0
:10203000FFFFFFFFFFFFFFFFFFFFFFFFEFFF969F89
:1020400013D7047A047A047A045A047A045A043BB3
:10205000043B043A043904390439043A043A0419B3
:102060000419041904190419041903F903F90419CA
:1020700003F803B72C17EFFFFFFFFFFFE7FF0AD3BB
:1020800003B903D803D703B803990B980AF4963C15
:10209000F7FFFFFFFFFFFFFFFFFFFFFFFFFFFFFF58
:1020A000FFFFFFFFFFFFFFFFFFFFFFFFFFFFFFFF40
:1020B000FFFFFFFFFFFFFFFFFFFFFFFFFFFFFFFF30
:1020C000FFFFFFFFFFFFFFFFFFFFFFFFFFFFFFFF20
:1020D000FFFFFFFFFFFFFFFFFFFFFFFFFFFFFFFF10
:1020E000FFFFFFFFFFFFFFFFFFFFFFFFFFFFFFFF00
:1020F000FFFFFFFFFFFFFFFFFFFFFFFFFFFFFFFFF0
:10210000FFFFFFFFFFFFFFFFFFFFFFFFFFFFEFFFEF
:10211000969F13D7045A047B045B045A045A045A4A
:10212000045B043B043A04390439043904190439C2
:10213000041904180418041903F903F903F903F93D
:1021400003F903F903B82C17E7FFFFFFFFFFE7FFD1
:102150000AD40BB903B803B803B8039903990AF476
:10216000961CF7FFF7FFFFFFFFFFFFFFFFFFFFFFDB
:10217000FFFFFFFFFFFFFFFFFFFFFFFFFFFFFFFF6F
:10218000FFFFFFFFFFFFFFFFFFFFFFFFFFFFFFFF5F
:10219000FFFFFFFFFFFFFFFFFFFFFFFFFFFFFFFF4F
:1021A000FFFFFFFFFFFFFFFFFFFFFFFFFFFFFFFF3F
:1021B000FFFFFFFFFFFFFFFFFFFFFFFFFFFFFFFF2F
:1021C000FFFFFFFFFFFFFFFFFFFFFFFFFFFFFFFF1F
:1021D000FFFFFFFFFFFFFFFFFFFFFFFFFFFFFFFF0F
:1021E000EFFF969F13B6045A045B045B045B045A2A
:1021F000045A045B045A043A0439043904190419D2
:1022000004190419041904190419041903F903F928
:1022100003F903F903F903B82C37E7FFFFFFFFFFCA
:10222000EFFF0AD40B9903B803B803B803990399D5
:102230000AF4961BF7FFFFFFFFFFFFFFFFFFFFFF03
:10224000FFFFFFFFFFFFFFFFFFFFFFFFFFFFFFFF9E
:10225000FFFFFFFFFFFFFFFFFFFFFFFFFFFFFFFF8E
:10226000FFFFFFFFFFFFFFFFFFFFFFFFFFFFFFFF7E
:10227000FFFFFFFFFFFFFFFFFFFFFFFFFFFFFFFF6E
:10228000FFFFFFFFFFFFFFFFFFFFFFFFFFFFFFFF5E
:10229000FFFFFFFFFFFFFFFFFFFFFFFFFFFFFFFF4E
:1022A000FFFFFFFFFFFFFFFFFFFFFFFFFFFFFFFF3E
:1022B000FFFFEFFF96BF13B60C39045A043B045AD4
:1022C000045A045A045A043A043904390419041902
:1022D0000419041A041A041A041A041903F903F954
:1022E00003F803F803F803F803B82C17E7FFFFFF20
:1022F000FFFFEFFF0AD30B98039703B703B703B8A9
:1023000003980AF49E1BF7FFFFFFFFFFFFFFFFFF8D
:10231000FFFFFFFFFFFFFFFFFFFFFFFFFFFFFFFFCD
:10232000FFFFFFFFFFFFFFFFFFFFFFFFFFFFFFFFBD
:10233000FFFFFFFFFFFFFFFFFFFFFFFFFFFFFFFFAD
:10234000FFFFFFFFFFFFFFFFFFFFFFFFFFFFFFFF9D
:10235000FFFFFFFFFFFFFFFFFFFFFFFFFFFFFFFF8D
:10236000FFFFFFFFFFFFFFFFFFFFFFFFFFFFFFFF7D
:10237000FFFFFFFFFFFFFFFFFFFFFFFFFFFFFFFF6D
:10238000FFFFFFFFEFFF96BF1BB51439043A043A75
:10239000043A045A045A045A043A04390439043AEF
:1023A000041A041A041A041A041A041A041A041A3D
:1023B00003F903F903F803F803F803B82C17E7FF50
:1023C000FFFFFFFFEFFF0AD30B98039803B703B794
:1023D00003B803980AF49DFBFFFFFFFFFFFFFFFF19
:1023E000FFFFFFFFFFFFFFFFFFFFFFFFFFFFFFFFFD
:1023F000FFFFFFFFFFFFFFFFFFFFFFFFFFFFFFFFED
:10240000FFFFFFFFFFFFFFFFFFFFFFFFFFFFFFFFDC
:10241000FFFFFFFFFFFFFFFFFFFFFFFFFFFFFFFFCC
:10242000FFFFFFFFFFFFFFFFFFFFFFFFFFFFFFFFBC
:10243000FFFFFFFFFFFFFFFFFFFFFFFFFFFFFFFFAC
:10244000FFFFFFFFFFFFFFFFFFFFFFFFFFFFFFFF9C
:10245000FFFFFFFFFFFFEFFF969F13B60C39043A13
:10246000043A043A045A043A043A043A041904199E
:10247000041A041A03FA03FA03F903F903F903F936
:1024800003FA03F903F903F803F803D803B72C1789
:10249000E7FFFFFFFFFFE7FF0AB303780378039826
:1024A0000398039803780AD49DFBF7FFFFFFFFFF13
:1024B000FFFFFFFFFFFFFFFFFFFFFFFFFFFFFFFF2C
:1024C000FFFFFFFFFFFFFFFFFFFFFFFFFFFFFFFF1C
:1024D000FFFFFFFFFFFFFFFFFFFFFFFFFFFFFFFF0C
:1024E000FFFFFFFFFFFFFFFFFFFFFFFFFFFFFFFFFC
:1024F000FFFFFFFFFFFFFFFFFFFFFFFFFFFFFFFFEC
:10250000FFFFFFFFFFFFFFFFFFFFFFFFFFFFFFFFDB
:10251000FFFFFFFFFFFFFFFFFFFFFFFFFFFFFFFFCB
:10252000FFFFFFFFFFFFFFFFEFFF969F13B60C3982
:10253000043A043A043A045A0439041903F80BD74C
:102540000BB60BB60BB70BB70B960B9513950BB6DB
:1025500003D803F903F903F903F803D803D8039761
:102560002BF6E7FFFFFFFFFFE7FF0A700B350B3588
:102570000B350B350B350B150A919DDAF7FFFFFF75
:10258000FFFFFFFFFFFFFFFFFFFFFFFFFFFFFFFF5B
:10259000FFFFFFFFFFFFFFFFFFFFFFFFFFFFFFFF4B
:1025A000FFFFFFFFFFFFFFFFFFFFFFFFFFFFFFFF3B
:1025B000FFFFFFFFFFFFFFFFFFFFFFFFFFFFFFFF2B
:1025C000FFFFFFFFFFFFFFFFFFFFFFFFFFFFFFFF1B
:1025D000FFFFFFFFFFFFFFFFFFFFFFFFFFFFFFFF0B
:1025E000FFFFFFFFFFFFFFFFFFFFFFFFFFFFFFFFFB
:1025F000FFFFFFFFFFFFFFFFFFFFEFFF96BF0B9601
:102600000C590439043A04390439041813D74D5BC2
:10261000655A65396518651865396519651865392C
:102620005D5B1BD603D703D803F903F903D803D89E
:1026300003972C16EFFFFFFFFFFFEFFF5C1464D83A
:1026400064D864B76CB76CD864B85C35BE9CF7FFCF
:10265000FFFFFFFFFFFFFFFFFFFFFFFFFFFFFFFF8A
:10266000FFFFFFFFFFFFFFFFFFFFFFFFFFFFFFFF7A
:10267000FFFFFFFFFFFFFFFFFFFFFFFFFFFFFFFF6A
:10268000FFFFFFFFFFFFFFFFFFFFFFFFFFFFFFFF5A
:10269000FFFFFFFFFFFFFFFFFFFFFFFFFFFFFFFF4A
:1026A000FFFFFFFFFFFFFFFFFFFFFFFFFFFFFFFF3A
:1026B000FFFFFFFFFFFFFFFFFFFFFFFFFFFFFFFF2A
:1026C000FFFFFFFFFFFFFFFFFFFFFFFFEFFF8E5F3B
:1026D00013B60C390439045A043A04390C180B3374
:1026E000CFFFDFFFE7FFE7FFE7FFE7FFE7FFEFFFD2
:1026F000DFFFCFFF34570BB703F903F903B803D853
:1027000003B803972BF6EFFFFFFFFFFFFFFFEFFF7D
:10271000EFFFEFFFEFFFF7FFF7FFEFFFEFFFFFFF29
:10272000FFFFF7FFF7FFFFFFFFFFFFFFFFDFFFFFE9
:10273000FFFFFFFFFFFFFFFFFFFFFFFFFFFFFFFFA9
:10274000FFFFFFFFFFFFFFFFFFFFFFFFFFFFFFFF99
:10275000FFFFFFFFFFFFFFFFFFFFFFFFFFFFFFFF89
:10276000FFFFFFFFFFFFFFFFFFFFFFFFFFFFFFFF79
:10277000FFFFFFFFFFFFFFFFFFFFFFFFFFFFFFFF69
:10278000FFFFFFFFFFFFFFFFFFFFFFFFFFFFFFFF59
:10279000FFFFFFFFFFFFFFFFFFFFFFFFFFFFF7FF51
:1027A0009E9F139604180459043A043A043A0C18EC
:1027B0001353CFFFEFFFF7FFF7FFF7FFFFFFFFFF19
:1027C000F7FFE7FFDFFF33F50B9603D803B803F9F4
:1027D00003B803B803972BF6EFFFFFFFFFFFFFFFE0
:1027E000FFFFF7FFF7FFF7FFFFFFF7FFEFFFF7FF31
:1027F000FFDFFFDFFFFFFFFFFFFFFFFFFFFFFFFF29
:10280000FFFFFFFFFFFFFFFFFFFFFFFFFFFFFFFFD8
:10281000FFFFFFFFFFFFFFFFFFFFFFFFFFFFFFFFC8
:10282000FFFFFFFFFFFFFFFFFFFFFFFFFFFFFFFFB8
:10283000FFFFFFFFFFFFFFFFFFFFFFFFFFFFFFFFA8
:10284000FFFFFFFFFFFFFFFFFFFFFFFFFFFFFFFF98
:10285000FFFFFFFFFFFFFFFFFFFFFFFFFFFFFFFF88
:10286000FFFFFFFFFFFFFFFFFFFFFFFFFFFFFFFF78
:10287000F7FF967F13750C5904590419041A043A8A
:102880000BF81B33D7FFF7FFFFFFFFFFFFFFFFFF33
:10289000FFFFFFFFF7FFD7FF33F50BB603F903D8B0
:1028A00003D803B803B803772BF6EFFFFFFFFFFF52
:1028B000F7FFEFFFEFFFEFFFEFFFEFFFEFFFEFFFA0
:1028C000EFFFFFFFFFFFFFFFFFFFFFFFFFFFFFFF28
:1028D000FFFFFFFFFFFFFFFFFFFFFFFFFFFFFFFF08
:1028E000FFFFFFFFFFFFFFFFFFFFFFFFFFFFFFFFF8
:1028F000FFFFFFFFFFFFFFFFFFFFFFFFFFFFFFFFE8
:10290000FFFFFFFFFFFFFFFFFFFFFFFFFFFFFFFFD7
:10291000FFFFFFFFFFFFFFFFFFFFFFFFFFFFFFFFC7
:10292000FFFFFFFFFFFFFFFFFFFFFFFFFFFFFFFFB7
:10293000FFFFFFFFFFFFFFFFFFFFFFFFFFFFFFFFA7
:10294000FFFFEFFF967F13760BF803D8041903F906
:1029500003B813F71AF2D7FFF7FFFFFFFFFFFFFFE0
:10296000FFBFFFFFFFFFF7FFD7FF33F5039603D944
:1029700003D903D803B803B803772BF6EFFFFFFFA3
:10298000FFFFEFFF4BD4549954984C785478547807
:1029900054994BF5B65BF7FFFFFFFFFFFFFEFFFF0C
:1029A000FFFFFFFFFFFFFFFFFFFFFFFFFFFFFFFF37
:1029B000FFFFFFFFFFFFFFFFFFFFFFFFFFFFFFFF27
:1029C000FFFFFFFFFFFFFFFFFFFFFFFFFFFFFFFF17
:1029D000FFFFFFFFFFFFFFFFFFFFFFFFFFFFFFFF07
:1029E000FFFFFFFFFFFFFFFFFFFFFFFFFFFFFFFFF7
:1029F000FFFFFFFFFFFFFFFFFFFFFFFFFFFFFFFFE7
:102A0000FFFFFFFFFFFFFFFFFFFFFFFFFFFFFFFFD6
:102A1000FFFFFFFFF7FF9E7E2B942C3734782C3777
:102A20002C3734583C163331DFDFF7FFFFFFFFFF51
:102A3000FFFFFFFFFFFFFFFFEFFFD7FF33F50BB7F0
:102A400003D803B803D803B803B803772BF6EFFF16
:102A5000FFFFFFFFE7FF0A5013350B150B350B1572
:102A60000AF513150A719DDAF7FFF7FFFFFFFFFF65
:102A7000FFFFFFFFFFFFFFFFFFFFFFFFFFFFFFFF66
:102A8000FFFFFFFFFFFFFFFFFFFFFFFFFFFFFFFF56
:102A9000FFFFFFFFFFFFFFFFFFFFFFFFFFFFFFFF46
:102AA000FFFFFFFFFFFFFFFFFFFFFFFFFFFFFFFF36
:102AB000FFFFFFFFFFFFFFFFFFFFFFFFFFFFFFFF26
:102AC000FFFFFFFFFFFFFFFFFFFFFFFFFFFFFFFF16
:102AD000FFFFFFFFFFFFFFFFFFFFFFFFFFFFFFFF06
:102AE000FFFFFFFFFFFFFFFFF7FFEFFFE7FFE7FF3E
:102AF000EFFFEFFFE7FFE7FFF7FFFFFFFFFFFFFF3E
:102B0000FFFFFFFFFFFFFFDFFFFFFFFFDFFF33B42C
:102B10000B7503D803B803D803B8039803772BD7F2
:102B2000EFFFFFFFFFFFEFFF0A920B570B560B560D
:102B3000035603560B570AB29DDAF7FFFFFFFFFF5C
:102B4000FFFFFFFFFFFFFFFFFFFFFFFFFFFFFFFF95
:102B5000FFFFFFFFFFFFFFFFFFFFFFFFFFFFFFFF85
:102B6000FFFFFFFFFFFFFFFFFFFFFFFFFFFFFFFF75
:102B7000FFFFFFFFFFFFFFFFFFFFFFFFFFFFFFFF65
:102B8000FFFFFFFFFFFFFFFFFFFFFFFFFFFFFFFF55
:102B9000FFFFFFFFFFFFFFFFFFFFFFFFFFFFFFFF45
:102BA000FFFFFFFFFFFFFFFFFFFFFFFFFFFFFFFF35
:102BB000FFFFFFFFFFFFFFFFFFFFF7FFF7FFEFFF45
:102BC000EFFFEFFFEFFFEFFFEFFFEFFFEFFFEFFF95
:102BD000F7FFEFFFF7FFEFFFF7FFF7FFEFFFD7FF7D
:102BE00034160B7603B803B803B803B803B80377F9
:102BF0002BD7EFFFFFFFFFFFEFFF0A92035703778B
:102C000003560376037703370AB29DFBF7FFFFFFF6
:102C1000FFFFFFFFFFFFFFFFFFFFFFFFFFFFFFFFC4
:102C2000FFFFFFFFFFFFFFFFFFFFFFFFFFFFFFFFB4
:102C3000FFFFFFFFFFFFFFFFFFFFFFFFFFFFFFFFA4
:102C4000FFFFFFFFFFFFFFFFFFFFFFFFFFFFFFFF94
:102C5000FFFFFFFFFFFFFFFFFFFFFFFFFFFFFFFF84
:102C6000FFFFFFFFFFFFFFFFFFFFFFFFFFFFFFFF74
:102C7000FFFFFFFFFFFFFFFFFFFFFFFFFFFFFFFF64
:102C8000FFFFFFFFFFFFFFFFFFFFF7FFD79F965CF0
:102C900096BE96BF969F96BF9EBF969E96BF96BFC6
:102CA00096BF969F9E9F9E9F969F969F9EBF969F24
:102CB00086BF2417037703B803B8039803980398D3
:102CC00003772BD6EFFFFFFFFFFFE7FF0A920357C3
:102CD000037703760357035703370AB29DFBF7FFC9
:102CE000FFFFFFFFFFFFFFFFFFFFFFFFFFFFFFFFF4
:102CF000FFFFFFFFFFFFFFFFFFFFFFFFFFFFFFFFE4
:102D0000FFFFFFFFFFFFFFFFFFFFFFFFFFFFFFFFD3
:102D1000FFFFFFFFFFFFFFFFFFFFFFFFFFFFFFFFC3
:102D2000FFFFFFFFFFFFFFFFFFFFFFFFFFFFFFFFB3
:102D3000FFFFFFFFFFFFFFFFFFFFFFFFFFFFFFFFA3
:102D4000FFFFFFFFFFFFFFFFFFFFFFFFFFFFFFFF93
:102D5000FFFFFFFFFFFFFFFFFFFFFFFFF7FF9E7D6E
:102D600023731BB51BF61BD61BD623D61BB51BD551
:102D70001BB51BB61BB61BB61B961BB613B61B9515
:102D800013B513D70BB703D903B903B803B8039826
:102D9000039803772BD6EFFFFFFFFFFFE7FF0A92B1
:102DA0000357037703760357035703370AB295FB9C
:102DB000F7FFFFFFFFFFFFFFFFFFFFFFFFFFFFFF2B
:102DC000FFFFFFFFFFFFFFFFFFFFFFFFFFFFFFFF13
:102DD000FFFFFFFFFFFFFFFFFFFFFFFFFFFFFFFF03
:102DE000FFFFFFFFFFFFFFFFFFFFFFFFFFFFFFFFF3
:102DF000FFFFFFFFFFFFFFFFFFFFFFFFFFFFFFFFE3
:102E0000FFFFFFFFFFFFFFFFFFFFFFFFFFFFFFFFD2
:102E1000FFFFFFFFFFFFFFFFFFFFFFFFFFFFFFFFC2
:102E2000FFFFFFFFFFFFFFFFFFFFFFFFFFFFF7FFBA
:102E30009E7E135313F70C180BF90BD80BD80BF716
:102E40000BD70BD70BD80BD80BB70BB70BB70BB7F0
:102E500003960BD7037603B703B803B803B8037719
:102E60000398037703572BD6EFFFFFFFFFFFE7FF22
:102E70000A920357037703560357033603360AB201
:102E800095FBF7FFFFFFFFFFFFFFFFFFFFFFFFFFC8
:102E9000FFFFFFFFFFFFFFFFFFFFFFFFFFFFFFFF42
:102EA000FFFFFFFFFFFFFFFFFFFFFFFFFFFFFFFF32
:102EB000FFFFFFFFFFFFFFFFFFFFFFFFFFFFFFFF22
:102EC000FFFFFFFFFFFFFFFFFFFFFFFFFFFFFFFF12
:102ED000FFFFFFFFFFFFFFFFFFFFFFFFFFFFFFFF02
:102EE000FFFFFFFFFFFFFFFFFFFFFFFFFFFFFFFFF2
:102EF000FFFFFFFFFFFFFFFFFFFFFFFFFFFFFFFFE2
:102F0000F7FF967E13750C1803F903FA03FA03F919
:102F100003F803F803F803F903D903D803D803B877
:102F200003B703B703B803B803970398039803974D
:102F300003B70397037703572BD6EFFFFFFFFFFF7E
:102F4000EFFF0A710357035703560357033603363F
:102F50000A9295FBF7FFFFFFFFFFFFFFFFFFFFFF59
:102F6000FFFFFFFFFFFFFFFFFFFFFFFFFFFFFFFF71
:102F7000FFFFFFFFFFFFFFFFFFFFFFFFFFFFFFFF61
:102F8000FFFFFFFFFFFFFFFFFFFFFFFFFFFFFFFF51
:102F9000FFFFFFFFFFFFFFFFFFFFFFFFFFFFFFFF41
:102FA000FFFFFFFFFFFFFFFFFFFFFFFFFFFFFFFF31
:102FB000FFFFFFFFFFFFFFFFFFFFFFFFFFFFFFFF21
:102FC000FFFFFFFFFFFFFFFFFFFFFFFFFFFFFFFF11
:102FD000FFFFF7FF9EBF13750BF8041A03FA03FAFD
:102FE000041903D803F803F903F903D903D803D864
:102FF00003D703B703B8039703B8039703D803971E
:10300000037603970397039703572BD6EFFFFFFF32
:10301000FFFFEFFF0A7103370357035603370336E9
:1030200003360A9295FBF7FFFFFFFFFFFFFFFFFF4D
:10303000FFFFFFFFFFFFFFFFFFFFFFFFFFFFFFFFA0
:10304000FFFFFFFFFFFFFFFFFFFFFFFFFFFFFFFF90
:10305000FFFFFFFFFFFFFFFFFFFFFFFFFFFFFFFF80
:10306000FFFFFFFFFFFFFFFFFFFFFFFFFFFFFFFF70
:10307000FFFFFFFFFFFFFFFFFFFFFFFFFFFFFFFF60
:10308000FFFFFFFFFFFFFFFFFFFFFFFFFFFFFFFF50
:10309000FFFFFFFFFFFFFFFFFFFFFFFFFFFFFFFF40
:1030A000FFFFFFFFF7FF8E5E137503F8041903FAA5
:1030B00003D903F903F803F903F903F903D903D991
:1030C00003D803B703B703B803D903B8039703972B
:1030D00003B7039703770397037703562BD6EFFFC6
:1030E000FFFFFFFFEFFF0A71033703570356033754
:1030F0000336033602929DFBF7FFFFFFFFFFFFFF42
:10310000FFFFFFFFFFFFFFFFFFFFFFFFFFFFFFFFCF
:10311000FFFFFFFFFFFFFFFFFFFFFFFFFFFFFFFFBF
:10312000FFFFFFFFFFFFFFFFFFFFFFFFFFFFFFFFAF
:10313000FFFFFFFFFFFFFFFFFFFFFFFFFFFFFFFF9F
:10314000FFFFFFFFFFFFFFFFFFFFFFFFFFFFFFFF8F
:10315000FFFFFFFFFFFFFFFFFFFFFFFFFFFFFFFF7F
:10316000FFFFFFFFFFFFFFFFFFFFFFFFFFFFFFFF6F
:10317000FFFFFFFFFFFFF7FF967E13950BF803B8E5
:1031800003F903D903F803F803D803D903D903D902
:1031900003D903D803B803B803B803B9039803B835
:1031A00003980397039703980378037703562BB686
:1031B000E7FFFFFFFFFFEFFF0A71033703360356F8
:1031C00003370336031602929DFBF7FFFFFFFFFF55
:1031D000FFFFFFFFFFFFFFFFFFFFFFFFFFFFFFFFFF
:1031E000FFFFFFFFFFFFFFFFFFFFFFFFFFFFFFFFEF
:1031F000FFFFFFFFFFFFFFFFFFFFFFFFFFFFFFFFDF
:10320000FFFFFFFFFFFFFFFFFFFFFFFFFFFFFFFFCE
:10321000FFFFFFFFFFFFFFFFFFFFFFFFFFFFFFFFBE
:10322000FFFFFFFFFFFFFFFFFFFFFFFFFFFFFFFFAE
:10323000FFFFFFFFFFFFFFFFFFFFFFFFFFFFFFFF9E
:10324000FFFFFFFFFFFFFFFFF7FF969F0B340BF819
:1032500003F903D903B8041903F803D803B803B773
:1032600003B703B803B703B7039703B803980398EA
:1032700003770397039703760B760B770B560B3583
:1032800033B4EFFFFFFFFFFFEFFF0A5103370336B1
:1032900003360336033603160A929DFBF7FFFFFF42
:1032A000FFFFFFFFFFFFFFFFFFFFFFFFFFFFFFFF2E
:1032B000FFFFFFFFFFFFFFFFFFFFFFFFFFFFFFFF1E
:1032C000FFFFFFFFFFFFFFFFFFFFFFFFFFFFFFFF0E
:1032D000FFFFFFFFFFFFFFFFFFFFFFFFFFFFFFFFFE
:1032E000FFFFFFFFFFFFFFFFFFFFFFFFFFFFFFFFEE
:1032F000FFFFFFFFFFFFFFFFFFFFFFFFFFFFFFFFDE
:10330000FFFFFFFFFFFFFFFFFFFFFFFFFFFFFFFFCD
:10331000FFFFFFFFFFFFFFFFFFFFF7FF967F0B554C
:103320000BD803F803D803D803F803D803B70B96D8
:1033300013751355137513750B550B55133513353D
:1033400013350B350B350B340B340B340B34133472
:103350000AF22B52EFFFFFFFFFFFEFFF0A510B377F
:1033600003360336033603160316029295DBF7FF86
:10337000FFFFFFFFFFFFFFFFFFFFFFFFFFFFFFFF5D
:10338000FFFFFFFFFFFFFFFFFFFFFFFFFFFFFFFF4D
:10339000FFFFFFFFFFFFFFFFFFFFFFFFFFFFFFFF3D
:1033A000FFFFFFFFFFFFFFFFFFFFFFFFFFFFFFFF2D
:1033B000FFFFFFFFFFFFFFFFFFFFFFFFFFFFFFFF1D
:1033C000FFFFFFFFFFFFFFFFFFFFFFFFFFFFFFFF0D
:1033D000FFFFFFFFFFFFFFFFFFFFFFFFFFFFFFFFFD
:1033E000FFFFFFFFFFFFFFFFFFFFFFFFF7FF967FDE
:1033F0000B550BD803F803D903D803F803D80B55A2
:10340000763F861E85FC85FD861D7DDD861D85FD3E
:1034100085DD85FD85FD85FD7DFD7DFD7DFD7DDCFD
:103420007DFC7DBB95FBF7FFFFFFFFFFEFFF0A5120
:1034300003170336033603360316031602729DDBA9
:10344000F7FFFFFFFFFFFFFFFFFFFFFFFFFFFFFF94
:10345000FFFFFFFFFFFFFFFFFFFFFFFFFFFFFFFF7C
:10346000FFFFFFFFFFFFFFFFFFFFFFFFFFFFFFFF6C
:10347000FFFFFFFFFFFFFFFFFFFFFFFFFFFFFFFF5C
:10348000FFFFFFFFFFFFFFFFFFFFFFFFFFFFFFFF4C
:10349000FFFFFFFFFFFFFFFFFFFFFFFFFFFFFFFF3C
:1034A000FFFFFFFFFFFFFFFFFFFFFFFFFFFFFFFF2C
:1034B000FFFFFFFFFFFFFFFFFFFFFFFFFFFFF7FF24
:1034C000967F13540BD803D903D903D903D80BD74C
:1034D0000AF3CFFFEFFFF7FFF7FFEFFFEFFFEFFF7D
:1034E000F7FFF7FFF7FFEFFFEFFFEFFFEFFFEFFF54
:1034F000EFFFEFFFEFFFF7FFFFFFFFFFFFFFE7FF2C
:103500000A510B170336033603160316031602710E
:103510009DDBF7FFFFFFFFFFFFFFFFFFFFFFFFFF49
:10352000FFFFFFFFFFFFFFFFFFFFFFFFFFFFFFFFAB
:10353000FFFFFFFFFFFFFFFFFFFFFFFFFFFFFFFF9B
:10354000FFFFFFFFFFFFFFFFFFFFFFFFFFFFFFFF8B
:10355000FFFFFFFFFFFFFFFFFFFFFFFFFFFFFFFF7B
:10356000FFFFFFFFFFFFFFFFFFFFFFFFFFFFFFFF6B
:10357000FFFFFFFFFFFFFFFFFFFFFFFFFFFFFFFF5B
:10358000FFFFFFFFFFFFFFFFFFFFFFFFFFFFFFFF4B
:10359000F7FF967E0B540BD803D903D903D803D871
:1035A0000BB612F2D7FFF7FFFFFFFFFFFFFFFFFF92
:1035B000FFDFFFFFFFFFFFFFFFFFFFFFFFFFFFFF3B
:1035C000FFFFFFFFFFFFFFFFFFFFFFFFFFFEFFFF0C
:1035D000E7FF0A510B1703360316031603160316EB
:1035E00002719DDBF7FFFFFFFFFFFFFFFFFFFFFF04
:1035F000FFFFFFFFFFFFFFFFFFFFFFFFFFFFFFFFDB
:10360000FFFFFFFFFFFFFFFFFFFFFFFFFFFFFFFFCA
:10361000FFFFFFFFFFFFFFFFFFFFFFFFFFFFFFFFBA
:10362000FFFFFFFFFFFFFFFFFFFFFFFFFFFFFFFFAA
:10363000FFFFFFFFFFFFFFFFFFFFFFFFFFFFFFFF9A
:10364000FFFFFFFFFFFFFFFFFFFFFFFFFFFFFFFF8A
:10365000FFFFFFFFFFFFFFFFFFFFFFFFFFFFFFFF7A
:10366000FFFFF7FF967E0B5503D803D903D903D884
:1036700003D80BB612B1D7DFFFFFFFFFFFFFFFDE5E
:10368000FFFFFFFFFFFFFFFFFFFFFFFFFFFFFFFF4A
:10369000FFFFFFFFFFFFFFFFFFFFFFFFFFFFFFFF3A
:1036A000FFFFEFFF02310B1603360316031602F677
:1036B00002F602719DDBF7FFFFFFFFFFFFFFFFFF39
:1036C000FFFFFFFFFFFFFFFFFFFFFFFFFFFFFFFF0A
:1036D000FFFFFFFFFFFFFFFFFFFFFFFFFFFFFFFFFA
:1036E000FFFFFFFFFFFFFFFFFFFFFFFFFFFFFFFFEA
:1036F000FFFFFFFFFFFFFFFFFFFFFFFFFFFFFFFFDA
:10370000FFFFFFFFFFFFFFFFFFFFFFFFFFFFFFFFC9
:10371000FFFFFFFFFFFFFFFFFFFFFFFFFFFFFFFFB9
:10372000FFFFFFFFFFFFFFFFFFFFFFFFFFFFFFFFA9
:10373000FFFFFFFFF7FF967E0B5403B803D903D9B1
:1037400003D803D80BB60AD2DFFFF7FFF7FFF7FF66
:10375000F7FFFFFFFFFFFFFFF7FFF7FFF7FFF7FFA1
:10376000F7FFFFFFF7FFF7FFF7FFFFFFFFFFFFFF89
:10377000FFFFF7FFE7FF023102F6031603160316F9
:1037800002F602F502719DDBF7FFFFFFFFFFFFFF6F
:10379000FFFFFFFFFFFFFFFFFFFFFFFFFFFFFFFF39
:1037A000FFFFFFFFFFFFFFFFFFFFFFFFFFFFFFFF29
:1037B000FFFFFFFFFFFFFFFFFFFFFFFFFFFFFFFF19
:1037C000FFFFFFFFFFFFFFFFFFFFFFFFFFFFFFFF09
:1037D000FFFFFFFFFFFFFFFFFFFFFFFFFFFFFFFFF9
:1037E000FFFFFFFFFFFFFFFFFFFFFFFFFFFFFFFFE9
:1037F000FFFFFFFFFFFFFFFFFFFFFFFFFFFFFFFFD9
:10380000FFFFFFFFFFFFF7FF967E133403B803D9D6
:1038100003B803B703D703B70B14AF5FCFDFD7BF2E
:10382000CFBFCFBFCF9FCF9FD7BFD7BFCFBFCFBF58
:10383000D79FD79FD79FD79FCF9FCF7FD79FD79F08
:10384000CF9FCF9FD7BFC7BF027202F603160316E2
:10385000031602F602F502719DDBF7FFFFFFFFFF83
:10386000FFFFFFFFFFFFFFFFFFFFFFFFFFFFFFFF68
:10387000FFFFFFFFFFFFFFFFFFFFFFFFFFFFFFFF58
:10388000FFFFFFFFFFFFFFFFFFFFFFFFFFFFFFFF48
:10389000FFFFFFFFFFFFFFFFFFFFFFFFFFFFFFFF38
:1038A000FFFFFFFFFFFFFFFFFFFFFFFFFFFFFFFF28
:1038B000FFFFFFFFFFFFFFFFFFFFFFFFFFFFFFFF18
:1038C000FFFFFFFFFFFFFFFFFFFFFFFFFFFFFFFF08
:1038D000FFFFFFFFFFFFFFFFF7FF965E13340BB7FD
:1038E00003D803B803B803B703B70B762BF833B686
:1038F00033B533D533D533D53BB433B433B433B523
:1039000033B533943394339433943395337433947D
:1039100033733394337433742B7502B40B3702F65C
:10392000031602F602F502F502719DDBF7FFFFFFB9
:10393000FFFFFFFFFFFFFFFFFFFFFFFFFFFFFFFF97
:10394000FFFFFFFFFFFFFFFFFFFFFFFFFFFFFFFF87
:10395000FFFFFFFFFFFFFFFFFFFFFFFFFFFFFFFF77
:10396000FFFFFFFFFFFFFFFFFFFFFFFFFFFFFFFF67
:10397000FFFFFFFFFFFFFFFFFFFFFFFFFFFFFFFF57
:10398000FFFFFFFFFFFFFFFFFFFFFFFFFFFFFFFF47
:10399000FFFFFFFFFFFFFFFFFFFFFFFFFFFFFFFF37
:1039A000FFFFFFFFFFFFFFFFFFFFF7FF9E7E1314E8
:1039B00003B703D903B9039803B7039703970377B2
:1039C0000B570B560B56035503550B550B550B5503
:1039D0000B350B350B350B3403150B150B140B1472
:1039E0000AF40AF40AF402F40AF402F402F502F505
:1039F00002F602F502F602D502D502509DDAF7FF73
:103A0000FFFFFFFFFFFFFFFFFFFFFFFFFFFFFFFFC6
:103A1000FFFFFFFFFFFFFFFFFFFFFFFFFFFFFFFFB6
:103A2000FFFFFFFFFFFFFFFFFFFFFFFFFFFFFFFFA6
:103A3000FFFFFFFFFFFFFFFFFFFFFFFFFFFFFFFF96
:103A4000FFFFFFFFFFFFFFFFFFFFFFFFFFFFFFFF86
:103A5000FFFFFFFFFFFFFFFFFFFFFFFFFFFFFFFF76
:103A6000FFFFFFFFFFFFFFFFFFFFFFFFFFFFFFFF66
:103A7000FFFFFFFFFFFFFFFFFFFFFFFFF7FF963D89
:103A8000131403B703B8039903B903B8039703B832
:103A90000398037803780397037703770377037713
:103AA000037703570357035703560356033603366A
:103AB00003360336033603360316031603160315BF
:103AC0000315031602F602F602D60AD50A509DDA4D
:103AD000F7FFFFFFFFFFFFFFFFFFFFFFFFFFFFFFFE
:103AE000FFFFFFFFFFFFFFFFFFFFFFFFFFFFFFFFE6
:103AF000FFFFFFFFFFFFFFFFFFFFFFFFFFFFFFFFD6
:103B0000FFFFFFFFFFFFFFFFFFFFFFFFFFFFFFFFC5
:103B1000FFFFFFFFFFFFFFFFFFFFFFFFFFFFFFFFB5
:103B2000FFFFFFFFFFFFFFFFFFFFFFFFFFFFFFFFA5
:103B3000FFFFFFFFFFFFFFFFFFFFFFFFFFFFFFFF95
:103B4000FFFFFFFFFFFFFFFFFFFFFFFFFFFFF7FF8D
:103B50009E7E1334039703B803B903B8039703B7E2
:103B60000397039803780378037703760377037743
:103B7000037703560356035603560356033603369C
:103B8000033603360336031603160315031603150F
:103B900002F5031502F602F602F602D602D502304D
:103BA0009DBAF7FFFFFFFFFFFFFFFFFFFFFFFFFFD4
:103BB000FFFFFFFFFFFFFFFFFFFFFFFFFFFFFFFF15
:103BC000FFFFFFFFFFFFFFFFFFFFFFFFFFFFFFFF05
:103BD000FFFFFFFFFFFFFFFFFFFFFFFFFFFFFFFFF5
:103BE000FFFFFFFFFFFFFFFFFFFFFFFFFFFFFFFFE5
:103BF000FFFFFFFFFFFFFFFFFFFFFFFFFFFFFFFFD5
:103C0000FFFFFFFFFFFFFFFFFFFFFFFFFFFFFFFFC4
:103C1000FFFFFFFFFFFFFFFFFFFFFFFFFFFFFFFFB4
:103C2000F7FF9E7E0AF3037603B803B803780377A1
:103C30000397039703980378037703770376037753
:103C400003770357035603570356035603360336C9
:103C5000033603360336031603160316031602F55E
:103C6000031503150315031602F602F602D602D554
:103C700002509DBAFFFFFFFFFFFFFFFFFFFFFFFFA7
:103C8000FFFFFFFFFFFFFFFFFFFFFFFFFFFFFFFF44
:103C9000FFFFFFFFFFFFFFFFFFFFFFFFFFFFFFFF34
:103CA000FFFFFFFFFFFFFFFFFFFFFFFFFFFFFFFF24
:103CB000FFFFFFFFFFFFFFFFFFFFFFFFFFFFFFFF14
:103CC000FFFFFFFFFFFFFFFFFFFFFFFFFFFFFFFF04
:103CD000FFFFFFFFFFFFFFFFFFFFFFFFFFFFFFFFF4
:103CE000FFFFFFFFFFFFFFFFFFFFFFFFFFFFFFFFE4
:103CF000FFFFF7FF963E0AF30B9703D9039803984B
:103D000003B8039703970398037803570377037760
:103D100003770357035703570357035603370356D5
:103D2000033603360336033603160316031603164B
:103D3000031602F503150314031502F502F602F546
:103D400002D502509DDBF7FFFFFFFFFFFFFFFFFFE4
:103D5000FFFFFFFFFFFFFFFFFFFFFFFFFFFFFFFF73
:103D6000FFFFFFFFFFFFFFFFFFFFFFFFFFFFFFFF63
:103D7000FFFFFFFFFFFFFFFFFFFFFFFFFFFFFFFF53
:103D8000FFFFFFFFFFFFFFFFFFFFFFFFFFFFFFFF43
:103D9000FFFFFFFFFFFFFFFFFFFFFFFFFFFFFFFF33
:103DA000FFFFFFFFFFFFFFFFFFFFFFFFFFFFFFFF23
:103DB000FFFFFFFFFFFFFFFFFFFFFFFFFFFFFFFF13
:103DC000FFFFFFFFF7FF9E5F12F30B76039703776A
:103DD0000B770B770376037703770B570B560B564E
:103DE0000B560B560B560B5603360336033603366B
:103DF000033603360316031603160316031502F5DE
:103E000002F502F502F502F402F402F402D502D53D
:103E100002D40AB30A2F9599F7FFFFFFFFFFFFFFB8
:103E2000FFFFFFFFFFFFFFFFFFFFFFFFFFFFFFFFA2
:103E3000FFFFFFFFFFFFFFFFFFFFFFFFFFFFFFFF92
:103E4000FFFFFFFFFFFFFFFFFFFFFFFFFFFFFFFF82
:103E5000FFFFFFFFFFFFFFFFFFFFFFFFFFFFFFFF72
:103E6000FFFFFFFFFFFFFFFFFFFFFFFFFFFFFFFF62
:103E7000FFFFFFFFFFFFFFFFFFFFFFFFFFFFFFFF52
:103E8000FFFFFFFFFFFFFFFFFFFFFFFFFFFFFFFF42
:103E9000FFFFFFFFFFFFF7FF95FC12B20B140B159E
:103EA0000B350B150B140B140B140B140AF40AF43A
:103EB0000AF30AF30AF30AD40AD30AD30AD30AD3B9
:103EC0000AB30AB30AB30AB30AB30A930A930A926B
:103ED0000A930A920A720A720A72027202720252F9
:103EE00002720A520A5109CD9D99F7FFFFFFFFFFA9
:103EF000FFFFFFFFFFFFFFFFFFFFFFFFFFFFFFFFD2
:103F0000FFFFFFFFFFFFFFFFFFFFFFFFFFFFFFFFC1
:103F1000FFFFFFFFFFFFFFFFFFFFFFFFFFFFFFFFB1
:103F2000FFFFFFFFFFFFFFFFFFFFFFFFFFFFFFFFA1
:103F3000FFFFFFFFFFFFFFFFFFFFFFFFFFFFFFFF91
:103F4000FFFFFFFFFFFFFFFFFFFFFFFFFFFFFFFF81
:103F5000FFFFFFFFFFFFFFFFFFFFFFFFFFFFFFFF71
:103F6000FFFFFFFFFFFFFFFFFFFFC6DE64976D5AF5
:103F7000651A651A6D3A64F96D3A651A6D1A6D1A0B
:103F80006D1965196D196D196CF96CF96CF96CFA8C
:103F90006CF96CF96CF964D964D96CD96CD96CD9A9
:103FA0006CD96CD96CD96CB96CB96CB96CB96CB989
:103FB00064B96CB96CB96C986415BE3BFFFFFFDF48
:103FC000FFDFFFFFFFFFFFFFFFFFFFFFFFFFFFFF21
:103FD000FFFFFFFFFFFFFFFFFFFFFFFFFFFFFFFFF1
:103FE000FFFFFFFFFFFFFFFFFFFFFFFFFFFFFFFFE1
:103FF000FFFFFFFFFFFFFFFFFFFFFFFFFFFFFFFFD1
:10400000FFFFFFFFFFFFFFFFFFFFFFFFFFFFFFFFC0
:10401000FFFFFFFFFFFFFFFFFFFFFFFFFFFFFFFFB0
:10402000FFFFFFFFFFFFFFFFFFFFFFFFFFFFFFFFA0
:10403000FFFFFFFFFFFFFFFFFFFFFFFFFFFFF7FF98
:10404000EFFFEFFFEFFFEFFFEFFFEFFFEFFFEFFF00
:10405000EFFFEFFFF7FFF7FFF7FFF7FFEFFFEFFFD0
:10406000F7FFF7FFEFFFEFFFF7FFF7FFF7FFF7FFB0
:10407000F7FFEFFFF7FFF7FFF7FFF7FFF7FFFFFF90
:10408000F7FFF7FFF7FFF7FFF7FFF7FFFFFFFFFF70
:10409000FFFFFFFFFFFFFFFFFFFFFFFFFFFFFFFF30
:1040A000FFFFFFFFFFFFFFFFFFFFFFFFFFFFFFFF20
:1040B000FFFFFFFFFFFFFFFFFFFFFFFFFFFFFFFF10
:1040C000FFFFFFFFFFFFFFFFFFFFFFFFFFFFFFFF00
:1040D000FFFFFFFFFFFFFFFFFFFFFFFFFFFFFFFFF0
:1040E000FFFFFFFFFFFFFFFFFFFFFFFFFFFFFFFFE0
:1040F000FFFFFFFFFFFFFFFFFFFFFFFFFFFFFFFFD0
:10410000FFFFFFFFFFFFFFFFFFFFFFFFFFFFFFFFBF
:10411000FFFFFFFFFFFFFFFFFFFFFFFFFFFFFFFFAF
:10412000FFFFFFFFFFFFFFFFFFFFFFFFFFFFFFFF9F
:10413000FFFFFFFFFFFFFFFFFFFFFFFFFFFFFFFF8F
:10414000FFFFFFFFFFFFFFFFFFFFFFFFFFFFFFDF9F
:10415000FFFFFFFFFFFFFFFFFFFFFFFFFFFFFFFF6F
:10416000FFFFFFFFFFFFFFFFFFFFFFFFFFFFFFFF5F
:10417000FFFFFFFFFFFFFFFFFFFFFFFFFFFFFFFF4F
:10418000FFFFFFFFFFFFFFFFFFFFFFFFFFFFFFFF3F
:10419000FFFFFFFFFFFFFFFFFFFFFFFFFFFFFFFF2F
:1041A000FFFFFFFFFFFFFFFFFFFFFFFFFFFFFFFF1F
:1041B000FFFFFFFFFFFFFFFFFFFFFFFFFFFFFFFF0F
:1041C000FFFFFFFFFFFFFFFFFFFFFFFFFFFFFFFFFF
:1041D000FFFFFFFFFFFFFFFFFFFFFFFFFFFFFFFFEF
:1041E000FFFFFFFFFFFFFFFFFFFFFFFFFFFFFFFFDF
:1041F000FFFFFFFFFFFFFFFFFFFFFFFFFFFFFFFFCF
:10420000FFFFFFFFFFFFFFFFFFFFFFFFFFFFFFFFBE
:10421000FFFFFFFFFFFFFFFFFFFFFFFFFFFFFFFFAE
:10422000FFFFFFFFFFFFFFFFFFFFFFFFFFFFFFFF9E
:10423000FFFFFFFFFFFFFFFFFFFFFFFFFFFFFFFF8E
:10424000FFFFFFFFFFFFFFFFFFFFFFFFFFFFFFFF7E
:10425000FFFFFFFFFFFFFFFFFFFFFFFFFFFFFFFF6E
:10426000FFFFFFFFFFFFFFFFFFFFFFFFFFFFFFFF5E
:10427000FFFFFFFFFFFFFFFFFFFFFFFFFFFFFFFF4E
:10428000FFFFFFFFFFFFFFFFFFFFFFFFFFFFFFFF3E
:10429000FFFFFFFFFFFFFFFFFFFFFFFFFFFFFFFF2E
:1042A000FFFFFFFFFFFFFFFFFFFFFFFFFFFFFFFF1E
:1042B000FFFFFFFFFFFFFFFFFFFFFFFFFFFFFFFF0E
:1042C000FFFFFFFFFFFFFFFFFFFFFFFFFFFFFFFFFE
:1042D000FFFFFFFFFFFFFFFFFFFFFFFFFFFFFFFFEE
:1042E000FFFFFFFFFFFFFFFFFFFFFFFFFFFFFFFFDE
:1042F000FFFFFFFFFFFFFFFFFFFFFFFFFFFFFFFFCE
:10430000FFFFFFFFFFFFFFFFFFFFFFFFFFFFFFFFBD
:10431000FFFFFFFFFFFFFFFFFFFFFFFFFFFFFFFFAD
:10432000FFFFFFFFFFFFFFFFFFFFFFFFFFFFFFFF9D
:10433000FFFFFFFFFFFFFFDFFFFFFFFFFFFFFFFFAD
:10434000FFFFFFFFFFFFFFFFFFFFFFFFFFFFFFFF7D
:10435000FFFFFFFFFFFFFFFFFFFFFFFFFFFFFFFF6D
:10436000FFFFFFFFFFFFFFFFFFFFFFFFFFFFFFFF5D
:10437000FFFFFFFFFFFFFFFFFFFFFFFFFFFFFFFF4D
:10438000FFFFFFFFFFFFFFFFFFFFFFFFFFFFFFFF3D
:10439000FFFFFFFFFFFFFFFFFFFFFFFFFFFFFFFF2D
:1043A000FFFFFFFFFFFFFFFFFFFFFFFFFFFFFFFF1D
:1043B000FFDFFFFFFFFFFFFFFFFFFFFFFFFFFFDF4D
:1043C000FFFFFFFFFFFFFFFFFFFFFFFFFFFFFFFFFD
:1043D000FFFFFFFFFFFFFFFFFFFFFFFFFFFFFFFFED
:1043E000FFFFFFFFFFFFFFFFFFFFFFFFFFFFFFFFDD
:1043F000FFFFFFFFFFFFFFFFFFFFFFFFFFFFFFFFCD
:10440000FFFFFFFFFFFFFFFFFFFFFFFFFFFFFFFFBC
:10441000FFFFFFFFFFFFFFFFFFFFFFFFFFFFFFFFAC
:10442000FFFFFFFFFFFFFFFFFFFFFFFFFFFFFFFF9C
:10443000FFFFFFFFFFFFFFFFFFFFFFFFFFFFFFFF8C
:10444000FFFFFFFFFFFFFFFFFFFFFFFFFFFFFFFF7C
:10445000FFFFFFFFFFFFFFFFFFFFFFFFFFFFFFDF8C
:10446000FFFFFFFFFFFFFFFFFFFFFFFFFFFFFFFF5C
:10447000FFFFFFFFFFFFFFFFFFFFFFFFFFFFFFFF4C
:10448000FFFFFFFFFFFFFFFFFFFFFFFFFFFFFFFF3C
:10449000FFFFFFFFFFFFFFFFFFFFFFFFFFFFFFFF2C
:1044A000FFFFFFFFFFFFFFFFFFFFFFFFFFFFFFFF1C
:1044B000FFFFFFFFFFFFFFFFFFFFFFFFFFFFFFFF0C
:1044C000FFFFFFFFFFFFFFFFFFFFFFFFFFFFFFFFFC
:1044D000FFFFFFFFFFFFFFFFFFFFFFFFFFFFFFFFEC
:1044E000FFFFFFFFFFFFFFFFFFFFFFFFFFFFFFFFDC
:1044F000FFFFFFFFFFFFFFFFFFFFFFFFFFFFFFFFCC
:10450000FFFFFFFFFFFFFFFFFFFFFFFFFFFFFFFFBB
:10451000FFFFFFFFFFFFFFFFFFFFFFFFFFFFFFFFAB
:10452000FFFFFFFFFFFFFFFFFFFFFFFFFFFFFFFF9B
:10453000FFFFFFFFFFDFFFFFFFFFFFFFFFFFFFFFAB
:10454000FFFFFFFFFFFFFFFFFFFFFFFFFFFFFFFF7B
:10455000FFFFFFFFFFFFFFDFFFFFFFFFFFFFFFFF8B
:10456000FFDFFFFFFFFFFFFFFFFFFFFFFFFFFFFF7B
:10457000FFFFFFFFFFFFFFFFFFFFFFFFFFFFFFFF4B
:10458000FFDFFFFFFFFFFFFFFFFFFFFFFFFFFFFF5B
:10459000FFFFFFDFFFFFFFDFFFFFFFFFFFFFFFFF6B
:1045A000FFFFFFFFFFFFFFFFFFFFFFDFFFFFFFFF3B
:1045B000FFFFFFFFFFFFFFFFFFFFEFFFE7DFDF9FD3
:1045C000DF9FE7DFE7FFEFDFEFBFE7BFE7BFE7BF53
:1045D000E7BFE7BFE7BFE7BFEF9FFFFFFFFFF7FFC3
:1045E000DF7EDF5EEFDFF7FFFFFFF7DFE79EE7BF6E
:1045F000EFDFF7FFF7FFEFBFE79FE77EF7FFFFFF74
:10460000FFFFF7FFDF3DDF3DF7FFF7FFF7FFFFFF9E
:10461000F7FFEFBFEF9FE79FE7BFEFBFEF9EE77F9B
:10462000EFBFE79FEF9FF7DFE75EEFBFF7FFFFFF0B
:10463000FFFFE75EE77EEF9EFFFFFFFFFFFFEF9FBD
:10464000D71DDF5EF7FFFFFFF7DFE77FEF9FEF7F0D
:10465000EFBFE77FEF9FE77EEF9FEF7FE77FEF9F63
:10466000E77EF7DFE75DEF9FE75EFFFFFFFFFFFFFE
:10467000F7DFF7DFFFFFFFFFFFFFF7BFE73EEF7F4B
:10468000F7DFFFFFFFFFE75EEF7FE73E861D547514
:104690008DB98DFB54975CD8DF9FBE9C54974C77A7
:1046A0009DFAC73F6CF8543574D5C6DCF7FFEFFFB1
:1046B00095B97D388D997D17B69DEFFFE7DF9DD8C1
:1046C00054355C76E7DFF7FFB69C53B18D36E7DFF4
:1046D000EFFFC6DD74B58D788D588D789599EFFF15
:1046E000F7FFF7FFCEFC84B54B736C36D6FDD71DB4
:1046F00074964B726C14C6DEDF5F84D64332851924
:10470000F7FFF7FF84F55B90ADB8F7FFF7FFA5BAA9
:104710007C9484D5953884B6B63AEFDF74564B1145
:1047200063B3CEFFBE7D532F8493CEFD8CF75352DF
:104730005330B63BEFBF9D3542CEA5B9FFFFFFFF1B
:10474000FFFF73F38CB6F7FFFFFFFFFFEFBF8C7522
:1047500052D15B33F7FFF7DFADB952EF94B565394E
:10476000861DD7FF7DFC1B334C56EFFFE7FF2BB5B3
:104770001354BF7FDFFF6D9D1AF28579E7FFE7FFD6
:1047800074D62AAED7FFDFFF8D992AB0BEFFEFFFA8
:10479000DFFF339312B16CD8E7FFD7FF4371E7DF38
:1047A000EFFFB6BE2A8E7CF6E7FFE7FF6C7453710D
:1047B000EFFFF7FFFFFFEFFFBE9D09AD6437EFFF8F
:1047C000F7FFAE5F016C7CF8EFFFF7FFCF1F018CA6
:1047D00009EEB63CF7FFCF7F6C54DF7FF7FF955BA8
:1047E00021CDA5FAEFFFE7FF42CE7C74F7FFD77F1C
:1047F00000E93AB0E7DFE7FF198AE79FF7FFC6DF76
:10480000116B3AAFEFFFF7FFF7FF21EBEFFFFFFF71
:10481000FFDFF7FF0066428FF7FFFFFFFFFFFFFF9D
:10482000D6DF298E00298456F7FFF7FF426DDF3F60
:104830008D77DFFFBFDF33B422EFE7FFF7FFEFFF36
:104840002BB52395DFFFDFFF7E1E1AF38DDBDFFF25
:10485000969F22F16CF7E7FFF7FFE7FF1AD233B517
:10486000EFFFE7FF7D9A23531AD28E1FDFFF5BF223
:10487000F7FFEFFF64B909EDEFFFF7FFF7FFF7FF71
:104880007433F7FFF7FFF7FEFFFFCF1F09AE6CB9D8
:10489000F7FFF7FFBEFF118C8D18F7FFFFFFDF3F1B
:1048A00043722B1211EDDFFFCF7F9578E79FF7FF63
:1048B000094C4B34F7FFFFFFF7FFC6DB8CB4F7FF63
:1048C000EFFF84F6010A9DFEA61E84D7FFFFF7FFC7
:1048D000CF3F11AC5372F7FFFFFFFFFF3A8EEFFFA0
:1048E000F7FFFFFF8CD7320E112BA59CFFFFFFFFB8
:1048F000FFFFCEDD9519214C10ACBDFFEFDF5B70E3
:10490000DF3FEFFFE7FF655A1B119E5CE7FFFFFFEC
:10491000EFFF33F61B548D99A63B4C991B138DDB8F
:10492000DFFF5CFA0AB1961CEFFFF7FFEFFF1B34C5
:104930001B54CF3FEFFF74F6CFFF0A712335BFBF83
:1049400053F3F7FFD75F33541A70F7FFFFFFF7FFFA
:10495000F7FFEFFFE7DFF7FFF7FFF7FFCF1F09CE06
:104960006479F7FFEFDFC6DF116C9538F7FFFFFFC3
:10497000D6FD74B785DD01CE22B1DFFF8D17E79F2D
:10498000CF1F094D5BD7F7FFEFBFEFFFEFFFEFFF43
:10499000EFFFF7FFE7DF11AD3AF3220DEFFFF7DF8F
:1049A000FFFFCF1F19AD4AF1F7FFFFFFFFFF3A6D81
:1049B000EFFFF7FFF7FF42AFEFFF006A6395F7FFE6
:1049C000FFFFF7FFC67AA599DF1F002A296FF7FFBF
:1049D0005B51E73FE7FFA69D1B1233F5DFFFE7FFC3
:1049E000EFDFE7FF2BD61B74C73FE7FF6D9D12F388
:1049F0008DDBD7FF5D1B12D195FBEFFFFFFFEFFFB4
:104A00001B541B54CF7FEFDF6C74DFFFA67F123087
:104A1000653B4C35EFFFCF1E33131A50EFFFC6BC7A
:104A20004351331133316496E7FFD75FF7FFCF1F50
:104A300009AE6499F7FFF7FFC6DF116B8CF8F7FF3B
:104A4000F7FFD71D6C34DFFF4C1709EE64779DBA72
:104A5000EFDFC6BD012C5BD7F7FF84953AD02A8FD4
:104A60003AAFADDBFFFFFFFF9D5C0089A5BAF7FF02
:104A7000FFFFF7DFCEFF19AC5352F7FFFFFFFFFF39
:104A80003A6DEFFFF7FF8CD684B6BE7F21F1112D72
:104A9000C67DF7FFFFFFBE5A9517F7FF8C990849AF
:104AA0006B766353E73FDFFF43F42353A77FD7FFC2
:104AB0008D98CEFDE7FF2BD61B74D7DFE7FF7DFE79
:104AC0001B1385DBDFFF965E22F16CF7E7FFF7FF34
:104AD000E7FF12D133B4EFFFEFDF7CD5E7FFE7FF4D
:104AE0006C770A9112B0EFFFEFFF5C1611EEEFFF4B
:104AF000E7FFB71F23122B32DFFFA65D2A4CAE3C27
:104B0000CF5F09AD6C77F7FFF7FFBEDF118C8CF834
:104B1000F7FFF7FFCEFD6C34E7FFDFFF1A2F11AD73
:104B20006C56E7BFF7FF012A4B74EFDFEFFFA63F9C
:104B300000CB84D9EFDFF7DFFFFFB5DF088AC69D22
:104B4000F7FFFFFFFFFFCEFF116B5353F7FFF7DFB8
:104B5000FFFF3A2CF7FFEFFF63D2745484D86BF851
:104B6000008A8CB8F7FFFFFFCE9C94F6EFDFF7DFEB
:104B700052B1088B298EEF9F7E3F12F275DDCFFF79
:104B800096FF3393CF7FDFFF2BD61353D7FFDFFF83
:104B90007DDD12D28DFCE7FFE7FF5C1322AFD7FF6C
:104BA000DFFF8D991A2DCF7FEFFFEFFF74D6DFFF68
:104BB000F7FFE7BF339401EEEFFFF7FFBEBF19CC5D
:104BC0007CD7DFFFAF1F124E3B31E7FF9DDB220D8D
:104BD000C77FBF1F096B84F8FFFFF7FFC75F014B5B
:104BE000853AEFFFF7FFDF5F6414E7FFEFFFBEBE1C
:104BF000094C5394EFDFF7FF84F70129B65DEFFF0F
:104C00009DBE00AA8497F7FFF7FFF7FFB63F006944
:104C1000C6BFF7FFFFFFFFFFF7FF196A21CDEFFFC8
:104C2000F7FFBE3B7C14F7FFAE1D7476EFFFF7FF76
:104C3000EFDF3A510089F7FFF7FFCE9D9D59F7FF4F
:104C4000FFFFDF1F214D10CBEF9F3C9A3C7854B8FB
:104C5000549734174477D7DF8DBA34173457751803
:104C6000AEBE4C573BF64BD4A63BF7FFEFFF963D4D
:104C70004C565C976CB7D77FF7FFEFBF84D43B717E
:104C80006C96F7FFF7FFB73F1AD1EFFFF7FFF7FF7B
:104C9000D79F64354BD44C158DFC7495E7FFDFFF2F
:104CA0008D7A5C56226F8519EFFFFFFFCE9C435231
:104CB0003B534332A5FCE7BF4B0E3B1095BAEFFFC9
:104CC000F7FF959D5BD6F7FFF7FFEFFFB69E4B31E1
:104CD0005B935334A59D9518F7FFF7FF8CF742D2ED
:104CE0003A9242B0ADB9FFFFFFFFF7FFEFDF42F2AC
:104CF0002A5063728C95F7FFD6FF21CD42D084B441
:104D0000F7FF7C5642B232313A50F7FF63503A2DEA
:104D100063B2F7FFFFFFADBE4231EF9F0203040510
:104D2000060708090A0B0C0D0E0F101001020000F7
:104D3000000000000000010203040607080900004B
:104D40000000010203040000000000000000000059
:104D50000000000004040404040000040000141413
:104D60000A00000000000000000000000A0A1F0AFC
:104D70000A1F0A0A000000040E1505060C14150E81
:104D80000400000012150D152E2C2A120000000040
:104D9000040A0A3615152916000002020100000057
:104DA00000000000000010080804040404040808BF
:104DB00010000204040808080808040402000000A7
:104DC0000004150E0E150400000000000008083E47
:104DD00008080000000000000000000000000202BF
:104DE000010000000000003F000000000000000083
:104DF0000000000000000002000000201010080861
:104E000004040202010000000E1111111111110E13
:104E100000000000040604040404040E0000000066
:104E20000E1111080402011F000000000E11100CE9
:104E30001010110E00000000080C0C0A091F081CBD
:104E4000000000001F01010F1110110E00000000F2
:104E50000C12010D1311110E000000001E100808A5
:104E600004040404000000000E11110E1111110EB3
:104E7000000000000E1111191610090600000000B4
:104E80000000040000000004000000000000000416
:104E900000000004040000001008040202040810CE
:104EA0000000000000003F003F0000000000000084
:104EB0000204081010080402000000000E1111087E
:104EC00004040004000000001C22292D2D1D221CBA
:104ED0000000000004040C0A0A1E12330000000047
:104EE0000F12120E1212120F000000001E1101010B
:104EF0000101110E000000000F1212121212120F07
:104F0000000000001F120A0E0A02121F000000001B
:104F10001F120A0E0A020207000000001C12010103
:104F20003911120C000000003312121E121212333B
:104F3000000000001F0404040404041F000000001B
:104F40003E080808080808080907000037120A0682
:104F50000A12123700000000070202020202223F7A
:104F6000000000003B1B1B1B151515350000000041
:104F70003B1216161A1A1217000000000E1111111A
:104F80001111110E000000000F12120E0202020792
:104F9000000000000E1111111117190E1800000069
:104FA0000F12120E0A121237000000001E11010625
:104FB0000810110F000000001F1504040404040E63
:104FC00000000000331212121212120C0000000036
:104FD0003312120A0A0C04040000000015151515FE
:104FE0000E0A0A0A000000001B0A0A04040A0A1B2F
:104FF000000000001B0A0A0A0404040E000000005E
:105000001F0908040402121F00001C040404040405
:10501000040404041C00000202040404080808102C
:1050200010000E0808080808080808080E00040AFE
:105030000000000000000000000000000000000070
:1050400000000000003F020400000000000000001B
:10505000000000000000000C121C123C00000003C5
:105060000202020E1212120E000000000000001CCC
:105070001202120C000000181010101C1212123C28
:10508000000000000000000C121E021C00000018AE
:105090002404041E0404041E000000000000003C60
:1050A000120C021C221C00030202020E1212123702
:1050B00000000004040000060404040E00000008C0
:1050C0000800000C08080808080700030202021A7A
:1050D0000A060A1300000007040404040404041F61
:1050E000000000000000000F15151515000000005D
:1050F0000000000F12121237000000000000000C28
:105100001212120C000000000000000F1212120E0A
:10511000020700000000001C1212121C10380000D0
:105120000000001B06020207000000000000001E35
:10513000020C101E000000000004041E0404041CE5
:10514000000000000000001B1212123C00000000D2
:105150000000001B0A0A0404000000000000001503
:10516000150E0A0A000000000000001B0A040A1BBA
:10517000000000000000003312120C0804030000BD
:105180000000001E0804041E000018080808080C8F
:105190000808080818000808080808080808080887
:1051A000080806040404040804040404060016099C
:1051B00000000000000000000000000000000000EF
:1051C00000000000000000000000000000080808C7
:1051D00008080808000008080000004824241200FD
:1051E00000000000000000000000000000484848E7
:1051F0007E2424247E24242400000000103C5252EB
:10520000121C30505052523C101000000022251544
:10521000150D2A585454522200000000000C12129E
:10522000120A76252919916E000000060404020076
:1052300000000000000000000000004020101008E6
:105240000808080808101020400000020408081090
:1052500010101010100808040200000000000808D8
:105260006B1C1C6B08080000000000000000001010
:105270001010FE10101000000000000000000000E0
:10528000000000000000060404020000000000000E
:1052900000007E0000000000000000000000000090
:1052A0000000000000000606000000004020202052
:1052B000101008080804040202000000001824422C
:1052C00042424242424224180000000000101C10DA
:1052D000101010101010107C00000000003C424222
:1052E000424020100804427E00000000003C424280
:1052F000402018204042423C000000000020303096
:1053000028242422FE2020F800000000007E020253
:10531000021E22404042221C00000000001824020D
:10532000023A46424242443800000000007E4220D9
:10533000201010080808080800000000003C424245
:10534000422418244242423C00000000001C224239
:105350004242625C4040241800000000000000004F
:1053600018180000000018180000000000000000DD
:10537000000800000000000808080000004020109D
:105380000804020408102040000000000000000093
:105390007E00007E00000000000000000002040803
:1053A000102040201008040200000000003C42428F
:1053B000462010101000181800000000001C225A8F
:1053C00055555555553A423C000000000008081854
:1053D0001414243C224242E700000000001F222255
:1053E000221E22424242221F00000000007C424254
:1053F000010101010142221C00000000001F2242A5
:10540000424242424242221F00000000003F42123C
:10541000121E12120242423F00000000003F4212E0
:10542000121E12120202020700000000003C22229B
:10543000010101712122221C0000000000E742420C
:1054400042427E42424242E700000000003E08081D
:10545000080808080808083E00000000007C10103A
:105460001010101010101010110F000000772212F1
:105470000A0E0A1212222277000000000007020220
:10548000020202020202427F00000000007736366C
:105490003636362A2A2A2A6B0000000000E34646E8
:1054A0004A4A52525262624700000000001C2241E8
:1054B000414141414141221C00000000003F424265
:1054C00042423E020202020700000000001C22418C
:1054D00041414141414D321C60000000003F4242C9
:1054E000423E1212222242C700000000007C4242CB
:1054F000020418204042423E00000000007F49089C
:10550000080808080808081C0000000000E74242DC
:10551000424242424242423C0000000000E7424216
:10552000222424141418080800000000006B2A2A02
:105530002A2A2A36141414140000000000E742241A
:1055400024181818242442E70000000000772222C3
:10555000141408080808081C00000000007E212020
:10556000101008040442423F0000007808080808B0
:105570000808080808080808780000000204040465
:1055800008080810102020204040001E10101010A5
:1055900010101010101010101E0000182400000031
:1055A00000000000000000000000000000000000FB
:1055B000000000000000000000FF000608000000DE
:1055C00000000000000000000000000000000000DB
:1055D000001C22302C22326C00000000000003026C
:1055E000021A26424242261A000000000000000073
:1055F000003844020202443800000000000060400D
:10560000407C4242424262DC000000000000000098
:10561000003C42427E02423C000000000000304854
:10562000083E08080808083E0000000000000000CE
:10563000007C22221C023C42423C0000000003028B
:10564000023A4642424242E700000000000C0C00D1
:10565000000E08080808083E000000000030300076
:105660000038202020202020221E000000000302FD
:105670000272120A0E1222770000000000080E08C3
:10568000080808080808083E0000000000000000A4
:10569000007F9292929292B70000000000000000FA
:1056A000003B4642424242E700000000000000008A
:1056B000003C42424242423C000000000000000028
:1056C000001B26424242261A02070000000000008A
:1056D000005864424242645840E00000000000006C
:1056E00000774C040404041F0000000000000000C8
:1056F000007C42023C40423E0000000000000008E6
:10570000083E0808080848300000000000000000BB
:1057100000634242424262DC0000000000000000E0
:105720000077222214140808000000000000000086
:1057300000DB91525A2A24240000000000000000DF
:10574000006E2418181824760000000000000000E5
:1057500000E7422424181808080600000000000092
:10576000007E22100808447E000000C02020202077
:105770002020102020202020C00010101010101019
:105780001010101010101010101000030404040466
:1057900004040804040404040300045A2000000064
:1057A00000000000000000000000000000000000F9
:1057B00000000000000000000000000000000000E9
:1057C00000000000000000000000000000000000D9
:1057D00000000000000000000000000000000000C9
:1057E0000000600060006000600060006000600019
:1057F00040002000200020000000000000006000A9
:105800006000600000000000000000000000600672
:10581000600630039801880044000000000000008A
:105820000000000000000000000000000000000078
:105830000000000000000000000000000000000068
:1058400000001002100210021002FE07FE070802FC
:105850000801080108010801FE07FE070401040110
:10586000040104010000000000000000000000002E
:1058700040004000F00158034C03CC034C0058009A
:105880007000E000C001C00140034C035C034C0306
:105890004801F0004000400000000000000000004F
:1058A00000000E010A019100910091005100510089
:1058B0003A00AE03A00250045004480448044804CF
:1058C00084028403000000000000000000000000CB
:1058D000000038006C006C006C006C006C002C0048
:1058E00098071C011A01330133016301E300C30867
:1058F000C6093C07000000000000000000000C008A
:105900001C0010001000080004000000000000004F
:105910000000000000000000000000000000000087
:105920000000000000000000000000000000000473
:1059300000020001800080004000400020002000A4
:1059400020002000200020002000400040008000B7
:1059500080000001000200040000000000000200BE
:10596000040008001000100020002000400040004B
:105970004000400040004000400020002000100097
:1059800010000800040002000000000000000000F9
:105990000000000000004000C0004000460C4E0F18
:1059A000D001F0015E0F460C4000400040000000B6
:1059B00000000000000000000000000000000000E7
:1059C00000000000000000004000400040004000D7
:1059D0004000FE0F4000400040004000400000003A
:1059E00000000000000000000000000000000000B7
:1059F00000000000000000000000000000000000A7
:105A000000000000000000000000000000000C008A
:105A10001C0010001000080004000000000000003E
:105A20000000000000000000000000000000000076
:105A30000000FE0700000000000000000000000061
:105A40000000000000000000000000000000000056
:105A50000000000000000000000000000000000046
:105A600000000000000000000000000000001C001A
:105A70001C001C00000000000000000000000004EA
:105A800000060002000300010001800080004000C9
:105A900040006000200020001000100008000800F6
:105AA0000C000400060002000000000000000000DE
:105AB00000000000F00098010C030C030606060627
:105AC0000606060606060606060606060C030C0370
:105AD0009801F0000000000000000000000000003D
