:020000040800F2
:1000000058070020CD01000839220008A91800086F
:1000100035220008D3020008BD27000800000000B8
:100020000000000000000000000000004124000863
:10003000D7020008000000003D2200084324000809
:10004000E7010008E7010008E7010008E7010008F0
:10005000E7010008E7010008E7010008E7010008E0
:10006000E7010008E7010008E7010008E7010008D0
:10007000E7010008E7010008E7010008E7010008C0
:10008000E7010008E7010008E7010008E7010008B0
:10009000E7010008E7010008E7010008E7010008A0
:1000A000E7010008E7010008E7010008E701000890
:1000B000E7010008E7010008E7010008E701000880
:1000C000E7010008E7010008E7010008E701000870
:1000D000E7010008AD270008E7010008E701000874
:1000E000E7010008E7010008E7010008E701000850
:1000F000E7010008E7010008E7010008E701000840
:10010000E7010008E7010008E7010008E70100082F
:10011000E7010008E7010008E7010008E70100081F
:10012000E7010008E7010008E7010008E70100080F
:1001300000F002F800F03AF80AA090E8000C8244BF
:100140008344AAF10107DA4501D100F02FF8AFF29C
:10015000090EBAE80F0013F0010F18BFFB1A43F0A5
:10016000010318471014010030140100103A24BF95
:1001700078C878C1FAD8520724BF30C830C144BF0C
:1001800004680C607047000000230024002500264E
:10019000103A28BF78C1FBD8520728BF30C148BFEA
:1001A0000B6070471FB51FBD10B510BD00F058F8AB
:1001B0001146FFF7F7FF02F01FFB00F076F803B4DB
:1001C000FFF7F2FF03BC00F07DF80000094880470C
:1001D00009480047FEE7FEE7FEE7FEE7FEE7FEE729
:1001E000FEE7FEE7FEE7FEE704480549054A064B41
:1001F00070470000B12400083101000858010020B8
:100200005807002058030020580300204FF0000238
:1002100000B5134694469646203922BFA0E80C50FC
:10022000A0E80C50B1F12001BFF4F7AF090728BFD7
:10023000A0E80C5048BF0CC05DF804EB890028BF53
:1002400040F8042B08BF704748BF20F8022B11F07C
:10025000804F18BF00F8012B7047704770477047F8
:10026000754600F02BF8AE4605006946534620F06F
:100270000700854618B020B5FFF7B6FFBDE820405F
:100280004FF000064FF000074FF000084FF0000B52
:1002900021F00701AC46ACE8C009ACE8C009ACE805
:1002A000C009ACE8C0098D46704710B50446AFF3ED
:1002B00000802046BDE81040FFF781BF004870472E
:1002C000F400002001491820ABBEFEE72600020022
:1002D000704700BFFEE7704772B600BFFEE70146F9
:1002E000002291F82100022808D00420886300BF72
:1002F000002081F8200000BF0120704708680068D6
:1003000020F00E000B6818600868006820F00100FB
:100310000B68186091F8403001209840CB6B586012
:10032000012081F8210000BF002081F8200000BFDB
:100330001046E2E770B50446002594F82100022833
:1003400003D00420A0630125C1E02068006820F0EC
:100350000E00216808602068006820F00100216814
:1003600008605C492068884252D95A497839206827
:10037000884201D1012047E056496439206888420B
:1003800001D1102040E0534950392068884201D102
:10039000801539E04F493C392068884201D18014EA
:1003A00032E04C4928392068884202D14FF480302D
:1003B0002AE0484914392068884202D14FF480105D
:1003C00022E044492068884201D140041CE04249AF
:1003D0002068884201D1012016E03F49143120688D
:1003E000884201D110200FE03B4928312068884223
:1003F00001D1801508E038493C312068884201D19C
:10040000801401E04FF480303349091F086051E047
:10041000304978392068884201D1012047E02D49D0
:1004200064392068884201D1102040E029495039C0
:100430002068884201D1801539E026493C3920687E
:10044000884201D1801432E022492839206888424C
:1004500002D14FF480302AE01E49143920688842C6
:1004600002D14FF4801022E01A492068884201D15D
:1004700040041CE018492068884201D1012016E0A0
:10048000154914312068884201D110200FE012492B
:1004900028312068884201D1801508E00E493C319E
:1004A0002068884201D1801401E04FF4803009496E
:1004B00080394860012084F8210000BF002084F8C2
:1004C000200000BF606B10B12046616B8847284652
:1004D00070BD00008000024008040240014609B9D6
:1004E000012070470868006820F001000A68106069
:1004F00000200A6810600A6850600A6890600A6804
:10050000D060174A086890420BD2164A0868801AD1
:100510001422B0FBF2F08000086412480838C86367
:100520000AE00F4A0868801A1422B0FBF2F080003B
:1005300008640B480838C86391F8402001209040B7
:10054000CA6B506000208862C86208634863886391
:1005500081F8210000BF81F8200000BF00BFC0E784
:1005600008040240080002400146002209B90120A7
:1005700070471E4B086898420BD21D4B0868C01A82
:100580001423B0FBF3F08000086419480838C863EE
:100590000AE0164B0868C01A1423B0FBF3F0800081
:1005A000086412480838C863022081F821000868EE
:1005B000026843F6F0708243D1E901031843CB6827
:1005C00018430B6918434B6918438B691843CB696F
:1005D000184302430868026000208863012081F804
:1005E0002100002081F8200000BFC1E7080402407C
:1005F0000800024070B5044600F0B6F906462546EC
:10060000681C10B104480078054400BF00F0ACF944
:10061000801BA842FAD370BD080000202DE9F847DE
:10062000024600239C467BE14FF0010808FA03F4E0
:10063000D1F8008008EA0400A0427DD1DFF8F4A2DE
:10064000D1F80480A8EB0A09D0453AD014DCB8F1FF
:10065000030F50D009DCB8F1000F31D0B8F1010F11
:100660001CD0B8F1020F49D120E0B8F1110F18D019
:10067000B8F1120F42D11EE0B9F5881F25D006DC73
:10068000B9F5803F20D0B9F5801F37D11AE0B9F510
:10069000001F18D0B9F5041F30D117E0D1F80CC0F5
:1006A0002DE0D1F80C8008F1040C28E0D1F80C8082
:1006B00008F1080C23E0D1F80C8008F10C0C1EE0C6
:1006C00000BF00BF00BF00BF00BF00BFD1F808805F
:1006D000B8F1000F02D14FF0040C0BE0D1F8088004
:1006E000B8F1010F03D14FF0080C146102E04FF094
:1006F000080C546103E04FF0000C00E000BF00BFA5
:10070000FF2801D8904601E002F104084646FF2880
:1007100002D84FEA830803E0A3F108084FEA8808EB
:100720004746D6F800804FF00F0909FA07F928EA82
:1007300009080CFA07F900E07AE048EA0908C6F867
:100740000080D1F8048008F08058B8F1805F6FD144
:1007500000BFDFF8E481D8F8188048F00108DFF81E
:10076000D891C9F81880C846D8F8188008F0010850
:10077000CDF8008000BF00BF4FEAB9384FEA9309B7
:1007800058F829504FEA83784FEA18794FF00F084C
:1007900008FA09F825EA0805DFF8A081424502D1E8
:1007A0004FF0000824E0DFF89881424502D14FF075
:1007B00001081DE0DFF88C81424502D14FF00208AC
:1007C00016E0DFF88481424502D14FF003080FE0C4
:1007D000DFF87881424502D14FF0040808E0DFF8E5
:1007E0007081424502D14FF0050801E04FF0060844
:1007F0004FEA83794FEA197908FA09F848EA0505BA
:10080000DFF850814FEA930948F82950D1F8048065
:1008100008F48018B8F5801F0BD1DFF83C81D8F8B8
:10082000008048EA0008DFF83091C9F800800AE04B
:1008300075E0DFF82481D8F8008028EA0008DFF8A6
:100840001891C9F80080D1F8048008F40018B8F5B0
:10085000001F0ED1DFF8008108F10408D8F80080ED
:1008600048EA0008DFF8F09009F10409C9F80080AF
:100870000DE0DFF8E48008F10408D8F8008028EAE9
:100880000008DFF8D49009F10409C9F80080D1F814
:10089000048008F40038B8F5003F0ED1DFF8B880C6
:1008A000A8F10408D8F8008048EA0008DFF8A8900A
:1008B000A9F10409C9F800800DE0DFF89C80A8F1D7
:1008C0000408D8F8008028EA0008DFF88C90A9F125
:1008D0000409C9F80080D1F8048008F48038B8F51C
:1008E000803F0ED1DFF87080A8F10808D8F80080AA
:1008F00048EA0008DFF86090A9F10809C9F800800B
:100900000DE0DFF85480A8F10808D8F8008028EA44
:100910000008DFF84490A9F10809C9F800805B1CC1
:10092000D1F8008028FA03F8B8F1000F7FF47CAE0C
:10093000BDE8F887000011100010024000080140D7
:10094000000C01400010014000140140001801405B
:10095000001C014008000140080401400AB1016187
:1009600001E00B0403617047014800687047000014
:100970000000002003480068034909780844014941
:1009800008607047000000200800002010B50848EB
:10099000006840F0100006490860032000F0A0F84D
:1009A000002000F007F800F02BF8002010BD000038
:1009B0000020024070B504460E4800784FF47A716A
:1009C000B1FBF0F00C490968B1FBF0F5284600F0E6
:1009D00053FD08B1012070BD102C07D20022214622
:1009E000501E00F03FF80548046001E00120F2E7E6
:1009F0000020F0E7080000200C0000200400002088
:100A000008B500BF0E48806940F001000C498861BC
:100A10000846806900F00100009000BF00BF00BFE1
:100A20000846C06940F08050C8610846C06900F0BF
:100A30008050009000BF00BF052000F051F808BDB5
:100A40000010024001460846002809DB00F01F03A1
:100A500001229A4043099B0003F1E023C3F80021DF
:100A600000BF70472DE9F05F80460D46164600270F
:100A700001F0A6FE074639462A46334601F0070034
:100A8000C0F1070ABAF1040F02D94FF0040A01E0DD
:100A9000C0F1070AD14600F1040ABAF1070F02D2E9
:100AA0004FF0000A01E0A0F1030AD4464FF0010A1A
:100AB0000AFA09FAAAF1010A0AEA020A0AFA0CFA7F
:100AC0004FF0010B0BFA0CFBABF1010B0BEA030B24
:100AD0004AEA0B042146404601F07AFEBDE8F09F49
:100AE00000BF00F00702064B19684FF6FF031940DC
:100AF000044B0B4343EA0221014B196000BF7047CE
:100B00000CED00E00000FA0570B504460D460CB986
:100B1000012070BD5A48006800F00700A8420ED2BC
:100B20005748006820F007002843554908600846E8
:100B3000006800F00700A84201D00120E9E7207812
:100B400000F0020002281DD1207800F004000428E3
:100B500005D14C48406840F4E0604A49486020783C
:100B600000F00800082805D14648406840F460506D
:100B7000444948604348406820F0F000A1680843B9
:100B800040494860207800F0010078B3606801288F
:100B900006D13C48006800F4003090B90120B8E765
:100BA0006068022806D13748006800F0007040B93C
:100BB0000120AEE73348006800F0020008B90120C8
:100BC000A7E73048406820F00300616808432D49DA
:100BD0004860FFF7C9FE064609E0FFF7C5FE801B27
:100BE00041F28831884202D9032092E707E0254884
:100BF000406800F00C006168B0EB810FEDD1204837
:100C0000006800F00700A8420ED91D48006820F0D7
:100C1000070028431A4908600846006800F00700EA
:100C2000A84201D0012074E7207800F004000428D5
:100C300007D11448406820F4E060E1680843114996
:100C40004860207800F00800082808D10D48406866
:100C500020F46050216940EAC1000A49486000F070
:100C60003FF808494968C1F30311074A515CC8407D
:100C70000649086006480068FFF79CFE002048E728
:100C80000020024000100240DED700080C000020C7
:100C90000400002001480068704700000C0000209C
:100CA00000B5FFF7F7FF04494968C1F30221034A81
:100CB000515CC84000BD000000100240EED70008A3
:100CC00000B5FFF7E7FF04494968C1F3C221034AB1
:100CD000515CC84000BD000000100240EED7000883
:100CE00070B500210022002400230020134D696804
:100CF00001F00C05F5B1042D02D0082D19D101E049
:100D00000F4819E00F4DC1F38346AB5D01F4803508
:100D100055B10A4D6D68C5F340450B4E725D084DE7
:100D20005D43B5FBF2F402E0084D03FB05F42046F9
:100D300002E000BF024800BF00BF70BD00100240CB
:100D400000127A00CCD70008DCD7000800093D006B
:100D5000F8B504460CB90120F8BD207800F0010078
:100D6000002878D0F848406800F00C0004280CD027
:100D7000F548406800F00C00082811D1F24840689E
:100D800000F48030B0F5803F0AD1EF48006800F4ED
:100D9000003000285FD0606800285CD10120DBE7CC
:100DA00000BF6068B0F5803F06D1E748006840F4B6
:100DB0008030E549086028E0606858B9E24800687A
:100DC00020F48030E04908600846006820F4802064
:100DD00008601AE06068B0F5A02F0BD1DA4800680F
:100DE00040F48020D84908600846006840F480300C
:100DF00008600AE0D448006820F48030D2490860D6
:100E00000846006820F48020086000BF606888B150
:100E1000FFF7AAFD054606E0FFF7A6FD401B642884
:100E200001D9032098E7C848006800F40030002882
:100E3000F2D010E0FFF798FD054606E0FFF794FDBD
:100E4000401B642801D9032086E7BF48006800F4EE
:100E500000300028F2D1207800F00200022857D19B
:100E6000B948406800F00C0050B1B748406800F045
:100E70000C00082818D1B448406800F4803098B9B4
:100E8000B148006800F0020020B12069012801D0BB
:100E9000012061E7AC48006820F0F800616940EA91
:100EA000C100A949086033E02069E8B10120A749E1
:100EB0000860FFF759FD054606E0FFF755FD401BAA
:100EC000022801D9032047E79F48006800F002008C
:100ED0000028F2D09C48006820F0F800616940EAE0
:100EE000C1009949086013E0002098490860FFF7A5
:100EF0003BFD054606E0FFF737FD401B022801D900
:100F0000032029E79048006800F002000028F2D191
:100F1000207800F0080008282DD1A069B8B1012080
:100F20008B490860FFF720FD054606E0FFF71CFD32
:100F3000401B022801D903200EE78348406A00F0D5
:100F400002000028F2D0012001F07AF913E000201D
:100F50007F490860FFF708FD054606E0FFF704FD3E
:100F6000401B022801D90320F6E67748406A00F0CA
:100F700002000028F2D1207800F00400042873D188
:100F800000277148C06900F0805070B900BF6E48FA
:100F9000C06940F080506C49C8610846C06900F0E3
:100FA0008050009000BF00BF01276A48006800F42D
:100FB0008070B0B96748006840F480706549086087
:100FC000FFF7D2FC054606E0FFF7CEFC401B642885
:100FD00001D90320C0E65F48006800F48070002853
:100FE000F2D000BFE068012806D15748006A40F0FF
:100FF00001005549086227E0E06858B95248006A84
:1010000020F00100504908620846006A20F0040000
:10101000086219E0E06805280BD14B48006A40F0EF
:101020000400494908620846006A40F0010008626D
:101030000AE04548006A20F001004349086208467A
:10104000006A20F00400086200BFE068A0B1FFF76A
:101050008BFC054609E0FFF787FC401B41F2883115
:10106000884202D9032077E622E03748006A00F080
:1010700002000028EFD012E0FFF776FC054608E0FA
:10108000FFF772FC401B41F28831884201D90320EE
:1010900062E62D48006A00F002000028F0D1012F1E
:1010A00005D12948C06920F080502749C86100BF98
:1010B000E069C8B32448406800F00C00082860D0FC
:1010C000E069022848D1002020490866FFF74CFC5F
:1010D000054606E0FFF748FC401B022801D9032023
:1010E0003AE61948006800F000700028F2D1206A42
:1010F000B0F5803F07D11448406820F40030A16863
:10110000084311494860D4E9080108430E49496879
:1011100021F4741108430C49486001200B4908660A
:10112000FFF722FC054607E03DE0FFF71DFC401BF2
:10113000022801D903200FE60348006800F0007080
:101140000028F2D02FE000000010024000004242D0
:101150008004424200700040002014490866FFF7F6
:1011600003FC054606E0FFF7FFFB401B022801D900
:101170000320F1E50E48006800F000700028F2D16D
:1011800011E0E069012800D1E6E50948466806F467
:101190008031206A814204D106F47011606A814274
:1011A00001D00120D8E50020D6E500000000424231
:1011B0000010024070B504460025A06C40B1A06C40
:1011C000FFF78DF820B1606D40F0100060650125DB
:1011D000E06C40B1E06CFFF782F820B1606D40F048
:1011E0001000606501252068406820F00300216838
:1011F0004860012084F85100284670BD10B50446AF
:101200000CB9012010BD606A38B96068B0F5827F02
:1012100000D105E00021E16102E00021216161616E
:101220000021A16294F8510028B9002084F85000F0
:10123000204600F042F8022084F85100206800683F
:1012400020F0400021680860A08800F482702189A5
:1012500001F404410843A18901F400610843217CA1
:1012600001F002010843217D01F001010843218BB7
:1012700001F400710843217F01F038010843202167
:10128000095D01F080010843218D01F400510843FC
:10129000216808600421A06901EA104021684860C3
:1012A0002068C06920F400602168C8610020606582
:1012B000012084F851000020A4E770472DE9F84F81
:1012C0000446884616461D464FF0000A00BF94F8B3
:1012D0005000012802D10220BDE8F88F012084F8D7
:1012E000500000BFFFF740FB0746B14694F851009D
:1012F000012802D04FF0020AB7E0B8F1000F00D089
:1013000016B94FF0010AB0E0032084F85100002024
:101310006065C4F83080A686E686A063A087E08773
:1013200060642064A068B0F5004F0BD120680068AD
:1013300020F04000216808602068006840F4804088
:10134000216808602068006800F04000402805D04F
:101350002068006840F0400021680860E068B0F54F
:10136000006F32D1606810B1B9F1010F09D1206B63
:1013700000882168C860206B801C2063E08E401EBE
:10138000E0861EE02068806800F0020002280AD192
:10139000206B00882168C860206B801C2063E08E71
:1013A000401EE0860DE0FFF7DFFAC01BA84201D324
:1013B000681C00B92DB94FF0030A012084F85100D0
:1013C00053E0E08E0028DDD131E0606810B1B9F162
:1013D000010F09D1206B007821680873206B401C35
:1013E0002063E08E401EE0861EE02068806800F0EA
:1013F000020002280AD1206B007821680873206B54
:10140000401C2063E08E401EE0860DE0FFF7ACFA42
:10141000C01BA84201D3681C00B92DB94FF0030AC4
:10142000012084F8510020E0E08E0028DDD13A460A
:101430002946204600F084FF08B120206065A0689E
:1014400050B900BF002000902068C068009020685C
:101450008068009000BF00BF606D10B14FF0010ABE
:1014600002E0012084F8510000BF00BF002084F892
:10147000500000BF50462FE770B504462546681E51
:10148000B0F1807F01D301200FE0681E4FF0E02112
:1014900048610F214FF0FF3001F09AF900204FF022
:1014A000E021886107200861002070BD7047704707
:1014B0002DE9F84F0446206805682068C668206852
:1014C00047694FF00009CA4605F00F09B9F1000F4E
:1014D0000AD105F0200038B106F0200020B12046E6
:1014E00001F037F8BDE8F88FB9F1000F7BD007F0B5
:1014F000010018B906F49070002874D005F00100BE
:1015000030B106F4807018B1606C40F00100606486
:1015100005F0040030B107F0010018B1606C40F034
:101520000200606405F0020030B107F0010018B15C
:10153000606C40F00400606405F0080048B106F0FB
:10154000200010B907F0010018B1606C40F00800ED
:101550006064606C002845D005F0200028B106F0DA
:10156000200010B1204600F0F4FF20684069C0F36D
:10157000801A606C00F0080010B9BAF1000F2CD08E
:10158000204600F0A0FF2068406900F0400000B352
:1015900000BF00BF2168143151E8001F21F0400056
:1015A0002168143141E80002002AF3D100BFE06B4A
:1015B00050B17748E16B4863E06BFEF7BBFE88B142
:1015C000E06B416B88470DE02046FFF770FF09E0B4
:1015D00009E02046FFF76BFF04E02046FFF767FFB6
:1015E000002060647EE7206B012877D105F01000B1
:1015F000002873D006F010000028FAD000BF0020A9
:10160000009020680068009020684068009000BF4B
:1016100000BF2068406900F0400000285FD0E06B08
:10162000006840681FFA80F8B8F1000F55D0A08D0F
:10163000404552DDA4F82E80E06B8069202843D01D
:1016400000BF00BF21680C3151E8001F21F48070F9
:1016500021680C3141E80002002AF3D100BF00BF2D
:1016600000BF2168143151E8001F21F001002168FA
:10167000143141E80002002AF3D100BF00BF00BFCF
:101680002168143151E8001F21F040002168143115
:1016900041E80002002AF3D100BF202084F8420074
:1016A0000020206300BF00BF21680C3151E8001FFB
:1016B00021F0100021680C3141E80002002AF3D12A
:1016C00000BFE06BFEF70BFE02206063A08DE28D91
:1016D000801A81B22046FFF7E9FE03E742E0A08DC1
:1016E000E18D401A1FFA80F8E08DD0B3B8F1000FF9
:1016F00037D000BF00BF21680C3151E8001F21F432
:10170000907021680C3141E80002002AF3D100BF3B
:1017100000BF00BF2168143151E8001F21F0010013
:101720002168143141E80002002AF3D100BF2020D3
:1017300084F842000020206300BF00BF21680C3104
:1017400051E8001F21F0100021680C3141E800022F
:10175000002AF3D100BF0220606341462046FFF714
:10176000A5FEBFE605F0800030B106F0800018B19C
:10177000204600F0EBFFB5E605F0400030B106F082
:10178000400018B1204600F0D4FEABE600BFA9E649
:10179000B324000810B504460CB9012010BDA0699F
:1017A00000B100E000BF94F8410028B9002084F89F
:1017B0004000204600F02AF8242084F841002068E8
:1017C000C06820F400502168C860204600F040FF47
:1017D0002068006920F49040216808612068406911
:1017E00020F02A00216848612068C06840F4005059
:1017F0002168C86000206064202084F8410084F8DB
:1018000042000020606300BFC8E7000010B586B04A
:101810000446002002900390049005901E49206821
:10182000884236D100BF1D48806940F480401B4982
:1018300088610846806900F48040019000BF00BFC5
:1018400000BF0846806940F004008861084680694E
:1018500000F00400019000BF00BF48150290022074
:1018600003900320059002A90D48FEF7D7FE4FF420
:101870008060029000200390049002A90848FEF7BF
:10188000CDFE032211462520FFF7ECF82520FFF7B7
:10189000D9F806B010BD0000003801400010024029
:1018A000000801407047704700BFFEE72DE9F04196
:1018B00004460D4616461F462A2000F0DBFBA11CFD
:1018C00088B200F0AFFBB11C88B200F0ABFB2B205C
:1018D00000F0D0FBE91C88B200F0A4FBF91C88B230
:1018E00000F0A0FB2C2000F0C5FBBDE8F08170B536
:1018F00005460E4614463146284600F029FA204691
:1019000000F090FB70BD00002DE9F84F07468846B7
:1019100014461D46DDF828904FF0010ACDF80090DE
:10192000E01BA5EB08014843461C681E83B2601EFD
:1019300082B241463846FFF7B9FF002210213648EF
:10194000FFF70CF83548006840F400603349086040
:1019500033480068006840F0400031490968086079
:101960003AE04FF6FE70864202D9361A834602E00C
:101970004FF0000AB3462B4800F0FEFB5A462749B9
:101980000C31684600F02EFC24E027480068254909
:101990005031884204D92548006800F4007004E002
:1019A00020483038006800F4007098B11E48006884
:1019B0001C495031884204D948151C49091D08604A
:1019C00004E04FF400701749303948601448FFF7BD
:1019D000F1FB00E0D9E700BFBAF1000FC1D101224D
:1019E00010210D48FEF7BAFF0C480068C0430B49B0
:1019F00008600846006840F4006008600846006817
:101A0000C043086006480068006840F04000044990
:101A100009680860BDE8F88F000801400030014007
:101A20005800002030000240B000002000040240B6
:101A300000B585B000BF3A48806940F020003849C1
:101A400088610846806900F02000009000BF00BF58
:101A500000BF0846806940F0080088610846806938
:101A600000F00800009000BF00BF00BF084680697A
:101A700040F0040088610846806900F0040000908E
:101A800000BF00BF00BF0846806940F008008861C1
:101A90000846806900F00800009000BF00BF00F019
:101AA000E3FB04200190012002900320049001A98F
:101AB0001C48FEF7B3FD012204211A48FEF74EFF31
:101AC00020200190012002900320049001A91648D3
:101AD000FEF7A4FD012220211348FEF73FFF10204E
:101AE0000190012002900320049001A90F48FEF705
:101AF00095FD012210210D48FEF730FF4020019096
:101B0000012002900320049001A90748FEF786FDFA
:101B1000012240210448FEF721FF05B000BD00006E
:101B20000010024000140140000C01400008014078
:101B300010B5FFF77DFF012204218348FEF70EFF59
:101B40001420FEF757FD002204217F48FEF706FF10
:101B50001420FEF74FFD012204217B48FEF7FEFE14
:101B60007820FEF747FD012240217848FEF7F6FE77
:101B7000112000F07FFA7820FEF73CFDB12000F044
:101B800079FA052000F064FA3A2000F061FA3A2070
:101B900000F05EFAB22000F06DFA052000F058FA6D
:101BA0003A2000F055FA3A2000F052FAB32000F043
:101BB00061FA052000F04CFA3A2000F049FA3A2088
:101BC00000F046FA052000F043FA3A2000F040FA0F
:101BD0003A2000F03DFAB42000F04CFA032000F067
:101BE00037FA022000F034FAC02000F043FAA920AE
:101BF00000F02EFA092000F02BFA842000F028FAD9
:101C0000C12000F037FAC42000F022FAC22000F010
:101C100031FA0D2000F01CFA002000F019FAC32060
:101C200000F028FA8D2000F013FA6A2000F010FA74
:101C3000C42000F01FFA8D2000F00AFAEE2000F018
:101C400007FAC52000F016FA052000F001FA362048
:101C500000F010FAC82000F0FBF93A2000F00AFA70
:101C6000052000F0F5F9E02000F004FA072000F06C
:101C7000EFF91E2000F0ECF90F2000F0E9F919202F
:101C800000F0E6F93A2000F0E3F9342000F0E0F942
:101C90002C2000F0DDF92E2000F0DAF92C2000F0E5
:101CA000D7F92A2000F0D4F9312000F0D1F93A20F8
:101CB00000F0CEF9002000F0CBF9022000F0C8F9C6
:101CC000012000F0C5F9102000F0C2F9E12000F079
:101CD000D1F9042000F0BCF91B2000F0B9F90B2069
:101CE00000F0B6F9132000F0B3F9302000F0B0F99D
:101CF0002A2000F0ADF9252000F0AAF92A2000F0F2
:101D0000A7F9292000F0A4F9272000F0A1F930203C
:101D100000F09EF93D2000F09BF9002000F098F9BA
:101D2000012000F095F9042000F092F9102000F055
:101D30008FF9112000F09EF97820FEF75BFC292036
:101D400000F098F910BD000000140140000C0140A3
:101D500070B504460D462B46224629462046FFF71D
:101D6000A5FD70BD2DE9FF5F80468A4617469B465C
:101D70000F9D00200290CDF80080284605EBD07121
:101D8000C1F347042046E21704EB5272D2102146F9
:101D9000E31704EB5373DB10A4EBC3030BB1012374
:101DA00000E000231A446A4392B20192A7F1200096
:101DB000C7B20AEB0500401E83B208EB0400401EC8
:101DC00082B251464046FFF771FD002669E00C2DB6
:101DD00007D107EB4700354901EB8000805D039098
:101DE0001BE0102D05D1324800EB0710805D0390F9
:101DF00013E0182D07D107EB47002E4901EB001027
:101E0000805D039009E0202D05D12B4800EB871061
:101E1000805D039001E0BDE8FF9F4FF000093AE0CC
:101E20001098C8B9012000FA09F00399084018B1C8
:101E3000584600F0F7F802E00E9800F0F3F8029828
:101E4000401CC0B20290029890FBF4F104FB110018
:101E5000E8B90020029021E0012000FA09F003997E
:101E6000084020B15A4651464046FFF740FD08F170
:101E700001001FFA80F80098A8EB0000A04206D1EC
:101E8000DDF800800AF101001FFA80FA06E009F18E
:101E9000010000F0FF09B9F1080FC1DB00BF701CA1
:101EA00086B20198864292DB00BFB4E7F6D70008FD
:101EB0006ADC00085AE200082AF400082DE9F05F05
:101EC0000746884614461D46DDF828904FF0010A63
:101ED00004FB05F0460008EB0500401E83B23819EC
:101EE000401E82B241463846FFF7E0FC0022102136
:101EF0002548FEF733FD3CE04FF6FE70864202D9DE
:101F0000361A834602E04FF0000AB3461F4800F03D
:101F1000FFF85A461E49484600F064F924E01D487F
:101F200000681A495031884204D91B48006800F4FF
:101F3000007004E015483038006800F4007098B173
:101F40001448006811495031884204D94815124993
:101F5000091D086004E04FF400700C4930394860F6
:101F60000E48FFF727F900E0D9E700BF4FF6FE70F3
:101F70008144BAF1000FBFD1012210210248FEF7BF
:101F8000EDFCBDE8F09F0000000801403000024079
:101F90000C300140B0000020000402405800002036
:101FA0002DE9FE4F05460F4614469846DDE90D6AB9
:101FB000DDF8309017E07F2D01DC7F2F01DDBDE8DB
:101FC000FE8FF0B2CDE9010ACDF8009022784346A9
:101FD00039462846FFF7C6FE304606EBD07105EBC2
:101FE00061018DB2641C20787E2802DC20782028D4
:101FF000E1DA00BFE3E7000001B500221021074845
:10200000FEF7ACFCFF23012269460548FFF756F9AD
:10201000012210210148FEF7A1FC08BD0008014083
:102020005800002010B50446012220210748FEF781
:1020300095FC2012FFF7E0FFE0B2FFF7DDFF012281
:1020400020210248FEF78AFC10BD0000000C014070
:1020500010B50446012220210548FEF77FFC2046EA
:10206000FFF7CAFF012220210148FEF777FC10BDCF
:10207000000C014010B50446002220210548FEF75F
:102080006DFC2046FFF7B8FF012220210148FEF732
:1020900065FC10BD000C014008B500BF0D4880690B
:1020A00040F020000B4988610846806900F020005C
:1020B000009000BF00BF00BF0846806940F00400E8
:1020C00088610846806900F00400009000BF00BFEE
:1020D00008BD00000010024010B50B480B49086015
:1020E0004FF4E1304860002108488160C16001611F
:1020F0000C21416100218161C161FFF74BFB08B1F7
:10210000FEF7EAF810BD0000003801401000002082
:1021100038B5044600BF1548406940F00100134936
:1021200048610846406900F00100009000BF00BF10
:1021300000BF0F480F49886408460D49486200BF38
:102140000846046010204860002109484161802150
:10215000C16000218161016181604FF48051C161E2
:10216000FEF7BCF90248FEF7FFF938BD0010024047
:10217000B00000205800002038B5044600BF1648C3
:10218000406940F00100144948610846406900F088
:102190000100009000BF00BF00BF104810498864D4
:1021A00008460E49486200BF084604601020486097
:1021B00081010A4841610021C16081614FF4807151
:1021C0000161002181604FF48051C161FEF786F901
:1021D0000248FEF7C9F938BD00100240B0000020E7
:1021E0005800002010B5114B1B681B6823F0010339
:1021F0000E4C246823600D4B1B6899600B4B1B68C9
:10220000D8600A4B1B685A60094B1B685B6843F037
:102210000203074C24686360044B1B681B6843F08F
:102220000103024C2468236010BD0000B0000020B0
:102230005800002000BFFEE700BFFEE77047000027
:1022400008B508490968C9084FF47A72B1FBF2F180
:102250004143009100BF00BF00994A1E009200292F
:10226000F9D108BD0C00002000B585B000BF304892
:10227000806940F480502E4988610846806900F4E6
:102280008050009000BF00BF00BF0846806940F04A
:10229000040088610846806900F00400009000BFD7
:1022A00000BF20200190022002900320049001A989
:1022B0002048FEF7B3F9012220211E48FEF74EFB0D
:1022C00080200190022002900320049001A9194867
:1022D000FEF7A4F9012280211648FEF73FFB1648BD
:1022E0001649086000211548C161012141610221A0
:1022F000016100218162C1604FF4004181600021D1
:1023000001624FF482700D4948604FF400710B4830
:10231000816100214162FEF771FF08480068006892
:1023200040F0400005490968086005B000BD0000A4
:102330000010024000080140003001405800002019
:10234000F8B504460D4616462B460022802120464D
:10235000009600F009F828B1606D40F0200060653B
:102360000320F8BD0020FCE72DE9F84F04460D4698
:1023700090461E46DDF82890FEF7F6FAA0EB09001D
:10238000371AFEF7F1FA82462C480068C0F3CB30CA
:102390007843009045E0701C002842D0FEF7E4FA34
:1023A000A0EB0A00B84200D2A7BB2068406820F02A
:1023B000E000216848606068B0F5827F0DD1A068B8
:1023C000B0F5004F03D0A068B0F5806F05D120684C
:1023D000006820F0400021680860A06AB0F5005F46
:1023E0000DD100BF2068006820F40050216808600B
:1023F0002068006840F400502168086000BF012098
:1024000084F8510000BF002084F8500000BF032072
:10241000BDE8F88FFFE7009800B900270098401E3C
:102420000090206880682840A84201D1012000E087
:1024300000204045AFD10020EAE700000C0000205A
:10244000704710B5FEF796FA10BD00B58FB0282181
:1024500005A8FDF7DBFE14216846FDF7D7FE012035
:1024600005900004069000200790012009900220AA
:102470000C90C1030D914FF4E0110E9105A8FEF7E9
:1024800067FC08B1FDF728FF0F20009002200190A3
:10249000002002904FF480600390002004900221FD
:1024A0006846FEF731FB08B1FDF716FF0FB000BD1F
:1024B000704770B505466C6A0020E085E0842046D0
:1024C000FEF7F5FF70BD00BF00BF02680C3252E896
:1024D000002F22F4907102680C3242E80013002BA6
:1024E000F3D100BF00BF00BF0268143252E8002FD2
:1024F00022F001010268143242E80013002BF3D1EC
:1025000000BF016B01290ED100BF00BF02680C3271
:1025100052E8002F22F0100102680C3242E800134A
:10252000002BF3D100BF202180F84210002101636D
:10253000704710B504462068C06820F0400021684C
:10254000C860202084F841002046FFF7ACF9002045
:1025500010BDF8B5044694F84200222875D1A06851
:10256000B0F5805F0CD1206950B90025A66A2068BB
:102570004068C0F308003080A06A801CA06215E0AB
:10258000A56A0026A068B0F5805F03D0A06828B9CE
:10259000206918B920684068287004E02068406805
:1025A00000F07F002870A06A401CA062E08D401EF1
:1025B00080B2E085002846D12068C06820F0200065
:1025C0002168C8602068C06820F480702168C860F5
:1025D0002068406920F0010021684861202084F8CB
:1025E000420000206063206B012826D10020206378
:1025F00000BF00BF21680C3151E8001F21F010001E
:1026000021680C3141E80002002AF3D100BF2068A4
:10261000006800F0100010280AD100BF00200090D0
:1026200020680068009020684068009000BF00BFEC
:10263000A18D2046FEF73AFF02E02046FFF732F96F
:102640000020F8BD01E00020FBE70220F9E70000D0
:1026500070B504462168096921F44051E2681143CC
:10266000226811612269A1681143626941EA020589
:102670002168C96841F20C62914329432268D16004
:102680002168496921F44071A269114322685161AE
:102690002D4A2168914202D1FEF712FB01E0FEF7BC
:1026A000FFFA00EBC00101EB001162689200B1FB80
:1026B000F2F100EBC00202EB001263689B00B2FB78
:1026C000F3F26423B2FBF3F202EBC20303EB021258
:1026D000A1EB8201322202EB01116422B1FBF2F183
:1026E00001F0F00100EBC00202EB001263689B00F6
:1026F000B2FBF3F26423B2FBF3F201EB021200EB44
:10270000C00101EB001163689B00B1FBF3F100EB2A
:10271000C00303EB00136668B600B3FBF6F3642650
:10272000B3FBF6F303EBC30606EB0313A1EB830144
:10273000322303EB01116423B1FBF3F101F00F012C
:1027400011442268916070BD00380140014691F843
:102750004100212828D18868B0F5805F0BD1086935
:1027600048B90A6A1088C0F308000B685860086A04
:10277000801C086205E00B6A581C086218780B6818
:102780005860C88C401E80B2C88458B90868C068B8
:1027900020F080000B68D8600868C06840F04000F6
:1027A0000B68D860002070470220FCE710B5024893
:1027B000FEF77EFE10BD00001000002000BFFEE707
:1027C00002480068C0F30220704700000CED00E0F2
:1027D00010B5002804DB0A07130E054A135406E05F
:1027E0000A07140E034A00F00F031B1FD45410BD38
:1027F00000E400E018ED00E00EB5FEF7C7F8FFF7C3
:1028000024FEFFF749FCFFF767FCFFF791F9B7E0FB
:102810004FF6FF7080231A46002100900846FFF70C
:1028200073F8584838236922002100900B20FFF7E5
:1028300045FB00200C214FF6FF724FF47843CDE9A1
:102840000021029050A246210A20FFF7A9FB002098
:102850000C214FF6FF724FF47843CDE9002102902E
:102860004EA25A210720FFF79BFB00200C214FF6B8
:10287000FF724FF47843CDE9002102904CA26E2103
:102880001020FFF78DFB4FF47A70FDF7B3FE4FF683
:10289000FF7080231A46002100900846FFF734F8A5
:1028A0004FF4784080232022002100900846FFF753
:1028B0002BF84FF4FC608023402200210090202060
:1028C000FFF722F81F208023602200210090402083
:1028D000FFF71AF84FF6E07080231A4600210090A7
:1028E0006020FFF711F84FF47A70FDF783FE4FF484
:1028F000784040231A46002100900846FFF704F86C
:102900004FF4FC6040238022002100901846FEF71F
:10291000FBFF1F2080234022114600900020FEF77D
:10292000F3FF4FF6FF7080231A46402100900846BF
:10293000FEF7EAFF4FF47A70FDF75CFE4FF6FF708A
:1029400080231A46002100900846FEF7DDFF1D484F
:1029500080231A46002100900846FFF7AFFA0120B5
:102960000C214FF6FF720023CDE90021029016A240
:102970006E210D20FFF714FB4FF47A70FDF73AFE3D
:1029800046E70000DC290008312E34342054465438
:102990005F4C434420544553540000005245534F6C
:1029A0004C5554494F4E3A31323878313238000064
:1029B0004452495645522049433A535437373335E8
:1029C00000000000CC570008636F6C6F72206465D4
:1029D000707468203136626974000000FFFFFFFFE9
:1029E000FFFFFFFFFFFFFFFFFFFFFFFFFFFFFFFFF7
:1029F000FFFFFFFFFFFFFFFFFFFFFFFFFFFFFFFFE7
:102A0000FFFFFFFFFFFFFFFFFFFFFFFFFFFFFFFFD6
:102A1000FFFFFFFFFFFFFFFFFFFFEFFF96BF13D793
:102A20000C7A047A047A0459047A047A043B043B4D
:102A3000043A043A045A045A045A045A043A043A26
:102A4000043A043A043A043A043A041904190419F9
:102A500003D83437EFFFFFFFFFFFE7FF12F40BD976
:102A600003F803F803D903B90BB913149E3CF7FF1D
:102A7000FFFFFFFFFFDFFFDFFFFFFFFFFFFFFFFFA6
:102A8000FFFFFFFFFFFFFFFFFFFFFFFFFFFFFFFF56
:102A9000FFFFFFFFFFFFFFFFFFFFFFFFFFFFFFFF46
:102AA000FFFFFFFFFFFFFFFFFFFFFFFFFFFFFFFF36
:102AB000FFFFFFFFFFFFFFFFFFFFFFFFFFFFFFFF26
:102AC000FFFFFFFFFFFFFFFFFFFFFFFFFFFFFFFF16
:102AD000FFFFFFFFFFFFFFFFFFFFFFFFFFFFFFFF06
:102AE000FFFFFFFFFFFFFFFFFFFFFFFFEFFF969FCF
:102AF00013D7047A047A047A045A047A045A043BF9
:102B0000043B043A043904390439043A043A0419F8
:102B10000419041904190419041903F903F904190F
:102B200003F803B72C17EFFFFFFFFFFFE7FF0AD300
:102B300003B903D803D703B803990B980AF4963C5A
:102B4000F7FFFFFFFFFFFFFFFFFFFFFFFFFFFFFF9D
:102B5000FFFFFFFFFFFFFFFFFFFFFFFFFFFFFFFF85
:102B6000FFFFFFFFFFFFFFFFFFFFFFFFFFFFFFFF75
:102B7000FFFFFFFFFFFFFFFFFFFFFFFFFFFFFFFF65
:102B8000FFFFFFFFFFFFFFFFFFFFFFFFFFFFFFFF55
:102B9000FFFFFFFFFFFFFFFFFFFFFFFFFFFFFFFF45
:102BA000FFFFFFFFFFFFFFFFFFFFFFFFFFFFFFFF35
:102BB000FFFFFFFFFFFFFFFFFFFFFFFFFFFFEFFF35
:102BC000969F13D7045A047B045B045A045A045A90
:102BD000045B043B043A0439043904390419043908
:102BE000041904180418041903F903F903F903F983
:102BF00003F903F903B82C17E7FFFFFFFFFFE7FF17
:102C00000AD40BB903B803B803B8039903990AF4BB
:102C1000961CF7FFF7FFFFFFFFFFFFFFFFFFFFFF20
:102C2000FFFFFFFFFFFFFFFFFFFFFFFFFFFFFFFFB4
:102C3000FFFFFFFFFFFFFFFFFFFFFFFFFFFFFFFFA4
:102C4000FFFFFFFFFFFFFFFFFFFFFFFFFFFFFFFF94
:102C5000FFFFFFFFFFFFFFFFFFFFFFFFFFFFFFFF84
:102C6000FFFFFFFFFFFFFFFFFFFFFFFFFFFFFFFF74
:102C7000FFFFFFFFFFFFFFFFFFFFFFFFFFFFFFFF64
:102C8000FFFFFFFFFFFFFFFFFFFFFFFFFFFFFFFF54
:102C9000EFFF969F13B6045A045B045B045B045A6F
:102CA000045A045B045A043A043904390419041917
:102CB00004190419041904190419041903F903F96E
:102CC00003F903F903F903B82C37E7FFFFFFFFFF10
:102CD000EFFF0AD40B9903B803B803B8039903991B
:102CE0000AF4961BF7FFFFFFFFFFFFFFFFFFFFFF49
:102CF000FFFFFFFFFFFFFFFFFFFFFFFFFFFFFFFFE4
:102D0000FFFFFFFFFFFFFFFFFFFFFFFFFFFFFFFFD3
:102D1000FFFFFFFFFFFFFFFFFFFFFFFFFFFFFFFFC3
:102D2000FFFFFFFFFFFFFFFFFFFFFFFFFFFFFFFFB3
:102D3000FFFFFFFFFFFFFFFFFFFFFFFFFFFFFFFFA3
:102D4000FFFFFFFFFFFFFFFFFFFFFFFFFFFFFFFF93
:102D5000FFFFFFFFFFFFFFFFFFFFFFFFFFFFFFFF83
:102D6000FFFFEFFF96BF13B60C39045A043B045A19
:102D7000045A045A045A043A043904390419041947
:102D80000419041A041A041A041A041903F903F999
:102D900003F803F803F803F803B82C17E7FFFFFF65
:102DA000FFFFEFFF0AD30B98039703B703B703B8EE
:102DB00003980AF49E1BF7FFFFFFFFFFFFFFFFFFD3
:102DC000FFFFFFFFFFFFFFFFFFFFFFFFFFFFFFFF13
:102DD000FFFFFFFFFFFFFFFFFFFFFFFFFFFFFFFF03
:102DE000FFFFFFFFFFFFFFFFFFFFFFFFFFFFFFFFF3
:102DF000FFFFFFFFFFFFFFFFFFFFFFFFFFFFFFFFE3
:102E0000FFFFFFFFFFFFFFFFFFFFFFFFFFFFFFFFD2
:102E1000FFFFFFFFFFFFFFFFFFFFFFFFFFFFFFFFC2
:102E2000FFFFFFFFFFFFFFFFFFFFFFFFFFFFFFFFB2
:102E3000FFFFFFFFEFFF96BF1BB51439043A043ABA
:102E4000043A045A045A045A043A04390439043A34
:102E5000041A041A041A041A041A041A041A041A82
:102E600003F903F903F803F803F803B82C17E7FF95
:102E7000FFFFFFFFEFFF0AD30B98039803B703B7D9
:102E800003B803980AF49DFBFFFFFFFFFFFFFFFF5E
:102E9000FFFFFFFFFFFFFFFFFFFFFFFFFFFFFFFF42
:102EA000FFFFFFFFFFFFFFFFFFFFFFFFFFFFFFFF32
:102EB000FFFFFFFFFFFFFFFFFFFFFFFFFFFFFFFF22
:102EC000FFFFFFFFFFFFFFFFFFFFFFFFFFFFFFFF12
:102ED000FFFFFFFFFFFFFFFFFFFFFFFFFFFFFFFF02
:102EE000FFFFFFFFFFFFFFFFFFFFFFFFFFFFFFFFF2
:102EF000FFFFFFFFFFFFFFFFFFFFFFFFFFFFFFFFE2
:102F0000FFFFFFFFFFFFEFFF969F13B60C39043A58
:102F1000043A043A045A043A043A043A04190419E3
:102F2000041A041A03FA03FA03F903F903F903F97B
:102F300003FA03F903F903F803F803D803B72C17CE
:102F4000E7FFFFFFFFFFE7FF0AB30378037803986B
:102F50000398039803780AD49DFBF7FFFFFFFFFF58
:102F6000FFFFFFFFFFFFFFFFFFFFFFFFFFFFFFFF71
:102F7000FFFFFFFFFFFFFFFFFFFFFFFFFFFFFFFF61
:102F8000FFFFFFFFFFFFFFFFFFFFFFFFFFFFFFFF51
:102F9000FFFFFFFFFFFFFFFFFFFFFFFFFFFFFFFF41
:102FA000FFFFFFFFFFFFFFFFFFFFFFFFFFFFFFFF31
:102FB000FFFFFFFFFFFFFFFFFFFFFFFFFFFFFFFF21
:102FC000FFFFFFFFFFFFFFFFFFFFFFFFFFFFFFFF11
:102FD000FFFFFFFFFFFFFFFFEFFF969F13B60C39C8
:102FE000043A043A043A045A0439041903F80BD792
:102FF0000BB60BB60BB70BB70B960B9513950BB621
:1030000003D803F903F903F903F803D803D80397A6
:103010002BF6E7FFFFFFFFFFE7FF0A700B350B35CD
:103020000B350B350B350B150A919DDAF7FFFFFFBA
:10303000FFFFFFFFFFFFFFFFFFFFFFFFFFFFFFFFA0
:10304000FFFFFFFFFFFFFFFFFFFFFFFFFFFFFFFF90
:10305000FFFFFFFFFFFFFFFFFFFFFFFFFFFFFFFF80
:10306000FFFFFFFFFFFFFFFFFFFFFFFFFFFFFFFF70
:10307000FFFFFFFFFFFFFFFFFFFFFFFFFFFFFFFF60
:10308000FFFFFFFFFFFFFFFFFFFFFFFFFFFFFFFF50
:10309000FFFFFFFFFFFFFFFFFFFFFFFFFFFFFFFF40
:1030A000FFFFFFFFFFFFFFFFFFFFEFFF96BF0B9646
:1030B0000C590439043A04390439041813D74D5B08
:1030C000655A653965186518653965196518653972
:1030D0005D5B1BD603D703D803F903F903D803D8E4
:1030E00003972C16EFFFFFFFFFFFEFFF5C1464D880
:1030F00064D864B76CB76CD864B85C35BE9CF7FF15
:10310000FFFFFFFFFFFFFFFFFFFFFFFFFFFFFFFFCF
:10311000FFFFFFFFFFFFFFFFFFFFFFFFFFFFFFFFBF
:10312000FFFFFFFFFFFFFFFFFFFFFFFFFFFFFFFFAF
:10313000FFFFFFFFFFFFFFFFFFFFFFFFFFFFFFFF9F
:10314000FFFFFFFFFFFFFFFFFFFFFFFFFFFFFFFF8F
:10315000FFFFFFFFFFFFFFFFFFFFFFFFFFFFFFFF7F
:10316000FFFFFFFFFFFFFFFFFFFFFFFFFFFFFFFF6F
:10317000FFFFFFFFFFFFFFFFFFFFFFFFEFFF8E5F80
:1031800013B60C390439045A043A04390C180B33B9
:10319000CFFFDFFFE7FFE7FFE7FFE7FFE7FFEFFF17
:1031A000DFFFCFFF34570BB703F903F903B803D898
:1031B00003B803972BF6EFFFFFFFFFFFFFFFEFFFC3
:1031C000EFFFEFFFEFFFF7FFF7FFEFFFEFFFFFFF6F
:1031D000FFFFF7FFF7FFFFFFFFFFFFFFFFDFFFFF2F
:1031E000FFFFFFFFFFFFFFFFFFFFFFFFFFFFFFFFEF
:1031F000FFFFFFFFFFFFFFFFFFFFFFFFFFFFFFFFDF
:10320000FFFFFFFFFFFFFFFFFFFFFFFFFFFFFFFFCE
:10321000FFFFFFFFFFFFFFFFFFFFFFFFFFFFFFFFBE
:10322000FFFFFFFFFFFFFFFFFFFFFFFFFFFFFFFFAE
:10323000FFFFFFFFFFFFFFFFFFFFFFFFFFFFFFFF9E
:10324000FFFFFFFFFFFFFFFFFFFFFFFFFFFFF7FF96
:103250009E9F139604180459043A043A043A0C1831
:103260001353CFFFEFFFF7FFF7FFF7FFFFFFFFFF5E
:10327000F7FFE7FFDFFF33F50B9603D803B803F939
:1032800003B803B803972BF6EFFFFFFFFFFFFFFF25
:10329000FFFFF7FFF7FFF7FFFFFFF7FFEFFFF7FF76
:1032A000FFDFFFDFFFFFFFFFFFFFFFFFFFFFFFFF6E
:1032B000FFFFFFFFFFFFFFFFFFFFFFFFFFFFFFFF1E
:1032C000FFFFFFFFFFFFFFFFFFFFFFFFFFFFFFFF0E
:1032D000FFFFFFFFFFFFFFFFFFFFFFFFFFFFFFFFFE
:1032E000FFFFFFFFFFFFFFFFFFFFFFFFFFFFFFFFEE
:1032F000FFFFFFFFFFFFFFFFFFFFFFFFFFFFFFFFDE
:10330000FFFFFFFFFFFFFFFFFFFFFFFFFFFFFFFFCD
:10331000FFFFFFFFFFFFFFFFFFFFFFFFFFFFFFFFBD
:10332000F7FF967F13750C5904590419041A043ACF
:103330000BF81B33D7FFF7FFFFFFFFFFFFFFFFFF78
:10334000FFFFFFFFF7FFD7FF33F50BB603F903D8F5
:1033500003D803B803B803772BF6EFFFFFFFFFFF97
:10336000F7FFEFFFEFFFEFFFEFFFEFFFEFFFEFFFE5
:10337000EFFFFFFFFFFFFFFFFFFFFFFFFFFFFFFF6D
:10338000FFFFFFFFFFFFFFFFFFFFFFFFFFFFFFFF4D
:10339000FFFFFFFFFFFFFFFFFFFFFFFFFFFFFFFF3D
:1033A000FFFFFFFFFFFFFFFFFFFFFFFFFFFFFFFF2D
:1033B000FFFFFFFFFFFFFFFFFFFFFFFFFFFFFFFF1D
:1033C000FFFFFFFFFFFFFFFFFFFFFFFFFFFFFFFF0D
:1033D000FFFFFFFFFFFFFFFFFFFFFFFFFFFFFFFFFD
:1033E000FFFFFFFFFFFFFFFFFFFFFFFFFFFFFFFFED
:1033F000FFFFEFFF967F13760BF803D8041903F94C
:1034000003B813F71AF2D7FFF7FFFFFFFFFFFFFF25
:10341000FFBFFFFFFFFFF7FFD7FF33F5039603D989
:1034200003D903D803B803B803772BF6EFFFFFFFE8
:10343000FFFFEFFF4BD4549954984C78547854784C
:1034400054994BF5B65BF7FFFFFFFFFFFFFEFFFF51
:10345000FFFFFFFFFFFFFFFFFFFFFFFFFFFFFFFF7C
:10346000FFFFFFFFFFFFFFFFFFFFFFFFFFFFFFFF6C
:10347000FFFFFFFFFFFFFFFFFFFFFFFFFFFFFFFF5C
:10348000FFFFFFFFFFFFFFFFFFFFFFFFFFFFFFFF4C
:10349000FFFFFFFFFFFFFFFFFFFFFFFFFFFFFFFF3C
:1034A000FFFFFFFFFFFFFFFFFFFFFFFFFFFFFFFF2C
:1034B000FFFFFFFFFFFFFFFFFFFFFFFFFFFFFFFF1C
:1034C000FFFFFFFFF7FF9E7E2B942C3734782C37BD
:1034D0002C3734583C163331DFDFF7FFFFFFFFFF97
:1034E000FFFFFFFFFFFFFFFFEFFFD7FF33F50BB736
:1034F00003D803B803D803B803B803772BF6EFFF5C
:10350000FFFFFFFFE7FF0A5013350B150B350B15B7
:103510000AF513150A719DDAF7FFF7FFFFFFFFFFAA
:10352000FFFFFFFFFFFFFFFFFFFFFFFFFFFFFFFFAB
:10353000FFFFFFFFFFFFFFFFFFFFFFFFFFFFFFFF9B
:10354000FFFFFFFFFFFFFFFFFFFFFFFFFFFFFFFF8B
:10355000FFFFFFFFFFFFFFFFFFFFFFFFFFFFFFFF7B
:10356000FFFFFFFFFFFFFFFFFFFFFFFFFFFFFFFF6B
:10357000FFFFFFFFFFFFFFFFFFFFFFFFFFFFFFFF5B
:10358000FFFFFFFFFFFFFFFFFFFFFFFFFFFFFFFF4B
:10359000FFFFFFFFFFFFFFFFF7FFEFFFE7FFE7FF83
:1035A000EFFFEFFFE7FFE7FFF7FFFFFFFFFFFFFF83
:1035B000FFFFFFFFFFFFFFDFFFFFFFFFDFFF33B472
:1035C0000B7503D803B803D803B8039803772BD738
:1035D000EFFFFFFFFFFFEFFF0A920B570B560B5653
:1035E000035603560B570AB29DDAF7FFFFFFFFFFA2
:1035F000FFFFFFFFFFFFFFFFFFFFFFFFFFFFFFFFDB
:10360000FFFFFFFFFFFFFFFFFFFFFFFFFFFFFFFFCA
:10361000FFFFFFFFFFFFFFFFFFFFFFFFFFFFFFFFBA
:10362000FFFFFFFFFFFFFFFFFFFFFFFFFFFFFFFFAA
:10363000FFFFFFFFFFFFFFFFFFFFFFFFFFFFFFFF9A
:10364000FFFFFFFFFFFFFFFFFFFFFFFFFFFFFFFF8A
:10365000FFFFFFFFFFFFFFFFFFFFFFFFFFFFFFFF7A
:10366000FFFFFFFFFFFFFFFFFFFFF7FFF7FFEFFF8A
:10367000EFFFEFFFEFFFEFFFEFFFEFFFEFFFEFFFDA
:10368000F7FFEFFFF7FFEFFFF7FFF7FFEFFFD7FFC2
:1036900034160B7603B803B803B803B803B803773E
:1036A0002BD7EFFFFFFFFFFFEFFF0A9203570377D0
:1036B00003560376037703370AB29DFBF7FFFFFF3C
:1036C000FFFFFFFFFFFFFFFFFFFFFFFFFFFFFFFF0A
:1036D000FFFFFFFFFFFFFFFFFFFFFFFFFFFFFFFFFA
:1036E000FFFFFFFFFFFFFFFFFFFFFFFFFFFFFFFFEA
:1036F000FFFFFFFFFFFFFFFFFFFFFFFFFFFFFFFFDA
:10370000FFFFFFFFFFFFFFFFFFFFFFFFFFFFFFFFC9
:10371000FFFFFFFFFFFFFFFFFFFFFFFFFFFFFFFFB9
:10372000FFFFFFFFFFFFFFFFFFFFFFFFFFFFFFFFA9
:10373000FFFFFFFFFFFFFFFFFFFFF7FFD79F965C35
:1037400096BE96BF969F96BF9EBF969E96BF96BF0B
:1037500096BF969F9E9F9E9F969F969F9EBF969F69
:1037600086BF2417037703B803B803980398039818
:1037700003772BD6EFFFFFFFFFFFE7FF0A92035708
:10378000037703760357035703370AB29DFBF7FF0E
:10379000FFFFFFFFFFFFFFFFFFFFFFFFFFFFFFFF39
:1037A000FFFFFFFFFFFFFFFFFFFFFFFFFFFFFFFF29
:1037B000FFFFFFFFFFFFFFFFFFFFFFFFFFFFFFFF19
:1037C000FFFFFFFFFFFFFFFFFFFFFFFFFFFFFFFF09
:1037D000FFFFFFFFFFFFFFFFFFFFFFFFFFFFFFFFF9
:1037E000FFFFFFFFFFFFFFFFFFFFFFFFFFFFFFFFE9
:1037F000FFFFFFFFFFFFFFFFFFFFFFFFFFFFFFFFD9
:10380000FFFFFFFFFFFFFFFFFFFFFFFFF7FF9E7DB3
:1038100023731BB51BF61BD61BD623D61BB51BD596
:103820001BB51BB61BB61BB61B961BB613B61B955A
:1038300013B513D70BB703D903B903B803B803986B
:10384000039803772BD6EFFFFFFFFFFFE7FF0A92F6
:103850000357037703760357035703370AB295FBE1
:10386000F7FFFFFFFFFFFFFFFFFFFFFFFFFFFFFF70
:10387000FFFFFFFFFFFFFFFFFFFFFFFFFFFFFFFF58
:10388000FFFFFFFFFFFFFFFFFFFFFFFFFFFFFFFF48
:10389000FFFFFFFFFFFFFFFFFFFFFFFFFFFFFFFF38
:1038A000FFFFFFFFFFFFFFFFFFFFFFFFFFFFFFFF28
:1038B000FFFFFFFFFFFFFFFFFFFFFFFFFFFFFFFF18
:1038C000FFFFFFFFFFFFFFFFFFFFFFFFFFFFFFFF08
:1038D000FFFFFFFFFFFFFFFFFFFFFFFFFFFFF7FF00
:1038E0009E7E135313F70C180BF90BD80BD80BF75C
:1038F0000BD70BD70BD80BD80BB70BB70BB70BB736
:1039000003960BD7037603B703B803B803B803775E
:103910000398037703572BD6EFFFFFFFFFFFE7FF67
:103920000A920357037703560357033603360AB246
:1039300095FBF7FFFFFFFFFFFFFFFFFFFFFFFFFF0D
:10394000FFFFFFFFFFFFFFFFFFFFFFFFFFFFFFFF87
:10395000FFFFFFFFFFFFFFFFFFFFFFFFFFFFFFFF77
:10396000FFFFFFFFFFFFFFFFFFFFFFFFFFFFFFFF67
:10397000FFFFFFFFFFFFFFFFFFFFFFFFFFFFFFFF57
:10398000FFFFFFFFFFFFFFFFFFFFFFFFFFFFFFFF47
:10399000FFFFFFFFFFFFFFFFFFFFFFFFFFFFFFFF37
:1039A000FFFFFFFFFFFFFFFFFFFFFFFFFFFFFFFF27
:1039B000F7FF967E13750C1803F903FA03FA03F95F
:1039C00003F803F803F803F903D903D803D803B8BD
:1039D00003B703B703B803B8039703980398039793
:1039E00003B70397037703572BD6EFFFFFFFFFFFC4
:1039F000EFFF0A7103570357035603570336033685
:103A00000A9295FBF7FFFFFFFFFFFFFFFFFFFFFF9E
:103A1000FFFFFFFFFFFFFFFFFFFFFFFFFFFFFFFFB6
:103A2000FFFFFFFFFFFFFFFFFFFFFFFFFFFFFFFFA6
:103A3000FFFFFFFFFFFFFFFFFFFFFFFFFFFFFFFF96
:103A4000FFFFFFFFFFFFFFFFFFFFFFFFFFFFFFFF86
:103A5000FFFFFFFFFFFFFFFFFFFFFFFFFFFFFFFF76
:103A6000FFFFFFFFFFFFFFFFFFFFFFFFFFFFFFFF66
:103A7000FFFFFFFFFFFFFFFFFFFFFFFFFFFFFFFF56
:103A8000FFFFF7FF9EBF13750BF8041A03FA03FA42
:103A9000041903D803F803F903F903D903D803D8A9
:103AA00003D703B703B8039703B8039703D8039763
:103AB000037603970397039703572BD6EFFFFFFF78
:103AC000FFFFEFFF0A71033703570356033703362F
:103AD00003360A9295FBF7FFFFFFFFFFFFFFFFFF93
:103AE000FFFFFFFFFFFFFFFFFFFFFFFFFFFFFFFFE6
:103AF000FFFFFFFFFFFFFFFFFFFFFFFFFFFFFFFFD6
:103B0000FFFFFFFFFFFFFFFFFFFFFFFFFFFFFFFFC5
:103B1000FFFFFFFFFFFFFFFFFFFFFFFFFFFFFFFFB5
:103B2000FFFFFFFFFFFFFFFFFFFFFFFFFFFFFFFFA5
:103B3000FFFFFFFFFFFFFFFFFFFFFFFFFFFFFFFF95
:103B4000FFFFFFFFFFFFFFFFFFFFFFFFFFFFFFFF85
:103B5000FFFFFFFFF7FF8E5E137503F8041903FAEA
:103B600003D903F903F803F903F903F903D903D9D6
:103B700003D803B703B703B803D903B80397039770
:103B800003B7039703770397037703562BD6EFFF0B
:103B9000FFFFFFFFEFFF0A71033703570356033799
:103BA0000336033602929DFBF7FFFFFFFFFFFFFF87
:103BB000FFFFFFFFFFFFFFFFFFFFFFFFFFFFFFFF15
:103BC000FFFFFFFFFFFFFFFFFFFFFFFFFFFFFFFF05
:103BD000FFFFFFFFFFFFFFFFFFFFFFFFFFFFFFFFF5
:103BE000FFFFFFFFFFFFFFFFFFFFFFFFFFFFFFFFE5
:103BF000FFFFFFFFFFFFFFFFFFFFFFFFFFFFFFFFD5
:103C0000FFFFFFFFFFFFFFFFFFFFFFFFFFFFFFFFC4
:103C1000FFFFFFFFFFFFFFFFFFFFFFFFFFFFFFFFB4
:103C2000FFFFFFFFFFFFF7FF967E13950BF803B82A
:103C300003F903D903F803F803D803D903D903D947
:103C400003D903D803B803B803B803B9039803B87A
:103C500003980397039703980378037703562BB6CB
:103C6000E7FFFFFFFFFFEFFF0A710337033603563D
:103C700003370336031602929DFBF7FFFFFFFFFF9A
:103C8000FFFFFFFFFFFFFFFFFFFFFFFFFFFFFFFF44
:103C9000FFFFFFFFFFFFFFFFFFFFFFFFFFFFFFFF34
:103CA000FFFFFFFFFFFFFFFFFFFFFFFFFFFFFFFF24
:103CB000FFFFFFFFFFFFFFFFFFFFFFFFFFFFFFFF14
:103CC000FFFFFFFFFFFFFFFFFFFFFFFFFFFFFFFF04
:103CD000FFFFFFFFFFFFFFFFFFFFFFFFFFFFFFFFF4
:103CE000FFFFFFFFFFFFFFFFFFFFFFFFFFFFFFFFE4
:103CF000FFFFFFFFFFFFFFFFF7FF969F0B340BF85F
:103D000003F903D903B8041903F803D803B803B7B8
:103D100003B703B803B703B7039703B8039803982F
:103D200003770397039703760B760B770B560B35C8
:103D300033B4EFFFFFFFFFFFEFFF0A5103370336F6
:103D400003360336033603160A929DFBF7FFFFFF87
:103D5000FFFFFFFFFFFFFFFFFFFFFFFFFFFFFFFF73
:103D6000FFFFFFFFFFFFFFFFFFFFFFFFFFFFFFFF63
:103D7000FFFFFFFFFFFFFFFFFFFFFFFFFFFFFFFF53
:103D8000FFFFFFFFFFFFFFFFFFFFFFFFFFFFFFFF43
:103D9000FFFFFFFFFFFFFFFFFFFFFFFFFFFFFFFF33
:103DA000FFFFFFFFFFFFFFFFFFFFFFFFFFFFFFFF23
:103DB000FFFFFFFFFFFFFFFFFFFFFFFFFFFFFFFF13
:103DC000FFFFFFFFFFFFFFFFFFFFF7FF967F0B5592
:103DD0000BD803F803D803D803F803D803B70B961E
:103DE00013751355137513750B550B551335133583
:103DF00013350B350B350B340B340B340B341334B8
:103E00000AF22B52EFFFFFFFFFFFEFFF0A510B37C4
:103E100003360336033603160316029295DBF7FFCB
:103E2000FFFFFFFFFFFFFFFFFFFFFFFFFFFFFFFFA2
:103E3000FFFFFFFFFFFFFFFFFFFFFFFFFFFFFFFF92
:103E4000FFFFFFFFFFFFFFFFFFFFFFFFFFFFFFFF82
:103E5000FFFFFFFFFFFFFFFFFFFFFFFFFFFFFFFF72
:103E6000FFFFFFFFFFFFFFFFFFFFFFFFFFFFFFFF62
:103E7000FFFFFFFFFFFFFFFFFFFFFFFFFFFFFFFF52
:103E8000FFFFFFFFFFFFFFFFFFFFFFFFFFFFFFFF42
:103E9000FFFFFFFFFFFFFFFFFFFFFFFFF7FF967F23
:103EA0000B550BD803F803D903D803F803D80B55E7
:103EB000763F861E85FC85FD861D7DDD861D85FD84
:103EC00085DD85FD85FD85FD7DFD7DFD7DFD7DDC43
:103ED0007DFC7DBB95FBF7FFFFFFFFFFEFFF0A5166
:103EE00003170336033603360316031602729DDBEF
:103EF000F7FFFFFFFFFFFFFFFFFFFFFFFFFFFFFFDA
:103F0000FFFFFFFFFFFFFFFFFFFFFFFFFFFFFFFFC1
:103F1000FFFFFFFFFFFFFFFFFFFFFFFFFFFFFFFFB1
:103F2000FFFFFFFFFFFFFFFFFFFFFFFFFFFFFFFFA1
:103F3000FFFFFFFFFFFFFFFFFFFFFFFFFFFFFFFF91
:103F4000FFFFFFFFFFFFFFFFFFFFFFFFFFFFFFFF81
:103F5000FFFFFFFFFFFFFFFFFFFFFFFFFFFFFFFF71
:103F6000FFFFFFFFFFFFFFFFFFFFFFFFFFFFF7FF69
:103F7000967F13540BD803D903D903D903D80BD791
:103F80000AF3CFFFEFFFF7FFF7FFEFFFEFFFEFFFC2
:103F9000F7FFF7FFF7FFEFFFEFFFEFFFEFFFEFFF99
:103FA000EFFFEFFFEFFFF7FFFFFFFFFFFFFFE7FF71
:103FB0000A510B1703360336031603160316027154
:103FC0009DDBF7FFFFFFFFFFFFFFFFFFFFFFFFFF8F
:103FD000FFFFFFFFFFFFFFFFFFFFFFFFFFFFFFFFF1
:103FE000FFFFFFFFFFFFFFFFFFFFFFFFFFFFFFFFE1
:103FF000FFFFFFFFFFFFFFFFFFFFFFFFFFFFFFFFD1
:10400000FFFFFFFFFFFFFFFFFFFFFFFFFFFFFFFFC0
:10401000FFFFFFFFFFFFFFFFFFFFFFFFFFFFFFFFB0
:10402000FFFFFFFFFFFFFFFFFFFFFFFFFFFFFFFFA0
:10403000FFFFFFFFFFFFFFFFFFFFFFFFFFFFFFFF90
:10404000F7FF967E0B540BD803D903D903D803D8B6
:104050000BB612F2D7FFF7FFFFFFFFFFFFFFFFFFD7
:10406000FFDFFFFFFFFFFFFFFFFFFFFFFFFFFFFF80
:10407000FFFFFFFFFFFFFFFFFFFFFFFFFFFEFFFF51
:10408000E7FF0A510B170336031603160316031630
:1040900002719DDBF7FFFFFFFFFFFFFFFFFFFFFF49
:1040A000FFFFFFFFFFFFFFFFFFFFFFFFFFFFFFFF20
:1040B000FFFFFFFFFFFFFFFFFFFFFFFFFFFFFFFF10
:1040C000FFFFFFFFFFFFFFFFFFFFFFFFFFFFFFFF00
:1040D000FFFFFFFFFFFFFFFFFFFFFFFFFFFFFFFFF0
:1040E000FFFFFFFFFFFFFFFFFFFFFFFFFFFFFFFFE0
:1040F000FFFFFFFFFFFFFFFFFFFFFFFFFFFFFFFFD0
:10410000FFFFFFFFFFFFFFFFFFFFFFFFFFFFFFFFBF
:10411000FFFFF7FF967E0B5503D803D903D903D8C9
:1041200003D80BB612B1D7DFFFFFFFFFFFFFFFDEA3
:10413000FFFFFFFFFFFFFFFFFFFFFFFFFFFFFFFF8F
:10414000FFFFFFFFFFFFFFFFFFFFFFFFFFFFFFFF7F
:10415000FFFFEFFF02310B1603360316031602F6BC
:1041600002F602719DDBF7FFFFFFFFFFFFFFFFFF7E
:10417000FFFFFFFFFFFFFFFFFFFFFFFFFFFFFFFF4F
:10418000FFFFFFFFFFFFFFFFFFFFFFFFFFFFFFFF3F
:10419000FFFFFFFFFFFFFFFFFFFFFFFFFFFFFFFF2F
:1041A000FFFFFFFFFFFFFFFFFFFFFFFFFFFFFFFF1F
:1041B000FFFFFFFFFFFFFFFFFFFFFFFFFFFFFFFF0F
:1041C000FFFFFFFFFFFFFFFFFFFFFFFFFFFFFFFFFF
:1041D000FFFFFFFFFFFFFFFFFFFFFFFFFFFFFFFFEF
:1041E000FFFFFFFFF7FF967E0B5403B803D903D9F7
:1041F00003D803D80BB60AD2DFFFF7FFF7FFF7FFAC
:10420000F7FFFFFFFFFFFFFFF7FFF7FFF7FFF7FFE6
:10421000F7FFFFFFF7FFF7FFF7FFFFFFFFFFFFFFCE
:10422000FFFFF7FFE7FF023102F60316031603163E
:1042300002F602F502719DDBF7FFFFFFFFFFFFFFB4
:10424000FFFFFFFFFFFFFFFFFFFFFFFFFFFFFFFF7E
:10425000FFFFFFFFFFFFFFFFFFFFFFFFFFFFFFFF6E
:10426000FFFFFFFFFFFFFFFFFFFFFFFFFFFFFFFF5E
:10427000FFFFFFFFFFFFFFFFFFFFFFFFFFFFFFFF4E
:10428000FFFFFFFFFFFFFFFFFFFFFFFFFFFFFFFF3E
:10429000FFFFFFFFFFFFFFFFFFFFFFFFFFFFFFFF2E
:1042A000FFFFFFFFFFFFFFFFFFFFFFFFFFFFFFFF1E
:1042B000FFFFFFFFFFFFF7FF967E133403B803D91C
:1042C00003B803B703D703B70B14AF5FCFDFD7BF74
:1042D000CFBFCFBFCF9FCF9FD7BFD7BFCFBFCFBF9E
:1042E000D79FD79FD79FD79FCF9FCF7FD79FD79F4E
:1042F000CF9FCF9FD7BFC7BF027202F60316031628
:10430000031602F602F502719DDBF7FFFFFFFFFFC8
:10431000FFFFFFFFFFFFFFFFFFFFFFFFFFFFFFFFAD
:10432000FFFFFFFFFFFFFFFFFFFFFFFFFFFFFFFF9D
:10433000FFFFFFFFFFFFFFFFFFFFFFFFFFFFFFFF8D
:10434000FFFFFFFFFFFFFFFFFFFFFFFFFFFFFFFF7D
:10435000FFFFFFFFFFFFFFFFFFFFFFFFFFFFFFFF6D
:10436000FFFFFFFFFFFFFFFFFFFFFFFFFFFFFFFF5D
:10437000FFFFFFFFFFFFFFFFFFFFFFFFFFFFFFFF4D
:10438000FFFFFFFFFFFFFFFFF7FF965E13340BB742
:1043900003D803B803B803B703B70B762BF833B6CB
:1043A00033B533D533D533D53BB433B433B433B568
:1043B00033B53394339433943394339533743394C3
:1043C00033733394337433742B7502B40B3702F6A2
:1043D000031602F602F502F502719DDBF7FFFFFFFF
:1043E000FFFFFFFFFFFFFFFFFFFFFFFFFFFFFFFFDD
:1043F000FFFFFFFFFFFFFFFFFFFFFFFFFFFFFFFFCD
:10440000FFFFFFFFFFFFFFFFFFFFFFFFFFFFFFFFBC
:10441000FFFFFFFFFFFFFFFFFFFFFFFFFFFFFFFFAC
:10442000FFFFFFFFFFFFFFFFFFFFFFFFFFFFFFFF9C
:10443000FFFFFFFFFFFFFFFFFFFFFFFFFFFFFFFF8C
:10444000FFFFFFFFFFFFFFFFFFFFFFFFFFFFFFFF7C
:10445000FFFFFFFFFFFFFFFFFFFFF7FF9E7E13142D
:1044600003B703D903B9039803B7039703970377F7
:104470000B570B560B56035503550B550B550B5548
:104480000B350B350B350B3403150B150B140B14B7
:104490000AF40AF40AF402F40AF402F402F502F54A
:1044A00002F602F502F602D502D502509DDAF7FFB8
:1044B000FFFFFFFFFFFFFFFFFFFFFFFFFFFFFFFF0C
:1044C000FFFFFFFFFFFFFFFFFFFFFFFFFFFFFFFFFC
:1044D000FFFFFFFFFFFFFFFFFFFFFFFFFFFFFFFFEC
:1044E000FFFFFFFFFFFFFFFFFFFFFFFFFFFFFFFFDC
:1044F000FFFFFFFFFFFFFFFFFFFFFFFFFFFFFFFFCC
:10450000FFFFFFFFFFFFFFFFFFFFFFFFFFFFFFFFBB
:10451000FFFFFFFFFFFFFFFFFFFFFFFFFFFFFFFFAB
:10452000FFFFFFFFFFFFFFFFFFFFFFFFF7FF963DCE
:10453000131403B703B8039903B903B8039703B877
:104540000398037803780397037703770377037758
:1045500003770357035703570356035603360336AF
:104560000336033603360336031603160316031504
:104570000315031602F602F602D60AD50A509DDA92
:10458000F7FFFFFFFFFFFFFFFFFFFFFFFFFFFFFF43
:10459000FFFFFFFFFFFFFFFFFFFFFFFFFFFFFFFF2B
:1045A000FFFFFFFFFFFFFFFFFFFFFFFFFFFFFFFF1B
:1045B000FFFFFFFFFFFFFFFFFFFFFFFFFFFFFFFF0B
:1045C000FFFFFFFFFFFFFFFFFFFFFFFFFFFFFFFFFB
:1045D000FFFFFFFFFFFFFFFFFFFFFFFFFFFFFFFFEB
:1045E000FFFFFFFFFFFFFFFFFFFFFFFFFFFFFFFFDB
:1045F000FFFFFFFFFFFFFFFFFFFFFFFFFFFFF7FFD3
:104600009E7E1334039703B803B903B8039703B727
:104610000397039803780378037703760377037788
:1046200003770356035603560356035603360336E1
:104630000336033603360316031603150316031554
:1046400002F5031502F602F602F602D602D5023092
:104650009DBAF7FFFFFFFFFFFFFFFFFFFFFFFFFF19
:10466000FFFFFFFFFFFFFFFFFFFFFFFFFFFFFFFF5A
:10467000FFFFFFFFFFFFFFFFFFFFFFFFFFFFFFFF4A
:10468000FFFFFFFFFFFFFFFFFFFFFFFFFFFFFFFF3A
:10469000FFFFFFFFFFFFFFFFFFFFFFFFFFFFFFFF2A
:1046A000FFFFFFFFFFFFFFFFFFFFFFFFFFFFFFFF1A
:1046B000FFFFFFFFFFFFFFFFFFFFFFFFFFFFFFFF0A
:1046C000FFFFFFFFFFFFFFFFFFFFFFFFFFFFFFFFFA
:1046D000F7FF9E7E0AF3037603B803B803780377E7
:1046E0000397039703980378037703770376037799
:1046F000037703570356035703560356033603360F
:10470000033603360336031603160316031602F5A3
:10471000031503150315031602F602F602D602D599
:1047200002509DBAFFFFFFFFFFFFFFFFFFFFFFFFEC
:10473000FFFFFFFFFFFFFFFFFFFFFFFFFFFFFFFF89
:10474000FFFFFFFFFFFFFFFFFFFFFFFFFFFFFFFF79
:10475000FFFFFFFFFFFFFFFFFFFFFFFFFFFFFFFF69
:10476000FFFFFFFFFFFFFFFFFFFFFFFFFFFFFFFF59
:10477000FFFFFFFFFFFFFFFFFFFFFFFFFFFFFFFF49
:10478000FFFFFFFFFFFFFFFFFFFFFFFFFFFFFFFF39
:10479000FFFFFFFFFFFFFFFFFFFFFFFFFFFFFFFF29
:1047A000FFFFF7FF963E0AF30B9703D90398039890
:1047B00003B80397039703980378035703770377A6
:1047C000037703570357035703570356033703561B
:1047D0000336033603360336031603160316031691
:1047E000031602F503150314031502F502F602F58C
:1047F00002D502509DDBF7FFFFFFFFFFFFFFFFFF2A
:10480000FFFFFFFFFFFFFFFFFFFFFFFFFFFFFFFFB8
:10481000FFFFFFFFFFFFFFFFFFFFFFFFFFFFFFFFA8
:10482000FFFFFFFFFFFFFFFFFFFFFFFFFFFFFFFF98
:10483000FFFFFFFFFFFFFFFFFFFFFFFFFFFFFFFF88
:10484000FFFFFFFFFFFFFFFFFFFFFFFFFFFFFFFF78
:10485000FFFFFFFFFFFFFFFFFFFFFFFFFFFFFFFF68
:10486000FFFFFFFFFFFFFFFFFFFFFFFFFFFFFFFF58
:10487000FFFFFFFFF7FF9E5F12F30B7603970377AF
:104880000B770B770376037703770B570B560B5693
:104890000B560B560B560B560336033603360336B0
:1048A000033603360316031603160316031502F523
:1048B00002F502F502F502F402F402F402D502D583
:1048C00002D40AB30A2F9599F7FFFFFFFFFFFFFFFE
:1048D000FFFFFFFFFFFFFFFFFFFFFFFFFFFFFFFFE8
:1048E000FFFFFFFFFFFFFFFFFFFFFFFFFFFFFFFFD8
:1048F000FFFFFFFFFFFFFFFFFFFFFFFFFFFFFFFFC8
:10490000FFFFFFFFFFFFFFFFFFFFFFFFFFFFFFFFB7
:10491000FFFFFFFFFFFFFFFFFFFFFFFFFFFFFFFFA7
:10492000FFFFFFFFFFFFFFFFFFFFFFFFFFFFFFFF97
:10493000FFFFFFFFFFFFFFFFFFFFFFFFFFFFFFFF87
:10494000FFFFFFFFFFFFF7FF95FC12B20B140B15E3
:104950000B350B150B140B140B140B140AF40AF47F
:104960000AF30AF30AF30AD40AD30AD30AD30AD3FE
:104970000AB30AB30AB30AB30AB30A930A930A92B0
:104980000A930A920A720A720A720272027202523E
:1049900002720A520A5109CD9D99F7FFFFFFFFFFEE
:1049A000FFFFFFFFFFFFFFFFFFFFFFFFFFFFFFFF17
:1049B000FFFFFFFFFFFFFFFFFFFFFFFFFFFFFFFF07
:1049C000FFFFFFFFFFFFFFFFFFFFFFFFFFFFFFFFF7
:1049D000FFFFFFFFFFFFFFFFFFFFFFFFFFFFFFFFE7
:1049E000FFFFFFFFFFFFFFFFFFFFFFFFFFFFFFFFD7
:1049F000FFFFFFFFFFFFFFFFFFFFFFFFFFFFFFFFC7
:104A0000FFFFFFFFFFFFFFFFFFFFFFFFFFFFFFFFB6
:104A1000FFFFFFFFFFFFFFFFFFFFC6DE64976D5A3A
:104A2000651A651A6D3A64F96D3A651A6D1A6D1A50
:104A30006D1965196D196D196CF96CF96CF96CFAD1
:104A40006CF96CF96CF964D964D96CD96CD96CD9EE
:104A50006CD96CD96CD96CB96CB96CB96CB96CB9CE
:104A600064B96CB96CB96C986415BE3BFFFFFFDF8D
:104A7000FFDFFFFFFFFFFFFFFFFFFFFFFFFFFFFF66
:104A8000FFFFFFFFFFFFFFFFFFFFFFFFFFFFFFFF36
:104A9000FFFFFFFFFFFFFFFFFFFFFFFFFFFFFFFF26
:104AA000FFFFFFFFFFFFFFFFFFFFFFFFFFFFFFFF16
:104AB000FFFFFFFFFFFFFFFFFFFFFFFFFFFFFFFF06
:104AC000FFFFFFFFFFFFFFFFFFFFFFFFFFFFFFFFF6
:104AD000FFFFFFFFFFFFFFFFFFFFFFFFFFFFFFFFE6
:104AE000FFFFFFFFFFFFFFFFFFFFFFFFFFFFF7FFDE
:104AF000EFFFEFFFEFFFEFFFEFFFEFFFEFFFEFFF46
:104B0000EFFFEFFFF7FFF7FFF7FFF7FFEFFFEFFF15
:104B1000F7FFF7FFEFFFEFFFF7FFF7FFF7FFF7FFF5
:104B2000F7FFEFFFF7FFF7FFF7FFF7FFF7FFFFFFD5
:104B3000F7FFF7FFF7FFF7FFF7FFF7FFFFFFFFFFB5
:104B4000FFFFFFFFFFFFFFFFFFFFFFFFFFFFFFFF75
:104B5000FFFFFFFFFFFFFFFFFFFFFFFFFFFFFFFF65
:104B6000FFFFFFFFFFFFFFFFFFFFFFFFFFFFFFFF55
:104B7000FFFFFFFFFFFFFFFFFFFFFFFFFFFFFFFF45
:104B8000FFFFFFFFFFFFFFFFFFFFFFFFFFFFFFFF35
:104B9000FFFFFFFFFFFFFFFFFFFFFFFFFFFFFFFF25
:104BA000FFFFFFFFFFFFFFFFFFFFFFFFFFFFFFFF15
:104BB000FFFFFFFFFFFFFFFFFFFFFFFFFFFFFFFF05
:104BC000FFFFFFFFFFFFFFFFFFFFFFFFFFFFFFFFF5
:104BD000FFFFFFFFFFFFFFFFFFFFFFFFFFFFFFFFE5
:104BE000FFFFFFFFFFFFFFFFFFFFFFFFFFFFFFFFD5
:104BF000FFFFFFFFFFFFFFFFFFFFFFFFFFFFFFDFE5
:104C0000FFFFFFFFFFFFFFFFFFFFFFFFFFFFFFFFB4
:104C1000FFFFFFFFFFFFFFFFFFFFFFFFFFFFFFFFA4
:104C2000FFFFFFFFFFFFFFFFFFFFFFFFFFFFFFFF94
:104C3000FFFFFFFFFFFFFFFFFFFFFFFFFFFFFFFF84
:104C4000FFFFFFFFFFFFFFFFFFFFFFFFFFFFFFFF74
:104C5000FFFFFFFFFFFFFFFFFFFFFFFFFFFFFFFF64
:104C6000FFFFFFFFFFFFFFFFFFFFFFFFFFFFFFFF54
:104C7000FFFFFFFFFFFFFFFFFFFFFFFFFFFFFFFF44
:104C8000FFFFFFFFFFFFFFFFFFFFFFFFFFFFFFFF34
:104C9000FFFFFFFFFFFFFFFFFFFFFFFFFFFFFFFF24
:104CA000FFFFFFFFFFFFFFFFFFFFFFFFFFFFFFFF14
:104CB000FFFFFFFFFFFFFFFFFFFFFFFFFFFFFFFF04
:104CC000FFFFFFFFFFFFFFFFFFFFFFFFFFFFFFFFF4
:104CD000FFFFFFFFFFFFFFFFFFFFFFFFFFFFFFFFE4
:104CE000FFFFFFFFFFFFFFFFFFFFFFFFFFFFFFFFD4
:104CF000FFFFFFFFFFFFFFFFFFFFFFFFFFFFFFFFC4
:104D0000FFFFFFFFFFFFFFFFFFFFFFFFFFFFFFFFB3
:104D1000FFFFFFFFFFFFFFFFFFFFFFFFFFFFFFFFA3
:104D2000FFFFFFFFFFFFFFFFFFFFFFFFFFFFFFFF93
:104D3000FFFFFFFFFFFFFFFFFFFFFFFFFFFFFFFF83
:104D4000FFFFFFFFFFFFFFFFFFFFFFFFFFFFFFFF73
:104D5000FFFFFFFFFFFFFFFFFFFFFFFFFFFFFFFF63
:104D6000FFFFFFFFFFFFFFFFFFFFFFFFFFFFFFFF53
:104D7000FFFFFFFFFFFFFFFFFFFFFFFFFFFFFFFF43
:104D8000FFFFFFFFFFFFFFFFFFFFFFFFFFFFFFFF33
:104D9000FFFFFFFFFFFFFFFFFFFFFFFFFFFFFFFF23
:104DA000FFFFFFFFFFFFFFFFFFFFFFFFFFFFFFFF13
:104DB000FFFFFFFFFFFFFFFFFFFFFFFFFFFFFFFF03
:104DC000FFFFFFFFFFFFFFFFFFFFFFFFFFFFFFFFF3
:104DD000FFFFFFFFFFFFFFFFFFFFFFFFFFFFFFFFE3
:104DE000FFFFFFFFFFFFFFDFFFFFFFFFFFFFFFFFF3
:104DF000FFFFFFFFFFFFFFFFFFFFFFFFFFFFFFFFC3
:104E0000FFFFFFFFFFFFFFFFFFFFFFFFFFFFFFFFB2
:104E1000FFFFFFFFFFFFFFFFFFFFFFFFFFFFFFFFA2
:104E2000FFFFFFFFFFFFFFFFFFFFFFFFFFFFFFFF92
:104E3000FFFFFFFFFFFFFFFFFFFFFFFFFFFFFFFF82
:104E4000FFFFFFFFFFFFFFFFFFFFFFFFFFFFFFFF72
:104E5000FFFFFFFFFFFFFFFFFFFFFFFFFFFFFFFF62
:104E6000FFDFFFFFFFFFFFFFFFFFFFFFFFFFFFDF92
:104E7000FFFFFFFFFFFFFFFFFFFFFFFFFFFFFFFF42
:104E8000FFFFFFFFFFFFFFFFFFFFFFFFFFFFFFFF32
:104E9000FFFFFFFFFFFFFFFFFFFFFFFFFFFFFFFF22
:104EA000FFFFFFFFFFFFFFFFFFFFFFFFFFFFFFFF12
:104EB000FFFFFFFFFFFFFFFFFFFFFFFFFFFFFFFF02
:104EC000FFFFFFFFFFFFFFFFFFFFFFFFFFFFFFFFF2
:104ED000FFFFFFFFFFFFFFFFFFFFFFFFFFFFFFFFE2
:104EE000FFFFFFFFFFFFFFFFFFFFFFFFFFFFFFFFD2
:104EF000FFFFFFFFFFFFFFFFFFFFFFFFFFFFFFFFC2
:104F0000FFFFFFFFFFFFFFFFFFFFFFFFFFFFFFDFD1
:104F1000FFFFFFFFFFFFFFFFFFFFFFFFFFFFFFFFA1
:104F2000FFFFFFFFFFFFFFFFFFFFFFFFFFFFFFFF91
:104F3000FFFFFFFFFFFFFFFFFFFFFFFFFFFFFFFF81
:104F4000FFFFFFFFFFFFFFFFFFFFFFFFFFFFFFFF71
:104F5000FFFFFFFFFFFFFFFFFFFFFFFFFFFFFFFF61
:104F6000FFFFFFFFFFFFFFFFFFFFFFFFFFFFFFFF51
:104F7000FFFFFFFFFFFFFFFFFFFFFFFFFFFFFFFF41
:104F8000FFFFFFFFFFFFFFFFFFFFFFFFFFFFFFFF31
:104F9000FFFFFFFFFFFFFFFFFFFFFFFFFFFFFFFF21
:104FA000FFFFFFFFFFFFFFFFFFFFFFFFFFFFFFFF11
:104FB000FFFFFFFFFFFFFFFFFFFFFFFFFFFFFFFF01
:104FC000FFFFFFFFFFFFFFFFFFFFFFFFFFFFFFFFF1
:104FD000FFFFFFFFFFFFFFFFFFFFFFFFFFFFFFFFE1
:104FE000FFFFFFFFFFDFFFFFFFFFFFFFFFFFFFFFF1
:104FF000FFFFFFFFFFFFFFFFFFFFFFFFFFFFFFFFC1
:10500000FFFFFFFFFFFFFFDFFFFFFFFFFFFFFFFFD0
:10501000FFDFFFFFFFFFFFFFFFFFFFFFFFFFFFFFC0
:10502000FFFFFFFFFFFFFFFFFFFFFFFFFFFFFFFF90
:10503000FFDFFFFFFFFFFFFFFFFFFFFFFFFFFFFFA0
:10504000FFFFFFDFFFFFFFDFFFFFFFFFFFFFFFFFB0
:10505000FFFFFFFFFFFFFFFFFFFFFFDFFFFFFFFF80
:10506000FFFFFFFFFFFFFFFFFFFFEFFFE7DFDF9F18
:10507000DF9FE7DFE7FFEFDFEFBFE7BFE7BFE7BF98
:10508000E7BFE7BFE7BFE7BFEF9FFFFFFFFFF7FF08
:10509000DF7EDF5EEFDFF7FFFFFFF7DFE79EE7BFB3
:1050A000EFDFF7FFF7FFEFBFE79FE77EF7FFFFFFB9
:1050B000FFFFF7FFDF3DDF3DF7FFF7FFF7FFFFFFE4
:1050C000F7FFEFBFEF9FE79FE7BFEFBFEF9EE77FE1
:1050D000EFBFE79FEF9FF7DFE75EEFBFF7FFFFFF51
:1050E000FFFFE75EE77EEF9EFFFFFFFFFFFFEF9F03
:1050F000D71DDF5EF7FFFFFFF7DFE77FEF9FEF7F53
:10510000EFBFE77FEF9FE77EEF9FEF7FE77FEF9FA8
:10511000E77EF7DFE75DEF9FE75EFFFFFFFFFFFF43
:10512000F7DFF7DFFFFFFFFFFFFFF7BFE73EEF7F90
:10513000F7DFFFFFFFFFE75EEF7FE73E861D547559
:105140008DB98DFB54975CD8DF9FBE9C54974C77EC
:105150009DFAC73F6CF8543574D5C6DCF7FFEFFFF6
:1051600095B97D388D997D17B69DEFFFE7DF9DD806
:1051700054355C76E7DFF7FFB69C53B18D36E7DF39
:10518000EFFFC6DD74B58D788D588D789599EFFF5A
:10519000F7FFF7FFCEFC84B54B736C36D6FDD71DF9
:1051A00074964B726C14C6DEDF5F84D64332851969
:1051B000F7FFF7FF84F55B90ADB8F7FFF7FFA5BAEF
:1051C0007C9484D5953884B6B63AEFDF74564B118B
:1051D00063B3CEFFBE7D532F8493CEFD8CF7535225
:1051E0005330B63BEFBF9D3542CEA5B9FFFFFFFF61
:1051F000FFFF73F38CB6F7FFFFFFFFFFEFBF8C7568
:1052000052D15B33F7FFF7DFADB952EF94B5653993
:10521000861DD7FF7DFC1B334C56EFFFE7FF2BB5F8
:105220001354BF7FDFFF6D9D1AF28579E7FFE7FF1B
:1052300074D62AAED7FFDFFF8D992AB0BEFFEFFFED
:10524000DFFF339312B16CD8E7FFD7FF4371E7DF7D
:10525000EFFFB6BE2A8E7CF6E7FFE7FF6C74537152
:10526000EFFFF7FFFFFFEFFFBE9D09AD6437EFFFD4
:10527000F7FFAE5F016C7CF8EFFFF7FFCF1F018CEB
:1052800009EEB63CF7FFCF7F6C54DF7FF7FF955BED
:1052900021CDA5FAEFFFE7FF42CE7C74F7FFD77F61
:1052A00000E93AB0E7DFE7FF198AE79FF7FFC6DFBB
:1052B000116B3AAFEFFFF7FFF7FF21EBEFFFFFFFB7
:1052C000FFDFF7FF0066428FF7FFFFFFFFFFFFFFE3
:1052D000D6DF298E00298456F7FFF7FF426DDF3FA6
:1052E0008D77DFFFBFDF33B422EFE7FFF7FFEFFF7C
:1052F0002BB52395DFFFDFFF7E1E1AF38DDBDFFF6B
:10530000969F22F16CF7E7FFF7FFE7FF1AD233B55C
:10531000EFFFE7FF7D9A23531AD28E1FDFFF5BF268
:10532000F7FFEFFF64B909EDEFFFF7FFF7FFF7FFB6
:105330007433F7FFF7FFF7FEFFFFCF1F09AE6CB91D
:10534000F7FFF7FFBEFF118C8D18F7FFFFFFDF3F60
:1053500043722B1211EDDFFFCF7F9578E79FF7FFA8
:10536000094C4B34F7FFFFFFF7FFC6DB8CB4F7FFA8
:10537000EFFF84F6010A9DFEA61E84D7FFFFF7FF0C
:10538000CF3F11AC5372F7FFFFFFFFFF3A8EEFFFE5
:10539000F7FFFFFF8CD7320E112BA59CFFFFFFFFFD
:1053A000FFFFCEDD9519214C10ACBDFFEFDF5B7028
:1053B000DF3FEFFFE7FF655A1B119E5CE7FFFFFF32
:1053C000EFFF33F61B548D99A63B4C991B138DDBD5
:1053D000DFFF5CFA0AB1961CEFFFF7FFEFFF1B340B
:1053E0001B54CF3FEFFF74F6CFFF0A712335BFBFC9
:1053F00053F3F7FFD75F33541A70F7FFFFFFF7FF40
:10540000F7FFEFFFE7DFF7FFF7FFF7FFCF1F09CE4B
:105410006479F7FFEFDFC6DF116C9538F7FFFFFF08
:10542000D6FD74B785DD01CE22B1DFFF8D17E79F72
:10543000CF1F094D5BD7F7FFEFBFEFFFEFFFEFFF88
:10544000EFFFF7FFE7DF11AD3AF3220DEFFFF7DFD4
:10545000FFFFCF1F19AD4AF1F7FFFFFFFFFF3A6DC6
:10546000EFFFF7FFF7FF42AFEFFF006A6395F7FF2B
:10547000FFFFF7FFC67AA599DF1F002A296FF7FF04
:105480005B51E73FE7FFA69D1B1233F5DFFFE7FF08
:10549000EFDFE7FF2BD61B74C73FE7FF6D9D12F3CD
:1054A0008DDBD7FF5D1B12D195FBEFFFFFFFEFFFF9
:1054B0001B541B54CF7FEFDF6C74DFFFA67F1230CD
:1054C000653B4C35EFFFCF1E33131A50EFFFC6BCC0
:1054D0004351331133316496E7FFD75FF7FFCF1F96
:1054E00009AE6499F7FFF7FFC6DF116B8CF8F7FF81
:1054F000F7FFD71D6C34DFFF4C1709EE64779DBAB8
:10550000EFDFC6BD012C5BD7F7FF84953AD02A8F19
:105510003AAFADDBFFFFFFFF9D5C0089A5BAF7FF47
:10552000FFFFF7DFCEFF19AC5352F7FFFFFFFFFF7E
:105530003A6DEFFFF7FF8CD684B6BE7F21F1112DB7
:10554000C67DF7FFFFFFBE5A9517F7FF8C990849F4
:105550006B766353E73FDFFF43F42353A77FD7FF07
:105560008D98CEFDE7FF2BD61B74D7DFE7FF7DFEBE
:105570001B1385DBDFFF965E22F16CF7E7FFF7FF79
:10558000E7FF12D133B4EFFFEFDF7CD5E7FFE7FF92
:105590006C770A9112B0EFFFEFFF5C1611EEEFFF90
:1055A000E7FFB71F23122B32DFFFA65D2A4CAE3C6C
:1055B000CF5F09AD6C77F7FFF7FFBEDF118C8CF87A
:1055C000F7FFF7FFCEFD6C34E7FFDFFF1A2F11ADB9
:1055D0006C56E7BFF7FF012A4B74EFDFEFFFA63FE2
:1055E00000CB84D9EFDFF7DFFFFFB5DF088AC69D68
:1055F000F7FFFFFFFFFFCEFF116B5353F7FFF7DFFE
:10560000FFFF3A2CF7FFEFFF63D2745484D86BF896
:10561000008A8CB8F7FFFFFFCE9C94F6EFDFF7DF30
:1056200052B1088B298EEF9F7E3F12F275DDCFFFBE
:1056300096FF3393CF7FDFFF2BD61353D7FFDFFFC8
:105640007DDD12D28DFCE7FFE7FF5C1322AFD7FFB1
:10565000DFFF8D991A2DCF7FEFFFEFFF74D6DFFFAD
:10566000F7FFE7BF339401EEEFFFF7FFBEBF19CCA2
:105670007CD7DFFFAF1F124E3B31E7FF9DDB220DD2
:10568000C77FBF1F096B84F8FFFFF7FFC75F014BA0
:10569000853AEFFFF7FFDF5F6414E7FFEFFFBEBE61
:1056A000094C5394EFDFF7FF84F70129B65DEFFF54
:1056B0009DBE00AA8497F7FFF7FFF7FFB63F00698A
:1056C000C6BFF7FFFFFFFFFFF7FF196A21CDEFFF0E
:1056D000F7FFBE3B7C14F7FFAE1D7476EFFFF7FFBC
:1056E000EFDF3A510089F7FFF7FFCE9D9D59F7FF95
:1056F000FFFFDF1F214D10CBEF9F3C9A3C7854B841
:10570000549734174477D7DF8DBA34173457751848
:10571000AEBE4C573BF64BD4A63BF7FFEFFF963D92
:105720004C565C976CB7D77FF7FFEFBF84D43B71C3
:105730006C96F7FFF7FFB73F1AD1EFFFF7FFF7FFC0
:10574000D79F64354BD44C158DFC7495E7FFDFFF74
:105750008D7A5C56226F8519EFFFFFFFCE9C435276
:105760003B534332A5FCE7BF4B0E3B1095BAEFFF0E
:10577000F7FF959D5BD6F7FFF7FFEFFFB69E4B3126
:105780005B935334A59D9518F7FFF7FF8CF742D232
:105790003A9242B0ADB9FFFFFFFFF7FFEFDF42F2F1
:1057A0002A5063728C95F7FFD6FF21CD42D084B486
:1057B000F7FF7C5642B232313A50F7FF63503A2D30
:1057C00063B2F7FFFFFFADBE4231EF9FF6EDEEA7EC
:1057D000EE86F6C6F6858342A5ECD76EC6ACBECE85
:1057E000BE8E962EA6B3A6B2BF149673765396B508
:1057F00096968E769F189EB6555176BA76597E79D2
:105800007E785E1776BA9F1B4DB85EBC7F5D0968D7
:105810001A902DBD1CF92D7B34B91C9724F92CB995
:1058200024DA24D9247824992D1A2CD9347834D91F
:10583000341623551C5A13F71C38243914382417EE
:10584000245725FC23F6216F4335220F32D421AD96
:10585000320F7D5A75395C7900251041218C2A530D
:105860002A5311B03B36194D3A705C170A122AF5CB
:1058700011B019F033152BB8116C320F4B784B77F0
:105880003AF432113AD44315A317AA53AB35D45B7B
:10589000BB5738A540A7B377A2F5A2D4AB3569CCE6
:1058A00079EF92319A739A93698C8A529A7389D15B
:1058B000AB15D4BB8A3181D08A1171AD49288211D0
:1058C00092B382518A3289F18A938A72EECCEEA722
:1058D000E664EE85FF2593A08487DFAEC6ABBEAD40
:1058E000C6CF95EB9650A6D3AED29EB47E138EB59E
:1058F0008E958E958E96B7586D9355D67699765827
:105900007E99661755D79F3C665A3DFA87BE1AECBA
:10591000096A253C1D3A1D1A2CF91C771CD91CB9A3
:105920001CB91CB91C7914581CB924B92478353A0F
:1059300023530AD2149B13B714181C390BD713F72F
:105940001C16153B24B921F02A9422102232194D3D
:10595000194C7D5B7D5A5C9A00260000214C21D1B8
:105960001A32094F2AB4116E21CE4BB611D122D56D
:1059700011F1094E22732BB9096D29AC43384378D4
:10598000327219AF3AB532F58336AA539A72D41AE5
:10599000AAF52023590ABB579A949AB4A2F5616CD0
:1059A000694C9A528A129A94698E81B0921281D16E
:1059B0009273D4BB9AB3714E81D1696D490881D07D
:1059C000929371EF79D081D17A118A32EEAAEE8664
:1059D000E643E644FF66B4A06B62D78ECECBBEAB87
:1059E000C6F0A62B8E0DAEF4A6B0AEF47DD37E54D9
:1059F0008E958E958675AF588E1545536EB96E5837
:105A000076796E5845758EFB86FC35B877BF349332
:105A100000A61499155B14D9255B1C78149914D928
:105A200014B9149A1CBA14580C7814591C382D3B0C
:105A30001B52020F0C7B0BB70BD714390B970C18AA
:105A40001BF70C78257B2A7119D2225219D0112C00
:105A500008EB7D5B85BB4C5A00470000212C117080
:105A60001232014F1A3311B0116D435419F11A95C6
:105A70001253014E11D12B78012C29AC437932D627
:105A80002A3119D03A962AF66336A23291D0CBB990
:105A90009252304679CFB2F69294AB159AB350EA4F
:105AA000610C9A5381D19A7479D0794F91F281D156
:105AB00089F1CC5AB397690D8190694C40C889F23D
:105AC0009252698E718E81B179F181F1EEC7F684BF
:105AD000EE44DDE3FEE6E6227300BEACCF2CBE8AC8
