S00D000046617446532E7372656363
S315000000000021002051450000994300004D450000A5
S315000000104D4500004D4500004D4500004D45000092
S315000000200000000000000000000000004D45000038
S315000000304D450000000000004D4500004D45000004
S31500000040013A000075390000913A0000D93A0000E3
S3110000005071330000AD3400008940000050
S3150000005CE8030000E6849FE8B0A2E682A8E980895E
S3150000006CE794A8E9878EE781ABE590AFE6988EE733
S3150000007C919EE890A85241E5BC80E58F91E69DBF24
S3150000008C205B4661744673E8AFBBE58699E6B58B93
S3150000009CE8AF95E69687E4BBB62E7478745D0000DF
S315000000AC40003500000100004CB3010015030000B0
S315000000BC000000000000000000020000000004DF49
S315000000CC05DF0AFF0AFF00000000102800000000F0
S315000000DC000000000000800000000000030000008B
S315000000ECE03200209800002000000000E0320020E2
S315000000FC48330020B0330020000000000000000050
S3150000010C00000000000000000000000000000000DD
S3150000011C00000000000000000000000000000000CD
S3150000012C00000000000000000000000000000000BD
S3090000013C00000000B9
S315000001400348044B834202D0034B03B11847704760
S31500000150E4000020E400002000000000064B0749F0
S31500000160C91A891048BF0131491003D0044B0BB19D
S3150000017001481847704700BFE4000020E400002053
S315000001800000000010B5064C237843B9FFF7D8FFEE
S31500000190044B13B10448AFF300800123237010BD54
S315000001A0202100200000000084A2000108B5054BB4
S315000001B01BB105490548AFF30080BDE80840FFF7CD
S315000001C0CDBF00BF000000002421002084A2000152
S315000001D0022801D80120704708B504F0D9FC09228D
S315000001E003461A60002008BD022801D80020704787
S315000001F008B504F0CDFC092203461A604FF0FF3023
S3150000020008BD00BF08B504F0C3FC092203461A6006
S315000002104FF0FF3008BD00BF022808B504D84FF4E0
S31500000220005300204B6008BD04F0B2FC09230360B4
S31500000230002008BD08B50649064803F0C1F900B913
S3150000024008BD0B21044B054A054804F057F800BFCA
S3150000025018B30100DC2F0020EC5500006C5B000099
S315000002600056000003790146022B0CD0042B04D063
S31500000270012B07D1064A1370704701220548083141
S3150000028003F054B970470122034B1A70704700BF40
S315000002903D210020DC2F00203C21002010B506481F
S315000002A0144603F043F905490B78002BFCD00023D4
S315000002B00B70204610BD00BFDC2F00203C21002023
S315000002C010B50648144603F02BF905490B78002BA8
S315000002D0FCD000230B70204610BD00BFDC2F002091
S315000002E03D21002008B50649064802F05DFD00B92B
S315000002F008BD0C21044B054A054803F0FFFF00BF6B
S31500000300540000200C300020EC550000885B0000F3
S31500000310205600000388802B03D101220A4B1A6065
S315000003200388B3F5807F03D10222074B1A60038846
S31500000330202B03D10122054B1A600388402B02D1E2
S315000003400222024B1A6070474025002044250020F7
S31500000350002330B54FF01A0E87B02E4ACDE901338F
S31500000360CDE903332C4C02F5007C504205938318EB
S31500000370A4FB0351C9080EFB1133413302F8013FB8
S315000003806245F4D14FF47A71142003F0BFFF23487D
S3150000039001A902F0DFFD002835D1012320491A46C4
S315000003A01E4802F001FC40BB1E4C2368002BFCD00B
S315000003B0012300251A461C491848256002F0BCFC9A
S315000003C0A8B92368002BFCD000234FF4007214490F
S315000003D01548236004F083FB20B1144804F07AFA30
S315000003E007B030BD124804F075FA07B030BD62217F
S315000003F0104B114A114803F081FF5C210D4B0E4A48
S315000004000E4803F07BFF58210A4B0B4A0B4803F0BA
S3150000041075FF00BF3F2100204FECC44E0C3000207A
S315000004204021002044250020402300206C56000077
S3150000043044560000EC5500007C5B0000205600008E
S31500000440012894BF00200120704700BF68B301282F
S3150000045010B5044627D1FFF745FF2046174C4FF449
S315000004607A7103F053FF2146154802F073FDF0B987
S31500000470144804F02FFA6168134804F0C3F9E168E0
S31500000480124804F0BFF9A168114804F0BBF9D4E999
S315000004900231A3FB01319B0A43EA81510D4804F066
S315000004A0B1F9002010BD012010BD00207047642165
S315000004B0094B0A4A0A4803F021FF00BF48250020DD
S315000004C00C300020AC560000C4560000E456000074
S315000004D00857000024570000EC550000945B00000C
S315000004E09456000010B301281ED138B5134D144898
S315000004F002F022FC2B686BB9124C07E04FF47A71BC
S315000005000120226003F002FF2B681BB923685A1EE4
S31500000510002BF3D12B685BB100214FF47A72094BA3
S3150000052029601A60002038BD0420704700207047FB
S31500000530054804F0CFF9012038BD00BF442500204E
S315000005400C300020000000204057000010B30128A6
S315000005501ED138B5134D144802F026FB2B686BB933
S31500000560124C07E04FF47A710120226003F0CEFEB0
S315000005702B681BB923685A1E002BF3D12B685BB17D
S3150000058000214FF47A72094B29601A60002038BDA9
S315000005900420704700207047054804F09BF90120AD
S315000005A038BD00BF442500200C300020000000208C
S315000005B05C57000068B1012809D102291FD0032920
S315000005C012D001290ED1104B9B6813600AE004205B
S315000005D0704702290FD003290AD0012902D14FF40E
S315000005E08063136000207047074B1B691360F9E7AF
S315000005F001231360F6E74FF480531380F2E7024BB2
S31500000600DB681380EEE700BF4825002084460068BB
S3150000061098B1024601E03A2B06D012F9013BD9B255
S315000006201F29F8D80020704790F900103039CBB256
S31500000630092B02D8831C9A4202D04FF0FF30704734
S3150000064001290846F9DCCCF80020704738B50D467C
S3150000065040B1036804462BB11A781AB18188DA884A
S31500000660914203D0092000232B6038BD5878FFF74C
S31500000670E7FE10F00100F5D12368F5E703790BB921
S315000006800020704770B500F134050446026B012363
S3150000069029464078FFF75AFF40B9266B636AE2693C
S315000006A0F31A9342207103D3002070BD012070BD60
S315000006B0E378022BF8D10123294660783244FFF70C
S315000006C045FFF1E7F8B505460C46FFF7D7FF40BBF7
S315000006D0AB69A11E023B99422EBF06466B89EE6AA4
S315000006E005F1340738BF01FB03664FF400720021A1
S315000006F038462E6304F0DEF96B891C466BB1002484
S3150000070002E001349C4208D2012339466878A219D6
S31500000710FFF71CFF6B890028F3D0E01A18BF0120F1
S31500000720F8BD0120F8BD00BF70B5037904465BB97A
S315000007302378032B23D0002260781146FFF73AFF77
S31500000740003818BF012070BD00F13405026B01238B
S3150000075029464078FFF7FAFE002835D1266B636AF2
S31500000760E269F31A93422071E2D2E378022BDFD1D9
S315000007700123294660783244FFF7E8FED8E7657919
S31500000780012DD8D104F134064FF400720021304611
S3150000079004F090F94AF655200C4AA4F83202626336
S315000007A0D4E90420C4F82022226A094B0132C4F895
S315000007B01832C4F81C022B46314660782263FFF7D4
S315000007C0C5FE00236371B6E7012070BD5252614138
S315000007D072724161026B8A4201D10020704770B586
S315000007E0044603790D46407804F1340663B92A4677
S315000007F001233146FFF776FE002818BF4FF0FF357C
S31500000800256318BF012070BD01233146FFF79EFE08
S3150000081088B9216B636AE269CB1A934220716078CA
S31500000820E5D2E378022BE2D10A4401233146FFF7F1
S315000008308DFE6078DBE7012070BD00BF2DE9F84F23
S3150000084006780446022E0D46904642D0032E2AD044
S31500000850012E56D1416A05EB550901EB5921FFF7E7
S31500000860B9FF0746E0B909F1010BEB07C9F308091F
S3150000087004F1340A5FFA88F14FEA5B2245D51AF88B
S315000008800930204603F00F0343EA01130AF8093042
S31500000890616A26711144FFF79DFF00284ED0074676
S315000008A03846BDE8F88F416A01EBD511FFF792FF94
S315000008B007460028F4D10121AD0004F1340205F405
S315000008C0FE755359384668F31B0353512171BDE831
S315000008D0F88F416A01EB1521FFF77CFF07460028D8
S315000008E0DED101216D0004F1340305F4FF7503F830
S315000008F00580C8F307222B445A7021713846BDE89B
S31500000900F88F02273846BDE8F88F0AF80910616AA1
S31500000910204626711144FFF75DFF0028BFD1CBF3B7
S31500000920080B1AF80B30C8F3032223F00F03DA443E
S31500000930134301228AF800302271B1E7CBF3080B8A
S31500000940DA44C8F30713F4E7012919D9F8B582691F
S315000009500C469142064611D20278022A21D0032A79
S3150000096010D0012A0AD1416A04EB540501EB552146
S31500000970FFF730FF10B34FF0FF30F8BD0120F8BD90
S3150000098001207047416A01EBD411FFF723FF0028CD
S31500000990F1D1A40004F4FE743319586B20F07040B2
S315000009A0F8BD416A01EB1421FFF714FF0028E2D1DC
S315000009B0600000F4FF703044808EF8BD716A6F1CD1
S315000009C0C5F308053544304601EB572195F83450F8
S315000009D0FFF700FF0028CED1C7F30807374497F882
S315000009E0343045EA0320E3074CBF0009C0F30B008F
S315000009F0F8BD00BFF8B501290E46056828D9AB69D0
S31500000A008B4225D90746114622BB284614E0002210
S31500000A1031462846FFF712FFD8B9D5E90532911EAF
S31500000A208B4205D26979013341F001016B6169712D
S31500000A30A2421BD9264638683146FFF785FF044691
S31500000A40A0B1012804D0431C12D0AB699E42DED36C
S31500000A500220F8BD012AFBD09342F9D94FF0FF32AC
S31500000A602846FFF7EBFE0028E5D0F8BD0020F8BDCC
S31500000A700120F8BD2DE9F04106468846076849BBC6
S31500000A80D7E90452EDB90AB30125BB692C4606E045
S31500000A90012812D0013047D0AC4217D0BB690134CF
S31500000AA09C4202D3012D11D0022421463068FFF763
S31500000AB04BFF0028ECD1012C52D801242046BDE87A
S31500000AC0F081BB69AB42DED9002ADFD10024204683
S31500000AD0BDE8F0813846FFF737FF01280446ECD918
S31500000AE0421C21D0BB698342F1D87A69002AEDD035
S31500000AF008F10104A34298BF022430682146FFF79B
S31500000B0023FF0128D9D0431C0ED0BB691A4600BB6F
S31500000B1044B3A242D1D94FF0FF3221463846FFF7FF
S31500000B208DFE30B10128C8D14FF0FF342046BDE814
S31500000B30F081B8F1000F17D1D7E90523023B9A429D
S31500000B403C6101D8013A7A617B7943F001037B71FC
S31500000B50BDE73D69012D05D99D4228BF454695E76C
S31500000B60BA69D6E7454691E7B8F1010FA5D0BB694A
S31500000B709845A2D2224641463846FFF75FFE002836
S31500000B80D0D1D9E72DE9F047056904462035B5F5FA
S31500000B90001F066804D30023A3610420BDE8F08784
S31500000BA08369002BF9D0C5F30807002F37D1884693
S31500000BB0416901338361002938D07389013B13EA07
S31500000BC055292CD13046FFF7BFFE0128824634D97D
S31500000BD0B0F1FF3F2FD0B369834212D8B8F1000FAE
S31500000BE0D9D020466169FFF745FF824638B3012810
S31500000BF023D0B0F1FF3F1ED001463046FFF762FD1D
S31500000C00C8B9C4F814A0B369AAF1020A023B9A450E
S31500000C1003D27289F36A0AFB0239C4F81890343693
S31500000C203E442561E6610020BDE8F0873389B3EBD9
S31500000C30551FF4D8AFE70120B0E70220AEE7072042
S31500000C40ACE700BFF8B5B1F5001F076822D2CA06A7
S31500000C500D461FD1816806460561E9B17B89B5EB72
S31500000C60432F4FEA432432D3384607E0012811D9EF
S31500000C70BB6983420ED9AC422AD83068FFF764FEBE
S31500000C80431C0146A5EB0405F0D10120F8BD002365
S31500000C90C6E905130220F8BD3B78022B12D83B8922
S31500000CA0B3EB551FF6D9BB6AC6E90513002BF1D085
S31500000CB0C5F30802343703EB55231744C6E9063754
S31500000CC00020F8BDBB6A002BE9D01946C6E7BB6910
S31500000CD0023B8A1E9A42DAD27889FB6A02FB00330B
S31500000CE0E2E700BF2DE9F04F002187B00546066810
S31500000CF0FFF7A8FF0446002836D14FF0FF0B4FF050
S31500000D00FF37D84605F1200AEF620AE00F282FD0F8
S31500000D104FF0FF08EF6200212846FFF733FF044635
S31500000D2010BB3046A969FFF755FD0446E0B9EA69EC
S31500000D301178002947D0D37AE52903F03F00A8713E
S31500000D40E6D01B07E2D40F2812D0B8F1000F21D04D
S31500000D5095F82B4014F00104DAD1104651460B22C7
S31500000D6003F098FE0028D3D1204607B0BDE8F08FE7
S31500000D7095F82B305C06CED448061FD52B6992F821
S31500000D800DB001F0BF01EB62537B5B4520D04FF005
S31500000D90FF08C0E71146434602F10B0411F8010BA8
S31500000DA04FEAC31848EA530850FA88F8A1425FFA96
S31500000DB088F3F3D19B45CBD10024D5E78845E3D012
S31500000DC04FF0FF08A7E70424204607B0BDE8F08FE0
S31500000DD0538B002BDBD11478DFF8908004F03F04AE
S31500000DE0013C04EB440304EB8304F368CDE900B64D
S31500000DF0029501201E461546059308F10D0904913A
S31500000E00CDF80CA010E0FF2C18D8504601F0B8FC25
S31500000E10834636F8140001F0B3FC834504F101045F
S31500000E200CD15046C1450ED018F8013B35F803A049
S31500000E300028E8D14FF6FF739A45F3D0DDE900B6F6
S31500000E40DDE9025AA3E72A46DDE900B6DDE9025AE2
S31500000E50137804995B0605D520B1059B33F8143049
S31500000E60002B94D101395FFA81F854E7D45B000076
S31500000E702DE9F04F8046036887B001930C4611F9BF
S31500000E80013B2F2BFAD05C2BF8D00021C8F80810B4
S31500000E9094F90030DAB21F2A40F28F814146019A56
S31500000EA0DFF860B3DFF860A3DFF8609388460020C0
S31500000EB01946D66817E08FB21F2F1C46054657D92C
S31500000EC02F2F6FD05C2F6DD07F2F05D8584639460F
S31500000ED003F0F8FD002859D1FE2D57D826F81570D5
S31500000EE094F90010681C002904F10103E3DA21F0EB
S31500000EF01F0240324ED021F00F0220324ED021F098
S31500000F000702103242D1032501F0070201352544BC
S31500000F101C4601E0A5420AD014F9013B23F03F012B
S31500000F20803103F03F0343EA8212F3D02EE0B34947
S31500000F30A2F180038B4229D8A2F55843B3F5006F7E
S31500000F4024D3B2F5803F02D2054697B2C4E7A2F594
S31500000F5080310AEA8111C2F30902114341EA09010B
S31500000F608FB20B0C1F2F00F1010526F81030A7D801
S31500000F70414604274DB106EB450232F8023D202BCF
S31500000F8001D02E2B20D1013DF7D13580062007B0A8
S31500000F90BDE8F08F012501F01F02B7E7022501F039
S31500000FA00F02B3E74146224692F9003014462F2B32
S31500000FB002F10102F8D05C2BF6D0DFB21F2F8CBFF6
S31500000FC000270127BF00D5E7002226F81520338821
S31500000FD006EB4500202B40F0A680B31C9C4633F858
S31500000FE002EB9046BEF1200F02F10102F6D008F1A5
S31500000FF0020847F0030701E0013D03D030F8023D47
S315000010002E2BF9D14FF020334B620B62C1F82730FB
S31500001010BCF80020002A00F007814FF0000C0823DE
S315000010200846009311460294634664460246202908
S3150000103049D02E2950D00098A0425DD800990B299E
S315000010404FD0A84578D047F0030775D99C4692F84B
S3150000105020301146E52B04BF052382F82030009B83
S31500001060029C082B6FD00CF00C030C2B03D00CF059
S315000010700303032B6FD147F00207084681F82B7054
S315000010800091FFF72FFE009991F82B30002840F0D1
S31500001090BF805A073FF57BAF8B79DB0640F1C080F6
S315000010A001980A6900F134030078C2F30802134478
S315000010B003285A8B04BF9B8A42EA03428A6094F94A
S315000010C000300A68F2E647F0030736F8181008F110
S315000010D001080029ABD1B9E7A845F4D100990B293D
S315000010E02AD19C4692F820301146E52B029C00F04E
S315000010F09D8047F00307B6E7A8451BD07F293AD85D
S315000011003F48CDE90432039103F0DCFCDDE903132B
S31500001110059A00285AD05F2147F00307101980F876
S3150000112020100134D1E72E2BB4464FF001087FF48E
S3150000113065AF5EE70B28D4D00B219B00A846082498
S31500001140DBB20091C1E74FEA8C0C0CF00C030C2BC0
S315000011505FFA8CFC8FD007F00203002B8DD14CF385
S31500001160000303F010031F431CF0040F1CBF47F0DD
S315000011700807FFB281E7CDE90432084647F00203CB
S31500001180039301F0FDFA4FF46A7101F0CFFADDE93D
S315000011900432FF2801460CD900980138A04228D90C
S315000011A010194FEA112C039F013480F820C0C9B2F0
S315000011B0B4E7039F0028AED0A2E78023404688F814
S315000011C02B3007B0BDE8F04FFFF73CBDA1F1410061
S315000011D080B2192803D843F00203C9B29EE7A1F1F1
S315000011E0610080B219289CBF203943F00103C9B2BF
S315000011F094E7009C47F0030767E700BF7FFF1000F6
S3150000120084570000785700000000FF0300DC00D878
S3150000121004287FF4BCAE13F0040F08BF0520B6E621
S31500001220052007B0BDE8F08F944694E7052382F8C1
S3150000123020305EE790F82BC01CF0A00140F0198129
S315000012402DE9F04FD0F800B00746DBF80C3089B036
S315000012501A88002A00F07D818A4633F8022F0AF1A7
S31500001260010A002AF9D10DF1140907F120051CF035
S31500001270010F95E8070089E8070055D11CF0020F19
S315000012805E4600F0E080B54B002138460AF10C08B6
S31500001290A3FB0838FFF7D6FC4FEA9808034608F187
S315000012A00108002840F0D980044608E09BB10446B6
S315000012B001213846FFF766FC002840F0D48030460E
S315000012C0B969FFF787FA0134002840F0CC80FB6942
S315000012D01B78E52BEAD1A045EAD1B8F101030093CA
S315000012E040F0CA805846B969FFF774FA0346B8B9A0
S315000012F00124014620220090F86903F0DBFB03CDB0
S31500001300FA69009B10605160A97828889172108153
S3150000131097F82B20F96902F018020A738BF804403B
S31500001320184609B0BDE8F08F40234FF001088C4CF9
S3150000133087F82B3007F12706CDF800C0AC4699E8B0
S315000013400700DBF80C30ACE80300B8F1050F2CF809
S31500001350022B4FEA12428CF800204CD91A88002A38
S3150000136049D09C464346102102F0010000EB43039E
S31500001370D80348BF634001394FEA5202F4D13CF822
S31500001380022F002AEFD1CC46072203E0BEF10F0F51
S3150000139033D90A4603F00F0000F13001392988BF1E
S315000013A000F137010CF8011D511E9E464FEA13133A
S315000013B0ECD17E220B468DF80C201F333B440729C7
S315000013C001F120026A448EBF202212F8142C01314A
S315000013D003F8012FB342F2D13846FFF783FC0346E8
S315000013E028BB08F10108B8F1640FA7D107231846F6
S315000013F009B0BDE8F08F4346C5E77E2001F1200322
S315000014006B4403F8140C023A002307E07D2802D847
S315000014109A42D2D0013301339942CED915F803C08E
S315000014200CF17F00BCF1200FC0B2EFD1C5E7042854
S31500001430DDF800C07FF474AF1CF0020F3E6887F839
S315000014402BC07FF420AF00213846FFF7FBFB4FF09F
S315000014500108034600283FF427AF0428C6D01846E3
S3150000146009B0BDE8F08F042803467FF459AF07237F
S31500001470BDE7062318467047009B39693846A1EB3D
S315000014804311FFF7DFFB034600287FF449AF2946E7
S315000014901A4607F12B00D30143EA520311F8012B38
S315000014A052FA83F38142DAB2F5D14FF6FF7A164645
S315000014B0A9465846B969FFF78DF905460246002840
S315000014C049D1FC69DBF80C802B4665830F259DF816
S315000014D000C024490CF1FF3202EB420E02EB8E02F1
S315000014E001206673A4F80B5001F10C0ECDF804B080
S315000014F00EE038F8123001324FEA132B235485F8E8
S3150000150001B00BB94FF6FF738E4508D011F8010FE5
S31500001510534504EB0005ECD18E452352F6D15345D5
S31500001520DDF804B002D038F812300BB94CF0400C9C
S31500001530012384F800C0002138468BF80430FFF7F9
S3150000154021FB024638B9009B013B0093B1D14D46C1
S31500001550C8E6924687E61346E2E600BF4FECC44E65
S3150000156021100100D45B000070B54FF0FF36002358
S31500001570B14204460371066330D194F83430B4F8AE
S315000015803252EB2B0AD01833DBB2012B06D94AF6BE
S31500001590552085420CBF0220032070BD4AF6552314
S315000015A09D4209D0B4F83F305A1E1A4202D1B3F513
S315000015B0007F21D0032070BD0822244904F1860053
S315000015C003F068FA0028E8D0B4F83F305A1E1A42F1
S315000015D002D1B3F5007F31D0022070BD0D460A4618
S315000015E00123407804F13401FEF77CFF10B1266335
S315000015F0042070BD2563C0E794F84130002BD9D094
S315000016005A1E1A42D6D1B4F84230002BBFD094F8F5
S315000016104430013B012BBAD8B4F84530002BB6D084
S31500001620B4F847307F2B03D8636DB3F5803FAED354
S31500001630B4F84A30002BAAD0002070BD94F841308F
S31500001640002BC9D05A1E1A42C6D1DCE78C570000BF
S315000016500023F0B585B00B600E461546FEF7D6FFA3
S315000016600028C0F295807F4B53F82040002C00F0F4
S31500001670B1803460237805F0FE0553B16078FEF73B
S31500001680DFFEC20705D415B1430700F1A080002094
S3150000169075E0002360782370FEF7D8FEC7076DD487
S315000016A015B1460700F1938000212046FFF75CFF45
S315000016B0022870D0042866D0012866D8B4F83F30D6
S315000016C0216BB3F5007F60D1B4F84A0000B9A06D74
S315000016D094F84420E061531E012BE27055D894F82B
S315000016E041306381002B50D05D1E1D424DD1B4F8B0
S315000016F045603507268148D1B4F8475005B9656D70
S31500001700B4F84270002F40D000FB02F207EB161C23
S315000017109444654539D3A5EB0C059D42B5FBF3FE14
S3150000172033D3514B9E4530D801EB0C034FF6F57C75
S31500001730E6450F440EF1020559D840F6F57CE6451C
S315000017402162E362A561676246D9F6B102213A4495
S315000017506B0003F2FF13B0EB532FA26215D34FF0C9
S31500001760FF328020C4E90422CBB260713F4A237065
S31500001770138801339BB21380E38088E7032005B00A
S31500001780F0BD042801D10120F9E70D2005B0F0BD18
S315000017900B2005B0F0BDD4F80A02D4F81A22D4F80A
S315000017A02A32D4F8FA116D46CDE90223019004AE2F
S315000017B0009102E00320B542E3D055F8041B00294E
S315000017C0F8D02046FFF7D0FE0128F4D876E70A20A5
S315000017D005B0F0BD0C20D2E7002ED6D005EB4501B2
S315000017E005F0010303EB51033A440121B1E7E3623B
S315000017F0B4F85E3067623343A5612162C5D1AB00A0
S31500001800226E03F2FF13B0EB532FA262BDD34FF04B
S31500001810FF338020B4F86420C4E90433012A6071E0
S3150000182001D00323A2E720460131FEF7D3FF0028AB
S31500001830F7D14AF65522B4F8321260719142F0D1CE
S31500001840626B0B4B9A42ECD103F1FF53D4F818228A
S3150000185003F5005320339A4204BFD4E98723C4E931
S315000018600432DEE760250020F5FFFF0F5C2500202F
S315000018705252614110B584B0019003A814460091FC
S315000018800391FEF7C3FE002819DB0E4A52F82030FA
S315000018901BB1002142F820101970019B23B10021D1
S315000018A0587042F82030197014B9204604B010BDA3
S315000018B00022684601A9FFF7CBFE04B010BD0B203D
S315000018C004B010BD602500202DE9F047ADF5107D70
S315000018D0019100287FD002F03F070446164603A96F
S315000018E03A4601A8FFF7B4FE054630B1002323604F
S315000018F028460DF5107DBDE8F087DDF80C8010ABAD
S315000019000199C8F80C3004A8CDF81080FFF7B0FA9A
S3150000191080B99DF93B30002B63DB16F01C0F9DF858
S3150000192016300ED013F0110F5DD1700740F18B8089
S315000019300825DBE716F01C0F01D0042857D0054612
S31500001940D4E7DA0651D4B00701D5D9074BD4002124
S31500001950D8F830200B9B04F1280AC4E9082398F82C
S3150000196000205E8B032A08BF9A8A504608BF46EAC3
S315000019700246A660D3F81C90C4F80080C4F80C9008
S31500001980B8F806304FF40072A38027746174E161E1
S31500001990616103F08FF8BA06AAD5B9F1000FA7D096
S315000019A0C4F81490B8F80A30B9EB432F4FEA43272E
S315000019B061D9404604E0431C7FD04F455BD2206886
S315000019C03146FEF7C1FF01280646A9EB0709F2D802
S315000019D0A06102258AE7092528460DF5107DBDE898
S315000019E0F087062582E7072580E704257EE704A819
S315000019F0FFF720FC0028A2D10B9B47F00807304ACE
S31500001A00C3F80E200B9BC3F8162098F800200B9BFA
S31500001A10032A08BF9A8A5E8B08BF46EA024620223E
S31500001A20DA7200220B9B5A8398F80010032908BF2C
S31500001A309A82002201230B99CA6188F8043036B9CC
S31500001A4047F0400783E731070B9B80D5D7E7314640
S31500001A5004A8D8F83090FEF7CDFF00287FF46FAFCA
S31500001A6049464046FEF7B6FE013EC8F8106000281B
S31500001A70E6D005463AE7C9F30803A661002B3FF412
S31500001A8037AFD8F81830023E023B9E42A1D2B8F8D2
S31500001A900A20D8F82C3006FB0232002A99D002EB35
S31500001AA05922E2615146012398F80100FEF71AFD1A
S31500001AB000283FF41DAF012518E7A061FBE700BF32
S31500001AC0000021542DE9F04F002785B088461F609D
S31500001AD003A91E4605461446FEF7B8FD00284AD15E
S31500001AE0687C002847D195F810A01AF0010A00F08A
S31500001AF089806B69EF68FF1AA74228BF2746002F27
S31500001B0039D00090C3F30804002C40D1DDF80CB0A6
S31500001B10BBF80A20013A12EA53222FD0A869DBF853
S31500001B2018300238023B984222D2BBF80A10DBF882
S31500001B302C4001FB0044DCB1B7F5007F14443DD2D4
S31500001B40EA69A24260D095F910309BF80100002B9B
S31500001B5005F128015BDB012322460191FEF7C2FC59
S31500001B600199002841D1EC616C69C4F3080410E0C6
S31500001B70022318466B7405B0BDE8F08F002B3AD1EE
S31500001B80A8680128F4D9431C2FD0A861C7E705F13E
S31500001B9028012144C4F50074BC4228BF3C46404697
S31500001BA0224602F0FEFF33683F1B234433606B6915
S31500001BB0A04423446B61A5D10098DCE702EB5720D3
S31500001BC088424FEA572988BFA1EB02094B462246B5
S31500001BD041469BF80100FEF785FC30B995F91020C7
S31500001BE0002A22DB4FEA4924DDE7012350466B74C5
S31500001BF005B0BDE8F08FA96928680192FEF7A4FE3A
S31500001C00019ABEE70720B6E705F12801ABE70123F5
S31500001C100191FEF79BFC0028E7D12B7C019903F08C
S31500001C207F032B749BF8010095E7E869001B484584
S31500001C30D8D24FF4007208EB402005F1280102F0DB
S31500001C40B0FFCFE72DE9F04F002585B08A461D602D
S31500001C5003A9994604461746FEF7F8FC8046002875
S31500001C6051D194F81180B8F1000F4CD1237C9A071A
S31500001C7040F1B3806669FE4228BFF743002F68D063
S31500001C80C6F30805002D42D1DDF80CB0BBF80A10EA
S31500001C90013911EA56250FD1002E40F09680A06832
S31500001CA0002800F0838001282AD0431C00F086809B
S31500001CB0A368A061002B66D094F91030002B67DB77
S31500001CC0A369DBF81820023B023A934218D2BBF80C
S31500001CD00A10DBF82C2001FB03228AB1B7F5007F3E
S31500001CE005EB020639D2E3696569B34202D0E368BF
S31500001CF0AB4275D804F1280BE661C5F3080508E088
S31500001D00022398466374404605B0BDE8F08F04F19F
S31500001D10280B0BEB0500C5F50075BD4228BF3D46F7
S31500001D2051462A4602F03DFF237C63F07F0323746D
S31500001D30D9F80030AA442B44C9F800306669E36834
S31500001D402E44B34238BF33467F1B6661E36097D1AA
S31500001D50237C43F040032374D5E705EB57228A42E0
S31500001D604FEA5723324688BF4B1B9BF8010051466A
S31500001D700193FEF7EBFB08BBE169019B891B9942C6
S31500001D803BD35D02D4E794F91030A060002B97DABC
S31500001D900123E2699BF8010004F12801FEF7D6FB56
S31500001DA060B9237C03F07F03237489E72946204624
S31500001DB0FEF760FE00287FF476AFC9E70123984658
S31500001DC04046637405B0BDE8F08F2046A169FEF772
S31500001DD051FE00287FF467AFBAE74FF0070892E795
S31500001DE09BF8010004F1280B012332465946FEF701
S31500001DF079FB0028E2D165697EE74FF400720AEBB1
S31500001E00412104F1280002F0CCFE227C019B02F065
S31500001E107F022274B5E700BF00283CD038B50368BE
S31500001E2004462BB11A781AB18188DA88914201D01A
S31500001E30092038BD5878FEF703FBC207F8D4237C87
S31500001E4013F04000F5D01B06256826D42846216AE3
S31500001E50FEF7C0FC0028ECD1636ADA7A42F0200271
S31500001E60DA72A2682168C2F307209A76D8760978D2
S31500001E7003291FD000210122E06859821149D86147
S31500001E80C3F8161028462A71FEF74EFC237C23F071
S31500001E904003237438BD092070470123E26968783E
S31500001EA004F12801FEF752FB48B9237C03F07F03B7
S31500001EB02374CBE7120C110A1A755975DAE701205B
S31500001EC038BD00BF0000215410B582B00446FFF7AC
S31500001ED0A3FF08B102B010BD204601A9FEF7B6FB6C
S31500001EE00028F7D1206002B010BD00BF2DE9F04FE9
S31500001EF095B00D900DA8894692460093FEF786FB95
S31500001F000028C0F217818F4B53F820300BB1002206
S31500001F101A70C4B22046FEF799FAC20700F1F9809A
S31500001F20430700F10B81B9F1000F00F0CD80D9F81D
S31500001F3004300F93002B00F0CB805A1EB2F5004FF1
S31500001F4080F0BC801A4240F0B98099F801B0D9F807
S31500001F5008800BF1FF33012B88BF012708F1FF33FF
S31500001F6094BF5F46BB46B3F5004F80F0AA8018F0D9
S31500001F700F0F18BF4FF40078D9F80C60B6F1807FC8
S31500001F8003D8731E334200F0AA800025009B2E461C
S31500001F90B3F5007FC0F0A980BAF1000F00F0A5806C
S31500001FA000230121204610AA99F800901093FEF70D
S31500001FB001FB0690002840F09C8119F00802109B56
S31500001FC00C9240F096803F2B74D93F223F3B1093F2
S31500001FD002927F2B6ED9B6F5813F28BF802519F076
S31500001FE0020109F001020A9140F09281002A00F0F4
S31500001FF0E9812846029D0F9AC8F316110135099109
S3150000200029440891511E0B950591C2F1000E002836
S3150000201072D00546B3FBF5F240F6F5718A4240F2FE
S315000020206F810221023252000191089902F2FF12D9
S31500002030520A07FB0211059E8E1906EA0E06761A4B
S31500002040B6FBF7FC07FB1C69B9F1000F00F05381E2
S315000020504FF00209013EB6FBF7FC029E4E4407967E
S3150000206062440392099A0492029A891A01EB0511B5
S3150000207099421FD8049A09EB0206039A9E1B07FB96
S315000020801266019AB6FBF5F6032A61D0019A022A76
S3150000209040F013834FF6F57296423ED9002840F081
S315000020A06C8168004028B2D90A9A002A40F07481EF
S315000020B08028AED90E2015B0BDE8F08F01230F930E
S315000020C043E74FF4007857E7CDF83C90DFF87C9073
S315000020D0032120460FAAFEF76DFA0F9B2DE7009B02
S315000020E0750AB3F5007FBFF457AF112015B0BDE8F0
S315000020F0F08F069A02926CE70122134915461E0BD1
S3150000210004E031F8022F6D00002A83D0B242F8D9DC
S3150000211080E7032015B0BDE8F08F40F6F5729642D1
S315000021201BD80028C6D168008028C3D800287FF4B1
S3150000213070AFE1E70B2015B0BDE8F08F0A2015B0AF
S31500002140BDE8F08F60250020A45B0000C45B0000A2
S315000021504FF6F572964240F216814FF40072002156
S315000021605046059302F0A6FCAE4A019B03CACAF884
S31500002170041011889278032BAAF808108AF80A200E
S31500002180059B5FFA89F2CAF80000E9B2C9F307298C
S3150000219040F010814FF000088AF80E20069AB3F539
S315000021A0803F8AF811204FF002028AF80C20DAB23A
S315000021B03EBF8AF81320C3F307228AF81420029A36
S315000021C028BFCAF820308AF81C20F8228AF8152081
S315000021D03F228AF81820FF22D8B28AF81A20C3F3C1
S315000021E0072E03F1A842019B02F50412032B8AF87D
S315000021F00D109DF80CC0C2F307418AF80F908AF8BB
S3150000220010B08AF812804FEA126200F0158180231E
S315000022108AF8243029238AF826304AF65523AAF864
S31500002220FE31039B804EC3F307238AF827008AF802
S3150000223029108AF82A208AF817300FCECAF83730C4
S315000022403388CAF82B00AAF83B30B378CAF82F10A7
S31500002250CAF8332051468AF83D3020460123029AB7
S315000022608AF828E08AF816C0FEF770F901460028B9
S315000022703FD1009A50466FF3080202F01BFC019B07
S315000022804FF00009012B009B4FF0FF0B4FEA53283C
S31500002290664B18BF6FF007031B0E00935346CA46E2
S315000022A0994605952546079C0297019B032B00F04E
S315000022B0AC804FF6F873A9F80030009B89F802B09D
S315000022C089F80330039E07E04FF40072484602F097
S315000022D0F1FBF61B3C4477D04645374628BF4746B8
S315000022E04946224628463B46FEF730F90146002875
S315000022F0EAD00120DFE60B9E4FF001090796AFE614
S31500002300012102EB420201325208033201918CE6AE
S31500002310029E0F99C8F316100136099030440890B2
S31500002320481E05900B962846C1F1000E002A7FF440
S315000023306EAE8DB3B3FBF5F23D4E9100A2F57F4232
S3150000234001F20721F63A490AB24203913FF6B2AECC
S31500002350002604960326029A0399203207FB0121E0
S315000023600196059E01EB060909EA0E09A9EB01098A
S315000023704A44079209F1200976E60A9A002A3FF4B0
S3150000238099AE0546D6E700287FF494AE012D7FF678
S3150000239091AE6D082846CDE70125264A2846590CF8
S315000023A004E032F8020F6D000028C3D08842F8D945
S315000023B00020BFE7022001905FFA88F00690C8F37C
S315000023C00728E9E6132076E6029B0AF1010A9A45F8
S315000023D07FF46BAF2746049E2C46019B059DCA469B
S315000023E0032B08BF2E4603E0761B2F4400F0918096
S315000023F04645354628BF45463A46514620462B4671
S31500002400FEF7A4F80028EFD073E76FF00701C9F8CC
S3150000241000104FF0FF31C9F804106FF07041C9F891
S3150000242008104FE798570000B8570000F8FFFF0064
S31500002430FFFFFE0FB45B0000039B4FF00108CAF8D4
S31500002440243006238AF832304FF002038AF82C3003
S3150000245080238AF8403029234AF6552BDFF8C8C274
S315000024608AF843008AF845108AF846208AF84230EE
S31500002470BCE80F00CAF85330BCF80030CAF8470071
S31500002480AAF857309CF80230CAF84B10CAF84F2009
S315000024908AF85930514643462046029A8AF844E063
S315000024A08AF83080AAF8FEB1FEF750F88146002877
S315000024B07FF41FAF029A4346514606322046FEF786
S315000024C045F84FF400724946504602F0F3FA4FF0D1
S315000024D002038AF8EC31914B029ACAF8003003F1F4
S315000024E0FF5303F500532033013E51460732CAF825
S315000024F0E43120464346AAF8FEB1CAF8E861FEF781
S3150000250025F85146434620460B9AFEF71FF84946E2
S31500002510AFE6019A032A00F0CA80109BB3F5803F0C
S3150000252080F0C280022A14BF4FF0010B4FF0040B5B
S315000025300C9A002A40F0AF80109B0121CDE912329F
S31500002540204611AAFEF736F800287FF4D2AE119E77
S31500002550734B9E4240F2D780052308254FF63E4234
S315000025606D00013BEDB203D0B6FBF5F19142F7D811
S31500002570002D4FF400724FF00001504608BFFF25B2
S3150000258002F098FA3F22914612AB01930AF2EF133A
S315000025900AF2BF1102930094019850F8043B642B91
S315000025A0019005D81BBF6420B6FBF0F033464343C9
S315000025B09F182CBF01200020BE427BD3002879D172
S315000025C0002B5AD0D4B203940024B2FBF9F04FEAA0
S315000025D012284FEA124E68F307044FEA126C6EF3A4
S315000025E00F246CF31744B0FBF5FC63F31F648C6097
S315000025F0C0EB8014141B3A46002705FB1C004FEA6B
S31500002600132E81F80CE04FEA134E1B0E8B73531EEC
S3150000261004F101083C4660F30707B3FBF9F081F8C3
S315000026200DE04FEA9C0E2EF03F0E48EA0E0868F3C6
S315000026300F276CF317476BF31F670F60B0FBF5F7B7
S31500002640C0EB801C05FB1700A3EB0C0360F307042B
S31500002650B808013320F03F00034363F30F24039BC4
S3150000266067F3174463F31F64029B4C60994204D0DE
S315000026701AB1964201F110018ED8009C4AF65525F2
S315000026800123002251462046AAF8FE51FDF75EFFBF
S3150000269000287FF42EAE002220461146FDF78AFF61
S315000026A0003818BF012006E54FF0060B40E74FF053
S315000026B00C0B3DE73746B31A84E740F6F5729642AF
S315000026C03FF6F8AC4FF4007200215046059302F035
S315000026D0F1F90123134A019303CACAF804101188B9
S315000026E092785FFA88F3AAF808108AF80A20069307
S315000026F05FFA89F2059BCAF80000E9B2C9F3072917
S31500002700C8F3072848E54FF4007250460C9902F0CA
S31500002710D1F93F2EB2D9082534E700BF52526141A4
S31500002720F7E1070098570000A45700007F2801D85A
S3150000273080B27047B0F5803F02D2B1F56A7F01D012
S315000027400020704710B5002145F2205E10220A4C89
S3150000275080B2AEEB010301EB530334F823C084458A
S3150000276006D034BF19469E46013AF2D1104610BD36
S31500002770024A32F8230010BD945E0000965E000007
S31500002780B0F5803F1ED2264B264A30B584B2B4F54A
S31500002790805F38BF134604330DE08C4210D333F804
S315000027A0022C5FFA82FC0CEB010E70454FEA1222F6
S315000027B009DB043382B133F8041C1D460029ECD131
S315000027C0204630BD7047082AFAD8DFE802F0241EFA
S315000027D01B1815120F0C080005EB4C03DBE7A4F5DC
S315000027E0E354A4B2ECE7503CA4B2E9E70834A4B23F
S315000027F0E6E71A3CA4B2E3E7303CA4B2E0E7203CAB
S31500002800A4B2DDE7103CA4B2DAE7631A03F00103D1
S31500002810E31A9CB2D4E7401A33F81040D0E700BF61
S31500002820E45B0000A05C000038B501224C494D482D
S31500002830FFF720F84C4C0D2820705CD000284ED1B4
S315000028404A4802F047F84A4802F044F80A22494941
S315000028504948FFF739F82070002848D1474D4848C5
S3150000286002F038F847494B222B464348FFF7EAF96E
S315000028700146207000285CD0434801F0C3FF3E4863
S31500002880FFF722FB414802F025F8012239493A4870
S31500002890FFF71AF82070002858D13D4802F01AF8C0
S315000028A04FF48062354B3B493348FFF70BF92070F4
S315000028B000284FD12968384801F0A4FF3549374828
S315000028C001F0A0FF2C48FFF7FFFA0122002024495F
S315000028D0FEF7D0FFBDE83840314801F0FBBF0146A6
S315000028E0304801F08FFF304801F0F4FFFEE72F4833
S315000028F001F0F0FFFEE72E4801F0ECFF4FF4007305
S3150000290000212C4A1648FFF7F1FA05462070C8B98F
S31500002910294801F0DFFF012211492846FEF7AAFFE8
S31500002920034601220E490F482370FEF7A3FF2070CD
S3150000293089E72968214801F065FF1249204801F01E
S3150000294061FF9CE71F4801F0C5FFFEE71E4801F046
S31500002950C1FFFEE701461D4801F054FFB2E700BF84
S31500002960CC570000A02D0020682B0020BC5800008A
S31500002970F458000028590000702B00206C2B002012
S315000029804859000004000020F85900001C5A0000B5
S31500002990745A000068270020905A0000C05A0000B0
S315000029A0305B00005858000088580000505A00005C
S315000029B0D0570000682500200C5800009C590000E4
S315000029C0D059000038580000105B0000EC5A000097
S315000029D008B5FDF72FFCFDF785FC064801F07AFFE8
S315000029E0FDF7B6FCFFF720FF4FF47A71084601F0B9
S315000029F08DFCF9E74C5B0000022800D070470249C5
S31500002A00024801F06FB900BF78B30100D42F00204F
S31500002A10006800F05DBC00BF08B5FFF7D9FF0020D5
S31500002A2008BD00BF002370B44FF4F946046A95B29E
S31500002A30A363046A120CE363046A4362236C23F003
S31500002A40010343F004032364036A5E64046AA36C0F
S31500002A5043F44073A364036A9D60036ADA60036A01
S31500002A60196070BC704700BF10B41C4B1C4A1B6A2F
S31500002A701268C3F30264A240C3F30223DA40914210
S31500002A80844627D2002301E08C4209D901330A2B60
S31500002A9022FA03F4F8D149F640405DF8044B70473A
S31500002AA00120984080084FF48053DCF8201001E0A4
S31500002AB0013BF0D0CA6B9204FAD58B6C03F4007319
S31500002AC0034343F480738B64CCF80C4000205DF81C
S31500002AD0044B70471446FF20E5E700BF00E00140C5
S31500002AE0DC320020F0B402274468066A6468756C1C
S31500002AF0646845F4407524687564056A43EA020C07
S31500002B001CF0030FC5F8B0711ED00026012500F198
S31500002B103C07A760C0E90D62C0E90B310C4B80F899
S31500002B2028502360036A0332603389B2C2F38F02EE
S31500002B306360A181E2814368F0BC5B68D3E901125E
S31500002B401868096852681047A360024BE9E700BF9E
S31500002B50000028A0000018A0D0F83C321BB310B526
S31500002B60D0F8403204468C4684B0D3B193E80700CF
S31500002B700DF1100E0EE907009CE8070083E8070038
S31500002B80D4F8442218469A60D4F83C329847D4F8D0
S31500002B90403223B104AA12E9070083E8070004B013
S31500002BA010BD0B46ECE770472DE9F0471E46036A59
S31500002BB00446D86B00F48140802860D11746A27F76
S31500002BC0002A6AD0627A002A5ED14FF0020A606853
S31500002BD05A6CD0F804C0D0F81480DCF8040042F433
S31500002BE04072D0F800905A64236A0D46C3F8B0A12B
S31500002BF041EA08039B0755D004F13C0318464246B8
S31500002C0001F0CFFF01234544C9F80400C4E90B567F
S31500002C106363284B84F828A0C4F83880C9F80030CC
S31500002C20236A08F103086033C9F80830C8F38F082F
S31500002C30B3B2A9F80C30A9F80E8063685B685A68CD
S31500002C40186811689A6853689847054678BB6368A0
S31500002C50227F5B690AB903FB07F7012E226A18D99E
S31500002C604FF4807111611921226A5661206A3A4631
S31500002C70C3642046FFF7D6FE2846BDE8F08749F62E
S31500002C8042452846BDE8F08749F645452846BDE851
S31500002C90F087002111611821E8E749F644452846E6
S31500002CA0BDE8F0874FF02843C9F80410B6E71825A9
S31500002CB0E7E700BF000030A8F0B5036A0546DB6B06
S31500002CC00E4603F48143802B174683B00DD0194C72
S31500002CD001E0013C09D00121084601F017FB2B6AEF
S31500002CE0DB6B03F48143802BF3D131463A46284609
S31500002CF0FFF798FE6B6A0193019B190213D442F207
S31500002D0010740AE0013C12D00121084601F0FEFAD7
S31500002D106B6A0193019B1B0205D4019BDA07F1D56F
S31500002D20002003B0F0BD49F6474003B0F0BD1420C3
S31500002D3003B0F0BD404B4C00F8B51D46036ADE6B90
S31500002D4006F4814CBCF1800F22D1837F04463BB34D
S31500002D50174642680B4652692946FFF7C3FE0646E8
S31500002D60A0B96368227F5B690AB903FB07F7012DE7
S31500002D70226A11D94FF4807111611221226A5561BC
S31500002D80206A3A46C3642046FFF74CFE3046F8BD3B
S31500002D9049F642463046F8BD002111611121EFE7A0
S31500002DA049F644463046F8BD0022F8B54B680D4654
S31500002DB05B6804461B681A604B68D3E90112186801
S31500002DC012689047064608B13046F8BD01464FF4F2
S31500002DD01272204601F06EFE584B65602362EFF3D7
S31500002DE01087012282F3108855492B788868C3F131
S31500002DF00C0302FA03F320EA03038B608B6887F364
S31500002E001088236A00209E63236A4E4FC3F8C06170
S31500002E10236ADFF83CC1C3F8C02163684A491B7EB8
S31500002E2093420CBF40F2053240F21D32236A1A6407
S31500002E30AB68C4F83C32EB68C4F84002C4F84432CC
S31500002E40AA7F95F91A30120107EB030ED2B28EF85B
S31500002E5000234CF8234003F1C00251F822E060F34E
S31500002E60104E41F822E051F82220BFF35F8F4FF059
S31500002E70010E5A09920003F01F0302F1604202F5A7
S31500002E8061420EFA03F3C2F88031136095F91C30E3
S31500002E90834221DB95F820201F441201D2B287F825
S31500002EA000234CF8234003F1C00251F8227060F36E
S31500002EB0104741F8227051F82220BFF35F8F5A095C
S31500002EC0920003F01F030EFA03F102F1604303F5CB
S31500002ED06143C3F88011196095F91D30002B26DB7C
S31500002EE095F8212003F160411201D2B201F561414A
S31500002EF081F80023144A4CF8234003F1C00152F82C
S31500002F00210020F4803042F8210052F82120BFF33E
S31500002F105F8F01215A09920003F01F0302F16042FC
S31500002F2002F5614201FA03F3C2F88031136000230F
S31500002F30064AA37722603046F8BD00BF002009404C
S31500002F400040084000E100E000600040494844536A
S31500002F50B032002000232DE9F04101272024026A27
S31500002F6086B08377C2F8C031026A0E46C2F8C071D5
S31500002F70026AA7499464026A05469366026AC2F821
S31500002F80B031026AC2F8CC31026AC2F8E031FFF70A
S31500002F906BFD044618B1204606B0BDE8F0814CF240
S31500002FA0E0022B6A38461A654FF47A7101F0AEF9E1
S31500002FB0224621462846FFF77FFE04460028EAD12E
S31500002FC04FF4D57208212846FFF776FE14280446EA
S31500002FD0E1D049F647432A6A9842926900F0B980DF
S31500002FE0B2F5D57F00F0B5802B7AFF2B00F0078174
S31500002FF0002202212846FFF75FFE04460028CAD1B8
S315000030006B6803211F78284602373F043A46FFF7CC
S3150000301053FE04460028BED12A6A2B7A92690BB168
S31500003020170C3F043A4609212846FFF745FE044699
S315000030300028B0D12B6A297A9A6901921A6A0292FB
S315000030409A6A03921B6B04939DF812309B0900F059
S31500003050A680002940F0C98040F6FF74BDF808300C
S31500003060BDF80A00C3F3C2129DF80C3003F0030347
S315000030709B0243EA90139DF80D00A34200F00F0057
S3150000308000F01D8102320133934001228240520A30
S3150000309002FB03F32B6101233A4607212846AB6165
S315000030A0FFF70AFE044600287FF475AF039B58021B
S315000030B000F1B48057492846FFF7D6FC044600289D
S315000030C07FF469AF6B68102128465A69FFF7F4FD53
S315000030D0044600287FF45FAF6B683A4637212846DE
S315000030E05F78FFF7E9FD044600287FF454AF4621D8
S315000030F02846C7F34102FFF7DFFD044600287FF4A8
S315000031004AAF082F00F0DD80A7F10101B1FA81F185
S315000031104909890044F2E0032A6A43EA4133136508
S315000031206B685A7E32B12A6A926BC2F3C01282F081
S3150000313001026A725B696B612EB105F108070FCF58
S315000031400FC63B68336001232046AB7706B0BDE867
S31500003150F08140F60677DFF8C08002E0013F3FF4D9
S3150000316043AF002237212846FFF7A6FD0446002874
S315000031707FF411AF424669212846FFF79DFD0446BC
S3150000318000287FF408AF2B6A9B69002B4FEA136275
S31500003190E4DA0123C2F380122A772B7228E7012092
S315000031A09DF80C30BDF80A2003F003039B0243EAA6
S315000031B09213BDF808409DF80D20C4F3C21402F026
S315000031C00F02904002345A1C400AA24000FB02F251
S315000031D02A61B9B19DF808309DF8072003F03F0336
S315000031E05B0043EAD213013356E7012B7FF453AF5A
S315000031F0029BC3F3152301339B022B614BE749F670
S315000032004044C8E640F6FF729342E3D12961E1E704
S31500003210801A060040787D010080FF40402201218F
S31500003220284605F13C03FFF75DFC00287FF442AF1A
S3150000323040224FF4F94C2B6A4FF6F17418612B6A51
S315000032400621DA642B6A98632B6AD863686248F2AF
S31500003250FF002A6A136C23F0010343F0040313648E
S315000032602B6AC3F844C02A6A936C43F44073936490
S315000032702B6A9C602B6AD8602B6A19606B6A009374
S31500003280009B19023FF516AF0F4C0CE0013C3FF4D2
S3150000329011AF0121084601F039F86B6A0093009BD3
S315000032A01B023FF507AF009B5A07EFD595F84C3048
S315000032B003F00F030F2B3FF4FDAE0449FBE6296133
S315000032C0E9E6012126E700BFA086010080F0FA02A8
S315000032D070B5D0E90C129142044690F8283084B0BB
S315000032E012D0012B31D0022BE56AA66B39D0D4E976
S315000032F00C230133354493426363E56208BF94F8B7
S31500003300283001D004B070BD012BFBD10025C4E9E3
S315000033100C556368E56284F82850A5635B689A6873
S315000033201868136998472023226A2046C2F8B051CC
S31500003330D4F8442201A90392ADF80A50CDF80650FC
S31500003340ADF80430FFF708FCDCE7826B04F13C01C2
S31500003350C06A01F026FC94F82830E56A022BA66BB9
S31500003360C5D13246294604F13C0001F01AFCBEE7FD
S31500003370F0B585B0EFF3038300224949103B5EB2F6
S3150000338051F82640CDE90122236A0392196948F2D1
S315000033907F3062F300011961226A936BD56B03F0EB
S315000033A00503D94305409163E943226AD80743EAF6
S315000033B00545D16312D50822ADF80420226A1169A9
S315000033C0C9054CBF916A916902911168262957D0A7
S315000033D0116C21F0040141F001011164314F2F40BD
S315000033E0002F31D15B0715D4636AA27F2B4363623A
S315000033F01AB1BDF80430002B4DD12B4A06F1C0039B
S3150000340052F8231021F4803142F8231052F8233069
S3150000341005B0F0BD94F82830012BE5D0C4E90C774F
S315000034206368E76284F82870A7635B689A6818681F
S3150000343013699847BDF8043043F02003ADF8043013
S31500003440236AC3F8B071CFE700270122BDF8043024
S3150000345045F4000543F04003ADF80430236A1A61D1
S31500003460C4E90C776368E76284F82870A7635B6831
S315000034709A68186813699847236AC3F8B071B3E766
S31500003480D26B02F48142802A0CBF88224FF48472E8
S31500003490ADF80420A2E7204601A9FFF75DFBACE7E3
S315000034A0B032002000007F8000600040002230B56E
S315000034B085B0CDE901220392EFF303831649103B51
S315000034C05CB251F82400056AAB6B13F4847F03D019
S315000034D082770122ADF8042013F4047F05D0BDF8ED
S315000034E0042042F00202ADF8042003F44673DB43E5
S315000034F0AB63D0F8443201A90393FFF72DFB074ACB
S3150000350004F1C00352F8231021F4803142F823104D
S3150000351052F8233005B030BDB032002000600040C4
S3150000352003460020C3E90512704700BF10B4046AC1
S31500003530A37803F07B03A3708378046A03F0030384
S31500003540D21A0B44C0E90332A37843F08003A37078
S31500003550837803F00303022B06D0036A0A7800205F
S31500003560DA705DF8044B70470B88026A43F47E43B9
S31500003570D38100205DF8044B704700BFF0B5846A24
S3150000358085B005460F4694466E46B4B194E80F00E2
S3150000359086E80F00EB6920461B78A760236084F855
S315000035A004C0EB6AE3606B6A9847AC6A1CB196E8A4
S315000035B00F0084E80F0005B0F0BD3446EAE700BF0F
S315000035C0012203460878824012F0060F05D0CA6928
S315000035D052681278120700F1CB8100224FF0010CDD
S315000035E000F580002DE9F04100F58C500002C3E99A
S315000035F007101A704D6998785D628D696CF3010049
S31500003600C3E90A2598704878D44C904214BF6546A1
S315000036100225987865F30100987091F90B5091F89E
S315000036200AE0680905F01F0620300CFA06F644F891
S315000036302060BFF34F8FBFF36F8FC94805F1C006F7
S3150000364050F8267062F3104740F8267050F826604E
S31500003650C44E4FEA0E1E67195FFA8EFE87F800E326
S3150000366046F8253091F9055091F804E06F0905F008
S315000036701F0820370CFA08F844F82780BFF34F8F4D
S31500003680BFF36F8F05F1C00750F8278062F310482B
S3150000369040F8278050F827704FEA0E1E67195FFA28
S315000036A08EFE87F800E346F8253091F9075091F829
S315000036B006E06F0905F01F0820370CFA08F844F8F1
S315000036C02780BFF34F8FBFF36F8F05F1C00750F808
S315000036D0278062F3104840F8278050F827704FEA99
S315000036E00E1E67195FFA8EFE87F800E346F825304E
S315000036F091F9095091F808E06F0905F01F08203785
S315000037000CFA08F844F82780BFF34F8FBFF36F8F8A
S3150000371005F1C00750F8278062F3104840F827806B
S3150000372050F827004FEA0E10C0B22C4484F800036C
S3150000373046F82530EFF310868CF310884FF00045DD
S315000037400C788948E540446824EA050444604068EA
S3150000375086F31088186A8270186A0271186A4272B3
S31500003760186A8272186AC272186A428340F2F93283
S3150000377008780CFA00FC1CEA020F02D040201A6AF4
S31500003780D0740625012240F2F9301C6A25770C78A0
S31500003790A240024240F0CA80CA7848788C78D200AB
S315000037A0032842EA041200F0D58000280CBFE2206C
S315000037B0F2201C6AD2B222701A6A9071CC69227BFE
S315000037C0082A00F0C380186A520002F0020242730F
S315000037D000256278A078D201400100F02000D2B224
S315000037E00243186A0572207802380128186A40F2E6
S315000037F0A280D2B2C27160681A6A84785470457821
S31500003800147865F301041470C4789474D47900783C
S3150000381004F0A30400F05C002043D0710020C3E94B
S315000038200300C3E90500DC694D4A94F90540CD69FA
S3150000383004F1C00152F8216095F800C060F310460B
S3150000384042F821600CF0030C52F82110BFF35F8F91
S315000038504FF0010E6109890004F01F0401F1604177
S3150000386001F561410EFA04F4C1F880410C60D96992
S3150000387091F90B4004F1C00152F8216060F3104643
S3150000388042F8216052F82110BFF35F8F6109890069
S3150000389004F01F0401F160410EFA04F401F56141E0
S315000038A0C1F880410C60D96991F9074004F1C00163
S315000038B052F8216060F3104642F8216052F8211058
S315000038C0BFF35F8F6109890004F01F0401F16041B5
S315000038D00EFA04F401F56141C1F880410C60D96922
S315000038E091F9091001F1C00452F8246060F3104602
S315000038F042F8246052F82420BFF35F8F4A099200F1
S3150000390001F01F0102F160420EFA01F102F5614277
S31500003910C2F8801111601A6A4CF0700C82F802C06D
S315000039206989124A19815A60BDE8F0814FF47840DE
S315000039301A6A908230E7FF2545702078022808BF72
S3150000394042F01002186AD2B2C27167E70A201A6AF8
S3150000395050733DE7F22042F040022AE700E100E022
S3150000396000600040B03200200040084055494353F3
S3150000397003207047EFF30383103B1F4A5BB203F14A
S31500003980C00152F8210020F4803042F8210052F89C
S3150000399021201A4A52F82300C3691B6983B10369BF
S315000039A003B17047026A0021937803F07F0343F066
S315000039B004039370436AC160C3B18022FFF7DEBD82
S315000039C00369026A002BEED08378C16803F0030313
S315000039D0022B0CD00B78D3708278D0E9031302F057
S315000039E003029B1A1144C0E90313D9E770470B88F9
S315000039F043F47E43D381EFE700600040B0320020FD
S31500003A0010B582B0EFF30383103B1F4A5BB203F19C
S31500003A10C00152F8210020F4803042F8210052F80B
S31500003A2021201A4A52F82340A27802F00303022BFF
S31500003A30236A0CBF198A5979A3690CBFC1F308011F
S31500003A40C9B2019143B9636AB3B10422204602B0F8
S31500003A50BDE81040FFF792BD02F0030201A96069BC
S31500003A6001F09FF8D4E90521A37803F003031A4473
S31500003A70C91AC4E9052109B102B010BD636A002B59
S31500003A80FAD00122E2E700BF00600040B032002019
S31500003A9010B5EFF303830E4A103B5CB252F82400D4
S31500003AA0026A937803F07B039370436A1BB1022288
S31500003AB00021FFF763FD074A04F1C00352F8231003
S31500003AC021F4803142F8231052F8233010BD00BF94
S31500003AD0B03200200060004010B5EFF303831A4AAD
S31500003AE0103B5CB252F82400837803F00303022BE8
S31500003AF0036A0CBF198A597993F804C00CBFC1F345
S31500003B000801C9B21CF0100F0CF0380206D093F869
S31500003B101CC01CF0010F08BF42F0400293F804C01D
S31500003B200CF0C70C83F804C0436A0BB1FFF726FDFF
S31500003B30064A04F1C00352F8231021F4803142F8FA
S31500003B40231052F8233010BDB03200200060004030
S31500003B502DE9F84F0388DBB182464FF0000B4FF09A
S31500003B600109DFF8D0800024304D4FEACB07DAF8A0
S31500003B70043035F8022BD919898891420AD00134CC
S31500003B80032CF4D1BAF800300BF1010B5B45EAD8EF
S31500003B90BDE8F88FDB5909FA04F603F0B853B3F120
S31500003BA0807FF6B298F8BB3413D0334231D1204A25
S31500003BB004F1200612F81630DB09E0D012F81630B0
S31500003BC0012123F08003C82002F8163000F09EFB86
S31500003BD0D5E7334211D0164A04F1200112F811300C
S31500003BE0DB09CCD112F81130C82043F0800302F86B
S31500003BF01130012100F08AFBC1E7012000F064FCCE
S31500003C0098F8BB340120334388F8BB3400F02CFC11
S31500003C10E1E7012000F058FC98F8BB34012023EAC4
S31500003C20060388F8BB3400F01FFCC0E7CCB30100E4
S31500003C300030084000E00140F8B50646FFF788FF6F
S31500003C40EFF31082012383F31088234F3B681BB9DF
S31500003C502249CB704023CB703B6801333B6082F333
S31500003C601088338823B300211D4D08E01B0113443F
S31500003C7045F82340328801318BB29A4218D97368CD
S31500003C8053F8314003EBC1029288E0034FEA122356
S31500003C90D2B2EBD502EB031055F820E024F4803CB9
S31500003CA02EF4803E45F820E01B0145F820C0DEE7F3
S31500003CB0EFF31082012383F310883B6813B13B684E
S31500003CC0013B3B603B681BB980200449CB70C87040
S31500003CD082F31088F8BD00BFAC320020000D08400A
S31500003CE00008084008B5034B03600846FFF7A4FF29
S31500003CF0002008BD54524F50034609019B6841F00D
S31500003D000101C9B200205977704700BF00238268BD
S31500003D1018465377704700BF034601229B68002070
S31500003D201A77704730B44FF480654FF480340346F9
S31500003D308D600C609C684FF6FF72B4F810C0E468A2
S31500003D401CF4404F18BF2A464C609B68002030BCCC
S31500003D509B689BB2C1E90223704700BF06207047EB
S31500003D6003460020D9605A61704700BF30B4002472
S31500003D704268124D526803461178A03145F8214039
S31500003D8081680C77D168A9B14FF0010C92F9011046
S31500003D900B4D480901F01F0120300CFA01F145F8DE
S31500003DA02010BFF34F8FBFF36F8F064992F90120A2
S31500003DB041F822400020186030BC70470060004087
S31500003DC000E100E0B03200202DE9F047002643680C
S31500003DD06B4A5C682378A03342F8236083681E77B9
S31500003DE023786589A03342F8235083685E77CA78C2
S31500003DF091F802809646C8F3810CC2F381074FEA18
S31500003E008C1C9309CD894CEA873C0EF0C0079B03B6
S31500003E10C2F30112802FADB243EA022308D0402F2D
S31500003E2006D0C02F00F0A380B24643F400530AE048
S31500003E308A8905EB0545C8F3001625F0FC251FFA0F
S31500003E4082FA43EA063366890EB143F00103C66877
S31500003E50CEB318F0200F5BD1102694F9017094F8B8
S31500003E6002E007F160484FEA0E1EDFF818915FFA8C
S31500003E708EFE08F5614888F800E3DFF804E149F8AA
S31500003E80270007F1C0085EF8289029F480394EF81B
S31500003E9028905EF828E0BFF35F8F4FF001084FEAE5
S31500003EA0571E4FEA8E0E07F01F070EF1604E0EF5F5
S31500003EB0614E08FA07F7CEF88071CEF8007091F8D7
S31500003EC003E00EF0C007C02F27D04FF0000EF046DB
S31500003ED087681FFA8CFCC7F8288087689BB2C7F8EA
S31500003EE02CE08768A7F814C087683B824F68836810
S31500003EF01F6083688968596083689D608368C3F81A
S31500003F000CA0836862689A618368DE74BDE8F087F6
S31500003F10C02F14BF1C2610269FE70EF00C07B1F821
S31500003F200CE0B1F80E80042F1FFA8EFE1FFA88F9F6
S31500003F3008BFF0468F7818BFB4F8088007F00C0762
S31500003F4008BF4CF4005C042F82684F6818BF1EFB44
S31500003F5009F917628F68826814BF1FFA89FE4CF050
S31500003F60200C08EB08480EEB0E4E5762B0E78A8924
S31500003F7005EB054525F0FC251FFA82FA63E700BF2D
S31500003F8000600040B032002038B500254A68416024
S31500003F901378044603F1012340339B018360D36801
S31500003FA0C3605369C0E90453EFF3108E4FF0010C60
S31500003FB08CF31088084B1A6822F480021A601B687A
S31500003FC08EF31088054B83F800C00968FFF7FCFEE6
S31500003FD0034B2846236038BD00400840005200408D
S31500003FE043414D4410B50446FFF7EEFE0122A36897
S31500003FF000201A7710BD00BF0346002230B459686E
S31500004000084D4C6810462178A03145F82120996862
S315000040100A7721786489A03145F821409B685A7750
S3150000402030BC70470060004030B482B0019100920D
S3150000403000224168134D4C682178A03145F82120B3
S3150000404081680A7721786489A03145F82140816822
S315000040504A77019A12B1019982681160009A12B1E9
S315000040608268009951608268118A11F4404F14BF2A
S31500004070D36093608368012200201A7702B030BCB7
S31500004080704700BF0060004010B582B0EFF30383B5
S31500004090103B0D4A5BB203F1C00152F8210020F437
S315000040A0803042F8210052F82120084A01A852F82F
S315000040B023406269E36801929847A368DA680AB107
S315000040C001221A7702B010BD00600040B032002015
S315000040D0064B074993F826001A6A51F82030C2F3B6
S315000040E002620449D3400B60704700BF00E0014004
S315000040F000210020DC320020704700BFF8B54AF2EC
S31500004100035001234549464AA1F8FE03A2F80431AB
S31500004110B2F804319BB2002BFAD101204FF40045CE
S315000041204FF0090C3F4CDFF818E13F4EC4F804E0AD
S31500004130DFF810E13D4FC4F80CE0A2F800013C4A5C
S315000041403649B06030602760A5602561626191F8EC
S315000041502620086A54F82220364EC0F30260C24078
S31500004160326081F8133481F8A2C091F880341BB90B
S3150000417091F8813499074CD0284D95F88034002B5E
S315000041803CD00022254B83F8812483F88024002329
S31500004190224981F8323091F83C301A07FBD543F2B8
S315000041A0021000231D4A088581F82A3092F83C3017
S315000041B09B06FBD50320052319494FF0F10C81F826
S315000041C01C011D49116282F8263092F82630156AC4
S315000041D054F82300C5F30264E04030600123F02464
S315000041E04FF42540154981F80CC00B720C7382F808
S315000041F0303082F85230A2F8FE03F8BD0121C82003
S3150000420085F8801400F082F895F88034012BFBD1F4
S31500004210B7E74FF47A70FFF76FFFB8E700E00140A9
S3150000422000C001400021002000700040002D310137
S3150000423000C2EB0BDC3200202112012000200040DE
S3150000424000127A0000366E0138B50025284C01218F
S31500004250C82084F8285000F059F884F8245094F8BF
S315000042602430002BFBD194F82430214943F002037B
S3150000427084F8243091F82430C3F340009B07F9D426
S315000042801B4A81F8220092F8223003F0FF00002B2F
S31500004290F9D192F84030164960F3C71382F84030DE
S315000042A091F84030DB09FBD191F84200104A63F3E4
S315000042B0C71081F8420092F84230DB09FBD192F830
S315000042C044000B4963F3C71082F8440091F8443068
S315000042D0C3F3C014DB09F9D1012000F0F5F8054B52
S315000042E0012083F8BB44BDE8384000F0BDB800BFEC
S315000042F00030084000E00140704700BF00BEFEE706
S31500004300A0F101000028FBD1704700BF1F4B204AD7
S315000043101B6800FB01F1934213D302F1854202F5BB
S31500004320071203F5741302F6834203F6FF03A2FB9A
S3150000433003231B0DA3FB01314FF0FF30F9B1FFF74B
S31500004340DFBF4FF47A7210B4A1FB02C41148B0FB70
S31500004350F3F34FF0FF3044B9BCFBF3FC4FEA9C008B
S3150000436088B15DF8044BFFF7CBBF9B00B1FBF3F1BF
S31500004370A1FB0212002AF4D1084620B1F1E7184643
S31500004380002BDCD170475DF8044B7047DC3200200F
S3150000439000127A0000CA9A3B70B500240B4B0C4EF3
S315000043A0B3F82021B3F84051ADB2154025FA04F315
S315000043B0DB0704D556F82430E0B203B19847013440
S315000043C0102CF3D1014BA3F8305170BD00600040B2
S315000043D06C32002030B5032085B000F075F800255A
S315000043E06FF0FF004FF0FF321B4B1C4C98642146C8
S315000043F02B464FF0010ECDE90122039231F8020F50
S315000044000EFA03FC013310B1012522EA0C02072B38
S31500004410F4D1F5B10192124B0F4903200A67C3F894
S315000044208022029A4A67C3F88422039A8A67C3F8ED
S31500004430882200F019F800230A4834F8022F03F105
S31500004440C00101330AB140F82120072BF5D105B090
S3150000445030BD4FF0FF32DEE700800040BAB3010006
S3150000446000E100E000600040EFF31081012383F3D8
S315000044701088124B33F8102092B22AB133F810206C
S31500004480013A92B223F8102033F810309BB293B958
S3150000449010B40B4A0B4CB2F8FE3334F810009BB242
S315000044A043F4254323EA0003A2F8FE3381F3108880
S315000044B05DF8044B704781F310887047CC320020BA
S315000044C000E00140D8B4010030B4EFF310810123BD
S315000044D083F310880E4A32F810309BB26BB90D4C3C
S315000044E00D4DB4F8FE3335F810C09BB243EA0C0309
S315000044F043F425439BB2A4F8FE3332F8103001335F
S315000045009BB222F8103081F3108830BC704700BF90
S31500004510CC32002000E00140D8B4010008B50949BA
S315000045200A688318B3F5805F03D807480B60104408
S3150000453008BD00F02DFB0C2203461A604FF0FF3039
S3150000454008BD00BFD83200200001002000BE704721
S3150000455008B500F035F8FEF75FFAFEE7F8B5174F35
S3150000456005463E68A6B17C6806EB460604EB860661
S3150000457002E00C34B4420BD0637AAB42F9D1D4E9F1
S3150000458000020021121A0C3400F094FAB442F3D15E
S31500004590BE6896B1FC6804EB061602E01034A6422B
S315000045A00BD0637BAB42F9D1D4E90002A168121AA1
S315000045B0103400F0F6FAA642F3D1F8BD00B40100BB
S315000045C04FF47001274B284A70B50020C3F88810B5
S315000045D09A60FEF711FAFFF791FD0120FEF70CFA3B
S315000045E0224B83F30A880020FFF7B8FFFFF770FD20
S315000045F0FFF72AFE0320FFF767FF00234FF6FF7041
S315000046001B4903F1080201330C2B21F81200F8D1E3
S3150000461000240320FFF728FF0320FFF755FF154B63
S3150000462003205C609C60DC601C61FFF71DFF0220BC
S31500004630FEF7E2F90120FFF791FF0F4D0F4B5B1BD1
S31500004640A3424FEAA30605DD55F8043B013498471B
S31500004650A642F9DCFFF7BEFEBDE870400020FFF77A
S315000046604BBE00BF00ED00E000000000001100207E
S31500004670000D084000000E4070B5010074B5010041
S31500004680002310B504468360818119464366C281C2
S3150000469008228361C0E90033C0E904335C3000F0CE
S315000046A009FA0D4B246263620C4BA3620C4BE36266
S315000046B00C4B23630C4B9C4206D003F168029442D8
S315000046C002D0D0339C4205D104F15800BDE8104019
S315000046D000F064BA10BD00BFE548000007490000BD
S315000046E03F49000063490000E0320020024A0349C6
S315000046F0034800F069B800BF880000205954000044
S315000047009800002041680C4B994210B5044601D030
S3150000471000F0A2FEA168094B994202D0204600F0A3
S315000047209BFEE168064B994204D02046BDE8104046
S3150000473000F092BE10BD00BFE032002048330020DA
S31500004740B033002010B50B4B04210B4C0B4A20460E
S315000047501A600022FFF794FF04F168000122092184
S31500004760FFF78EFF04F1D00002221221BDE81040AF
S31500004770FFF786BF18340020E0320020ED46000027
S31500004780014800F00CBA00BF21340020014800F0B7
S3150000479007BA00BF2134002010B50446FFF7F0FF2A
S315000047A0236A1BB1BDE81040FFF7F0BF044B23623C
S315000047B0044B1B68002BF5D1FFF7C4FFF2E700BFDF
S315000047C005470000183400202DE9F84307468846BF
S315000047D014460026D4E90195B9F1010905D52468E6
S315000047E0002CF7D13046BDE8F883AB89012B07D9F9
S315000047F0B5F90E30013303D029463846C047064383
S315000048006835E9E70FB407B5064904AB086853F8FD
S31500004810042B8168019300F0F3FA03B05DF804EB12
S3150000482004B0704794000020036A70B505460E4632
S3150000483084680BB9FFF7B0FF636EDB0705D4A38965
S31500004840980502D4A06D00F0AAF9A389190702D52C
S315000048502369002B35D12146284600F0C5F880B3E0
S315000048604FF0FF35636EDA0705D4A3899B0502D4A2
S31500004870A06D00F095F9284670BD002B04DAA269F8
S315000048809A4217DC0A2915D023685A1C226019702F
S31500004890A36816F8011F013BA3600029EDD1002B88
S315000048A011DA22460A21284600F05FF80130D7D0F7
S315000048B00A25D7E72246284600F057F80130E7D107
S315000048C0CEE7013EE4E723685A1C22600A221A70EA
S315000048D0EEE70000024B01461868FFF7A5BF00BFD0
S315000048E09400002010B50C46B1F90E1000F02CF91A
S315000048F00028ABBF636DA3891B1823F48053ACBF9C
S315000049006365A38110BD2DE9F0411F468B890546DD
S315000049100C46DB05164605D502230022B1F90E101A
S3150000492000F000F9A3893246B4F90E10284623F4A4
S315000049308053A3813B46BDE8F04100F017B910B59E
S315000049400C46B1F90E1000F0EDF8431CA38915BF13
S31500004950606523F4805343F48053A38118BFA38179
S3150000496010BDB1F90E1000F0CDB8F8B50E461446DC
S31500004970054618B1036A0BB9FFF70EFFA369A360DA
S31500004980A3891A0701D5236943B92146284600F0B1
S315000049902BF818B14FF0FF373846F8BD2368F6B24A
S315000049A022693746981A6369834205DC2146284600
S315000049B000F052FD0028EDD1A368013BA3602368F7
S315000049C05A1C22601E70431C62699A4204D0A38955
S315000049D0DB07E1D50A2EDFD12146284600F03CFD53
S315000049E00028D9D0D6E7000038B5294B05460C4635
S315000049F0186818B1036A0BB9FFF7CEFEB4F90C308C
S31500004A00190722D4DA0607D409222A6043F04003A4
S31500004A104FF0FF30A38133E0580712D5616B41B1E7
S31500004A2004F14403994202D0284600F0C7F8002357
S31500004A306363A38923F02403A381002363602369AE
S31500004A402360A38943F00803A38123694BB9A38993
S31500004A5003F42073B3F5007F03D02146284600F007
S31500004A6048FDB4F90C3013F001020AD00022A2600E
S31500004A7062695242A261226942B913F08000C5D12F
S31500004A8038BD990758BF6269A260F4E70020F7E7CE
S31500004A90940000200139024410B5904201D1002053
S31500004AA005E0037811F8014FA34201D0181B10BD91
S31500004AB00130F2E702440346934200D1704703F8FF
S31500004AC0011BF9E7C9B20346184613F8012B12B1C8
S31500004AD08A42F9D17047002918BF0020704710B5E7
S31500004AE06AB10139841810F8012B11F8013F9A4276
S31500004AF003D1A04201D0002AF5D1D01A10BD10462C
S31500004B00FCE7000038B50023054D044608462B6037
S31500004B10FBF76AFB431C02D12B6803B1236038BD47
S31500004B201C34002038B50446064D084611460022BE
S31500004B302A601A46FBF766FB431C02D12B6803B1B9
S31500004B40236038BD1C34002038B50446064D08469F
S31500004B50114600222A601A46FBF7B2FB431C02D11B
S31500004B602B6803B1236038BD1C34002038B50446D9
S31500004B70064D0846114600222A601A46FBF78EFBB0
S31500004B80431C02D12B6803B1236038BD1C340020BE
S31500004B90014B1868704700BF9400002070477047AB
S31500004BA070470A44431E914200D1704710B511F870
S31500004BB0014B914203F8014FF9D110BD38B50546B6
S31500004BC0002941D051F8043C0C1F002BB8BFE41853
S31500004BD000F0E0F81D4A136833B963601460284694
S31500004BE0BDE8384000F0DCB8A34208D92068211897
S31500004BF08B4201BF19685B6809182160EDE71A4608
S31500004C005B680BB1A342FAD911685018A0420BD1C8
S31500004C1020680144501811608342E0D118685B682F
S31500004C20084453601060DAE702D90C232B60D6E7FC
S31500004C30206821188B4202BF19685B6809186360F7
S31500004C4008BF21605460CAE738BD00BF2834002081
S31500004C5070B50F4E0C460546316811B900F0A8FC38
S31500004C6030602146284600F0A3FC431C03D14FF0D8
S31500004C70FF34204670BDC41C24F00304A042F8D0C3
S31500004C80211A284600F094FC0130F2D1EFE700BF6C
S31500004C90243400202DE9F843CD1C064625F00305F3
S31500004CA008350C2D38BF0C25002D01DBA94204D98F
S31500004CB00C2333600020BDE8F883DFF8D48000F0D1
S31500004CC069F8D8F800301C4644BB29463046FFF741
S31500004CD0BFFF431C044658D1D8F800402746002F92
S31500004CE043D1002C4BD023683946304604EB0309E8
S31500004CF000F05EFC814542D1216830466D1A294696
S31500004D00FFF7A6FF01303AD023682B442360D8F87A
S31500004D1000305A6862BBC8F800700FE02268521B68
S31500004D2020D40B2A17D96119A342256018BF5960F0
S31500004D30636808BFC8F8001062514B60304600F047
S31500004D402FF804F10B00231D20F00700C21A1CBF28
S31500004D501B1AA350AFE76268A3420CBFC8F8002035
S31500004D605A60EBE723466468AEE73C467F68B6E7E1
S31500004D701A465B68A342FBD100235360DEE70C238F
S31500004D803046336000F00CF894E70560D6E700BFC4
S31500004D90283400200148FFF702BF00BF203400205E
S31500004DA00148FFF7FDBE00BF203400209368013B99
S31500004DB0002B10B4936008DA9469A34201DB0A2938
S31500004DC003D15DF8044BFFF7D0BD1368581C106083
S31500004DD0084619705DF8044B7047F8B506460F464D
S31500004DE01446D518AC4201D1002007E03A4614F823
S31500004DF0011B3046FFF7DAFF431CF3D1F8BD000074
S31500004E002DE9F04F0D469DB014469846064618B15A
S31500004E10036A0BB9FFF7C0FC6B6ED90705D4AB89E3
S31500004E209A0502D4A86DFFF7BAFEAB891B0701D518
S31500004E302B699BB929463046FFF7D6FD70B16B6EDC
S31500004E40DC0704D54FF0FF301DB0BDE8F08FAB890D
S31500004E509805F7D4A86DFFF7A3FEF3E70023CDF876
S31500004E600C804FF00109DFF8B481099320238DF8F7
S31500004E70293030238DF82A3023469A4613F8012B21
S31500004E800AB1252AF9D1BAEB040B0BD05B462246B0
S31500004E9029463046FFF7A1FF013000F0A780099AA6
S31500004EA05A4409929AF80030002B00F09F800023A4
S31500004EB04FF0FF320AF1010A049307938DF853303D
S31500004EC01A93CDE9052354460522544814F8011BCC
S31500004ED000F07EFB049AD8B9D10644BF20238DF892
S31500004EE05330130744BF2B238DF853309AF8003004
S31500004EF02A2B15D0079A544600204FF00A0C21465B
S31500004F0011F8013B303B092B4BD9B0B1079214E0A5
S31500004F10A0EB0803A24609FA03F313430493D2E76E
S31500004F20039B191D1B68002B0391BBBF5B4242F01C
S31500004F30020207930793B8BF049223782E2B0AD157
S31500004F4063782A2B32D1039B02341A1D1B6843EA6D
S31500004F50E37303920593DFF8D4A003222178504629
S31500004F6000F036FB38B1A0EB0A004022049B013466
S31500004F7082401343049314F8011B062228488DF837
S31500004F80281000F025FB00283FD0264B1BBB039BB7
S31500004F90073323F0070308330393099B3B44099324
S31500004FA06AE70CFB02320C460120A8E70023013415
S31500004FB04FF00A0C19460593204610F8012B303A9B
S31500004FC0092A03D9002BC6D00591C4E70CFB0121A1
S31500004FD004460123F0E703AB2A4604A930460093B2
S31500004FE0114BAFF300800746781CD6D16B6ED907FC
S31500004FF005D4AB899A0502D4A86DFFF7D1FDAB891C
S315000050005B063FF51FAF09981EE703AB2A4604A9C6
S3150000501030460093044B00F07DF8E4E7E2B401006B
S31500005020ECB4010000000000DB4D0000E8B4010014
S315000050302DE9F047164698468A6807460B690C46DE
S31500005040DDF820909342B8BF1346336091F84320B1
S315000050500AB1013333602368990642BF33680233CD
S315000050603360256815F0060506D104F1190AE368D0
S3150000507032689B1AAB422BDC94F843302268003B23
S3150000508018BF0123920630D404F143024146384644
S31500005090C847013023D023681A3454F80A2C03F089
S315000050A00603042B0ABF54F80E5C002533684FF044
S315000050B0000608BFED1A54F8123C08BF25EAE5754C
S315000050C09342C4BF9B1AED18B5421AD1002008E0DE
S315000050D00123524641463846C847013003D14FF0B6
S315000050E0FF30BDE8F0870135C1E7E1185A1C3020D2
S315000050F00233224481F8430094F8451082F84310A5
S31500005100C2E70123224641463846C8470130E6D069
S315000051100136D9E72DE9FF470F7E914680460C46BA
S31500005120782F9A460C9E01F1430207D8622F0AD8BF
S31500005130002F00F0D180582F00F0B88004F142060D
S3150000514084F842703AE0A7F16303152BF6D801A163
S3150000515051F823F0AD510000C15100003D5100004F
S315000051603D5100003D5100003D510000C15100007D
S315000051703D5100003D5100003D5100003D510000F1
S31500005180BF520000EB510000795200003D51000073
S315000051903D510000E15200003D510000EB5100007E
S315000051A03D5100003D5100008152000033681A1D38
S315000051B01B68326004F1420684F8423001239CE009
S315000051C033682068191D3160060601D51D6803E0A5
S315000051D04506FBD5B3F90050002D03DA2D236D42A9
S315000051E084F8433058480A2311E0216833680806DA
S315000051F053F8045B02D4490648BFADB26F2F336043
S31500005200514814BF0A230823002184F84310666816
S31500005210002EA66005DB21682E4321F004012160E3
S315000052204BD01646B5FBF3F103FB1157C75D06F8E5
S31500005230017D2F460D46BB42F4D9082B0BD12368BE
S31500005240DF0708D5236961689942DEBF302306F877
S31500005250013C06F1FF36921B22614B4603AA21460A
S315000052604046CDF800A0FFF7E3FE01304AD14FF0EB
S31500005270FF3004B0BDE8F087236843F020032360C5
S3150000528078273248236884F845701F06316851F83C
S31500005290045B02D45F0648BFADB23160D90744BF94
S315000052A043F0200323601DB11023ADE72648E9E74C
S315000052B0236823F020032360F6E71646BDE733682C
S315000052C02568181D616930602E061B6801D51960B6
S315000052D002E06806FBD51980002316462361BCE769
S315000052E0336800211A1D32601E686268304600F07D
S315000052F06FF908B1801B606063682361002384F83E
S315000053004330AAE72369324649464046D047013032
S31500005310ADD023689B0713D4E068039B9842B8BFBF
S315000053201846A6E70123324649464046D047013093
S315000053309DD00135E36803995B1AAB42F2DCEBE7DB
S31500005340002504F11906F5E7F3B4010004B50100E0
S31500005350B1F90C202DE9F041160705460C4654D448
S315000053604B68002B02DC0B6C002B48DDE66A002E36
S3150000537045D0002312F480522F68216A2B6030D06A
S31500005380626DA389590705D56368D21A636B0BB1A1
S31500005390236CD21A0023E66A216A2846B047431CCA
S315000053A0A38906D129681D292BD82A4ACA40D607BF
S315000053B027D50022D90462602269226004D5421CE6
S315000053C001D12B6803B96065616B2F60B9B104F137
S315000053D04403994202D02846FFF7F0FB002363639B
S315000053E00DE001232846B0470246501CC9D12B6860
S315000053F0002BC6D01D2B01D0162B1DD12F600020EF
S3150000540021E043F040031BB21AE00F69002FF6D0EB
S3150000541093070E680F600CBF4B690023A6EB0708C5
S315000054208B60B8F1000FEADD43463A46216A28460A
S31500005430A66AB047002808DCB4F90C3043F04003F4
S315000054404FF0FF30A381BDE8F0810744A8EB0008C8
S31500005450E7E700BF0100402038B50B6905460C465A
S3150000546013B90025284638BD18B1036A0BB9FFF7F2
S3150000547093F9B4F90C30002BF3D0626ED00704D444
S31500005480990502D4A06DFFF78AFB28462146FFF74F
S315000054905FFF636E0546DA07E4D4A3899B05E1D472
S315000054A0A06DFFF77DFBDDE770B50C46B1F90E1078
S315000054B096B0154600291E460CDAA389002113F082
S315000054C0800F14BF40234FF48063002031602B60AF
S315000054D016B070BD6A4600F049F80028EDDB019968
S315000054E001F47041A1F50053594259414FF48063CC
S315000054F0EBE78B89F7B59D0706460C4607D504F101
