S01200005350495F5354373733352E737265634A
S31500000000C00400200D300000712E000009300000F1
S3150000001009300000093000000930000009300000F6
S315000000200000000000000000000000000930000091
S31500000030093000000000000009300000093000000F
S31500000040D51700004917000065180000AD1800001C
S3150000005009270000191E0000B11D00008D1E0000BA
S30900000060CD1E0000AB
S3150000006401000000400035000000100800000000F8
S31500000074000000000000000000000800000000006E
S315000000840000000000000000000000000300000063
S315000000944C8A00205C000020000000004C8A0020EE
S315000000A4B48A00201C8B0020000000000000000021
S315000000B40000000000000000000000000000000036
S315000000C40000000000000000000000000000000026
S315000000D40000000000000000000000000000000016
S309000000E40000000012
S315000000E80348044B834202D0034B03B118477047B9
S315000000F8A8000020A800002000000000064B0749C1
S31500000108C91A891048BF0131491003D0044B0BB1F5
S3150000011801481847704700BFA8000020A800002023
S315000001280000000010B5064C237843B9FFF7D8FF46
S31500000138044B13B10448AFF300800123237010BDAC
S31500000148E00400200000000084A2000108B5054B69
S315000001581BB105490548AFF30080BDE80840FFF725
S31500000168CDBF00BF00000000E404002084A2000107
S31500000178022801D80120704708B503F021FA0922A0
S3150000018803461A60002008BD022801D800207047DF
S3150000019808B503F015FA092203461A604FF0FF3036
S315000001A808BD00BF08B503F00BFA092203461A601A
S315000001B84FF0FF3008BD00BF022808B504D84FF439
S315000001C8005300204B6008BD03F0FAF909230360C9
S315000001D8002008BD08B50649064801F0D7F800B959
S315000001E808BD0F21044B054A054802F0EFFD00BF84
S315000001F86842000044890020643A0000603B000021
S31500000208783A00000379022B15D0042B04D0012B71
S3150000021810D10B4A1370704700B583B0836801226A
S315000002280DF1070107488DF8073001F065F803B0AE
S315000002385DF804FB70470122034B1A70704700BF34
S31500000248FD04002044890020FC04002010B506485F
S31500000258144601F051F805490B78002BFCD0002311
S315000002680B70204610BD00BF44890020FC04002006
S3150000027810B50648144601F039F805490B78002BE5
S31500000288FCD000230B70204610BD00BF4489002017
S31500000298FD04002010B5054C0549204602F02EF84D
S315000002A82046BDE8104002F005B800BF748900205A
S315000002B89C420000014B1868704700BF00050020EB
S315000002C808B1037903B17047024A13680133136012
S315000002D800F07ABF0005002000F0F6BB40EA010CEA
S315000002E81FFA8CFCBCF17F0F0CD830B5FF2B0446E7
S315000002F80D4683B008D02946204600F049FB002069
S3150000030803B030BD02207047019200F039FB019A14
S315000003188242F0D1D2432946204692B200F038FBF9
S31500000328EDE700BF402A28BF40222DE9F04F89B0EB
S31500000338BDF84840834606949DF84C408A46079483
S31500000348684C1F462488944259D000219146664B32
S315000003585000C0F1030001930FFA82FE1980884607
S315000003680B460A46614C00B2CDF808901FE0BCF176
S31500000378800F00F0AD8085B2B3B2002805F10606FD
S3150000038824F82CE0A9F8022006EB810628DB4FF0BA
S315000003980108A2EB0E020A350EF1FF3E414405EBB9
S315000003A882050FFA8EFE0AB2724528B21FDC03F1E7
S315000003B8010C1FFA8CFC802B04EB830504EB8C09DB
S315000003C803F1020679D0964524F82320A5F802E021
S315000003D8CDDC85B2AE1D0028634606EB8106D6DA6B
S315000003E84FF0010841440AB2724530B2DFDDDDF84C
S315000003F808903C4AA2F80090019A138004E03A4B10
S3150000040801931B88002B60D007F0010307F004094D
S3150000041807F00808029307F00203CDE90498DDE91E
S3150000042806890025314C03930EE0039B03BB049B0E
S315000004385BBB059B002B35D1019B01351A88ABB2F6
S315000004489A4204F1040440D9029BB4F90060B4F955
S315000004580270002BE9D0AAEB07010BEB06004B460E
S31500000468424609B200B2FFF739FF039B002BDED0E4
S31500000478AAEB0701ABEB06004B46424609B200B2AF
S31500000488FFF72CFF049B002BD3D00AEB0701ABEB3D
S3150000049806004B46424609B200B2FFF71FFF059B0E
S315000004A8002BC9D00AEB07010BEB06004B46424668
S315000004B809B200B2FFF712FFBEE7DDF80890B8F1FF
S315000004C8000F96D1074BA3F8009009B0BDE8F08F4E
S315000004D8044BDDF80890A3F80090019BA3F800C030
S315000004E892E700BF06070020040700200405002045
S315000004F82DE9F0431C46154681460F4683B0BDF8E4
S3150000050828809DF82C604346009600F04FFA013586
S315000005182246013C4346394648462DB224B2009647
S3150000052800F044FA4846434622462946009600F01B
S315000005388BFA3846434622462946009600F084FA46
S31500000548002003B0BDE8F08330B583B0BDF818408D
S315000005589DF81C501AB1CDE90045FFF7E3FE0020CF
S3150000056803B030BD2DE9F04F83B0BDF830A09DF83B
S3150000057834B0002B43D0203A1D46D3B25E2B3ED86A
S315000005886F68002F3BD06A788E4613FB02F3A97872
S3150000059801FB03F37AB38146002629781F44CDF878
S315000005A804E021B30024019B03EB06080FFA88F840
S315000005B8234603E00134E3B2994217D9AA78D8084A
S315000005C806FB0272125C03F0070342FA03F3DB0729
S315000005D8F0D509EB04005B464146524600B2FFF7E8
S315000005E87DFE01342978E3B29942E7D86A78013664
S315000005F8F3B29A42D5D8002003B0BDE8F08F0220A6
S3150000060803B0BDE8F08F00BF2DE9F043154692F917
S31500000618002083B0BDF828809DF82C70A2B10E4644
S31500000628994684B202E015F9012F6AB120B24B4609
S315000006383146CDE90087FFF795FF99F80000044495
S31500000648A4B220447F28EEDD002003B0BDE8F08385
S315000006582DE9F04F83B01E46BDF830E09DF83430E2
S31500000668002A4ED0002E4CD074688B46218800296B
S3150000067843D08246107803E034F8081F00293CD09E
S315000006882178814239D8F7D1617855788D4234D3AB
S31500000698F2D17178D4F8048069B3CDF804B0002794
S315000006A8F1469B46327812B30024019BDD192DB220
S315000006B8234603E00134E3B29A4217D9B178D80841
S315000006C807FB0181095C03F0070341FA03F3DB0723
S315000006D8F0D50AEB04005B464A46294600B2FFF706
S315000006E8FDFD01343278E3B29A42E7D871780137D2
S315000006F8FBB29942D7D8002000E0022003B0BDE83B
S31500000708F08F012003B0BDE8F08F00BF2DE9F04758
S3150000071882B0DDF82880BDF82C909DF830A032B361
S315000007281E4623B3B8F1000F21D00F46144685B2F2
S3150000073894F90020BAB1002A40DA22F01F034033A8
S3150000074819D022F00F0320331DD022F007021032F1
S315000007582CD033782B44802B05DC94F90120013406
S315000007689DB2002AE7D1002002B0BDE8F08701203B
S3150000077802B0BDE8F08798F800302B44802BF2DCF5
S3150000078802231C44D4E798F800302B44802BEADC7B
S315000007984346224628B23946CDE9009AFFF758FF64
S315000007A898F8003003342B449DB2C1E798F800301E
S315000007B82B44802BD7DC04231C44B9E733782B441D
S315000007C8802BD0DCA2F12001C9B25E29C5D83346F8
S315000007D83946CDE9009A28B2FFF7C4FE33782B4490
S315000007E8BBE700BF38B585786DB90446284625802D
S315000007F8A57000F039FD08B12580A0700020BDE87D
S31500000808384000F039BD38BD10B10023036083803D
S31500000818704700BF0379012B04BF014A1370704764
S315000008281C080020034630B5002283B040F60401B8
S3150000083814488DF8073001F09BFB002240F60301AF
S31500000848104801F095FB07230F4D0DEB030101221C
S315000008580E4801F0A5FA2B7853B90D4C00E03CB1CF
S315000008680121084602F0BAFA2B78013C002BF6D093
S315000008780023012240F6030102482B7001F078FBA1
S3150000088803B030BD3C8900201C0800209489002054
S31500000898A0860100034630B5012283B040F6040164
S315000008A814488DF8073001F063FB002240F6030177
S315000008B8104801F05DFB07230F4D0DEB03010122E4
S315000008C80E4801F06DFA2B7853B90D4C00E03CB197
S315000008D80121084602F082FA2B78013C002BF6D05B
S315000008E80023012240F6030102482B7001F040FB69
S315000008F803B030BD3C8900201C08002094890020E4
S3150000090820A1070038B505460C46012240F6040129
S31500000918174801F02DFB002240F60301144801F0A8
S3150000092827FB294607232246124801F039FA102CDC
S31500000938114D03D82B7883B9104C06E00F4A2B7853
S31500000948240902FB04F443B93CB10121084602F02C
S3150000095845FA2B78013C002BF6D000232B70012298
S31500000968BDE8384040F60301014801F001BB00BF6D
S315000009783C890020948900201C08002020A107003B
S31500000988024B00EBC11033F8100070472009002015
S3150000099840EA01039BB27F2B04D8034B00EBC1103E
S315000009A823F81020704700BF2009002081428C469A
S315000009B8A8BF84468142B8BF0146F0B51FFA8CFC31
S315000009C888B284459DF8145036D81E4C4FEAC21E8C
S315000009D80BE07F2903D80EEB0C0124F811300CF13B
S315000009E8010C1FFA8CFC604526D34CEA0201FF2D48
S315000009F889B2EED10EFA8CF634F816709F4210D0F2
S31500000A087F29E8D90CF1010C1FFA8CFC604513D339
S31500000A180EFA8CF634F816704CEA02019F4289B237
S31500000A28EED17F290CF1010707D8D9431FFA87FCB5
S31500000A38604524F81610EBD2F0BD1FFA87FC604516
S31500000A48E6D2F0BD200900208A4270B51646B8BF26
S31500000A580E468A42A8BF0A46B6B2B2429DF8105060
S31500000A6827DC184C0BE07F2998BF00EBC21102F176
S31500000A78010212B298BF24F81130B24219DC40EADA
S31500000A880201FF2D89B2EED100EBC21C34F81CE03E
S31500000A989E45E8D17F2902F1010E0BD80FFA8EF296
S31500000AA86FEA030E40EA0201964289B224F81CE076
S31500000AB8EADA70BD0FFA8EF2964240EA0201F8DBD6
S31500000AC889B2E1E7200900208446F0B14FF6FF73AA
S31500000AD8984220D0134800B500F5004E0022114672
S31500000AE86CF30F026CF30F01A0F580736CF31F42D1
S31500000AF86CF31F41C3E9002108338342FAD103F599
S31500000B0880707045EAD15DF804FB01464FF4004257
S31500000B18054802F007BD4FF40042FF21024802F0E3
S31500000B2801BD00BF200A0020200900204FF6FF72F1
S31500000B381049030210B401F1FE0C981E0E4C08442D
S31500000B489C4430F8021F13024A40120A34F8122055
S31500000B589BB25340C9B281EA132134F811201B0213
S31500000B689BB2844582EA0302EBD110465DF8044B3A
S31500000B78704700BF200900205C40000001232DE9D2
S31500000B88F04FDFF8209185B089F80030FFF782FB37
S31500000B983E4A01901378002B6FD1DFF80CA1DAF8E2
S31500000BA80030C31A4FF0000B394D5F46394CDFF859
S31500000BB8E880C9F8083004E0BBF1800F04F58074BA
S31500000BC842D05846FFF7B2FF35F8023F0BF1010B4A
S31500000BD8834206461FFA8BFBEED02A200397FFF7BF
S31500000BE821FE0220812304218DF80D0003A88DF82B
S31500000BF80F30FFF787FE2B20FFF714FE5FFA8BF303
S31500000C08042103A88DF80D308DF80F30FFF77AFE12
S31500000C182C20FFF707FE20461F4B03F5807C30F893
S31500000C28021F023303F8011C090A03F8021C634574
S31500000C38F5D14FF480714046FFF764FEBBF1800F93
S31500000C482E8004F58074BCD1FFF724FB019BC61ADD
S31500000C58C9F80460BEB107EE906ADFED106AF8EED7
S31500000C68677A86EEA77A002289ED037ACAF8000029
S31500000C7889F8002005B0BDE8F08F0021DFF828A02C
S31500000C880B4611708EE79FED067AECE724000020EC
S31500000C981E0800201E0900200807002000007A44CC
S31500000CA8000000000C0800200808002010B5A34921
S31500000CB8A34800F053FE002840F03A810446024655
S31500000CC840F20B519F4801F053F94FF47A716420B2
S31500000CD802F084F8012240F20B519A4801F048F9D3
S31500000CE84FF47A71642002F079F81120FFF79AFD23
S31500000CF84FF47A71642002F071F8B120FFF792FD83
S31500000D080120FFF7C7FD2C20FFF7C4FD2D20FFF7B4
S31500000D18C1FDB220FFF786FD0120FFF7BBFD2C20A1
S31500000D28FFF7B8FD2D20FFF7B5FDB320FFF77AFDD5
S31500000D380120FFF7AFFD2C20FFF7ACFD2D20FFF7B4
S31500000D48A9FD0120FFF7A6FD2C20FFF7A3FD2D2006
S31500000D58FFF7A0FDB420FFF765FD0720FFF79AFD12
S31500000D68C020FFF75FFDA220FFF794FD0220FFF7E2
S31500000D7891FD8420FFF78EFDC120FFF753FDC520A6
S31500000D88FFF788FDC220FFF74DFD0A20FFF782FD19
S31500000D982046FFF77FFDC320FFF744FD8A20FFF7B3
S31500000DA879FD2A20FFF776FDC420FFF73BFD8A2050
S31500000DB8FFF770FDEE20FFF76DFDC520FFF732FD4A
S31500000DC80E20FFF767FD2020FFF72CFD3A20FFF7DE
S31500000DD829FD0520FFF75EFD2A20FFF723FD2046A3
S31500000DE8FFF758FD2046FFF755FD2046FFF752FD51
S31500000DF87F20FFF74FFD2B20FFF714FD2046FFF756
S31500000E0849FD2046FFF746FD2046FFF743FD7F20B4
S31500000E18FFF740FDE020FFF705FD0220FFF73AFD4A
S31500000E281C20FFF737FD0720FFF734FD1220FFF7D8
S31500000E3831FD3720FFF72EFD3220FFF72BFD292045
S31500000E48FFF728FD2D20FFF725FD2920FFF722FDB6
S31500000E582520FFF71FFD2B20FFF71CFD3920FFF784
S31500000E6819FD2046FFF716FD0120FFF713FD0320A5
S31500000E78FFF710FD1020FFF70DFDE120FFF7D2FC6C
S31500000E880320FFF707FD1D20FFF704FD0720FFF7E6
S31500000E9801FD0620FFF7FEFC2E20FFF7FBFC2C20A9
S31500000EA8FFF7F8FC2920FFF7F5FC2D20FFF7F2FCE9
S31500000EB82E20FFF7EFFC2E20FFF7ECFC3720FFF77C
S31500000EC8E9FC3F20FFF7E6FC2046FFF7E3FC204657
S31500000ED8FFF7E0FC0220FFF7DDFC1020FFF7DAFC45
S31500000EE81320FFF79FFC4FF47A71322001F076FF4A
S31500000EF82920FFF797FC4FF47A71322001F06EFF34
S31500000F083620FFF78FFC0820FFF7C4FC4FF4004299
S31500000F1821460D4802F006FB0C4B1B780BB9FFF770
S31500000F282DFEBDE810404FF47A71642001F056BFDB
S31500000F389E21074B074A084801F048FF1443000062
S31500000F48948900203C890020200900200C080020F4
S31500000F58643A00004C400000983A0000024B1B78A7
S31500000F6803B17047FFF70ABE0C080020F0B5002051
S31500000F7885B0FFF7B1F900247A2305221F214FF423
S31500000F887847CDE9001410461946FFF7B1FACDE9BE
S31500000F9801744FF4FC67104D104E2B461421104A6D
S31500000FA800962D20FFF7B2FBCDE900744FF6E077E7
S31500000FB82B4632210B4A0A20FFF726FB46212B46F1
S31500000FC8CDE90174084A00960A20FFF79FFB05B091
S31500000FD8BDE8F040FFF7C2BFD03B0000703B000001
S31500000FE8443B0000B03A0000C43A00002DE9F04145
S31500000FF8002084B00024FFF76FF97A2305224FF604
S315000010081F0140F2FF764FF4FC67CDE90014104645
S315000010181946FFF76DFACDE901644FF6E076224DE1
S31500001028DFF894802B461421204ACDF800802D2025
S31500001038FFF76CFB2B463221CDE900741C4A0A20C7
S31500001048FFF7E2FA2B464621CDE90164194ACDF8A5
S3150000105800800A20FFF75AFB40214FF4784001230D
S31500001068CDE900041E220846FFF76EFA4021022346
S315000010781E220846CDE90074FFF766FA40211F20B4
S315000010880423CDE900041E220846FFF75DFA402135
S3150000109808231E220846CDE90064FFF755FA04B076
S315000010A8BDE8F041FFF75ABFD03B0000343B0000D3
S315000010B8D83A0000EC3A0000703B000010B50F4C1F
S315000010C82046FFF78FFBA37843B1012B0ED0022BE6
S315000010D805D0BDE810400948FFF796BB10BDFFF7DD
S315000010E845FFBDE810400548FFF78EBBFFF77EFFBA
S315000010F8BDE810400148FFF787BB00BF20890020E4
S31500001108F0B5002085B0FFF7E7F800247A2305221A
S315000011184FF6FF714FF4FC67CDE9001410461946E7
S31500001128FFF7E6F9CDE9017440F2FF77194D1A4E3B
S315000011382B461421194A00961E20FFF7E7FA2B467C
S315000011482D21CDE90074164A0820FFF75DFA4FF6FF
S315000011581F033C21CDE90034124A2B460820FFF72D
S3150000116853FA4FF6E0735521CDE901340E4A2B4662
S3150000117800960F20FFF7CAFA69212B46CDE90174BC
S315000011880A4A00960F20FFF7C1FA05B0BDE8F040FD
S31500001198FFF7E4BED03B0000703B0000003B0000B8
S315000011A80C3B00001C3B00002C3B00003C3B0000B5
S315000011B800220121034BC3E90022C3E902221A6176
S315000011C8197170472889002070B5254C82B0A57C16
S315000011D80DB102B070BDFFF76DF861880DF1070219
S315000011E8064620488DF8075000F098FE9DF807102F
S315000011F86279B1FA81F35B096374032A2CD8DFE8B4
S3150000120802F0141B240269B1E268B61A132E09D932
S31500001218A0680021121AB2F5487F2CBF02220122CB
S315000012286171A274237402B070BD0029FAD101223B
S31500001238A66062712374F6E7A268B21A132AF1D976
S3150000124851B9022223746271EDE70029EAD003221C
S31500001258E66062712374E6E7002223746271E2E7AE
S31500001268288900203C89002010B9024B987C7047D9
S31500001278002070472889002008B9014B98747047E8
S315000012882889002008B50D4B0D48596800F0AEFFB7
S31500001298FFF700F8FEF79EFFFFF708FDFFF730FFA0
S315000012A8FFF786FF074802F05DF8FFF707FF4FF4E0
S315000012B87A710A2001F092FDF7E700BF5C42000050
S315000012C83C8900204C3B0000022800D070470249A8
S315000012D8024800F08BBF00BF6C4300003C89002029
S315000012E808B5FFF7CFFF002008BD00BF0346002062
S315000012F8C3E90512704700BF10B4046AA37803F067
S315000013087B03A3708378046A03F00303D21A0B44A1
S31500001318C0E90332A37843F08003A370837803F00F
S315000013280303022B06D0036A0A780020DA705DF8F8
S31500001338044B70470B88026A43F47E43D38100202E
S315000013485DF8044B704700BFF0B5846A85B0054662
S315000013580F4694466E46B4B194E80F0086E80F002F
S31500001368EB6920461B78A760236084F804C0EB6A03
S31500001378E3606B6A9847AC6A1CB196E80F0084E88C
S315000013880F0005B0F0BD3446EAE700BF0122034668
S315000013980878824012F0060F05D0CA69526812789A
S315000013A8120700F1CB8100224FF0010C00F58000F6
S315000013B82DE9F04100F58C500002C3E907101A70B8
S315000013C84D6998785D628D696CF30100C3E90A2559
S315000013D898704878D44C904214BF65460225987890
S315000013E865F30100987091F90B5091F80AE06809C5
S315000013F805F01F0620300CFA06F644F82060BFF305
S315000014084F8FBFF36F8FC94805F1C00650F8267095
S3150000141862F3104740F8267050F82660C44E4FEA2B
S315000014280E1E67195FFA8EFE87F800E346F8253028
S3150000143891F9055091F804E06F0905F01F08203767
S315000014480CFA08F844F82780BFF34F8FBFF36F8F65
S3150000145805F1C00750F8278062F3104840F8278046
S3150000146850F827704FEA0E1E67195FFA8EFE87F846
S3150000147800E346F8253091F9075091F806E06F0920
S3150000148805F01F0820370CFA08F844F82780BFF340
S315000014984F8FBFF36F8F05F1C00750F8278062F3AF
S315000014A8104840F8278050F827704FEA0E1E671933
S315000014B85FFA8EFE87F800E346F8253091F9095061
S315000014C891F808E06F0905F01F0820370CFA08F8AC
S315000014D844F82780BFF34F8FBFF36F8F05F1C0071E
S315000014E850F8278062F3104840F8278050F8270004
S315000014F84FEA0E10C0B22C4484F8000346F8253093
S31500001508EFF310868CF310884FF000450C78894865
S31500001518E540446824EA05044460406886F3108878
S31500001528186A8270186A0271186A4272186A827298
S31500001538186AC272186A428340F2F93208780CFABD
S3150000154800FC1CEA020F02D040201A6AD074062555
S31500001558012240F2F9301C6A25770C78A240024233
S3150000156840F0CA80CA7848788C78D200032842EAC4
S31500001578041200F0D58000280CBFE220F2201C6A75
S31500001588D2B222701A6A9071CC69227B082A00F0BE
S31500001598C380186A520002F002024273002562787C
S315000015A8A078D201400100F02000D2B20243186AA6
S315000015B80572207802380128186A40F2A280D2B251
S315000015C8C27160681A6A847854704578147865F32D
S315000015D801041470C4789474D479007804F0A304D0
S315000015E800F05C002043D0710020C3E90300C3E982
S315000015F80500DC694D4A94F90540CD6904F1C0013E
S3150000160852F8216095F800C060F3104642F8216050
S315000016180CF0030C52F82110BFF35F8F4FF0010E48
S315000016286109890004F01F0401F1604101F5614177
S315000016380EFA04F4C1F880410C60D96991F90B409F
S3150000164804F1C00152F8216060F3104642F82160A7
S3150000165852F82110BFF35F8F6109890004F01F0457
S3150000166801F160410EFA04F401F56141C1F88041C7
S315000016780C60D96991F9074004F1C00152F821605C
S3150000168860F3104642F8216052F82110BFF35F8FCD
S315000016986109890004F01F0401F160410EFA04F49F
S315000016A801F56141C1F880410C60D96991F90910C9
S315000016B801F1C00452F8246060F3104642F8246031
S315000016C852F82420BFF35F8F4A09920001F01F01E8
S315000016D802F160420EFA01F102F56142C2F8801188
S315000016E811601A6A4CF0700C82F802C06989124AB5
S315000016F819815A60BDE8F0814FF478401A6A9082E1
S3150000170830E7FF2545702078022808BF42F010020E
S31500001718186AD2B2C27167E70A201A6A50733DE79F
S31500001728F22042F040022AE700E100E000600040B3
S31500001738188A002000400840554943530320704743
S31500001748EFF30383103B1F4A5BB203F1C00152F863
S31500001758210020F4803042F8210052F821201A4A4C
S3150000176852F82300C3691B6983B1036903B1704743
S31500001778026A0021937803F07F0343F00403937011
S31500001788436AC160C3B18022FFF7DEBD0369026AFE
S31500001798002BEED08378C16803F00303022B0CD02C
S315000017A80B78D3708278D0E9031302F003029B1AF0
S315000017B81144C0E90313D9E770470B8843F47E4305
S315000017C8D381EFE700600040188A002010B582B088
S315000017D8EFF30383103B1F4A5BB203F1C00152F8D3
S315000017E8210020F4803042F8210052F821201A4ABC
S315000017F852F82340A27802F00303022B236A0CBF97
S31500001808198A5979A3690CBFC1F30801C9B20191B4
S3150000181843B9636AB3B10422204602B0BDE810405A
S31500001828FFF792BD02F0030201A9606901F0D1FE3B
S31500001838D4E90521A37803F003031A44C91AC4E9B5
S31500001848052109B102B010BD636A002BFAD0012246
S31500001858E2E700BF00600040188A002010B5EFF3E9
S3150000186803830E4A103B5CB252F82400026A93784E
S3150000187803F07B039370436A1BB102220021FFF732
S3150000188863FD074A04F1C00352F8231021F480319E
S3150000189842F8231052F8233010BD00BF188A0020E2
S315000018A80060004010B5EFF303831A4A103B5CB2A0
S315000018B852F82400837803F00303022B036A0CBF53
S315000018C8198A597993F804C00CBFC1F30801C9B243
S315000018D81CF0100F0CF0380206D093F81CC01CF050
S315000018E8010F08BF42F0400293F804C00CF0C70C81
S315000018F883F804C0436A0BB1FFF726FD064A04F1D4
S31500001908C00352F8231021F4803142F8231052F80C
S31500001918233010BD188A00200060004030B5436AA5
S3150000192885B004468C4601ADABB193E8070085E85F
S31500001938070062681846127883F804C01A60A26A1B
S315000019489A60236A9847636A1BB195E8070083E89B
S31500001958070005B030BD2B46EBE700BF00222DE996
S31500001968F04F0B7883B003F5800303F58C531B0205
S31500001978416083608B690D460362CB690446C0E902
S3150000198809234B6993B14FF400215A681268116014
S3150000199859688268096805324A60D3E901121868ED
S315000019A8126890470646002840F033812B6993B1A8
S315000019B84FF000615A68126811605968A268096890
S315000019C803328A60D3E901121868126890470646FE
S315000019D8002840F028816068026A817A92F902300C
S315000019E892F802C0002B437AAABF4FF0FF0C4FF0C3
S315000019F8040E4FF0000E012B18BF002792F8018045
S31500001A0812BFB94602274FF0050908F00308012955
S31500001A18C37A48F0800800F00081012B14BF49F012
S31500001A28800949F0C009437B002B0CBFEA26E22651
S31500001A38EFF3108A012383F310884FF0004B0178E7
S31500001A487E482BFA01FB416821EA0B014160416897
S31500001A588AF3108800204FF0840A5FFA89F14FF460
S31500001A6878490191A1685FFA88F88870A16891F8A9
S31500001A7804B081F804A0A168A1F81490A16881F8BF
S31500001A880080A1688F70A16840278E711678A268B9
S31500001A98019956700226A26882F812C0A26882F8D6
S31500001AA807E0A2685173A26865491072A26850726D
S31500001AB8A2689072A268D072A2685083A268D7748E
S31500001AC8A268604F167795F805C095F901205E4E15
S31500001AD84FEA0C1C06EB020E5FFA8CFC8EF800C36C
S31500001AE847F8224002F1C00C51F82CE060F3104E82
S31500001AF841F82CE051F82CC0BFF35F8F4FEA521C17
S31500001B084FEA8C0C02F01F020CF1604C03FA02F249
S31500001B180CF5614CCCF88021CCF8002095F806C06D
S31500001B2895F902204FEA0C1C06EB020E5FFA8CFCB4
S31500001B388EF800C347F8224002F1C00C51F82CE099
S31500001B4860F3104E41F82CE051F82CC0BFF35F8FBC
S31500001B584FEA521C4FEA8C0C02F01F020CF1604C43
S31500001B6803FA02F20CF5614CCCF88021CCF800207F
S31500001B7895F807C095F903204FEA0C1C06EB020EF0
S31500001B885FFA8CFC8EF800C347F8224002F1C00CBD
S31500001B9851F82CE060F3104E41F82CE051F82CC0B7
S31500001BA8BFF35F8F4FEA521C4FEA8C0C02F01F02FC
S31500001BB80CF1604C03FA02F20CF5614CCCF880216A
S31500001BC8CCF8002095F808C095F904204FEA0C15C2
S31500001BD81644EDB286F8005347F8224002F1C005D4
S31500001BE851F8256060F3104641F8256051F8251034
S31500001BF8BFF35F8F02F01F015209920002F16042A3
S31500001C088B4002F56142C2F88031136006460F4BDD
S31500001C182360304603B0BDE8F08F002B7FF403AF96
S31500001C2849F04009FFE66B69002BF2D09A681868FC
S31500001C38136A9847304603B0BDE8F08F0040084065
S31500001C4800600040188A002000E100E05349435331
S31500001C58F8B51D4683689B7813F0300342D1C0E976
S31500001C680533C0E903124368C56116461A69044676
S31500001C78D2B145611B69AAB258680068C2810029B9
S31500001C8832D04FF0020C5A681268D0786CF3830091
S31500001C98D0705A68126851605A68186811689A684C
S31500001CA853689847E8B963685A6952B14EB1A56155
S31500001CB85B693246996818688E68ABB20021B047EE
S31500001CC878B92369002B4BD063681A69002A49D072
S31500001CD8F021A26893780B43937063681A6972B10E
S31500001CE80020F8BD0820F8BD5A682B4F1268D07836
S31500001CF861F38300D0705A6812685760CCE75A6956
S31500001D08002AEDD12269002AEAD0012193F901308F
S31500001D1822485A0903F01F03203201FA03F340F858
S31500001D282230BFF34F8FBFF36F8F6369E269934227
S31500001D3807D2D4E9021252B3D35CCB70636901337C
S31500001D4863616268517A012912D092F90130012241
S31500001D5803F01F0011495B09824041F82320BFE7C1
S31500001D68A021B6E75B69002B14BFF0217021B0E70C
S31500001D78E1690129E9D99942E7D9D4E9021242B1C0
S31500001D88D35CCB706369626801336361DDE7CA704F
S31500001D98D4E7CA70F6E700BFD089002000E100E06A
S31500001DA813460022FFF754BFEFF30383103B164A8E
S31500001DB85BB203F1C00152F8210020F4803042F8EA
S31500001DC8210052F82120114A52F823305A69D9695C
S31500001DD88A4208D2D3E9020199B18A5CC2705A696B
S31500001DE8D96901325A618A4200D070471A69002AB5
S31500001DF8FBD19A68937803F07B0343F0040393704E
S31500001E087047C170EBE700BF00600040188A0020E9
S31500001E18EFF30383103B194A5BB203F1C00152F892
S31500001E28210020F4803042F8210052F82120144A7B
S31500001E3852F823305969DA69914208D2D3E9020285
S31500001E48D2B1525CC2705969DA690131596199692E
S31500001E58914207D24A1C98689A6140791A69505487
S31500001E68D3E90612914206D19A68937803F03B03A8
S31500001E7843F0040393707047C270E4E700600040C3
S31500001E88188A002010B5EFF303830C4A103B5CB2A6
S31500001E9852F8240001218268937803F003039370B3
S31500001EA8FFF73CFD064A04F1C00352F8231021F45B
S31500001EB8803142F8231052F8233010BD188A0020CA
S31500001EC80060004010B5EFF303834FF0840C0E4A10
S31500001ED8103B5CB252F8240004218268937803F020
S31500001EE80303937083681A7983F804C0FFF716FD15
S31500001EF8064A04F1C00352F8231021F4803142F84F
S31500001F08231052F8233010BD188A002000600040C4
S31500001F180022034610461A60704700BF10B40B0A29
S31500001F28064C1B0153FA81F154F821300020C3F303
S31500001F3840035DF8044B1370704700BF0008084063
S31500001F48090A490101F1804101F500214B68002089
S31500001F5813807047090A490123EA020C01F18041FE
S31500001F681A4001F5002142EA0C4200208A607047B7
S31500001F780120CBB2984080B202B900040B0A5B017B
S31500001F8803F1804303F5002398600020704700BFE3
S31500001F9810B4090A490101F1804101F500210C68D4
S31500001FA802EA030C4CEA040C62EA030202EA0C0297
S31500001FB80A6000205DF8044B704700BF090A490112
S31500001FC801F1804101F500214B680020C3F30F435E
S31500001FD813807047012310B44FEA112C4FEA4C1CAA
S31500001FE80CF1804C0CF5002CDCF80440C9B28B408F
S31500001FF899B203EA14435B1AB3FA83F35B09002028
S315000020085DF8044B13707047090A490123EA020C6C
S3150000201801F180411A4001F5002142EA0C420020F4
S31500002028CA607047012010B40B0A5B0103F18043B4
S3150000203803F50023C9B2DC6800FA01F1012A4FEA68
S3150000204801400DBF84438C4304430C43DC600020ED
S315000020585DF8044B704700BF2DE9F84F0388DBB1E4
S3150000206882464FF0000B4FF00109DFF8D0800024BC
S31500002078304D4FEACB07DAF8043035F8022BD91978
S31500002088898891420AD00134032CF4D1BAF8003079
S315000020980BF1010B5B45EAD8BDE8F88FDB5909FA65
S315000020A804F603F0B853B3F1807FF6B298F8BB3460
S315000020B813D0334231D1204A04F1200612F81630E3
S315000020C8DB09E0D012F81630012123F08003C8207E
S315000020D802F8163000F082FED5E7334211D0164AD0
S315000020E804F1200112F81130DB09CCD112F81130B5
S315000020F8C82043F0800302F81130012100F06EFE7B
S31500002108C1E7012000F048FF98F8BB3401203343AB
S3150000211888F8BB3400F010FFE1E7012000F03CFF2F
S3150000212898F8BB34012023EA060388F8BB3400F08C
S3150000213803FFC0E7EC4300000030084000E0014020
S31500002148F8B50646FFF788FFEFF31082012383F3FD
S315000021581088234F3B681BB92249CB704023CB70AC
S315000021683B6801333B6082F31088338823B3002130
S315000021781D4D08E01B01134445F823403288013100
S315000021888BB29A4218D9736853F8314003EBC102EF
S315000021989288E0034FEA1223D2B2EBD502EB031082
S315000021A855F820E024F4803C2EF4803E45F820E0E3
S315000021B81B0145F820C0DEE7EFF31082012383F305
S315000021C810883B6813B13B68013B3B603B681BB911
S315000021D880200449CB70C87082F31088F8BD00BF10
S315000021E8148A0020000D08400008084008B5034B73
S315000021F803600846FFF7A4FF002008BD54524F505D
S3150000220808B50846FFF79CFF002008BD70B50126F3
S3150000221886B001AB03A80C4615460493ADF80C60CE
S31500002228ADF808100192FFF717FFEFF3108286F357
S3150000223810881D490B681BB940261C48C370C67018
S315000022480B6801330B6082F31088EA034FEA142304
S31500002258E4B219D41B01164A234442F82350EFF37B
S315000022681082012383F310880B6813B10B68013BB6
S315000022780B600B681BB980200C49CB70C87082F3C1
S315000022881088002006B070BD094A04EB031052F806
S3150000229820601B0126F4803642F8206025F480363B
S315000022A842F82060D7E700BF148A0020000D0840D6
S315000022B80008084003460020D3E90223536070470C
S315000022C870B5836984B004468C46164601AD9BB149
S315000022D893E8070085E8070083F804C09E60E26972
S315000022E818461A6063699847A3691BB195E8070001
S315000022F883E8070004B070BD2B46EDE7F0B501266C
S3150000230803460025087C596006FA00F010F00F0F06
S31500002318D8600CBF304628461874087CC04A024468
S3150000232812029A604A695A618A69C3E90652CC69F7
S31500002338EFF3108786F310884FF00046087CB94AF9
S31500002348C640106920EA06001061126987F31088F2
S315000023584FF425409A684FF0004610609A68D56297
S315000023689A68D5639A6895640D780A7A032D4FF0B2
S3150000237800059F684FEAC25208BF42F48032486897
S31500002388FA629A68013816619F682A467E619F68D4
S31500002398BE619E6875629E68B5629D68A669EE61B3
S315000023A89D68E6692E629D68A8669D686866586895
S315000023B8266DC56995F8480005F1300CD040C00770
S315000023C80DD5032A5CF8220015D0042A20D09F6870
S315000023D802F1120E013807EB8E0ECEF80400013218
S315000023E8062A1DD095F84800D040C007F7D5032A1D
S315000023F85CF82200E9D19A680138D06595F848005A
S31500002408C20640F171810422042ADCF81000DED1EC
S315000024189A680138906595F84820920600F1668119
S315000024280022986882639868C0F88820226D3AB9B5
S3150000243894F8212094F82000520742EA40321643C5
S3150000244894F848200325002A14BF4FF4A0074FF438
S31500002458AA0701209A6817649A6856639A681563EA
S315000024689A681063D3E90225D56091F91220002AEB
S3150000247824DB497C02F1604509016B4EC9B205F5BA
S31500002488614585F80013694946F8223002F1C0050E
S3150000249851F8256026F4803641F8256051F8251054
S315000024A8BFF35F8F02F01F015209920002F16042EA
S315000024B8884002F56142C2F88001106094F928202C
S315000024C8002A27DB94F8221002F160400901C9B2FC
S315000024D800F5614080F800135348544940F822300B
S315000024E802F1C00051F8205025F4803541F82050FB
S315000024F851F82010BFF35F8F01205109890002F0BF
S315000025081F0201F1604101F5614100FA02F2C1F8CA
S3150000251880210A6094F92920002A27DB94F82310E1
S3150000252802F160400901C9B200F5614080F8001364
S315000025383D483E4940F8223002F1C00051F820508B
S3150000254825F4803541F8205051F82010BFF35F8FED
S3150000255801205109890002F01F0201F1604101F5CD
S31500002568614100FA02F2C1F880210A6094F92A2032
S31500002578002A27DB94F8241002F160400901C9B249
S3150000258800F5614080F800132748284940F82230B2
S3150000259802F1C00051F8205025F4803541F820504A
S315000025A851F82010BFF35F8F01205109890002F00E
S315000025B81F0201F1604101F5614100FA02F2C1F81A
S315000025C880210A6094F92B20002A31DB94F8251023
S315000025D802F160400901C9B200F5614080F80013B4
S315000025E81148124940F8223002F1C00051F8205033
S315000025F825F4803541F8205051F82010BFF35F8F3D
S3150000260801205109890002F01F0201F1604101F51C
S31500002618614100FA02F2C1F880210A6008E000BFB1
S315000026289016400000400840188A002000600040CC
S3150000263894F92C20002A27DB94F8261002F1604032
S315000026480901C9B200F5614080F8001329482A49F2
S3150000265840F8223002F1C00051F8205025F48035A8
S3150000266841F8205051F82010BFF35F8F012051091F
S31500002678890002F01F0201F1604101F5614100FA8B
S3150000268802F2C1F880210A6094F92D20002A27DB7E
S3150000269894F8271002F160400901164CC9B200F5FA
S315000026A8614080F80013144944F8223002F1C00052
S315000026B851F8204024F4803441F8204051F8201085
S315000026C8BFF35F8F01205109890002F01F0201F153
S315000026D8604101F5614100FA02F2C1F880210A6001
S315000026E8064A00201A60F0BD052267E60522DCF8D6
S315000026F814006CE6188A0020006000405450470019
S315000027082DE9F041EFF30383103B7B4C59B201F1FD
S31500002718C00E54F82E2022F4803244F82E208A0067
S3150000272802F1804202F5C042D2F80003734850F81D
S315000027382100456895F800C0ED69BCF1010F09D084
S3150000274843692BB1BDE8F04100221146FFF7B8BD39
S31500002758BDE8F0814FF00008D0E90276BE608668D1
S3150000276803F0FF03C6F848808668C6F84C8086687A
S31500002778C6F8508054F82E7068F3104744F82E7047
S31500002788D2F80023BFF35F8F5D4A490903F01F03A0
S315000027980CFA03F3603142F8213095F84830D9072E
S315000027A803D595F92810414576DA9B0704D595F99E
S315000027B82930002B80F2888095F92A30002B53DACD
S315000027C895F92B30002B37DA95F92C30002B1BDACC
S315000027D895F92D30002BB3DB474A03F1C00152F8B7
S315000027E8214024F4803442F8214052F82120BFF3D6
S315000027F85F8F01215A09424C03F01F03603201FA28
S3150000280803F344F822309BE73B4A03F1C00152F830
S31500002818214024F4803442F8214052F82120BFF3A5
S315000028285F8F01215A09364C03F01F03603201FA03
S3150000283803F344F82230CBE72F4A03F1C00152F8DC
S31500002848214024F4803442F8214052F82120BFF375
S315000028585F8F01215A092A4C03F01F03603201FADF
S3150000286803F344F82230AFE7234A03F1C00152F8D4
S31500002878214024F4803442F8214052F82120BFF345
S315000028885F8F01215A091E4C03F01F03603201FABB
S3150000289803F344F8223093E701F1C00354F8237098
S315000028A868F3104744F8237054F82330BFF35F8F5A
S315000028B84C0901F01F010CFA01F304F1600142F81A
S315000028C8213095F8483070E70B4A03F1C00152F8F9
S315000028D8214024F4803442F8214052F82120BFF3E5
S315000028E85F8F01215A09064C03F01F03603201FA73
S315000028F803F344F822305FE700600040188A00209E
S3150000290800E100E0844630B482B0019100921D498E
S3150000291890F904201C4D51F82200C03255F82210B7
S315000029281A4C21F0807145F822109CF9041041F4E4
S315000029380041E28992B29142FBD008222274019AA0
S315000029480AB1019A4260009A0AB1009A8260C27876
S3150000295802F0C001802913D03F2A98BFC3811822EC
S3150000296800200A4B08491A749CF90430C03351F800
S31500002978232042F0807241F8232002B030BC704711
S315000029888381ECE70000002000600040005400400E
S315000029980620704706207047034693F90430054918
S315000029A8C03351F82320002042F0807241F82320DA
S315000029B8704700BF00600040034693F9043005499C
S315000029C8C03351F82320002022F0807241F82320DA
S315000029D8704700BF00600040002290F90400124BC7
S315000029E853F82030C1E90022DA783F2A0CD94FF48F
S315000029F880728A60DA89D2B2CA60DA7802F0C002D6
S31500002A08802A09D0002070474FF480328A60DB891B
S31500002A1800209BB2CB6070474FF480320A609B89D6
S31500002A2800209BB24B6070470000002006207047CC
S31500002A38062070470346002230B593F904C0074CB8
S31500002A480CF1C00E54F82E10054D21F0807144F893
S31500002A582E1045F82C201A60104630BD0060004044
S31500002A680000002030B5864690F904301C4DC0336E
S31500002A7855F823201B4C22F0807245F8232090F944
S31500002A88042042F40042E3899BB29A42FBD00B46EB
S31500002A98DA789C463F2A05D9DA89D2B202EB0222B5
S31500002AA892B2DA819CF8022010333F2AF0D84FF010
S31500002AB8080C18220B4B0C4D83F810C09EF904C065
S31500002AC8074C45F82C101A749EF904300020C033C0
S31500002AD854F8232042F0807244F8232030BD00BF0A
S31500002AE8006000400054004000000020F8B5274A66
S31500002AF8044613780D4643B36B6893F90030002BF0
S31500002B083FDB234850F82320002A3CD123712D6847
S31500002B18BDB12B46DA7819463F2A05D9DA89D2B2E9
S31500002B2802EB022292B2DA818A7810333F2AF1D870
S31500002B3808211822174B197494F9041040F82150EB
S31500002B481A74154B00202360F8BD01261670EFF3A2
S31500002B58108086F31088114A116821F480011160EB
S31500002B68126880F310880A4F19462422384600F066
S31500002B78D9FC084B5F611E736B6893F90030002B14
S31500002B88BFDA0B20F8BD0820F8BD00BFD1890020A8
S31500002B980000002000540040004354440040084010
S31500002BA8064B074993F826001A6A51F82030C2F3F3
S31500002BB802620449D3400B60704700BF00E0014041
S31500002BC8C0040020488A0020704700BFF8B54AF2C2
S31500002BD8035001234549464AA1F8FE03A2F80431E9
S31500002BE8B2F804319BB2002BFAD101204FF400450C
S31500002BF84FF0090C3F4CDFF818E13F4EC4F804E0EB
S31500002C08DFF810E13D4FC4F80CE0A2F800013C4A99
S31500002C183649B06030602760A5602561626191F829
S31500002C282620086A54F82220364EC0F30260C240B5
S31500002C38326081F8133481F8A2C091F880341BB948
S31500002C4891F8813499074CD0284D95F88034002B9B
S31500002C583CD00022254B83F8812483F88024002366
S31500002C68224981F8323091F83C301A07FBD543F2F5
S31500002C78021000231D4A088581F82A3092F83C3054
S31500002C889B06FBD50320052319494FF0F10C81F863
S31500002C981C011D49116282F8263092F82630156A01
S31500002CA854F82300C5F30264E04030600123F024A1
S31500002CB84FF42540154981F80CC00B720C7382F845
S31500002CC8303082F85230A2F8FE03F8BD0121C82040
S31500002CD885F8801400F082F895F88034012BFBD132
S31500002CE8B7E74FF47A70FFF76FFFB8E700E00140E7
S31500002CF800C00140C004002000700040002D3101D2
S31500002D0800C2EB0B488A0020211201200020004057
S31500002D1800127A0000366E0138B50025284C0121CC
S31500002D28C82084F8285000F059F884F8245094F8FC
S31500002D382430002BFBD194F82430214943F00203B8
S31500002D4884F8243091F82430C3F340009B07F9D463
S31500002D581B4A81F8220092F8223003F0FF00002B6C
S31500002D68F9D192F84030164960F3C71382F840301B
S31500002D7891F84030DB09FBD191F84200104A63F321
S31500002D88C71081F8420092F84230DB09FBD192F86D
S31500002D9844000B4963F3C71082F8440091F84430A5
S31500002DA8C3F3C014DB09F9D1012000F0F5F8054B8F
S31500002DB8012083F8BB44BDE8384000F0BDB800BF29
S31500002DC80030084000E00140704700BF00BEFEE743
S31500002DD8A0F101000028FBD1704700BF1F4B204A15
S31500002DE81B6800FB01F1934213D302F1854202F5F9
S31500002DF8071203F5741302F6834203F6FF03A2FBD8
S31500002E0803231B0DA3FB01314FF0FF30F9B1FFF788
S31500002E18DFBF4FF47A7210B4A1FB02C41148B0FBAD
S31500002E28F3F34FF0FF3044B9BCFBF3FC4FEA9C00C8
S31500002E3888B15DF8044BFFF7CBBF9B00B1FBF3F1FC
S31500002E48A1FB0212002AF4D1084620B1F1E7184680
S31500002E58002BDCD170475DF8044B7047488A002088
S31500002E6800127A0000CA9A3B70B500240B4B0C4E30
S31500002E78B3F82021B3F84051ADB2154025FA04F352
S31500002E88DB0704D556F82430E0B203B1984701347D
S31500002E98102CF3D1014BA3F8305170BD00600040EF
S31500002EA8D489002030B5032085B000F075F80025D8
S31500002EB86FF0FF014FF0FF301B4B1C4C9964224604
S31500002EC82B464FF0010ECDE90100039032F8021FA0
S31500002ED80EFA03FC013311B1012520EA0C00092B77
S31500002EE8F4D1F5B10190124B0F4A1067C3F880026E
S31500002EF8029903205167C3F8841203999167C3F8AE
S31500002F08881200F019F800230A4834F8022F03F152
S31500002F18C00101330AB140F82120092BF5D105B0CB
S31500002F2830BD4FF0FF30DEE700800040D64300009A
S31500002F3800E100E000600040EFF31081012383F315
S31500002F481088124B33F8102092B22AB133F81020A9
S31500002F58013A92B223F8102033F810309BB293B995
S31500002F6810B40B4A0B4CB2F8FE3334F810009BB27F
S31500002F7843F4254323EA0003A2F8FE3381F31088BD
S31500002F885DF8044B704781F3108870473C8A00202F
S31500002F9800E001402C45000030B4EFF31081012316
S31500002FA883F310880E4A32F810309BB26BB90D4C79
S31500002FB80D4DB4F8FE3335F810C09BB243EA0C0346
S31500002FC843F425439BB2A4F8FE3332F8103001339C
S31500002FD89BB222F8103081F3108830BC704700BFCE
S31500002FE83C8A002000E001402C45000008B500F0AE
S31500002FF8E7FA0C2203461A604FF0FF3008BD00BFFF
S3150000300800BE704708B500F035F8FEF769F9FEE727
S31500003018F8B5174F05463E68A6B17C6806EB460626
S3150000302804EB860602E00C34B4420BD0637AAB425A
S31500003038F9D1D4E900020021121A0C3400F072FA10
S31500003048B442F3D1BE6896B1FC6804EB061602E0FA
S315000030581034A6420BD0637BAB42F9D1D4E9000207
S31500003068A168121A103400F0B4FAA642F3D1F8BDDA
S31500003078544400004FF47001274B284A70B50020CD
S31500003088C3F888109A60FEF71FF9FFF79FFD012025
S31500003098FEF71AF9224B83F30A880020FFF7B8FFD8
S315000030A8FFF77EFDFFF738FE0320FFF775FF0023C5
S315000030B84FF6FF701B4903F1080201330C2B21F868
S315000030C81200F8D100240320FFF736FF0320FFF78C
S315000030D863FF154B03205C609C60DC601C61FFF796
S315000030E82BFF0220FEF7F0F80120FFF791FF0F4DA6
S315000030F80F4B5B1BA3424FEAA30605DD55F8043BBD
S3150000310801349847A642F9DCFFF7CCFEBDE87040CB
S315000031180020FFF759BE00BF00ED00E000000000E8
S31500003128C0000020000D084000000E409045000039
S3150000313894450000002310B5044683608181194632
S315000031484366C28108228361C0E90033C0E90433BB
S315000031585C3000F0E7F90D4B246263620C4BA36206
S315000031680C4BE3620C4B23630C4B9C4206D003F1D9
S315000031786802944202D0D0339C4205D104F158002B
S31500003188BDE8104000F022BA10BD00BF7D33000034
S315000031989F330000D7330000FB3300004C8A002021
S315000031A8024A0349034800F069B800BF4C000020F2
S315000031B8ED3800005C00002041680C4B994210B5C0
S315000031C8044601D000F08EFBA168094B994202D053
S315000031D8204600F087FBE168064B994204D020465A
S315000031E8BDE8104000F07EBB10BD00BF4C8A002031
S315000031F8B48A00201C8B002010B50B4B04210B4C05
S315000032080B4A20461A600022FFF794FF04F1680073
S3150000321801220921FFF78EFF04F1D00002221221B4
S31500003228BDE81040FFF786BF848B00204C8A00203B
S31500003238A9310000014800F0CAB900BF8D8B0020F3
S31500003248014800F0C5B900BF8D8B002010B50446B3
S31500003258FFF7F0FF236A1BB1BDE81040FFF7F0BF88
S31500003268044B2362044B1B68002BF5D1FFF7C4FF00
S31500003278F2E700BFC1310000848B00202DE9F84336
S315000032880746884614460026D4E90195B9F101098E
S3150000329805D52468002CF7D13046BDE8F883AB89FC
S315000032A8012B07D9B5F90E30013303D02946384624
S315000032B8C04706436835E9E7036A70B505460E4612
S315000032C884680BB9FFF7C2FF636EDB0705D4A389D1
S315000032D8980502D4A06D00F07AF9A389190702D5DA
S315000032E82369002B35D12146284600F0C5F880B35E
S315000032F84FF0FF35636EDA0705D4A3899B0502D420
S31500003308A06D00F065F9284670BD002B04DAA269A5
S315000033189A4217DC0A2915D023685A1C22601970AC
S31500003328A36816F8011F013BA3600029EDD1002B05
S3150000333811DA22460A21284600F05FF80130D7D074
S315000033480A25D7E72246284600F057F80130E7D184
S31500003358CEE7013EE4E723685A1C22600A221A7067
S31500003368EEE70000024B01461868FFF7A5BF00BF4D
S315000033785800002010B50C46B1F90E1000F0FCF804
S315000033880028ABBF636DA3891B1823F48053ACBF19
S315000033986365A38110BD2DE9F0411F468B8905465B
S315000033A80C46DB05164605D502230022B1F90E1098
S315000033B800F0D0F8A3893246B4F90E10284623F453
S315000033C88053A3813B46BDE8F04100F0E7B810B54D
S315000033D80C46B1F90E1000F0BDF8431CA38915BFC1
S315000033E8606523F4805343F48053A38118BFA381F7
S315000033F810BDB1F90E1000F09DB8F8B50E4614468A
S31500003408054618B1036A0BB9FFF720FFA369A36045
S31500003418A3891A0701D5236943B92146284600F02E
S315000034282BF818B14FF0FF373846F8BD2368F6B2C7
S3150000343822693746981A6369834205DC214628467D
S3150000344800F050FA0028EDD1A368013BA360236879
S315000034585A1C22601E70431C62699A4204D0A389D2
S31500003468DB07E1D50A2EDFD12146284600F03AFAD5
S315000034780028D9D0D6E7000038B5294B05460C46B2
S31500003488186818B1036A0BB9FFF7E0FEB4F90C30F7
S31500003498190722D4DA0607D409222A6043F0400322
S315000034A84FF0FF30A38133E0580712D5616B41B165
S315000034B804F14403994202D0284600F097F8002305
S315000034C86363A38923F02403A3810023636023692C
S315000034D82360A38943F00803A38123694BB9A38911
S315000034E803F42073B3F5007F03D02146284600F085
S315000034F846FAB4F90C3013F001020AD00022A26091
S3150000350862695242A261226942B913F08000C5D1AC
S3150000351838BD990758BF6269A260F4E70020F7E74B
S315000035285800002002440346934200D1704703F82E
S31500003538011BF9E738B50023054D044608462B60FC
S31500003548FCF722FE431C02D12B6803B1236038BD69
S31500003558888B002038B50446064D084611460022D9
S315000035682A601A46FCF71EFE431C02D12B6803B1DB
S31500003578236038BD888B002038B50446064D0846BA
S31500003588114600222A601A46FCF772FE431C02D135
S315000035982B6803B1236038BD888B002038B50446F4
S315000035A8064D0846114600222A601A46FCF74EFECA
S315000035B8431C02D12B6803B1236038BD888B0020D9
S315000035C8014B1868704700BF5800002070477047C5
S315000035D870470A44431E914200D1704710B511F84E
S315000035E8014B914203F8014FF9D110BD38B5054694
S315000035F8002941D051F8043C0C1F002BB8BFE41831
S3150000360800F0E0F81D4A136833B963601460284671
S31500003618BDE8384000F0DCB8A34208D92068211874
S315000036288B4201BF19685B6809182160EDE71A46E5
S315000036385B680BB1A342FAD911685018A0420BD1A6
S3150000364820680144501811608342E0D118685B680D
S31500003658084453601060DAE702D90C232B60D6E7DA
S31500003668206821188B4202BF19685B6809186360D5
S3150000367808BF21605460CAE738BD00BF948B00209C
S3150000368870B50F4E0C460546316811B900F0D6F9EB
S3150000369830602146284600F0D1F9431C03D14FF08B
S315000036A8FF34204670BDC41C24F00304A042F8D0A1
S315000036B8211A284600F0C2F90130F2D1EFE700BF1F
S315000036C8908B00202DE9F843CD1C064625F003050E
S315000036D808350C2D38BF0C25002D01DBA94204D96D
S315000036E80C2333600020BDE8F883DFF8D48000F0AF
S315000036F869F8D8F800301C4644BB29463046FFF71F
S31500003708BFFF431C044658D1D8F800402746002F6F
S3150000371843D1002C4BD023683946304604EB0309C5
S3150000372800F08CF9814542D1216830466D1A294648
S31500003738FFF7A6FF01303AD023682B442360D8F858
S3150000374800305A6862BBC8F800700FE02268521B46
S3150000375820D40B2A17D96119A342256018BF5960CE
S31500003768636808BFC8F8001062514B60304600F025
S315000037782FF804F10B00231D20F00700C21A1CBF06
S315000037881B1AA350AFE76268A3420CBFC8F8002013
S315000037985A60EBE723466468AEE73C467F68B6E7BF
S315000037A81A465B68A342FBD100235360DEE70C236D
S315000037B83046336000F00CF894E70560D6E700BFA2
S315000037C8948B00200148FFF702BF00BF8C8B0020B6
S315000037D80148FFF7FDBE00BF8C8B0020B1F90C2015
S315000037E82DE9F041160705460C4654D44B68002BC4
S315000037F802DC0B6C002B48DDE66A002E45D0002360
S3150000380812F480522F68216A2B6030D0626DA3892A
S31500003818590705D56368D21A636B0BB1236CD21AA4
S315000038280023E66A216A2846B047431CA38906D1C5
S3150000383829681D292BD82A4ACA40D60727D5002227
S31500003848D90462602269226004D5421C01D12B6822
S3150000385803B96065616B2F60B9B104F144039942FD
S3150000386802D02846FFF7C2FE002363630DE001235A
S315000038782846B0470246501CC9D12B68002BC6D033
S315000038881D2B01D0162B1DD12F60002021E043F0FF
S3150000389840031BB21AE00F69002FF6D093070E6893
S315000038A80F600CBF4B690023A6EB07088B60B8F1C5
S315000038B8000FEADD43463A46216A2846A66AB0471B
S315000038C8002808DCB4F90C3043F040034FF0FF3011
S315000038D8A381BDE8F0810744A8EB0008E7E700BF2D
S315000038E80100402038B50B6905460C4613B900257A
S315000038F8284638BD18B1036A0BB9FFF7A7FCB4F917
S315000039080C30002BF3D0626ED00704D4990502D48C
S31500003918A06DFFF75CFE28462146FFF75FFF636E42
S315000039280546DA07E4D4A3899B05E1D4A06DFFF721
S315000039384FFEDDE770B50C46B1F90E1096B0154688
S3150000394800291E460CDAA389002113F0800F14BF44
S3150000395840234FF48063002031602B6016B070BDA1
S315000039686A4600F049F80028EDDB019901F4704138
S31500003978A1F50053594259414FF48063EBE78B890F
S31500003988F7B59D0706460C4607D504F1470323609D
S3150000399823610123636103B0F0BD01AB6A46FFF7FB
S315000039A8C9FF009F054630463946FFF78BFE48B9E2
S315000039B8B4F90C309A05EED423F0030343F002035E
S315000039C8A381E2E7A389206043F08003A381019BDA
S315000039D8C4E904075BB1B4F90E10304600F01EF8CE
S315000039E828B1A38923F0030343F00103A381A38924
S315000039F81D43A581CFE7000038B50023064D0446D0
S31500003A08084611462B60FCF7D7FB431C02D12B68EE
S31500003A1803B1236038BD00BF888B002038B500236A
S31500003A28054D044608462B60FCF7A2FB431C02D151
S31500003A382B6803B1236038BD888B002038B5002376
S31500003A48054D044608462B60FFF7D0FA431C02D101
S31500003A582B6803B1236038BD888B00204653505F1E
S31500003A6853554343455353203D3D2065727200002C
S31500003A782E2E2F7372632F554152545F446562751B
S31500003A88672F756172745F64656275672E630000DF
S31500003A982E2E2F7372632F53637265656E2F7374A0
S31500003AA8373733352E6300004C6F6E6720507265CA
S31500003AB8737320456E74657200000000E995BFE6D1
S31500003AC88C89E8BF9BE585A5E9A1B5E99DA23100EA
S31500003AD853686F727420507265737320456E7465EF
S31500003AE872000000E79FADE68C89E8BF9BE585A5D7
S31500003AF8E9A1B5E99DA232005549E6BC94E7A4BA06
S31500003B080000000053686F72743A205061676520A0
S31500003B18320000004C6F6E673A20506167652031AD
S31500003B2800000000E79FADE68C893A20E9A1B5E9D7
S31500003B389DA23200E995BFE68C893A20E9A1B5E94C
S31500003B489DA231005B4D61696E5D20496E697420E6
S31500003B584F4B210D00000000554152545F446562E9
S31500003B6875675F496E69740010100200783B0000A3
S31500003B78E4BDA000B03B0000E5A5BD00903B0000F9
S31500003B8800000000000000000800083F0820081098
S31500003B983F0824042404A47F2404120414040804FB
S31500003BA81404220421050002100110011001887F67
S31500003BB888404C202C040A04891488244824484444
S31500003BC82844080408050802080C0100D83B000030
S31500003BD800000000000000000000000000001818A7
S31500003BE81818100018000000000024240000000027
S31500003BF8000000000000002CFE247E2424000000A3
S31500003C080000107E121C68483E0800000000CE49DD
S31500003C182E106894F200000000001C26360C526331
S31500003C28FE00000000001818000000000000000058
S31500003C3800003018080C0C0C0810200000000C18A6
S31500003C483020202010180400000010763C100000D8
S31500003C5800000000000000001818FE1818000000F8
S31500003C68000000000000001818100C0000000000FA
S31500003C7800003C00000000000000000000000000FA
S31500003C8818000000000040203010080C0402000054
S31500003C980000007E42F2CE423C0000000000001EFA
S31500003CA8101010107E0000000000007E6020100C2E
S31500003CB87E0000000000007E603C40403E000000A0
S31500003CC800000030282422FF200000000000003EEB
S31500003CD8063E40403E0000000000003C067E424290
S31500003CE87C0000000000007C603010080C0000001A
S31500003CF80000007E463C66427E0000000000007E12
S31500003D08426658601E00000000000000180000000F
S31500003D1818000000000000001800001018100C0021
S31500003D2800000000300806186000000000000000CF
S31500003D38007E007E00000000000000000C306018C5
S31500003D480400000000001C2060380800180000006D
S31500003D580000788692A9A5B569023E000000001801
S31500003D682C24467E830000000000007E423E42422C
S31500003D783E0000000000007C020202067C000000F3
S31500003D880000007EC2C2C2423E0000000000003EA3
S31500003D98067E06067E0000000000003E067E060639
S31500003DA8060000000000007C027242427C0000000F
S31500003DB800000042427E4242420000000000003CF1
S31500003DC8181818187E0000000000003C202020204B
S31500003DD83E00000000000062120E1A326200000067
S31500003DE800000004040404047C00000000000066CF
S31500003DF8E6DADA8383000000000000464A5A526277
S31500003E08620000000000007EC2C3C3423C000000FE
S31500003E180000007E42423E02020000000000007ED2
S31500003E28C2C3C3423C10E0000000007E463E366630
S31500003E38460000000000007E021C60407E00000074
S31500003E480000007C1818181818000000000000422E
S31500003E58424242427C000000000000C34266243C05
S31500003E681800000000000083829ADA6666000000E7
S31500003E78000000462C183864C2000000000000C28A
S31500003E88643C1818180000000000007C2010080484
S31500003E987E000000000038080808080808083800EE
S31500003EA800000604081810202040000000003C30DE
S31500003EB83030303030303C0000000018244200001A
S31500003EC80000000000000000000000000000FF00E5
S31500003ED800000C00000000000000000000000000C8
S31500003EE83C407C427E000000000002027A464242C4
S31500003EF83E00000000000000780602067C00000074
S31500003F08000040407C4242625C0000000000000065
S31500003F183C427E027C0000000000F008087E08088B
S31500003F280800000000000000FC42661A7EC27E00FF
S31500003F38000002027A4642424200000000001800D1
S31500003F481E1010107E000000000030003E202020C9
S31500003F5820201E000000060666160E3666000000C3
S31500003F6800001E10101010107E0000000000000057
S31500003F786ED2D2D2D2000000000000007A46424239
S31500003F8842000000000000003C42C2423C00000023
S31500003F98000000007A4642423E020200000000008D
S31500003FA87C4242625C404000000000007E460606F5
S31500003FB806000000000000007C063C403E000000B1
S31500003FC8000000087F0808087800000000000000CC
S31500003FD8424242427C000000000000004246243C67
S31500003FE8180000000000000083D25A6A660000002C
S31500003FF800000000462C182C4600000000000000B7
S315000040084246243818180700000000007E20180CC5
S315000040187E0000000000700808080E0808087000F6
S3150000402800101010101010101010100000001C10B6
S315000040381010701010100C0000000000000EF200A6
S31500004048000000005350495F5354373733355F49F2
S315000040586E69740000002110422063308440A55028
S31500004068C660E770088129914AA16BB18CC1ADD1B0
S31500004078CEE1EFF13112100273325222B552944258
S31500004088F772D662399318837BB35AA3BDD39CC300
S31500004098FFF3DEE36224433420040114E664C774A4
S315000040A8A44485546AA54BB528850995EEE5CFF550
S315000040B8ACC58DD55336722611163006D776F666F8
S315000040C89556B4465BB77AA719973887DFF7FEE7A0
S315000040D89DD7BCC7C448E5588668A77840086118C4
S315000040E802282338CCC9EDD98EE9AFF948896999F0
S315000040F80AA92BB9F55AD44AB77A966A711A500A98
S31500004108333A122AFDDBDCCBBFFB9EEB799B588B3F
S315000041183BBB1AABA66C877CE44CC55C222C033CE3
S31500004128600C411CAEED8FFDECCDCDDD2AAD0BBD8F
S31500004138688D499D977EB66ED55EF44E133E322E37
S31500004148511E700E9FFFBEEFDDDFFCCF1BBF3AAFDF
S31500004158599F788F8891A981CAB1EBA10CD12DC13D
S315000041684EF16FE18010A100C230E32004502540D3
S3150000417846706760B9839893FBA3DAB33DC31CD333
S315000041887FE35EF3B1029012F322D2323542145223
S3150000419877625672EAB5CBA5A89589856EF54FE57F
S315000041A82CD50DC5E234C324A01481046674476473
S315000041B824540544DBA7FAB79987B8975FE77EF7D3
S315000041C81DC73CD7D326F2369106B01657667676C3
S315000041D8154634564CD96DC90EF92FE9C899E9899F
S315000041E88AB9ABA94458654806782768C018E10813
S315000041F88238A3287DCB5CDB3FEB1EFBF98BD89B73
S31500004208BBAB9ABB754A545A376A167AF10AD01A62
S31500004218B32A923A2EFD0FED6CDD4DCDAABD8BADBE
S31500004228E89DC98D267C076C645C454CA23C832CB2
S31500004238E01CC10C1FEF3EFF5DCF7CDF9BAFBABF12
S31500004248D98FF89F176E367E554E745E932EB23E02
S31500004258D10EF01E3C8900206C430000F443000098
S31500004268030200000C000C010C020C030000000005
S31500004278000000000D020000000000008842000057
S3150000428800010000280000200F00FFFF00000000CA
S31500004298FFFF000000000000A086010000000000EB
S315000042A850C30000000A0400C90200000000000014
S315000042B8BC420000000000000000000000000000F2
S315000042C800000000000000000000000000000000E0
S315000042D8000000000000FFFFFFFFFFFFDFDFDFDF5A
S315000042E8DFDF000000000000000000000000000002
S315000042F800000000000000000000000000000000B0
S31500004308000000000000000000000000020506078B
S31500004318080C0C0C0C000101010000003C430000D5
S31500004328544300001D080000000000003843000048
S3150000433802000000C089002048430000284400000D
S315000043482C0000205043000006000000C889002009
S3150000435860430000284400003C0000206843000039
S31500004368050000000C000000784300000000000073
S315000043780000000000000000040000000200000029
S31500004388000001000801000000000104020200000C
S315000043980000010000030000000001040103000002
S315000043A80000010402030000040000000B050000E1
S315000043B800000105060700000000010507070000C8
S315000043C804000000030800000400000004080000C0
S315000043D89201930194019501C6008C018D018E010D
S315000043E88F0100000204030404040000F521000004
S315000043F8191F00000922000015220000DD1F000019
S315000044082D200000251F0000791F0000991F0000BD
S31500004418C51F000011200000491F00005D1F000095
S31500004428F52A00006D2A00000D290000A1290000C8
S31500004438C1290000992900009D290000E1290000F2
S315000044483D2A0000352A0000392A00000400000031
S31500004458FC440000080000007C4400000200000044
S315000044686C4400000000006800000068C0000020DE
S31500004478C00000200000006800000068000000601E
S3150000448800010C08000000680000006800000070C9
S315000044980001090800000068000000680000000824
S315000044A800010208000000680000006864000000BF
S315000044B800010108240000202400002000000060FC
S315000044C800010C03240000202400002000000070D6
S315000044D80001090324000020240000200000000831
S315000044E80000020324000020A80000206400000049
S315000044F800000103000000680000006800010008D1
S31500004508000000680000006800010008A8000020FC
S31500004518C000002000000003E0040020988B002063
S31500004528000000030100020008001000200000003F
S315000045384275696C7420776974682052656E657374
S31500004548617320416476616E63656420466C6578A4
S3150000455869626C6520536F66747761726520506175
S31500004568636B6167652076657273696F6E20362E98
S31500004578332E3100362E332E31000000000103069B
S30900004588F8B500BFBD
S3090000458CF8B500BFB9
S3090000459055010000CB
S309000045942D010000EF
S3090100A100FFFFFFFF58
S3090100A200FFFDFFFF59
S3090100A280F8F8FFFFE5
S7050000300DBD
