S01200005350495F5354373733352E737265634A
S31500000000600400202D320000A530000029320000D7
S31500000010293200002932000029320000293200006E
S31500000020000000000000000000000000293200006F
S3150000003029320000000000002932000029320000A9
S31500000040091A00007D190000991A0000E11A000043
S315000000503D2900004D200000E51F0000C1200000E2
S309000000600121000074
S3150000006401000000A08601004000350000001008D1
S31500000074000000000000000000000000000008006E
S311000000840000000000000000000000006A
S315000000900348044B834202D0034B03B11847704711
S315000000A0500000205000002000000000064B0749C9
S315000000B0C91A891048BF0131491003D0044B0BB14E
S315000000C001481847704700BF50000020500000202C
S315000000D00000000010B5064C237843B9FFF7D8FF9F
S315000000E0044B13B10448AFF300800123237010BD05
S315000000F0800400200000000084A2000108B5054B22
S315000001001BB105490548AFF30080BDE80840FFF77D
S31500000110CDBF00BF000000008404002084A20001BF
S3150000012008B50649064801F04FFA00B908BD0F2187
S31500000130044B054A054802F067FF00BF8C410000EA
S31500000140D487002088330000243400009C3300004C
S315000001500379022B13D0042B04D0012B0ED10D4AA8
S315000001601370704790F90830412B0CD0422B05D103
S3150000017040F201210122084B19809A707047012232
S31500000180064B1A70704740F201110122024B19808A
S315000001909A7070479D040020A80500209C0400204A
S315000001A010B5054C0549204602F0C6F92046BDE8C3
S315000001B0104002F09DB900BF04880020C041000035
S315000001C028B103791BB9024A1368013313607047DB
S315000001D0A00400202DE9F04F8DB09DF85C40DFF8BB
S315000001E07C820194B8F800408E4694429946BDF848
S315000001F058B0009000F024810027DFF864C2510057
S3150000020014B2C1F10301BC4209B2ACF80070B8BF28
S31500000210A8F80020C0F2AC8038463D468E4B0AE076
S315000002202D1B0A36013C013706EB850624B23DB28A
S31500000230AC4231B221DB461CA542B6B203EB800AC2
S3150000024023F82050AAF8024000F1020003EB860AC8
S31500000250ACBF304623F826408EB2BCBFAAF8025087
S3150000026080B206F1060A00290AEB870AD8DA0137B6
S315000002703DB2AC420FFA8AF1DDDAA8F80020ACF8FC
S315000002800000002874D009F00103029309F0080366
S315000002900B9309F00203049309F00403059309F094
S315000002A008034FF00008F2466B4C0693CDF80CC0DD
S315000002B011E0049B63BB059B002B39D1069B002BE9
S315000002C047D1039B08F101081A881FFA88F39A425E
S315000002D004F104044CD9029BB4F90050B4F902901D
S315000002E0002BE6D0BDF8006001981FFA89F1ABB289
S315000002F01FFA8AF70791F218791AFF2812B209B283
S315000003005DD010465A4600F03BFD049B002BD2D030
S31500000310009BAAEB09015E1B019B36B2FF2B09B2BB
S3150000032073D030465A4600F02BFD059B002BC5D0F6
S31500000330009B0AEB09075E1B019B36B2FF2B3FB2FF
S315000003401CD0394630465A4600F01AFD069B002B53
S31500000350B7D0009B0AEB09071D44019B2DB2FF2B6A
S315000003603FB21ED0394628465A4600F009FDA8E796
S315000003700DB0BDE8F08F0AEB09073FB239463046AB
S3150000038000F0F6FC8345DCD16FEA0B0230463946B5
S3150000039092B200F0F5FC0B9B002B92D0009B1D4403
S315000003A02DB23946284600F0E3FC8345DAD16FEAE0
S315000003B00B023946284692B200F0E2FC81E710466D
S315000003C0CDE90913089200F0D3FCDDE90821834545
S315000003D00A9B96D110466FEA0B0292B209930891D6
S315000003E000F0CEFCDDE90813049A62B9059A62BBF7
S315000003F00B9B002B3FF465AF009BD1441D442DB2EF
S315000004000FFA89F7CDE7F61A36B23046079100F0B3
S31500000410AFFC8345079984D16FEA0B02304692B24E
S3150000042000F0AEFC059B002BA5D10B9B002B3FF4E7
S3150000043048AF009B09EB0A071D442DB23FB2B0E757
S31500000440DFF81CC0BCF800001BE7F61A079B36B2A3
S315000004501F443FB292E700BFA4040020A605002077
S31500000460A405002000F028BD93422DE9F84F1D4653
S31500000470A8BF154693429A46B8BF9246814289461E
S31500000480A8BF814681420F46B8BF07465545BDF80D
S3150000049028609DF82C8027DC6FEA060B1FFA8BFB81
S315000004A0B945D8BF4C4609DD1AE02046013432462C
S315000004B0294624B200F064FCA74211DBB8F1FF0F15
S315000004C0F3D12946204600F053FC8642EDD1204662
S315000004D001345A46294624B200F052FCBC42F0DDF3
S315000004E001352DB2AA45DBDA0020BDE8F88F00BF42
S315000004F02DE9F0431C46154681460F4683B0BDF8EC
S3150000050028809DF82C604346009600F047FC013594
S315000005102246013C4346394648462DB224B200964F
S3150000052000F03CFC4846434622462946009600F029
S3150000053083FC3846434622462946009600F07CFC5A
S31500000540002003B0BDE8F0832DE9F04F8BB0884260
S315000005508446A8BF8C468842B8BF084602AFB7F8A3
S315000005604C409A423C6197F850401546B8BF1D462C
S315000005709A42FC601FFA8CF81446A8BF1C4683B248
S3150000058097F848B0FB61A3EB0803C3F34E039B4502
S315000005908CBF9E46DE46AAB2BA61A2EB040292B2B4
S315000005A088BF5FFA83FB5308BEEB520F88BF5FFA22
S315000005B083FBBBF1000F00F086804FEA4B03093343
S315000005C023F00703ADEB030D02AEADEB030D4FEACF
S315000005D04B03C3F103030FFA8BF1B21E0DF10609AB
S315000005E006EB4B0A22F8021F924529F8021FF9D1A1
S315000005F04FF0000AD1460DE0A9EB01090A32013994
S315000006000AF1010A02EB890209B20FFA8AF9894551
S3150000061013B212DC9AB202F1060E002B26F81190E4
S315000006200EEB8A0E26F81910E6DA0AF1010A0FFA1D
S315000006308AF989450FFA8EF3ECDDCBF10009AC425D
S315000006401FFA89F93ADCA5EB0B03224604EB0B0AE9
S31500000650C7E9010C34467B61FE6913E0BB69796921
S31500000660ABEB030313448A421BB20FDCD7E901103C
S3150000067088421BDD013212B209F1010995421FFAC7
S3150000068089F91BDB52450FFA89F3E7DA002BB8BF6D
S315000006905B429BB234F8131008EB0B00A6EB0B0C75
S315000006A0401A614400B209B28842E3DCFB68009359
S315000006B03B69FA6100F072FBFA69DBE70020243738
S315000006C0BD46BDE8F08F2246FC68014601943C69B0
S315000006D02B4660460094FFF7C7FE2437BD46BDE8AB
S315000006E0F08F00BF88422DE9F04F0546A8BF0D46A2
S315000006F08842B8BF084690468BB09A42A8BF1A46B1
S31500000700A9B29845049585B29DF85040B8BF984661
S315000007106B1A0590C3F34E0084428CBF8446A446F0
S315000007201FFA88F697B2A6EB07091FFA89F988BF60
S31500000730C4B24FEA5900BCEB590F88BFC4B2BDF82A
S3150000074054A09DF858B09BB2002C70D02144274489
S3150000075088B209B2361B0391B9B20691B1B22D1B0C
S315000007600791B3EB440F4FEA44011FFA85FC3FB2F1
S315000007702DB236B2089128DC63004B453CDBDDF830
S315000007800C802246394640460223CDE900ABFFF7EE
S3150000079021FD3946224628460123CDE900ABFFF765
S315000007A019FD4046224631460423CDE900ABFFF74A
S315000007B011FD2846082322463146CDE900ABFFF756
S315000007C009FD00200BB0BDE8F08F0CF1FF310130C0
S315000007D000B209B25346CDF800B0CDE9080100F0E9
S315000007E0DDFADDE9080153464246CDF800B000F0D7
S315000007F0D5FA63004B45C2DA069B049803F101085B
S31500000800079B0FFA88F803F1FF390FFA89F9534667
S315000008104A464146CDF800B000F00EFB4A46414636
S3150000082053460598CDF800B000F006FBA7E743460F
S31500000830DDE90401CDF854B0CDF850A00BB0BDE809
S31500000840F04FFFF755BE00BF2DE9F04F85B08A4641
S31500000850BDF838B09DF83C10002B5AD0203A1D4602
S31500000860D3B25E2B55D86A68002A52D08046687883
S31500000870AC7813FB00F304FB03F3002836D002EB3D
S3150000088003096FEA0B034F46002689469BB2CDE962
S3150000089002A32A7832B30024029B214603EB060A00
S315000008A00FFA8AFA03E00134E1B28A4219D9AB7829
S315000008B0C80806FB03731B5C01F007010B41DB074D
S315000008C0F1D508EB0403B9F1FF0F1BB212D05A465B
S315000008D05146184600F054FA01342A78E1B28A42A9
S315000008E0E5D868780136F1B28842D3D8002005B041
S315000008F0BDE8F08F18465146019300F039FA83455A
S31500000900019BE4D1039A1846514600F039FA2A7839
S31500000910C9E7022005B0BDE8F08F00BF2DE9F0431E
S31500000920154692F9002083B0BDF828809DF82C70FA
S31500000930A2B10E46994684B202E015F9012F6AB1BA
S3150000094020B24B463146CDE90087FFF77DFF99F887
S3150000095000000444A4B220447F28EEDD002003B04A
S31500000960BDE8F0832DE9F04F85B00D46BDF838900F
S315000009709DF83C10002A53D01E46002B50D08346CB
S3150000098058680488002C47D0177803E030F8083FF1
S31500000990002B41D00378BB42F8D1447853789C426F
S315000009A0F4D1D0F804A0707890B36FEA09039BB233
S315000009B0CDE9025300270D4632782AB30024029B64
S315000009C0214603EB07080FFA88F803E00134E1B289
S315000009D08A4218D9B378C80807FB03A31B5C01F049
S315000009E007010B41DB07F1D50BEB0403FF2D1BB20F
S315000009F01AD04A464146184600F0C2F90134327808
S31500000A00E1B28A42E6D870780137F9B28842D4D882
S31500000A10002005B0BDE8F08F022005B0BDE8F08FDC
S31500000A20012005B0BDE8F08F18464146019300F05D
S31500000A309FF98145019BDCD1039A1846414600F097
S31500000A409FF93278C2E700BF2DE9F04782B0DDF8A2
S31500000A502880BDF82C909DF830A032B31E4623B3F3
S31500000A60B8F1000F21D00F46144685B294F9002044
S31500000A70BAB1002A40DA22F01F03403319D022F01F
S31500000A800F0320331DD022F0070210322CD033780A
S31500000A902B44802B05DC94F9012001349DB2002AF9
S31500000AA0E7D1002002B0BDE8F087012002B0BDE822
S31500000AB0F08798F800302B44802BF2DC02231C448C
S31500000AC0D4E798F800302B44802BEADC43462246D4
S31500000AD028B23946CDE9009AFFF744FF98F800306E
S31500000AE003342B449DB2C1E798F800302B44802B89
S31500000AF0D7DC04231C44B9E733782B44802BD0DCA5
S31500000B00A2F12001C9B25E29C5D833463946CDE9DE
S31500000B10009A28B2FFF798FE33782B44BBE700BF54
S31500000B20002862D02DE9F04304460E46174690F998
S31500000B300020817890F9013090F803C092B290F8C5
S31500000B4030509BB2A2EB510002EB510211B2A3EB63
S31500000B505C0203EB5C0394F804C085B01FFA80F9CD
S31500000B601FFA82F8CDE901671BB200B212B2CDF8C6
S31500000B7000C01DBBFFF7B6FDE8B994F90550D5B125
S31500000B8009F10209034694F901100FFA89F902E006
S31500000B9092F90550ADB10133DBB2002D04EB03022F
S31500000BA0F6DAD4E90A326AB100924846CDE901671D
S31500000BB0621DFFF749FF05B0BDE8F083FFF7C4FCEF
S31500000BC0DAE7A36A002BF6D05A78CDE90067E17818
S31500000BD04846891A01EBD17108EB6101621D09B221
S31500000BE0FFF79CFE05B0BDE8F0830120704700BF0B
S31500000BF00379012B04BF014A13707047C006002019
S31500000C00034630B5002283B040F6040116488DF83D
S31500000C10073001F0CBFA002240F60301124801F03A
S31500000C20C5FA0723114D0DEB03010122104801F00F
S31500000C30D5F92B780F4C5BB923684BB101210846D7
S31500000C4002F0EAF923682A78013B2360002AF4D0EF
S31500000C500023094901222160034840F603012B7055
S31500000C6001F0A4FA03B030BDCC870020C0060020F6
S31500000C702488002028000020A0860100034630B505
S31500000C80012283B040F6040116488DF8073001F0C2
S31500000C908DFA002240F60301124801F087FA072375
S31500000CA0114D0DEB03010122104801F097F92B7845
S31500000CB00F4C5BB923684BB10121084602F0ACF931
S31500000CC023682A78013B2360002AF4D000230949CF
S31500000CD001222160034840F603012B7001F066FAF9
S31500000CE003B030BDCC870020C00600202488002039
S31500000CF028000020A086010038B50D4604460122D2
S31500000D0040F60401154801F051FA002240F60301AD
S31500000D10124801F04BFA2A46114D07232146114885
S31500000D2001F05CF92B78104C5BB923684BB10121BB
S31500000D30084602F071F923682A78013B2360002AED
S31500000D40F4D0002309492B7021600122BDE8384008
S31500000D5040F60301014801F029BA00BFCC87002004
S31500000D60C00600202488002028000020A08601005C
S31500000D70024B00EBC11033F810007047C807002083
S31500000D8040EA01039BB27F2B04D8034B00EBC11052
S31500000D9023F81020704700BFC807002081428C4608
S31500000DA0A8BF84468142B8BF0146F0B51FFA8CFC45
S31500000DB088B284459DF8145036D81E4C4FEAC21EA0
S31500000DC00BE07F2903D80EEB0C0124F811300CF14F
S31500000DD0010C1FFA8CFC604526D34CEA0201FF2D5C
S31500000DE089B2EED10EFA8CF634F816709F4210D006
S31500000DF07F29E8D90CF1010C1FFA8CFC604513D34E
S31500000E000EFA8CF634F816704CEA02019F4289B24B
S31500000E10EED17F290CF1010707D8D9431FFA87FCC9
S31500000E20604524F81610EBD2F0BD1FFA87FC60452A
S31500000E30E6D2F0BDC80700208A4270B51646B8BF94
S31500000E400E468A42A8BF0A46B6B2B2429DF8105074
S31500000E5027DC184C0BE07F2998BF00EBC21102F18A
S31500000E60010212B298BF24F81130B24219DC40EAEE
S31500000E700201FF2D89B2EED100EBC21C34F81CE052
S31500000E809E45E8D17F2902F1010E0BD80FFA8EF2AA
S31500000E906FEA030E40EA0201964289B224F81CE08A
S31500000EA0EADA70BD0FFA8EF2964240EA0201F8DBEA
S31500000EB089B2E1E7C80700208446F0B14FF6FF7318
S31500000EC0984220D0134800B500F5004E0022114686
S31500000ED06CF30F026CF30F01A0F580736CF31F42E5
S31500000EE06CF31F41C3E9002108338342FAD103F5AD
S31500000EF080707045EAD15DF804FB01464FF400426C
S31500000F00054802F02BBA4FF40042FF21024802F0D6
S31500000F1025BA00BFC8080020C80700204FF6FF7298
S31500000F201049030210B401F1FE0C981E0E4C084441
S31500000F309C4430F8021F13024A40120A34F8122069
S31500000F409BB25340C9B281EA132134F811201B0227
S31500000F509BB2844582EA0302EBD110465DF8044B4E
S31500000F60704700BFC8070020183F00002DE9F04F6A
S31500000F70454B46491A780E6885B0002A78D1444B0D
S31500000F80DFF8249101931B68B3428ABF06F1FF3252
S31500000F90F31AD31AC9F808304FF0000B3D4D5F46DF
S31500000FA03D4CDFF8F88004E0BBF1800F04F5807457
S31500000FB044D05846FFF7B2FF35F8021F0BF1010384
S31500000FC0814282461FFA83FBEED02A200397FFF761
S31500000FD017FE81204FF0020C04218DF80F0003A8A4
S31500000FE08DF80DC0FFF788FE2B20FFF709FE5FFA8C
S31500000FF08BFC042103A88DF80DC08DF80FC0FFF7F8
S315000010007BFE2C20FFF7FCFDA446244901F5807EDB
S315000010103CF8020F023101F8010C000A01F8020C3B
S315000010207145F5D14FF480714046FFF765FEBBF17F
S31500001030800FA5F800A004F58074BAD1134B1B6885
S315000010409E428ABF03F1FF329E1B961BC9F80460BD
S31500001050BEB107EE906ADFED126AF8EE677A86EEA9
S31500001060A77A019A89ED037A136005B0BDE8F08F7F
S315000010700022DFF834900649C9F8082001911A7059
S315000010808AE79FED087AECE724000020A004002000
S31500001090AC060020C2060020C6070020AC050020D2
S315000010A000007A4400000000B006002010B5A249F6
S315000010B0A24800F071FD002840F037810446024640
S315000010C040F20B519E4801F071F84FF47A7164209A
S315000010D001F0A2FF012240F20B51994801F066F897
S315000010E04FF47A71642001F097FF1120FFF788FD15
S315000010F04FF47A71642001F08FFFB120FFF780FD75
S315000011000120FFF7BBFD2C20FFF7B8FD2D20FFF7D0
S31500001110B5FDB220FFF774FD0120FFF7AFFD2C20CF
S31500001120FFF7ACFD2D20FFF7A9FDB320FFF768FD03
S315000011300120FFF7A3FD2C20FFF7A0FD2D20FFF7D0
S315000011409DFD0120FFF79AFD2C20FFF797FD2D202E
S31500001150FFF794FDB420FFF753FD0720FFF78EFD40
S31500001160C020FFF74DFDA220FFF788FD0220FFF704
S3150000117085FD8420FFF782FDC120FFF741FDC520D4
S31500001180FFF77CFDC220FFF73BFD0A20FFF776FD47
S315000011902046FFF773FDC320FFF732FD8A20FFF7D5
S315000011A06DFD2A20FFF76AFDC420FFF729FD8A207E
S315000011B0FFF764FDEE20FFF761FDC520FFF720FD78
S315000011C00E20FFF75BFD2020FFF71AFD3A20FFF700
S315000011D017FD0520FFF752FD2A20FFF711FD2046D7
S315000011E0FFF74CFD2046FFF749FD2046FFF746FD79
S315000011F07F20FFF743FD2B20FFF702FD2046FFF778
S315000012003DFD2046FFF73AFD2046FFF737FD7F20DC
S31500001210FFF734FDE020FFF7F3FC0220FFF72EFD79
S315000012201C20FFF72BFD0720FFF728FD1220FFF7F4
S3150000123025FD3720FFF722FD3220FFF71FFD29206D
S31500001240FFF71CFD2D20FFF719FD2920FFF716FDDE
S315000012502520FFF713FD2B20FFF710FD3920FFF7A0
S315000012600DFD2046FFF70AFD0120FFF707FD0320CD
S31500001270FFF704FD1020FFF701FDE120FFF7C0FC9A
S315000012800320FFF7FBFC1D20FFF7F8FC0720FFF704
S31500001290F5FC0620FFF7F2FC2E20FFF7EFFC2C20D2
S315000012A0FFF7ECFC2920FFF7E9FC2D20FFF7E6FC11
S315000012B02E20FFF7E3FC2E20FFF7E0FC3720FFF798
S315000012C0DDFC3F20FFF7DAFC2046FFF7D7FC20467F
S315000012D0FFF7D4FC0220FFF7D1FC1020FFF7CEFC6D
S315000012E01320FFF78DFC4FF47A71322001F094FE43
S315000012F02920FFF785FC4FF47A71322001F08CFE2D
S315000013003620FFF77DFC0820FFF7B8FC21464FF496
S3150000131000420C4802F022F8FFF728FEBDE8104014
S315000013204FF47A71642001F077BE7F21064B074A9D
S31500001330074801F069FE00BF3842000024880020FB
S31500001340CC870020C807002088330000083F000033
S31500001350BC330000F0B500244FF6FF7685B00020C0
S31500001360FFF780F8CDE9016440F2FF760F4D104F8C
S315000013702B4628210F4A00971420FFF765FBCDE97D
S3150000138000644FF6E0762B4646210B4A1E20FFF7F7
S31500001390C5FA64212B46CDE90064084A0A20FFF706
S315000013A0BDFA05B0BDE8F040FFF7E0BD943400009B
S315000013B034340000D4330000DC330000E433000092
S315000013C070B500254FF4FC64174E90B00020FFF76F
S315000013D049F83346CDE900451421144A2D20144C12
S315000013E0FFF79CFA0FCC0DF10C0CACE80F000FCCFC
S315000013F0ACE80F000FCCACE80F0023684FF6E074A2
S315000014002A461F2103A8CCF80030FFF789FB6E217E
S315000014103346084ACDE900450A20FFF77FFAFFF771
S31500001420A5FD10B070BD00BF94340000F433000079
S3150000143018410000FC33000070B500254FF4FC6431
S31500001440174E90B00020FFF70DF83346CDE9004562
S315000014501421144A2D20144CFFF760FA0FCC0DF11D
S315000014600C0CACE80F000FCCACE80F000FCCACE8CE
S315000014700F0023684FF6E0742A464FF4784103A81C
S31500001480CCF80030FFF74CFB6E213346074ACDE916
S3150000149000450A20FFF742FAFFF768FD10B070BD5D
S315000014A0943400000C3400004C4100001434000059
S315000014B0D8B108B50378012B00D008BD8378012B7D
S315000014C0FBD1124A1378012B18D0022B0ED03BB950
S315000014D04378012B16D0022B02D11370FFF7ACFF15
S315000014E000220B4B1A809A7008BD70474378012B77
S315000014F0F6D100231370FFF72DFFF1E74378022B97
S31500001500EED1F6E71370FFF75BFFE9E7C887002027
S31500001510A80500200022024B1A70FFF71BBF00BF70
S31500001520C887002008B50B4B0B48596800F07CFFB4
S31500001530FEF736FEFEF7F4FDFFF7B8FDFFF7EAFF0C
S31500001540064C2046FFF7B4FF4FF47A710A2001F0EB
S3150000155063FDF6E780410000CC870020A805002047
S31500001560022800D070470249024800F05DBF00BF64
S3150000157090420000CC87002008B5FFF7D3FF00207B
S3150000158008BD00BFF0B5846A85B005460F4694468F
S315000015906E46B4B194E80F0086E80F00EB6920466A
S315000015A01B78A760236084F804C0EB6AE3606B6A6B
S315000015B09847AC6A1CB196E80F0084E80F0005B0A6
S315000015C0F0BD3446EAE700BF0122034608788240B0
S315000015D012F0060F05D0CA6952681278120700F198
S315000015E0CB8100224FF0010C00F580002DE9F0417F
S315000015F000F58C500002C3E907101A704D699878FF
S315000016005D628D696CF30100C3E90A25987048781C
S31500001610D44C904214BF65460225987865F30100C4
S31500001620987091F90B5091F80AE0680905F01F06C9
S3150000163020300CFA06F644F82060BFF34F8FBFF354
S315000016406F8FC94805F1C00650F8267062F310473F
S3150000165040F8267050F82660C44E4FEA0E1E6719F1
S315000016605FFA8EFE87F800E346F8253091F90550BB
S3150000167091F804E06F0905F01F0820370CFA08F806
S3150000168044F82780BFF34F8FBFF36F8F05F1C00774
S3150000169050F8278062F3104840F8278050F82770EA
S315000016A04FEA0E1E67195FFA8EFE87F800E346F8CA
S315000016B0253091F9075091F806E06F0905F01F08EB
S315000016C020370CFA08F844F82780BFF34F8FBFF392
S315000016D06F8F05F1C00750F8278062F3104840F875
S315000016E0278050F827704FEA0E1E67195FFA8EFEA4
S315000016F087F800E346F8253091F9095091F808E09B
S315000017006F0905F01F0820370CFA08F844F82780FF
S31500001710BFF34F8FBFF36F8F05F1C00750F82780D7
S3150000172062F3104840F8278050F827004FEA0E1061
S31500001730C0B22C4484F8000346F82530EFF3108637
S315000017408CF310884FF000450C788948E5404468D2
S3150000175024EA05044460406886F31088186A82709B
S31500001760186A0271186A4272186A8272186AC2721C
S31500001770186A428340F2F93208780CFA00FC1CEA37
S31500001780020F02D040201A6AD0740625012240F2C8
S31500001790F9301C6A25770C78A240024240F0CA80D4
S315000017A0CA7848788C78D200032842EA041200F0FE
S315000017B0D58000280CBFE220F2201C6AD2B222702B
S315000017C01A6A9071CC69227B082A00F0C380186AD5
S315000017D0520002F00202427300256278A078D2011C
S315000017E0400100F02000D2B20243186A0572207848
S315000017F002380128186A40F2A280D2B2C27160682B
S315000018001A6A847854704578147865F30104147064
S31500001810C4789474D479007804F0A30400F05C00D2
S315000018202043D0710020C3E90300C3E90500DC6949
S315000018304D4A94F90540CD6904F1C00152F8216082
S3150000184095F800C060F3104642F821600CF0030CD6
S3150000185052F82110BFF35F8F4FF0010E6109890026
S3150000186004F01F0401F1604101F561410EFA04F430
S31500001870C1F880410C60D96991F90B4004F1C001AF
S3150000188052F8216060F3104642F8216052F82110A8
S31500001890BFF35F8F6109890004F01F0401F1604105
S315000018A00EFA04F401F56141C1F880410C60D96972
S315000018B091F9074004F1C00152F8216060F3104627
S315000018C042F8216052F82110BFF35F8F6109890049
S315000018D004F01F0401F160410EFA04F401F56141C0
S315000018E0C1F880410C60D96991F9091001F1C00471
S315000018F052F8246060F3104642F8246052F824201F
S31500001900BFF35F8F4A09920001F01F0102F16042A6
S315000019100EFA01F102F56142C2F8801111601A6AED
S315000019204CF0700C82F802C06989124A19815A601B
S31500001930BDE8F0814FF478401A6A908230E7FF25BF
S3150000194045702078022808BF42F01002186AD2B209
S31500001950C27167E70A201A6A50733DE7F22042F027
S3150000196040022AE700E100E000600040A88800206D
S31500001970004008405549435303207047EFF3038363
S31500001980103B1F4A5BB203F1C00152F8210020F45C
S31500001990803042F8210052F821201A4A52F82300DA
S315000019A0C3691B6983B1036903B17047026A0021E9
S315000019B0937803F07F0343F004039370436AC16096
S315000019C0C3B18022FFF7DEBD0369026A002BEED0A9
S315000019D08378C16803F00303022B0CD00B78D37015
S315000019E08278D0E9031302F003029B1A1144C0E97E
S315000019F00313D9E770470B8843F47E43D381EFE79F
S31500001A0000600040A888002010B582B0EFF3038381
S31500001A10103B1F4A5BB203F1C00152F8210020F4CB
S31500001A20803042F8210052F821201A4A52F8234009
S31500001A30A27802F00303022B236A0CBF198A597994
S31500001A40A3690CBFC1F30801C9B2019143B9636A26
S31500001A50B3B10422204602B0BDE81040FFF792BDA4
S31500001A6002F0030201A9606901F080FCD4E90521B6
S31500001A70A37803F003031A44C91AC4E9052109B17E
S31500001A8002B010BD636A002BFAD00122E2E700BF64
S31500001A9000600040A888002010B5EFF303830E4ACB
S31500001AA0103B5CB252F82400026A937803F07B0381
S31500001AB09370436A1BB102220021FFF763FD074AB8
S31500001AC004F1C00352F8231021F4803142F82310A8
S31500001AD052F8233010BD00BFA888002000600040E7
S31500001AE010B5EFF303831A4A103B5CB252F8240098
S31500001AF0837803F00303022B036A0CBF198A597912
S31500001B0093F804C00CBFC1F30801C9B21CF0100F52
S31500001B100CF0380206D093F81CC01CF0010F08BF69
S31500001B2042F0400293F804C00CF0C70C83F804C0DE
S31500001B30436A0BB1FFF726FD064A04F1C00352F8CB
S31500001B40231021F4803142F8231052F8233010BDBF
S31500001B50A88800200060004030B5436A85B004467E
S31500001B608C4601ADABB193E8070085E807006268D3
S31500001B701846127883F804C01A60A26A9A60236A2B
S31500001B809847636A1BB195E8070083E8070005B02C
S31500001B9030BD2B46EBE700BF00222DE9F04F0B7856
S31500001BA083B003F5800303F58C531B024160836009
S31500001BB08B690D460362CB690446C0E909234B696C
S31500001BC093B14FF400215A6812681160596882680F
S31500001BD0096805324A60D3E901121868126890470D
S31500001BE00646002840F033812B6993B14FF000611F
S31500001BF05A68126811605968A268096803328A60D7
S31500001C00D3E901121868126890470646002840F08A
S31500001C1028816068026A817A92F9023092F802C0DD
S31500001C20002B437AAABF4FF0FF0C4FF0040E4FF083
S31500001C30000E012B18BF002792F8018012BFB9468B
S31500001C4002274FF0050908F003080129C37A48F076
S31500001C50800800F00081012B14BF49F0800949F08B
S31500001C60C009437B002B0CBFEA26E226EFF3108A5D
S31500001C70012383F310884FF0004B01787E482BFA3E
S31500001C8001FB416821EA0B01416041688AF3108833
S31500001C9000204FF0840A5FFA89F14FF478490191E8
S31500001CA0A1685FFA88F88870A16891F804B081F895
S31500001CB004A0A168A1F81490A16881F80080A16829
S31500001CC08F70A16840278E711678A26801995670A8
S31500001CD00226A26882F812C0A26882F807E0A2680B
S31500001CE05173A26865491072A2685072A268907218
S31500001CF0A268D072A2685083A268D774A268604FA7
S31500001D00167795F805C095F901205E4E4FEA0C1C32
S31500001D1006EB020E5FFA8CFC8EF800C347F82240F1
S31500001D2002F1C00C51F82CE060F3104E41F82CE0A3
S31500001D3051F82CC0BFF35F8F4FEA521C4FEA8C0C50
S31500001D4002F01F020CF1604C03FA02F20CF5614C32
S31500001D50CCF88021CCF8002095F806C095F9022031
S31500001D604FEA0C1C06EB020E5FFA8CFC8EF800C3E1
S31500001D7047F8224002F1C00C51F82CE060F3104EF7
S31500001D8041F82CE051F82CC0BFF35F8F4FEA521C8C
S31500001D904FEA8C0C02F01F020CF1604C03FA02F2BF
S31500001DA00CF5614CCCF88021CCF8002095F807C0E2
S31500001DB095F903204FEA0C1C06EB020E5FFA8CFC29
S31500001DC08EF800C347F8224002F1C00C51F82CE00F
S31500001DD060F3104E41F82CE051F82CC0BFF35F8F32
S31500001DE04FEA521C4FEA8C0C02F01F020CF1604CB9
S31500001DF003FA02F20CF5614CCCF88021CCF80020F5
S31500001E0095F808C095F904204FEA0C151644EDB272
S31500001E1086F8005347F8224002F1C00551F82560C4
S31500001E2060F3104641F8256051F82510BFF35F8F27
S31500001E3002F01F015209920002F160428B4002F546
S31500001E406142C2F88031136006460F4B236030466C
S31500001E5003B0BDE8F08F002B7FF403AF49F04009D3
S31500001E60FFE66B69002BF2D09A681868136A9847E8
S31500001E70304603B0BDE8F08F0040084000600040E7
S31500001E80A888002000E100E053494353F8B51D46F9
S31500001E9083689B7813F0300342D1C0E90533C0E96B
S31500001EA003124368C56116461A690446D2B14561F4
S31500001EB01B69AAB258680068C281002932D04FF067
S31500001EC0020C5A681268D0786CF38300D0705A6896
S31500001ED0126851605A68186811689A68536898477A
S31500001EE0E8B963685A6952B14EB1A5615B69324679
S31500001EF0996818688E68ABB20021B04778B9236933
S31500001F00002B4BD063681A69002A49D0F021A268D9
S31500001F1093780B43937063681A6972B10020F8BD19
S31500001F200820F8BD5A682B4F1268D07861F38300F9
S31500001F30D0705A6812685760CCE75A69002AEDD10A
S31500001F402269002AEAD0012193F9013022485A0970
S31500001F5003F01F03203201FA03F340F82230BFF3E7
S31500001F604F8FBFF36F8F6369E269934207D2D4E95B
S31500001F70021252B3D35CCB7063690133636162684A
S31500001F80517A012912D092F90130012203F01F0083
S31500001F9011495B09824041F82320BFE7A021B6E73B
S31500001FA05B69002B14BFF0217021B0E7E1690129BC
S31500001FB0E9D99942E7D9D4E9021242B1D35CCB7090
S31500001FC06369626801336361DDE7CA70D4E7CA708A
S31500001FD0F6E700BF6088002000E100E0134600221B
S31500001FE0FFF754BFEFF30383103B164A5BB203F1CE
S31500001FF0C00152F8210020F4803042F8210052F846
S315000020002120114A52F823305A69D9698A4208D2E6
S31500002010D3E9020199B18A5CC2705A69D969013261
S315000020205A618A4200D070471A69002AFBD19A6821
S31500002030937803F07B0343F0040393707047C170F9
S31500002040EBE700BF00600040A8880020EFF30383A1
S31500002050103B194A5BB203F1C00152F8210020F48B
S31500002060803042F8210052F82120144A52F82330D9
S315000020705969DA69914208D2D3E90202D2B1525CB7
S31500002080C2705969DA69013159619969914207D279
S315000020904A1C98689A6140791A695054D3E9061225
S315000020A0914206D19A68937803F03B0343F0040308
S315000020B093707047C270E4E700600040A888002073
S315000020C010B5EFF303830C4A103B5CB252F82400C0
S315000020D001218268937803F003039370FFF73CFDB8
S315000020E0064A04F1C00352F8231021F4803142F865
S315000020F0231052F8233010BDA8880020006000404D
S3150000210010B5EFF303834FF0840C0E4A103B5CB21C
S3150000211052F8240004218268937803F00303937035
S3150000212083681A7983F804C0FFF716FD064A04F19E
S31500002130C00352F8231021F4803142F8231052F8DC
S31500002140233010BDA888002000600040002203460E
S3150000215010461A60704700BF10B40B0A064C1B01EC
S3150000216053FA81F154F821300020C3F340035DF89F
S31500002170044B1370704700BF00080840090A490164
S3150000218001F1804101F500214B6800201380704762
S31500002190090A490123EA020C01F180411A4001F5BE
S315000021A0002142EA0C4200208A6070470120CBB22F
S315000021B0984080B202B900040B0A5B0103F1804328
S315000021C003F5002398600020704700BF10B4090A89
S315000021D0490101F1804101F500210C6802EA030C76
S315000021E04CEA040C62EA030202EA0C020A600020CE
S315000021F05DF8044B704700BF090A490101F18041AF
S3150000220001F500214B680020C3F30F43138070478C
S31500002210012310B44FEA112C4FEA4C1C0CF1804CF0
S315000022200CF5002CDCF80440C9B28B4099B203EAE5
S3150000223014435B1AB3FA83F35B0900205DF8044B81
S3150000224013707047090A490123EA020C01F1804123
S315000022501A4001F5002142EA0C420020CA6070478C
S31500002260012010B40B0A5B0103F1804303F5002340
S31500002270C9B2DC6800FA01F1012A4FEA01400DBF3C
S3150000228084438C4304430C43DC6000205DF8044B1C
S31500002290704700BF2DE9F84F0388DBB182464FF047
S315000022A0000B4FF00109DFF8D0800024304D4FEAD3
S315000022B0CB07DAF8043035F8022BD9198988914210
S315000022C00AD00134032CF4D1BAF800300BF1010B1B
S315000022D05B45EAD8BDE8F88FDB5909FA04F603F046
S315000022E0B853B3F1807FF6B298F8BB3413D03342BB
S315000022F031D1204A04F1200612F81630DB09E0D06D
S3150000230012F81630012123F08003C82002F8163097
S3150000231000F082FED5E7334211D0164A04F12001BF
S3150000232012F81130DB09CCD112F81130C82043F075
S31500002330800302F81130012100F06EFEC1E7012092
S3150000234000F048FF98F8BB340120334388F8BB34CB
S3150000235000F010FFE1E7012000F03CFF98F8BB34E5
S31500002360012023EA060388F8BB3400F003FFC0E728
S31500002370084300000030084000E00140F8B506467A
S31500002380FFF788FFEFF31082012383F31088234FB2
S315000023903B681BB92249CB704023CB703B680133A5
S315000023A03B6082F31088338823B300211D4D08E07B
S315000023B01B01134445F82340328801318BB29A42FF
S315000023C018D9736853F8314003EBC1029288E003D1
S315000023D04FEA1223D2B2EBD502EB031055F820E0F8
S315000023E024F4803C2EF4803E45F820E01B0145F89D
S315000023F020C0DEE7EFF31082012383F310883B68E9
S3150000240013B13B68013B3B603B681BB98020044924
S31500002410CB70C87082F31088F8BD00BFA488002076
S31500002420000D08400008084008B5034B0360084645
S31500002430FFF7A4FF002008BD54524F5008B50846C8
S31500002440FFF79CFF002008BD70B5012686B001ABE2
S3150000245003A80C4615460493ADF80C60ADF80810B9
S315000024600192FFF717FFEFF3108286F310881D49DC
S315000024700B681BB940261C48C370C6700B68013335
S315000024800B6082F31088EA034FEA1423E4B219D4EE
S315000024901B01164A234442F82350EFF3108201230E
S315000024A083F310880B6813B10B68013B0B600B6854
S315000024B01BB980200C49CB70C87082F310880020AD
S315000024C006B070BD094A04EB031052F820601B01E8
S315000024D026F4803642F8206025F4803642F82060E3
S315000024E0D7E700BFA4880020000D08400008084078
S315000024F003460020D3E902235360704770B5836911
S3150000250084B004468C46164601AD9BB193E807009D
S3150000251085E8070083F804C09E60E26918461A60E1
S3150000252063699847A3691BB195E8070083E807002C
S3150000253004B070BD2B46EDE7F0B501260346002535
S31500002540087C596006FA00F010F00F0FD8600CBF37
S31500002550304628461874087CC04A024412029A6023
S315000025604A695A618A69C3E90652CC69EFF3108752
S3150000257086F310884FF00046087CB94AC6401069B9
S3150000258020EA06001061126987F310884FF425408F
S315000025909A684FF0004610609A68D5629A68D563CB
S315000025A09A6895640D780A7A032D4FF000059F68A6
S315000025B04FEAC25208BF42F480324868FA629A680B
S315000025C0013816619F682A467E619F68BE619E68D3
S315000025D075629E68B5629D68A669EE619D68E6694A
S315000025E02E629D68A8669D6868665868266DC569EE
S315000025F095F8480005F1300CD040C0070DD5032AE8
S315000026005CF8220015D0042A20D09F6802F1120E31
S31500002610013807EB8E0ECEF804000132062A1DD0D3
S3150000262095F84800D040C007F7D5032A5CF8220089
S31500002630E9D19A680138D06595F84800C20640F19C
S3150000264071810422042ADCF81000DED19A68013870
S31500002650906595F84820920600F1668100229868F8
S3150000266082639868C0F88820226D3AB994F82120D0
S3150000267094F82000520742EA4032164394F8482064
S315000026800325002A14BF4FF4A0074FF4AA07012020
S315000026909A6817649A6856639A6815639A6810630D
S315000026A0D3E90225D56091F91220002A24DB497C62
S315000026B002F1604509016B4EC9B205F5614585F821
S315000026C00013694946F8223002F1C00551F8256029
S315000026D026F4803641F8256051F82510BFF35F8F48
S315000026E002F01F015209920002F16042884002F591
S315000026F06142C2F88001106094F92820002A27DB85
S3150000270094F8221002F160400901C9B200F5614057
S3150000271080F800135348544940F8223002F1C000B3
S3150000272051F8205025F4803541F8205051F82010FA
S31500002730BFF35F8F01205109890002F01F0201F1EA
S31500002740604101F5614100FA02F2C1F880210A6098
S3150000275094F92920002A27DB94F8231002F160401F
S315000027600901C9B200F5614080F800133D483E49B1
S3150000277040F8223002F1C00051F8205025F480358F
S3150000278041F8205051F82010BFF35F8F0120510906
S31500002790890002F01F0201F1604101F5614100FA72
S315000027A002F2C1F880210A6094F92A20002A27DB68
S315000027B094F8241002F160400901C9B200F56140A5
S315000027C080F800132748284940F8223002F1C0005B
S315000027D051F8205025F4803541F8205051F820104A
S315000027E0BFF35F8F01205109890002F01F0201F13A
S315000027F0604101F5614100FA02F2C1F880210A60E8
S3150000280094F92B20002A31DB94F8251002F1604060
S315000028100901C9B200F5614080F800131148124958
S3150000282040F8223002F1C00051F8205025F48035DE
S3150000283041F8205051F82010BFF35F8F0120510955
S31500002840890002F01F0201F1604101F5614100FAC1
S3150000285002F2C1F880210A6008E000BF901640002D
S3150000286000400840A88800200060004094F92C2011
S31500002870002A27DB94F8261002F160400901C9B24C
S3150000288000F5614080F8001329482A4940F82230B3
S3150000289002F1C00051F8205025F4803541F820504F
S315000028A051F82010BFF35F8F01205109890002F013
S315000028B01F0201F1604101F5614100FA02F2C1F81F
S315000028C080210A6094F92D20002A27DB94F827102E
S315000028D002F160400901164CC9B200F5614080F86A
S315000028E00013144944F8223002F1C00051F8204088
S315000028F024F4803441F8204051F82010BFF35F8F54
S3150000290001205109890002F01F0201F1604101F521
S31500002910614100FA02F2C1F880210A60064A0020ED
S315000029201A60F0BD052267E60522DCF814006CE6A5
S31500002930A888002000600040545047002DE9F0416F
S31500002940EFF30383103B7B4C59B201F1C00E54F8F0
S315000029502E2022F4803244F82E208A0002F1804292
S3150000296002F5C042D2F80003734850F821004568CA
S3150000297095F800C0ED69BCF1010F09D043692BB190
S31500002980BDE8F04100221146FFF7B8BDBDE8F08171
S315000029904FF00008D0E90276BE60866803F0FF03B8
S315000029A0C6F848808668C6F84C808668C6F85080A7
S315000029B054F82E7068F3104744F82E70D2F80023AE
S315000029C0BFF35F8F5D4A490903F01F030CFA03F357
S315000029D0603142F8213095F84830D90703D595F98A
S315000029E02810414576DA9B0704D595F92930002B46
S315000029F080F2888095F92A30002B53DA95F92B302E
S31500002A00002B37DA95F92C30002B1BDA95F92D308F
S31500002A10002BB3DB474A03F1C00152F8214024F4EE
S31500002A20803442F8214052F82120BFF35F8F012104
S31500002A305A09424C03F01F03603201FA03F344F8CB
S31500002A4022309BE73B4A03F1C00152F8214024F4AF
S31500002A50803442F8214052F82120BFF35F8F0121D4
S31500002A605A09364C03F01F03603201FA03F344F8A7
S31500002A702230CBE72F4A03F1C00152F8214024F45B
S31500002A80803442F8214052F82120BFF35F8F0121A4
S31500002A905A092A4C03F01F03603201FA03F344F883
S31500002AA02230AFE7234A03F1C00152F8214024F453
S31500002AB0803442F8214052F82120BFF35F8F012174
S31500002AC05A091E4C03F01F03603201FA03F344F85F
S31500002AD0223093E701F1C00354F8237068F31047DE
S31500002AE044F8237054F82330BFF35F8F4C0901F08C
S31500002AF01F010CFA01F304F1600142F8213095F848
S31500002B00483070E70B4A03F1C00152F8214024F423
S31500002B10803442F8214052F82120BFF35F8F012113
S31500002B205A09064C03F01F03603201FA03F344F816
S31500002B3022305FE700600040A888002000E100E046
S31500002B40844630B482B0019100921D4990F9042068
S31500002B501C4D51F82200C03255F822101A4C21F0B3
S31500002B60807145F822109CF9041041F40041E28975
S31500002B7092B29142FBD008222274019A0AB1019ABC
S31500002B804260009A0AB1009A8260C27802F0C001DF
S31500002B90802913D03F2A98BFC381182200200A4BF0
S31500002BA008491A749CF90430C03351F8232042F0C6
S31500002BB0807241F8232002B030BC70478381ECE775
S31500002BC000000020006000400054004006207047CE
S31500002BD006207047034693F904300549C03351F87F
S31500002BE02320002042F0807241F82320704700BF66
S31500002BF000600040034693F904300549C03351F89C
S31500002C002320002022F0807241F82320704700BF65
S31500002C1000600040002290F90400124B53F8203067
S31500002C20C1E90022DA783F2A0CD94FF480728A6013
S31500002C30DA89D2B2CA60DA7802F0C002802A09D0F4
S31500002C40002070474FF480328A60DB8900209BB2F7
S31500002C50CB6070474FF480320A609B8900209BB29C
S31500002C604B60704700000020062070470620704722
S31500002C700346002230B593F904C0074C0CF1C00E90
S31500002C8054F82E10054D21F0807144F82E1045F8A9
S31500002C902C201A60104630BD006000400000002065
S31500002CA030B5864690F904301C4DC03355F82320C4
S31500002CB01B4C22F0807245F8232090F9042042F440
S31500002CC00042E3899BB29A42FBD00B46DA789C46D7
S31500002CD03F2A05D9DA89D2B202EB022292B2DA8110
S31500002CE09CF8022010333F2AF0D84FF0080C182227
S31500002CF00B4B0C4D83F810C09EF904C0074C45F8E9
S31500002D002C101A749EF904300020C03354F8232086
S31500002D1042F0807244F8232030BD00BF00600040BE
S31500002D200054004000000020F8B5274A04461378F6
S31500002D300D4643B36B6893F90030002B3FDB234805
S31500002D4050F82320002A3CD123712D68BDB12B46B3
S31500002D50DA7819463F2A05D9DA89D2B202EB02227D
S31500002D6092B2DA818A7810333F2AF1D808211822E4
S31500002D70174B197494F9041040F821501A74154B26
S31500002D8000202360F8BD01261670EFF3108086F34D
S31500002D901088114A116821F480011160126880F3CD
S31500002DA010880A4F19462422384600F0D7FA084BF5
S31500002DB05F611E736B6893F90030002BBFDA0B203E
S31500002DC0F8BD0820F8BD00BF618800200000002083
S31500002DD0005400400043544400400840064B074955
S31500002DE093F826001A6A51F82030C2F302620449A9
S31500002DF0D3400B60704700BF00E001406004002034
S31500002E00D8880020704700BFF8B54AF20350012366
S31500002E104549464AA1F8FE03A2F80431B2F8043146
S31500002E209BB2002BFAD101204FF400454FF0090C5C
S31500002E303F4CDFF818E13F4EC4F804E0DFF810E13C
S31500002E403D4FC4F80CE0A2F800013C4A3649B06098
S31500002E5030602760A5602561626191F82620086AC6
S31500002E6054F82220364EC0F30260C240326081F828
S31500002E70133481F8A2C091F880341BB991F88134DB
S31500002E8099074CD0284D95F88034002B3CD0002271
S31500002E90254B83F8812483F880240023224981F876
S31500002EA0323091F83C301A07FBD543F2021000236A
S31500002EB01D4A088581F82A3092F83C309B06FBD5DE
S31500002EC00320052319494FF0F10C81F81C011D4917
S31500002ED0116282F8263092F82630156A54F82300DB
S31500002EE0C5F30264E04030600123F0244FF425402E
S31500002EF0154981F80CC00B720C7382F8303082F8D9
S31500002F005230A2F8FE03F8BD0121C82085F88014CE
S31500002F1000F082F895F88034012BFBD1B7E74FF427
S31500002F207A70FFF76FFFB8E700E0014000C001408C
S31500002F306004002000700040002D310100C2EB0B40
S31500002F40D8880020211201200020004000127A00BB
S31500002F5000366E0138B50025284C0121C82084F8BA
S31500002F60285000F059F884F8245094F82430002BA7
S31500002F70FBD194F82430214943F0020384F824302D
S31500002F8091F82430C3F340009B07F9D41B4A81F81B
S31500002F90220092F8223003F0FF00002BF9D192F8BC
S31500002FA04030164960F3C71382F8403091F840303C
S31500002FB0DB09FBD191F84200104A63F3C71081F890
S31500002FC0420092F84230DB09FBD192F844000B49EB
S31500002FD063F3C71082F8440091F84430C3F3C01479
S31500002FE0DB09F9D1012000F0F5F8054B012083F843
S31500002FF0BB44BDE8384000F0BDB800BF0030084013
S3150000300000E00140704700BF00BEFEE7A0F10100EE
S315000030100028FBD1704700BF1F4B204A1B6800FBEE
S3150000302001F1934213D302F1854202F5071203F52B
S31500003030741302F6834203F6FF03A2FB03231B0D60
S31500003040A3FB01314FF0FF30F9B1FFF7DFBF4FF4BB
S315000030507A7210B4A1FB02C41148B0FBF3F34FF02F
S31500003060FF3044B9BCFBF3FC4FEA9C0088B15DF825
S31500003070044BFFF7CBBF9B00B1FBF3F1A1FB0212A0
S31500003080002AF4D1084620B1F1E71846002BDCD11E
S3150000309070475DF8044B7047D888002000127A000C
S315000030A000CA9A3B70B500240B4B0C4EB3F8202196
S315000030B0B3F84051ADB2154025FA04F3DB0704D549
S315000030C056F82430E0B203B198470134102CF3D1FE
S315000030D0014BA3F8305170BD0060004064880020A9
S315000030E030B5032085B000F075F800256FF0FF01BC
S315000030F04FF0FF301B4B1C4C996422462B464FF079
S31500003100010ECDE90100039032F8021F0EFA03FC0E
S31500003110013311B1012520EA0C00092BF4D1F5B1D8
S315000031200190124B0F4A1067C3F8800202990320E0
S315000031305167C3F8841203999167C3F8881200F0A7
S3150000314019F800230A4834F8022F03F1C0010133AD
S315000031500AB140F82120092BF5D105B030BD4FF05A
S31500003160FF30DEE700800040F242000000E100E0B0
S3150000317000600040EFF31081012383F31088124BA7
S3150000318033F8102092B22AB133F81020013A92B2E5
S3150000319023F8102033F810309BB293B910B40B4AC1
S315000031A00B4CB2F8FE3334F810009BB243F42543BF
S315000031B023EA0003A2F8FE3381F310885DF8044B7E
S315000031C0704781F310887047CC88002000E00140EA
S315000031D04844000030B4EFF31081012383F31088D4
S315000031E00E4A32F810309BB26BB90D4C0D4DB4F847
S315000031F0FE3335F810C09BB243EA0C0343F4254373
S315000032009BB2A4F8FE3332F8103001339BB222F899
S31500003210103081F3108830BC704700BFCC88002086
S3150000322000E001404844000000BE704708B500F0C9
S3150000323035F8FEF7A1F9FEE7F8B5174F05463E68E3
S31500003240A6B17C6806EB460604EB860602E00C3463
S31500003250B4420BD0637AAB42F9D1D4E90002002123
S31500003260121A0C3400F07AF8B442F3D1BE6896B163
S31500003270FC6804EB061602E01034A6420BD0637B12
S31500003280AB42F9D1D4E90002A168121A103400F059
S315000032906DF8A642F3D1F8BD704300004FF47001FB
S315000032A0274B284A70B50020C3F888109A60FEF7AD
S315000032B057F9FFF7A9FD0120FEF752F9224B83F3D8
S315000032C00A880020FFF7B8FFFFF788FDFFF742FEE8
S315000032D00320FFF77FFF00234FF6FF701B4903F122
S315000032E0080201330C2B21F81200F8D10024032028
S315000032F0FFF740FF0320FFF76DFF154B03205C60CF
S315000033009C60DC601C61FFF735FF0220FEF728F9A0
S315000033100120FFF791FF0F4D0F4B5B1BA3424FEAB6
S31500003320A30605DD55F8043B01349847A642F9DCAF
S31500003330FFF7D6FEBDE870400020FFF763BE00BF72
S3150000334000ED00E00000000060000020000D0840D5
S3150000335000000E40AC440000B044000002440346A6
S31500003360934200D1704703F8011BF9E70A44431E54
S31500003370914200D1704710B511F8014B914203F804
S31500003380014FF9D110BD00004653505F53554343DA
S31500003390455353203D3D2065727200002E2E2F733B
S315000033A072632F554152545F44656275672F75618C
S315000033B072745F64656275672E6300002E2E2F732C
S315000033C072632F53637265656E2F737437373335A7
S315000033D02E630000E6ACA2E8BF8E000057656C6362
S315000033E06F6D650050726573732041206F722042C5
S315000033F0000000005061676520310000507265735F
S31500003400732042206261636B0000000050616765B3
S315000034102032000050726573732041206261636B35
S3150000342000000000554152545F44656275675F496C
S315000034306E697400101002003C340000E4BDA00068
S3150000344074340000E5A5BD005434000000000000FF
S31500003450000000000800083F082008103F08240468
S315000034602404A47F2404120414040804140422046B
S3150000347021050002100110011001887F88404C20B0
S315000034802C040A048914882448244844284408043F
S3150000349008050802080C0100A43400000810010009
S315000034A018390000000000000000000000000000C5
S315000034B00000181818181000180000000000242436
S315000034C000000000000000000000002CFE247E2406
S315000034D0240000000000107E121C68483E08000010
S315000034E00000CE492E106894F200000000001C2651
S315000034F0360C5263FE0000000000181800000000A1
S315000035000000000000003018080C0C0C0810200009
S3150000351000000C183020202010180400000010763F
S315000035203C10000000000000000000001818FE1803
S3150000353018000000000000000000001818100C0021
S315000035400000000000003C00000000000000000039
S315000035500000000018000000000040203010080C99
S31500003560040200000000007E42F2CE423C00000051
S315000035700000001E101010107E0000000000007EEB
S315000035806020100C7E0000000000007E603C404081
S315000035903E00000000000030282422FF200000002A
S315000035A00000003E063E40403E0000000000003C99
S315000035B0067E42427C0000000000007C603010085D
S315000035C00C0000000000007E463C66427E000000C3
S315000035D00000007E426658601E00000000000000E9
S315000035E0180000001800000000000000180000107D
S315000035F018100C00000000003008061860000000DB
S3150000360000000000007E007E0000000000000000B8
S315000036100C3060180400000000001C206038080010
S31500003620180000000000788692A9A5B569023E0040
S31500003630000000182C24467E830000000000007E57
S31500003640423E42423E0000000000007C02020206AA
S315000036507C0000000000007EC2C2C2423E000000A4
S315000036600000003E067E06067E0000000000003ECA
S31500003670067E0606060000000000007C027242423A
S315000036807C00000000000042427E424242000000F0
S315000036900000003C181818187E0000000000003CCE
S315000036A0202020203E00000000000062120E1A3288
S315000036B06200000000000004040404047C00000012
S315000036C000000066E6DADA838300000000000046A8
S315000036D04A5A5262620000000000007EC2C3C34222
S315000036E03C0000000000007E42423E020200000054
S315000036F00000007EC2C3C3423C10E0000000007E12
S31500003700463E3666460000000000007E021C604011
S315000037107E0000000000007C181818181800000031
S3150000372000000042424242427C000000000000C30A
S315000037304266243C1800000000000083829ADA6684
S3150000374066000000000000462C183864C200000025
S31500003750000000C2643C1818180000000000007C3D
S31500003760201008047E000000000038080808080839
S315000037700808380000000604081810202040000041
S3150000378000003C303030303030303C000000001853
S3150000379024420000000000000000000000000000BD
S315000037A00000FF0000000C00000000000000000008
S315000037B0000000003C407C427E0000000000020247
S315000037C07A4642423E0000000000000078060206EB
S315000037D07C000000000040407C4242625C00000029
S315000037E0000000003C427E027C0000000000F00861
S315000037F0087E08080800000000000000FC42661A67
S315000038007EC27E00000002027A464242420000006A
S31500003810000018001E1010107E000000000030008E
S315000038203E20202020201E000000060666160E36CA
S315000038306600000000001E10101010107E00000030
S31500003840000000006ED2D2D2D200000000000000BC
S315000038507A46424242000000000000003C42C2425A
S315000038603C000000000000007A4642423E02020090
S31500003870000000007C4242625C4040000000000004
S315000038807E46060606000000000000007C063C405E
S315000038903E000000000000087F08080878000000CD
S315000038A000000000424242427C000000000000008E
S315000038B04246243C180000000000000083D25A6AE9
S315000038C06600000000000000462C182C4600000090
S315000038D000000000424624381818070000000000C7
S315000038E07E20180C7E0000000000700808080E08F4
S315000038F008087000001010101010101010101000A2
S3150000390000001C101010701010100C0000000000B9
S31500003910000EF200000000000000000000000000A1
S315000039200000000000000000000000181818181819
S3150000393018100010180000000000002C2424240099
S315000039400000000000000000000000006824FE24C3
S3150000395024247E2424000000000000107C16121689
S31500003960386848483E080800000000864B692E105B
S315000039700868949263000000000000003C26261CA4
S315000039804E527362FE00000000000018181818005E
S315000039900000000000000000000000201018080CC5
S315000039A00C0C0C0808183020000000040810103019
S315000039B0202020301018080400000010502C385623
S315000039C010000000000000000000000000001818B1
S315000039D018FE181818000000000000000000000083
S315000039E00000001818100C00000000000000000085
S315000039F0003C000000000000000000000000000085
S31500003A000000001818000000000000406020301080
S31500003A101008080404020000000000003C6642E2B0
S31500003A20DACE42663C00000000000000181E1210AC
S31500003A30101010107E000000000000003C62606064
S31500003A40201008047E000000000000003E60602098
S31500003A503C4040603E000000000000003038282452
S31500003A602622FF2020000000000000007E06060639
S31500003A707E4040603E00000000000000780C061208
S31500003A806E4242463C000000000000007E4060207E
S31500003A90301018080C000000000000003C46426C84
S31500003AA0386642423C000000000000003C6642428C
S31500003AB0665840201E000000000000000000181894
S31500003AC00000001818000000000000000000181890
S31500003AD00000001818100C0000000000000020185C
S31500003AE00C06083060000000000000000000000026
S31500003AF07E007E00000000000000000000000C18A0
S31500003B0020603008040000000000000C386060608F
S31500003B10180800080800000000000038448282BB34
S31500003B20ADA5A5F52903023C0000000018382C2499
S31500003B3064467EC283000000000000003E624262CE
S31500003B403E4242423E0000000000000078040202AD
S31500003B50020202067C000000000000003E6242C233
S31500003B60C2C242621E000000000000007E06060679
S31500003B707E0606067E000000000000007E060606A1
S31500003B807E06060606000000000000007806020217
S31500003B90734242467C00000000000000424242425E
S31500003BA07E42424242000000000000007E181818C3
S31500003BB0181818187E000000000000003E20202083
S31500003BC0202020221E000000000000004222120ACF
S31500003BD00E1A322242000000000000000404040411
S31500003BE0040404047C000000000000004666E6FAB7
S31500003BF0DADA8383830000000000000046464E4A5E
S31500003C005A52726262000000000000003C46C2C3C5
S31500003C10C3C3C2463C000000000000003E624242B0
S31500003C20621E020202000000000000003C46C2C301
S31500003C30C3C3C2463C18F000000000003E6646665C
S31500003C403E36266646000000000000007C0602069E
S31500003C50386040403E00000000000000FE181818C2
S31500003C6018181818180000000000000042424242CE
S31500003C70424242463C0000000000000083C2424629
S31500003C8064242C3818000000000000008383829210
S31500003C90DADA6E666600000000000000C2662C18C4
S31500003CA018382466C3000000000000008342662C1A
S31500003CB03818181818000000000000007E40203058
S31500003CC0180804067E0000000000003808080808EE
S31500003CD00808080808080838000000020404080854
S31500003CE010103020604000000000003C30303030C2
S31500003CF0303030303030303C000000001838244678
S31500003D0000000000000000000000000000000000AD
S31500003D1000000000000000FF000000040800000092
S31500003D2000000000000000000000000000003C60F1
S31500003D30407C42625E0000000000000202023A4639
S31500003D40424242423E0000000000000000007804AB
S31500003D50060206047C0000000000004040407C464D
S31500003D60424242665C0000000000000000003C4643
S31500003D70427E02067C000000000000F01808087E63
S31500003D800808080808000000000000000000FC66A3
S31500003D9042661A027CC2423C0000000202023A4617
S31500003DA042424242420000000000001818001E1065
S31500003DB0101010107E0000000000002030003E2091
S31500003DC0202020202020301E000000060606463651
S31500003DD01E0E1626460000000000001E10101010D1
S31500003DE0101010107E0000000000000000006ED2CF
S31500003DF0D2D2D2D2D20000000000000000003A4623
S31500003E0042424242420000000000000000003C46E0
S31500003E1042C242463C0000000000000000003A4654
S31500003E20424242423E0202020000000000007C467E
S31500003E30424242665C404040000000000000764E70
S31500003E40C6060606060000000000000000007C040E
S31500003E50043C60403E0000000000000008087F08A7
S31500003E600808080878000000000000000000424230
S31500003E70424242665C000000000000000000C242B0
S31500003E8066242C1818000000000000000000838340
S31500003E90DA5A7A66660000000000000000004664F8
S31500003EA03818386446000000000000000000C242D6
S31500003EB066242C3818180C070000000000007E60ED
S31500003EC0301808047E00000000000070180808087A
S31500003ED00C0E0808080818700000101010101010BA
S31500003EE010101010101010100000000C18101010F8
S31500003EF0307010101010180C0000000000000000B8
S31500003F008ED26000000000005350495F535437378B
S31500003F1033355F496E69740000002110422063301A
S31500003F208440A550C660E770088129914AA16BB10B
S31500003F308CC1ADD1CEE1EFF13112100273325222B3
S31500003F40B5529442F772D662399318837BB35AA35B
S31500003F50BDD39CC3FFF3DEE3622443342004011483
S31500003F60E664C774A44485546AA54BB528850995AB
S31500003F70EEE5CFF5ACC58DD5533672261116300653
S31500003F80D776F6669556B4465BB77AA719973887FB
S31500003F90DFF7FEE79DD7BCC7C448E5588668A77813
S31500003FA04008611802282338CCC9EDD98EE9AFF94B
S31500003FB0488969990AA92BB9F55AD44AB77A966AF3
S31500003FC0711A500A333A122AFDDBDCCBBFFB9EEB9B
S31500003FD0799B588B3BBB1AABA66C877CE44CC55CC3
S31500003FE0222C033C600C411CAEED8FFDECCDCDDDEB
S31500003FF02AAD0BBD688D499D977EB66ED55EF44E93
S31500004000133E322E511E700E9FFFBEEFDDDFFCCF3A
S315000040101BBF3AAF599F788F8891A981CAB1EBA18E
S315000040200CD12DC14EF16FE18010A100C230E3200A
S315000040300450254046706760B9839893FBA3DAB3B2
S315000040403DC31CD37FE35EF3B1029012F322D2325A
S315000040503542145277625672EAB5CBA5A895898582
S315000040606EF54FE52CD50DC5E234C324A0148104AA
S315000040706674476424540544DBA7FAB79987B89752
S315000040805FE77EF71DC73CD7D326F2369106B016FA
S3150000409057667676154634564CD96DC90EF92FE912
S315000040A0C899E9898AB9ABA944586548067827684A
S315000040B0C018E1088238A3287DCB5CDB3FEB1EFBF2
S315000040C0F98BD89BBBAB9ABB754A545A376A167A9A
S315000040D0F10AD01AB32A923A2EFD0FED6CDD4DCDC2
S315000040E0AABD8BADE89DC98D267C076C645C454CEA
S315000040F0A23C832CE01CC10C1FEF3EFF5DCF7CDF92
S315000041009BAFBABFD98FF89F176E367E554E745E39
S31500004110932EB23ED10EF01E4046281E05410000E9
S315000041200000000000000000000000000000000089
S315000041300000000000000000000000000000000079
S315000041409C34000000000000000000004046281ECD
S315000041500542000000000000000000000000000012
S315000041600000000000000000000000000000000049
S31500004170000000009C340000000000000000000069
S31500004180CC8700209042000010430000030200008C
S315000041900C000C010C020C030000000000000000E3
S315000041A05101000000000000AC41000000010000C9
S315000041B02C0000200F00FFFF00000000FFFF0000A2
S315000041C000000000A08601000000000050C30000AF
S315000041D0000A0400C101000000000000E0410000E8
S315000041E000000000000000000000000000000000C9
S315000041F000000000000000000000000000000000B9
S315000042000000FFFFFFFFFFFFDFDFDFDFDFDF000074
S315000042100000000000000000000000000000000098
S315000042200000000000000000000000000000000088
S31500004230000000000000000002050607080C0C0C38
S315000042400C000101010000006042000078420000FD
S31500004250F10B0000000000005C42000002000000BC
S31500004260508800206C4200004443000030000020CB
S3150000427074420000060000005888002084420000B6
S3150000428044430000400000208C420000050000006E
S315000042900B0000009C42000000000000040000002B
S315000042A002000000000001000801000000000104F7
S315000042B002020000000001000003000000000104EB
S315000042C001030000000001040203000004000000D6
S315000042D00B050000000001050607000000000105AF
S315000042E007070000040000000308000004000000A7
S315000042F0040800009201930194019501C6008C0107
S315000043008D018E018F0100000204030404040000E5
S31500004310292400004D2100003D240000492400000E
S31500004320112200006122000059210000AD21000089
S31500004330CD210000F9210000452200007D2100006A
S3150000434091210000292D0000A12C0000412B000026
S31500004350D52B0000F52B0000CD2B0000D12B000043
S31500004360152C0000712C0000692C00006D2C00003B
S3150000437004000000184400000800000098430000F4
S31500004380020000008843000000000068000000688A
S315000043906000002060000020000000680000006847
S315000043A00000006000010C080000006800000068C2
S315000043B000000070000109080000006800000068A5
S315000043C00000000800010208000000680000006804
S315000043D064000000000101082400002024000020E1
S315000043E00000006000010C032400002024000020CF
S315000043F000000070000109032400002024000020B2
S3150000440000000008000002032400002050000020E5
S31500004410640000000000010300000068000000685E
S3150000442000010008000000680000006800010008A4
S3150000443050000020600000200000000380040020DF
S31500004440DC880020000000030100020008001000C4
S31500004450200000004275696C7420776974682052E8
S31500004460656E6573617320416476616E6365642071
S31500004470466C657869626C6520536F667477617205
S3150000448065205061636B6167652076657273696F3D
S315000044906E20362E332E3100362E332E310000009C
S309000044A00001030608
S309000044A4F8B500BFA2
S309000044A8F8B500BF9E
S309000044ACFD00000009
S309000044B0D50000002D
S3090100A100FFFFFFFF58
S3090100A200FFFDFFFF59
S3090100A280F8F8FFFFE5
S7050000322D9B
