:0300000002921257
:0C921200787FE4F6D8FD758107027EBC71
:103DB600312E3434205446545F4C434420544553EA
:103DC60054005245534F4C5554494F4E3A313238B0
:103DD60078313238004452495645522049433A53C5
:103DE600543737333500FFFFFFFFFFFFFFFFFFFFAD
:103DF600FFFFFFFFFFFFFFFFFFFFFFFFFFFFFFFFCD
:103E0600FFFFFFFFFFFFFFFFFFFFFFFFFFFFFFFFBC
:103E1600FFFFFFFFFFFFFFFFFFFFFFFFFFFFFFFFAC
:103E2600FFFFFFFFEFFF96BF13D70C7A047A047AE1
:103E36000459047A047A043B043B043A043A045ACB
:103E4600045A045A045A043A043A043A043A043A1C
:103E5600043A043A04190419041903D83437EFFF55
:103E6600FFFFFFFFE7FF12F40BD903F803F803D9AE
:103E760003B90BB913149E3CF7FFFFFFFFFFFFDFEB
:103E8600FFDFFFFFFFFFFFFFFFFFFFFFFFFFFFFF5C
:103E9600FFFFFFFFFFFFFFFFFFFFFFFFFFFFFFFF2C
:103EA600FFFFFFFFFFFFFFFFFFFFFFFFFFFFFFFF1C
:103EB600FFFFFFFFFFFFFFFFFFFFFFFFFFFFFFFF0C
:103EC600FFFFFFFFFFFFFFFFFFFFFFFFFFFFFFFFFC
:103ED600FFFFFFFFFFFFFFFFFFFFFFFFFFFFFFFFEC
:103EE600FFFFFFFFFFFFFFFFFFFFFFFFFFFFFFFFDC
:103EF600FFFFFFFFFFFFEFFF969F13D7047A047AB9
:103F0600047A045A047A045A043B043B043A0439FA
:103F160004390439043A043A041904190419041931
:103F26000419041903F903F9041903F803B72C1744
:103F3600EFFFFFFFFFFFE7FF0AD303B903D803D75D
:103F460003B803990B980AF4963CF7FFFFFFFFFFAF
:103F5600FFFFFFFFFFFFFFFFFFFFFFFFFFFFFFFF6B
:103F6600FFFFFFFFFFFFFFFFFFFFFFFFFFFFFFFF5B
:103F7600FFFFFFFFFFFFFFFFFFFFFFFFFFFFFFFF4B
:103F8600FFFFFFFFFFFFFFFFFFFFFFFFFFFFFFFF3B
:103F9600FFFFFFFFFFFFFFFFFFFFFFFFFFFFFFFF2B
:103FA600FFFFFFFFFFFFFFFFFFFFFFFFFFFFFFFF1B
:103FB600FFFFFFFFFFFFFFFFFFFFFFFFFFFFFFFF0B
:103FC600FFFFFFFFFFFFFFFFEFFF969F13D7045A88
:103FD600047B045B045A045A045A045B043B043A07
:103FE6000439043904390419043904190418041865
:103FF600041903F903F903F903F903F903F903B8FB
:104006002C17E7FFFFFFFFFFE7FF0AD40BB903B842
:1040160003B803B8039903990AF4961CF7FFF7FF50
:10402600FFFFFFFFFFFFFFFFFFFFFFFFFFFFFFFF9A
:10403600FFFFFFFFFFFFFFFFFFFFFFFFFFFFFFFF8A
:10404600FFFFFFFFFFFFFFFFFFFFFFFFFFFFFFFF7A
:10405600FFFFFFFFFFFFFFFFFFFFFFFFFFFFFFFF6A
:10406600FFFFFFFFFFFFFFFFFFFFFFFFFFFFFFFF5A
:10407600FFFFFFFFFFFFFFFFFFFFFFFFFFFFFFFF4A
:10408600FFFFFFFFFFFFFFFFFFFFFFFFFFFFFFFF3A
:10409600FFFFFFFFFFFFFFFFFFFFEFFF969F13B638
:1040A600045A045B045B045B045A045A045B045A16
:1040B600043A0439043904190419041904190419B1
:1040C60004190419041903F903F903F903F903F9A7
:1040D60003B82C37E7FFFFFFFFFFEFFF0AD40B996A
:1040E60003B803B803B8039903990AF4961BF7FFBC
:1040F600FFFFFFFFFFFFFFFFFFFFFFFFFFFFFFFFCA
:10410600FFFFFFFFFFFFFFFFFFFFFFFFFFFFFFFFB9
:10411600FFFFFFFFFFFFFFFFFFFFFFFFFFFFFFFFA9
:10412600FFFFFFFFFFFFFFFFFFFFFFFFFFFFFFFF99
:10413600FFFFFFFFFFFFFFFFFFFFFFFFFFFFFFFF89
:10414600FFFFFFFFFFFFFFFFFFFFFFFFFFFFFFFF79
:10415600FFFFFFFFFFFFFFFFFFFFFFFFFFFFFFFF69
:10416600FFFFFFFFFFFFFFFFFFFFFFFFEFFF96BF12
:1041760013B60C39045A043B045A045A045A045A16
:10418600043A04390439041904190419041A041ADE
:10419600041A041A041903F903F903F803F803F8D7
:1041A60003F803B82C17E7FFFFFFFFFFEFFF0AD363
:1041B6000B98039703B703B703B803980AF49E1B3B
:1041C600F7FFFFFFFFFFFFFFFFFFFFFFFFFFFFFF01
:1041D600FFFFFFFFFFFFFFFFFFFFFFFFFFFFFFFFE9
:1041E600FFFFFFFFFFFFFFFFFFFFFFFFFFFFFFFFD9
:1041F600FFFFFFFFFFFFFFFFFFFFFFFFFFFFFFFFC9
:10420600FFFFFFFFFFFFFFFFFFFFFFFFFFFFFFFFB8
:10421600FFFFFFFFFFFFFFFFFFFFFFFFFFFFFFFFA8
:10422600FFFFFFFFFFFFFFFFFFFFFFFFFFFFFFFF98
:10423600FFFFFFFFFFFFFFFFFFFFFFFFFFFFEFFF98
:1042460096BF1BB51439043A043A043A045A045A80
:10425600045A043A04390439043A041A041A041AAA
:10426600041A041A041A041A041A03F903F903F8BF
:1042760003F803F803B82C17E7FFFFFFFFFFEFFF74
:104286000AD30B98039803B703B703B803980AF445
:104296009DFBFFFFFFFFFFFFFFFFFFFFFFFFFFFF8E
:1042A600FFFFFFFFFFFFFFFFFFFFFFFFFFFFFFFF18
:1042B600FFFFFFFFFFFFFFFFFFFFFFFFFFFFFFFF08
:1042C600FFFFFFFFFFFFFFFFFFFFFFFFFFFFFFFFF8
:1042D600FFFFFFFFFFFFFFFFFFFFFFFFFFFFFFFFE8
:1042E600FFFFFFFFFFFFFFFFFFFFFFFFFFFFFFFFD8
:1042F600FFFFFFFFFFFFFFFFFFFFFFFFFFFFFFFFC8
:10430600FFFFFFFFFFFFFFFFFFFFFFFFFFFFFFFFB7
:10431600EFFF969F13B60C39043A043A043A045A4E
:10432600043A043A043A04190419041A041A03FA5A
:1043360003FA03F903F903F903F903FA03F903F995
:1043460003F803F803D803B72C17E7FFFFFFFFFFB7
:10435600E7FF0AB303780378039803980398037872
:104366000AD49DFBF7FFFFFFFFFFFFFFFFFFFFFFE5
:10437600FFFFFFFFFFFFFFFFFFFFFFFFFFFFFFFF47
:10438600FFFFFFFFFFFFFFFFFFFFFFFFFFFFFFFF37
:10439600FFFFFFFFFFFFFFFFFFFFFFFFFFFFFFFF27
:1043A600FFFFFFFFFFFFFFFFFFFFFFFFFFFFFFFF17
:1043B600FFFFFFFFFFFFFFFFFFFFFFFFFFFFFFFF07
:1043C600FFFFFFFFFFFFFFFFFFFFFFFFFFFFFFFFF7
:1043D600FFFFFFFFFFFFFFFFFFFFFFFFFFFFFFFFE7
:1043E600FFFFEFFF969F13B60C39043A043A043ADE
:1043F600045A0439041903F80BD70BB60BB60BB7DE
:104406000BB70B960B9513950BB603D803F903F967
:1044160003F903F803D803D803972BF6E7FFFFFF4A
:10442600FFFFE7FF0A700B350B350B350B350B35E8
:104436000B150A919DDAF7FFFFFFFFFFFFFFFFFF56
:10444600FFFFFFFFFFFFFFFFFFFFFFFFFFFFFFFF76
:10445600FFFFFFFFFFFFFFFFFFFFFFFFFFFFFFFF66
:10446600FFFFFFFFFFFFFFFFFFFFFFFFFFFFFFFF56
:10447600FFFFFFFFFFFFFFFFFFFFFFFFFFFFFFFF46
:10448600FFFFFFFFFFFFFFFFFFFFFFFFFFFFFFFF36
:10449600FFFFFFFFFFFFFFFFFFFFFFFFFFFFFFFF26
:1044A600FFFFFFFFFFFFFFFFFFFFFFFFFFFFFFFF16
:1044B600FFFFFFFFEFFF96BF0B960C590439043A36
:1044C60004390439041813D74D5B655A65396518E4
:1044D600651865396519651865395D5B1BD603D79F
:1044E60003D803F903F903D803D803972C16EFFF73
:1044F600FFFFFFFFEFFF5C1464D864D864B76CB7A6
:104506006CD864B85C35BE9CF7FFFFFFFFFFFFFF6A
:10451600FFFFFFFFFFFFFFFFFFFFFFFFFFFFFFFFA5
:10452600FFFFFFFFFFFFFFFFFFFFFFFFFFFFFFFF95
:10453600FFFFFFFFFFFFFFFFFFFFFFFFFFFFFFFF85
:10454600FFFFFFFFFFFFFFFFFFFFFFFFFFFFFFFF75
:10455600FFFFFFFFFFFFFFFFFFFFFFFFFFFFFFFF65
:10456600FFFFFFFFFFFFFFFFFFFFFFFFFFFFFFFF55
:10457600FFFFFFFFFFFFFFFFFFFFFFFFFFFFFFFF45
:10458600FFFFFFFFFFFFEFFF8E5F13B60C39043905
:10459600045A043A04390C180B33CFFFDFFFE7FF48
:1045A600E7FFE7FFE7FFE7FFEFFFDFFFCFFF345748
:1045B6000BB703F903F903B803D803B803972BF62F
:1045C600EFFFFFFFFFFFFFFFEFFFEFFFEFFFEFFF45
:1045D600F7FFF7FFEFFFEFFFFFFFFFFFF7FFF7FF25
:1045E600FFFFFFFFFFFFFFDFFFFFFFFFFFFFFFFFF5
:1045F600FFFFFFFFFFFFFFFFFFFFFFFFFFFFFFFFC5
:10460600FFFFFFFFFFFFFFFFFFFFFFFFFFFFFFFFB4
:10461600FFFFFFFFFFFFFFFFFFFFFFFFFFFFFFFFA4
:10462600FFFFFFFFFFFFFFFFFFFFFFFFFFFFFFFF94
:10463600FFFFFFFFFFFFFFFFFFFFFFFFFFFFFFFF84
:10464600FFFFFFFFFFFFFFFFFFFFFFFFFFFFFFFF74
:10465600FFFFFFFFFFFFFFFFF7FF9E9F1396041864
:104666000459043A043A043A0C181353CFFFEFFFE7
:10467600F7FFF7FFF7FFFFFFFFFFF7FFE7FFDFFF9C
:1046860033F50B9603D803B803F903B803B80397B9
:104696002BF6EFFFFFFFFFFFFFFFFFFFF7FFF7FF21
:1046A600F7FFFFFFF7FFEFFFF7FFFFDFFFDFFFFF7C
:1046B600FFFFFFFFFFFFFFFFFFFFFFFFFFFFFFFF04
:1046C600FFFFFFFFFFFFFFFFFFFFFFFFFFFFFFFFF4
:1046D600FFFFFFFFFFFFFFFFFFFFFFFFFFFFFFFFE4
:1046E600FFFFFFFFFFFFFFFFFFFFFFFFFFFFFFFFD4
:1046F600FFFFFFFFFFFFFFFFFFFFFFFFFFFFFFFFC4
:10470600FFFFFFFFFFFFFFFFFFFFFFFFFFFFFFFFB3
:10471600FFFFFFFFFFFFFFFFFFFFFFFFFFFFFFFFA3
:10472600FFFFFFFFFFFFFFFFFFFFF7FF967F1375FA
:104736000C5904590419041A043A0BF81B33D7FF11
:10474600F7FFFFFFFFFFFFFFFFFFFFFFFFFFF7FF83
:10475600D7FF33F50BB603F903D803D803B803B86C
:1047660003772BF6EFFFFFFFFFFFF7FFEFFFEFFFEC
:10477600EFFFEFFFEFFFEFFFEFFFEFFFFFFFFFFFA3
:10478600FFFFFFFFFFFFFFFFFFFFFFFFFFFFFFFF33
:10479600FFFFFFFFFFFFFFFFFFFFFFFFFFFFFFFF23
:1047A600FFFFFFFFFFFFFFFFFFFFFFFFFFFFFFFF13
:1047B600FFFFFFFFFFFFFFFFFFFFFFFFFFFFFFFF03
:1047C600FFFFFFFFFFFFFFFFFFFFFFFFFFFFFFFFF3
:1047D600FFFFFFFFFFFFFFFFFFFFFFFFFFFFFFFFE3
:1047E600FFFFFFFFFFFFFFFFFFFFFFFFFFFFFFFFD3
:1047F600FFFFFFFFFFFFFFFFFFFFFFFFEFFF967FBC
:1048060013760BF803D8041903F903B813F71AF251
:10481600D7FFF7FFFFFFFFFFFFFFFFBFFFFFFFFF12
:10482600F7FFD7FF33F5039603D903D903D803B8A7
:1048360003B803772BF6EFFFFFFFFFFFEFFF4BD425
:10484600549954984C785478547854994BF5B65BEF
:10485600F7FFFFFFFFFFFFFEFFFFFFFFFFFFFFFF6B
:10486600FFFFFFFFFFFFFFFFFFFFFFFFFFFFFFFF52
:10487600FFFFFFFFFFFFFFFFFFFFFFFFFFFFFFFF42
:10488600FFFFFFFFFFFFFFFFFFFFFFFFFFFFFFFF32
:10489600FFFFFFFFFFFFFFFFFFFFFFFFFFFFFFFF22
:1048A600FFFFFFFFFFFFFFFFFFFFFFFFFFFFFFFF12
:1048B600FFFFFFFFFFFFFFFFFFFFFFFFFFFFFFFF02
:1048C600FFFFFFFFFFFFFFFFFFFFFFFFFFFFF7FFFA
:1048D6009E7E2B942C3734782C372C3734583C1644
:1048E6003331DFDFF7FFFFFFFFFFFFFFFFFFFFFFB4
:1048F600FFFFEFFFD7FF33F50BB703D803B803D895
:1049060003B803B803772BF6EFFFFFFFFFFFE7FFC0
:104916000A5013350B150B350B150AF513150A71CD
:104926009DDAF7FFF7FFFFFFFFFFFFFFFFFFFFFF28
:10493600FFFFFFFFFFFFFFFFFFFFFFFFFFFFFFFF81
:10494600FFFFFFFFFFFFFFFFFFFFFFFFFFFFFFFF71
:10495600FFFFFFFFFFFFFFFFFFFFFFFFFFFFFFFF61
:10496600FFFFFFFFFFFFFFFFFFFFFFFFFFFFFFFF51
:10497600FFFFFFFFFFFFFFFFFFFFFFFFFFFFFFFF41
:10498600FFFFFFFFFFFFFFFFFFFFFFFFFFFFFFFF31
:10499600FFFFFFFFFFFFFFFFFFFFFFFFFFFFFFFF21
:1049A600FFFFF7FFEFFFE7FFE7FFEFFFEFFFE7FF91
:1049B600E7FFF7FFFFFFFFFFFFFFFFFFFFFFFFFF21
:1049C600FFDFFFFFFFFFDFFF33B40B7503D803B82C
:1049D60003D803B8039803772BD7EFFFFFFFFFFF3A
:1049E600EFFF0A920B570B560B56035603560B57FF
:1049F6000AB29DDAF7FFFFFFFFFFFFFFFFFFFFFF92
:104A0600FFFFFFFFFFFFFFFFFFFFFFFFFFFFFFFFB0
:104A1600FFFFFFFFFFFFFFFFFFFFFFFFFFFFFFFFA0
:104A2600FFFFFFFFFFFFFFFFFFFFFFFFFFFFFFFF90
:104A3600FFFFFFFFFFFFFFFFFFFFFFFFFFFFFFFF80
:104A4600FFFFFFFFFFFFFFFFFFFFFFFFFFFFFFFF70
:104A5600FFFFFFFFFFFFFFFFFFFFFFFFFFFFFFFF60
:104A6600FFFFFFFFFFFFFFFFFFFFFFFFFFFFFFFF50
:104A7600FFFFFFFFF7FFF7FFEFFFEFFFEFFFEFFF90
:104A8600EFFFEFFFEFFFEFFFEFFFF7FFEFFFF7FFA0
:104A9600EFFFF7FFF7FFEFFFD7FF34160B7603B8EC
:104AA60003B803B803B803B803772BD7EFFFFFFFAC
:104AB600FFFFEFFF0A920357037703560376037748
:104AC60003370AB29DFBF7FFFFFFFFFFFFFFFFFF64
:104AD600FFFFFFFFFFFFFFFFFFFFFFFFFFFFFFFFE0
:104AE600FFFFFFFFFFFFFFFFFFFFFFFFFFFFFFFFD0
:104AF600FFFFFFFFFFFFFFFFFFFFFFFFFFFFFFFFC0
:104B0600FFFFFFFFFFFFFFFFFFFFFFFFFFFFFFFFAF
:104B1600FFFFFFFFFFFFFFFFFFFFFFFFFFFFFFFF9F
:104B2600FFFFFFFFFFFFFFFFFFFFFFFFFFFFFFFF8F
:104B3600FFFFFFFFFFFFFFFFFFFFFFFFFFFFFFFF7F
:104B4600FFFFFFFFF7FFD79F965C96BE96BF969F27
:104B560096BF9EBF969E96BF96BF96BF969F9E9FF8
:104B66009E9F969F969F9EBF969F86BF241703770C
:104B760003B803B803980398039803772BD6EFFF7F
:104B8600FFFFFFFFE7FF0A920357037703760357FA
:104B9600035703370AB29DFBF7FFFFFFFFFFFFFF37
:104BA600FFFFFFFFFFFFFFFFFFFFFFFFFFFFFFFF0F
:104BB600FFFFFFFFFFFFFFFFFFFFFFFFFFFFFFFFFF
:104BC600FFFFFFFFFFFFFFFFFFFFFFFFFFFFFFFFEF
:104BD600FFFFFFFFFFFFFFFFFFFFFFFFFFFFFFFFDF
:104BE600FFFFFFFFFFFFFFFFFFFFFFFFFFFFFFFFCF
:104BF600FFFFFFFFFFFFFFFFFFFFFFFFFFFFFFFFBF
:104C0600FFFFFFFFFFFFFFFFFFFFFFFFFFFFFFFFAE
:104C1600FFFFFFFFFFFFF7FF9E7D23731BB51BF60C
:104C26001BD61BD623D61BB51BD51BB51BB61BB671
:104C36001BB61B961BB613B61B9513B513D70BB72E
:104C460003D903B903B803B80398039803772BD69F
:104C5600EFFFFFFFFFFFE7FF0A9203570377037695
:104C66000357035703370AB295FBF7FFFFFFFFFF12
:104C7600FFFFFFFFFFFFFFFFFFFFFFFFFFFFFFFF3E
:104C8600FFFFFFFFFFFFFFFFFFFFFFFFFFFFFFFF2E
:104C9600FFFFFFFFFFFFFFFFFFFFFFFFFFFFFFFF1E
:104CA600FFFFFFFFFFFFFFFFFFFFFFFFFFFFFFFF0E
:104CB600FFFFFFFFFFFFFFFFFFFFFFFFFFFFFFFFFE
:104CC600FFFFFFFFFFFFFFFFFFFFFFFFFFFFFFFFEE
:104CD600FFFFFFFFFFFFFFFFFFFFFFFFFFFFFFFFDE
:104CE600FFFFFFFFFFFFFFFFF7FF9E7E135313F744
:104CF6000C180BF90BD80BD80BF70BD70BD70BD817
:104D06000BD80BB70BB70BB70BB703960BD70376BE
:104D160003B703B803B803B80377039803770357B9
:104D26002BD6EFFFFFFFFFFFE7FF0A92035703773C
:104D360003560357033603360AB295FBF7FFFFFF08
:104D4600FFFFFFFFFFFFFFFFFFFFFFFFFFFFFFFF6D
:104D5600FFFFFFFFFFFFFFFFFFFFFFFFFFFFFFFF5D
:104D6600FFFFFFFFFFFFFFFFFFFFFFFFFFFFFFFF4D
:104D7600FFFFFFFFFFFFFFFFFFFFFFFFFFFFFFFF3D
:104D8600FFFFFFFFFFFFFFFFFFFFFFFFFFFFFFFF2D
:104D9600FFFFFFFFFFFFFFFFFFFFFFFFFFFFFFFF1D
:104DA600FFFFFFFFFFFFFFFFFFFFFFFFFFFFFFFF0D
:104DB600FFFFFFFFFFFFFFFFFFFFF7FF967E137565
:104DC6000C1803F903FA03FA03F903F803F803F8D6
:104DD60003F903D903D803D803B803B703B703B855
:104DE60003B8039703980398039703B703970377CA
:104DF60003572BD6EFFFFFFFFFFFEFFF0A710357A5
:104E0600035703560357033603360A9295FBF7FFFB
:104E1600FFFFFFFFFFFFFFFFFFFFFFFFFFFFFFFF9C
:104E2600FFFFFFFFFFFFFFFFFFFFFFFFFFFFFFFF8C
:104E3600FFFFFFFFFFFFFFFFFFFFFFFFFFFFFFFF7C
:104E4600FFFFFFFFFFFFFFFFFFFFFFFFFFFFFFFF6C
:104E5600FFFFFFFFFFFFFFFFFFFFFFFFFFFFFFFF5C
:104E6600FFFFFFFFFFFFFFFFFFFFFFFFFFFFFFFF4C
:104E7600FFFFFFFFFFFFFFFFFFFFFFFFFFFFFFFF3C
:104E8600FFFFFFFFFFFFFFFFFFFFFFFFF7FF9EBFD5
:104E960013750BF8041A03FA03FA041903D803F876
:104EA60003F903F903D903D803D803D703B703B823
:104EB600039703B8039703D80397037603970397DB
:104EC600039703572BD6EFFFFFFFFFFFEFFF0A7194
:104ED6000337035703560337033603360A9295FB07
:104EE600F7FFFFFFFFFFFFFFFFFFFFFFFFFFFFFFD4
:104EF600FFFFFFFFFFFFFFFFFFFFFFFFFFFFFFFFBC
:104F0600FFFFFFFFFFFFFFFFFFFFFFFFFFFFFFFFAB
:104F1600FFFFFFFFFFFFFFFFFFFFFFFFFFFFFFFF9B
:104F2600FFFFFFFFFFFFFFFFFFFFFFFFFFFFFFFF8B
:104F3600FFFFFFFFFFFFFFFFFFFFFFFFFFFFFFFF7B
:104F4600FFFFFFFFFFFFFFFFFFFFFFFFFFFFFFFF6B
:104F5600FFFFFFFFFFFFFFFFFFFFFFFFFFFFF7FF63
:104F66008E5E137503F8041903FA03D903F903F8DF
:104F760003F903F903F903D903D903D803B703B730
:104F860003B803D903B80397039703B703970377C7
:104F96000397037703562BD6EFFFFFFFFFFFEFFFC5
:104FA6000A71033703570356033703360336029253
:104FB6009DFBF7FFFFFFFFFFFFFFFFFFFFFFFFFF69
:104FC600FFFFFFFFFFFFFFFFFFFFFFFFFFFFFFFFEB
:104FD600FFFFFFFFFFFFFFFFFFFFFFFFFFFFFFFFDB
:104FE600FFFFFFFFFFFFFFFFFFFFFFFFFFFFFFFFCB
:104FF600FFFFFFFFFFFFFFFFFFFFFFFFFFFFFFFFBB
:10500600FFFFFFFFFFFFFFFFFFFFFFFFFFFFFFFFAA
:10501600FFFFFFFFFFFFFFFFFFFFFFFFFFFFFFFF9A
:10502600FFFFFFFFFFFFFFFFFFFFFFFFFFFFFFFF8A
:10503600F7FF967E13950BF803B803F903D903F827
:1050460003F803D803D903D903D903D903D803B87E
:1050560003B803B803B9039803B8039803970397F3
:1050660003980378037703562BB6E7FFFFFFFFFF8E
:10507600EFFF0A7103370336035603370336031669
:1050860002929DFBF7FFFFFFFFFFFFFFFFFFFFFF02
:10509600FFFFFFFFFFFFFFFFFFFFFFFFFFFFFFFF1A
:1050A600FFFFFFFFFFFFFFFFFFFFFFFFFFFFFFFF0A
:1050B600FFFFFFFFFFFFFFFFFFFFFFFFFFFFFFFFFA
:1050C600FFFFFFFFFFFFFFFFFFFFFFFFFFFFFFFFEA
:1050D600FFFFFFFFFFFFFFFFFFFFFFFFFFFFFFFFDA
:1050E600FFFFFFFFFFFFFFFFFFFFFFFFFFFFFFFFCA
:1050F600FFFFFFFFFFFFFFFFFFFFFFFFFFFFFFFFBA
:10510600FFFFF7FF969F0B340BF803F903D903B89B
:10511600041903F803D803B803B703B703B803B7F2
:1051260003B7039703B80398039803770397039786
:1051360003760B760B770B560B3533B4EFFFFFFF79
:10514600FFFFEFFF0A5103370336033603360336F4
:1051560003160A929DFBF7FFFFFFFFFFFFFFFFFF0E
:10516600FFFFFFFFFFFFFFFFFFFFFFFFFFFFFFFF49
:10517600FFFFFFFFFFFFFFFFFFFFFFFFFFFFFFFF39
:10518600FFFFFFFFFFFFFFFFFFFFFFFFFFFFFFFF29
:10519600FFFFFFFFFFFFFFFFFFFFFFFFFFFFFFFF19
:1051A600FFFFFFFFFFFFFFFFFFFFFFFFFFFFFFFF09
:1051B600FFFFFFFFFFFFFFFFFFFFFFFFFFFFFFFFF9
:1051C600FFFFFFFFFFFFFFFFFFFFFFFFFFFFFFFFE9
:1051D600FFFFFFFFF7FF967F0B550BD803F803D8A9
:1051E60003D803F803D803B70B9613751355137535
:1051F60013750B550B551335133513350B350B3509
:105206000B340B340B340B3413340AF22B52EFFFEE
:10521600FFFFFFFFEFFF0A510B3703360336033656
:1052260003160316029295DBF7FFFFFFFFFFFFFF52
:10523600FFFFFFFFFFFFFFFFFFFFFFFFFFFFFFFF78
:10524600FFFFFFFFFFFFFFFFFFFFFFFFFFFFFFFF68
:10525600FFFFFFFFFFFFFFFFFFFFFFFFFFFFFFFF58
:10526600FFFFFFFFFFFFFFFFFFFFFFFFFFFFFFFF48
:10527600FFFFFFFFFFFFFFFFFFFFFFFFFFFFFFFF38
:10528600FFFFFFFFFFFFFFFFFFFFFFFFFFFFFFFF28
:10529600FFFFFFFFFFFFFFFFFFFFFFFFFFFFFFFF18
:1052A600FFFFFFFFFFFFF7FF967F0B550BD803F8B5
:1052B60003D903D803F803D80B55763F861E85FC21
:1052C60085FD861D7DDD861D85FD85DD85FD85FDCE
:1052D60085FD7DFD7DFD7DFD7DDC7DFC7DBB95FB3E
:1052E600F7FFFFFFFFFFEFFF0A51031703360336F1
:1052F60003360316031602729DDBF7FFFFFFFFFF5F
:10530600FFFFFFFFFFFFFFFFFFFFFFFFFFFFFFFFA7
:10531600FFFFFFFFFFFFFFFFFFFFFFFFFFFFFFFF97
:10532600FFFFFFFFFFFFFFFFFFFFFFFFFFFFFFFF87
:10533600FFFFFFFFFFFFFFFFFFFFFFFFFFFFFFFF77
:10534600FFFFFFFFFFFFFFFFFFFFFFFFFFFFFFFF67
:10535600FFFFFFFFFFFFFFFFFFFFFFFFFFFFFFFF57
:10536600FFFFFFFFFFFFFFFFFFFFFFFFFFFFFFFF47
:10537600FFFFFFFFFFFFFFFFF7FF967F13540BD8DA
:1053860003D903D903D903D80BD70AF3CFFFEFFF0D
:10539600F7FFF7FFEFFFEFFFEFFFF7FFF7FFF7FF6F
:1053A600EFFFEFFFEFFFEFFFEFFFEFFFEFFFEFFF87
:1053B600F7FFFFFFFFFFFFFFE7FF0A510B1703365B
:1053C600033603160316031602719DDBF7FFFFFF74
:1053D600FFFFFFFFFFFFFFFFFFFFFFFFFFFFFFFFD7
:1053E600FFFFFFFFFFFFFFFFFFFFFFFFFFFFFFFFC7
:1053F600FFFFFFFFFFFFFFFFFFFFFFFFFFFFFFFFB7
:10540600FFFFFFFFFFFFFFFFFFFFFFFFFFFFFFFFA6
:10541600FFFFFFFFFFFFFFFFFFFFFFFFFFFFFFFF96
:10542600FFFFFFFFFFFFFFFFFFFFFFFFFFFFFFFF86
:10543600FFFFFFFFFFFFFFFFFFFFFFFFFFFFFFFF76
:10544600FFFFFFFFFFFFFFFFFFFFF7FF967E0B54F7
:105456000BD803D903D903D803D80BB612F2D7FF5A
:10546600F7FFFFFFFFFFFFFFFFFFFFDFFFFFFFFF6E
:10547600FFFFFFFFFFFFFFFFFFFFFFFFFFFFFFFF36
:10548600FFFFFFFFFFFFFFFEFFFFE7FF0A510B17BE
:105496000336031603160316031602719DDBF7FF88
:1054A600FFFFFFFFFFFFFFFFFFFFFFFFFFFFFFFF06
:1054B600FFFFFFFFFFFFFFFFFFFFFFFFFFFFFFFFF6
:1054C600FFFFFFFFFFFFFFFFFFFFFFFFFFFFFFFFE6
:1054D600FFFFFFFFFFFFFFFFFFFFFFFFFFFFFFFFD6
:1054E600FFFFFFFFFFFFFFFFFFFFFFFFFFFFFFFFC6
:1054F600FFFFFFFFFFFFFFFFFFFFFFFFFFFFFFFFB6
:10550600FFFFFFFFFFFFFFFFFFFFFFFFFFFFFFFFA5
:10551600FFFFFFFFFFFFFFFFFFFFFFFFF7FF967E87
:105526000B5503D803D903D903D803D80BB612B148
:10553600D7DFFFFFFFFFFFFFFFDEFFFFFFFFFFFFDE
:10554600FFFFFFFFFFFFFFFFFFFFFFFFFFFFFFFF65
:10555600FFFFFFFFFFFFFFFFFFFFFFFFEFFF023130
:105566000B1603360316031602F602F602719DDBCE
:10557600F7FFFFFFFFFFFFFFFFFFFFFFFFFFFFFF3D
:10558600FFFFFFFFFFFFFFFFFFFFFFFFFFFFFFFF25
:10559600FFFFFFFFFFFFFFFFFFFFFFFFFFFFFFFF15
:1055A600FFFFFFFFFFFFFFFFFFFFFFFFFFFFFFFF05
:1055B600FFFFFFFFFFFFFFFFFFFFFFFFFFFFFFFFF5
:1055C600FFFFFFFFFFFFFFFFFFFFFFFFFFFFFFFFE5
:1055D600FFFFFFFFFFFFFFFFFFFFFFFFFFFFFFFFD5
:1055E600FFFFFFFFFFFFFFFFFFFFFFFFFFFFF7FFCD
:1055F600967E0B5403B803D903D903D803D80BB648
:105606000AD2DFFFF7FFF7FFF7FFF7FFFFFFFFFF06
:10561600FFFFF7FFF7FFF7FFF7FFF7FFFFFFF7FFC4
:10562600F7FFF7FFFFFFFFFFFFFFFFFFF7FFE7FFB4
:10563600023102F603160316031602F602F502718C
:105646009DDBF7FFFFFFFFFFFFFFFFFFFFFFFFFFF2
:10565600FFFFFFFFFFFFFFFFFFFFFFFFFFFFFFFF54
:10566600FFFFFFFFFFFFFFFFFFFFFFFFFFFFFFFF44
:10567600FFFFFFFFFFFFFFFFFFFFFFFFFFFFFFFF34
:10568600FFFFFFFFFFFFFFFFFFFFFFFFFFFFFFFF24
:10569600FFFFFFFFFFFFFFFFFFFFFFFFFFFFFFFF14
:1056A600FFFFFFFFFFFFFFFFFFFFFFFFFFFFFFFF04
:1056B600FFFFFFFFFFFFFFFFFFFFFFFFFFFFFFFFF4
:1056C600F7FF967E133403B803D903B803B703D79D
:1056D60003B70B14AF5FCFDFD7BFCFBFCFBFCF9F0F
:1056E600CF9FD7BFD7BFCFBFCFBFD79FD79FD79F9C
:1056F600D79FCF9FCF7FD79FD79FCF9FCF9FD7BF14
:10570600C7BF027202F603160316031602F602F567
:1057160002719DDBF7FFFFFFFFFFFFFFFFFFFFFFAC
:10572600FFFFFFFFFFFFFFFFFFFFFFFFFFFFFFFF83
:10573600FFFFFFFFFFFFFFFFFFFFFFFFFFFFFFFF73
:10574600FFFFFFFFFFFFFFFFFFFFFFFFFFFFFFFF63
:10575600FFFFFFFFFFFFFFFFFFFFFFFFFFFFFFFF53
:10576600FFFFFFFFFFFFFFFFFFFFFFFFFFFFFFFF43
:10577600FFFFFFFFFFFFFFFFFFFFFFFFFFFFFFFF33
:10578600FFFFFFFFFFFFFFFFFFFFFFFFFFFFFFFF23
:10579600FFFFF7FF965E13340BB703D803B803B8C1
:1057A60003B703B70B762BF833B633B533D533D5FA
:1057B60033D53BB433B433B433B533B533943394C0
:1057C60033943394339533743394337333943374FB
:1057D60033742B7502B40B3702F6031602F602F584
:1057E60002F502719DDBF7FFFFFFFFFFFFFFFFFFE3
:1057F600FFFFFFFFFFFFFFFFFFFFFFFFFFFFFFFFB3
:10580600FFFFFFFFFFFFFFFFFFFFFFFFFFFFFFFFA2
:10581600FFFFFFFFFFFFFFFFFFFFFFFFFFFFFFFF92
:10582600FFFFFFFFFFFFFFFFFFFFFFFFFFFFFFFF82
:10583600FFFFFFFFFFFFFFFFFFFFFFFFFFFFFFFF72
:10584600FFFFFFFFFFFFFFFFFFFFFFFFFFFFFFFF62
:10585600FFFFFFFFFFFFFFFFFFFFFFFFFFFFFFFF52
:10586600FFFFFFFFF7FF9E7E131403B703D903B9AB
:10587600039803B70397039703770B570B560B56FB
:10588600035503550B550B550B550B350B350B3582
:105896000B3403150B150B140B140AF40AF40AF453
:1058A60002F40AF402F402F502F502F602F502F633
:1058B60002D502D502509DDAF7FFFFFFFFFFFFFF7B
:1058C600FFFFFFFFFFFFFFFFFFFFFFFFFFFFFFFFE2
:1058D600FFFFFFFFFFFFFFFFFFFFFFFFFFFFFFFFD2
:1058E600FFFFFFFFFFFFFFFFFFFFFFFFFFFFFFFFC2
:1058F600FFFFFFFFFFFFFFFFFFFFFFFFFFFFFFFFB2
:10590600FFFFFFFFFFFFFFFFFFFFFFFFFFFFFFFFA1
:10591600FFFFFFFFFFFFFFFFFFFFFFFFFFFFFFFF91
:10592600FFFFFFFFFFFFFFFFFFFFFFFFFFFFFFFF81
:10593600FFFFFFFFFFFFF7FF963D131403B703B802
:10594600039903B903B8039703B803980378037858
:105956000397037703770377037703770357035791
:105966000357035603560336033603360336033608
:10597600033603160316031603150315031602F65C
:1059860002F602D60AD50A509DDAF7FFFFFFFFFF9F
:10599600FFFFFFFFFFFFFFFFFFFFFFFFFFFFFFFF11
:1059A600FFFFFFFFFFFFFFFFFFFFFFFFFFFFFFFF01
:1059B600FFFFFFFFFFFFFFFFFFFFFFFFFFFFFFFFF1
:1059C600FFFFFFFFFFFFFFFFFFFFFFFFFFFFFFFFE1
:1059D600FFFFFFFFFFFFFFFFFFFFFFFFFFFFFFFFD1
:1059E600FFFFFFFFFFFFFFFFFFFFFFFFFFFFFFFFC1
:1059F600FFFFFFFFFFFFFFFFFFFFFFFFFFFFFFFFB1
:105A0600FFFFFFFFFFFFFFFFF7FF9E7E13340397A5
:105A160003B803B903B8039703B70397039803784A
:105A260003780377037603770377037703560356E2
:105A36000356035603560336033603360336033638
:105A46000316031603150316031502F5031502F6CE
:105A560002F602F602D602D502309DBAF7FFFFFF24
:105A6600FFFFFFFFFFFFFFFFFFFFFFFFFFFFFFFF40
:105A7600FFFFFFFFFFFFFFFFFFFFFFFFFFFFFFFF30
:105A8600FFFFFFFFFFFFFFFFFFFFFFFFFFFFFFFF20
:105A9600FFFFFFFFFFFFFFFFFFFFFFFFFFFFFFFF10
:105AA600FFFFFFFFFFFFFFFFFFFFFFFFFFFFFFFF00
:105AB600FFFFFFFFFFFFFFFFFFFFFFFFFFFFFFFFF0
:105AC600FFFFFFFFFFFFFFFFFFFFFFFFFFFFFFFFE0
:105AD600FFFFFFFFFFFFFFFFFFFFF7FF9E7E0AF3BB
:105AE600037603B803B803780377039703970398FD
:105AF6000378037703770376037703770357035611
:105B06000357035603560336033603360336033666
:105B1600031603160316031602F5031503150315DC
:105B2600031602F602F602D602D502509DBAFFFF10
:105B3600FFFFFFFFFFFFFFFFFFFFFFFFFFFFFFFF6F
:105B4600FFFFFFFFFFFFFFFFFFFFFFFFFFFFFFFF5F
:105B5600FFFFFFFFFFFFFFFFFFFFFFFFFFFFFFFF4F
:105B6600FFFFFFFFFFFFFFFFFFFFFFFFFFFFFFFF3F
:105B7600FFFFFFFFFFFFFFFFFFFFFFFFFFFFFFFF2F
:105B8600FFFFFFFFFFFFFFFFFFFFFFFFFFFFFFFF1F
:105B9600FFFFFFFFFFFFFFFFFFFFFFFFFFFFFFFF0F
:105BA600FFFFFFFFFFFFFFFFFFFFFFFFF7FF963E31
:105BB6000AF30B9703D90398039803B8039703973F
:105BC600039803780357037703770377035703573D
:105BD6000357035703560337035603360336033674
:105BE60003360316031603160316031602F50315EA
:105BF6000314031502F502F602F502D502509DDBE9
:105C0600F7FFFFFFFFFFFFFFFFFFFFFFFFFFFFFFA6
:105C1600FFFFFFFFFFFFFFFFFFFFFFFFFFFFFFFF8E
:105C2600FFFFFFFFFFFFFFFFFFFFFFFFFFFFFFFF7E
:105C3600FFFFFFFFFFFFFFFFFFFFFFFFFFFFFFFF6E
:105C4600FFFFFFFFFFFFFFFFFFFFFFFFFFFFFFFF5E
:105C5600FFFFFFFFFFFFFFFFFFFFFFFFFFFFFFFF4E
:105C6600FFFFFFFFFFFFFFFFFFFFFFFFFFFFFFFF3E
:105C7600FFFFFFFFFFFFFFFFFFFFFFFFFFFFF7FF36
:105C86009E5F12F30B76039703770B770B770376FA
:105C9600037703770B570B560B560B560B560B56C3
:105CA6000B5603360336033603360336033603161E
:105CB600031603160316031502F502F502F502F59F
:105CC60002F402F402F402D502D502D40AB30A2F72
:105CD6009599F7FFFFFFFFFFFFFFFFFFFFFFFFFFA6
:105CE600FFFFFFFFFFFFFFFFFFFFFFFFFFFFFFFFBE
:105CF600FFFFFFFFFFFFFFFFFFFFFFFFFFFFFFFFAE
:105D0600FFFFFFFFFFFFFFFFFFFFFFFFFFFFFFFF9D
:105D1600FFFFFFFFFFFFFFFFFFFFFFFFFFFFFFFF8D
:105D2600FFFFFFFFFFFFFFFFFFFFFFFFFFFFFFFF7D
:105D3600FFFFFFFFFFFFFFFFFFFFFFFFFFFFFFFF6D
:105D4600FFFFFFFFFFFFFFFFFFFFFFFFFFFFFFFF5D
:105D5600F7FF95FC12B20B140B150B350B150B1434
:105D66000B140B140B140AF40AF40AF30AF30AF3DD
:105D76000AD40AD30AD30AD30AD30AB30AB30AB394
:105D86000AB30AB30A930A930A920A930A920A7208
:105D96000A720A7202720272025202720A520A519E
:105DA60009CD9D99F7FFFFFFFFFFFFFFFFFFFFFFF5
:105DB600FFFFFFFFFFFFFFFFFFFFFFFFFFFFFFFFED
:105DC600FFFFFFFFFFFFFFFFFFFFFFFFFFFFFFFFDD
:105DD600FFFFFFFFFFFFFFFFFFFFFFFFFFFFFFFFCD
:105DE600FFFFFFFFFFFFFFFFFFFFFFFFFFFFFFFFBD
:105DF600FFFFFFFFFFFFFFFFFFFFFFFFFFFFFFFFAD
:105E0600FFFFFFFFFFFFFFFFFFFFFFFFFFFFFFFF9C
:105E1600FFFFFFFFFFFFFFFFFFFFFFFFFFFFFFFF8C
:105E2600FFFFFFFFC6DE64976D5A651A651A6D3A65
:105E360064F96D3A651A6D1A6D1A6D1965196D1941
:105E46006D196CF96CF96CF96CFA6CF96CF96CF902
:105E560064D964D96CD96CD96CD96CD96CD96CD924
:105E66006CB96CB96CB96CB96CB964B96CB96CB90C
:105E76006C986415BE3BFFFFFFDFFFDFFFFFFFFFF0
:105E8600FFFFFFFFFFFFFFFFFFFFFFFFFFFFFFFF1C
:105E9600FFFFFFFFFFFFFFFFFFFFFFFFFFFFFFFF0C
:105EA600FFFFFFFFFFFFFFFFFFFFFFFFFFFFFFFFFC
:105EB600FFFFFFFFFFFFFFFFFFFFFFFFFFFFFFFFEC
:105EC600FFFFFFFFFFFFFFFFFFFFFFFFFFFFFFFFDC
:105ED600FFFFFFFFFFFFFFFFFFFFFFFFFFFFFFFFCC
:105EE600FFFFFFFFFFFFFFFFFFFFFFFFFFFFFFFFBC
:105EF600FFFFFFFFFFFFFFFFF7FFEFFFEFFFEFFFE4
:105F0600EFFFEFFFEFFFEFFFEFFFEFFFEFFFF7FF13
:105F1600F7FFF7FFF7FFEFFFEFFFF7FFF7FFEFFFE3
:105F2600EFFFF7FFF7FFF7FFF7FFF7FFEFFFF7FFCB
:105F3600F7FFF7FFF7FFF7FFFFFFF7FFF7FFF7FFA3
:105F4600F7FFF7FFF7FFFFFFFFFFFFFFFFFFFFFF73
:105F5600FFFFFFFFFFFFFFFFFFFFFFFFFFFFFFFF4B
:105F6600FFFFFFFFFFFFFFFFFFFFFFFFFFFFFFFF3B
:105F7600FFFFFFFFFFFFFFFFFFFFFFFFFFFFFFFF2B
:105F8600FFFFFFFFFFFFFFFFFFFFFFFFFFFFFFFF1B
:105F9600FFFFFFFFFFFFFFFFFFFFFFFFFFFFFFFF0B
:105FA600FFFFFFFFFFFFFFFFFFFFFFFFFFFFFFFFFB
:105FB600FFFFFFFFFFFFFFFFFFFFFFFFFFFFFFFFEB
:105FC600FFFFFFFFFFFFFFFFFFFFFFFFFFFFFFFFDB
:105FD600FFFFFFFFFFFFFFFFFFFFFFFFFFFFFFFFCB
:105FE600FFFFFFFFFFFFFFFFFFFFFFFFFFFFFFFFBB
:105FF600FFFFFFFFFFFFFFFFFFFFFFFFFFFFFFFFAB
:10600600FFFFFFFFFFFFFFFFFFDFFFFFFFFFFFFFBA
:10601600FFFFFFFFFFFFFFFFFFFFFFFFFFFFFFFF8A
:10602600FFFFFFFFFFFFFFFFFFFFFFFFFFFFFFFF7A
:10603600FFFFFFFFFFFFFFFFFFFFFFFFFFFFFFFF6A
:10604600FFFFFFFFFFFFFFFFFFFFFFFFFFFFFFFF5A
:10605600FFFFFFFFFFFFFFFFFFFFFFFFFFFFFFFF4A
:10606600FFFFFFFFFFFFFFFFFFFFFFFFFFFFFFFF3A
:10607600FFFFFFFFFFFFFFFFFFFFFFFFFFFFFFFF2A
:10608600FFFFFFFFFFFFFFFFFFFFFFFFFFFFFFFF1A
:10609600FFFFFFFFFFFFFFFFFFFFFFFFFFFFFFFF0A
:1060A600FFFFFFFFFFFFFFFFFFFFFFFFFFFFFFFFFA
:1060B600FFFFFFFFFFFFFFFFFFFFFFFFFFFFFFFFEA
:1060C600FFFFFFFFFFFFFFFFFFFFFFFFFFFFFFFFDA
:1060D600FFFFFFFFFFFFFFFFFFFFFFFFFFFFFFFFCA
:1060E600FFFFFFFFFFFFFFFFFFFFFFFFFFFFFFFFBA
:1060F600FFFFFFFFFFFFFFFFFFFFFFFFFFFFFFFFAA
:10610600FFFFFFFFFFFFFFFFFFFFFFFFFFFFFFFF99
:10611600FFFFFFFFFFFFFFFFFFFFFFFFFFFFFFFF89
:10612600FFFFFFFFFFFFFFFFFFFFFFFFFFFFFFFF79
:10613600FFFFFFFFFFFFFFFFFFFFFFFFFFFFFFFF69
:10614600FFFFFFFFFFFFFFFFFFFFFFFFFFFFFFFF59
:10615600FFFFFFFFFFFFFFFFFFFFFFFFFFFFFFFF49
:10616600FFFFFFFFFFFFFFFFFFFFFFFFFFFFFFFF39
:10617600FFFFFFFFFFFFFFFFFFFFFFFFFFFFFFFF29
:10618600FFFFFFFFFFFFFFFFFFFFFFFFFFFFFFFF19
:10619600FFFFFFFFFFFFFFFFFFFFFFFFFFFFFFFF09
:1061A600FFFFFFFFFFFFFFFFFFFFFFFFFFFFFFFFF9
:1061B600FFFFFFFFFFFFFFFFFFFFFFFFFFFFFFFFE9
:1061C600FFFFFFFFFFFFFFFFFFFFFFFFFFFFFFFFD9
:1061D600FFFFFFFFFFFFFFFFFFFFFFFFFFFFFFFFC9
:1061E600FFFFFFFFFFFFFFFFFFFFFFFFFFFFFFFFB9
:1061F600FFDFFFFFFFFFFFFFFFFFFFFFFFFFFFFFC9
:10620600FFFFFFFFFFFFFFFFFFFFFFFFFFFFFFFF98
:10621600FFFFFFFFFFFFFFFFFFFFFFFFFFFFFFFF88
:10622600FFFFFFFFFFFFFFFFFFFFFFFFFFFFFFFF78
:10623600FFFFFFFFFFFFFFFFFFFFFFFFFFFFFFFF68
:10624600FFFFFFFFFFFFFFFFFFFFFFFFFFFFFFFF58
:10625600FFFFFFFFFFFFFFFFFFFFFFFFFFFFFFFF48
:10626600FFFFFFFFFFFFFFFFFFFFFFDFFFFFFFFF58
:10627600FFFFFFFFFFFFFFFFFFDFFFFFFFFFFFFF48
:10628600FFFFFFFFFFFFFFFFFFFFFFFFFFFFFFFF18
:10629600FFFFFFFFFFFFFFFFFFFFFFFFFFFFFFFF08
:1062A600FFFFFFFFFFFFFFFFFFFFFFFFFFFFFFFFF8
:1062B600FFFFFFFFFFFFFFFFFFFFFFFFFFFFFFFFE8
:1062C600FFFFFFFFFFFFFFFFFFFFFFFFFFFFFFFFD8
:1062D600FFFFFFFFFFFFFFFFFFFFFFFFFFFFFFFFC8
:1062E600FFFFFFFFFFFFFFFFFFFFFFFFFFFFFFFFB8
:1062F600FFFFFFFFFFFFFFFFFFFFFFFFFFFFFFFFA8
:10630600FFFFFFFFFFFFFFFFFFFFFFFFFFFFFFFF97
:10631600FFFFFFFFFFFFFFFFFFDFFFFFFFFFFFFFA7
:10632600FFFFFFFFFFFFFFFFFFFFFFFFFFFFFFFF77
:10633600FFFFFFFFFFFFFFFFFFFFFFFFFFFFFFFF67
:10634600FFFFFFFFFFFFFFFFFFFFFFFFFFFFFFFF57
:10635600FFFFFFFFFFFFFFFFFFFFFFFFFFFFFFFF47
:10636600FFFFFFFFFFFFFFFFFFFFFFFFFFFFFFFF37
:10637600FFFFFFFFFFFFFFFFFFFFFFFFFFFFFFFF27
:10638600FFFFFFFFFFFFFFFFFFFFFFFFFFFFFFFF17
:10639600FFFFFFFFFFFFFFFFFFFFFFFFFFFFFFFF07
:1063A600FFFFFFFFFFFFFFFFFFFFFFFFFFFFFFFFF7
:1063B600FFFFFFFFFFFFFFFFFFFFFFFFFFFFFFFFE7
:1063C600FFFFFFFFFFFFFFFFFFFFFFFFFFFFFFFFD7
:1063D600FFFFFFFFFFFFFFFFFFFFFFFFFFFFFFFFC7
:1063E600FFFFFFFFFFFFFFFFFFFFFFFFFFFFFFDFD7
:1063F600FFFFFFFFFFFFFFFFFFFFFFFFFFFFFFFFA7
:10640600FFFFFFFFFFFFFFFFFFFFFFFFFFFFFFFF96
:10641600FFDFFFFFFFFFFFFFFFFFFFDFFFFFFFFFC6
:10642600FFFFFFFFFFFFFFFFFFFFFFFFFFFFFFFF76
:10643600FFFFFFFFFFFFFFFFFFFFFFDFFFFFFFFF86
:10644600FFFFFFFFFFFFFFFFFFFFFFFFFFDFFFFF76
:10645600FFDFFFFFFFFFFFFFFFFFFFFFFFFFFFFF66
:10646600FFFFFFFFFFDFFFFFFFFFFFFFFFFFFFFF56
:10647600FFFFFFFFEFFFE7DFDF9FDF9FE7DFE7FFBE
:10648600EFDFEFBFE7BFE7BFE7BFE7BFE7BFE7BFA6
:10649600E7BFEF9FFFFFFFFFF7FFDF7EDF5EEFDF68
:1064A600F7FFFFFFF7DFE79EE7BFEFDFF7FFF7FF37
:1064B600EFBFE79FE77EF7FFFFFFFFFFF7FFDF3D39
:1064C600DF3DF7FFF7FFF7FFFFFFF7FFEFBFEF9F98
:1064D600E79FE7BFEFBFEF9EE77FEFBFE79FEF9F27
:1064E600F7DFE75EEFBFF7FFFFFFFFFFE75EE77E41
:1064F600EF9EFFFFFFFFFFFFEF9FD71DDF5EF7FF5A
:10650600FFFFF7DFE77FEF9FEF7FEFBFE77FEF9FAD
:10651600E77EEF9FEF7FE77FEF9FE77EF7DFE75DA1
:10652600EF9FE75EFFFFFFFFFFFFF7DFF7DFFFFFEE
:10653600FFFFFFFFF7BFE73EEF7FF7DFFFFFFFFF3E
:10654600E75EEF7FE73E861D54758DB98DFB549748
:106556005CD8DF9FBE9C54974C779DFAC73F6CF87A
:10656600543574D5C6DCF7FFEFFF95B97D388D99A4
:106576007D17B69DEFFFE7DF9DD854355C76E7DFE4
:10658600F7FFB69C53B18D36E7DFEFFFC6DD74B576
:106596008D788D588D789599EFFFF7FFF7FFCEFC34
:1065A60084B54B736C36D6FDD71D74964B726C143E
:1065B600C6DEDF5F84D643328519F7FFF7FF84F521
:1065C6005B90ADB8F7FFF7FFA5BA7C9484D59538F4
:1065D60084B6B63AEFDF74564B1163B3CEFFBE7D79
:1065E600532F8493CEFD8CF753525330B63BEFBFF7
:1065F6009D3542CEA5B9FFFFFFFFFFFF73F38CB6B3
:10660600F7FFFFFFFFFFEFBF8C7552D15B33F7FF3C
:10661600F7DFADB952EF94B56539861DD7FF7DFC1E
:106626001B334C56EFFFE7FF2BB51354BF7FDFFF3D
:106636006D9D1AF28579E7FFE7FF74D62AAED7FF7C
:10664600DFFF8D992AB0BEFFEFFFDFFF339312B154
:106656006CD8E7FFD7FF4371E7DFEFFFB6BE2A8EA0
:106666007CF6E7FFE7FF6C745371EFFFF7FFFFFF60
:10667600EFFFBE9D09AD6437EFFFF7FFAE5F016C1C
:106686007CF8EFFFF7FFCF1F018C09EEB63CF7FF52
:10669600CF7F6C54DF7FF7FF955B21CDA5FAEFFF27
:1066A600E7FF42CE7C74F7FFD77F00E93AB0E7DF19
:1066B600E7FF198AE79FF7FFC6DF116B3AAFEFFFD7
:1066C600F7FFF7FF21EBEFFFFFFFFFDFF7FF0066A6
:1066D600428FF7FFFFFFFFFFFFFFD6DF298E00295E
:1066E6008456F7FFF7FF426DDF3F8D77DFFFBFDF91
:1066F60033B422EFE7FFF7FFEFFF2BB52395DFFF5C
:10670600DFFF7E1E1AF38DDBDFFF969F22F16CF70B
:10671600E7FFF7FFE7FF1AD233B5EFFFE7FF7D9AF2
:1067260023531AD28E1FDFFF5BF2F7FFEFFF64B928
:1067360009EDEFFFF7FFF7FFF7FF7433F7FFF7FFFA
:10674600F7FEFFFFCF1F09AE6CB9F7FFF7FFBEFFDD
:10675600118C8D18F7FFFFFFDF3F43722B1211EDEF
:10676600DFFFCF7F9578E79FF7FF094C4B34F7FFA4
:10677600FFFFF7FFC6DB8CB4F7FFEFFF84F6010AD5
:106786009DFEA61E84D7FFFFF7FFCF3F11AC5372C5
:10679600F7FFFFFFFFFF3A8EEFFFF7FFFFFF8CD7F4
:1067A600320E112BA59CFFFFFFFFFFFFCEDD9519D3
:1067B600214C10ACBDFFEFDF5B70DF3FEFFFE7FF63
:1067C600655A1B119E5CE7FFFFFFEFFF33F61B5474
:1067D6008D99A63B4C991B138DDBDFFF5CFA0AB142
:1067E600961CEFFFF7FFEFFF1B341B54CF3FEFFF65
:1067F60074F6CFFF0A712335BFBF53F3F7FFD75F98
:1068060033541A70F7FFFFFFF7FFF7FFEFFFE7DFDD
:10681600F7FFF7FFF7FFCF1F09CE6479F7FFEFDF2A
:10682600C6DF116C9538F7FFFFFFD6FD74B785DD1F
:1068360001CE22B1DFFF8D17E79FCF1F094D5BD732
:10684600F7FFEFBFEFFFEFFFEFFFEFFFF7FFE7DF2A
:1068560011AD3AF3220DEFFFF7DFFFFFCF1F19ADA2
:106866004AF1F7FFFFFFFFFF3A6DEFFFF7FFF7FF74
:1068760042AFEFFF006A6395F7FFFFFFF7FFC67AA7
:10688600A599DF1F002A296FF7FF5B51E73FE7FF56
:10689600A69D1B1233F5DFFFE7FFEFDFE7FF2BD6E1
:1068A6001B74C73FE7FF6D9D12F38DDBD7FF5D1BA2
:1068B60012D195FBEFFFFFFFEFFF1B541B54CF7F59
:1068C600EFDF6C74DFFFA67F1230653B4C35EFFFC0
:1068D600CF1E33131A50EFFFC6BC43513311333169
:1068E6006496E7FFD75FF7FFCF1F09AE6499F7FFFE
:1068F600F7FFC6DF116B8CF8F7FFF7FFD71D6C3477
:10690600DFFF4C1709EE64779DBAEFDFC6BD012C99
:106916005BD7F7FF84953AD02A8F3AAFADDBFFFFFE
:10692600FFFF9D5C0089A5BAF7FFFFFFF7DFCEFFEB
:1069360019AC5352F7FFFFFFFFFF3A6DEFFFF7FF6A
:106946008CD684B6BE7F21F1112DC67DF7FFFFFFE1
:10695600BE5A9517F7FF8C9908496B766353E73F44
:10696600DFFF43F42353A77FD7FF8D98CEFDE7FFC4
:106976002BD61B74D7DFE7FF7DFE1B1385DBDFFFFE
:10698600965E22F16CF7E7FFF7FFE7FF12D133B40B
:10699600EFFFEFDF7CD5E7FFE7FF6C770A9112B0D8
:1069A600EFFFEFFF5C1611EEEFFFE7FFB71F2312B5
:1069B6002B32DFFFA65D2A4CAE3CCF5F09AD6C776C
:1069C600F7FFF7FFBEDF118C8CF8F7FFF7FFCEFD60
:1069D6006C34E7FFDFFF1A2F11AD6C56E7BFF7FFE8
:1069E600012A4B74EFDFEFFFA63F00CB84D9EFDF20
:1069F600F7DFFFFFB5DF088AC69DF7FFFFFFFFFF42
:106A0600CEFF116B5353F7FFF7DFFFFF3A2CF7FF6B
:106A1600EFFF63D2745484D86BF8008A8CB8F7FF02
:106A2600FFFFCE9C94F6EFDFF7DF52B1088B298E7D
:106A3600EF9F7E3F12F275DDCFFF96FF3393CF7F38
:106A4600DFFF2BD61353D7FFDFFF7DDD12D28DFC80
:106A5600E7FFE7FF5C1322AFD7FFDFFF8D991A2D03
:106A6600CF7FEFFFEFFF74D6DFFFF7FFE7BF33946B
:106A760001EEEFFFF7FFBEBF19CC7CD7DFFFAF1FDC
:106A8600124E3B31E7FF9DDB220DC77FBF1F096B0F
:106A960084F8FFFFF7FFC75F014B853AEFFFF7FF6B
:106AA600DF5F6414E7FFEFFFBEBE094C5394EFDFD0
:106AB600F7FF84F70129B65DEFFF9DBE00AA849714
:106AC600F7FFF7FFF7FFB63F0069C6BFF7FFFFFF07
:106AD600FFFFF7FF196A21CDEFFFF7FFBE3B7C14DE
:106AE600F7FFAE1D7476EFFFF7FFEFDF3A5100892F
:106AF600F7FFF7FFCE9D9D59F7FFFFFFDF1F214DE3
:106B060010CBEF9F3C9A3C7854B85497341744778F
:106B1600D7DF8DBA341734577518AEBE4C573BF6CF
:106B26004BD4A63BF7FFEFFF963D4C565C976CB7F0
:106B3600D77FF7FFEFBF84D43B716C96F7FFF7FF63
:106B4600B73F1AD1EFFFF7FFF7FFD79F64354BD456
:106B56004C158DFC7495E7FFDFFF8D7A5C56226F2E
:106B66008519EFFFFFFFCE9C43523B534332A5FCF2
:106B7600E7BF4B0E3B1095BAEFFFF7FF959D5BD62F
:106B8600F7FFF7FFEFFFB69E4B315B935334A59D9E
:106B96009518F7FFF7FF8CF742D23A9242B0ADB99B
:106BA600FFFFFFFFF7FFEFDF42F22A5063728C957B
:106BB600F7FFD6FF21CD42D084B4F7FF7C5642B210
:106BC60032313A50F7FF63503A2D63B2F7FFFFFFB9
:066BD600ADBE4231EF9F4D
:107EBC001287F6900006E4F0A37480F074FFA3F030
:107ECC00A3F07B807A00E4FDFCFFFE128EBB9000D9
:107EDC0006E4F0A37438F0A374FFF0A3743DF0A390
:107EEC0074ECF07B697A00E4FDFC7F0BFE128BF3E3
:107EFC007BFF7A3D79B690000774F8F0A3E4F07438
:107F0C00FFA3F0A3F0A3E4F0A3740CF0E4A3F07DC2
:107F1C0046FC7F0AFE128E077BFF7A3D79C89000E3
:107F2C000774F8F0A3E4F074FFA3F0A3F0A3E4F05B
:107F3C00A3740CF0E4A3F07D5AFC7F07FE128E07AD
:107F4C007BFF7A3D79DB90000774F8F0A3E4F074C2
:107F5C00FFA3F0A3F0A3E4F0A3740CF0E4A3F07D72
:107F6C006EFC7F10FE128E077FE87E0312919390B9
:107F7C000006E4F0A37480F074FFA3F0A3F07B8000
:107F8C007A00E4FDFCFFFE128EBB900006E4F0A329
:107F9C007480F0A374F8F0A3E4F07B20FAFDFCFFEE
:107FAC00FE128EBB900006E4F0A37480F0A374075D
:107FBC00F0A374E0F07B407A00E4FDFC7F20FE121D
:107FCC008EBB900006E4F0A37480F0A3E4F0A374DD
:107FDC001FF07B607A00E4FDFC7F40FE128EBB90AC
:107FEC000006E4F0A37480F0A374FFF0A374E0F037
:107FFC007B807A00E4FDFC7F60FE128EBB7FE87E06
:10800C0003129193900006E4F0A37440F0A374F86B
:10801C00F0A3E4F07B40FAFDFCFFFE128EBB900057
:10802C0006E4F0A37440F0A37407F0A374E0F07BB3
:10803C00807A00E4FDFC7F40FE128EBB900006E4CB
:10804C00F0A37480F0A3E4F0A3741FF07B407A00DB
:10805C007D407C00E4FFFE128EBB900006E4F0A392
:10806C007480F074FFA3F0A3F07B807A007D407CD9
:10807C00007F407E00128EBB7FE87E0312919390AE
:10808C000006E4F0A37480F074FFA3F0A3F07B80EF
:10809C007A00E4FDFCFFFE128EBB7FE87E0312919A
:0480AC0093027EBFFE
:1000030000000000000000000000000000000404E5
:10001300040404000004000014140A00000000009B
:100023000000000000000A0A1F0A0A1F0A0A000053
:1000330000040E1505060C14150E0400000012151D
:100043000D152E2C2A1200000000040A0A3615157D
:100053002916000002020100000000000000000059
:100063001008080404040404080810000204040827
:10007300080808080404020000000004150E0E1509
:100083000400000000000008083E0808000000000B
:100093000000000000000000020201000000000058
:1000A300003F00000000000000000000000000000E
:1000B30000020000002010100808040402020100DE
:1000C30000000E1111111111110E000000000406A1
:1000D30004040404040E000000000E1111080402BD
:1000E300011F000000000E11100C1010110E000073
:1000F3000000080C0C0A091F081C000000001F0167
:10010300010F1110110E000000000C12010D13114C
:10011300110E000000001E1008080404040400006F
:1001230000000E11110E1111110E000000000E112E
:100133001119161009060000000000000400000059
:10014300000400000000000000040000000404009C
:100153000000100804020204081000000000000060
:100163003F003F00000000000000020408101008D8
:100173000402000000000E11110804040004000032
:1001830000001C22292D2D1D221C00000000040448
:100193000C0A0A1E1233000000000F12120E121274
:1001A300120F000000001E1101010101110E0000D9
:1001B30000000F1212121212120F000000001F1281
:1001C3000A0E0A02121F000000001F120A0E0A0282
:1001D3000207000000001C1201013911120C00007B
:1001E30000003312121E12121233000000001F040B
:1001F30004040404041F000000003E080808080863
:1002030008080907000037120A060A12123700000D
:100213000000070202020202223F000000003B1B13
:100223001B1B15151535000000003B1216161A1A74
:100233001217000000000E1111111111110E000010
:1002430000000F12120E02020207000000000E113E
:1002530011111117190E180000000F12120E0A12B5
:100263001237000000001E1101060810110F0000D4
:1002730000001F1504040404040E000000003312E0
:1002830012121212120C000000003312120A0A0C8E
:10029300040400000000151515150E0A0A0A0000D3
:1002A30000001B0A0A04040A0A1B000000001B0AC0
:1002B3000A0A0404040E000000001F0908040402D3
:1002C300121F00001C0404040404040404041C009E
:1002D3000002020404040808081010000E080808AD
:1002E3000808080808080E00040A000000000000BF
:1002F3000000000000000000000000000000003FBC
:1003030002040000000000000000000000000000E4
:10031300000C121C123C000000030202020E121217
:10032300120E000000000000001C1202120C00005C
:1003330000181010101C1212123C000000000000E4
:10034300000C121E021C000000182404041E0404E6
:10035300041E000000000000003C120C021C221CC2
:1003630000030202020E12121237000000040400FE
:1003730000060404040E000000080800000C08082E
:100383000808080700030202021A0A060A130000FB
:100393000007040404040404041F00000000000018
:1003A300000F15151515000000000000000F1212B4
:1003B3001237000000000000000C1212120C0000A3
:1003C30000000000000F1212120E020700000000CE
:1003D300001C1212121C103800000000001B060241
:1003E3000207000000000000001E020C101E0000A7
:1003F30000000004041E0404041C000000000000AC
:10040300001B1212123C000000000000001B0A0A2D
:1004130004040000000000000015150E0A0A000085
:1004230000000000001B0A040A1B0000000000007B
:10043300003312120C08040300000000001E08041D
:10044300041E000018080808080C0808080818000B
:100453000808080808080808080808080604040427
:100463000408040404040600160900000000000048
:100473000000000000000000000000000000000079
:100483000000000000000008080808080808000031
:1004930008080000004824241200000000000000A7
:1004A300000000000000004848487E2424247E24E5
:1004B300242400000000103C5252121C30505052B1
:1004C300523C1010000000222515150D2A585454D3
:1004D300522200000000000C1212120A762529197C
:1004E300916E0000000604040200000000000000FA
:1004F3000000000000402010100808080808081039
:1005030010204000000204080810101010101008FA
:10051300080402000000000008086B1C1C6B08089C
:10052300000000000000000000101010FE1010106A
:1005330000000000000000000000000000000000B8
:100543000604040200000000000000007E0000001A
:100553000000000000000000000000000000000098
:1005630006060000000040202020101008080804A0
:100573000402020000000018244242424242424266
:1005830024180000000000101C1010101010101090
:10059300107C00000000003C42424240201008044E
:1005A300427E00000000003C4242402018204042AE
:1005B300423C000000000020303028242422FE208A
:1005C30020F800000000007E0202021E224040428A
:1005D300221C0000000000182402023A4642424254
:1005E300443800000000007E422020101008080854
:1005F300080800000000003C424242241824424202
:10060300423C00000000001C22424242625C404027
:10061300241800000000000000001818000000006B
:10062300181800000000000000000008000000008F
:100633000008080800000040201008040204081005
:10064300204000000000000000007E00007E00004B
:1006530000000000000000020408102040201008E1
:10066300040200000000003C42424620101010002B
:10067300181800000000001C225A55555555553ACC
:10068300423C00000000000808181414243C2242D5
:1006930042E700000000001F2222221E22424242A3
:1006A300221F00000000007C4242010101010142BF
:1006B300221C00000000001F2242424242424242EA
:1006C300221F00000000003F4212121E12120242BB
:1006D300423F00000000003F4212121E12120202AB
:1006E300020700000000003C2222010101712122C7
:1006F300221C0000000000E7424242427E42424286
:1007030042E700000000003E08080808080808083F
:10071300083E00000000007C101010101010101094
:100723001010110F0000007722120A0E0A12122273
:100733002277000000000007020202020202020206
:10074300427F00000000007736363636362A2A2AE2
:100753002A6B0000000000E346464A4A52525262A6
:10076300624700000000001C2241414141414141D8
:10077300221C00000000003F424242423E020202AD
:10078300020700000000001C224141414141414D4C
:10079300321C60000000003F4242423E12122222FD
:1007A30042C700000000007C42420204182040427D
:1007B300423E00000000007F4908080808080808B6
:1007C300081C0000000000E742424242424242420B
:1007D300423C0000000000E7424222242414141883
:1007E300080800000000006B2A2A2A2A2A3614145B
:1007F30014140000000000E74224241818182424CD
:1008030042E70000000000772222141408080808B9
:10081300081C00000000007E212010100804044280
:10082300423F00000078080808080808080808087C
:1008330008087800000002040404080808101020C7
:1008430020204040001E1010101010101010101027
:1008530010101E000018240000000000000000001B
:100863000000000000000000000000000000000085
:10087300000000FF00060800000000000000000068
:1008830000000000000000000000001C22302C22A9
:10089300326C0000000000000302021A26424242AA
:1008A300261A000000000000000000384402020283
:1008B30044380000000000006040407C4242424255
:1008C30062DC0000000000000000003C42427E02A7
:1008D300423C0000000000003048083E08080808B9
:1008E300083E0000000000000000007C22221C02E1
:1008F3003C42423C000000000302023A46424242AC
:1009030042E700000000000C0C00000E0808080875
:10091300083E000000000030300000382020202076
:100923002020221E0000000003020272120A0E128F
:1009330022770000000000080E08080808080808CD
:10094300083E0000000000000000007F9292929297
:1009530092B70000000000000000003B4642424204
:1009630042E70000000000000000003C4242424217
:10097300423C0000000000000000001B26424242EF
:10098300261A020700000000000000586442424299
:10099300645840E000000000000000774C040404A9
:1009A300041F0000000000000000007C42023C40E5
:1009B300423E0000000000000008083E0808080846
:1009C3004830000000000000000000634242424241
:1009D30062DC0000000000000000007722221414F3
:1009E3000808000000000000000000DB91525A2AB2
:1009F30024240000000000000000006E24181818D2
:100A03002476000000000000000000E742242418C0
:100A130018080806000000000000007E22100808E5
:100A2300447E000000C02020202020201020202011
:100A33002020C000101010101010101010101010F3
:100A43001010101000030404040404040804040434
:100A530004040300045A200000000000000000000A
:100A63000000000000000000000000000000000083
:100A73000000000000000000000000000000000073
:100A83000000000000000000000000000000000063
:100A93000000000000000000000000006000600093
:100AA30060006000600060006000400020002000E3
:100AB30020000000000000006000600060000000F3
:100AC300000000000000000060066006300398018B
:100AD3008800440000000000000000000000000047
:100AE3000000000000000000000000000000000003
:100AF30000000000000000000000000010021002CF
:100B030010021002FE07FE0708020801080108018F
:100B13000801FE07FE0704010401040104010000AB
:100B23000000000000000000000040004000F00151
:100B330058034C03CC034C0058007000E000C00184
:100B4300C00140034C035C034C034801F000400028
:100B53004000000000000000000000000E010A0138
:100B6300910091009100510051003A00AE03A002A0
:100B730050045004480448044804840284030000D9
:100B830000000000000000000000000038006C00BE
:100B93006C006C006C006C002C0098071C011A019F
:100BA300330133016301E300C308C6093C070000B6
:100BB30000000000000000000C001C0010001000EA
:100BC3000800040000000000000000000000000016
:100BD3000000000000000000000000000000000012
:100BE300000000000000000000040002000180007B
:100BF3008000400040002000200020002000200052
:100C0300200020004000400080008000000100021E
:100C130000040000000000000200040008001000AF
:100C23001000200020004000400040004000400031
:100C330040004000200020001000100008000400C5
:100C4300020000000000000000000000000000009F
:100C53004000C0004000460C4E0FD001F0015E0F73
:100C6300460C40004000400000000000000000006F
:100C73000000000000000000000000000000000071
:100C8300000040004000400040004000FE0F4000D4
:100C93004000400040004000000000000000000051
:100CA3000000000000000000000000000000000041
:100CB3000000000000000000000000000000000031
:100CC30000000000000000000C001C0010001000D9
:100CD3000800040000000000000000000000000005
:100CE300000000000000000000000000FE070000FC
:100CF30000000000000000000000000000000000F1
:100D030000000000000000000000000000000000E0
:100D130000000000000000000000000000000000D0
:100D230000000000000000001C001C001C0000006C
:100D330000000000000000000004000600020003A1
:100D4300000100018000800040004000600020009E
:100D5300200010001000080008000C00040006002A
:100D63000200000000000000000000000000F0008E
:100D730098010C030C03060606060606060606067D
:100D83000606060606060C030C039801F000000095
:100D93000000000000000000000000000000400010
:100DA3007C00600060006000600060006000600024
:100DB300600060006000600060006000FC030000F1
:100DC3000000000000000000000000000000F80028
:100DD3008401020306030603000300018001C0002F
:100DE300600020001000080204020602FE03000057
:100DF3000000000000000000000000000000780078
:100E0300C6008601860180018001C0007000800158
:100E1300000100030003060306038601F800000037
:100E2300000000000000000000000000000080013E
:100E33008001C001A001A001900188018801840103
:100E43008201FE0F8001800180018001E007000024
:100E53000000000000000000000000000000FC0390
:100E630004000400040004000400F4008C010403E3
:100E7300000300030603060382018401F800000057
:100E83000000000000000000000000000000E0017E
:100E930018030C030C0004000600E60116030E06FB
:100EA30006060606060604060C021803F0000000F8
:100EB3000000000000000000000000000000F80730
:100EC3000C060402040100010001800080004000C0
:100ED30040004000600060006000600060000000AF
:100EE3000000000000000000000000000000F80106
:100EF3000C030606060606060C021C03F000C801D6
:100F03000C0306060606060606060C03F00100009F
:100F13000000000000000000000000000000F000DE
:100F23000C010C03060206060606060606078C06D7
:100F330078060006000300030C018C017800000012
:100F4300000000000000000000000000000000009E
:100F53000000000000000000E000E000E0000000EE
:100F63000000000000000000E000E000E0000000DE
:100F7300000000000000000000000000000000006E
:100F8300000000000000000060006000000000009E
:100F9300000000000000000000006000600040004E
:100FA30020002000000000000000000000040002F8
:100FB3000001800040002000100008000400080029
:100FC3001000200040008000000100020004000027
:100FD300000000000000000000000000000000000E
:100FE3000000000000000000FE07000000000000F9
:100FF300FE070000000000000000000000000000E9
:1010030000000000000000000000000004000800D1
:1010130010002000400080000001000200040002D4
:1010230000018000400020001000080004000000C0
:101033000000000000000000000000000000E003CA
:101043001806040C040C0C0C0C0C00078001400067
:101053004000400000000000E000E000E00000006D
:10106300000000000000000000000000E000180382
:101073000C02CC0564056605A605B604B604B604E1
:10108300B604B602E4010C040C021803F0000000DD
:1010930000000000000000000000000000006000ED
:1010A30060005000D0009000900088008801080183
:1010B300F801040304030402020202060F0F0000F6
:1010C3000000000000000000000000000000FE001F
:1010D3008C030C030C030C030C038C01FC000C03AA
:1010E3000C020C060C060C060C060C03FE01000099
:1010F3000000000000000000000000000000E0030A
:1011030018030C060C04040406000600060006007F
:101113000600060006040C040C021803F00000008D
:1011230000000000000000000000000000007F003D
:101133008C010C030C030C060C060C060C060C06A7
:101143000C060C060C060C030C038C017F0000003C
:101153000000000000000000000000000000FF038A
:10116300060306040604060086008600FE008600C9
:10117300860086000600060406040602FF0300003C
:101183000000000000000000000000000000FF035A
:10119300060306040604060086008600FE00860099
:1011A3008600860006000600060006001F000000F9
:1011B3000000000000000000000000000000F0003C
:1011C30018010C020C0204020600060006000600C9
:1011D300C60F060306030C030C031803F0000000FC
:1011E30000000000000000000000000000000F0FDE
:1011F300060606060606060606060606FE07060693
:101203000606060606060606060606060F0F000075
:101213000000000000000000000000000000FC03CC
:1012230060006000600060006000600060006000BB
:10123300600060006000600060006000FC0300006C
:101243000000000000000000000000000000F8079C
:10125300C000C000C000C000C000C000C000C0008B
:10126300C000C000C000C000C000C000C000C60075
:1012730066003C0000000000000000000000CF03F7
:101283008601C60046002600160036002E006E00BA
:101293004600C60086008601060106038F0700008C
:1012A30000000000000000000000000000001F001C
:1012B30006000600060006000600060006000600FB
:1012C300060006000600060406040602FF030000EB
:1012D30000000000000000000000000000000707FD
:1012E300860386038E038E034E034E034A035A037B
:1012F3005A033A033203320332031203870700000F
:1013030000000000000000000000000000008E0F3D
:101313000C021C021C023402340264026402440202
:10132300C402840284038403040304031F02000031
:101333000000000000000000000000000000F000BA
:1013430098010C030C0206060606060606060606A8
:101353000606060606060C020C039801F0000000C0
:101363000000000000000000000000000000FF007B
:101373000603060606060606060606068603FE009E
:101383000600060006000600060006001F00000017
:101393000000000000000000000000000000F0005A
:1013A30098010C030C020606060606060606060648
:1013B3000606060676064C02CC039801F000800769
:1013C3000003000000000000000000000000FF0117
:1013D300060306060606060606060603FE00460084
:1013E300C600860086010603060306060F0E0000EC
:1013F3000000000000000000000000000000F802F0
:101403000C030602060206000E003C00F800E0038F
:10141300800300070206020606060C03F001000023
:101423000000000000000000000000000000FE07B4
:101433006204610861086000600060006000600091
:10144300600060006000600060006000F801000060
:1014530000000000000000000000000000001E0764
:101463000C020C020C020C020C020C020C020C0209
:101473000C020C020C020C020C021801F00000001A
:1014830000000000000000000000000000000F0743
:101493000602040104010C010C0188008800980075
:1014A3009800500050007000300020002000000021
:1014B3000000000000000000000000000000F70E24
:1014C300620442044604460464026402E402E40241
:1014D3009C029C0198019801880188008800000003
:1014E30000000000000000000000000000009E0754
:1014F3000C01080118019000B0006000200060009A
:101503006000D00090008801080104038E070000EA
:1015130000000000000000000000000000000F0FAA
:10152300060404020C0208011801B800B0007000A0
:10153300600060006000600060006000F80100006F
:101543000000000000000000000000000000FC0795
:101553000C020603020180018000400040002000CD
:1015630020001000180008040C040402FE0300000D
:101573000000000000000000E00320002000200025
:101583002000200020002000200020002000200058
:101593002000200020002000200020002000200048
:1015A300E00300000000000000000000040004004D
:1015B3000800080010001000100020002000400068
:1015C3004000C00080008000000100010002000212
:1015D30000020004000000007C00400040004000C6
:1015E30040004000400040004000400040004000F8
:1015F30040004000400040004000400040004000E8
:101603007C00000000006000900008010000000062
:1016130000000000000000000000000000000000C7
:1016230000000000000000000000000000000000B7
:1016330000000000000000000000000000000000A7
:101643000000000000000000000000000000000097
:101653000000000000000000000000000000000087
:101663000000FF0F000000001800600000000000F1
:101673000000000000000000000000000000000067
:101683000000000000000000000000000000000057
:101693000000000000000000000000000000000047
:1016A3000000000000000000F0010C030C03000325
:1016B300E0031C030E03060306038E0B7C0E0000DF
:1016C30000000000000000000000000008000E0001
:1016D3000C000C000C000C00CC013C031C060C0697
:1016E3000C060C060C060C060C021C03E40100009D
:1016F30000000000000000000000000000000000E7
:101703000000000000000000F0008C018C01860145
:1017130006000600060006020C020C01F0000000A1
:101723000000000000000000000000000002C003F1
:10173300000300030003000378038C030C03060378
:10174300060306030603060304038C07780100005F
:101753000000000000000000000000000000000086
:101763000000000000000000E001180308020C065E
:101773000C06FC070C000C0018041802E001000022
:101783000000000000000000000000000000C00393
:101793006006300630003000FE01300030003000BB
:1017A300300030003000300030003000FC01000019
:1017B3000000000000000000000000000000000026
:1017C3000000000000000000F007D8068C018C0127
:1017D3008C019801F8000C00FC00CC0306030603FF
:1017E3008E03F800000000000000000008000E0057
:1017F3000C000C000C000C00EC011C030C030C038C
:101803000C030C030C030C030C030C039E070000D6
:101813000000000000000000000000000000600065
:1018230060000000000040007C0060006000600079
:10183300600060006000600060006000FC03000066
:101843000000000000000000000000000000C001D4
:10185300C001000000000001F0018001800180014F
:10186300800180018001800180018001800180016D
:10187300CC007C00000000000000000008000E0007
:101883000C000C000C000C008C038C008C004C0032
:101893006C005C008C008C010C010C039E070000A3
:1018A30000000000000000000000000040007C0079
:1018B3006000600060006000600060006000600025
:1018C300600060006000600060006000FC030000D6
:1018D3000000000000000000000000000000000005
:1018E30000000000000000003707EE0666066606EB
:1018F300660666066606660666066606FF0F00004F
:1019030000000000000000000000000000000000D4
:101913000000000000000000EE011C030C030C0398
:101923000C030C030C030C030C030C039E070000B5
:1019330000000000000000000000000000000000A4
:101943000000000000000000F00098010C030606F0
:1019530006060606060606060C030C03F000000046
:101963000000000000000000000000000000000074
:101973000000000000000000EE011C030C060C0632
:101983000C060C060C060C060C031C03EC010C00E5
:101993000C003E00000000000000000000000000FA
:1019A300000000000000000078028C030C03060313
:1019B300060306030603060304038C0378030003EC
:1019C3000003C0070000000000000000000000004A
:1019D30000000000000000009F03580638061800AE
:1019E300180018001800180018001800FF00000065
:1019F30000000000000000000000000000000000E4
:101A03000000000000000000F0031C030C020C02A5
:101A13003800F000C003040304038C03FC0100003E
:101A230000000000000000000000000000000000B3
:101A33002000200030003000FE0130003000300074
:101A4300300030003000300030023002E00100008E
:101A53000000000000000000000000000000000083
:101A630000000000000008028E030C030C030C03AB
:101A73000C030C030C030C030C039C0778010000FC
:101A83000000000000000000000000000000000053
:101A930000000000000000001E070C0208010801FE
:101AA30018019000B000B00060006000200000004A
:101AB3000000000000000000000000000000000023
:101AC3000000000000000000F70E620446046402F8
:101AD3006402EC029C01980198019801080000003F
:101AE30000000000000000000000000000000000F3
:101AF3000000000000000000BC0718011001B00046
:101B030060006000E0009000080108039E070000E9
:101B130000000000000000000000000000000000C2
:101B230000000000000000009E07080108010801F2
:101B330090009000B0006000600060002000200072
:101B430024001C0000000000000000000000000052
:101B53000000000000000000FC018401C4004400F8
:101B6300600020003000180208020C03FC01000092
:101B730000000000000000000003800080008000DF
:101B83008000800080008000800040002000400032
:101B93008000800080008000800080008000800042
:101BA30000030000400040004000400040004000AF
:101BB3004000400040004000400040004000400022
:101BC3004000400040004000400040004000400012
:101BD30040004000000000000C0010001000100046
:101BE3001000100010001000100020004000200022
:101BF3001000100010001000100010001000100062
:101C03000C00000000001C002204C204800300003A
:101C130000000000000000000000000000000000C1
:101C230000000000000000000000000000000000B1
:101C330000000000000000000000000000000000A1
:101C43000000000000000000000000000000000091
:101C53000000000000000000000000000000000081
:101C63000000000000000000000000000000000071
:101C73000000000000000000000000000000000061
:101C8300C003C003C003C003C003C00380038001BB
:101C930080018001800180018001800180010000BA
:101CA300000000008001C003C003800100000000A9
:101CB3000000000000000000C018E01CE01C700ED3
:101CC300300618038C0184000000000000000000AF
:101CD3000000000000000000000000000000000001
:101CE30000000000000000000000000000000000F1
:101CF30000000000000000000000000000000000E1
:101D030020102010201020102010FE7FFE7FFE7F69
:101D1300100810081008100810081008FE7FFE7F36
:101D2300FE7F180C080408040804080400000000DF
:101D330000000000000000000000000080008000A0
:101D4300C003B00C90189818981C981CB800B000E9
:101D5300F000E000C0038007800F800C801C801817
:101D63009C189C188C188C0C9806E003800080004B
:101D730080000000000000000000000000000000E0
:101D83001C083608220463046302630263026301CE
:101D930063012201B61C9C364022406340632063EA
:101DA30020631063106310220836081C0000000033
:101DB3000000000000000000000000000000000020
:101DC300F00098008C018C018C018C018C00CC00FC
:101DD3005C0038001C3E3C08320873086304E304CB
:101DE300C3048303834306678C3E781C0000000012
:101DF30000000000000000001C003C003C0030001C
:101E0300300010000C00060000000000000000007D
:101E130000000000000000000000000000000000BF
:101E230000000000000000000000000000000000AF
:101E33000000000000000000004000200010001817
:101E4300000C00040006000200030003800180016F
:101E530080018001800180018001800180010003F5
:101E63000003000200060004000C0018001000200C
:101E730000400000000000000200040008001800F9
:101E83003000200060004000C000C00080018001DD
:101E93008001800180018001800180018001C000F8
:101EA300C000C000600020003000180008000400DB
:101EB300020000000000000000000000000000001D
:101EC300000000000003800380030C631C71383999
:101ED300600D80038003600D38391C718C618003B1
:101EE30080038003000000000000000000000000E9
:101EF30000000000000000000000000000000000DF
:101F030000000000000000010001000100010001C9
:101F130000010001FC7F000100010001000100013C
:101F230000010001000000000000000000000000AC
:101F3300000000000000000000000000000000009E
:101F4300000000000000000000000000000000008E
:101F5300000000000000000000000000000000007E
:101F6300000000001C003C003C003000300010006A
:101F73000C0006000000000000000000000000004C
:101F8300000000000000000000000000000000004E
:101F930000000000FE7F00000000000000000000C1
:101FA300000000000000000000000000000000002E
:101FB300000000000000000000000000000000001E
:101FC300000000000000000000000000000000000E
:101FD30000000000000000000000000000000000FE
:101FE3000000000018003C003C0018000000000046
:101FF300000000000000000000000040006000201E
:102003000030001000180008000C00040006000255
:102013000003000180018000C00040006000200038
:1020230030001000180008000C0004000600020035
:10203300000000000000000000000000000000009D
:10204300C0036004300C1818181818100C300C302A
:102053000C300C300C300C300C300C300C300C309D
:10206300181018181818300C6004C0030000000082
:10207300000000000000000000000000000000005D
:1020830000018001F801800180018001800180014D
:102093008001800180018001800180018001800135
:1020A3008001800180018001C003F81F000000004F
:1020B300000000000000000000000000000000001D
:1020C300E007101C0818043004300C300C300030CA
:1020D30000180018000C000600038001C000400037
:1020E3002020102008200430FC1FFC1F00000000EB
:1020F30000000000000000000000000000000000DD
:10210300E00318060C0C0C180C180C180018001817
:10211300000C0006C003000E001800100030003051
:102123000C300C300C100C18180CE00300000000ED
:10213300000000000000000000000000000000009C
:1021430000060006000700078006800640062006FA
:1021530020061006100608060C0604060206FE3FBB
:1021630000060006000600060006C03F000000004F
:10217300000000000000000000000000000000005C
:10218300F03FF03F080008000800080008000800BE
:10219300C807280C18180810003000300030003031
:1021A3000C300C3004180418180CE0030000000075
:1021B300000000000000000000000000000000001C
:1021C30080076018301810181800080008000C0069
:1021D300CC076C0C1C181C100C300C300C300C3061
:1021E3000C30183018103018700CC00700000000B5
:1021F30000000000000000000000000000000000DC
:10220300F83FF83F08100C08040804040004000217
:1022130000020002000100018000800080008000B5
:10222300C000C000C000C000C000C000000000002B
:10223300000000000000000000000000000000009B
:10224300E007300C18180C300C300C301C301C100C
:102253007818F004E003180F0C1E0C1C0638063027
:102263000630063006300C18180CE003000000009E
:10227300000000000000000000000000000000005B
:10228300E00318040C080C1806100630063006305C
:10229300063006300E380C341836F0310030001892
:1022A300001800080C0C0C060C03F00100000000E1
:1022B300000000000000000000000000000000001B
:1022C300000000000000000000000000000080018A
:1022D300C003C003800100000000000000000000F4
:1022E300000000008001C003C00380010000000063
:1022F30000000000000000000000000000000000DB
:1023030000000000000000000000000000000000CA
:10231300C001C001C0010000000000000000000077
:10232300000000000000C001C001C0018001C00026
:10233300C0000000000000000000000000000000DA
:10234300002000100008000400020001800040008B
:10235300200010000800080010002000400080004A
:10236300000100020004000800100020000000002B
:10237300000000000000000000000000000000005A
:102383000000000000000000000000000000FE7FCD
:1023930000000000000000000000FE7F00000000BD
:1023A300000000000000000000000000000000002A
:1023B300000000000000000000000000000000001A
:1023C300040008001000200040008000000100020B
:1023D30000040008001000100008000400020001BF
:1023E30080004000200010000800040000000000EE
:1023F30000000000000000000000000000000000DA
:10240300C0073018183008600C601C601C601C602A
:1024130000300018000E000300010001000100015C
:10242300000000008001C003C00380010000000021
:102433000000000000000000000000000000000099
:10244300C0076008301018200C2B8C4D844CC64CF0
:10245300C644664466446644664666266626641732
:10246300CC0C0C40082018303018C00700000000C6
:102473000000000000000000000000000000000059
:10248300C001C001C001C0012003200320032003B9
:1024930030021006100610061804F80F080C080C7A
:1024A300080C04180418041806381F7C00000000E8
:1024B3000000000000000000000000000000000019
:1024C300FE07181C18181830183018301830183038
:1024D3001818180CF8071818183018201860186006
:1024E30018601860186018301818FE0F00000000FC
:1024F30000000000000000000000000000000000D9
:10250300C0076038103018600C400C400C00060007
:102513000600060006000600060006000600060088
:102523000C400C40082018103008C00700000000C1
:102533000000000000000000000000000000000098
:10254300FE03180E18181810183018301860186089
:1025530018601860186018601860186018601820F8
:1025630018301830181818181806FE030000000059
:102573000000000000000000000000000000000058
:10258300FE3F18301820184018401800180018088B
:102593001808180CF80F180C180818081800180059
:1025A30018001840184018201830FE3F00000000A3
:1025B3000000000000000000000000000000000018
:1025C300FE3F183818201840184018001800180843
:1025D3001808180CF80F180C180818081808180011
:1025E300180018001800180018007E0000000000F2
:1025F30000000000000000000000000000000000D8
:10260300C003300C100818180C100C10040006003E
:102613000600060006000600067E061806180418C3
:102623000C180C18081818183004E00300000000F8
:102633000000000000000000000000000000000097
:102643003FFC0C300C300C300C300C300C300C30A8
:102653000C300C30FC3F0C300C300C300C300C3098
:102663000C300C300C300C300C303FFC0000000000
:102673000000000000000000000000000000000057
:10268300F81F8001800180018001800180018001A9
:10269300800180018001800180018001800180012F
:1026A30080018001800180018001F81F000000008B
:1026B3000000000000000000000000000000000017
:1026C300E07F00060006000600060006000600067E
:1026D30000060006000600060006000600060006C7
:1026E3000006000600060006000600060E060E039E
:1026F3008E01FC000000000000000000000000004C
:102703007E3E180C180418061802180118019800C8
:102713009800D800B801B801180318031806180662
:10272300180C180C180C181818187E7C00000000E0
:102733000000000000000000000000000000000096
:102743007E00180018001800180018001800180060
:1027530018001800180018001800180018001800B6
:1027630018001840184018201830FE3F00000000E1
:102773000000000000000000000000000000000056
:102783000FF01C381C381C381C381C3434343434D7
:102793003434343234326432643264326431443136
:1027A300C431C431C430C43084308FFC0000000015
:1027B3000000000000000000000000000000000016
:1027C3000FF81C201C203420342064206420C420F3
:1027D300C420842184210423042304260426042CF6
:1027E300042C04380438043004301F200000000097
:1027F30000000000000000000000000000000000D6
:10280300C003300C181808100C300C30062006607A
:102813000660066006600660066006600660046087
:102823000C300C3008101818300CC00300000000E6
:102833000000000000000000000000000000000095
:10284300FE0F1818183018601860186018601860A8
:10285300186018301818F807180018001800180026
:10286300180018001800180018007E00000000006F
:102873000000000000000000000000000000000055
:10288300C003300C181808100C300C3006600660BA
:102893000660066006600660066006600660066005
:1028A300E4211C331C36181E300EC007004C003CBC
:1028B30000380000000000000000000000000000DD
:1028C300FE07181C18181830183018301830183034
:1028D3001818180CF8071803180318061806180612
:1028E300180C180C180C181818187E780000000023
:1028F30000000000000000000000000000000000D5
:10290300F013181E0C1806180610061006000E0009
:102913003C00F800E003800F001E0018003802306E
:102923000230063004300C181C0CE40700000000D1
:102933000000000000000000000000000000000094
:10294300FC3F8C21846182418241800180018001AE
:10295300800180018001800180018001800180016C
:1029630080018001800180018001E00700000000F8
:102973000000000000000000000000000000000054
:102983003F7C0C100C100C100C100C100C100C10C5
:102993000C100C100C100C100C100C100C100C1054
:1029A3000C100C100C1018083804E0030000000091
:1029B3000000000000000000000000000000000014
:1029C3003E781830181018101810300830083008E6
:1029D300300830046004600460046002C002C00276
:1029E300C002C0018001800180008000000000005F
:1029F30000000000000000000000000000000000D4
:102A0300CFF386618621842104210C238C238C231C
:102A13008C138C138813481258165816580E380EF8
:102A2300300E300E300C300410041004000000008F
:102A33000000000000000000000000000000000093
:102A43003E7C181018083008300460046002C0028D
:102A5300C0018001800180018003400340062006FD
:102A6300200E100C100C181808383E7C00000000D3
:102A73000000000000000000000000000000000053
:102A83007E7C1C10181018083008300830046004CD
:102A93006004C002C002C001800180018001800186
:102AA30080018001800180018001E00700000000B7
