:020000040800F2
:10000000B806002029020008A91B00082D140008CA
:10001000A51B00081F040008B52000080000000010
:10002000000000000000000000000000AF1B0008FE
:100030002304000800000000AD1B0008B11B0008ED
:10004000430200084302000843020008430200087C
:10005000430200084302000843020008430200086C
:10006000430200084302000843020008430200085C
:10007000430200084302000843020008430200084C
:10008000430200084302000843020008430200083C
:10009000430200084302000843020008430200082C
:1000A000430200084302000843020008430200081C
:1000B000430200084302000843020008430200080C
:1000C00043020008430200084302000843020008FC
:1000D00043020008A520000843020008430200086C
:1000E00043020008430200084302000843020008DC
:1000F00043020008430200084302000843020008CC
:1001000043020008430200084302000843020008BB
:1001100043020008430200084302000843020008AB
:10012000430200084302000843020008430200089B
:10013000430200084302000843020008430200088B
:10014000430200084302000843020008430200087B
:10015000430200084302000843020008430200086B
:10016000430200084302000843020008430200085B
:100170004302000843020008430200080000000098
:10018000430200084302000800F002F800F03CF8C7
:100190000AA090E8000C82448344AAF10107DA45E2
:1001A00001D100F031F8AFF2090EBAE80F0013F0F8
:1001B000010F18BFFB1A43F001031847A80C0100F8
:1001C000C80C0100103A24BF78C878C1FAD8520789
:1001D00024BF30C830C144BF04680C6070470000C1
:1001E0000023002400250026103A28BF78C1FBD840
:1001F000520728BF30C148BF0B6070471FB502F0DF
:1002000069F81FBD10B510BD00F0CFF81146FFF71B
:10021000F5FF01F06DFF00F0EDF803B4FFF7F2FF1A
:1002200003BC00F0F5F80000094880470948004782
:10023000FEE7FEE7FEE7FEE7FEE7FEE7FEE7FEE796
:10024000FEE7FEE704480549054A064B70470000F3
:100250006D1C000889010008B8000020B8060020C5
:10026000B8020020B802002053EA020C00F06980B6
:100270002DE9F04B4FF00006002B1FBFB3FA83F5BA
:1002800003FA05F424FA05F65E4012BF1643B2FAEB
:1002900082F502FA05F4C5F120051EBF22FA05FC1D
:1002A00044EA0C04203556EA044C4FEA144418BFC3
:1002B000641C4FF000084FF00009904271EB030CF2
:1002C00039D3002919BFB1FA81F701FA07F6B0FA5C
:1002D00080F700FA07F6C7F120071EBF20FA07FCD7
:1002E00046EA0C062037B6FBF4FCA7EB0507103FE7
:1002F00007F01F0BCBF120060CFA0BFB2CFA06F6CD
:1003000044BFB3460026202FA4BF5E464FF0000B2B
:100310005BEA060C08BF4FF0010B19EB0B09ABFBB6
:10032000027C48EB0608C01B06FB02CC0BFB03CC8F
:1003300071EB0C01C1E70B46024641464846BDE859
:10034000F08B13B54FF000004FF00001AFF30080C9
:10035000BDE81C4070474FF0000200B513469446BC
:100360009646203922BFA0E80C50A0E80C50B1F10D
:100370002001BFF4F7AF090728BFA0E80C5048BF21
:100380000CC05DF804EB890028BF40F8042B08BFBF
:10039000704748BF20F8022B11F0804F18BF00F8BB
:1003A000012B7047704770477047754600F02CF876
:1003B000AE4605006946534620F00700854618B052
:1003C00020B5FFF73FFFBDE820404FF000064FF09B
:1003D00000074FF000084FF0000B21F00701AC467A
:1003E000ACE8C009ACE8C009ACE8C009ACE8C00999
:1003F0008D46704710B50446AFF300802046BDE837
:100400001040FFF70ABF000000487047540000206A
:1004100001491820ABBEFEE726000200704700BF6E
:10042000FEE7704772B600BFFEE770B50446A56DE3
:1004300000F07AF9064694F83500022808D08020AA
:10044000606500BF002084F8340000BF012070BD4B
:100450002068006820F01600216808602068406964
:1004600020F0800021684861206C08B9A06C28B198
:100470002068006820F00800216808602068006893
:1004800020F001002168086010E000F04DF9801BA9
:1004900005280BD920206065032084F8350000BFB3
:1004A000002084F8340000BF0320D0E720680068F3
:1004B00000F001000028E8D194F85C103F2088404B
:1004C000A860012084F8350000BF002084F83400C3
:1004D00000BF00BFBBE7014691F83500022803D0FA
:1004E0008020486501207047052081F835000868A4
:1004F000006820F001000A6810600020F3E70000A7
:1005000070B5044600F010F906462546681C10B187
:1005100004480078054400BF00F006F9801BA8429B
:10052000FAD370BD08000020F8B502460B4600253E
:10053000002400200021D6E0012606FA01F51E68FD
:1005400006EA0504AC4274D11E7906F00306012EBA
:1005500004D01E7906F00306022E13D190684F00D6
:100560000326BE40B0434F00DE68BE40304390607B
:10057000506801268E40B0431E79C6F300168E40A7
:10058000304350601E7906F00306032E09D0D06870
:100590004F000326BE40B0434F009E68BE4030432C
:1005A000D0601E7906F00306022E13D1CF0802F1A7
:1005B000200656F827004E07F70E0F26BE40B04320
:1005C0004F07FF0E1E69BE403043CF0802F12006E0
:1005D00046F8270010684F000326BE40B0431E793E
:1005E00006F003064F00BE40304310605E6806F41C
:1005F0004036002E76D000BF002600963C4E36686E
:1006000046F480463A4F3E603E46366806F48046E1
:10061000009600BF00BF374E8F0856F827008E07A0
:10062000370F0F26BE40B043334EB24202D10026F0
:1006300024E057E0314EB24201D101261EE0304E97
:10064000B24201D1022619E02E4EB24201D1032658
:1006500014E02D4EB24201D104260FE02B4EB242DF
:1006600001D105260AE02A4EB24201D1062605E054
:10067000284EB24201D1072600E008268F073F0F1F
:10068000BE4030431B4E8F0846F82700224E30688C
:10069000A0435E6806F4801606B120431E4E30600B
:1006A000361D3068A0435E6806F4001606B120438C
:1006B000194E361D3060184E361F3068A0435E68F4
:1006C00006F4003606B12043134E361F3060361F45
:1006D0003068A0435E6806F4803606B120430E4EB3
:1006E000083E3060491C1029FFF426AFF8BD000019
:1006F0004438024008380140000002400004024033
:1007000000080240000C02400010024000140240A9
:1007100000180240001C0240083C01400AB18161FF
:1007200001E00B04836170470148006870470000D6
:100730000000002003480068034909780844014983
:1007400008607047000000200800002010B50D4828
:10075000006840F400700B4908600846006840F4E7
:10076000806008600846006840F4807008600320DC
:1007700000F0A6F8002000F007F800F02BF80020A9
:1007800010BD0000003C024070B504460E480078E1
:100790004FF47A71B1FBF0F00C490968B1FBF0F548
:1007A000284600F02FFC08B1012070BD102C07D2A4
:1007B00000222146501E00F045F80548046001E083
:1007C0000120F2E70020F0E7080000200C000020E4
:1007D0000400002008B500BF002000901048006809
:1007E00040F480400E4908600846006800F48040EC
:1007F000009000BF00BF00BF00200090081F0068ED
:1008000040F08050091F08600846006800F08050E2
:10081000009000BF00BF052000F052F808BD0000A6
:100820004438024001460846002809DB00F01F0357
:1008300001229A4043099B0003F1E023C3F8002101
:1008400000BF70472DE9F05F80460D461646002731
:1008500001F032FC074639462A46334601F00700CC
:10086000C0F1070ABAF1040F02D94FF0040A01E0FF
:10087000C0F1070AD14600F1040ABAF1070F02D20B
:100880004FF0000A01E0A0F1030AD4464FF0010A3C
:100890000AFA09FAAAF1010A0AEA020A0AFA0CFAA1
:1008A0004FF0010B0BFA0CFBABF1010B0BEA030B46
:1008B0004AEA0B042146404601F006FCBDE8F09FE1
:1008C00000BF00F00702064B19684FF6FF031940FE
:1008D000044B0B4343EA0221014B196000BF7047F0
:1008E0000CED00E00000FA0570B504460D460CB9A9
:1008F000012070BD5848006800F00700A84209D2E6
:1009000055490D700846006800F00700A84201D064
:100910000120EEE7207800F0020002281DD12078A7
:1009200000F00400042805D14C48006840F4E05071
:100930004A490860207800F00800082805D1474897
:10094000006840F46040454908604448006820F071
:10095000F000A168084341490860207800F00100D8
:10096000A8B36068012807D13C4808380068C0F384
:100970004040B8B90120BCE76068022802D0606836
:10098000032807D1354808380068C0F3406048B9EB
:100990000120AEE7314808380068C0F3400008B9CC
:1009A0000120A6E72D48006820F003006168084395
:1009B0002A490860FFF7B8FE064609E0FFF7B4FED3
:1009C000801B41F28831884202D9032091E707E079
:1009D0002248006800F00C006168B0EB810FEDD197
:1009E0001D48006800F00700A84209D91A490D7097
:1009F0000846006800F00700A84201D0012078E70F
:100A0000207800F00400042807D11448006820F47E
:100A1000E050E168084311490860207800F00800C0
:100A2000082808D10D48006820F46040216940EA98
:100A3000C1000A49086000F03FF808490968C1F39D
:100A40000311074A515CC84006490860064800681F
:100A5000FFF79AFE00204CE7003C024008380240B5
:100A6000CED000080C0000200400002001480068DF
:100A7000704700000C00002000B5FFF7F7FF0449A5
:100A80000968C1F38221034A515CC84000BD0000DF
:100A900008380240DED0000800B5FFF7E7FF044940
:100AA0000968C1F34231034A515CC84000BD0000EF
:100AB00008380240DED000082DE9F0470024002568
:100AC0000026A1462548006800F00C0020B104284B
:100AD00005D008283AD105E0DFF8849039E0DFF846
:100AE000849036E01D48001F006800F03F041B485A
:100AF000001F006800F4800078B11A481749091FE8
:100B00000968C1F38811A0FB017001462246002349
:100B10003846FFF7A9FB05460EE011480F49091FAB
:100B20000968C1F38811A0FB017001462246002329
:100B30003846FFF799FB05460848001F0068C0F3D8
:100B40000140401C4600B5FBF6F902E0DFF81090CA
:100B500000BF00BF4846BDE8F087000008380240EB
:100B60000024F40000127A00F8B504460CB9012004
:100B7000F8BD207800F00100002874D0F948006822
:100B800000F00C0004280DD0F648006800F00C00BE
:100B9000082813D1F348001F006800F48000B0F566
:100BA000800F0BD1EF4808380068C0F340400028A0
:100BB00059D06068002856D10120D9E700BF60688D
:100BC000B0F5803F08D1E7480838006840F480302D
:100BD000E449083908601EE06068B0F5A02F0DD127
:100BE000E0480838006840F48020DE490839086091
:100BF0000846006840F4803008600CE0D9480838A6
:100C0000006820F48030D749083908600846006839
:100C100020F48020086000BF606890B1FFF784FD79
:100C2000054606E0FFF780FD401B642801D903203C
:100C30009EE7CC4808380068C0F340400028F1D057
:100C400011E0FFF771FD054606E0FFF76DFD401B63
:100C5000642801D903208BE7C24808380068C0F334
:100C600040400028F1D1207800F0020002285FD136
:100C7000BC48006800F00C0058B1BA48006800F0A9
:100C80000C0008281CD1B748001F006800F4800041
:100C9000B0B9B44808380068C0F3400020B1E0683B
:100CA000012801D0012063E7AE480838006820F031
:100CB000F800216940EAC100AA490839086037E014
:100CC000E06800B30120A8490860FFF72DFD054644
:100CD00006E0FFF729FD401B022801D9032047E762
:100CE000A04808380068C0F340000028F1D09D48B3
:100CF0000838006820F0F800216940EAC1009949ED
:100D00000839086014E0002097490860FFF70CFDDF
:100D1000054606E0FFF708FD401B022801D9032025
:100D200026E7904808380068C0F340000028F1D159
:100D3000207800F0080008282CD16069A8B10120B3
:100D40008A490860FFF7F0FC054606E0FFF7ECFC77
:100D5000401B022801D903200AE782486C30006852
:100D6000C0F340000028F1D014E000207F49086063
:100D7000FFF7DAFC054606E0FFF7D6FC401B022829
:100D800001D90320F4E677486C300068C0F34000D6
:100D90000028F1D1207800F00400042870D1002749
:100DA00070483830006800F0805090B900BF0020D3
:100DB00000906C483830006840F080506949383104
:100DC00008600846006800F08050009000BF00BF37
:100DD00001276748006800F48070B0B96448006873
:100DE00040F4807062490860FFF79EFC054606E00B
:100DF000FFF79AFC401B022801D90320B8E65C48A3
:100E0000006800F480700028F2D000BFA0680128BC
:100E100008D154486830006840F0010051496831F9
:100E200008601DE0A06805280DD14E4868300068B4
:100E300040F004004B49683108600846006840F003
:100E4000010008600CE047486830006820F00100AD
:100E50004449683108600846006820F004000860D2
:100E600000BFA068A8B1FFF75FFC054609E0FFF7E7
:100E70005BFC401B41F28831884202D9032077E6AF
:100E800026E0384868300068C0F340000028EED003
:100E900013E0FFF749FC054608E0FFF745FC401B5F
:100EA00041F28831884201D9032061E62D4868303B
:100EB0000068C0F340000028EFD1012F07D1294876
:100EC0003830006820F0805026493831086000BF73
:100ED000A069002845D02348006800F00C000828CD
:100EE0005DD0A069022845D100201F490866FFF7A0
:100EF0001BFC054606E0FFF717FC401B022801D942
:100F0000032035E6174808380068C0F34060002821
:100F1000F1D1D4E907010843616A40EA8111012255
:100F2000A06AC2EB500041EA00412C20005D41EA7A
:100F300000600C49091F086001200B490866FFF793
:100F4000F3FB054606E0FFF7EFFB401B022801D943
:100F500003200DE6034808380068C0F3406000280D
:100F6000F1D049E00838024000004742800E474275
:100F700000700040002021490866FFF7D5FB0546B8
:100F800006E0FFF7D1FB401B022801D90320EFE563
:100F90001B480068C0F340600028F2D12CE0A06933
:100FA000012800D1E4E51648001D0668A069012863
:100FB00020D006F48001E06981421BD106F03F0198
:100FC000206A814216D147F6C0703040616AB0EBAA
:100FD000811F0FD106F440310122A06AC2EB5000FC
:100FE000B1EB004F06D106F070612C20005DB1EB33
:100FF000006F01D00120BBE50020B9E500004742A9
:101000000038024070B504462546681EB0F1807F66
:1010100001D301200FE0681E4FF0E02148610F214D
:101020004FF0FF3001F050F800204FF0E0218861D0
:1010300007200861002070BD704770472DE9F84F08
:101040000446206805682068C668206847694FF034
:101050000009CA4605F00F09B9F1000F0AD105F0E1
:10106000200038B106F0200020B1204600F058FEE4
:10107000BDE8F88FB9F1000F7CD007F0010018B976
:1010800006F49070002875D005F0010030B106F428
:10109000807018B1206C40F00100206405F004005D
:1010A00030B107F0010018B1206C40F0020020645C
:1010B00005F0020030B107F0010018B1206C40F0DB
:1010C0000400206405F0080048B106F0200010B9C3
:1010D00007F0010018B1206C40F008002064206C7B
:1010E000002846D005F0200028B106F0200010B1FD
:1010F000204600F015FE20684069C0F3801A206C7D
:1011000000F0080010B9BAF1000F2DD0204600F011
:10111000C1FD2068406900F04000402820D100BF98
:1011200000BF2168143151E8001F21F04000216800
:10113000143141E80002002AF3D100BFA06B50B186
:101140007548A16B0865A06BFFF7C5F988B1A06B66
:10115000016D88470DE02046FFF76FFF09E009E0C9
:101160002046FFF76AFF04E02046FFF766FF0020F5
:1011700020647DE7206B012876D105F0100000285F
:1011800072D006F010000028FAD000BF00200090B6
:1011900020680068009020684068009000BF00BF91
:1011A0002068406900F0400040285ED1A06B0068D4
:1011B00040681FFA80F8B8F1000F54D0A08D404568
:1011C00051DDA4F82E80A06BC069B0F5807F43D0BC
:1011D00000BF00BF21680C3151E8001F21F480706E
:1011E00021680C3141E80002002AF3D100BF00BFA2
:1011F00000BF2168143151E8001F21F0010021686F
:10120000143141E80002002AF3D100BF00BF00BF43
:101210002168143151E8001F21F040002168143189
:1012200041E80002002AF3D100BF202084F83E00EC
:101230000020206300BF00BF21680C3151E8001F6F
:1012400021F0100021680C3141E80002002AF3D19E
:1012500000BFA06BFFF7E9F8A08DE28D801A81B284
:101260002046FFF7E9FE03E740E0A08DE18D401A3C
:101270001FFA80F8E08DC0B3B8F1000F35D000BF81
:1012800000BF21680C3151E8001F21F490702168E3
:101290000C3141E80002002AF3D100BF00BF00BFBB
:1012A0002168143151E8001F21F001002168143138
:1012B00041E80002002AF3D100BF202084F83E005C
:1012C0000020206300BF00BF21680C3151E8001FDF
:1012D00021F0100021680C3141E80002002AF3D10E
:1012E00000BF41462046FFF7A7FEC1E605F080009B
:1012F00030B106F0800018B1204600F0A3FEB7E63A
:1013000005F0400030B106F0400018B1204600F072
:10131000F7FCADE600BFABE6811C000810B5044643
:101320000CB9012010BDA06900B100E000BF94F825
:101330003D0028B9002084F83C00204600F028F841
:10134000242084F83D002068C06820F40050216803
:10135000C860204600F060FD2068006920F49040DD
:10136000216808612068406920F02A0021684861EE
:101370002068C06840F400502168C86000202064E4
:10138000202084F83D0084F83E000020CAE70000D9
:1013900010B586B00446142101A8FEF7DCFF1F49F2
:1013A0002068884238D100BF002000901C480068A7
:1013B00040F010001A4908600846006800F010006C
:1013C000009000BF00BF00BF0020009014481438F8
:1013D000006840F0010012491439086008460068AE
:1013E00000F00100009000BF00BF4FF4C06001900A
:1013F0000220029000200390032004900720059013
:1014000001A90848FFF790F8032211462520FFF7AD
:1014100019FA2520FFF706FA06B010BD00100140AA
:1014200044380240000002407047704700BFFEE7AA
:101430002DE9F04104460D4616461F462A2000F0CD
:101440005DFBA11C88B200F031FBB11C88B200F03A
:101450002DFB2B2000F052FBE91C88B200F026FB8C
:10146000F91C88B200F022FB2C2000F047FBBDE8FD
:10147000F08170B505460E4614463146284600F008
:10148000CBF9204600F012FB70BD2DE9F04706466F
:101490000F4614461D46DDF820A0681E83B2601E6C
:1014A00082B239463046FFF7C3FFB9460EE0B04678
:1014B00006E0504600F0FAFA08F101001FFA80F841
:1014C000A045F6DB09F101001FFA80F9A945EEDB22
:1014D000BDE8F08700B587B000BF00200190464806
:1014E000006840F04000444908600846006800F089
:1014F0004000019000BF00BF00BF002001900846DF
:10150000006840F0080008600846006800F0080025
:10151000019000BF00BF00BF002001900846006896
:1015200040F0080008600846006800F008000190DC
:1015300000BF00BF00BF002001900846006840F0D7
:10154000080008600846006800F00800019000BF2D
:1015500000BF00BF002001900846006840F008006E
:1015600008600846006800F00800019000BF00BF56
:1015700000BF002001900846006840F0100008609D
:101580000846006800F01000019000BF00BF8814FA
:101590000290012003900220059002A91748FEF74F
:1015A000C3FF20200290012003900220059002A991
:1015B0001348FEF7B9FF102002900120039002208B
:1015C000059002A90E48FEF7AFFF4FF400400290CD
:1015D000012003900220059002A90948FEF7A4FF0C
:1015E00002200290012003900220059002A90448E5
:1015F000FEF79AFF07B000BD3038024000180240E5
:10160000000C024010B5FFF765FF01221021804851
:10161000FFF784F81420FEF773FF002210217C48A6
:10162000FFF77CF81420FEF76BFF012210217848A9
:10163000FFF774F87820FEF763FF01221102754866
:10164000FFF76CF8112000F059FA7820FEF758FFE8
:10165000B12000F053FA052000F03EFA3A2000F0E5
:101660003BFA3A2000F038FAB22000F047FA0520A1
:1016700000F032FA3A2000F02FFA3A2000F02CFA6B
:10168000B32000F03BFA052000F026FA3A2000F0E3
:1016900023FA3A2000F020FA052000F01DFA3A2043
:1016A00000F01AFA3A2000F017FAB42000F026FAF7
:1016B000032000F011FA022000F00EFAC02000F022
:1016C0001DFAA92000F008FA092000F005FA84208C
:1016D00000F002FAC12000F011FAC42000F0FCF979
:1016E000C22000F00BFA0D2000F0F6F9002000F007
:1016F000F3F9C32000F002FA8D2000F0EDF96A2022
:1017000000F0EAF9C42000F0F9F98D2000F0E4F9C6
:10171000EE2000F0E1F9C52000F0F0F9052000F01E
:10172000DBF9362000F0EAF9C82000F0D5F93A20BC
:1017300000F0E4F9052000F0CFF9E02000F0DEF938
:10174000072000F0C9F91E2000F0C6F90F2000F0B4
:10175000C3F9192000F0C0F93A2000F0BDF9342097
:1017600000F0BAF92C2000F0B7F92E2000F0B4F9FF
:101770002C2000F0B1F92A2000F0AEF9312000F061
:10178000ABF93A2000F0A8F9002000F0A5F90220FA
:1017900000F0A2F9012000F09FF9102000F09CF960
:1017A000E12000F0ABF9042000F096F91B2000F0D6
:1017B00093F90B2000F090F9132000F08DF9302000
:1017C00000F08AF92A2000F087F9252000F084F93A
:1017D0002A2000F081F9292000F07EF9272000F06E
:1017E0007BF9302000F078F93D2000F075F90020F9
:1017F00000F072F9012000F06FF9042000F06CF99C
:10180000102000F069F9292000F078F910BD0000DF
:10181000000C02400010024070B504460D462B46F5
:10182000224629462046FFF703FE70BD2DE9FF5FE3
:1018300080468A4617469B460F9D00200290CDF8B1
:101840000080284605EBD071C1F347042046E2171B
:1018500004EB5272D2102146E31704EB5373DB10F2
:10186000A4EBC3030BB1012300E000231A446A4335
:1018700092B20192A7F12000C7B20AEB0500401E08
:1018800083B208EB0400401E82B251464046FFF787
:10189000CFFD002669E00C2D07D107EB4700354945
:1018A00001EB8000805D03901BE0102D05D13248D4
:1018B00000EB0710805D039013E0182D07D107EBB4
:1018C00047002E4901EB0010805D039009E0202DB8
:1018D00005D12B4800EB8710805D039001E0BDE847
:1018E000FF9F4FF000093AE01098C8B9012000FAB4
:1018F00009F00399084018B1584600F0D7F802E003
:101900000E9800F0D3F80298401CC0B202900298E2
:1019100090FBF4F104FB1100E8B90020029021E0F3
:10192000012000FA09F00399084020B15A465146B7
:101930004046FFF79EFD08F101001FFA80F800986D
:10194000A8EB0000A04206D1DDF800800AF10100FA
:101950001FFA80FA06E009F1010000F0FF09B9F171
:10196000080FC1DB00BF701C86B20198864292DB73
:1019700000BFB4E7E6D000085AD500084ADB0008EB
:101980001AED00082DE9FC5F0746884615461E46FD
:10199000DDF83090002408EB0600401E83B2781971
:1019A000401E82B241463846FFF742FDA2461CE087
:1019B0004FF0000B13E019F814200192012000EB06
:1019C000440019F800100091DDE9001241EA0220FC
:1019D00000F06CF8641C0BF101001FFA80FBAB45B2
:1019E000E9DB0AF101001FFA80FAB245E0DBBDE84D
:1019F000FC9F2DE9FE4F05460F4614469846DDE94B
:101A00000D6ADDF8309017E07F2D01DC7F2F01DDBE
:101A1000BDE8FE8FF0B2CDE9010ACDF80090227842
:101A2000434639462846FFF701FF304606EBD071A2
:101A300005EB61018DB2641C20787E2802DC2078E1
:101A40002028E1DA00BFE3E770B504460022022156
:101A50001448FEF763FE00251CE000224FF480517D
:101A60001148FEF75BFE04F0800028B1012220211E
:101A70000C48FEF753FE04E0002220210948FEF73F
:101A80004DFE012211030848FEF748FE6006040ED1
:101A9000681CC5B2082DE0DB012202210148FEF7D7
:101AA0003DFE70BD000C02400018024010B5044617
:101AB0000122D1030748FEF731FE2012FFF7C4FFD1
:101AC000E0B2FFF7C1FF0122D1030248FEF726FE74
:101AD00010BD0000000C024010B504460122D103E5
:101AE0000548FEF71BFE2046FFF7AEFF0122D1039B
:101AF0000148FEF713FE10BD000C024010B504466D
:101B000000224FF400410648FEF708FE2046FFF78A
:101B10009BFF0122D1030248FEF700FE10BD00002A
:101B2000000C024008B500BF002000900E4800687D
:101B300040F080000C4908600846006800F0800012
:101B4000009000BF00BF00BF002000900846006862
:101B500040F0010008600846006800F001000090B5
:101B600000BF00BF08BD00003038024010B50B4870
:101B70000B4908604FF4E13048600021084881605B
:101B8000C16001610C21416100218161C161FFF7E8
:101B9000C5FB08B1FEF746FC10BD00000010014077
:101BA0001000002000BFFEE700BFFEE7704770474F
:101BB00010B5FEF7BFFD10BD00B593B0302107A8EA
:101BC000FEF7C9FB142102A8FEF7C5FB00BF0020E9
:101BD00001902448006840F080502249086008467F
:101BE000006800F08050019000BF00BF00BF0020DF
:101BF00001901D48006840F480401B490860084679
:101C0000006800F48040019000BF00BF01200790F1
:101C10000004089002200D9041050E9104210F91BF
:101C2000A8211091022111910421129107A8FEF719
:101C30009BFF08B1FEF7F6FB0F20029002200390F5
:101C4000002004904FF4A05005904FF4805006906F
:101C5000052102A8FEF748FE08B1FEF7E3FB13B02A
:101C600000BD00004038024000700040034800689A
:101C700040F47000014908607047000088ED00E002
:101C800070B50546AC6B0020E085E0842046FFF788
:101C9000D4F970BD00BF00BF02680C3252E8002FBB
:101CA00022F4907102680C3242E80013002BF3D149
:101CB00000BF00BF00BF0268143252E8002F22F0BC
:101CC00001010268143242E80013002BF3D100BF77
:101CD000016B01290ED100BF00BF02680C3252E82F
:101CE000002F22F0100102680C3242E80013002B92
:101CF000F3D100BF202180F83E100021016370471E
:101D000010B504462068C06820F040002168C86013
:101D1000202084F83D002046FFF787FB002010BDFF
:101D2000F8B5044694F83E00222873D1A068B0F5B7
:101D3000805F0CD1206950B90025A66A20684068F0
:101D4000C0F308003080A06A801CA06215E0A56A7C
:101D50000026A068B0F5805F03D0A06828B920698C
:101D600018B920684068287004E02068406800F0D6
:101D70007F002870A06A401CA062E08D401E80B2E7
:101D8000E085002844D12068C06820F02000216848
:101D9000C8602068C06820F480702168C86020682E
:101DA000406920F0010021684861202084F83E004D
:101DB000206B012826D10020206300BF00BF2168CE
:101DC0000C3151E8001F21F0100021680C3141E86E
:101DD0000002002AF3D100BF2068006800F0100064
:101DE00010280AD100BF00200090206800680090F1
:101DF00020684068009000BF00BFA18D2046FFF71B
:101E00001BF902E02046FFF70FFB0020F8BD01E0C0
:101E10000020FBE70220F9E72DE9F84F044620688F
:101E2000006920F44050E168084321680861216995
:101E3000A068084361690843E1690843009020688D
:101E4000C06849F20C618843009908432168C86062
:101E50002068406920F44070A16908432168486106
:101E600076492068884203D075492068884203D1AA
:101E7000FEF712FE814602E0FEF7FEFD8146E069B4
:101E8000B0F5004F6CD102206168A0FB0150034601
:101E90001920A9FB007001462A463846FEF7E4F9EE
:101EA0006421B0FBF1F04FEA001A02206168A0FB48
:101EB00001510B461920A9FB00712A463846FEF74E
:101EC000D3F9834602206168A0FB01500346192024
:101ED000A9FB00712A463846FEF7C6F96421B0FB1B
:101EE000F1F000EBC00101EB0010ABEB8000322100
:101EF00001EBC0006421B0FBF1F000F0F8000AEB48
:101F0000400A02206168A0FB015003461920A9FB8A
:101F1000007001462A463846FEF7A6F9834602209D
:101F20006168A0FB015003461920A9FB00712A46F5
:101F30003846FEF799F96421B0FBF1F000EBC001DF
:101F400001EB0010ABEB8000322101EBC0006421FB
:101F5000B0FBF1F000F007005044216888606AE0AF
:101F600004206168A0FB015003461920A9FB007002
:101F700001462A463846FEF777F982460420616812
:101F8000A0FB015003461920A9FB007001462A4618
:101F90003846FEF769F96421B0FBF1F000EBC001AF
:101FA00001EB0010AAEB8000322101EB001064214C
:101FB000B0FBF1F000F0F00A04206168A0FB0170B2
:101FC00003461920A9FB00513A462846FEF74CF972
:101FD0006421B0FBF1F00AEB001A04206168A0FB59
:101FE00001510B461920A9FB00712A463846FEF71D
:101FF0003BF9834604206168A0FB01500346192089
:10200000A9FB007001462A463846FEF72DF96421E7
:10201000B0FBF1F000EBC00101EB0010ABEB800076
:10202000322101EB00106421B0FBF1F000F00F0051
:10203000504421688860BDE8F88F0000001001401E
:1020400000140140014691F83D00212828D18868FC
:10205000B0F5805F0BD1086948B90A6A1088C0F3EF
:1020600008000B685860086A801C086205E00B6A6B
:10207000581C086218780B685860C88C401E80B2E3
:10208000C88458B90868C06820F080000B68D86020
:102090000868C06840F040000B68D86000207047B6
:1020A0000220FCE710B50248FEF7C8FF10BD000093
:1020B0001000002000BFFEE702480068C0F30220C5
:1020C000704700000CED00E010B5002804DB0A07A3
:1020D000130E054A135406E00A07140E034A00F0D3
:1020E0000F031B1FD45410BD00E400E018ED00E006
:1020F0000EB5FEF72BFBFFF75FFDFFF713FDFFF7B4
:1021000035FDFFF77FFAB7E04FF6FF7080231A46E0
:10211000002100900846FFF7B8F958483823692293
:10212000002100900B20FFF72DFC00200C214FF622
:10213000FF724FF47843CDE90021029050A246216E
:102140000A20FFF756FC00200C214FF6FF724FF4D7
:102150007843CDE9002102904EA25A210720FFF7D3
:1021600048FC00200C214FF6FF724FF47843CDE974
:10217000002102904CA26E211020FFF73AFC4FF490
:102180007A70FEF7BDF94FF6FF7080231A460021E2
:1021900000900846FFF779F94FF478408023202219
:1021A000002100900846FFF770F94FF4FC6080238F
:1021B0004022002100902020FFF767F91F20802394
:1021C0006022002100904020FFF75FF94FF6E07099
:1021D00080231A46002100906020FFF756F94FF443
:1021E0007A70FEF78DF94FF4784040231A460021AB
:1021F00000900846FFF749F94FF4FC604023802225
:10220000002100901846FFF740F91F20802340224C
:10221000114600900020FFF738F94FF6FF70802339
:102220001A46402100900846FFF72FF94FF47A70C4
:10223000FEF766F94FF6FF7080231A4600210090E2
:102240000846FFF722F91D4880231A460021009016
:102250000846FFF797FB01200C214FF6FF72002381
:10226000CDE90021029016A26E210D20FFF7C1FBDF
:102270004FF47A70FEF744F946E70000DE220008CA
:10228000312E3434205446545F4C4344205445533B
:10229000540000005245534F4C5554494F4E3A316B
:1022A000323878313238000044524956455220497C
:1022B000433A53543737333500000000CE500008FE
:1022C000636F6C6F72206465707468203136626968
:1022D000740000004FF04070E1EE100A7047FFFFFD
:1022E000FFFFFFFFFFFFFFFFFFFFFFFFFFFFFFFFFE
:1022F000FFFFFFFFFFFFFFFFFFFFFFFFFFFFFFFFEE
:10230000FFFFFFFFFFFFFFFFFFFFFFFFFFFFFFFFDD
:10231000FFFFFFFFFFFFFFFFFFFFFFFFEFFF96BF86
:1023200013D70C7A047A047A0459047A047A043BA9
:10233000043B043A043A045A045A045A045A043A2C
:10234000043A043A043A043A043A043A04190419DF
:10235000041903D83437EFFFFFFFFFFFE7FF12F444
:102360000BD903F803F803D903B90BB913149E3C36
:10237000F7FFFFFFFFFFFFDFFFDFFFFFFFFFFFFFB5
:10238000FFFFFFFFFFFFFFFFFFFFFFFFFFFFFFFF5D
:10239000FFFFFFFFFFFFFFFFFFFFFFFFFFFFFFFF4D
:1023A000FFFFFFFFFFFFFFFFFFFFFFFFFFFFFFFF3D
:1023B000FFFFFFFFFFFFFFFFFFFFFFFFFFFFFFFF2D
:1023C000FFFFFFFFFFFFFFFFFFFFFFFFFFFFFFFF1D
:1023D000FFFFFFFFFFFFFFFFFFFFFFFFFFFFFFFF0D
:1023E000FFFFFFFFFFFFFFFFFFFFFFFFFFFFEFFF0D
:1023F000969F13D7047A047A047A045A047A045A0A
:10240000043B043B043A043904390439043A043ADD
:1024100004190419041904190419041903F903F916
:10242000041903F803B72C17EFFFFFFFFFFFE7FFC7
:102430000AD303B903D803D703B803990B980AF456
:10244000963CF7FFFFFFFFFFFFFFFFFFFFFFFFFFD0
:10245000FFFFFFFFFFFFFFFFFFFFFFFFFFFFFFFF8C
:10246000FFFFFFFFFFFFFFFFFFFFFFFFFFFFFFFF7C
:10247000FFFFFFFFFFFFFFFFFFFFFFFFFFFFFFFF6C
:10248000FFFFFFFFFFFFFFFFFFFFFFFFFFFFFFFF5C
:10249000FFFFFFFFFFFFFFFFFFFFFFFFFFFFFFFF4C
:1024A000FFFFFFFFFFFFFFFFFFFFFFFFFFFFFFFF3C
:1024B000FFFFFFFFFFFFFFFFFFFFFFFFFFFFFFFF2C
:1024C000EFFF969F13D7045A047B045B045A045A07
:1024D000045A045B043B043A0439043904390419EE
:1024E0000439041904180418041903F903F903F949
:1024F00003F903F903F903B82C17E7FFFFFFFFFF08
:10250000E7FF0AD40BB903B803B803B803990399DA
:102510000AF4961CF7FFF7FFFFFFFFFFFFFFFFFF27
:10252000FFFFFFFFFFFFFFFFFFFFFFFFFFFFFFFFBB
:10253000FFFFFFFFFFFFFFFFFFFFFFFFFFFFFFFFAB
:10254000FFFFFFFFFFFFFFFFFFFFFFFFFFFFFFFF9B
:10255000FFFFFFFFFFFFFFFFFFFFFFFFFFFFFFFF8B
:10256000FFFFFFFFFFFFFFFFFFFFFFFFFFFFFFFF7B
:10257000FFFFFFFFFFFFFFFFFFFFFFFFFFFFFFFF6B
:10258000FFFFFFFFFFFFFFFFFFFFFFFFFFFFFFFF5B
:10259000FFFFEFFF969F13B6045A045B045B045BD6
:1025A000045A045A045B045A043A043904390419DD
:1025B000041904190419041904190419041903F954
:1025C00003F903F903F903F903B82C37E7FFFFFF19
:1025D000FFFFEFFF0AD40B9903B803B803B80399C0
:1025E00003990AF4961BF7FFFFFFFFFFFFFFFFFFB2
:1025F000FFFFFFFFFFFFFFFFFFFFFFFFFFFFFFFFEB
:10260000FFFFFFFFFFFFFFFFFFFFFFFFFFFFFFFFDA
:10261000FFFFFFFFFFFFFFFFFFFFFFFFFFFFFFFFCA
:10262000FFFFFFFFFFFFFFFFFFFFFFFFFFFFFFFFBA
:10263000FFFFFFFFFFFFFFFFFFFFFFFFFFFFFFFFAA
:10264000FFFFFFFFFFFFFFFFFFFFFFFFFFFFFFFF9A
:10265000FFFFFFFFFFFFFFFFFFFFFFFFFFFFFFFF8A
:10266000FFFFFFFFEFFF96BF13B60C39045A043B80
:10267000045A045A045A045A043A0439043904190D
:1026800004190419041A041A041A041A041903F97F
:1026900003F903F803F803F803F803B82C17E7FF6E
:1026A000FFFFFFFFEFFF0AD30B98039703B703B7B2
:1026B00003B803980AF49E1BF7FFFFFFFFFFFFFF1D
:1026C000FFFFFFFFFFFFFFFFFFFFFFFFFFFFFFFF1A
:1026D000FFFFFFFFFFFFFFFFFFFFFFFFFFFFFFFF0A
:1026E000FFFFFFFFFFFFFFFFFFFFFFFFFFFFFFFFFA
:1026F000FFFFFFFFFFFFFFFFFFFFFFFFFFFFFFFFEA
:10270000FFFFFFFFFFFFFFFFFFFFFFFFFFFFFFFFD9
:10271000FFFFFFFFFFFFFFFFFFFFFFFFFFFFFFFFC9
:10272000FFFFFFFFFFFFFFFFFFFFFFFFFFFFFFFFB9
:10273000FFFFFFFFFFFFEFFF96BF1BB51439043A01
:10274000043A043A045A045A045A043A043904393B
:10275000043A041A041A041A041A041A041A041A69
:10276000041A03F903F903F803F803F803B82C1764
:10277000E7FFFFFFFFFFEFFF0AD30B98039803B7B4
:1027800003B703B803980AF49DFBFFFFFFFFFFFFA9
:10279000FFFFFFFFFFFFFFFFFFFFFFFFFFFFFFFF49
:1027A000FFFFFFFFFFFFFFFFFFFFFFFFFFFFFFFF39
:1027B000FFFFFFFFFFFFFFFFFFFFFFFFFFFFFFFF29
:1027C000FFFFFFFFFFFFFFFFFFFFFFFFFFFFFFFF19
:1027D000FFFFFFFFFFFFFFFFFFFFFFFFFFFFFFFF09
:1027E000FFFFFFFFFFFFFFFFFFFFFFFFFFFFFFFFF9
:1027F000FFFFFFFFFFFFFFFFFFFFFFFFFFFFFFFFE9
:10280000FFFFFFFFFFFFFFFFEFFF969F13B60C399F
:10281000043A043A043A045A043A043A043A0419C9
:102820000419041A041A03FA03FA03F903F903F961
:1028300003F903FA03F903F903F803F803D803B71C
:102840002C17E7FFFFFFFFFFE7FF0AB303780378CA
:1028500003980398039803780AD49DFBF7FFFFFFC2
:10286000FFFFFFFFFFFFFFFFFFFFFFFFFFFFFFFF78
:10287000FFFFFFFFFFFFFFFFFFFFFFFFFFFFFFFF68
:10288000FFFFFFFFFFFFFFFFFFFFFFFFFFFFFFFF58
:10289000FFFFFFFFFFFFFFFFFFFFFFFFFFFFFFFF48
:1028A000FFFFFFFFFFFFFFFFFFFFFFFFFFFFFFFF38
:1028B000FFFFFFFFFFFFFFFFFFFFFFFFFFFFFFFF28
:1028C000FFFFFFFFFFFFFFFFFFFFFFFFFFFFFFFF18
:1028D000FFFFFFFFFFFFFFFFFFFFEFFF969F13B616
:1028E0000C39043A043A043A045A0439041903F836
:1028F0000BD70BB60BB60BB70BB70B960B95139507
:102900000BB603D803F903F903F903F803D803D886
:1029100003972BF6E7FFFFFFFFFFE7FF0A700B357A
:102920000B350B350B350B350B150A919DDAF7FF7F
:10293000FFFFFFFFFFFFFFFFFFFFFFFFFFFFFFFFA7
:10294000FFFFFFFFFFFFFFFFFFFFFFFFFFFFFFFF97
:10295000FFFFFFFFFFFFFFFFFFFFFFFFFFFFFFFF87
:10296000FFFFFFFFFFFFFFFFFFFFFFFFFFFFFFFF77
:10297000FFFFFFFFFFFFFFFFFFFFFFFFFFFFFFFF67
:10298000FFFFFFFFFFFFFFFFFFFFFFFFFFFFFFFF57
:10299000FFFFFFFFFFFFFFFFFFFFFFFFFFFFFFFF47
:1029A000FFFFFFFFFFFFFFFFFFFFFFFFEFFF96BFF0
:1029B0000B960C590439043A04390439041813D716
:1029C0004D5B655A6539651865186539651965186F
:1029D00065395D5B1BD603D703D803F903F903D828
:1029E00003D803972C16EFFFFFFFFFFFEFFF5C14E8
:1029F00064D864D864B76CB76CD864B85C35BE9CD6
:102A0000F7FFFFFFFFFFFFFFFFFFFFFFFFFFFFFFDE
:102A1000FFFFFFFFFFFFFFFFFFFFFFFFFFFFFFFFC6
:102A2000FFFFFFFFFFFFFFFFFFFFFFFFFFFFFFFFB6
:102A3000FFFFFFFFFFFFFFFFFFFFFFFFFFFFFFFFA6
:102A4000FFFFFFFFFFFFFFFFFFFFFFFFFFFFFFFF96
:102A5000FFFFFFFFFFFFFFFFFFFFFFFFFFFFFFFF86
:102A6000FFFFFFFFFFFFFFFFFFFFFFFFFFFFFFFF76
:102A7000FFFFFFFFFFFFFFFFFFFFFFFFFFFFEFFF76
:102A80008E5F13B60C390439045A043A04390C1811
:102A90000B33CFFFDFFFE7FFE7FFE7FFE7FFE7FFCE
:102AA000EFFFDFFFCFFF34570BB703F903F903B88C
:102AB00003D803B803972BF6EFFFFFFFFFFFFFFFDD
:102AC000EFFFEFFFEFFFEFFFF7FFF7FFEFFFEFFF86
:102AD000FFFFFFFFF7FFF7FFFFFFFFFFFFFFFFDF36
:102AE000FFFFFFFFFFFFFFFFFFFFFFFFFFFFFFFFF6
:102AF000FFFFFFFFFFFFFFFFFFFFFFFFFFFFFFFFE6
:102B0000FFFFFFFFFFFFFFFFFFFFFFFFFFFFFFFFD5
:102B1000FFFFFFFFFFFFFFFFFFFFFFFFFFFFFFFFC5
:102B2000FFFFFFFFFFFFFFFFFFFFFFFFFFFFFFFFB5
:102B3000FFFFFFFFFFFFFFFFFFFFFFFFFFFFFFFFA5
:102B4000FFFFFFFFFFFFFFFFFFFFFFFFFFFFFFFF95
:102B5000F7FF9E9F139604180459043A043A043A66
:102B60000C181353CFFFEFFFF7FFF7FFF7FFFFFF3F
:102B7000FFFFF7FFE7FFDFFF33F50B9603D803B83E
:102B800003F903B803B803972BF6EFFFFFFFFFFF2E
:102B9000FFFFFFFFF7FFF7FFF7FFFFFFF7FFEFFF75
:102BA000F7FFFFDFFFDFFFFFFFFFFFFFFFFFFFFF7D
:102BB000FFFFFFFFFFFFFFFFFFFFFFFFFFFFFFFF25
:102BC000FFFFFFFFFFFFFFFFFFFFFFFFFFFFFFFF15
:102BD000FFFFFFFFFFFFFFFFFFFFFFFFFFFFFFFF05
:102BE000FFFFFFFFFFFFFFFFFFFFFFFFFFFFFFFFF5
:102BF000FFFFFFFFFFFFFFFFFFFFFFFFFFFFFFFFE5
:102C0000FFFFFFFFFFFFFFFFFFFFFFFFFFFFFFFFD4
:102C1000FFFFFFFFFFFFFFFFFFFFFFFFFFFFFFFFC4
:102C2000FFFFF7FF967F13750C5904590419041A16
:102C3000043A0BF81B33D7FFF7FFFFFFFFFFFFFF3F
:102C4000FFFFFFFFFFFFF7FFD7FF33F50BB603F9D9
:102C500003D803D803B803B803772BF6EFFFFFFFC1
:102C6000FFFFF7FFEFFFEFFFEFFFEFFFEFFFEFFFDC
:102C7000EFFFEFFFFFFFFFFFFFFFFFFFFFFFFFFF84
:102C8000FFFFFFFFFFFFFFFFFFFFFFFFFFFFFFFF54
:102C9000FFFFFFFFFFFFFFFFFFFFFFFFFFFFFFFF44
:102CA000FFFFFFFFFFFFFFFFFFFFFFFFFFFFFFFF34
:102CB000FFFFFFFFFFFFFFFFFFFFFFFFFFFFFFFF24
:102CC000FFFFFFFFFFFFFFFFFFFFFFFFFFFFFFFF14
:102CD000FFFFFFFFFFFFFFFFFFFFFFFFFFFFFFFF04
:102CE000FFFFFFFFFFFFFFFFFFFFFFFFFFFFFFFFF4
:102CF000FFFFFFFFEFFF967F13760BF803D8041951
:102D000003F903B813F71AF2D7FFF7FFFFFFFFFF2E
:102D1000FFFFFFBFFFFFFFFFF7FFD7FF33F503966E
:102D200003D903D903D803B803B803772BF6EFFF11
:102D3000FFFFFFFFEFFF4BD4549954984C78547821
:102D4000547854994BF5B65BF7FFFFFFFFFFFFFE8A
:102D5000FFFFFFFFFFFFFFFFFFFFFFFFFFFFFFFF83
:102D6000FFFFFFFFFFFFFFFFFFFFFFFFFFFFFFFF73
:102D7000FFFFFFFFFFFFFFFFFFFFFFFFFFFFFFFF63
:102D8000FFFFFFFFFFFFFFFFFFFFFFFFFFFFFFFF53
:102D9000FFFFFFFFFFFFFFFFFFFFFFFFFFFFFFFF43
:102DA000FFFFFFFFFFFFFFFFFFFFFFFFFFFFFFFF33
:102DB000FFFFFFFFFFFFFFFFFFFFFFFFFFFFFFFF23
:102DC000FFFFFFFFFFFFF7FF9E7E2B942C37347829
:102DD0002C372C3734583C163331DFDFF7FFFFFF39
:102DE000FFFFFFFFFFFFFFFFFFFFEFFFD7FF33F501
:102DF0000BB703D803B803D803B803B803772BF68F
:102E0000EFFFFFFFFFFFE7FF0A5013350B150B35F0
:102E10000B150AF513150A719DDAF7FFF7FFFFFF8F
:102E2000FFFFFFFFFFFFFFFFFFFFFFFFFFFFFFFFB2
:102E3000FFFFFFFFFFFFFFFFFFFFFFFFFFFFFFFFA2
:102E4000FFFFFFFFFFFFFFFFFFFFFFFFFFFFFFFF92
:102E5000FFFFFFFFFFFFFFFFFFFFFFFFFFFFFFFF82
:102E6000FFFFFFFFFFFFFFFFFFFFFFFFFFFFFFFF72
:102E7000FFFFFFFFFFFFFFFFFFFFFFFFFFFFFFFF62
:102E8000FFFFFFFFFFFFFFFFFFFFFFFFFFFFFFFF52
:102E9000FFFFFFFFFFFFFFFFFFFFF7FFEFFFE7FF72
:102EA000E7FFEFFFEFFFE7FFE7FFF7FFFFFFFFFFA2
:102EB000FFFFFFFFFFFFFFFFFFDFFFFFFFFFDFFF62
:102EC00033B40B7503D803B803D803B8039803775A
:102ED0002BD7EFFFFFFFFFFFEFFF0A920B570B56B9
:102EE0000B56035603560B570AB29DDAF7FFFFFF46
:102EF000FFFFFFFFFFFFFFFFFFFFFFFFFFFFFFFFE2
:102F0000FFFFFFFFFFFFFFFFFFFFFFFFFFFFFFFFD1
:102F1000FFFFFFFFFFFFFFFFFFFFFFFFFFFFFFFFC1
:102F2000FFFFFFFFFFFFFFFFFFFFFFFFFFFFFFFFB1
:102F3000FFFFFFFFFFFFFFFFFFFFFFFFFFFFFFFFA1
:102F4000FFFFFFFFFFFFFFFFFFFFFFFFFFFFFFFF91
:102F5000FFFFFFFFFFFFFFFFFFFFFFFFFFFFFFFF81
:102F6000FFFFFFFFFFFFFFFFFFFFFFFFF7FFF7FF81
:102F7000EFFFEFFFEFFFEFFFEFFFEFFFEFFFEFFFE1
:102F8000EFFFF7FFEFFFF7FFEFFFF7FFF7FFEFFFB1
:102F9000D7FF34160B7603B803B803B803B803B8E9
:102FA00003772BD7EFFFFFFFFFFFEFFF0A920357D7
:102FB000037703560376037703370AB29DFBF7FFC7
:102FC000FFFFFFFFFFFFFFFFFFFFFFFFFFFFFFFF11
:102FD000FFFFFFFFFFFFFFFFFFFFFFFFFFFFFFFF01
:102FE000FFFFFFFFFFFFFFFFFFFFFFFFFFFFFFFFF1
:102FF000FFFFFFFFFFFFFFFFFFFFFFFFFFFFFFFFE1
:10300000FFFFFFFFFFFFFFFFFFFFFFFFFFFFFFFFD0
:10301000FFFFFFFFFFFFFFFFFFFFFFFFFFFFFFFFC0
:10302000FFFFFFFFFFFFFFFFFFFFFFFFFFFFFFFFB0
:10303000FFFFFFFFFFFFFFFFFFFFFFFFF7FFD79F30
:10304000965C96BE96BF969F96BF9EBF969E96BF75
:1030500096BF96BF969F9E9F9E9F969F969F9EBF50
:10306000969F86BF2417037703B803B80398039885
:10307000039803772BD6EFFFFFFFFFFFE7FF0A92CE
:103080000357037703760357035703370AB29DFBB1
:10309000F7FFFFFFFFFFFFFFFFFFFFFFFFFFFFFF48
:1030A000FFFFFFFFFFFFFFFFFFFFFFFFFFFFFFFF30
:1030B000FFFFFFFFFFFFFFFFFFFFFFFFFFFFFFFF20
:1030C000FFFFFFFFFFFFFFFFFFFFFFFFFFFFFFFF10
:1030D000FFFFFFFFFFFFFFFFFFFFFFFFFFFFFFFF00
:1030E000FFFFFFFFFFFFFFFFFFFFFFFFFFFFFFFFF0
:1030F000FFFFFFFFFFFFFFFFFFFFFFFFFFFFFFFFE0
:10310000FFFFFFFFFFFFFFFFFFFFFFFFFFFFF7FFD7
:103110009E7D23731BB51BF61BD61BD623D61BB572
:103120001BD51BB51BB61BB61BB61B961BB613B621
:103130001B9513B513D70BB703D903B903B803B85D
:103140000398039803772BD6EFFFFFFFFFFFE7FFFE
:103150000A920357037703760357035703370AB2DC
:1031600095FBF7FFFFFFFFFFFFFFFFFFFFFFFFFFE5
:10317000FFFFFFFFFFFFFFFFFFFFFFFFFFFFFFFF5F
:10318000FFFFFFFFFFFFFFFFFFFFFFFFFFFFFFFF4F
:10319000FFFFFFFFFFFFFFFFFFFFFFFFFFFFFFFF3F
:1031A000FFFFFFFFFFFFFFFFFFFFFFFFFFFFFFFF2F
:1031B000FFFFFFFFFFFFFFFFFFFFFFFFFFFFFFFF1F
:1031C000FFFFFFFFFFFFFFFFFFFFFFFFFFFFFFFF0F
:1031D000FFFFFFFFFFFFFFFFFFFFFFFFFFFFFFFFFF
:1031E000F7FF9E7E135313F70C180BF90BD80BD86F
:1031F0000BF70BD70BD70BD80BD80BB70BB70BB7FD
:103200000BB703960BD7037603B703B803B803B81D
:1032100003770398037703572BD6EFFFFFFFFFFFDA
:10322000E7FF0A9203570377035603570336033623
:103230000AB295FBF7FFFFFFFFFFFFFFFFFFFFFF56
:10324000FFFFFFFFFFFFFFFFFFFFFFFFFFFFFFFF8E
:10325000FFFFFFFFFFFFFFFFFFFFFFFFFFFFFFFF7E
:10326000FFFFFFFFFFFFFFFFFFFFFFFFFFFFFFFF6E
:10327000FFFFFFFFFFFFFFFFFFFFFFFFFFFFFFFF5E
:10328000FFFFFFFFFFFFFFFFFFFFFFFFFFFFFFFF4E
:10329000FFFFFFFFFFFFFFFFFFFFFFFFFFFFFFFF3E
:1032A000FFFFFFFFFFFFFFFFFFFFFFFFFFFFFFFF2E
:1032B000FFFFF7FF967E13750C1803F903FA03FA64
:1032C00003F903F803F803F803F903D903D803D883
:1032D00003B803B703B703B803B803970398039879
:1032E000039703B70397037703572BD6EFFFFFFF2F
:1032F000FFFFEFFF0A7103570357035603570336C7
:1033000003360A9295FBF7FFFFFFFFFFFFFFFFFF6A
:10331000FFFFFFFFFFFFFFFFFFFFFFFFFFFFFFFFBD
:10332000FFFFFFFFFFFFFFFFFFFFFFFFFFFFFFFFAD
:10333000FFFFFFFFFFFFFFFFFFFFFFFFFFFFFFFF9D
:10334000FFFFFFFFFFFFFFFFFFFFFFFFFFFFFFFF8D
:10335000FFFFFFFFFFFFFFFFFFFFFFFFFFFFFFFF7D
:10336000FFFFFFFFFFFFFFFFFFFFFFFFFFFFFFFF6D
:10337000FFFFFFFFFFFFFFFFFFFFFFFFFFFFFFFF5D
:10338000FFFFFFFFF7FF9EBF13750BF8041A03FA48
:1033900003FA041903D803F803F903F903D903D88E
:1033A00003D803D703B703B8039703B8039703D829
:1033B0000397037603970397039703572BD6EFFFE3
:1033C000FFFFFFFFEFFF0A71033703570356033771
:1033D000033603360A9295FBF7FFFFFFFFFFFFFF5F
:1033E000FFFFFFFFFFFFFFFFFFFFFFFFFFFFFFFFED
:1033F000FFFFFFFFFFFFFFFFFFFFFFFFFFFFFFFFDD
:10340000FFFFFFFFFFFFFFFFFFFFFFFFFFFFFFFFCC
:10341000FFFFFFFFFFFFFFFFFFFFFFFFFFFFFFFFBC
:10342000FFFFFFFFFFFFFFFFFFFFFFFFFFFFFFFFAC
:10343000FFFFFFFFFFFFFFFFFFFFFFFFFFFFFFFF9C
:10344000FFFFFFFFFFFFFFFFFFFFFFFFFFFFFFFF8C
:10345000FFFFFFFFFFFFF7FF8E5E137503F80419F0
:1034600003FA03D903F903F803F903F903F903D9BC
:1034700003D903D803B703B703B803D903B8039735
:10348000039703B7039703770397037703562BD666
:10349000EFFFFFFFFFFFEFFF0A71033703570356EC
:1034A00003370336033602929DFBF7FFFFFFFFFF52
:1034B000FFFFFFFFFFFFFFFFFFFFFFFFFFFFFFFF1C
:1034C000FFFFFFFFFFFFFFFFFFFFFFFFFFFFFFFF0C
:1034D000FFFFFFFFFFFFFFFFFFFFFFFFFFFFFFFFFC
:1034E000FFFFFFFFFFFFFFFFFFFFFFFFFFFFFFFFEC
:1034F000FFFFFFFFFFFFFFFFFFFFFFFFFFFFFFFFDC
:10350000FFFFFFFFFFFFFFFFFFFFFFFFFFFFFFFFCB
:10351000FFFFFFFFFFFFFFFFFFFFFFFFFFFFFFFFBB
:10352000FFFFFFFFFFFFFFFFF7FF967E13950BF8EE
:1035300003B803F903D903F803F803D803D903D96F
:1035400003D903D903D803B803B803B803B9039860
:1035500003B80398039703970398037803770356F8
:103560002BB6E7FFFFFFFFFFEFFF0A7103370336BC
:10357000035603370336031602929DFBF7FFFFFF46
:10358000FFFFFFFFFFFFFFFFFFFFFFFFFFFFFFFF4B
:10359000FFFFFFFFFFFFFFFFFFFFFFFFFFFFFFFF3B
:1035A000FFFFFFFFFFFFFFFFFFFFFFFFFFFFFFFF2B
:1035B000FFFFFFFFFFFFFFFFFFFFFFFFFFFFFFFF1B
:1035C000FFFFFFFFFFFFFFFFFFFFFFFFFFFFFFFF0B
:1035D000FFFFFFFFFFFFFFFFFFFFFFFFFFFFFFFFFB
:1035E000FFFFFFFFFFFFFFFFFFFFFFFFFFFFFFFFEB
:1035F000FFFFFFFFFFFFFFFFFFFFF7FF969F0B346B
:103600000BF803F903D903B8041903F803D803B876
:1036100003B703B703B803B703B7039703B8039817
:10362000039803770397039703760B760B770B5674
:103630000B3533B4EFFFFFFFFFFFEFFF0A510337F6
:10364000033603360336033603160A929DFBF7FF53
:10365000FFFFFFFFFFFFFFFFFFFFFFFFFFFFFFFF7A
:10366000FFFFFFFFFFFFFFFFFFFFFFFFFFFFFFFF6A
:10367000FFFFFFFFFFFFFFFFFFFFFFFFFFFFFFFF5A
:10368000FFFFFFFFFFFFFFFFFFFFFFFFFFFFFFFF4A
:10369000FFFFFFFFFFFFFFFFFFFFFFFFFFFFFFFF3A
:1036A000FFFFFFFFFFFFFFFFFFFFFFFFFFFFFFFF2A
:1036B000FFFFFFFFFFFFFFFFFFFFFFFFFFFFFFFF1A
:1036C000FFFFFFFFFFFFFFFFFFFFFFFFF7FF967FFB
:1036D0000B550BD803F803D803D803F803D803B766
:1036E0000B9613751355137513750B550B55133531
:1036F000133513350B350B350B340B340B340B34BE
:1037000013340AF22B52EFFFFFFFFFFFEFFF0A51C6
:103710000B3703360336033603160316029295DB86
:10372000F7FFFFFFFFFFFFFFFFFFFFFFFFFFFFFFB1
:10373000FFFFFFFFFFFFFFFFFFFFFFFFFFFFFFFF99
:10374000FFFFFFFFFFFFFFFFFFFFFFFFFFFFFFFF89
:10375000FFFFFFFFFFFFFFFFFFFFFFFFFFFFFFFF79
:10376000FFFFFFFFFFFFFFFFFFFFFFFFFFFFFFFF69
:10377000FFFFFFFFFFFFFFFFFFFFFFFFFFFFFFFF59
:10378000FFFFFFFFFFFFFFFFFFFFFFFFFFFFFFFF49
:10379000FFFFFFFFFFFFFFFFFFFFFFFFFFFFF7FF41
:1037A000967F0B550BD803F803D903D803F803D839
:1037B0000B55763F861E85FC85FD861D7DDD861DAD
:1037C00085FD85DD85FD85FD85FD7DFD7DFD7DFD21
:1037D0007DDC7DFC7DBB95FBF7FFFFFFFFFFEFFF6F
:1037E0000A51031703360336033603160316027213
:1037F0009DDBF7FFFFFFFFFFFFFFFFFFFFFFFFFF67
:10380000FFFFFFFFFFFFFFFFFFFFFFFFFFFFFFFFC8
:10381000FFFFFFFFFFFFFFFFFFFFFFFFFFFFFFFFB8
:10382000FFFFFFFFFFFFFFFFFFFFFFFFFFFFFFFFA8
:10383000FFFFFFFFFFFFFFFFFFFFFFFFFFFFFFFF98
:10384000FFFFFFFFFFFFFFFFFFFFFFFFFFFFFFFF88
:10385000FFFFFFFFFFFFFFFFFFFFFFFFFFFFFFFF78
:10386000FFFFFFFFFFFFFFFFFFFFFFFFFFFFFFFF68
:10387000F7FF967F13540BD803D903D903D903D884
:103880000BD70AF3CFFFEFFFF7FFF7FFEFFFEFFFD5
:10389000EFFFF7FFF7FFF7FFEFFFEFFFEFFFEFFFA0
:1038A000EFFFEFFFEFFFEFFFF7FFFFFFFFFFFFFF70
:1038B000E7FF0A510B1703360336031603160316E8
:1038C00002719DDBF7FFFFFFFFFFFFFFFFFFFFFF21
:1038D000FFFFFFFFFFFFFFFFFFFFFFFFFFFFFFFFF8
:1038E000FFFFFFFFFFFFFFFFFFFFFFFFFFFFFFFFE8
:1038F000FFFFFFFFFFFFFFFFFFFFFFFFFFFFFFFFD8
:10390000FFFFFFFFFFFFFFFFFFFFFFFFFFFFFFFFC7
:10391000FFFFFFFFFFFFFFFFFFFFFFFFFFFFFFFFB7
:10392000FFFFFFFFFFFFFFFFFFFFFFFFFFFFFFFFA7
:10393000FFFFFFFFFFFFFFFFFFFFFFFFFFFFFFFF97
:10394000FFFFF7FF967E0B540BD803D903D903D89A
:1039500003D80BB612F2D7FFF7FFFFFFFFFFFFFF01
:10396000FFFFFFDFFFFFFFFFFFFFFFFFFFFFFFFF87
:10397000FFFFFFFFFFFFFFFFFFFFFFFFFFFFFFFE58
:10398000FFFFE7FF0A510B17033603160316031652
:10399000031602719DDBF7FFFFFFFFFFFFFFFFFF35
:1039A000FFFFFFFFFFFFFFFFFFFFFFFFFFFFFFFF27
:1039B000FFFFFFFFFFFFFFFFFFFFFFFFFFFFFFFF17
:1039C000FFFFFFFFFFFFFFFFFFFFFFFFFFFFFFFF07
:1039D000FFFFFFFFFFFFFFFFFFFFFFFFFFFFFFFFF7
:1039E000FFFFFFFFFFFFFFFFFFFFFFFFFFFFFFFFE7
:1039F000FFFFFFFFFFFFFFFFFFFFFFFFFFFFFFFFD7
:103A0000FFFFFFFFFFFFFFFFFFFFFFFFFFFFFFFFC6
:103A1000FFFFFFFFF7FF967E0B5503D803D903D9AD
:103A200003D803D80BB612B1D7DFFFFFFFFFFFFFAC
:103A3000FFDEFFFFFFFFFFFFFFFFFFFFFFFFFFFFB7
:103A4000FFFFFFFFFFFFFFFFFFFFFFFFFFFFFFFF86
:103A5000FFFFFFFFEFFF02310B16033603160316BD
:103A600002F602F602719DDBF7FFFFFFFFFFFFFF8B
:103A7000FFFFFFFFFFFFFFFFFFFFFFFFFFFFFFFF56
:103A8000FFFFFFFFFFFFFFFFFFFFFFFFFFFFFFFF46
:103A9000FFFFFFFFFFFFFFFFFFFFFFFFFFFFFFFF36
:103AA000FFFFFFFFFFFFFFFFFFFFFFFFFFFFFFFF26
:103AB000FFFFFFFFFFFFFFFFFFFFFFFFFFFFFFFF16
:103AC000FFFFFFFFFFFFFFFFFFFFFFFFFFFFFFFF06
:103AD000FFFFFFFFFFFFFFFFFFFFFFFFFFFFFFFFF6
:103AE000FFFFFFFFFFFFF7FF967E0B5403B803D9DC
:103AF00003D903D803D80BB60AD2DFFFF7FFF7FFCD
:103B0000F7FFF7FFFFFFFFFFFFFFF7FFF7FFF7FFED
:103B1000F7FFF7FFFFFFF7FFF7FFF7FFFFFFFFFFDD
:103B2000FFFFFFFFF7FFE7FF023102F60316031660
:103B3000031602F602F502719DDBF7FFFFFFFFFFA0
:103B4000FFFFFFFFFFFFFFFFFFFFFFFFFFFFFFFF85
:103B5000FFFFFFFFFFFFFFFFFFFFFFFFFFFFFFFF75
:103B6000FFFFFFFFFFFFFFFFFFFFFFFFFFFFFFFF65
:103B7000FFFFFFFFFFFFFFFFFFFFFFFFFFFFFFFF55
:103B8000FFFFFFFFFFFFFFFFFFFFFFFFFFFFFFFF45
:103B9000FFFFFFFFFFFFFFFFFFFFFFFFFFFFFFFF35
:103BA000FFFFFFFFFFFFFFFFFFFFFFFFFFFFFFFF25
:103BB000FFFFFFFFFFFFFFFFF7FF967E133403B801
:103BC00003D903B803B703D703B70B14AF5FCFDF35
:103BD000D7BFCFBFCFBFCF9FCF9FD7BFD7BFCFBF9D
:103BE000CFBFD79FD79FD79FD79FCF9FCF7FD79F3D
:103BF000D79FCF9FCF9FD7BFC7BF027202F60316D2
:103C00000316031602F602F502719DDBF7FFFFFFB4
:103C1000FFFFFFFFFFFFFFFFFFFFFFFFFFFFFFFFB4
:103C2000FFFFFFFFFFFFFFFFFFFFFFFFFFFFFFFFA4
:103C3000FFFFFFFFFFFFFFFFFFFFFFFFFFFFFFFF94
:103C4000FFFFFFFFFFFFFFFFFFFFFFFFFFFFFFFF84
:103C5000FFFFFFFFFFFFFFFFFFFFFFFFFFFFFFFF74
:103C6000FFFFFFFFFFFFFFFFFFFFFFFFFFFFFFFF64
:103C7000FFFFFFFFFFFFFFFFFFFFFFFFFFFFFFFF54
:103C8000FFFFFFFFFFFFFFFFFFFFF7FF965E13340D
:103C90000BB703D803B803B803B703B70B762BF8F9
:103CA00033B633B533D533D533D53BB433B433B46E
:103CB00033B533B5339433943394339433953374A9
:103CC000339433733394337433742B7502B40B37DA
:103CD00002F6031602F602F502F502719DDBF7FF0C
:103CE000FFFFFFFFFFFFFFFFFFFFFFFFFFFFFFFFE4
:103CF000FFFFFFFFFFFFFFFFFFFFFFFFFFFFFFFFD4
:103D0000FFFFFFFFFFFFFFFFFFFFFFFFFFFFFFFFC3
:103D1000FFFFFFFFFFFFFFFFFFFFFFFFFFFFFFFFB3
:103D2000FFFFFFFFFFFFFFFFFFFFFFFFFFFFFFFFA3
:103D3000FFFFFFFFFFFFFFFFFFFFFFFFFFFFFFFF93
:103D4000FFFFFFFFFFFFFFFFFFFFFFFFFFFFFFFF83
:103D5000FFFFFFFFFFFFFFFFFFFFFFFFF7FF9E7E5D
:103D6000131403B703D903B9039803B70397039751
:103D700003770B570B560B56035503550B550B5535
:103D80000B550B350B350B350B3403150B150B147D
:103D90000B140AF40AF40AF402F40AF402F402F529
:103DA00002F502F602F502F602D502D502509DDABE
:103DB000F7FFFFFFFFFFFFFFFFFFFFFFFFFFFFFF1B
:103DC000FFFFFFFFFFFFFFFFFFFFFFFFFFFFFFFF03
:103DD000FFFFFFFFFFFFFFFFFFFFFFFFFFFFFFFFF3
:103DE000FFFFFFFFFFFFFFFFFFFFFFFFFFFFFFFFE3
:103DF000FFFFFFFFFFFFFFFFFFFFFFFFFFFFFFFFD3
:103E0000FFFFFFFFFFFFFFFFFFFFFFFFFFFFFFFFC2
:103E1000FFFFFFFFFFFFFFFFFFFFFFFFFFFFFFFFB2
:103E2000FFFFFFFFFFFFFFFFFFFFFFFFFFFFF7FFAA
:103E3000963D131403B703B8039903B903B8039766
:103E400003B803980378037803970377037703771E
:103E50000377037703570357035703560356033675
:103E600003360336033603360336031603160316EA
:103E700003150315031602F602F602D60AD50A50F8
:103E80009DDAF7FFFFFFFFFFFFFFFFFFFFFFFFFFD1
:103E9000FFFFFFFFFFFFFFFFFFFFFFFFFFFFFFFF32
:103EA000FFFFFFFFFFFFFFFFFFFFFFFFFFFFFFFF22
:103EB000FFFFFFFFFFFFFFFFFFFFFFFFFFFFFFFF12
:103EC000FFFFFFFFFFFFFFFFFFFFFFFFFFFFFFFF02
:103ED000FFFFFFFFFFFFFFFFFFFFFFFFFFFFFFFFF2
:103EE000FFFFFFFFFFFFFFFFFFFFFFFFFFFFFFFFE2
:103EF000FFFFFFFFFFFFFFFFFFFFFFFFFFFFFFFFD2
:103F0000F7FF9E7E1334039703B803B903B80397F2
:103F100003B703970398037803780377037603774F
:103F200003770377035603560356035603560336A7
:103F3000033603360336033603160316031503163A
:103F4000031502F5031502F602F602F602D602D5B3
:103F500002309DBAF7FFFFFFFFFFFFFFFFFFFFFFEC
:103F6000FFFFFFFFFFFFFFFFFFFFFFFFFFFFFFFF61
:103F7000FFFFFFFFFFFFFFFFFFFFFFFFFFFFFFFF51
:103F8000FFFFFFFFFFFFFFFFFFFFFFFFFFFFFFFF41
:103F9000FFFFFFFFFFFFFFFFFFFFFFFFFFFFFFFF31
:103FA000FFFFFFFFFFFFFFFFFFFFFFFFFFFFFFFF21
:103FB000FFFFFFFFFFFFFFFFFFFFFFFFFFFFFFFF11
:103FC000FFFFFFFFFFFFFFFFFFFFFFFFFFFFFFFF01
:103FD000FFFFF7FF9E7E0AF3037603B803B803786A
:103FE00003770397039703980378037703770376A0
:103FF00003770377035703560357035603560336D5
:104000000336033603360336031603160316031668
:1040100002F5031503150315031602F602F602D680
:1040200002D502509DBAFFFFFFFFFFFFFFFFFFFF1A
:10403000FFFFFFFFFFFFFFFFFFFFFFFFFFFFFFFF90
:10404000FFFFFFFFFFFFFFFFFFFFFFFFFFFFFFFF80
:10405000FFFFFFFFFFFFFFFFFFFFFFFFFFFFFFFF70
:10406000FFFFFFFFFFFFFFFFFFFFFFFFFFFFFFFF60
:10407000FFFFFFFFFFFFFFFFFFFFFFFFFFFFFFFF50
:10408000FFFFFFFFFFFFFFFFFFFFFFFFFFFFFFFF40
:10409000FFFFFFFFFFFFFFFFFFFFFFFFFFFFFFFF30
:1040A000FFFFFFFFF7FF963E0AF30B9703D9039834
:1040B000039803B80397039703980378035703778C
:1040C0000377037703570357035703570356033701
:1040D0000356033603360336033603160316031658
:1040E0000316031602F503150314031502F502F671
:1040F00002F502D502509DDBF7FFFFFFFFFFFFFF38
:10410000FFFFFFFFFFFFFFFFFFFFFFFFFFFFFFFFBF
:10411000FFFFFFFFFFFFFFFFFFFFFFFFFFFFFFFFAF
:10412000FFFFFFFFFFFFFFFFFFFFFFFFFFFFFFFF9F
:10413000FFFFFFFFFFFFFFFFFFFFFFFFFFFFFFFF8F
:10414000FFFFFFFFFFFFFFFFFFFFFFFFFFFFFFFF7F
:10415000FFFFFFFFFFFFFFFFFFFFFFFFFFFFFFFF6F
:10416000FFFFFFFFFFFFFFFFFFFFFFFFFFFFFFFF5F
:10417000FFFFFFFFFFFFF7FF9E5F12F30B76039732
:1041800003770B770B770376037703770B570B5681
:104190000B560B560B560B560B560336033603368F
:1041A00003360336033603160316031603160315E8
:1041B00002F502F502F502F502F402F402F402D56A
:1041C00002D502D40AB30A2F9599F7FFFFFFFFFF2C
:1041D000FFFFFFFFFFFFFFFFFFFFFFFFFFFFFFFFEF
:1041E000FFFFFFFFFFFFFFFFFFFFFFFFFFFFFFFFDF
:1041F000FFFFFFFFFFFFFFFFFFFFFFFFFFFFFFFFCF
:10420000FFFFFFFFFFFFFFFFFFFFFFFFFFFFFFFFBE
:10421000FFFFFFFFFFFFFFFFFFFFFFFFFFFFFFFFAE
:10422000FFFFFFFFFFFFFFFFFFFFFFFFFFFFFFFF9E
:10423000FFFFFFFFFFFFFFFFFFFFFFFFFFFFFFFF8E
:10424000FFFFFFFFFFFFFFFFF7FF95FC12B20B140C
:104250000B150B350B150B140B140B140B140AF464
:104260000AF40AF30AF30AF30AD40AD30AD30AD3E4
:104270000AD30AB30AB30AB30AB30AB30A930A9376
:104280000A920A930A920A720A720A7202720272FD
:10429000025202720A520A5109CD9D99F7FFFFFF9F
:1042A000FFFFFFFFFFFFFFFFFFFFFFFFFFFFFFFF1E
:1042B000FFFFFFFFFFFFFFFFFFFFFFFFFFFFFFFF0E
:1042C000FFFFFFFFFFFFFFFFFFFFFFFFFFFFFFFFFE
:1042D000FFFFFFFFFFFFFFFFFFFFFFFFFFFFFFFFEE
:1042E000FFFFFFFFFFFFFFFFFFFFFFFFFFFFFFFFDE
:1042F000FFFFFFFFFFFFFFFFFFFFFFFFFFFFFFFFCE
:10430000FFFFFFFFFFFFFFFFFFFFFFFFFFFFFFFFBD
:10431000FFFFFFFFFFFFFFFFFFFFFFFFC6DE64970A
:104320006D5A651A651A6D3A64F96D3A651A6D1A17
:104330006D1A6D1965196D196D196CF96CF96CF9B7
:104340006CFA6CF96CF96CF964D964D96CD96CD9D4
:104350006CD96CD96CD96CD96CB96CB96CB96CB9B5
:104360006CB964B96CB96CB96C986415BE3BFFFF4D
:10437000FFDFFFDFFFFFFFFFFFFFFFFFFFFFFFFF8D
:10438000FFFFFFFFFFFFFFFFFFFFFFFFFFFFFFFF3D
:10439000FFFFFFFFFFFFFFFFFFFFFFFFFFFFFFFF2D
:1043A000FFFFFFFFFFFFFFFFFFFFFFFFFFFFFFFF1D
:1043B000FFFFFFFFFFFFFFFFFFFFFFFFFFFFFFFF0D
:1043C000FFFFFFFFFFFFFFFFFFFFFFFFFFFFFFFFFD
:1043D000FFFFFFFFFFFFFFFFFFFFFFFFFFFFFFFFED
:1043E000FFFFFFFFFFFFFFFFFFFFFFFFFFFFFFFFDD
:1043F000F7FFEFFFEFFFEFFFEFFFEFFFEFFFEFFF45
:10440000EFFFEFFFEFFFF7FFF7FFF7FFF7FFEFFF1C
:10441000EFFFF7FFF7FFEFFFEFFFF7FFF7FFF7FF04
:10442000F7FFF7FFEFFFF7FFF7FFF7FFF7FFF7FFE4
:10443000FFFFF7FFF7FFF7FFF7FFF7FFF7FFFFFFBC
:10444000FFFFFFFFFFFFFFFFFFFFFFFFFFFFFFFF7C
:10445000FFFFFFFFFFFFFFFFFFFFFFFFFFFFFFFF6C
:10446000FFFFFFFFFFFFFFFFFFFFFFFFFFFFFFFF5C
:10447000FFFFFFFFFFFFFFFFFFFFFFFFFFFFFFFF4C
:10448000FFFFFFFFFFFFFFFFFFFFFFFFFFFFFFFF3C
:10449000FFFFFFFFFFFFFFFFFFFFFFFFFFFFFFFF2C
:1044A000FFFFFFFFFFFFFFFFFFFFFFFFFFFFFFFF1C
:1044B000FFFFFFFFFFFFFFFFFFFFFFFFFFFFFFFF0C
:1044C000FFFFFFFFFFFFFFFFFFFFFFFFFFFFFFFFFC
:1044D000FFFFFFFFFFFFFFFFFFFFFFFFFFFFFFFFEC
:1044E000FFFFFFFFFFFFFFFFFFFFFFFFFFFFFFFFDC
:1044F000FFFFFFFFFFFFFFFFFFFFFFFFFFFFFFFFCC
:10450000FFDFFFFFFFFFFFFFFFFFFFFFFFFFFFFFDB
:10451000FFFFFFFFFFFFFFFFFFFFFFFFFFFFFFFFAB
:10452000FFFFFFFFFFFFFFFFFFFFFFFFFFFFFFFF9B
:10453000FFFFFFFFFFFFFFFFFFFFFFFFFFFFFFFF8B
:10454000FFFFFFFFFFFFFFFFFFFFFFFFFFFFFFFF7B
:10455000FFFFFFFFFFFFFFFFFFFFFFFFFFFFFFFF6B
:10456000FFFFFFFFFFFFFFFFFFFFFFFFFFFFFFFF5B
:10457000FFFFFFFFFFFFFFFFFFFFFFFFFFFFFFFF4B
:10458000FFFFFFFFFFFFFFFFFFFFFFFFFFFFFFFF3B
:10459000FFFFFFFFFFFFFFFFFFFFFFFFFFFFFFFF2B
:1045A000FFFFFFFFFFFFFFFFFFFFFFFFFFFFFFFF1B
:1045B000FFFFFFFFFFFFFFFFFFFFFFFFFFFFFFFF0B
:1045C000FFFFFFFFFFFFFFFFFFFFFFFFFFFFFFFFFB
:1045D000FFFFFFFFFFFFFFFFFFFFFFFFFFFFFFFFEB
:1045E000FFFFFFFFFFFFFFFFFFFFFFFFFFFFFFFFDB
:1045F000FFFFFFFFFFFFFFFFFFFFFFFFFFFFFFFFCB
:10460000FFFFFFFFFFFFFFFFFFFFFFFFFFFFFFFFBA
:10461000FFFFFFFFFFFFFFFFFFFFFFFFFFFFFFFFAA
:10462000FFFFFFFFFFFFFFFFFFFFFFFFFFFFFFFF9A
:10463000FFFFFFFFFFFFFFFFFFFFFFFFFFFFFFFF8A
:10464000FFFFFFFFFFFFFFFFFFFFFFFFFFFFFFFF7A
:10465000FFFFFFFFFFFFFFFFFFFFFFFFFFFFFFFF6A
:10466000FFFFFFFFFFFFFFFFFFFFFFFFFFFFFFFF5A
:10467000FFFFFFFFFFFFFFFFFFFFFFFFFFFFFFFF4A
:10468000FFFFFFFFFFFFFFFFFFFFFFFFFFFFFFFF3A
:10469000FFFFFFFFFFFFFFFFFFFFFFFFFFFFFFFF2A
:1046A000FFFFFFFFFFFFFFFFFFFFFFFFFFFFFFFF1A
:1046B000FFFFFFFFFFFFFFFFFFFFFFFFFFFFFFFF0A
:1046C000FFFFFFFFFFFFFFFFFFFFFFFFFFFFFFFFFA
:1046D000FFFFFFFFFFFFFFFFFFFFFFFFFFFFFFFFEA
:1046E000FFFFFFFFFFFFFFFFFFDFFFFFFFFFFFFFFA
:1046F000FFFFFFFFFFFFFFFFFFFFFFFFFFFFFFFFCA
:10470000FFFFFFFFFFFFFFFFFFFFFFFFFFFFFFFFB9
:10471000FFFFFFFFFFFFFFFFFFFFFFFFFFFFFFFFA9
:10472000FFFFFFFFFFFFFFFFFFFFFFFFFFFFFFFF99
:10473000FFFFFFFFFFFFFFFFFFFFFFFFFFFFFFFF89
:10474000FFFFFFFFFFFFFFFFFFFFFFFFFFFFFFFF79
:10475000FFFFFFFFFFFFFFFFFFFFFFFFFFFFFFFF69
:10476000FFFFFFDFFFFFFFFFFFFFFFFFFFFFFFFF79
:10477000FFDFFFFFFFFFFFFFFFFFFFFFFFFFFFFF69
:10478000FFFFFFFFFFFFFFFFFFFFFFFFFFFFFFFF39
:10479000FFFFFFFFFFFFFFFFFFFFFFFFFFFFFFFF29
:1047A000FFFFFFFFFFFFFFFFFFFFFFFFFFFFFFFF19
:1047B000FFFFFFFFFFFFFFFFFFFFFFFFFFFFFFFF09
:1047C000FFFFFFFFFFFFFFFFFFFFFFFFFFFFFFFFF9
:1047D000FFFFFFFFFFFFFFFFFFFFFFFFFFFFFFFFE9
:1047E000FFFFFFFFFFFFFFFFFFFFFFFFFFFFFFFFD9
:1047F000FFFFFFFFFFFFFFFFFFFFFFFFFFFFFFFFC9
:10480000FFFFFFFFFFFFFFFFFFFFFFFFFFFFFFFFB8
:10481000FFDFFFFFFFFFFFFFFFFFFFFFFFFFFFFFC8
:10482000FFFFFFFFFFFFFFFFFFFFFFFFFFFFFFFF98
:10483000FFFFFFFFFFFFFFFFFFFFFFFFFFFFFFFF88
:10484000FFFFFFFFFFFFFFFFFFFFFFFFFFFFFFFF78
:10485000FFFFFFFFFFFFFFFFFFFFFFFFFFFFFFFF68
:10486000FFFFFFFFFFFFFFFFFFFFFFFFFFFFFFFF58
:10487000FFFFFFFFFFFFFFFFFFFFFFFFFFFFFFFF48
:10488000FFFFFFFFFFFFFFFFFFFFFFFFFFFFFFFF38
:10489000FFFFFFFFFFFFFFFFFFFFFFFFFFFFFFFF28
:1048A000FFFFFFFFFFFFFFFFFFFFFFFFFFFFFFFF18
:1048B000FFFFFFFFFFFFFFFFFFFFFFFFFFFFFFFF08
:1048C000FFFFFFFFFFFFFFFFFFFFFFFFFFFFFFFFF8
:1048D000FFFFFFFFFFFFFFFFFFFFFFFFFFFFFFFFE8
:1048E000FFFFFFFFFFFFFFDFFFFFFFFFFFFFFFFFF8
:1048F000FFFFFFFFFFFFFFFFFFFFFFFFFFFFFFFFC8
:10490000FFFFFFFFFFFFFFFFFFDFFFFFFFFFFFFFD7
:10491000FFFFFFDFFFFFFFFFFFFFFFFFFFFFFFFFC7
:10492000FFFFFFFFFFFFFFFFFFFFFFFFFFFFFFFF97
:10493000FFFFFFDFFFFFFFFFFFFFFFFFFFFFFFFFA7
:10494000FFFFFFFFFFDFFFFFFFDFFFFFFFFFFFFFB7
:10495000FFFFFFFFFFFFFFFFFFFFFFFFFFDFFFFF87
:10496000FFFFFFFFFFFFFFFFFFFFFFFFEFFFE7DF9F
:10497000DF9FDF9FE7DFE7FFEFDFEFBFE7BFE7BFC7
:10498000E7BFE7BFE7BFE7BFE7BFEF9FFFFFFFFF5F
:10499000F7FFDF7EDF5EEFDFF7FFFFFFF7DFE79E6A
:1049A000E7BFEFDFF7FFF7FFEFBFE79FE77EF7FF18
:1049B000FFFFFFFFF7FFDF3DDF3DF7FFF7FFF7FFEB
:1049C000FFFFF7FFEFBFEF9FE79FE7BFEFBFEF9E50
:1049D000E77FEFBFE79FEF9FF7DFE75EEFBFF7FFF0
:1049E000FFFFFFFFE75EE77EEF9EFFFFFFFFFFFF9A
:1049F000EF9FD71DDF5EF7FFFFFFF7DFE77FEF9F3A
:104A0000EF7FEFBFE77FEF9FE77EEF9FEF7FE77FCF
:104A1000EF9FE77EF7DFE75DEF9FE75EFFFFFFFFBA
:104A2000FFFFF7DFF7DFFFFFFFFFFFFFF7BFE73E07
:104A3000EF7FF7DFFFFFFFFFE75EEF7FE73E861DBB
:104A400054758DB98DFB54975CD8DF9FBE9C5497ED
:104A50004C779DFAC73F6CF8543574D5C6DCF7FF28
:104A6000EFFF95B97D388D997D17B69DEFFFE7DF94
:104A70009DD854355C76E7DFF7FFB69C53B18D3691
:104A8000E7DFEFFFC6DD74B58D788D588D78959989
:104A9000EFFFF7FFF7FFCEFC84B54B736C36D6FD06
:104AA000D71D74964B726C14C6DEDF5F84D643321A
:104AB0008519F7FFF7FF84F55B90ADB8F7FFF7FFB7
:104AC000A5BA7C9484D5953884B6B63AEFDF74568F
:104AD0004B1163B3CEFFBE7D532F8493CEFD8CF775
:104AE00053525330B63BEFBF9D3542CEA5B9FFFFC1
:104AF000FFFFFFFF73F38CB6F7FFFFFFFFFFEFBF72
:104B00008C7552D15B33F7FFF7DFADB952EF94B537
:104B10006539861DD7FF7DFC1B334C56EFFFE7FF41
:104B20002BB51354BF7FDFFF6D9D1AF28579E7FF28
:104B3000E7FF74D62AAED7FFDFFF8D992AB0BEFFFC
:104B4000EFFFDFFF339312B16CD8E7FFD7FF43715C
:104B5000E7DFEFFFB6BE2A8E7CF6E7FFE7FF6C7457
:104B60005371EFFFF7FFFFFFEFFFBE9D09AD643705
:104B7000EFFFF7FFAE5F016C7CF8EFFFF7FFCF1F91
:104B8000018C09EEB63CF7FFCF7F6C54DF7FF7FF57
:104B9000955B21CDA5FAEFFFE7FF42CE7C74F7FFCE
:104BA000D77F00E93AB0E7DFE7FF198AE79FF7FF11
:104BB000C6DF116B3AAFEFFFF7FFF7FF21EBEFFF17
:104BC000FFFFFFDFF7FF0066428FF7FFFFFFFFFFEA
:104BD000FFFFD6DF298E00298456F7FFF7FF426DCD
:104BE000DF3F8D77DFFFBFDF33B422EFE7FFF7FF53
:104BF000EFFF2BB52395DFFFDFFF7E1E1AF38DDB62
:104C0000DFFF969F22F16CF7E7FFF7FFE7FF1AD26D
:104C100033B5EFFFE7FF7D9A23531AD28E1FDFFFD4
:104C20005BF2F7FFEFFF64B909EDEFFFF7FFF7FF66
:104C3000F7FF7433F7FFF7FFF7FEFFFFCF1F09AE53
:104C40006CB9F7FFF7FFBEFF118C8D18F7FFFFFF60
:104C5000DF3F43722B1211EDDFFFCF7F9578E79F87
:104C6000F7FF094C4B34F7FFFFFFF7FFC6DB8CB4AF
:104C7000F7FFEFFF84F6010A9DFEA61E84D7FFFF13
:104C8000F7FFCF3F11AC5372F7FFFFFFFFFF3A8EE4
:104C9000EFFFF7FFFFFF8CD7320E112BA59CFFFF14
:104CA000FFFFFFFFCEDD9519214C10ACBDFFEFDFFC
:104CB0005B70DF3FEFFFE7FF655A1B119E5CE7FF6C
:104CC000FFFFEFFF33F61B548D99A63B4C991B1346
:104CD0008DDBDFFF5CFA0AB1961CEFFFF7FFEFFFF9
:104CE0001B341B54CF3FEFFF74F6CFFF0A712335FF
:104CF000BFBF53F3F7FFD75F33541A70F7FFFFFFBF
:104D0000F7FFF7FFEFFFE7DFF7FFF7FFF7FFCF1F33
:104D100009CE6479F7FFEFDFC6DF116C9538F7FF36
:104D2000FFFFD6FD74B785DD01CE22B1DFFF8D1701
:104D3000E79FCF1F094D5BD7F7FFEFBFEFFFEFFFF7
:104D4000EFFFEFFFF7FFE7DF11AD3AF3220DEFFFC3
:104D5000F7DFFFFFCF1F19AD4AF1F7FFFFFFFFFF9E
:104D60003A6DEFFFF7FFF7FF42AFEFFF006A639581
:104D7000F7FFFFFFF7FFC67AA599DF1F002A296F0B
:104D8000F7FF5B51E73FE7FFA69D1B1233F5DFFFFF
:104D9000E7FFEFDFE7FF2BD61B74C73FE7FF6D9DF3
:104DA00012F38DDBD7FF5D1B12D195FBEFFFFFFFE9
:104DB000EFFF1B541B54CF7FEFDF6C74DFFFA67F28
:104DC0001230653B4C35EFFFCF1E33131A50EFFF07
:104DD000C6BC4351331133316496E7FFD75FF7FF09
:104DE000CF1F09AE6499F7FFF7FFC6DF116B8CF890
:104DF000F7FFF7FFD71D6C34DFFF4C1709EE647720
:104E00009DBAEFDFC6BD012C5BD7F7FF84953AD082
:104E10002A8F3AAFADDBFFFFFFFF9D5C0089A5BA8B
:104E2000F7FFFFFFF7DFCEFF19AC5352F7FFFFFF8D
:104E3000FFFF3A6DEFFFF7FF8CD684B6BE7F21F1FE
:104E4000112DC67DF7FFFFFFBE5A9517F7FF8C990E
:104E500008496B766353E73FDFFF43F42353A77F93
:104E6000D7FF8D98CEFDE7FF2BD61B74D7DFE7FF6A
:104E70007DFE1B1385DBDFFF965E22F16CF7E7FFFB
:104E8000F7FFE7FF12D133B4EFFFEFDF7CD5E7FF89
:104E9000E7FF6C770A9112B0EFFFEFFF5C1611EE9F
:104EA000EFFFE7FFB71F23122B32DFFFA65D2A4C6F
:104EB000AE3CCF5F09AD6C77F7FFF7FFBEDF118C1B
:104EC0008CF8F7FFF7FFCEFD6C34E7FFDFFF1A2FFA
:104ED00011AD6C56E7BFF7FF012A4B74EFDFEFFF10
:104EE000A63F00CB84D9EFDFF7DFFFFFB5DF088AED
:104EF000C69DF7FFFFFFFFFFCEFF116B5353F7FF78
:104F0000F7DFFFFF3A2CF7FFEFFF63D2745484D82A
:104F10006BF8008A8CB8F7FFFFFFCE9C94F6EFDFAA
:104F2000F7DF52B1088B298EEF9F7E3F12F275DDBD
:104F3000CFFF96FF3393CF7FDFFF2BD61353D7FFDF
:104F4000DFFF7DDD12D28DFCE7FFE7FF5C1322AFB0
:104F5000D7FFDFFF8D991A2DCF7FEFFFEFFF74D6BC
:104F6000DFFFF7FFE7BF339401EEEFFFF7FFBEBFB0
:104F700019CC7CD7DFFFAF1F124E3B31E7FF9DDB23
:104F8000220DC77FBF1F096B84F8FFFFF7FFC75FC4
:104F9000014B853AEFFFF7FFDF5F6414E7FFEFFF98
:104FA000BEBE094C5394EFDFF7FF84F70129B65DCD
:104FB000EFFF9DBE00AA8497F7FFF7FFF7FFB63F0C
:104FC0000069C6BFF7FFFFFFFFFFF7FF196A21CD9A
:104FD000EFFFF7FFBE3B7C14F7FFAE1D7476EFFFCB
:104FE000F7FFEFDF3A510089F7FFF7FFCE9D9D599C
:104FF000F7FFFFFFDF1F214D10CBEF9F3C9A3C785E
:1050000054B8549734174477D7DF8DBA34173457D0
:105010007518AEBE4C573BF64BD4A63BF7FFEFFFDF
:10502000963D4C565C976CB7D77FF7FFEFBF84D4A3
:105030003B716C96F7FFF7FFB73F1AD1EFFFF7FF11
:10504000F7FFD79F64354BD44C158DFC7495E7FF63
:10505000DFFF8D7A5C56226F8519EFFFFFFFCE9C34
:1050600043523B534332A5FCE7BF4B0E3B1095BA6E
:10507000EFFFF7FF959D5BD6F7FFF7FFEFFFB69EBB
:105080004B315B935334A59D9518F7FFF7FF8CF7D1
:1050900042D23A9242B0ADB9FFFFFFFFF7FFEFDF18
:1050A00042F22A5063728C95F7FFD6FF21CD42D091
:1050B00084B4F7FF7C5642B232313A50F7FF635066
:1050C0003A2D63B2F7FFFFFFADBE4231EF9FF6ED21
:1050D000EEA7EE86F6C6F6858342A5ECD76EC6AC83
:1050E000BECEBE8E962EA6B3A6B2BF1496737653CE
:1050F00096B596968E769F189EB6555176BA765985
:105100007E797E785E1776BA9F1B4DB85EBC7F5D58
:1051100009681A902DBD1CF92D7B34B91C9724F910
:105120002CB924DA24D9247824992D1A2CD934784E
:1051300034D9341623551C5A13F71C382439143823
:105140002417245725FC23F6216F4335220F32D430
:1051500021AD320F7D5A75395C7900251041218CC3
:105160002A532A5311B03B36194D3A705C170A1274
:105170002AF511B019F033152BB8116C320F4B789A
:105180004B773AF432113AD44315A317AA53AB35EF
:10519000D45BBB5738A540A7B377A2F5A2D4AB35F3
:1051A00069CC79EF92319A739A93698C8A529A7387
:1051B00089D1AB15D4BB8A3181D08A1171AD492810
:1051C000821192B382518A3289F18A938A72EECC2B
:1051D000EEA7E664EE85FF2593A08487DFAEC6AB1D
:1051E000BEADC6CF95EB9650A6D3AED29EB47E137D
:1051F0008EB58E958E958E96B7586D9355D67699B9
:1052000076587E99661755D79F3C665A3DFA87BEF9
:105210001AEC096A253C1D3A1D1A2CF91C771CD979
:105220001CB91CB91CB91C7914581CB924B92478B0
:10523000353A23530AD2149B13B714181C390BD7D1
:1052400013F71C16153B24B921F02A9422102232A0
:10525000194D194C7D5B7D5A5C9A00260000214C4B
:1052600021D11A32094F2AB4116E21CE4BB611D179
:1052700022D511F1094E22732BB9096D29AC43389F
:105280004378327219AF3AB532F58336AA539A721F
:10529000D41AAAF52023590ABB579A949AB4A2F5B6
:1052A000616C694C9A528A129A94698E81B09212FA
:1052B00081D19273D4BB9AB3714E81D1696D490883
:1052C00081D0929371EF79D081D17A118A32EEAA8E
:1052D000EE86E643E644FF66B4A06B62D78ECECB83
:1052E000BEABC6F0A62B8E0DAEF4A6B0AEF47DD349
:1052F0007E548E958E958675AF588E1545536EB932
:105300006E5876796E5845758EFB86FC35B877BF3A
:10531000349300A61499155B14D9255B1C78149955
:1053200014D914B9149A1CBA14580C7814591C388E
:105330002D3B1B52020F0C7B0BB70BD714390B976D
:105340000C181BF70C78257B2A7119D2225219D020
:10535000112C08EB7D5B85BB4C5A00470000212CCB
:1053600011701232014F1A3311B0116D435419F1FB
:105370001A951253014E11D12B78012C29AC437987
:1053800032D62A3119D03A962AF66336A23291D013
:10539000CBB99252304679CFB2F69294AB159AB30C
:1053A00050EA610C9A5381D19A7479D0794F91F275
:1053B00081D189F1CC5AB397690D8190694C40C86D
:1053C00089F29252698E718E81B179F181F1EEC7C5
:1053D000F684EE44DDE3FEE6E6227300BEACCF2C9D
:1053E000BE8ABECFBECF8DEBA6B3AEB2BF138DF1DA
:1053F0006DF386958E958E9596B5A6D74D73669866
:1054000076786E387E9A5DB65E17971C4E3A571DB9
:1054100045D800C613F61D5D14B9257C24DA0C7935
:1054200014DA14B914991CDA1CB914380BF813F8EF
:105430001CD93496120E0B7714190BD7141813D7E6
:105440000C181BF813D62DDC32F3117132D519CF9D
:10545000194C090E6CBB95FC3BF8008A0001212B0E
:1054600011701A52099009B21A32114C3AF32252B1
:105470001A741A9509D0099022F700CA320F4BB955
:1054800019D132732A53327533174B15923299D092
:10549000B31681B0694D9A739A539AD4BBB892925D
:1054A0003847696E923381D18A128A11796F9212CC
:1054B00089F281D1B3B7CC5A718E714E612C388785
:1054C0009A9481F1698E71AE81D1821279F0EF0BDD
:1054D000EEA4EE65DDE3DDC3FF258B409528DFAD4F
:1054E000C6AABE8CCF539E0C962EBF14BF109E2E04
:1054F000761186B68E758E958654AF386DD44594E8
:1055000076996E587EB96E5845558F1B76DC3E7B7A
:105510004E9B016903741D9E14B9251B251B0C3875
:105520001CBA1CDA14791CBA24DA13D70BF80BB89E
:105530000C175F3E3B3100EB14590BF8141813F8AD
:1055400003D713F713D72DFC335411503B3619CD25
:10555000116D11704B787D7B5CBA012E0002192908
:1055600001501A5411B001702AD6218D21AF1A10A2
:10557000227422D61A94121222F7006731F04B7867
:10558000198E4B373AB5325432D632F57A73A1F1CF
:105590009212921289F18A319273A2F5B377A2D353
:1055A0003867616E8A138A1189D2923281D091F163
:1055B00089F281B0A315DCDC821160CB612B3066EF
:1055C0009AD479D079D0823179B081F179CFF76FDF
:1055D000EEC7EE84E624CD21EE64B4C58425DFADAC
:1055E000CECBBE8ACF32B66F8DABBF13B6CFC6EF70
:1055F00085CE86D596F7863486549ED68E765D7394
:105600006E5876796E7776B95DF77EDA5E1835B8C2
:105610004EDC2B9102F10DBE14FA1CB9255C1478F6
:1056200014791CFB14991CBA24FA13B60BB70BF8A7
:105630000356679F5D9900050BB60C3914181418B2
:105640000BD70BF80C17253A3BD5116F331621CF2A
:10565000118F09902A95649A757C2AB4000110A5CF
:1056600009701A3411D1012F32D721CF08CA1A116B
:105670002AD62B172AF60A12545B320E10A83A9338
:1056800029F04B583AB4329332952AD562B4AA1213
:1056900089D1A27481D179D09AD4A2F5AB36B31551
:1056A000386740CA92338A1181B09A7381F081B011
:1056B00089F17990A2D5DCBC9AD4588A58EA4088FE
:1056C00082528A118231821179B081D181F0FF6FCB
:1056D000EF0CEE84EE44CD00CD02DE8B9465C6EB7C
:1056E000CEEBC6AAC6CFCED295CBB6EEAEADD751D5
:1056F0009E2F6DAF8EF68E9586758E959ED67E15F5
:105700006E16769966576E987E9A6E79353535782D
:10571000469B6E1922EF04161D5C1CB91D5B1CD93B
:1057200014381CFB14BA1CBA24D91C1713760C1895
:1057300003563DFD66DE008602B20C7A0C18141882
:105740000BF80C1914171417343621F02A9521F090
:1057500009B011B01A125C5B651C2AF500021085B5
:1057600011B01A3411B0014F229521F00068223295
:1057700033582B16331701F264FD5C180002218C9C
:10578000325343383AB4329332742AD54B1492329E
:1057900091D1B2B681D0616D9AD4AAF5AB56B33629
:1057A000612B202582118A1281B09A5389F0718F62
:1057B0008A1181B0A294D43BBB9858CA4067594C17
:1057C00071B08A32823179D079D081B08A11F6EB0A
:1057D000FF4EF6C6EE64D561ABE0F74DBD69A5A7F7
:1057E000CF4CC6CBBE6BD712AE2DAE8AAECCC73176
:1057F000CF3454695D6E97178E968E959ED59ED741
:10580000761666576E576E377EB96E3824F52DB909
:105810003DFAA7FF5C1101291D3C14FB0CFA255A27
:105820001C5814BA1CDB1CBA1C9824F91B960BD705
:105830000BB70BD94EBF1A2D01AE0CBA0C180BD7F3
:105840000C180C7A23D613352C592A5219F322320C
:1058500011D011D111D15C5B3B9809D00006192BF6
:1058600022111A1311B1094F121321F108A92A723A
:105870002B5822F5333609F243FA6D5E002108A752
:10588000327343173AD432733AB53AD52B14725265
:10589000A1D2BAD68A31510C8211AB56BBD8AAF527
:1058A000A2F41823494A823281B189F1923179CF29
:1058B0008A1189D19232C3B9D45C616C20038231E0
:1058C000618F81D0821171B079D079908A12DD65B3
:1058D000FF4AF6E7F6A5DDE2BC60DDE8D60BA506DB
:1058E000D78DC6CBBE8AD70FBE6DAE28BF0CA68C97
:1058F000E7F7AE5212826DB0A7388E7496B59EF659
:105900007E775E166E77765776577E593D772DB93E
:105910002DFA7FDF969900230BD71D5E0CBA255B0D
:105920002CF914791499149914791D1A24580B56CA
:10593000141803572DBE349600E913F814390BD709
:1059400003F80C7A23961B5524FB2AD419912AB408
:1059500019D011B11A123AD419F2014E012E2213A4
:105960002A3219F21A12017009D221F121AD223026
:105970001AB522D73357121122945D1F00C608852D
:10598000327232954316327342D53AB522F45A74C4
:10599000BA54B2D59233612D618EB377C4399293E4
:1059A000DCBC594B080171CF89B281B09A93823126
:1059B000798F91F181B0B357E4BD7A3008018250FC
:1059C00069F0612E8A1279D0718F712E7990D4C4CA
:1059D000F667FF08EE86E644E645D5A6CD86A4E543
:1059E000D72CCEEBC6ABD72EBE4AB607CF0CA68BB4
:1059F000C731EFBB4C0822A59EF696D696949ED54D
:105A00008E9865D76E37767876588699557725576C
:105A10002E3B469CAFBE2167022F1D9F14DA14FA5D
:105A2000257A1CB90C180C79147A14BA2CB913768F
:105A300014190B970C9A465C08C80A1114BB1C7900
:105A400003D80C5A237623B6253C2315194F333738
:105A50002A72092E1A532A31199011B1019219F3A1
:105A60002A1211B11A1209B1099119D13250220F1B
:105A700011D222F83B9919EF11B05CBF116A10C71F
:105A800042B221F14B972A523A953A952AF542941F
:105A9000B294BAD59A33718F596D9AB4BC199AB32E
:105AA000DCBCA336080040A881D281D192538A1170
:105AB000716F92128190A2D5E49DA2F5100179EF49
:105AC0007A3158ED92538232696E690D714FDD86DD
:105AD000DD64FEE7F6A8EE66FF07E6AAD6079C227D
