:020000040800F2
:10000000B8060020CD0100080D1C0008CD14000822
:10001000091C0008D3020008B91F000800000000F6
:100020000000000000000000000000003D1C00086F
:10003000D702000800000000111C00083F1C000847
:10004000E7010008E7010008E7010008E7010008F0
:10005000E7010008E7010008E7010008E7010008E0
:10006000E7010008E7010008E7010008E7010008D0
:10007000E7010008E7010008E7010008E7010008C0
:10008000E7010008E7010008E7010008E7010008B0
:10009000E7010008E7010008E7010008E7010008A0
:1000A000E7010008E7010008E7010008E701000890
:1000B000E7010008E7010008E7010008E701000880
:1000C000E7010008E7010008E7010008E701000870
:1000D000E7010008A91F0008E7010008E701000880
:1000E000E7010008E7010008E7010008E701000850
:1000F000E7010008E7010008E7010008E701000840
:10010000E7010008E7010008E7010008E70100082F
:10011000E7010008E7010008E7010008E70100081F
:10012000E7010008E7010008E7010008E70100080F
:1001300000F002F800F03AF80AA090E8000C8244BF
:100140008344AAF10107DA4501D100F02FF8AFF29C
:10015000090EBAE80F0013F0010F18BFFB1A43F0A5
:10016000010318470C0C01002C0C0100103A24BFAD
:1001700078C878C1FAD8520724BF30C830C144BF0C
:1001800004680C607047000000230024002500264E
:10019000103A28BF78C1FBD8520728BF30C148BFEA
:1001A0000B6070471FB51FBD10B510BD00F058F8AB
:1001B0001146FFF7F7FF01F01DFF00F076F803B4DA
:1001C000FFF7F2FF03BC00F07DF80000094880470C
:1001D00009480047FEE7FEE7FEE7FEE7FEE7FEE729
:1001E000FEE7FEE7FEE7FEE704480549054A064B41
:1001F00070470000AD1C000831010008B800002065
:10020000B8060020B8020020B80200204FF000021B
:1002100000B5134694469646203922BFA0E80C50FC
:10022000A0E80C50B1F12001BFF4F7AF090728BFD7
:10023000A0E80C5048BF0CC05DF804EB890028BF53
:1002400040F8042B08BF704748BF20F8022B11F07C
:10025000804F18BF00F8012B7047704770477047F8
:10026000754600F02BF8AE4605006946534620F06F
:100270000700854618B020B5FFF7B6FFBDE820405F
:100280004FF000064FF000074FF000084FF0000B52
:1002900021F00701AC46ACE8C009ACE8C009ACE805
:1002A000C009ACE8C0098D46704710B50446AFF3ED
:1002B00000802046BDE81040FFF781BF004870472E
:1002C0005800002001491820ABBEFEE726000200BE
:1002D000704700BFFEE7704772B600BFFEE70146F9
:1002E000002291F82100022808D00420886300BF72
:1002F000002081F8200000BF0120704708680068D6
:1003000020F00E000B6818600868006820F00100FB
:100310000B68186091F8403001209840CB6B586012
:10032000012081F8210000BF002081F8200000BFDB
:100330001046E2E770B50446002594F82100022833
:1003400003D00420A0630125C1E02068006820F0EC
:100350000E00216808602068006820F00100216814
:1003600008605C492068884252D95A497839206827
:10037000884201D1012047E056496439206888420B
:1003800001D1102040E0534950392068884201D102
:10039000801539E04F493C392068884201D18014EA
:1003A00032E04C4928392068884202D14FF480302D
:1003B0002AE0484914392068884202D14FF480105D
:1003C00022E044492068884201D140041CE04249AF
:1003D0002068884201D1012016E03F49143120688D
:1003E000884201D110200FE03B4928312068884223
:1003F00001D1801508E038493C312068884201D19C
:10040000801401E04FF480303349091F086051E047
:10041000304978392068884201D1012047E02D49D0
:1004200064392068884201D1102040E029495039C0
:100430002068884201D1801539E026493C3920687E
:10044000884201D1801432E022492839206888424C
:1004500002D14FF480302AE01E49143920688842C6
:1004600002D14FF4801022E01A492068884201D15D
:1004700040041CE018492068884201D1012016E0A0
:10048000154914312068884201D110200FE012492B
:1004900028312068884201D1801508E00E493C319E
:1004A0002068884201D1801401E04FF4803009496E
:1004B00080394860012084F8210000BF002084F8C2
:1004C000200000BF606B10B12046616B8847284652
:1004D00070BD0000800002400804024070B5044670
:1004E00000F0B6F906462546681C10B104480078AD
:1004F000054400BF00F0ACF9801BA842FAD370BDE0
:10050000080000202DE9F847024600239C467BE1C5
:100510004FF0010808FA03F4D1F8008008EA04005B
:10052000A0427DD1DFF8F4A2D1F80480A8EB0A093B
:10053000D0453AD014DCB8F1030F50D009DCB8F143
:10054000000F31D0B8F1010F1CD0B8F1020F49D122
:1005500020E0B8F1110F18D0B8F1120F42D11EE00F
:10056000B9F5881F25D006DCB9F5803F20D0B9F554
:10057000801F37D11AE0B9F5001F18D0B9F5041F54
:1005800030D117E0D1F80CC02DE0D1F80C8008F183
:10059000040C28E0D1F80C8008F1080C23E0D1F815
:1005A0000C8008F10C0C1EE000BF00BF00BF00BFB4
:1005B00000BF00BFD1F80880B8F1000F02D14FF0A2
:1005C000040C0BE0D1F80880B8F1010F03D14FF013
:1005D000080C146102E04FF0080C546103E04FF086
:1005E000000C00E000BF00BFFF2801D8904601E0EA
:1005F00002F104084646FF2802D84FEA830803E0C8
:10060000A3F108084FEA88084746D6F800804FF063
:100610000F0909FA07F928EA09080CFA07F900E0B6
:100620007AE048EA0908C6F80080D1F8048008F0AA
:100630008058B8F1805F6FD100BFDFF8E481D8F84F
:10064000188048F00108DFF8D891C9F81880C8462A
:10065000D8F8188008F00108CDF8008000BF00BF6E
:100660004FEAB9384FEA930958F829504FEA83788E
:100670004FEA18794FF00F0808FA09F825EA08053B
:10068000DFF8A081424502D14FF0000824E0DFF8F6
:100690009881424502D14FF001081DE0DFF88C81BE
:1006A000424502D14FF0020816E0DFF8848142454E
:1006B00002D14FF003080FE0DFF87881424502D104
:1006C0004FF0040808E0DFF87081424502D14FF096
:1006D000050801E04FF006084FEA83794FEA1979DF
:1006E00008FA09F848EA0505DFF850814FEA93094E
:1006F00048F82950D1F8048008F48018B8F5801F14
:100700000BD1DFF83C81D8F8008048EA0008DFF818
:100710003091C9F800800AE075E0DFF82481D8F84C
:10072000008028EA0008DFF81891C9F80080D1F8A5
:10073000048008F40018B8F5001F0ED1DFF800811E
:1007400008F10408D8F8008048EA0008DFF8F090C3
:1007500009F10409C9F800800DE0DFF8E48008F130
:100760000408D8F8008028EA0008DFF8D49009F1DE
:100770000409C9F80080D1F8048008F40038B8F5FD
:10078000003F0ED1DFF8B880A8F10408D8F8008047
:1007900048EA0008DFF8A890A9F10409C9F8008028
:1007A0000DE0DFF89C80A8F10408D8F8008028EA62
:1007B0000008DFF88C90A9F10409C9F80080D1F88D
:1007C000048008F48038B8F5803F0ED1DFF87080DF
:1007D000A8F10808D8F8008048EA0008DFF860901F
:1007E000A9F10809C9F800800DE0DFF85480A8F1EC
:1007F0000808D8F8008028EA0008DFF84490A9F13A
:100800000809C9F800805B1CD1F8008028FA03F8B9
:10081000B8F1000F7FF47CAEBDE8F887000011103E
:100820000010024000080140000C0140001001408F
:100830000014014000180140001C01400800014064
:10084000080401400AB1016101E00B040361704733
:10085000014800687047000000000020034800685D
:1008600003490978084401490860704700000020E6
:100870000800002010B50848006840F01000064944
:100880000860032000F0A0F8002000F007F800F056
:100890002BF8002010BD00000020024070B5044677
:1008A0000E4800784FF47A71B1FBF0F00C490968FA
:1008B000B1FBF0F5284600F0F1FB08B1012070BD56
:1008C000102C07D200222146501E00F03FF80548A8
:1008D000046001E00120F2E70020F0E708000020BA
:1008E0000C0000200400002008B500BF0E488069FD
:1008F00040F001000C4988610846806900F0010061
:10090000009000BF00BF00BF0846C06940F08050A3
:10091000C8610846C06900F08050009000BF00BF69
:10092000052000F051F808BD0010024001460846BD
:10093000002809DB00F01F0301229A4043099B00B5
:1009400003F1E023C3F8002100BF70472DE9F05FF9
:1009500080460D461646002701F030FB0746394613
:100960002A46334601F00700C0F1070ABAF1040F26
:1009700002D94FF0040A01E0C0F1070AD14600F1A4
:10098000040ABAF1070F02D24FF0000A01E0A0F109
:10099000030AD4464FF0010A0AFA09FAAAF1010A39
:1009A0000AEA020A0AFA0CFA4FF0010B0BFA0CFBE6
:1009B000ABF1010B0BEA030B4AEA0B04214640465C
:1009C00001F004FBBDE8F09F00BF00F00702064BFA
:1009D00019684FF6FF031940044B0B4343EA022109
:1009E000014B196000BF70470CED00E00000FA05F4
:1009F00070B504460D460CB9012070BD5A48006818
:100A000000F00700A8420ED25748006820F0070007
:100A10002843554908600846006800F00700A842CE
:100A200001D00120E9E7207800F0020002281DD162
:100A3000207800F00400042805D14C48406840F4B8
:100A4000E0604A494860207800F00800082805D195
:100A50004648406840F46050444948604348406814
:100A600020F0F000A168084340494860207800F079
:100A7000010078B36068012806D13C48006800F4A2
:100A8000003090B90120B8E76068022806D13748E5
:100A9000006800F0007040B90120AEE733480068FC
:100AA00000F0020008B90120A7E73048406820F0B4
:100AB0000300616808432D494860FFF7C9FE0646F8
:100AC00009E0FFF7C5FE801B41F28831884202D958
:100AD000032092E707E02548406800F00C006168B9
:100AE000B0EB810FEDD12048006800F00700A8426C
:100AF0000ED91D48006820F0070028431A490860F5
:100B00000846006800F00700A84201D0012074E701
:100B1000207800F00400042807D11448406820F42D
:100B2000E060E168084311494860207800F008005F
:100B3000082808D10D48406820F46050216940EA37
:100B4000C1000A49486000F03FF808494968C1F30C
:100B50000311074A515CC84006490860064800680E
:100B6000FFF79CFE002048E70020024000100240F2
:100B7000DACF00080C0000200400002001480068C3
:100B8000704700000C00002000B5FFF7F7FF044994
:100B90004968C1F30221034A515CC84000BD00000E
:100BA00000100240EACF000800B5FFF7E7FF044954
:100BB0004968C1F3C221034A515CC84000BD00002E
:100BC00000100240EACF000870B500210022002486
:100BD00000230020134D696801F00C05F5B1042DC8
:100BE00002D0082D19D101E00F4819E00F4DC1F3D3
:100BF0008346AB5D01F4803555B10A4D6D68C5F390
:100C000040450B4E725D084D5D43B5FBF2F402E0CA
:100C1000084D03FB05F4204602E000BF024800BF78
:100C200000BF70BD0010024000127A00C8CF00085B
:100C3000D8CF000800093D00F8B504460CB90120E2
:100C4000F8BD207800F00100002878D0F84840680E
:100C500000F00C0004280CD0F548406800F00C00AF
:100C6000082811D1F248406800F48030B0F5803F88
:100C70000AD1EF48006800F4003000285FD06068B7
:100C800000285CD10120DBE700BF6068B0F5803F41
:100C900006D1E748006840F48030E549086028E064
:100CA000606858B9E248006820F48030E049086084
:100CB0000846006820F4802008601AE06068B0F5FB
:100CC000A02F0BD1DA48006840F48020D849086092
:100CD0000846006840F4803008600AE0D4480068A4
:100CE00020F48030D24908600846006820F4802053
:100CF000086000BF606888B1FFF7AAFD054606E0FE
:100D0000FFF7A6FD401B642801D9032098E7C848D7
:100D1000006800F400300028F2D010E0FFF798FDE2
:100D2000054606E0FFF794FD401B642801D9032027
:100D300086E7BF48006800F400300028F2D1207830
:100D400000F00200022857D1B948406800F00C00BA
:100D500050B1B748406800F00C00082818D1B448DA
:100D6000406800F4803098B9B148006800F0020093
:100D700020B12069012801D0012061E7AC4800685A
:100D800020F0F800616940EAC100A949086033E039
:100D90002069E8B10120A7490860FFF759FD054621
:100DA00006E0FFF755FD401B022801D9032047E765
:100DB0009F48006800F002000028F2D09C480068BC
:100DC00020F0F800616940EAC1009949086013E029
:100DD000002098490860FFF73BFD054606E0FFF755
:100DE00037FD401B022801D9032029E790480068FD
:100DF00000F002000028F2D1207800F00800082856
:100E00002DD1A069B8B101208B490860FFF720FD02
:100E1000054606E0FFF71CFD401B022801D9032010
:100E20000EE78348406A00F002000028F2D001205B
:100E300000F0F0FE13E000207F490860FFF708FD96
:100E4000054606E0FFF704FD401B022801D90320F8
:100E5000F6E67748406A00F002000028F2D12078D8
:100E600000F00400042873D100277148C06900F025
:100E7000805070B900BF6E48C06940F080506C4926
:100E8000C8610846C06900F08050009000BF00BFF4
:100E900001276A48006800F48070B0B967480068AC
:100EA00040F4807065490860FFF7D2FC054606E013
:100EB000FFF7CEFC401B642801D90320C0E65F4841
:100EC000006800F480700028F2D000BFE0680128BC
:100ED00006D15748006A40F001005549086227E0F2
:100EE000E06858B95248006A20F001005049086291
:100EF0000846006A20F00400086219E0E06805284E
:100F00000BD14B48006A40F004004949086208468A
:100F1000006A40F0010008620AE04548006A20F0DB
:100F20000100434908620846006A20F00400086294
:100F300000BFE068A0B1FFF78BFC054609E0FFF7B2
:100F400087FC401B41F28831884202D9032077E6B2
:100F500022E03748006A00F002000028EFD012E0DB
:100F6000FFF776FC054608E0FFF772FC401B41F2F4
:100F70008831884201D9032062E62D48006A00F0DA
:100F800002000028F0D1012F05D12948C06920F0C6
:100F900080502749C86100BFE069C8B32448406851
:100FA00000F00C00082860D0E069022848D1002039
:100FB00020490866FFF74CFC054606E0FFF748FCB1
:100FC000401B022801D903203AE61948006800F0C6
:100FD00000700028F2D1206AB0F5803F07D1144894
:100FE000406820F40030A168084311494860D4E902
:100FF000080108430E49496821F4741108430C495B
:10100000486001200B490866FFF722FC054607E00F
:101010003DE0FFF71DFC401B022801D903200FE62D
:101020000348006800F000700028F2D02FE00000B4
:101030000010024000004242800442420070004022
:10104000002014490866FFF703FC054606E0FFF799
:10105000FFFB401B022801D90320F1E50E48006880
:1010600000F000700028F2D111E0E069012800D101
:10107000E6E50948466806F48031206A814204D1D9
:1010800006F47011606A814201D00120D8E5002089
:10109000D6E50000000042420010024070B5044650
:1010A0002546681EB0F1807F01D301200FE0681E45
:1010B0004FF0E02148610F214FF0FF3000F086FF34
:1010C00000204FF0E021886107200861002070BDFA
:1010D000704770472DE9F84F04462068056820687E
:1010E000C668206847694FF00009CA4605F00F0935
:1010F000B9F1000F0AD105F0200038B106F0200048
:1011000020B1204600F023FEBDE8F88FB9F1000FB2
:101110007BD007F0010018B906F49070002874D055
:1011200005F0010030B106F4807018B1606C40F039
:101130000100606405F0040030B107F0010018B14F
:10114000606C40F00200606405F0020030B107F00E
:10115000010018B1606C40F00400606405F0080004
:1011600048B106F0200010B907F0010018B1606C1A
:1011700040F008006064606C002845D005F0200055
:1011800028B106F0200010B1204600F0E0FD2068F4
:101190004069C0F3801A606C00F0080010B9BAF121
:1011A000000F2CD0204600F08CFD2068406900F034
:1011B000400000B300BF00BF2168143151E8001F98
:1011C00021F040002168143141E80002002AF3D1E7
:1011D00000BFE06B50B17748E16B4863E06BFFF70D
:1011E000A9F888B1E06B416B88470DE02046FFF716
:1011F00070FF09E009E02046FFF76BFF04E020469E
:10120000FFF767FF002060647EE7206B012877D13D
:1012100005F01000002873D006F010000028FAD066
:1012200000BF00200090206800680090206840689F
:10123000009000BF00BF2068406900F04000002817
:101240005FD0E06B006840681FFA80F8B8F1000FCB
:1012500055D0A08D404552DDA4F82E80E06B80690A
:10126000202843D000BF00BF21680C3151E8001F87
:1012700021F4807021680C3141E80002002AF3D18A
:1012800000BF00BF00BF2168143151E8001F21F0EA
:1012900001002168143141E80002002AF3D100BFA7
:1012A00000BF00BF2168143151E8001F21F0400049
:1012B0002168143141E80002002AF3D100BF202048
:1012C00084F842000020206300BF00BF21680C3179
:1012D00051E8001F21F0100021680C3141E80002A4
:1012E000002AF3D100BFE06BFEF7F9FF0220606334
:1012F000A08DE28D801A81B22046FFF7E9FE03E758
:1013000042E0A08DE18D401A1FFA80F8E08DD0B345
:10131000B8F1000F37D000BF00BF21680C3151E891
:10132000001F21F4907021680C3141E80002002A6E
:10133000F3D100BF00BF00BF2168143151E8001F86
:1013400021F001002168143141E80002002AF3D1A4
:1013500000BF202084F842000020206300BF00BFAF
:1013600021680C3151E8001F21F0100021680C3178
:1013700041E80002002AF3D100BF02206063414629
:101380002046FFF7A5FEBFE605F0800030B106F06D
:10139000800018B1204600F0D7FDB5E605F040000A
:1013A00030B106F0400018B1204600F0C0FCABE6BA
:1013B00000BFA9E6AF1C000810B504460CB9012017
:1013C00010BDA06900B100E000BF94F8410028B949
:1013D000002084F84000204600F02AF8242084F8F9
:1013E00041002068C06820F400502168C860204691
:1013F00000F02CFD2068006920F49040216808610D
:101400002068406920F02A00216848612068C0688F
:1014100040F400502168C86000206064202084F8F7
:10142000410084F842000020606300BFC8E700006C
:1014300010B586B0044600200290039004900590F9
:101440001E492068884236D100BF1D48806940F49B
:1014500080401B4988610846806900F48040019003
:1014600000BF00BF00BF0846806940F004008861EB
:101470000846806900F00400019000BF00BF4815D5
:101480000290022003900320059002A90D48FFF767
:1014900039F84FF48060029000200390049002A974
:1014A0000848FFF72FF8032211462520FFF74EFAD0
:1014B0002520FFF73BFA06B010BD000000380140C0
:1014C00000100240000801407047704700BFFEE76F
:1014D0002DE9F04104460D4616461F462A2000F02D
:1014E00051FBA11C88B200F025FBB11C88B200F0B2
:1014F00021FB2B2000F046FBE91C88B200F01AFB10
:10150000F91C88B200F016FB2C2000F03BFBBDE874
:10151000F08170B505460E4614463146284600F067
:10152000BFF9204600F006FB70BD2DE9F0470646E6
:101530000F4614461D46DDF820A0681E83B2601ECB
:1015400082B239463046FFF7C3FFB9460EE0B046D7
:1015500006E0504600F0EEFA08F101001FFA80F8AC
:10156000A045F6DB09F101001FFA80F9A945EEDB81
:10157000BDE8F08700B585B000BF4148806940F400
:1015800080703F4988610846806900F4807000904F
:1015900000BF00BF00BF0846806940F0200088619E
:1015A0000846806900F02000009000BF00BF00BF27
:1015B0000846806940F0200088610846806900F094
:1015C0002000009000BF00BF00BF0846806940F0C7
:1015D000200088610846806900F02000009000BF6C
:1015E00000BF00BF0846806940F0200088610846BF
:1015F000806900F02000009000BF00BF00BF0846D7
:10160000806940F0400088610846806900F0400031
:10161000009000BF00BF88140190012002900320B9
:10162000049001A91748FEF76DFF202001900120CA
:1016300002900320049001A91348FEF763FF1020D5
:101640000190012002900320049001A90E48FEF7AA
:1016500059FF4FF4004001900120029003200490B4
:1016600001A90948FEF74EFF0220019001200290D7
:101670000320049001A90448FEF744FF05B000BD13
:1016800000100240002001400014014010B5FFF797
:1016900071FF012210218048FFF7D4F81420FEF7D3
:1016A0001DFF002210217C48FFF7CCF81420FEF724
:1016B00015FF012210217848FFF7C4F87820FEF7C3
:1016C0000DFF012211027548FFF7BCF8112000F050
:1016D00059FA7820FEF702FFB12000F053FA0520F6
:1016E00000F03EFA3A2000F03BFA3A2000F038FAD7
:1016F000B22000F047FA052000F032FA3A2000F05C
:101700002FFA3A2000F02CFAB32000F03BFA052023
:1017100000F026FA3A2000F023FA3A2000F020FAEE
:10172000052000F01DFA3A2000F01AFA3A2000F0E5
:1017300017FAB42000F026FA032000F011FA022074
:1017400000F00EFAC02000F01DFAA92000F008FAFF
:10175000092000F005FA842000F002FAC12000F010
:1017600011FAC42000F0FCF9C22000F00BFA0D20A1
:1017700000F0F6F9002000F0F3F9C32000F002FABF
:101780008D2000F0EDF96A2000F0EAF9C42000F0A5
:10179000F9F98D2000F0E4F9EE2000F0E1F9C52020
:1017A00000F0F0F9052000F0DBF9362000F0EAF94E
:1017B000C82000F0D5F93A2000F0E4F9052000F047
:1017C000CFF9E02000F0DEF9072000F0C9F91E2073
:1017D00000F0C6F90F2000F0C3F9192000F0C0F99D
:1017E0003A2000F0BDF9342000F0BAF92C2000F0C6
:1017F000B7F92E2000F0B4F92C2000F0B1F92A201E
:1018000000F0AEF9312000F0ABF93A2000F0A8F971
:10181000002000F0A5F9022000F0A2F9012000F05C
:101820009FF9102000F09CF9E12000F0ABF90420B2
:1018300000F096F91B2000F093F90B2000F090F9CE
:10184000132000F08DF9302000F08AF92A2000F0F2
:1018500087F9252000F084F92A2000F081F9292059
:1018600000F07EF9272000F07BF9302000F078F9B5
:101870003D2000F075F9002000F072F9012000F021
:101880006FF9042000F06CF9102000F069F92920AC
:1018900000F078F910BD000000140140001801406C
:1018A00070B504460D462B46224629462046FFF7D2
:1018B0000FFE70BD2DE9FF5F80468A4617469B46A6
:1018C0000F9D00200290CDF80080284605EBD071D6
:1018D000C1F347042046E21704EB5272D2102146AE
:1018E000E31704EB5373DB10A4EBC3030BB1012329
:1018F00000E000231A446A4392B20192A7F120004B
:10190000C7B20AEB0500401E83B208EB0400401E7C
:1019100082B251464046FFF7DBFD002669E00C2D00
:1019200007D107EB4700354901EB8000805D03904C
:101930001BE0102D05D1324800EB0710805D0390AD
:1019400013E0182D07D107EB47002E4901EB0010DB
:10195000805D039009E0202D05D12B4800EB871016
:10196000805D039001E0BDE8FF9F4FF000093AE081
:101970001098C8B9012000FA09F00399084018B17D
:10198000584600F0D7F802E00E9800F0D3F802981D
:10199000401CC0B20290029890FBF4F104FB1100CD
:1019A000E8B90020029021E0012000FA09F0039933
:1019B000084020B15A4651464046FFF7AAFD08F1BB
:1019C00001001FFA80F80098A8EB0000A04206D1A1
:1019D000DDF800800AF101001FFA80FA06E009F143
:1019E000010000F0FF09B9F1080FC1DB00BF701C56
:1019F00086B20198864292DB00BFB4E7F2CF0008BE
:101A000066D4000856DA000826EC00082DE9FC5FD1
:101A10000746884615461E46DDF83090002408EB40
:101A20000600401E83B27819401E82B241463846F5
:101A3000FFF74EFDA2461CE04FF0000B13E019F833
:101A400014200192012000EB440019F800100091CD
:101A5000DDE9001241EA022000F06CF8641C0BF191
:101A600001001FFA80FBAB45E9DB0AF101001FFA18
:101A700080FAB245E0DBBDE8FC9F2DE9FE4F05464C
:101A80000F4614469846DDE90D6ADDF8309017E000
:101A90007F2D01DC7F2F01DDBDE8FE8FF0B2CDE9A7
:101AA000010ACDF800902278434639462846FFF7D0
:101AB00001FF304606EBD07105EB61018DB2641C6D
:101AC00020787E2802DC20782028E1DA00BFE3E7D6
:101AD00070B50446002202211448FEF7B3FE00252B
:101AE0001CE000224FF480511148FEF7ABFE04F0D9
:101AF000800028B1012220210C48FEF7A3FE04E05B
:101B0000002220210948FEF79DFE0122110308480A
:101B1000FEF798FE6006040E681CC5B2082DE0DBD7
:101B2000012202210148FEF78DFE70BD0014014024
:101B30000020014010B504460122D1030748FEF7FA
:101B400081FE2012FFF7C4FFE0B2FFF7C1FF0122C0
:101B5000D1030248FEF776FE10BD000000140140DC
:101B600010B504460122D1030548FEF76BFE20465E
:101B7000FFF7AEFF0122D1030148FEF763FE10BD5F
:101B80000014014010B5044600224FF400410648FD
:101B9000FEF758FE2046FFF79BFF0122D1030248C3
:101BA000FEF750FE10BD00000014014008B500BF54
:101BB0000648806940F0040004498861084680694D
:101BC00000F00400009000BF00BF08BD00100240FC
:101BD00010B50B480B4908604FF4E1304860002114
:101BE00008488160C16001610C214161002181616F
:101BF000C161FFF7E1FB08B1FEF76EFB10BD00000D
:101C0000003801401000002000BFFEE700BFFEE7E3
:101C10007047000008B508490968C9084FF47A728E
:101C2000B1FBF2F14143009100BF00BF00994A1E91
:101C300000920029F9D108BD0C000020704710B5B2
:101C4000FEF70CFE10BD00B58FB0282105A8FEF7E9
:101C5000DDFA14216846FEF7D9FA01200590000448
:101C60000690002007900120099002200C90C103EB
:101C70000D914FF4E0110E9105A8FEF7DDFF08B1BC
:101C8000FEF72AFB0F200090022001900020029016
:101C90004FF4806003900020049002216846FEF714
:101CA000A7FE08B1FEF718FB0FB000BD704770B576
:101CB00005466C6A0020E085E0842046FFF709FABB
:101CC00070BD00BF00BF02680C3252E8002F22F442
:101CD000907102680C3242E80013002BF3D100BF70
:101CE00000BF00BF0268143252E8002F22F0010149
:101CF0000268143242E80013002BF3D100BF016BDD
:101D000001290ED100BF00BF02680C3252E8002F3B
:101D100022F0100102680C3242E80013002BF3D1CC
:101D200000BF202180F8421000210163704710B5E8
:101D300004462068C06820F040002168C860202068
:101D400084F841002046FFF7C0FB002010BDF8B525
:101D5000044694F84200222875D1A068B0F5805F4F
:101D60000CD1206950B90025A66A20684068C0F3EC
:101D700008003080A06A801CA06215E0A56A0026D9
:101D8000A068B0F5805F03D0A06828B9206918B9B1
:101D900020684068287004E02068406800F07F00F8
:101DA0002870A06A401CA062E08D401E80B2E085D1
:101DB000002846D12068C06820F020002168C86053
:101DC0002068C06820F480702168C860206840697D
:101DD00020F0010021684861202084F842000020A2
:101DE0006063206B012826D10020206300BF00BF64
:101DF00021680C3151E8001F21F0100021680C31DE
:101E000041E80002002AF3D100BF2068006800F01A
:101E1000100010280AD100BF002000902068006840
:101E2000009020684068009000BF00BFA18D204650
:101E3000FFF74EF902E02046FFF746FB0020F8BD11
:101E400001E00020FBE70220F9E7000070B504463E
:101E50002168096921F44051E26811432268116147
:101E60002269A1681143626941EA02052168C968D3
:101E700041F20C62914329432268D160216849698B
:101E800021F44071A2691143226851612D4A2168F1
:101E9000914202D1FEF788FE01E0FEF775FE00EBED
:101EA000C00101EB001162689200B1FBF2F100EB9E
:101EB000C00202EB001263689B00B2FBF3F26423E2
:101EC000B2FBF3F202EBC20303EB0212A1EB8201BD
:101ED000322202EB01116422B1FBF2F101F0F001B8
:101EE00000EBC00202EB001263689B00B2FBF3F24E
:101EF0006423B2FBF3F201EB021200EBC00101EB31
:101F0000001163689B00B1FBF3F100EBC00303EB2E
:101F100000136668B600B3FBF6F36426B3FBF6F372
:101F200003EBC30606EB0313A1EB8301322303EBA0
:101F300001116423B1FBF3F101F00F011144226898
:101F4000916070BD00380140014691F841002128A0
:101F500028D18868B0F5805F0BD1086948B90A6A52
:101F60001088C0F308000B685860086A801C08627B
:101F700005E00B6A581C086218780B685860C88C1A
:101F8000401E80B2C88458B90868C06820F080003C
:101F90000B68D8600868C06840F040000B68D860E3
:101FA000002070470220FCE710B50248FFF792F8C6
:101FB00010BD00001000002000BFFEE702480068CE
:101FC000C0F30220704700000CED00E010B50028BF
:101FD00004DB0A07130E054A135406E00A07140E21
:101FE000034A00F00F031B1FD45410BD00E400E0AF
:101FF00018ED00E00EB5FEF73DFCFFF724FEFFF7FD
:10200000D5FDFFF7E5FDFFF741FBB7E04FF6FF70A9
:1020100080231A46002100900846FFF786FA5848A8
:1020200038236922002100900B20FFF7EFFC0020ED
:102030000C214FF6FF724FF47843CDE90021029056
:1020400050A246210A20FFF718FD00200C214FF670
:10205000FF724FF47843CDE9002102904EA25A213D
:102060000720FFF70AFD00200C214FF6FF724FF406
:102070007843CDE9002102904CA26E211020FFF799
:10208000FCFC4FF47A70FEF729FA4FF6FF708023BC
:102090001A46002100900846FFF747FA4FF47840AF
:1020A00080232022002100900846FFF73EFA4FF4DB
:1020B000FC6080234022002100902020FFF735FAA9
:1020C0001F2080236022002100904020FFF72DFA7E
:1020D0004FF6E07080231A46002100906020FFF741
:1020E00024FA4FF47A70FEF7F9F94FF47840402360
:1020F0001A46002100900846FFF717FA4FF4FC60DB
:1021000040238022002100901846FFF70EFA1F207E
:1021100080234022114600900020FFF706FA4FF678
:10212000FF7080231A46402100900846FFF7FDF912
:102130004FF47A70FEF7D2F94FF6FF7080231A46FB
:10214000002100900846FFF7F0F91D4880231A4649
:10215000002100900846FFF759FC01200C214FF6A2
:10216000FF720023CDE90021029016A26E210D20FE
:10217000FFF783FC4FF47A70FEF7B0F946E70000F2
:10218000D8210008312E3434205446545F4C434447
:1021900020544553540000005245534F4C55544968
:1021A0004F4E3A3132387831323800004452495675
:1021B00045522049433A5354373733350000000025
:1021C000C84F0008636F6C6F72206465707468207C
:1021D0003136626974000000FFFFFFFFFFFFFFFF61
:1021E000FFFFFFFFFFFFFFFFFFFFFFFFFFFFFFFFFF
:1021F000FFFFFFFFFFFFFFFFFFFFFFFFFFFFFFFFEF
:10220000FFFFFFFFFFFFFFFFFFFFFFFFFFFFFFFFDE
:10221000FFFFFFFFFFFFEFFF96BF13D70C7A047A93
:10222000047A0459047A047A043B043B043A043ADD
:10223000045A045A045A045A043A043A043A043A2E
:10224000043A043A043A04190419041903D8343737
:10225000EFFFFFFFFFFFE7FF12F40BD903F803F8CE
:1022600003D903B90BB913149E3CF7FFFFFFFFFF1F
:10227000FFDFFFDFFFFFFFFFFFFFFFFFFFFFFFFFAE
:10228000FFFFFFFFFFFFFFFFFFFFFFFFFFFFFFFF5E
:10229000FFFFFFFFFFFFFFFFFFFFFFFFFFFFFFFF4E
:1022A000FFFFFFFFFFFFFFFFFFFFFFFFFFFFFFFF3E
:1022B000FFFFFFFFFFFFFFFFFFFFFFFFFFFFFFFF2E
:1022C000FFFFFFFFFFFFFFFFFFFFFFFFFFFFFFFF1E
:1022D000FFFFFFFFFFFFFFFFFFFFFFFFFFFFFFFF0E
:1022E000FFFFFFFFFFFFFFFFEFFF969F13D7047A6B
:1022F000047A047A045A047A045A043B043B043AEC
:10230000043904390439043A043A04190419041943
:1023100004190419041903F903F9041903F803B79C
:102320002C17EFFFFFFFFFFFE7FF0AD303B903D826
:1023300003D703B803990B980AF4963CF7FFFFFF05
:10234000FFFFFFFFFFFFFFFFFFFFFFFFFFFFFFFF9D
:10235000FFFFFFFFFFFFFFFFFFFFFFFFFFFFFFFF8D
:10236000FFFFFFFFFFFFFFFFFFFFFFFFFFFFFFFF7D
:10237000FFFFFFFFFFFFFFFFFFFFFFFFFFFFFFFF6D
:10238000FFFFFFFFFFFFFFFFFFFFFFFFFFFFFFFF5D
:10239000FFFFFFFFFFFFFFFFFFFFFFFFFFFFFFFF4D
:1023A000FFFFFFFFFFFFFFFFFFFFFFFFFFFFFFFF3D
:1023B000FFFFFFFFFFFFFFFFFFFFEFFF969F13D71A
:1023C000045A047B045B045A045A045A045B043B19
:1023D000043A043904390439041904390419041875
:1023E0000418041903F903F903F903F903F903F9CC
:1023F00003B82C17E7FFFFFFFFFFE7FF0AD40BB975
:1024000003B803B803B8039903990AF4961CF7FFBD
:10241000F7FFFFFFFFFFFFFFFFFFFFFFFFFFFFFFD4
:10242000FFFFFFFFFFFFFFFFFFFFFFFFFFFFFFFFBC
:10243000FFFFFFFFFFFFFFFFFFFFFFFFFFFFFFFFAC
:10244000FFFFFFFFFFFFFFFFFFFFFFFFFFFFFFFF9C
:10245000FFFFFFFFFFFFFFFFFFFFFFFFFFFFFFFF8C
:10246000FFFFFFFFFFFFFFFFFFFFFFFFFFFFFFFF7C
:10247000FFFFFFFFFFFFFFFFFFFFFFFFFFFFFFFF6C
:10248000FFFFFFFFFFFFFFFFFFFFFFFFEFFF969F35
:1024900013B6045A045B045B045B045A045A045BDD
:1024A000045A043A043904390419041904190419A2
:1024B000041904190419041903F903F903F903F9B8
:1024C00003F903B82C37E7FFFFFFFFFFEFFF0AD444
:1024D0000B9903B803B803B8039903990AF4961B40
:1024E000F7FFFFFFFFFFFFFFFFFFFFFFFFFFFFFF04
:1024F000FFFFFFFFFFFFFFFFFFFFFFFFFFFFFFFFEC
:10250000FFFFFFFFFFFFFFFFFFFFFFFFFFFFFFFFDB
:10251000FFFFFFFFFFFFFFFFFFFFFFFFFFFFFFFFCB
:10252000FFFFFFFFFFFFFFFFFFFFFFFFFFFFFFFFBB
:10253000FFFFFFFFFFFFFFFFFFFFFFFFFFFFFFFFAB
:10254000FFFFFFFFFFFFFFFFFFFFFFFFFFFFFFFF9B
:10255000FFFFFFFFFFFFFFFFFFFFFFFFFFFFEFFF9B
:1025600096BF13B60C39045A043B045A045A045A51
:10257000045A043A04390439041904190419041AD0
:10258000041A041A041A041903F903F903F803F8E6
:1025900003F803F803B82C17E7FFFFFFFFFFEFFF77
:1025A0000AD30B98039703B703B703B803980AF449
:1025B0009E1BF7FFFFFFFFFFFFFFFFFFFFFFFFFF78
:1025C000FFFFFFFFFFFFFFFFFFFFFFFFFFFFFFFF1B
:1025D000FFFFFFFFFFFFFFFFFFFFFFFFFFFFFFFF0B
:1025E000FFFFFFFFFFFFFFFFFFFFFFFFFFFFFFFFFB
:1025F000FFFFFFFFFFFFFFFFFFFFFFFFFFFFFFFFEB
:10260000FFFFFFFFFFFFFFFFFFFFFFFFFFFFFFFFDA
:10261000FFFFFFFFFFFFFFFFFFFFFFFFFFFFFFFFCA
:10262000FFFFFFFFFFFFFFFFFFFFFFFFFFFFFFFFBA
:10263000EFFF96BF1BB51439043A043A043A045A22
:10264000045A045A043A04390439043A041A041A9C
:10265000041A041A041A041A041A041A03F903F9CE
:1026600003F803F803F803B82C17E7FFFFFFFFFF99
:10267000EFFF0AD30B98039803B703B703B8039887
:102680000AF49DFBFFFFFFFFFFFFFFFFFFFFFFFFC0
:10269000FFFFFFFFFFFFFFFFFFFFFFFFFFFFFFFF4A
:1026A000FFFFFFFFFFFFFFFFFFFFFFFFFFFFFFFF3A
:1026B000FFFFFFFFFFFFFFFFFFFFFFFFFFFFFFFF2A
:1026C000FFFFFFFFFFFFFFFFFFFFFFFFFFFFFFFF1A
:1026D000FFFFFFFFFFFFFFFFFFFFFFFFFFFFFFFF0A
:1026E000FFFFFFFFFFFFFFFFFFFFFFFFFFFFFFFFFA
:1026F000FFFFFFFFFFFFFFFFFFFFFFFFFFFFFFFFEA
:10270000FFFFEFFF969F13B60C39043A043A043AE0
:10271000045A043A043A043A04190419041A041A2B
:1027200003FA03FA03F903F903F903F903FA03F9C6
:1027300003F903F803F803D803B72C17E7FFFFFFEB
:10274000FFFFE7FF0AB30378037803980398039821
:1027500003780AD49DFBF7FFFFFFFFFFFFFFFFFF9A
:10276000FFFFFFFFFFFFFFFFFFFFFFFFFFFFFFFF79
:10277000FFFFFFFFFFFFFFFFFFFFFFFFFFFFFFFF69
:10278000FFFFFFFFFFFFFFFFFFFFFFFFFFFFFFFF59
:10279000FFFFFFFFFFFFFFFFFFFFFFFFFFFFFFFF49
:1027A000FFFFFFFFFFFFFFFFFFFFFFFFFFFFFFFF39
:1027B000FFFFFFFFFFFFFFFFFFFFFFFFFFFFFFFF29
:1027C000FFFFFFFFFFFFFFFFFFFFFFFFFFFFFFFF19
:1027D000FFFFFFFFEFFF969F13B60C39043A043A50
:1027E000043A045A0439041903F80BD70BB60BB694
:1027F0000BB70BB70B960B9513950BB603D803F9D4
:1028000003F903F903F803D803D803972BF6E7FF7E
:10281000FFFFFFFFE7FF0A700B350B350B350B355C
:102820000B350B150A919DDAF7FFFFFFFFFFFFFF46
:10283000FFFFFFFFFFFFFFFFFFFFFFFFFFFFFFFFA8
:10284000FFFFFFFFFFFFFFFFFFFFFFFFFFFFFFFF98
:10285000FFFFFFFFFFFFFFFFFFFFFFFFFFFFFFFF88
:10286000FFFFFFFFFFFFFFFFFFFFFFFFFFFFFFFF78
:10287000FFFFFFFFFFFFFFFFFFFFFFFFFFFFFFFF68
:10288000FFFFFFFFFFFFFFFFFFFFFFFFFFFFFFFF58
:10289000FFFFFFFFFFFFFFFFFFFFFFFFFFFFFFFF48
:1028A000FFFFFFFFFFFFEFFF96BF0B960C590439A8
:1028B000043A04390439041813D74D5B655A653955
:1028C0006518651865396519651865395D5B1BD62E
:1028D00003D703D803F903F903D803D803972C16B9
:1028E000EFFFFFFFFFFFEFFF5C1464D864D864B70D
:1028F0006CB76CD864B85C35BE9CF7FFFFFFFFFF78
:10290000FFFFFFFFFFFFFFFFFFFFFFFFFFFFFFFFD7
:10291000FFFFFFFFFFFFFFFFFFFFFFFFFFFFFFFFC7
:10292000FFFFFFFFFFFFFFFFFFFFFFFFFFFFFFFFB7
:10293000FFFFFFFFFFFFFFFFFFFFFFFFFFFFFFFFA7
:10294000FFFFFFFFFFFFFFFFFFFFFFFFFFFFFFFF97
:10295000FFFFFFFFFFFFFFFFFFFFFFFFFFFFFFFF87
:10296000FFFFFFFFFFFFFFFFFFFFFFFFFFFFFFFF77
:10297000FFFFFFFFFFFFFFFFEFFF8E5F13B60C3976
:102980000439045A043A04390C180B33CFFFDFFF23
:10299000E7FFE7FFE7FFE7FFE7FFEFFFDFFFCFFF1F
:1029A00034570BB703F903F903B803D803B80397F7
:1029B0002BF6EFFFFFFFFFFFFFFFEFFFEFFFEFFF44
:1029C000EFFFF7FFF7FFEFFFEFFFFFFFFFFFF7FF5F
:1029D000F7FFFFFFFFFFFFFFFFDFFFFFFFFFFFFF2F
:1029E000FFFFFFFFFFFFFFFFFFFFFFFFFFFFFFFFF7
:1029F000FFFFFFFFFFFFFFFFFFFFFFFFFFFFFFFFE7
:102A0000FFFFFFFFFFFFFFFFFFFFFFFFFFFFFFFFD6
:102A1000FFFFFFFFFFFFFFFFFFFFFFFFFFFFFFFFC6
:102A2000FFFFFFFFFFFFFFFFFFFFFFFFFFFFFFFFB6
:102A3000FFFFFFFFFFFFFFFFFFFFFFFFFFFFFFFFA6
:102A4000FFFFFFFFFFFFFFFFFFFFF7FF9E9F1396B4
:102A500004180459043A043A043A0C181353CFFFEB
:102A6000EFFFF7FFF7FFF7FFFFFFFFFFF7FFE7FFBE
:102A7000DFFF33F50B9603D803B803F903B803B8A7
:102A800003972BF6EFFFFFFFFFFFFFFFFFFFF7FFAF
:102A9000F7FFF7FFFFFFF7FFEFFFF7FFFFDFFFDFB6
:102AA000FFFFFFFFFFFFFFFFFFFFFFFFFFFFFFFF36
:102AB000FFFFFFFFFFFFFFFFFFFFFFFFFFFFFFFF26
:102AC000FFFFFFFFFFFFFFFFFFFFFFFFFFFFFFFF16
:102AD000FFFFFFFFFFFFFFFFFFFFFFFFFFFFFFFF06
:102AE000FFFFFFFFFFFFFFFFFFFFFFFFFFFFFFFFF6
:102AF000FFFFFFFFFFFFFFFFFFFFFFFFFFFFFFFFE6
:102B0000FFFFFFFFFFFFFFFFFFFFFFFFFFFFFFFFD5
:102B1000FFFFFFFFFFFFFFFFFFFFFFFFF7FF967FB6
:102B200013750C5904590419041A043A0BF81B3391
:102B3000D7FFF7FFFFFFFFFFFFFFFFFFFFFFFFFFD5
:102B4000F7FFD7FF33F50BB603F903D803D803B863
:102B500003B803772BF6EFFFFFFFFFFFF7FFEFFF51
:102B6000EFFFEFFFEFFFEFFFEFFFEFFFEFFFFFFFE5
:102B7000FFFFFFFFFFFFFFFFFFFFFFFFFFFFFFFF65
:102B8000FFFFFFFFFFFFFFFFFFFFFFFFFFFFFFFF55
:102B9000FFFFFFFFFFFFFFFFFFFFFFFFFFFFFFFF45
:102BA000FFFFFFFFFFFFFFFFFFFFFFFFFFFFFFFF35
:102BB000FFFFFFFFFFFFFFFFFFFFFFFFFFFFFFFF25
:102BC000FFFFFFFFFFFFFFFFFFFFFFFFFFFFFFFF15
:102BD000FFFFFFFFFFFFFFFFFFFFFFFFFFFFFFFF05
:102BE000FFFFFFFFFFFFFFFFFFFFFFFFFFFFEFFF05
:102BF000967F13760BF803D8041903F903B813F77B
:102C00001AF2D7FFF7FFFFFFFFFFFFFFFFBFFFFF36
:102C1000FFFFF7FFD7FF33F5039603D903D903D896
:102C200003B803B803772BF6EFFFFFFFFFFFEFFFBB
:102C30004BD4549954984C785478547854994BF513
:102C4000B65BF7FFFFFFFFFFFFFEFFFFFFFFFFFF8A
:102C5000FFFFFFFFFFFFFFFFFFFFFFFFFFFFFFFF84
:102C6000FFFFFFFFFFFFFFFFFFFFFFFFFFFFFFFF74
:102C7000FFFFFFFFFFFFFFFFFFFFFFFFFFFFFFFF64
:102C8000FFFFFFFFFFFFFFFFFFFFFFFFFFFFFFFF54
:102C9000FFFFFFFFFFFFFFFFFFFFFFFFFFFFFFFF44
:102CA000FFFFFFFFFFFFFFFFFFFFFFFFFFFFFFFF34
:102CB000FFFFFFFFFFFFFFFFFFFFFFFFFFFFFFFF24
:102CC000F7FF9E7E2B942C3734782C372C373458D2
:102CD0003C163331DFDFF7FFFFFFFFFFFFFFFFFF92
:102CE000FFFFFFFFEFFFD7FF33F50BB703D803B8A4
:102CF00003D803B803B803772BF6EFFFFFFFFFFFFE
:102D0000E7FF0A5013350B150B350B150AF5131594
:102D10000A719DDAF7FFF7FFFFFFFFFFFFFFFFFFDD
:102D2000FFFFFFFFFFFFFFFFFFFFFFFFFFFFFFFFB3
:102D3000FFFFFFFFFFFFFFFFFFFFFFFFFFFFFFFFA3
:102D4000FFFFFFFFFFFFFFFFFFFFFFFFFFFFFFFF93
:102D5000FFFFFFFFFFFFFFFFFFFFFFFFFFFFFFFF83
:102D6000FFFFFFFFFFFFFFFFFFFFFFFFFFFFFFFF73
:102D7000FFFFFFFFFFFFFFFFFFFFFFFFFFFFFFFF63
:102D8000FFFFFFFFFFFFFFFFFFFFFFFFFFFFFFFF53
:102D9000FFFFFFFFF7FFEFFFE7FFE7FFEFFFEFFFAB
:102DA000E7FFE7FFF7FFFFFFFFFFFFFFFFFFFFFF6B
:102DB000FFFFFFDFFFFFFFFFDFFF33B40B7503D81B
:102DC00003B803D803B8039803772BD7EFFFFFFFAF
:102DD000FFFFEFFF0A920B570B560B560356035695
:102DE0000B570AB29DDAF7FFFFFFFFFFFFFFFFFF60
:102DF000FFFFFFFFFFFFFFFFFFFFFFFFFFFFFFFFE3
:102E0000FFFFFFFFFFFFFFFFFFFFFFFFFFFFFFFFD2
:102E1000FFFFFFFFFFFFFFFFFFFFFFFFFFFFFFFFC2
:102E2000FFFFFFFFFFFFFFFFFFFFFFFFFFFFFFFFB2
:102E3000FFFFFFFFFFFFFFFFFFFFFFFFFFFFFFFFA2
:102E4000FFFFFFFFFFFFFFFFFFFFFFFFFFFFFFFF92
:102E5000FFFFFFFFFFFFFFFFFFFFFFFFFFFFFFFF82
:102E6000FFFFFFFFFFFFF7FFF7FFEFFFEFFFEFFFB2
:102E7000EFFFEFFFEFFFEFFFEFFFEFFFF7FFEFFFDA
:102E8000F7FFEFFFF7FFF7FFEFFFD7FF34160B76E3
:102E900003B803B803B803B803B803772BD7EFFF21
:102EA000FFFFFFFFEFFF0A920357037703560376F6
:102EB000037703370AB29DFBF7FFFFFFFFFFFFFF1A
:102EC000FFFFFFFFFFFFFFFFFFFFFFFFFFFFFFFF12
:102ED000FFFFFFFFFFFFFFFFFFFFFFFFFFFFFFFF02
:102EE000FFFFFFFFFFFFFFFFFFFFFFFFFFFFFFFFF2
:102EF000FFFFFFFFFFFFFFFFFFFFFFFFFFFFFFFFE2
:102F0000FFFFFFFFFFFFFFFFFFFFFFFFFFFFFFFFD1
:102F1000FFFFFFFFFFFFFFFFFFFFFFFFFFFFFFFFC1
:102F2000FFFFFFFFFFFFFFFFFFFFFFFFFFFFFFFFB1
:102F3000FFFFFFFFFFFFF7FFD79F965C96BE96BF90
:102F4000969F96BF9EBF969E96BF96BF96BF969F32
:102F50009E9F9E9F969F969F9EBF969F86BF24177B
:102F6000037703B803B803980398039803772BD625
:102F7000EFFFFFFFFFFFE7FF0A9203570377037698
:102F80000357035703370AB29DFBF7FFFFFFFFFF0D
:102F9000FFFFFFFFFFFFFFFFFFFFFFFFFFFFFFFF41
:102FA000FFFFFFFFFFFFFFFFFFFFFFFFFFFFFFFF31
:102FB000FFFFFFFFFFFFFFFFFFFFFFFFFFFFFFFF21
:102FC000FFFFFFFFFFFFFFFFFFFFFFFFFFFFFFFF11
:102FD000FFFFFFFFFFFFFFFFFFFFFFFFFFFFFFFF01
:102FE000FFFFFFFFFFFFFFFFFFFFFFFFFFFFFFFFF1
:102FF000FFFFFFFFFFFFFFFFFFFFFFFFFFFFFFFFE1
:10300000FFFFFFFFFFFFFFFFF7FF9E7D23731BB551
:103010001BF61BD61BD623D61BB51BD51BB51BB663
:103020001BB61BB61B961BB613B61B9513B513D751
:103030000BB703D903B903B803B803980398037710
:103040002BD6EFFFFFFFFFFFE7FF0A92035703773F
:1030500003760357035703370AB295FBF7FFFFFFC9
:10306000FFFFFFFFFFFFFFFFFFFFFFFFFFFFFFFF70
:10307000FFFFFFFFFFFFFFFFFFFFFFFFFFFFFFFF60
:10308000FFFFFFFFFFFFFFFFFFFFFFFFFFFFFFFF50
:10309000FFFFFFFFFFFFFFFFFFFFFFFFFFFFFFFF40
:1030A000FFFFFFFFFFFFFFFFFFFFFFFFFFFFFFFF30
:1030B000FFFFFFFFFFFFFFFFFFFFFFFFFFFFFFFF20
:1030C000FFFFFFFFFFFFFFFFFFFFFFFFFFFFFFFF10
:1030D000FFFFFFFFFFFFFFFFFFFFF7FF9E7E135382
:1030E00013F70C180BF90BD80BD80BF70BD70BD722
:1030F0000BD80BD80BB70BB70BB70BB703960BD787
:10310000037603B703B803B803B8037703980377CC
:1031100003572BD6EFFFFFFFFFFFE7FF0A9203578E
:10312000037703560357033603360AB295FBF7FFBE
:10313000FFFFFFFFFFFFFFFFFFFFFFFFFFFFFFFF9F
:10314000FFFFFFFFFFFFFFFFFFFFFFFFFFFFFFFF8F
:10315000FFFFFFFFFFFFFFFFFFFFFFFFFFFFFFFF7F
:10316000FFFFFFFFFFFFFFFFFFFFFFFFFFFFFFFF6F
:10317000FFFFFFFFFFFFFFFFFFFFFFFFFFFFFFFF5F
:10318000FFFFFFFFFFFFFFFFFFFFFFFFFFFFFFFF4F
:10319000FFFFFFFFFFFFFFFFFFFFFFFFFFFFFFFF3F
:1031A000FFFFFFFFFFFFFFFFFFFFFFFFF7FF967E21
:1031B00013750C1803F903FA03FA03F903F803F87B
:1031C00003F803F903D903D803D803B803B703B747
:1031D00003B803B8039703980398039703B70397BB
:1031E000037703572BD6EFFFFFFFFFFFEFFF0A71B7
:1031F0000357035703560357033603360A9295FBCA
:10320000F7FFFFFFFFFFFFFFFFFFFFFFFFFFFFFFD6
:10321000FFFFFFFFFFFFFFFFFFFFFFFFFFFFFFFFBE
:10322000FFFFFFFFFFFFFFFFFFFFFFFFFFFFFFFFAE
:10323000FFFFFFFFFFFFFFFFFFFFFFFFFFFFFFFF9E
:10324000FFFFFFFFFFFFFFFFFFFFFFFFFFFFFFFF8E
:10325000FFFFFFFFFFFFFFFFFFFFFFFFFFFFFFFF7E
:10326000FFFFFFFFFFFFFFFFFFFFFFFFFFFFFFFF6E
:10327000FFFFFFFFFFFFFFFFFFFFFFFFFFFFF7FF66
:103280009EBF13750BF8041A03FA03FA041903D846
:1032900003F803F903F903D903D803D803D703B715
:1032A00003B8039703B8039703D8039703760397EC
:1032B0000397039703572BD6EFFFFFFFFFFFEFFFA7
:1032C0000A710337035703560337033603360A924E
:1032D00095FBF7FFFFFFFFFFFFFFFFFFFFFFFFFF74
:1032E000FFFFFFFFFFFFFFFFFFFFFFFFFFFFFFFFEE
:1032F000FFFFFFFFFFFFFFFFFFFFFFFFFFFFFFFFDE
:10330000FFFFFFFFFFFFFFFFFFFFFFFFFFFFFFFFCD
:10331000FFFFFFFFFFFFFFFFFFFFFFFFFFFFFFFFBD
:10332000FFFFFFFFFFFFFFFFFFFFFFFFFFFFFFFFAD
:10333000FFFFFFFFFFFFFFFFFFFFFFFFFFFFFFFF9D
:10334000FFFFFFFFFFFFFFFFFFFFFFFFFFFFFFFF8D
:10335000F7FF8E5E137503F8041903FA03D903F916
:1033600003F803F903F903F903D903D903D803B721
:1033700003B703B803D903B80397039703B70397B9
:1033800003770397037703562BD6EFFFFFFFFFFF6B
:10339000EFFF0A710337035703560337033603362B
:1033A00002929DFBF7FFFFFFFFFFFFFFFFFFFFFF05
:1033B000FFFFFFFFFFFFFFFFFFFFFFFFFFFFFFFF1D
:1033C000FFFFFFFFFFFFFFFFFFFFFFFFFFFFFFFF0D
:1033D000FFFFFFFFFFFFFFFFFFFFFFFFFFFFFFFFFD
:1033E000FFFFFFFFFFFFFFFFFFFFFFFFFFFFFFFFED
:1033F000FFFFFFFFFFFFFFFFFFFFFFFFFFFFFFFFDD
:10340000FFFFFFFFFFFFFFFFFFFFFFFFFFFFFFFFCC
:10341000FFFFFFFFFFFFFFFFFFFFFFFFFFFFFFFFBC
:10342000FFFFF7FF967E13950BF803B803F903D956
:1034300003F803F803D803D903D903D903D903D870
:1034400003B803B803B803B9039803B80398039704
:10345000039703980378037703562BB6E7FFFFFF24
:10346000FFFFEFFF0A7103370336035603370336B6
:10347000031602929DFBF7FFFFFFFFFFFFFFFFFF19
:10348000FFFFFFFFFFFFFFFFFFFFFFFFFFFFFFFF4C
:10349000FFFFFFFFFFFFFFFFFFFFFFFFFFFFFFFF3C
:1034A000FFFFFFFFFFFFFFFFFFFFFFFFFFFFFFFF2C
:1034B000FFFFFFFFFFFFFFFFFFFFFFFFFFFFFFFF1C
:1034C000FFFFFFFFFFFFFFFFFFFFFFFFFFFFFFFF0C
:1034D000FFFFFFFFFFFFFFFFFFFFFFFFFFFFFFFFFC
:1034E000FFFFFFFFFFFFFFFFFFFFFFFFFFFFFFFFEC
:1034F000FFFFFFFFF7FF969F0B340BF803F903D98B
:1035000003B8041903F803D803B803B703B703B823
:1035100003B703B7039703B8039803980377039798
:10352000039703760B760B770B560B3533B4EFFF0F
:10353000FFFFFFFFEFFF0A51033703360336033661
:10354000033603160A929DFBF7FFFFFFFFFFFFFF05
:10355000FFFFFFFFFFFFFFFFFFFFFFFFFFFFFFFF7B
:10356000FFFFFFFFFFFFFFFFFFFFFFFFFFFFFFFF6B
:10357000FFFFFFFFFFFFFFFFFFFFFFFFFFFFFFFF5B
:10358000FFFFFFFFFFFFFFFFFFFFFFFFFFFFFFFF4B
:10359000FFFFFFFFFFFFFFFFFFFFFFFFFFFFFFFF3B
:1035A000FFFFFFFFFFFFFFFFFFFFFFFFFFFFFFFF2B
:1035B000FFFFFFFFFFFFFFFFFFFFFFFFFFFFFFFF1B
:1035C000FFFFFFFFFFFFF7FF967F0B550BD803F8B8
:1035D00003D803D803F803D803B70B961375135514
:1035E000137513750B550B551335133513350B35F3
:1035F0000B350B340B340B340B3413340AF22B52CF
:10360000EFFFFFFFFFFFEFFF0A510B3703360336D3
:10361000033603160316029295DBF7FFFFFFFFFF49
:10362000FFFFFFFFFFFFFFFFFFFFFFFFFFFFFFFFAA
:10363000FFFFFFFFFFFFFFFFFFFFFFFFFFFFFFFF9A
:10364000FFFFFFFFFFFFFFFFFFFFFFFFFFFFFFFF8A
:10365000FFFFFFFFFFFFFFFFFFFFFFFFFFFFFFFF7A
:10366000FFFFFFFFFFFFFFFFFFFFFFFFFFFFFFFF6A
:10367000FFFFFFFFFFFFFFFFFFFFFFFFFFFFFFFF5A
:10368000FFFFFFFFFFFFFFFFFFFFFFFFFFFFFFFF4A
:10369000FFFFFFFFFFFFFFFFF7FF967F0B550BD8E4
:1036A00003F803D903D803F803D80B55763F861ED9
:1036B00085FC85FD861D7DDD861D85FD85DD85FD01
:1036C00085FD85FD7DFD7DFD7DFD7DDC7DFC7DBB7E
:1036D00095FBF7FFFFFFFFFFEFFF0A5103170336CC
:1036E000033603360316031602729DDBF7FFFFFF56
:1036F000FFFFFFFFFFFFFFFFFFFFFFFFFFFFFFFFDA
:10370000FFFFFFFFFFFFFFFFFFFFFFFFFFFFFFFFC9
:10371000FFFFFFFFFFFFFFFFFFFFFFFFFFFFFFFFB9
:10372000FFFFFFFFFFFFFFFFFFFFFFFFFFFFFFFFA9
:10373000FFFFFFFFFFFFFFFFFFFFFFFFFFFFFFFF99
:10374000FFFFFFFFFFFFFFFFFFFFFFFFFFFFFFFF89
:10375000FFFFFFFFFFFFFFFFFFFFFFFFFFFFFFFF79
:10376000FFFFFFFFFFFFFFFFFFFFF7FF967F1354F1
:103770000BD803D903D903D903D80BD70AF3CFFF4A
:10378000EFFFF7FFF7FFEFFFEFFFEFFFF7FFF7FFA9
:10379000F7FFEFFFEFFFEFFFEFFFEFFFEFFFEFFFB1
:1037A000EFFFF7FFFFFFFFFFFFFFE7FF0A510B17D8
:1037B0000336033603160316031602719DDBF7FF6B
:1037C000FFFFFFFFFFFFFFFFFFFFFFFFFFFFFFFF09
:1037D000FFFFFFFFFFFFFFFFFFFFFFFFFFFFFFFFF9
:1037E000FFFFFFFFFFFFFFFFFFFFFFFFFFFFFFFFE9
:1037F000FFFFFFFFFFFFFFFFFFFFFFFFFFFFFFFFD9
:10380000FFFFFFFFFFFFFFFFFFFFFFFFFFFFFFFFC8
:10381000FFFFFFFFFFFFFFFFFFFFFFFFFFFFFFFFB8
:10382000FFFFFFFFFFFFFFFFFFFFFFFFFFFFFFFFA8
:10383000FFFFFFFFFFFFFFFFFFFFFFFFF7FF967E8A
:103840000B540BD803D903D903D803D80BB612F203
:10385000D7FFF7FFFFFFFFFFFFFFFFFFFFDFFFFFC8
:10386000FFFFFFFFFFFFFFFFFFFFFFFFFFFFFFFF68
:10387000FFFFFFFFFFFFFFFFFFFEFFFFE7FF0A5114
:103880000B170336031603160316031602719DDB8E
:10389000F7FFFFFFFFFFFFFFFFFFFFFFFFFFFFFF40
:1038A000FFFFFFFFFFFFFFFFFFFFFFFFFFFFFFFF28
:1038B000FFFFFFFFFFFFFFFFFFFFFFFFFFFFFFFF18
:1038C000FFFFFFFFFFFFFFFFFFFFFFFFFFFFFFFF08
:1038D000FFFFFFFFFFFFFFFFFFFFFFFFFFFFFFFFF8
:1038E000FFFFFFFFFFFFFFFFFFFFFFFFFFFFFFFFE8
:1038F000FFFFFFFFFFFFFFFFFFFFFFFFFFFFFFFFD8
:10390000FFFFFFFFFFFFFFFFFFFFFFFFFFFFF7FFCF
:10391000967E0B5503D803D903D903D803D80BB629
:1039200012B1D7DFFFFFFFFFFFFFFFDEFFFFFFFF4B
:10393000FFFFFFFFFFFFFFFFFFFFFFFFFFFFFFFF97
:10394000FFFFFFFFFFFFFFFFFFFFFFFFFFFFEFFF97
:1039500002310B1603360316031602F602F6027145
:103960009DDBF7FFFFFFFFFFFFFFFFFFFFFFFFFFF5
:10397000FFFFFFFFFFFFFFFFFFFFFFFFFFFFFFFF57
:10398000FFFFFFFFFFFFFFFFFFFFFFFFFFFFFFFF47
:10399000FFFFFFFFFFFFFFFFFFFFFFFFFFFFFFFF37
:1039A000FFFFFFFFFFFFFFFFFFFFFFFFFFFFFFFF27
:1039B000FFFFFFFFFFFFFFFFFFFFFFFFFFFFFFFF17
:1039C000FFFFFFFFFFFFFFFFFFFFFFFFFFFFFFFF07
:1039D000FFFFFFFFFFFFFFFFFFFFFFFFFFFFFFFFF7
:1039E000F7FF967E0B5403B803D903D903D803D845
:1039F0000BB60AD2DFFFF7FFF7FFF7FFF7FFFFFF76
:103A0000FFFFFFFFF7FFF7FFF7FFF7FFF7FFFFFFEE
:103A1000F7FFF7FFF7FFFFFFFFFFFFFFFFFFF7FFD6
:103A2000E7FF023102F603160316031602F602F54B
:103A300002719DDBF7FFFFFFFFFFFFFFFFFFFFFFAF
:103A4000FFFFFFFFFFFFFFFFFFFFFFFFFFFFFFFF86
:103A5000FFFFFFFFFFFFFFFFFFFFFFFFFFFFFFFF76
:103A6000FFFFFFFFFFFFFFFFFFFFFFFFFFFFFFFF66
:103A7000FFFFFFFFFFFFFFFFFFFFFFFFFFFFFFFF56
:103A8000FFFFFFFFFFFFFFFFFFFFFFFFFFFFFFFF46
:103A9000FFFFFFFFFFFFFFFFFFFFFFFFFFFFFFFF36
:103AA000FFFFFFFFFFFFFFFFFFFFFFFFFFFFFFFF26
:103AB000FFFFF7FF967E133403B803D903B803B7AB
:103AC00003D703B70B14AF5FCFDFD7BFCFBFCFBFD5
:103AD000CF9FCF9FD7BFD7BFCFBFCFBFD79FD79FD6
:103AE000D79FD79FCF9FCF7FD79FD79FCF9FCF9F66
:103AF000D7BFC7BF027202F603160316031602F6FB
:103B000002F502719DDBF7FFFFFFFFFFFFFFFFFFE5
:103B1000FFFFFFFFFFFFFFFFFFFFFFFFFFFFFFFFB5
:103B2000FFFFFFFFFFFFFFFFFFFFFFFFFFFFFFFFA5
:103B3000FFFFFFFFFFFFFFFFFFFFFFFFFFFFFFFF95
:103B4000FFFFFFFFFFFFFFFFFFFFFFFFFFFFFFFF85
:103B5000FFFFFFFFFFFFFFFFFFFFFFFFFFFFFFFF75
:103B6000FFFFFFFFFFFFFFFFFFFFFFFFFFFFFFFF65
:103B7000FFFFFFFFFFFFFFFFFFFFFFFFFFFFFFFF55
:103B8000FFFFFFFFF7FF965E13340BB703D803B8B0
:103B900003B803B703B70B762BF833B633B533D579
:103BA00033D533D53BB433B433B433B533B53394B1
:103BB000339433943394339533743394337333940D
:103BC000337433742B7502B40B3702F6031602F606
:103BD00002F502F502719DDBF7FFFFFFFFFFFFFF1C
:103BE000FFFFFFFFFFFFFFFFFFFFFFFFFFFFFFFFE5
:103BF000FFFFFFFFFFFFFFFFFFFFFFFFFFFFFFFFD5
:103C0000FFFFFFFFFFFFFFFFFFFFFFFFFFFFFFFFC4
:103C1000FFFFFFFFFFFFFFFFFFFFFFFFFFFFFFFFB4
:103C2000FFFFFFFFFFFFFFFFFFFFFFFFFFFFFFFFA4
:103C3000FFFFFFFFFFFFFFFFFFFFFFFFFFFFFFFF94
:103C4000FFFFFFFFFFFFFFFFFFFFFFFFFFFFFFFF84
:103C5000FFFFFFFFFFFFF7FF9E7E131403B703D99B
:103C600003B9039803B70397039703770B570B56D2
:103C70000B56035503550B550B550B550B350B3593
:103C80000B350B3403150B150B140B140AF40AF443
:103C90000AF402F40AF402F402F502F502F602F55F
:103CA00002F602D502D502509DDAF7FFFFFFFFFFB3
:103CB000FFFFFFFFFFFFFFFFFFFFFFFFFFFFFFFF14
:103CC000FFFFFFFFFFFFFFFFFFFFFFFFFFFFFFFF04
:103CD000FFFFFFFFFFFFFFFFFFFFFFFFFFFFFFFFF4
:103CE000FFFFFFFFFFFFFFFFFFFFFFFFFFFFFFFFE4
:103CF000FFFFFFFFFFFFFFFFFFFFFFFFFFFFFFFFD4
:103D0000FFFFFFFFFFFFFFFFFFFFFFFFFFFFFFFFC3
:103D1000FFFFFFFFFFFFFFFFFFFFFFFFFFFFFFFFB3
:103D2000FFFFFFFFFFFFFFFFF7FF963D131403B7F1
:103D300003B8039903B903B8039703B8039803784A
:103D400003780397037703770377037703770357A2
:103D50000357035703560356033603360336033619
:103D6000033603360316031603160315031503164D
:103D700002F602F602D60AD50A509DDAF7FFFFFFD7
:103D8000FFFFFFFFFFFFFFFFFFFFFFFFFFFFFFFF43
:103D9000FFFFFFFFFFFFFFFFFFFFFFFFFFFFFFFF33
:103DA000FFFFFFFFFFFFFFFFFFFFFFFFFFFFFFFF23
:103DB000FFFFFFFFFFFFFFFFFFFFFFFFFFFFFFFF13
:103DC000FFFFFFFFFFFFFFFFFFFFFFFFFFFFFFFF03
:103DD000FFFFFFFFFFFFFFFFFFFFFFFFFFFFFFFFF3
:103DE000FFFFFFFFFFFFFFFFFFFFFFFFFFFFFFFFE3
:103DF000FFFFFFFFFFFFFFFFFFFFF7FF9E7E133474
:103E0000039703B803B903B8039703B7039703985D
:103E100003780378037703760377037703770356F2
:103E2000035603560356035603360336033603364A
:103E300003360316031603150316031502F50315BF
:103E400002F602F602F602D602D502309DBAF7FF5C
:103E5000FFFFFFFFFFFFFFFFFFFFFFFFFFFFFFFF72
:103E6000FFFFFFFFFFFFFFFFFFFFFFFFFFFFFFFF62
:103E7000FFFFFFFFFFFFFFFFFFFFFFFFFFFFFFFF52
:103E8000FFFFFFFFFFFFFFFFFFFFFFFFFFFFFFFF42
:103E9000FFFFFFFFFFFFFFFFFFFFFFFFFFFFFFFF32
:103EA000FFFFFFFFFFFFFFFFFFFFFFFFFFFFFFFF22
:103EB000FFFFFFFFFFFFFFFFFFFFFFFFFFFFFFFF12
:103EC000FFFFFFFFFFFFFFFFFFFFFFFFF7FF9E7EEC
:103ED0000AF3037603B803B80378037703970397CD
:103EE0000398037803770377037603770377035701
:103EF0000356035703560356033603360336033679
:103F00000336031603160316031602F503150315ED
:103F10000315031602F602F602D602D502509DBA28
:103F2000FFFFFFFFFFFFFFFFFFFFFFFFFFFFFFFFA1
:103F3000FFFFFFFFFFFFFFFFFFFFFFFFFFFFFFFF91
:103F4000FFFFFFFFFFFFFFFFFFFFFFFFFFFFFFFF81
:103F5000FFFFFFFFFFFFFFFFFFFFFFFFFFFFFFFF71
:103F6000FFFFFFFFFFFFFFFFFFFFFFFFFFFFFFFF61
:103F7000FFFFFFFFFFFFFFFFFFFFFFFFFFFFFFFF51
:103F8000FFFFFFFFFFFFFFFFFFFFFFFFFFFFFFFF41
:103F9000FFFFFFFFFFFFFFFFFFFFFFFFFFFFF7FF39
:103FA000963E0AF30B9703D90398039803B8039737
:103FB000039703980378035703770377037703572F
:103FC0000357035703570356033703560336033685
:103FD000033603360316031603160316031602F5FB
:103FE00003150314031502F502F602F502D502507B
:103FF0009DDBF7FFFFFFFFFFFFFFFFFFFFFFFFFF5F
:10400000FFFFFFFFFFFFFFFFFFFFFFFFFFFFFFFFC0
:10401000FFFFFFFFFFFFFFFFFFFFFFFFFFFFFFFFB0
:10402000FFFFFFFFFFFFFFFFFFFFFFFFFFFFFFFFA0
:10403000FFFFFFFFFFFFFFFFFFFFFFFFFFFFFFFF90
:10404000FFFFFFFFFFFFFFFFFFFFFFFFFFFFFFFF80
:10405000FFFFFFFFFFFFFFFFFFFFFFFFFFFFFFFF70
:10406000FFFFFFFFFFFFFFFFFFFFFFFFFFFFFFFF60
:10407000F7FF9E5F12F30B76039703770B770B77AF
:104080000376037703770B570B560B560B560B56DD
:104090000B560B5603360336033603360336033608
:1040A0000316031603160316031502F502F502F5AF
:1040B00002F502F402F402F402D502D502D40AB3E6
:1040C0000A2F9599F7FFFFFFFFFFFFFFFFFFFFFF9D
:1040D000FFFFFFFFFFFFFFFFFFFFFFFFFFFFFFFFF0
:1040E000FFFFFFFFFFFFFFFFFFFFFFFFFFFFFFFFE0
:1040F000FFFFFFFFFFFFFFFFFFFFFFFFFFFFFFFFD0
:10410000FFFFFFFFFFFFFFFFFFFFFFFFFFFFFFFFBF
:10411000FFFFFFFFFFFFFFFFFFFFFFFFFFFFFFFFAF
:10412000FFFFFFFFFFFFFFFFFFFFFFFFFFFFFFFF9F
:10413000FFFFFFFFFFFFFFFFFFFFFFFFFFFFFFFF8F
:10414000FFFFF7FF95FC12B20B140B150B350B1587
:104150000B140B140B140B140AF40AF40AF30AF3ED
:104160000AF30AD40AD30AD30AD30AD30AB30AB386
:104170000AB30AB30AB30A930A930A920A930A92F9
:104180000A720A720A7202720272025202720A52AF
:104190000A5109CD9D99F7FFFFFFFFFFFFFFFFFFCA
:1041A000FFFFFFFFFFFFFFFFFFFFFFFFFFFFFFFF1F
:1041B000FFFFFFFFFFFFFFFFFFFFFFFFFFFFFFFF0F
:1041C000FFFFFFFFFFFFFFFFFFFFFFFFFFFFFFFFFF
:1041D000FFFFFFFFFFFFFFFFFFFFFFFFFFFFFFFFEF
:1041E000FFFFFFFFFFFFFFFFFFFFFFFFFFFFFFFFDF
:1041F000FFFFFFFFFFFFFFFFFFFFFFFFFFFFFFFFCF
:10420000FFFFFFFFFFFFFFFFFFFFFFFFFFFFFFFFBE
:10421000FFFFFFFFFFFFC6DE64976D5A651A651A40
:104220006D3A64F96D3A651A6D1A6D1A6D19651952
:104230006D196D196CF96CF96CF96CFA6CF96CF913
:104240006CF964D964D96CD96CD96CD96CD96CD936
:104250006CD96CB96CB96CB96CB96CB964B96CB91E
:104260006CB96C986415BE3BFFFFFFDFFFDFFFFFFB
:10427000FFFFFFFFFFFFFFFFFFFFFFFFFFFFFFFF4E
:10428000FFFFFFFFFFFFFFFFFFFFFFFFFFFFFFFF3E
:10429000FFFFFFFFFFFFFFFFFFFFFFFFFFFFFFFF2E
:1042A000FFFFFFFFFFFFFFFFFFFFFFFFFFFFFFFF1E
:1042B000FFFFFFFFFFFFFFFFFFFFFFFFFFFFFFFF0E
:1042C000FFFFFFFFFFFFFFFFFFFFFFFFFFFFFFFFFE
:1042D000FFFFFFFFFFFFFFFFFFFFFFFFFFFFFFFFEE
:1042E000FFFFFFFFFFFFFFFFFFFFF7FFEFFFEFFF06
:1042F000EFFFEFFFEFFFEFFFEFFFEFFFEFFFEFFF4E
:10430000F7FFF7FFF7FFF7FFEFFFEFFFF7FFF7FF0D
:10431000EFFFEFFFF7FFF7FFF7FFF7FFF7FFEFFF05
:10432000F7FFF7FFF7FFF7FFF7FFFFFFF7FFF7FFD5
:10433000F7FFF7FFF7FFF7FFFFFFFFFFFFFFFFFFAD
:10434000FFFFFFFFFFFFFFFFFFFFFFFFFFFFFFFF7D
:10435000FFFFFFFFFFFFFFFFFFFFFFFFFFFFFFFF6D
:10436000FFFFFFFFFFFFFFFFFFFFFFFFFFFFFFFF5D
:10437000FFFFFFFFFFFFFFFFFFFFFFFFFFFFFFFF4D
:10438000FFFFFFFFFFFFFFFFFFFFFFFFFFFFFFFF3D
:10439000FFFFFFFFFFFFFFFFFFFFFFFFFFFFFFFF2D
:1043A000FFFFFFFFFFFFFFFFFFFFFFFFFFFFFFFF1D
:1043B000FFFFFFFFFFFFFFFFFFFFFFFFFFFFFFFF0D
:1043C000FFFFFFFFFFFFFFFFFFFFFFFFFFFFFFFFFD
:1043D000FFFFFFFFFFFFFFFFFFFFFFFFFFFFFFFFED
:1043E000FFFFFFFFFFFFFFFFFFFFFFFFFFFFFFFFDD
:1043F000FFFFFFFFFFFFFFFFFFFFFFDFFFFFFFFFED
:10440000FFFFFFFFFFFFFFFFFFFFFFFFFFFFFFFFBC
:10441000FFFFFFFFFFFFFFFFFFFFFFFFFFFFFFFFAC
:10442000FFFFFFFFFFFFFFFFFFFFFFFFFFFFFFFF9C
:10443000FFFFFFFFFFFFFFFFFFFFFFFFFFFFFFFF8C
:10444000FFFFFFFFFFFFFFFFFFFFFFFFFFFFFFFF7C
:10445000FFFFFFFFFFFFFFFFFFFFFFFFFFFFFFFF6C
:10446000FFFFFFFFFFFFFFFFFFFFFFFFFFFFFFFF5C
:10447000FFFFFFFFFFFFFFFFFFFFFFFFFFFFFFFF4C
:10448000FFFFFFFFFFFFFFFFFFFFFFFFFFFFFFFF3C
:10449000FFFFFFFFFFFFFFFFFFFFFFFFFFFFFFFF2C
:1044A000FFFFFFFFFFFFFFFFFFFFFFFFFFFFFFFF1C
:1044B000FFFFFFFFFFFFFFFFFFFFFFFFFFFFFFFF0C
:1044C000FFFFFFFFFFFFFFFFFFFFFFFFFFFFFFFFFC
:1044D000FFFFFFFFFFFFFFFFFFFFFFFFFFFFFFFFEC
:1044E000FFFFFFFFFFFFFFFFFFFFFFFFFFFFFFFFDC
:1044F000FFFFFFFFFFFFFFFFFFFFFFFFFFFFFFFFCC
:10450000FFFFFFFFFFFFFFFFFFFFFFFFFFFFFFFFBB
:10451000FFFFFFFFFFFFFFFFFFFFFFFFFFFFFFFFAB
:10452000FFFFFFFFFFFFFFFFFFFFFFFFFFFFFFFF9B
:10453000FFFFFFFFFFFFFFFFFFFFFFFFFFFFFFFF8B
:10454000FFFFFFFFFFFFFFFFFFFFFFFFFFFFFFFF7B
:10455000FFFFFFFFFFFFFFFFFFFFFFFFFFFFFFFF6B
:10456000FFFFFFFFFFFFFFFFFFFFFFFFFFFFFFFF5B
:10457000FFFFFFFFFFFFFFFFFFFFFFFFFFFFFFFF4B
:10458000FFFFFFFFFFFFFFFFFFFFFFFFFFFFFFFF3B
:10459000FFFFFFFFFFFFFFFFFFFFFFFFFFFFFFFF2B
:1045A000FFFFFFFFFFFFFFFFFFFFFFFFFFFFFFFF1B
:1045B000FFFFFFFFFFFFFFFFFFFFFFFFFFFFFFFF0B
:1045C000FFFFFFFFFFFFFFFFFFFFFFFFFFFFFFFFFB
:1045D000FFFFFFFFFFFFFFFFFFFFFFFFFFFFFFFFEB
:1045E000FFFFFFDFFFFFFFFFFFFFFFFFFFFFFFFFFB
:1045F000FFFFFFFFFFFFFFFFFFFFFFFFFFFFFFFFCB
:10460000FFFFFFFFFFFFFFFFFFFFFFFFFFFFFFFFBA
:10461000FFFFFFFFFFFFFFFFFFFFFFFFFFFFFFFFAA
:10462000FFFFFFFFFFFFFFFFFFFFFFFFFFFFFFFF9A
:10463000FFFFFFFFFFFFFFFFFFFFFFFFFFFFFFFF8A
:10464000FFFFFFFFFFFFFFFFFFFFFFFFFFFFFFFF7A
:10465000FFFFFFFFFFFFFFFFFFFFFFFFFFDFFFFF8A
:10466000FFFFFFFFFFFFFFFFFFFFFFDFFFFFFFFF7A
:10467000FFFFFFFFFFFFFFFFFFFFFFFFFFFFFFFF4A
:10468000FFFFFFFFFFFFFFFFFFFFFFFFFFFFFFFF3A
:10469000FFFFFFFFFFFFFFFFFFFFFFFFFFFFFFFF2A
:1046A000FFFFFFFFFFFFFFFFFFFFFFFFFFFFFFFF1A
:1046B000FFFFFFFFFFFFFFFFFFFFFFFFFFFFFFFF0A
:1046C000FFFFFFFFFFFFFFFFFFFFFFFFFFFFFFFFFA
:1046D000FFFFFFFFFFFFFFFFFFFFFFFFFFFFFFFFEA
:1046E000FFFFFFFFFFFFFFFFFFFFFFFFFFFFFFFFDA
:1046F000FFFFFFFFFFFFFFFFFFFFFFFFFFFFFFFFCA
:10470000FFFFFFFFFFFFFFFFFFFFFFDFFFFFFFFFD9
:10471000FFFFFFFFFFFFFFFFFFFFFFFFFFFFFFFFA9
:10472000FFFFFFFFFFFFFFFFFFFFFFFFFFFFFFFF99
:10473000FFFFFFFFFFFFFFFFFFFFFFFFFFFFFFFF89
:10474000FFFFFFFFFFFFFFFFFFFFFFFFFFFFFFFF79
:10475000FFFFFFFFFFFFFFFFFFFFFFFFFFFFFFFF69
:10476000FFFFFFFFFFFFFFFFFFFFFFFFFFFFFFFF59
:10477000FFFFFFFFFFFFFFFFFFFFFFFFFFFFFFFF49
:10478000FFFFFFFFFFFFFFFFFFFFFFFFFFFFFFFF39
:10479000FFFFFFFFFFFFFFFFFFFFFFFFFFFFFFFF29
:1047A000FFFFFFFFFFFFFFFFFFFFFFFFFFFFFFFF19
:1047B000FFFFFFFFFFFFFFFFFFFFFFFFFFFFFFFF09
:1047C000FFFFFFFFFFFFFFFFFFFFFFFFFFFFFFFFF9
:1047D000FFFFFFFFFFFFFFFFFFFFFFFFFFFFFFFFE9
:1047E000FFDFFFFFFFFFFFFFFFFFFFFFFFFFFFFFF9
:1047F000FFFFFFFFFFFFFFFFFFFFFFFFFFFFFFFFC9
:10480000FFFFFFDFFFFFFFFFFFFFFFFFFFDFFFFFF8
:10481000FFFFFFFFFFFFFFFFFFFFFFFFFFFFFFFFA8
:10482000FFFFFFFFFFFFFFFFFFFFFFFFFFDFFFFFB8
:10483000FFFFFFFFFFFFFFFFFFFFFFFFFFFFFFDFA8
:10484000FFFFFFDFFFFFFFFFFFFFFFFFFFFFFFFF98
:10485000FFFFFFFFFFFFFFDFFFFFFFFFFFFFFFFF88
:10486000FFFFFFFFFFFFEFFFE7DFDF9FDF9FE7DFD8
:10487000E7FFEFDFEFBFE7BFE7BFE7BFE7BFE7BF98
:10488000E7BFE7BFEF9FFFFFFFFFF7FFDF7EDF5EC2
:10489000EFDFF7FFFFFFF7DFE79EE7BFEFDFF7FF91
:1048A000F7FFEFBFE79FE77EF7FFFFFFFFFFF7FF91
:1048B000DF3DDF3DF7FFF7FFF7FFFFFFF7FFEFBF3C
:1048C000EF9FE79FE7BFEFBFEF9EE77FEFBFE79F59
:1048D000EF9FF7DFE75EEFBFF7FFFFFFFFFFE75E4A
:1048E000E77EEF9EFFFFFFFFFFFFEF9FD71DDF5E1D
:1048F000F7FFFFFFF7DFE77FEF9FEF7FEFBFE77F78
:10490000EF9FE77EEF9FEF7FE77FEF9FE77EF7DF89
:10491000E75DEF9FE75EFFFFFFFFFFFFF7DFF7DFDA
:10492000FFFFFFFFFFFFF7BFE73EEF7FF7DFFFFF70
:10493000FFFFE75EEF7FE73E861D54758DB98DFB67
:1049400054975CD8DF9FBE9C54974C779DFAC73F25
:104950006CF8543574D5C6DCF7FFEFFF95B97D3898
:104960008D997D17B69DEFFFE7DF9DD854355C76B6
:10497000E7DFF7FFB69C53B18D36E7DFEFFFC6DD0B
:1049800074B58D788D588D789599EFFFF7FFF7FF07
:10499000CEFC84B54B736C36D6FDD71D74964B7226
:1049A0006C14C6DEDF5F84D643328519F7FFF7FF4C
:1049B00084F55B90ADB8F7FFF7FFA5BA7C9484D57A
:1049C000953884B6B63AEFDF74564B1163B3CEFF19
:1049D000BE7D532F8493CEFD8CF753525330B63B9C
:1049E000EFBF9D3542CEA5B9FFFFFFFFFFFF73F379
:1049F0008CB6F7FFFFFFFFFFEFBF8C7552D15B3323
:104A0000F7FFF7DFADB952EF94B56539861DD7FFD3
:104A10007DFC1B334C56EFFFE7FF2BB51354BF7FD4
:104A2000DFFF6D9D1AF28579E7FFE7FF74D62AAEA6
:104A3000D7FFDFFF8D992AB0BEFFEFFFDFFF339373
:104A400012B16CD8E7FFD7FF4371E7DFEFFFB6BEC7
:104A50002A8E7CF6E7FFE7FF6C745371EFFFF7FFD8
:104A6000FFFFEFFFBE9D09AD6437EFFFF7FFAE5FBD
:104A7000016C7CF8EFFFF7FFCF1F018C09EEB63C0D
:104A8000F7FFCF7F6C54DF7FF7FF955B21CDA5FA51
:104A9000EFFFE7FF42CE7C74F7FFD77F00E93AB023
:104AA000E7DFE7FF198AE79FF7FFC6DF116B3AAF31
:104AB000EFFFF7FFF7FF21EBEFFFFFFFFFDFF7FF50
:104AC0000066428FF7FFFFFFFFFFFFFFD6DF298E53
:104AD00000298456F7FFF7FF426DDF3F8D77DFFF38
:104AE000BFDF33B422EFE7FFF7FFEFFF2BB52395CE
:104AF000DFFFDFFF7E1E1AF38DDBDFFF969F22F1C3
:104B00006CF7E7FFF7FFE7FF1AD233B5EFFFE7FFD8
:104B10007D9A23531AD28E1FDFFF5BF2F7FFEFFF60
:104B200064B909EDEFFFF7FFF7FFF7FF7433F7FF05
:104B3000F7FFF7FEFFFFCF1F09AE6CB9F7FFF7FFD6
:104B4000BEFF118C8D18F7FFFFFFDF3F43722B1262
:104B500011EDDFFFCF7F9578E79FF7FF094C4B34CE
:104B6000F7FFFFFFF7FFC6DB8CB4F7FFEFFF84F61C
:104B7000010A9DFEA61E84D7FFFFF7FFCF3F11ACB1
:104B80005372F7FFFFFFFFFF3A8EEFFFF7FFFFFFC4
:104B90008CD7320E112BA59CFFFFFFFFFFFFCEDD50
:104BA0009519214C10ACBDFFEFDF5B70DF3FEFFFCD
:104BB000E7FF655A1B119E5CE7FFFFFFEFFF33F62F
:104BC0001B548D99A63B4C991B138DDBDFFF5CFAC0
:104BD0000AB1961CEFFFF7FFEFFF1B341B54CF3FCA
:104BE000EFFF74F6CFFF0A712335BFBF53F3F7FF12
:104BF000D75F33541A70F7FFFFFFF7FFF7FFEFFFA0
:104C0000E7DFF7FFF7FFF7FFCF1F09CE6479F7FF64
:104C1000EFDFC6DF116C9538F7FFFFFFD6FD74B7E5
:104C200085DD01CE22B1DFFF8D17E79FCF1F094D34
:104C30005BD7F7FFEFBFEFFFEFFFEFFFEFFFF7FFF0
:104C4000E7DF11AD3AF3220DEFFFF7DFFFFFCF1FD4
:104C500019AD4AF1F7FFFFFFFFFF3A6DEFFFF7FFD6
:104C6000F7FF42AFEFFF006A6395F7FFFFFFF7FF23
:104C7000C67AA599DF1F002A296FF7FF5B51E73F2E
:104C8000E7FFA69D1B1233F5DFFFE7FFEFDFE7FF2E
:104C90002BD61B74C73FE7FF6D9D12F38DDBD7FF4B
:104CA0005D1B12D195FBEFFFFFFFEFFF1B541B5461
:104CB000CF7FEFDF6C74DFFFA67F1230653B4C3592
:104CC000EFFFCF1E33131A50EFFFC6BC4351331111
:104CD00033316496E7FFD75FF7FFCF1F09AE6499C2
:104CE000F7FFF7FFC6DF116B8CF8F7FFF7FFD71D53
:104CF0006C34DFFF4C1709EE64779DBAEFDFC6BD59
:104D0000012C5BD7F7FF84953AD02A8F3AAFADDB01
:104D1000FFFFFFFF9D5C0089A5BAF7FFFFFFF7DFEC
:104D2000CEFF19AC5352F7FFFFFFFFFF3A6DEFFFC5
:104D3000F7FF8CD684B6BE7F21F1112DC67DF7FF1B
:104D4000FFFFBE5A9517F7FF8C9908496B7663539E
:104D5000E73FDFFF43F42353A77FD7FF8D98CEFDB6
:104D6000E7FF2BD61B74D7DFE7FF7DFE1B1385DB28
:104D7000DFFF965E22F16CF7E7FFF7FFE7FF12D146
:104D800033B4EFFFEFDF7CD5E7FFE7FF6C770A91E5
:104D900012B0EFFFEFFF5C1611EEEFFFE7FFB71F5A
:104DA00023122B32DFFFA65D2A4CAE3CCF5F09AD4C
:104DB0006C77F7FFF7FFBEDF118C8CF8F7FFF7FF7A
:104DC000CEFD6C34E7FFDFFF1A2F11AD6C56E7BF45
:104DD000F7FF012A4B74EFDFEFFFA63F00CB84D92A
:104DE000EFDFF7DFFFFFB5DF088AC69DF7FFFFFFA4
:104DF000FFFFCEFF116B5353F7FFF7DFFFFF3A2C96
:104E0000F7FFEFFF63D2745484D86BF8008A8CB834
:104E1000F7FFFFFFCE9C94F6EFDFF7DF52B1088B70
:104E2000298EEF9F7E3F12F275DDCFFF96FF339301
:104E3000CF7FDFFF2BD61353D7FFDFFF7DDD12D2ED
:104E40008DFCE7FFE7FF5C1322AFD7FFDFFF8D99F3
:104E50001A2DCF7FEFFFEFFF74D6DFFFF7FFE7BF1D
:104E6000339401EEEFFFF7FFBEBF19CC7CD7DFFF15
:104E7000AF1F124E3B31E7FF9DDB220DC77FBF1FE7
:104E8000096B84F8FFFFF7FFC75F014B853AEFFF1F
:104E9000F7FFDF5F6414E7FFEFFFBEBE094C5394DA
:104EA000EFDFF7FF84F70129B65DEFFF9DBE00AA93
:104EB0008497F7FFF7FFF7FFB63F0069C6BFF7FF1C
:104EC000FFFFFFFFF7FF196A21CDEFFFF7FFBE3BA2
:104ED0007C14F7FFAE1D7476EFFFF7FFEFDF3A515A
:104EE0000089F7FFF7FFCE9D9D59F7FFFFFFDF1FFA
:104EF000214D10CBEF9F3C9A3C7854B8549734170F
:104F00004477D7DF8DBA341734577518AEBE4C5777
:104F10003BF64BD4A63BF7FFEFFF963D4C565C9714
:104F20006CB7D77FF7FFEFBF84D43B716C96F7FF68
:104F3000F7FFB73F1AD1EFFFF7FFF7FFD79F6435B1
:104F40004BD44C158DFC7495E7FFDFFF8D7A5C56D2
:104F5000226F8519EFFFFFFFCE9C43523B53433234
:104F6000A5FCE7BF4B0E3B1095BAEFFFF7FF959DF1
:104F70005BD6F7FFF7FFEFFFB69E4B315B935334E1
:104F8000A59D9518F7FFF7FF8CF742D23A9242B0F1
:104F9000ADB9FFFFFFFFF7FFEFDF42F22A50637268
:104FA0008C95F7FFD6FF21CD42D084B4F7FF7C5615
:104FB00042B232313A50F7FF63503A2D63B2F7FFF5
:104FC000FFFFADBE4231EF9FF6EDEEA7EE86F6C6CF
:104FD000F6858342A5ECD76EC6ACBECEBE8E962EAD
:104FE000A6B3A6B2BF149673765396B596968E76F0
:104FF0009F189EB6555176BA76597E797E785E179F
:1050000076BA9F1B4DB85EBC7F5D09681A902DBDB6
:105010001CF92D7B34B91C9724F92CB924DA24D936
:10502000247824992D1A2CD9347834D93416235560
:105030001C5A13F71C38243914382417245725FC1C
:1050400023F6216F4335220F32D421AD320F7D5A22
:1050500075395C7900251041218C2A532A5311B0EF
:105060003B36194D3A705C170A122AF511B019F047
:1050700033152BB8116C320F4B784B773AF4321151
:105080003AD44315A317AA53AB35D45BBB5738A505
:1050900040A7B377A2F5A2D4AB3569CC79EF9231B2
:1050A0009A739A93698C8A529A7389D1AB15D4BB3F
:1050B0008A3181D08A1171AD4928821192B382510F
:1050C0008A3289F18A938A72EECCEEA7E664EE8585
:1050D000FF2593A08487DFAEC6ABBEADC6CF95EBF0
:1050E0009650A6D3AED29EB47E138EB58E958E9575
:1050F0008E96B7586D9355D6769976587E996617E1
:1051000055D79F3C665A3DFA87BE1AEC096A253C82
:105110001D3A1D1A2CF91C771CD91CB91CB91CB9D5
:105120001C7914581CB924B92478353A23530AD26F
:10513000149B13B714181C390BD713F71C16153B07
:1051400024B921F02A9422102232194D194C7D5B8A
:105150007D5A5C9A00260000214C21D11A32094F59
:105160002AB4116E21CE4BB611D122D511F1094EC0
:1051700022732BB9096D29AC43384378327219AFC9
:105180003AB532F58336AA539A72D41AAAF5202377
:10519000590ABB579A949AB4A2F5616C694C9A5219
:1051A0008A129A94698E81B0921281D19273D4BB83
:1051B0009AB3714E81D1696D490881D0929371EF94
:1051C00079D081D17A118A32EEAAEE86E643E6449E
:1051D000FF66B4A06B62D78ECECBBEABC6F0A62B5B
:1051E0008E0DAEF4A6B0AEF47DD37E548E958E9522
:1051F0008675AF588E1545536EB96E5876796E58D0
:1052000045758EFB86FC35B877BF349300A614999C
:10521000155B14D9255B1C78149914D914B9149A08
:105220001CBA14580C7814591C382D3B1B52020F11
:105230000C7B0BB70BD714390B970C181BF70C789A
:10524000257B2A7119D2225219D0112C08EB7D5BD3
:1052500085BB4C5A00470000212C11701232014FBF
:105260001A3311B0116D435419F11A951253014EAE
:1052700011D12B78012C29AC437932D62A3119D09F
:105280003A962AF66336A23291D0CBB99252304682
:1052900079CFB2F69294AB159AB350EA610C9A5357
:1052A00081D19A7479D0794F91F281D189F1CC5A18
:1052B000B397690D8190694C40C889F29252698E0A
:1052C000718E81B179F181F1EEC7F684EE44DDE3B0
:1052D000FEE6E6227300BEACCF2CBE8ABECFBECFA8
:1052E0008DEBA6B3AEB2BF138DF16DF386958E959F
:1052F0008E9596B5A6D74D73669876786E387E9A59
:105300005DB65E17971C4E3A571D45D800C613F67A
:105310001D5D14B9257C24DA0C7914DA14B91499BA
:105320001CDA1CB914380BF813F81CD93496120E79
:105330000B7714190BD7141813D70C181BF813D6A6
:105340002DDC32F3117132D519CF194C090E6CBB1B
:1053500095FC3BF8008A0001212B11701A5209902C
:1053600009B21A32114C3AF322521A741A9509D022
:10537000099022F700CA320F4BB919D132732A5360
:10538000327533174B15923299D0B31681B0694DEF
:105390009A739A539AD4BBB892923847696E9233F3
:1053A00081D18A128A11796F921289F281D1B3B7B1
:1053B000CC5A718E714E612C38879A9481F1698E26
:1053C00071AE81D1821279F0EF0BEEA4EE65DDE3D0
:1053D000DDC3FF258B409528DFADC6AABE8CCF5319
:1053E0009E0C962EBF14BF109E2E761186B68E751B
:1053F0008E958654AF386DD4459476996E587EB9A3
:105400006E5845558F1B76DC3E7B4E9B01690374BD
:105410001D9E14B9251B251B0C381CBA1CDA1479E7
:105420001CBA24DA13D70BF80BB80C175F3E3B31CC
:1054300000EB14590BF8141813F803D713F713D70C
:105440002DFC335411503B3619CD116D11704B7832
:105450007D7B5CBA012E0002192901501A5411B04B
:1054600001702AD6218D21AF1A10227422D61A94E7
:10547000121222F7006731F04B78198E4B373AB58C
:10548000325432D632F57A73A1F19212921289F126
:105490008A319273A2F5B377A2D33867616E8A130B
:1054A0008A1189D2923281D091F189F281B0A3150B
:1054B000DCDC821160CB612B30669AD479D079D054
:1054C000823179B081F179CFF76FEEC7EE84E624AF
:1054D000CD21EE64B4C58425DFADCECBBE8ACF32FC
:1054E000B66F8DABBF13B6CFC6EF85CE86D596F718
:1054F000863486549ED68E765D736E5876796E7736
:1055000076B95DF77EDA5E1835B84EDC2B9102F184
:105510000DBE14FA1CB9255C147814791CFB14997F
:105520001CBA24FA13B60BB70BF80356679F5D99A4
:1055300000050BB60C39141814180BD70BF80C1700
:10554000253A3BD5116F331621CF118F09902A953B
:10555000649A757C2AB4000110A509701A3411D11F
:10556000012F32D721CF08CA1A112AD62B172AF6B3
:105570000A12545B320E10A83A9329F04B583AB4F1
:10558000329332952AD562B4AA1289D1A27481D1FC
:1055900079D09AD4A2F5AB36B315386740CA9233A6
:1055A0008A1181B09A7381F081B089F17990A2D586
:1055B000DCBC9AD4588A58EA408882528A118231D7
:1055C000821179B081D181F0FF6FEF0CEE84EE444F
:1055D000CD00CD02DE8B9465C6EBCEEBC6AAC6CF5E
:1055E000CED295CBB6EEAEADD7519E2F6DAF8EF627
:1055F0008E9586758E959ED67E156E167699665713
:105600006E987E9A6E7935353578469B6E1922EF05
:1056100004161D5C1CB91D5B1CD914381CFB14BA84
:105620001CBA24D91C1713760C1803563DFD66DEF0
:10563000008602B20C7A0C1814180BF80C19141707
:105640001417343621F02A9521F009B011B01A123E
:105650005C5B651C2AF50002108511B01A3411B08C
:10566000014F229521F00068223233582B16331750
:1056700001F264FD5C180002218C325343383AB4C5
:10568000329332742AD54B14923291D1B2B681D072
:10569000616D9AD4AAF5AB56B336612B20258211E1
:1056A0008A1281B09A5389F0718F8A1181B0A294C5
:1056B000D43BBB9858CA4067594C71B08A3282318A
:1056C00079D079D081B08A11F6EBFF4EF6C6EE6440
:1056D000D561ABE0F74DBD69A5A7CF4CC6CBBE6B7E
:1056E000D712AE2DAE8AAECCC731CF3454695D6EC1
:1056F00097178E968E959ED59ED7761666576E57BF
:105700006E377EB96E3824F52DB93DFAA7FF5C11CE
:1057100001291D3C14FB0CFA255A1C5814BA1CDB39
:105720001CBA1C9824F91B960BD70BB70BD94EBF8C
:105730001A2D01AE0CBA0C180BD70C180C7A23D604
:1057400013352C592A5219F3223211D011D111D10B
:105750005C5B3B9809D00006192B22111A1311B17A
:10576000094F121321F108A92A722B5822F533365A
:1057700009F243FA6D5E002108A7327343173AD449
:1057800032733AB53AD52B147252A1D2BAD68A31B5
:10579000510C8211AB56BBD8AAF5A2F41823494A82
:1057A000823281B189F1923179CF8A1189D19232D5
:1057B000C3B9D45C616C20038231618F81D08211C6
:1057C00071B079D079908A12DD65FF4AF6E7F6A5C7
:1057D000DDE2BC60DDE8D60BA506D78DC6CBBE8A60
:1057E000D70FBE6DAE28BF0CA68CE7F7AE52128263
:1057F0006DB0A7388E7496B59EF67E775E166E777E
:10580000765776577E593D772DB92DFA7FDF9699D9
:1058100000230BD71D5E0CBA255B2CF91479149963
:10582000149914791D1A24580B56141803572DBEB9
:10583000349600E913F814390BD703F80C7A239641
:105840001B5524FB2AD419912AB419D011B11A126C
:105850003AD419F2014E012E22132A3219F21A12E9
:10586000017009D221F121AD22301AB522D7335768
:10587000121122945D1F00C60885327232954316BC
:10588000327342D53AB522F45A74BA54B2D592332F
:10589000612D618EB377C4399293DCBC594B0801FA
:1058A00071CF89B281B09A938231798F91F181B0B1
:1058B000B357E4BD7A300801825069F0612E8A1234
:1058C00079D0718F712E7990D4C4F667FF08EE8677
:1058D000E644E645D5A6CD86A4E5D72CCEEBC6ABEF
:1058E000D72EBE4AB607CF0CA68BC731EFBB4C08EC
:1058F00022A59EF696D696949ED58E9865D76E373D
:10590000767876588699557725572E3B469CAFBEBC
:105910002167022F1D9F14DA14FA257A1CB90C187E
:105920000C79147A14BA2CB9137614190B970C9AB3
:10593000465C08C80A1114BB1C7903D80C5A23769C
:1059400023B6253C2315194F33372A72092E1A53D3
:105950002A31199011B1019219F32A1211B11A12B8
:1059600009B1099119D13250220F11D222F83B9975
:1059700019EF11B05CBF116A10C742B221F14B9709
:105980002A523A953A952AF54294B294BAD59A3366
:10599000718F596D9AB4BC199AB3DCBCA336080058
:1059A00040A881D281D192538A11716F9212819055
:1059B000A2D5E49DA2F5100179EF7A3158ED92530A
:1059C0008232696E690D714FDD86DD64FEE7F6A8EF
:1059D000EE66FF07E6AAD6079C22BE29D76BCEABA0
:1059E000E72EC609B5A6CF0CB6CBA68CF7DAB673F0
:1059F00001405D2EA75796959E95969775F766166A
:105A000076786E587EB97E182CF62E1B2D9997FF4E
:105A1000538F012A1DBE1CFA0CB9257A251A03D909
:105A20000C39149A04592CFA1BB603F813F803B86E
:105A300046DF1A4D008A147B24DB0BF803F923B7E9
:105A40002BF71CDB1B96198F2AB54397112C11D10C
:105A5000223121F019D2097211D2221209911A129F
:105A600011F2015019F1325121EE11D123183BBA34
:105A700019EF114E545E19EF198C4B13096D53F841
:105A800032922A543A9532F632948A73C2B59A53B6
:105A900081F1616D79F0B3F8A335C419D45C38672E
:105AA0001003718F81D181D18A12718F89D189B010
:105AB0009273D3FBB357180279CE8AD350ED925329
:105AC0008A52718F694E692EF6E9CD04EE06FEE921
:105AD000EEA8EE64FFCFFF8E9BA19C64E78CD6C935
