:020000040800F2
:100000003807002029020008050A000877030008C5
:10001000010A0008D9020008930C00080000000043
:10002000000000000000000000000000290A000895
:10003000DD02000800000000070A0008410B00086C
:10004000430200084302000843020008430200087C
:10005000430200084302000843020008430200086C
:10006000430200084302000843020008430200085C
:10007000430200084302000843020008430200084C
:10008000430200084302000843020008430200083C
:10009000430200084302000843020008430200082C
:1000A000430200084302000843020008430200081C
:1000B000430200084302000843020008430200080C
:1000C00043020008430200084302000843020008FC
:1000D00043020008AD0B0008430200084302000879
:1000E00043020008430200084302000843020008DC
:1000F00043020008430200084302000843020008CC
:1001000043020008430200084302000843020008BB
:1001100043020008430200084302000843020008AB
:10012000430200084302000843020008430200089B
:10013000430200084302000843020008430200088B
:10014000430200084302000843020008430200087B
:10015000430200084302000843020008430200086B
:10016000430200084302000843020008430200085B
:10017000430200084302000843020008430200084B
:10018000430200084302000800F002F800F03CF8C7
:100190000AA090E8000C82448344AAF10107DA45E2
:1001A00001D100F031F8AFF2090EBAE80F0013F0F8
:1001B000010F18BFFB1A43F001031847F0F80000C5
:1001C00010F90000103A24BF78C878C1FAD8520755
:1001D00024BF30C830C144BF04680C6070470000C1
:1001E0000023002400250026103A28BF78C1FBD840
:1001F000520728BF30C148BF0B6070471FB500F0E1
:1002000099FE1FBD10B510BD00F033F81146FFF781
:10021000F5FF00F0A3FD00F051F803B4FFF7F2FF83
:1002200003BC00F038FD000009488047094800473A
:10023000FEE7FEE7FEE7FEE7FEE7FEE7FEE7FEE796
:10024000FEE7FEE704480549054A064B70470000F3
:10025000450B0008890100083801002038070020FC
:1002600038030020380300207047704770477047FC
:100270007047754600F02CF8AE46050069465346B7
:1002800020F00700854618B020B5FFF7DBFFBDE87A
:1002900020404FF000064FF000074FF000084FF0ED
:1002A000000B21F00701AC46ACE8C009ACE8C0097E
:1002B000ACE8C009ACE8C0098D46704710B50446EB
:1002C000AFF300802046BDE81040FFF7A6BF000056
:1002D00000487047D400002000BFFEE77047F0B52B
:1002E0000A4600210023002400BF3DE0012505FA55
:1002F00001F3156805EA03049C4234D105684F00F8
:100300000326BE40B543056015794E00B54006682A
:10031000354305601579012D02D01579022D16D1CE
:1003200085684F000326BE40B543856055794E0071
:10033000B540866835438560456801268E40B543E3
:100340004560456896798E40B6B235434560C568CC
:100350004F000326BE40B543C560D5794E00B54079
:10036000C6683543C560491C1029BFD3F0BD418321
:1003700070470183704700BFFEE72DE9F041044656
:100380000D4616461F462A2000F028FBA11C88B205
:1003900000F0FCFAB11C88B200F0F8FA2B2000F053
:1003A0001DFBE91C88B200F0F1FAF91C88B200F0DC
:1003B000EDFA2C2000F012FBBDE8F08170B5054687
:1003C0000E4614463146284600F09AF9204600F0C1
:1003D000DDFA70BD2DE9F04706460F4614461D466E
:1003E000DDF820A0681E83B2601E82B23946304616
:1003F000FFF7C3FFB9460EE0B04606E0504600F0F6
:10040000C5FA08F101001FFA80F8A045F6DB09F1F2
:1004100001001FFA80F9A945EEDBBDE8F087000076
:100420001CB50121482000F0EFFA4FF480500090F5
:1004300001208DF8040000208DF8060003208DF8BF
:10044000050069462848FFF74AFF20200090012058
:100450008DF8040000208DF8060003208DF80500BB
:1004600069462248FFF73BFF1020009001208DF8DD
:10047000040000208DF8060003208DF80500694671
:100480001A48FFF72CFF4FF40040009001208DF830
:10049000040000208DF8060003208DF80500694651
:1004A0001248FFF71CFF0220009001208DF8040085
:1004B00000208DF8060003208DF8050069460B48E2
:1004C000FFF70DFF4FF48070009001208DF80400BD
:1004D00000208DF8060003208DF8050069460448C9
:1004E000FFF7FDFE1CBD000000180240000C02409A
:1004F0000010024010B5FFF793FF10217E48FFF770
:1005000038FF142000F0E8FB10217B48FFF72FFF95
:10051000142000F0E1FB10217748FFF72AFF782034
:1005200000F0DAFB4FF480717448FFF722FF1120CE
:1005300000F054FA782000F0CFFBB12000F04EFA22
:10054000052000F039FA3A2000F036FA3A2000F09F
:1005500033FAB22000F042FA052000F02DFA3A20DA
:1005600000F02AFA3A2000F027FAB32000F036FA19
:10057000052000F021FA3A2000F01EFA3A2000F09F
:100580001BFA052000F018FA3A2000F015FA3A207C
:1005900000F012FAB42000F021FA032000F00CFA67
:1005A000022000F009FAC02000F018FAA92000F09B
:1005B00003FA092000F000FA842000F0FDF9C120C0
:1005C00000F00CFAC42000F0F7F9C22000F006FA9F
:1005D0000D2000F0F1F9002000F0EEF9C32000F04A
:1005E000FDF98D2000F0E8F96A2000F0E5F9C4205B
:1005F00000F0F4F98D2000F0DFF9EE2000F0DCF9D6
:10060000C52000F0EBF9052000F0D6F9362000F007
:10061000E5F9C82000F0D0F93A2000F0DFF9052014
:1006200000F0CAF9E02000F0D9F9072000F0C4F981
:100630001E2000F0C1F90F2000F0BEF9192000F0D3
:10064000BBF93A2000F0B8F9342000F0B5F92C20BD
:1006500000F0B2F92E2000F0AFF92C2000F0ACF938
:100660002A2000F0A9F9312000F0A6F93A2000F084
:10067000A3F9002000F0A0F9022000F09DF901206C
:1006800000F09AF9102000F097F9E12000F0A6F9A7
:10069000042000F091F91B2000F08EF90B2000F0EF
:1006A0008BF9132000F088F9302000F085F92A201A
:1006B00000F082F9252000F07FF92A2000F07CF973
:1006C000292000F079F9272000F076F9302000F099
:1006D00073F93D2000F070F9002000F06DF9012061
:1006E00000F06AF9042000F067F9102000F064F9C6
:1006F000292000F073F910BD000C024000100240E8
:1007000070B504460D462B46224629462046FFF783
:1007100034FE70BD2DE9FF5F80468A4617469B4632
:100720000F9D00200290CDF80080284605EBD07187
:10073000C1F347042046E21704EB5272D21021465F
:10074000E31704EB5373DB10A4EBC3030BB10123DA
:1007500000E000231A446A4392B20192A7F12000FC
:10076000C7B20AEB0500401E83B208EB0400401E2E
:1007700082B251464046FFF700FE002669E00C2D8C
:1007800007D107EB4700354901EB8000805D0390FE
:100790001BE0102D05D1324800EB0710805D03905F
:1007A00013E0182D07D107EB47002E4901EB00108D
:1007B000805D039009E0202D05D12B4800EB8710C8
:1007C000805D039001E0BDE8FF9F4FF000093AE033
:1007D0001098C8B9012000FA09F00399084018B12F
:1007E000584600F0D3F802E00E9800F0CFF80298D7
:1007F000401CC0B20290029890FBF4F104FB11007F
:10080000E8B90020029021E0012000FA09F00399E4
:10081000084020B15A4651464046FFF7CFFD08F147
:1008200001001FFA80F80098A8EB0000A04206D152
:10083000DDF800800AF101001FFA80FA06E009F1F4
:10084000010000F0FF09B9F1080FC1DB00BF701C07
:1008500086B20198864292DB00BFB4E72EBD000845
:10086000A2C1000892C7000862D900082DE9FC5F08
:100870000746884615461E46DDF83090002408EBF2
:100880000600401E83B27819401E82B241463846A7
:10089000FFF773FDA2461CE04FF0000B13E019F8C0
:1008A00014200192012000EB440019F8001000917F
:1008B000DDE9001241EA022000F068F8641C0BF147
:1008C00001001FFA80FBAB45E9DB0AF101001FFACA
:1008D00080FAB245E0DBBDE8FC9F2DE9FE4F0546FE
:1008E0000F4614469846DDE90D6ADDF8309017E0B2
:1008F0007F2D01DC7F2F01DDBDE8FE8FF0B2CDE959
:10090000010ACDF800902278434639462846FFF781
:1009100001FF304606EBD07105EB61018DB2641C1E
:1009200020787E2802DC20782028E1DA00BFE3E787
:1009300070B5044602211348FFF719FD002519E0A0
:100940004FF480511048FFF712FD04F0800020B1F1
:1009500020210C48FFF70DFD03E020210948FFF797
:1009600006FD4FF480510848FFF703FD6006040EB2
:10097000681CC5B2082DE3DB02210248FFF7F9FC31
:1009800070BD0000000C02400018024010B5044683
:100990004FF400410748FFF7ECFC2012FFF7C8FFB7
:1009A000E0B2FFF7C5FF4FF400410248FFF7E1FC5A
:1009B00010BD0000000C024010B504464FF4004189
:1009C0000548FFF7D6FC2046FFF7B2FF4FF4004181
:1009D0000148FFF7CEFC10BD000C024010B50446E4
:1009E0004FF400410548FFF7C2FC2046FFF7A0FF87
:1009F0004FF400410148FFF7BCFC10BD000C024061
:100A000000BFFEE77047704729B1064A12680243EB
:100A1000044B1A6004E0034A12688243014B1A60D7
:100A20007047000030380240704700000CB50020CD
:100A3000019000903448006840F4803032490860EA
:100A400000BF3148006800F4003000900198401C5D
:100A50000190009818B90198B0F5A04FF1D12A483B
:100A6000006800F4003010B10120009001E0002087
:100A700000900098012846D123484030006840F09B
:100A800080502149403108602048006840F44040CF
:100A90001E4908601C48083000681B49083108607E
:100AA0000846006840F4004008600846006840F4CA
:100AB000A05008601648091F0860081F006840F031
:100AC0008070091F086000BF0F48006800F00070C8
:100AD0000028F9D040F205700E4908600A48083035
:100AE000006820F0030008490831086008460068E3
:100AF00040F00200086000BF03480830006800F0C2
:100B00000C000828F8D10CBD0038024000700040ED
:100B100008544007003C0240042808D14FF0E0216F
:100B2000096941F004014FF0E022116107E04FF044
:100B3000E021096921F004014FF0E02211617047C2
:100B40007047000010B51548006840F47000134964
:100B500008601348006840F0010011490860002057
:100B60000F49083108600E4800680E4908400C49DA
:100B700008600D48091D0860081F006820F48020E7
:100B8000091F0860002006490C310860FFF74EFF7E
:100B90004FF0006001498039086010BD88ED00E029
:100BA00000380240FFFFF6FE1030002410B540F27E
:100BB00025511D4800F03EF810B31B4800F064F8C2
:100BC000C4B21A48008800F40040C8B91748008829
:100BD00000F4804060B10A2C03D000201349088043
:100BE00020E01248008840F400401049088019E0D5
:100BF0000D2C06D10D48008840F480400B49088038
:100C000010E00A480088C0F30D0009490C54074859
:100C10000088401C0549088008460088C72801DD77
:100C20000020088010BD00000010014008000020D6
:100C30000C00002070B5024600240023002500208F
:100C400040F66A16B14200D100BFC1F3421501F06F
:100C50001F03012606FA03F3012D02D196893340C2
:100C600006E0022D02D1168A334001E0968A334015
:100C70000C12012606FA04F41688344013B10CB1A4
:100C8000012000E0002070BD01468888C0F3080004
:100C9000704700BFFEE7014600BF704710B504462D
:100CA0006FF00400FFF738FFE11704EB5171C1F357
:100CB000C701074A11701046007800EB4001C1EBF4
:100CC000C0104FF6FF7101EAC0000249088010BD54
:100CD000000000200200002070B504464FF40770A9
:100CE00094FBF0F0C6B24FF4077094FBF0F100FBF8
:100CF000114085B205E04FF4077000F009F8701E4E
:100D0000C6B2002EF7D115B1284600F001F870BD2B
:100D10000146114A12884A434FF0E0235A610022EB
:100D20009A611A46126942F001021A6100BF4FF03F
:100D3000E022106900F001021AB100F48032002AAA
:100D4000F5D04FF0E022126922F001024FF0E023CB
:100D50001A6100229A617047020000200EB5A82097
:100D6000FFF79CFFFFF7C6FBB7E04FF6FF7080234D
:100D70001A46002100900846FFF72CFB57483823FD
:100D80006922002100900B20FFF770FD00200C214C
:100D90004FF6FF724FF47843CDE90021029050A244
:100DA00046210A20FFF799FD00200C214FF6FF7223
:100DB0004FF47843CDE9002102904EA25A2107203A
:100DC000FFF78BFD00200C214FF6FF724FF47843A4
:100DD000CDE9002102904CA26E211020FFF77DFD8D
:100DE0004FF47A70FFF778FF4FF6FF7080231A46B2
:100DF000002100900846FFF7EDFA4FF47840802379
:100E00002022002100900846FFF7E4FA4FF4FC602E
:100E100080234022002100902020FFF7DBFA1F20D2
:100E200080236022002100904020FFF7D3FA4FF684
:100E3000E07080231A46002100906020FFF7CAFA74
:100E40004FF47A70FFF748FF4FF4784040231A467A
:100E5000002100900846FFF7BDFA4FF4FC604023E4
:100E60008022002100901846FFF7B4FA1F2080234B
:100E70004022114600900020FFF7ACFA4FF6FF70B9
:100E800080231A46402100900846FFF7A3FA4FF44A
:100E90007A70FFF721FF4FF6FF7080231A4600217A
:100EA00000900846FFF796FA1C4880231A46002156
:100EB00000900846FFF7DAFC01200C214FF6FF7284
:100EC0000023CDE90021029015A26E210D20FFF72D
:100ED00004FD4FF47A70FFF7FFFE46E73E0F00086F
:100EE000312E3434205446545F4C434420544553EF
:100EF000540000005245534F4C5554494F4E3A311F
:100F0000323878313238000044524956455220492F
:100F1000433A535437373335000000002E3D000864
:100F2000636F6C6F7220646570746820313662691B
:100F3000740000004FF04070E1EE100A7047FFFFB0
:100F4000FFFFFFFFFFFFFFFFFFFFFFFFFFFFFFFFB1
:100F5000FFFFFFFFFFFFFFFFFFFFFFFFFFFFFFFFA1
:100F6000FFFFFFFFFFFFFFFFFFFFFFFFFFFFFFFF91
:100F7000FFFFFFFFFFFFFFFFFFFFFFFFEFFF96BF3A
:100F800013D70C7A047A047A0459047A047A043B5D
:100F9000043B043A043A045A045A045A045A043AE0
:100FA000043A043A043A043A043A043A0419041993
:100FB000041903D83437EFFFFFFFFFFFE7FF12F4F8
:100FC0000BD903F803F803D903B90BB913149E3CEA
:100FD000F7FFFFFFFFFFFFDFFFDFFFFFFFFFFFFF69
:100FE000FFFFFFFFFFFFFFFFFFFFFFFFFFFFFFFF11
:100FF000FFFFFFFFFFFFFFFFFFFFFFFFFFFFFFFF01
:10100000FFFFFFFFFFFFFFFFFFFFFFFFFFFFFFFFF0
:10101000FFFFFFFFFFFFFFFFFFFFFFFFFFFFFFFFE0
:10102000FFFFFFFFFFFFFFFFFFFFFFFFFFFFFFFFD0
:10103000FFFFFFFFFFFFFFFFFFFFFFFFFFFFFFFFC0
:10104000FFFFFFFFFFFFFFFFFFFFFFFFFFFFEFFFC0
:10105000969F13D7047A047A047A045A047A045ABD
:10106000043B043B043A043904390439043A043A91
:1010700004190419041904190419041903F903F9CA
:10108000041903F803B72C17EFFFFFFFFFFFE7FF7B
:101090000AD303B903D803D703B803990B980AF40A
:1010A000963CF7FFFFFFFFFFFFFFFFFFFFFFFFFF84
:1010B000FFFFFFFFFFFFFFFFFFFFFFFFFFFFFFFF40
:1010C000FFFFFFFFFFFFFFFFFFFFFFFFFFFFFFFF30
:1010D000FFFFFFFFFFFFFFFFFFFFFFFFFFFFFFFF20
:1010E000FFFFFFFFFFFFFFFFFFFFFFFFFFFFFFFF10
:1010F000FFFFFFFFFFFFFFFFFFFFFFFFFFFFFFFF00
:10110000FFFFFFFFFFFFFFFFFFFFFFFFFFFFFFFFEF
:10111000FFFFFFFFFFFFFFFFFFFFFFFFFFFFFFFFDF
:10112000EFFF969F13D7045A047B045B045A045ABA
:10113000045A045B043B043A0439043904390419A1
:101140000439041904180418041903F903F903F9FC
:1011500003F903F903F903B82C17E7FFFFFFFFFFBB
:10116000E7FF0AD40BB903B803B803B8039903998E
:101170000AF4961CF7FFF7FFFFFFFFFFFFFFFFFFDB
:10118000FFFFFFFFFFFFFFFFFFFFFFFFFFFFFFFF6F
:10119000FFFFFFFFFFFFFFFFFFFFFFFFFFFFFFFF5F
:1011A000FFFFFFFFFFFFFFFFFFFFFFFFFFFFFFFF4F
:1011B000FFFFFFFFFFFFFFFFFFFFFFFFFFFFFFFF3F
:1011C000FFFFFFFFFFFFFFFFFFFFFFFFFFFFFFFF2F
:1011D000FFFFFFFFFFFFFFFFFFFFFFFFFFFFFFFF1F
:1011E000FFFFFFFFFFFFFFFFFFFFFFFFFFFFFFFF0F
:1011F000FFFFEFFF969F13B6045A045B045B045B8A
:10120000045A045A045B045A043A04390439041990
:10121000041904190419041904190419041903F907
:1012200003F903F903F903F903B82C37E7FFFFFFCC
:10123000FFFFEFFF0AD40B9903B803B803B8039973
:1012400003990AF4961BF7FFFFFFFFFFFFFFFFFF65
:10125000FFFFFFFFFFFFFFFFFFFFFFFFFFFFFFFF9E
:10126000FFFFFFFFFFFFFFFFFFFFFFFFFFFFFFFF8E
:10127000FFFFFFFFFFFFFFFFFFFFFFFFFFFFFFFF7E
:10128000FFFFFFFFFFFFFFFFFFFFFFFFFFFFFFFF6E
:10129000FFFFFFFFFFFFFFFFFFFFFFFFFFFFFFFF5E
:1012A000FFFFFFFFFFFFFFFFFFFFFFFFFFFFFFFF4E
:1012B000FFFFFFFFFFFFFFFFFFFFFFFFFFFFFFFF3E
:1012C000FFFFFFFFEFFF96BF13B60C39045A043B34
:1012D000045A045A045A045A043A043904390419C1
:1012E00004190419041A041A041A041A041903F933
:1012F00003F903F803F803F803F803B82C17E7FF22
:10130000FFFFFFFFEFFF0AD30B98039703B703B765
:1013100003B803980AF49E1BF7FFFFFFFFFFFFFFD0
:10132000FFFFFFFFFFFFFFFFFFFFFFFFFFFFFFFFCD
:10133000FFFFFFFFFFFFFFFFFFFFFFFFFFFFFFFFBD
:10134000FFFFFFFFFFFFFFFFFFFFFFFFFFFFFFFFAD
:10135000FFFFFFFFFFFFFFFFFFFFFFFFFFFFFFFF9D
:10136000FFFFFFFFFFFFFFFFFFFFFFFFFFFFFFFF8D
:10137000FFFFFFFFFFFFFFFFFFFFFFFFFFFFFFFF7D
:10138000FFFFFFFFFFFFFFFFFFFFFFFFFFFFFFFF6D
:10139000FFFFFFFFFFFFEFFF96BF1BB51439043AB5
:1013A000043A043A045A045A045A043A04390439EF
:1013B000043A041A041A041A041A041A041A041A1D
:1013C000041A03F903F903F803F803F803B82C1718
:1013D000E7FFFFFFFFFFEFFF0AD30B98039803B768
:1013E00003B703B803980AF49DFBFFFFFFFFFFFF5D
:1013F000FFFFFFFFFFFFFFFFFFFFFFFFFFFFFFFFFD
:10140000FFFFFFFFFFFFFFFFFFFFFFFFFFFFFFFFEC
:10141000FFFFFFFFFFFFFFFFFFFFFFFFFFFFFFFFDC
:10142000FFFFFFFFFFFFFFFFFFFFFFFFFFFFFFFFCC
:10143000FFFFFFFFFFFFFFFFFFFFFFFFFFFFFFFFBC
:10144000FFFFFFFFFFFFFFFFFFFFFFFFFFFFFFFFAC
:10145000FFFFFFFFFFFFFFFFFFFFFFFFFFFFFFFF9C
:10146000FFFFFFFFFFFFFFFFEFFF969F13B60C3953
:10147000043A043A043A045A043A043A043A04197D
:101480000419041A041A03FA03FA03F903F903F915
:1014900003F903FA03F903F903F803F803D803B7D0
:1014A0002C17E7FFFFFFFFFFE7FF0AB3037803787E
:1014B00003980398039803780AD49DFBF7FFFFFF76
:1014C000FFFFFFFFFFFFFFFFFFFFFFFFFFFFFFFF2C
:1014D000FFFFFFFFFFFFFFFFFFFFFFFFFFFFFFFF1C
:1014E000FFFFFFFFFFFFFFFFFFFFFFFFFFFFFFFF0C
:1014F000FFFFFFFFFFFFFFFFFFFFFFFFFFFFFFFFFC
:10150000FFFFFFFFFFFFFFFFFFFFFFFFFFFFFFFFEB
:10151000FFFFFFFFFFFFFFFFFFFFFFFFFFFFFFFFDB
:10152000FFFFFFFFFFFFFFFFFFFFFFFFFFFFFFFFCB
:10153000FFFFFFFFFFFFFFFFFFFFEFFF969F13B6C9
:101540000C39043A043A043A045A0439041903F8E9
:101550000BD70BB60BB60BB70BB70B960B951395BA
:101560000BB603D803F903F903F903F803D803D83A
:1015700003972BF6E7FFFFFFFFFFE7FF0A700B352E
:101580000B350B350B350B350B150A919DDAF7FF33
:10159000FFFFFFFFFFFFFFFFFFFFFFFFFFFFFFFF5B
:1015A000FFFFFFFFFFFFFFFFFFFFFFFFFFFFFFFF4B
:1015B000FFFFFFFFFFFFFFFFFFFFFFFFFFFFFFFF3B
:1015C000FFFFFFFFFFFFFFFFFFFFFFFFFFFFFFFF2B
:1015D000FFFFFFFFFFFFFFFFFFFFFFFFFFFFFFFF1B
:1015E000FFFFFFFFFFFFFFFFFFFFFFFFFFFFFFFF0B
:1015F000FFFFFFFFFFFFFFFFFFFFFFFFFFFFFFFFFB
:10160000FFFFFFFFFFFFFFFFFFFFFFFFEFFF96BFA3
:101610000B960C590439043A04390439041813D7C9
:101620004D5B655A65396518651865396519651822
:1016300065395D5B1BD603D703D803F903F903D8DB
:1016400003D803972C16EFFFFFFFFFFFEFFF5C149B
:1016500064D864D864B76CB76CD864B85C35BE9C89
:10166000F7FFFFFFFFFFFFFFFFFFFFFFFFFFFFFF92
:10167000FFFFFFFFFFFFFFFFFFFFFFFFFFFFFFFF7A
:10168000FFFFFFFFFFFFFFFFFFFFFFFFFFFFFFFF6A
:10169000FFFFFFFFFFFFFFFFFFFFFFFFFFFFFFFF5A
:1016A000FFFFFFFFFFFFFFFFFFFFFFFFFFFFFFFF4A
:1016B000FFFFFFFFFFFFFFFFFFFFFFFFFFFFFFFF3A
:1016C000FFFFFFFFFFFFFFFFFFFFFFFFFFFFFFFF2A
:1016D000FFFFFFFFFFFFFFFFFFFFFFFFFFFFEFFF2A
:1016E0008E5F13B60C390439045A043A04390C18C5
:1016F0000B33CFFFDFFFE7FFE7FFE7FFE7FFE7FF82
:10170000EFFFDFFFCFFF34570BB703F903F903B83F
:1017100003D803B803972BF6EFFFFFFFFFFFFFFF90
:10172000EFFFEFFFEFFFEFFFF7FFF7FFEFFFEFFF39
:10173000FFFFFFFFF7FFF7FFFFFFFFFFFFFFFFDFE9
:10174000FFFFFFFFFFFFFFFFFFFFFFFFFFFFFFFFA9
:10175000FFFFFFFFFFFFFFFFFFFFFFFFFFFFFFFF99
:10176000FFFFFFFFFFFFFFFFFFFFFFFFFFFFFFFF89
:10177000FFFFFFFFFFFFFFFFFFFFFFFFFFFFFFFF79
:10178000FFFFFFFFFFFFFFFFFFFFFFFFFFFFFFFF69
:10179000FFFFFFFFFFFFFFFFFFFFFFFFFFFFFFFF59
:1017A000FFFFFFFFFFFFFFFFFFFFFFFFFFFFFFFF49
:1017B000F7FF9E9F139604180459043A043A043A1A
:1017C0000C181353CFFFEFFFF7FFF7FFF7FFFFFFF3
:1017D000FFFFF7FFE7FFDFFF33F50B9603D803B8F2
:1017E00003F903B803B803972BF6EFFFFFFFFFFFE2
:1017F000FFFFFFFFF7FFF7FFF7FFFFFFF7FFEFFF29
:10180000F7FFFFDFFFDFFFFFFFFFFFFFFFFFFFFF30
:10181000FFFFFFFFFFFFFFFFFFFFFFFFFFFFFFFFD8
:10182000FFFFFFFFFFFFFFFFFFFFFFFFFFFFFFFFC8
:10183000FFFFFFFFFFFFFFFFFFFFFFFFFFFFFFFFB8
:10184000FFFFFFFFFFFFFFFFFFFFFFFFFFFFFFFFA8
:10185000FFFFFFFFFFFFFFFFFFFFFFFFFFFFFFFF98
:10186000FFFFFFFFFFFFFFFFFFFFFFFFFFFFFFFF88
:10187000FFFFFFFFFFFFFFFFFFFFFFFFFFFFFFFF78
:10188000FFFFF7FF967F13750C5904590419041ACA
:10189000043A0BF81B33D7FFF7FFFFFFFFFFFFFFF3
:1018A000FFFFFFFFFFFFF7FFD7FF33F50BB603F98D
:1018B00003D803D803B803B803772BF6EFFFFFFF75
:1018C000FFFFF7FFEFFFEFFFEFFFEFFFEFFFEFFF90
:1018D000EFFFEFFFFFFFFFFFFFFFFFFFFFFFFFFF38
:1018E000FFFFFFFFFFFFFFFFFFFFFFFFFFFFFFFF08
:1018F000FFFFFFFFFFFFFFFFFFFFFFFFFFFFFFFFF8
:10190000FFFFFFFFFFFFFFFFFFFFFFFFFFFFFFFFE7
:10191000FFFFFFFFFFFFFFFFFFFFFFFFFFFFFFFFD7
:10192000FFFFFFFFFFFFFFFFFFFFFFFFFFFFFFFFC7
:10193000FFFFFFFFFFFFFFFFFFFFFFFFFFFFFFFFB7
:10194000FFFFFFFFFFFFFFFFFFFFFFFFFFFFFFFFA7
:10195000FFFFFFFFEFFF967F13760BF803D8041904
:1019600003F903B813F71AF2D7FFF7FFFFFFFFFFE2
:10197000FFFFFFBFFFFFFFFFF7FFD7FF33F5039622
:1019800003D903D903D803B803B803772BF6EFFFC5
:10199000FFFFFFFFEFFF4BD4549954984C785478D5
:1019A000547854994BF5B65BF7FFFFFFFFFFFFFE3E
:1019B000FFFFFFFFFFFFFFFFFFFFFFFFFFFFFFFF37
:1019C000FFFFFFFFFFFFFFFFFFFFFFFFFFFFFFFF27
:1019D000FFFFFFFFFFFFFFFFFFFFFFFFFFFFFFFF17
:1019E000FFFFFFFFFFFFFFFFFFFFFFFFFFFFFFFF07
:1019F000FFFFFFFFFFFFFFFFFFFFFFFFFFFFFFFFF7
:101A0000FFFFFFFFFFFFFFFFFFFFFFFFFFFFFFFFE6
:101A1000FFFFFFFFFFFFFFFFFFFFFFFFFFFFFFFFD6
:101A2000FFFFFFFFFFFFF7FF9E7E2B942C373478DC
:101A30002C372C3734583C163331DFDFF7FFFFFFEC
:101A4000FFFFFFFFFFFFFFFFFFFFEFFFD7FF33F5B4
:101A50000BB703D803B803D803B803B803772BF642
:101A6000EFFFFFFFFFFFE7FF0A5013350B150B35A4
:101A70000B150AF513150A719DDAF7FFF7FFFFFF43
:101A8000FFFFFFFFFFFFFFFFFFFFFFFFFFFFFFFF66
:101A9000FFFFFFFFFFFFFFFFFFFFFFFFFFFFFFFF56
:101AA000FFFFFFFFFFFFFFFFFFFFFFFFFFFFFFFF46
:101AB000FFFFFFFFFFFFFFFFFFFFFFFFFFFFFFFF36
:101AC000FFFFFFFFFFFFFFFFFFFFFFFFFFFFFFFF26
:101AD000FFFFFFFFFFFFFFFFFFFFFFFFFFFFFFFF16
:101AE000FFFFFFFFFFFFFFFFFFFFFFFFFFFFFFFF06
:101AF000FFFFFFFFFFFFFFFFFFFFF7FFEFFFE7FF26
:101B0000E7FFEFFFEFFFE7FFE7FFF7FFFFFFFFFF55
:101B1000FFFFFFFFFFFFFFFFFFDFFFFFFFFFDFFF15
:101B200033B40B7503D803B803D803B8039803770D
:101B30002BD7EFFFFFFFFFFFEFFF0A920B570B566C
:101B40000B56035603560B570AB29DDAF7FFFFFFF9
:101B5000FFFFFFFFFFFFFFFFFFFFFFFFFFFFFFFF95
:101B6000FFFFFFFFFFFFFFFFFFFFFFFFFFFFFFFF85
:101B7000FFFFFFFFFFFFFFFFFFFFFFFFFFFFFFFF75
:101B8000FFFFFFFFFFFFFFFFFFFFFFFFFFFFFFFF65
:101B9000FFFFFFFFFFFFFFFFFFFFFFFFFFFFFFFF55
:101BA000FFFFFFFFFFFFFFFFFFFFFFFFFFFFFFFF45
:101BB000FFFFFFFFFFFFFFFFFFFFFFFFFFFFFFFF35
:101BC000FFFFFFFFFFFFFFFFFFFFFFFFF7FFF7FF35
:101BD000EFFFEFFFEFFFEFFFEFFFEFFFEFFFEFFF95
:101BE000EFFFF7FFEFFFF7FFEFFFF7FFF7FFEFFF65
:101BF000D7FF34160B7603B803B803B803B803B89D
:101C000003772BD7EFFFFFFFFFFFEFFF0A9203578A
:101C1000037703560376037703370AB29DFBF7FF7A
:101C2000FFFFFFFFFFFFFFFFFFFFFFFFFFFFFFFFC4
:101C3000FFFFFFFFFFFFFFFFFFFFFFFFFFFFFFFFB4
:101C4000FFFFFFFFFFFFFFFFFFFFFFFFFFFFFFFFA4
:101C5000FFFFFFFFFFFFFFFFFFFFFFFFFFFFFFFF94
:101C6000FFFFFFFFFFFFFFFFFFFFFFFFFFFFFFFF84
:101C7000FFFFFFFFFFFFFFFFFFFFFFFFFFFFFFFF74
:101C8000FFFFFFFFFFFFFFFFFFFFFFFFFFFFFFFF64
:101C9000FFFFFFFFFFFFFFFFFFFFFFFFF7FFD79FE4
:101CA000965C96BE96BF969F96BF9EBF969E96BF29
:101CB00096BF96BF969F9E9F9E9F969F969F9EBF04
:101CC000969F86BF2417037703B803B80398039839
:101CD000039803772BD6EFFFFFFFFFFFE7FF0A9282
:101CE0000357037703760357035703370AB29DFB65
:101CF000F7FFFFFFFFFFFFFFFFFFFFFFFFFFFFFFFC
:101D0000FFFFFFFFFFFFFFFFFFFFFFFFFFFFFFFFE3
:101D1000FFFFFFFFFFFFFFFFFFFFFFFFFFFFFFFFD3
:101D2000FFFFFFFFFFFFFFFFFFFFFFFFFFFFFFFFC3
:101D3000FFFFFFFFFFFFFFFFFFFFFFFFFFFFFFFFB3
:101D4000FFFFFFFFFFFFFFFFFFFFFFFFFFFFFFFFA3
:101D5000FFFFFFFFFFFFFFFFFFFFFFFFFFFFFFFF93
:101D6000FFFFFFFFFFFFFFFFFFFFFFFFFFFFF7FF8B
:101D70009E7D23731BB51BF61BD61BD623D61BB526
:101D80001BD51BB51BB61BB61BB61B961BB613B6D5
:101D90001B9513B513D70BB703D903B903B803B811
:101DA0000398039803772BD6EFFFFFFFFFFFE7FFB2
:101DB0000A920357037703760357035703370AB290
:101DC00095FBF7FFFFFFFFFFFFFFFFFFFFFFFFFF99
:101DD000FFFFFFFFFFFFFFFFFFFFFFFFFFFFFFFF13
:101DE000FFFFFFFFFFFFFFFFFFFFFFFFFFFFFFFF03
:101DF000FFFFFFFFFFFFFFFFFFFFFFFFFFFFFFFFF3
:101E0000FFFFFFFFFFFFFFFFFFFFFFFFFFFFFFFFE2
:101E1000FFFFFFFFFFFFFFFFFFFFFFFFFFFFFFFFD2
:101E2000FFFFFFFFFFFFFFFFFFFFFFFFFFFFFFFFC2
:101E3000FFFFFFFFFFFFFFFFFFFFFFFFFFFFFFFFB2
:101E4000F7FF9E7E135313F70C180BF90BD80BD822
:101E50000BF70BD70BD70BD80BD80BB70BB70BB7B0
:101E60000BB703960BD7037603B703B803B803B8D1
:101E700003770398037703572BD6EFFFFFFFFFFF8E
:101E8000E7FF0A92035703770356035703360336D7
:101E90000AB295FBF7FFFFFFFFFFFFFFFFFFFFFF0A
:101EA000FFFFFFFFFFFFFFFFFFFFFFFFFFFFFFFF42
:101EB000FFFFFFFFFFFFFFFFFFFFFFFFFFFFFFFF32
:101EC000FFFFFFFFFFFFFFFFFFFFFFFFFFFFFFFF22
:101ED000FFFFFFFFFFFFFFFFFFFFFFFFFFFFFFFF12
:101EE000FFFFFFFFFFFFFFFFFFFFFFFFFFFFFFFF02
:101EF000FFFFFFFFFFFFFFFFFFFFFFFFFFFFFFFFF2
:101F0000FFFFFFFFFFFFFFFFFFFFFFFFFFFFFFFFE1
:101F1000FFFFF7FF967E13750C1803F903FA03FA17
:101F200003F903F803F803F803F903D903D803D836
:101F300003B803B703B703B803B80397039803982C
:101F4000039703B70397037703572BD6EFFFFFFFE2
:101F5000FFFFEFFF0A71035703570356035703367A
:101F600003360A9295FBF7FFFFFFFFFFFFFFFFFF1E
:101F7000FFFFFFFFFFFFFFFFFFFFFFFFFFFFFFFF71
:101F8000FFFFFFFFFFFFFFFFFFFFFFFFFFFFFFFF61
:101F9000FFFFFFFFFFFFFFFFFFFFFFFFFFFFFFFF51
:101FA000FFFFFFFFFFFFFFFFFFFFFFFFFFFFFFFF41
:101FB000FFFFFFFFFFFFFFFFFFFFFFFFFFFFFFFF31
:101FC000FFFFFFFFFFFFFFFFFFFFFFFFFFFFFFFF21
:101FD000FFFFFFFFFFFFFFFFFFFFFFFFFFFFFFFF11
:101FE000FFFFFFFFF7FF9EBF13750BF8041A03FAFC
:101FF00003FA041903D803F803F903F903D903D842
:1020000003D803D703B703B8039703B8039703D8DC
:102010000397037603970397039703572BD6EFFF96
:10202000FFFFFFFFEFFF0A71033703570356033724
:10203000033603360A9295FBF7FFFFFFFFFFFFFF12
:10204000FFFFFFFFFFFFFFFFFFFFFFFFFFFFFFFFA0
:10205000FFFFFFFFFFFFFFFFFFFFFFFFFFFFFFFF90
:10206000FFFFFFFFFFFFFFFFFFFFFFFFFFFFFFFF80
:10207000FFFFFFFFFFFFFFFFFFFFFFFFFFFFFFFF70
:10208000FFFFFFFFFFFFFFFFFFFFFFFFFFFFFFFF60
:10209000FFFFFFFFFFFFFFFFFFFFFFFFFFFFFFFF50
:1020A000FFFFFFFFFFFFFFFFFFFFFFFFFFFFFFFF40
:1020B000FFFFFFFFFFFFF7FF8E5E137503F80419A4
:1020C00003FA03D903F903F803F903F903F903D970
:1020D00003D903D803B703B703B803D903B80397E9
:1020E000039703B7039703770397037703562BD61A
:1020F000EFFFFFFFFFFFEFFF0A71033703570356A0
:1021000003370336033602929DFBF7FFFFFFFFFF05
:10211000FFFFFFFFFFFFFFFFFFFFFFFFFFFFFFFFCF
:10212000FFFFFFFFFFFFFFFFFFFFFFFFFFFFFFFFBF
:10213000FFFFFFFFFFFFFFFFFFFFFFFFFFFFFFFFAF
:10214000FFFFFFFFFFFFFFFFFFFFFFFFFFFFFFFF9F
:10215000FFFFFFFFFFFFFFFFFFFFFFFFFFFFFFFF8F
:10216000FFFFFFFFFFFFFFFFFFFFFFFFFFFFFFFF7F
:10217000FFFFFFFFFFFFFFFFFFFFFFFFFFFFFFFF6F
:10218000FFFFFFFFFFFFFFFFF7FF967E13950BF8A2
:1021900003B803F903D903F803F803D803D903D923
:1021A00003D903D903D803B803B803B803B9039814
:1021B00003B80398039703970398037803770356AC
:1021C0002BB6E7FFFFFFFFFFEFFF0A710337033670
:1021D000035603370336031602929DFBF7FFFFFFFA
:1021E000FFFFFFFFFFFFFFFFFFFFFFFFFFFFFFFFFF
:1021F000FFFFFFFFFFFFFFFFFFFFFFFFFFFFFFFFEF
:10220000FFFFFFFFFFFFFFFFFFFFFFFFFFFFFFFFDE
:10221000FFFFFFFFFFFFFFFFFFFFFFFFFFFFFFFFCE
:10222000FFFFFFFFFFFFFFFFFFFFFFFFFFFFFFFFBE
:10223000FFFFFFFFFFFFFFFFFFFFFFFFFFFFFFFFAE
:10224000FFFFFFFFFFFFFFFFFFFFFFFFFFFFFFFF9E
:10225000FFFFFFFFFFFFFFFFFFFFF7FF969F0B341E
:102260000BF803F903D903B8041903F803D803B82A
:1022700003B703B703B803B703B7039703B80398CB
:10228000039803770397039703760B760B770B5628
:102290000B3533B4EFFFFFFFFFFFEFFF0A510337AA
:1022A000033603360336033603160A929DFBF7FF07
:1022B000FFFFFFFFFFFFFFFFFFFFFFFFFFFFFFFF2E
:1022C000FFFFFFFFFFFFFFFFFFFFFFFFFFFFFFFF1E
:1022D000FFFFFFFFFFFFFFFFFFFFFFFFFFFFFFFF0E
:1022E000FFFFFFFFFFFFFFFFFFFFFFFFFFFFFFFFFE
:1022F000FFFFFFFFFFFFFFFFFFFFFFFFFFFFFFFFEE
:10230000FFFFFFFFFFFFFFFFFFFFFFFFFFFFFFFFDD
:10231000FFFFFFFFFFFFFFFFFFFFFFFFFFFFFFFFCD
:10232000FFFFFFFFFFFFFFFFFFFFFFFFF7FF967FAE
:102330000B550BD803F803D803D803F803D803B719
:102340000B9613751355137513750B550B551335E4
:10235000133513350B350B350B340B340B340B3471
:1023600013340AF22B52EFFFFFFFFFFFEFFF0A517A
:102370000B3703360336033603160316029295DB3A
:10238000F7FFFFFFFFFFFFFFFFFFFFFFFFFFFFFF65
:10239000FFFFFFFFFFFFFFFFFFFFFFFFFFFFFFFF4D
:1023A000FFFFFFFFFFFFFFFFFFFFFFFFFFFFFFFF3D
:1023B000FFFFFFFFFFFFFFFFFFFFFFFFFFFFFFFF2D
:1023C000FFFFFFFFFFFFFFFFFFFFFFFFFFFFFFFF1D
:1023D000FFFFFFFFFFFFFFFFFFFFFFFFFFFFFFFF0D
:1023E000FFFFFFFFFFFFFFFFFFFFFFFFFFFFFFFFFD
:1023F000FFFFFFFFFFFFFFFFFFFFFFFFFFFFF7FFF5
:10240000967F0B550BD803F803D903D803F803D8EC
:102410000B55763F861E85FC85FD861D7DDD861D60
:1024200085FD85DD85FD85FD85FD7DFD7DFD7DFDD4
:102430007DDC7DFC7DBB95FBF7FFFFFFFFFFEFFF22
:102440000A510317033603360336031603160272C6
:102450009DDBF7FFFFFFFFFFFFFFFFFFFFFFFFFF1A
:10246000FFFFFFFFFFFFFFFFFFFFFFFFFFFFFFFF7C
:10247000FFFFFFFFFFFFFFFFFFFFFFFFFFFFFFFF6C
:10248000FFFFFFFFFFFFFFFFFFFFFFFFFFFFFFFF5C
:10249000FFFFFFFFFFFFFFFFFFFFFFFFFFFFFFFF4C
:1024A000FFFFFFFFFFFFFFFFFFFFFFFFFFFFFFFF3C
:1024B000FFFFFFFFFFFFFFFFFFFFFFFFFFFFFFFF2C
:1024C000FFFFFFFFFFFFFFFFFFFFFFFFFFFFFFFF1C
:1024D000F7FF967F13540BD803D903D903D903D838
:1024E0000BD70AF3CFFFEFFFF7FFF7FFEFFFEFFF89
:1024F000EFFFF7FFF7FFF7FFEFFFEFFFEFFFEFFF54
:10250000EFFFEFFFEFFFEFFFF7FFFFFFFFFFFFFF23
:10251000E7FF0A510B17033603360316031603169B
:1025200002719DDBF7FFFFFFFFFFFFFFFFFFFFFFD4
:10253000FFFFFFFFFFFFFFFFFFFFFFFFFFFFFFFFAB
:10254000FFFFFFFFFFFFFFFFFFFFFFFFFFFFFFFF9B
:10255000FFFFFFFFFFFFFFFFFFFFFFFFFFFFFFFF8B
:10256000FFFFFFFFFFFFFFFFFFFFFFFFFFFFFFFF7B
:10257000FFFFFFFFFFFFFFFFFFFFFFFFFFFFFFFF6B
:10258000FFFFFFFFFFFFFFFFFFFFFFFFFFFFFFFF5B
:10259000FFFFFFFFFFFFFFFFFFFFFFFFFFFFFFFF4B
:1025A000FFFFF7FF967E0B540BD803D903D903D84E
:1025B00003D80BB612F2D7FFF7FFFFFFFFFFFFFFB5
:1025C000FFFFFFDFFFFFFFFFFFFFFFFFFFFFFFFF3B
:1025D000FFFFFFFFFFFFFFFFFFFFFFFFFFFFFFFE0C
:1025E000FFFFE7FF0A510B17033603160316031606
:1025F000031602719DDBF7FFFFFFFFFFFFFFFFFFE9
:10260000FFFFFFFFFFFFFFFFFFFFFFFFFFFFFFFFDA
:10261000FFFFFFFFFFFFFFFFFFFFFFFFFFFFFFFFCA
:10262000FFFFFFFFFFFFFFFFFFFFFFFFFFFFFFFFBA
:10263000FFFFFFFFFFFFFFFFFFFFFFFFFFFFFFFFAA
:10264000FFFFFFFFFFFFFFFFFFFFFFFFFFFFFFFF9A
:10265000FFFFFFFFFFFFFFFFFFFFFFFFFFFFFFFF8A
:10266000FFFFFFFFFFFFFFFFFFFFFFFFFFFFFFFF7A
:10267000FFFFFFFFF7FF967E0B5503D803D903D961
:1026800003D803D80BB612B1D7DFFFFFFFFFFFFF60
:10269000FFDEFFFFFFFFFFFFFFFFFFFFFFFFFFFF6B
:1026A000FFFFFFFFFFFFFFFFFFFFFFFFFFFFFFFF3A
:1026B000FFFFFFFFEFFF02310B1603360316031671
:1026C00002F602F602719DDBF7FFFFFFFFFFFFFF3F
:1026D000FFFFFFFFFFFFFFFFFFFFFFFFFFFFFFFF0A
:1026E000FFFFFFFFFFFFFFFFFFFFFFFFFFFFFFFFFA
:1026F000FFFFFFFFFFFFFFFFFFFFFFFFFFFFFFFFEA
:10270000FFFFFFFFFFFFFFFFFFFFFFFFFFFFFFFFD9
:10271000FFFFFFFFFFFFFFFFFFFFFFFFFFFFFFFFC9
:10272000FFFFFFFFFFFFFFFFFFFFFFFFFFFFFFFFB9
:10273000FFFFFFFFFFFFFFFFFFFFFFFFFFFFFFFFA9
:10274000FFFFFFFFFFFFF7FF967E0B5403B803D98F
:1027500003D903D803D80BB60AD2DFFFF7FFF7FF80
:10276000F7FFF7FFFFFFFFFFFFFFF7FFF7FFF7FFA1
:10277000F7FFF7FFFFFFF7FFF7FFF7FFFFFFFFFF91
:10278000FFFFFFFFF7FFE7FF023102F60316031614
:10279000031602F602F502719DDBF7FFFFFFFFFF54
:1027A000FFFFFFFFFFFFFFFFFFFFFFFFFFFFFFFF39
:1027B000FFFFFFFFFFFFFFFFFFFFFFFFFFFFFFFF29
:1027C000FFFFFFFFFFFFFFFFFFFFFFFFFFFFFFFF19
:1027D000FFFFFFFFFFFFFFFFFFFFFFFFFFFFFFFF09
:1027E000FFFFFFFFFFFFFFFFFFFFFFFFFFFFFFFFF9
:1027F000FFFFFFFFFFFFFFFFFFFFFFFFFFFFFFFFE9
:10280000FFFFFFFFFFFFFFFFFFFFFFFFFFFFFFFFD8
:10281000FFFFFFFFFFFFFFFFF7FF967E133403B8B4
:1028200003D903B803B703D703B70B14AF5FCFDFE8
:10283000D7BFCFBFCFBFCF9FCF9FD7BFD7BFCFBF50
:10284000CFBFD79FD79FD79FD79FCF9FCF7FD79FF0
:10285000D79FCF9FCF9FD7BFC7BF027202F6031685
:102860000316031602F602F502719DDBF7FFFFFF68
:10287000FFFFFFFFFFFFFFFFFFFFFFFFFFFFFFFF68
:10288000FFFFFFFFFFFFFFFFFFFFFFFFFFFFFFFF58
:10289000FFFFFFFFFFFFFFFFFFFFFFFFFFFFFFFF48
:1028A000FFFFFFFFFFFFFFFFFFFFFFFFFFFFFFFF38
:1028B000FFFFFFFFFFFFFFFFFFFFFFFFFFFFFFFF28
:1028C000FFFFFFFFFFFFFFFFFFFFFFFFFFFFFFFF18
:1028D000FFFFFFFFFFFFFFFFFFFFFFFFFFFFFFFF08
:1028E000FFFFFFFFFFFFFFFFFFFFF7FF965E1334C1
:1028F0000BB703D803B803B803B703B70B762BF8AD
:1029000033B633B533D533D533D53BB433B433B421
:1029100033B533B53394339433943394339533745C
:10292000339433733394337433742B7502B40B378D
:1029300002F6031602F602F502F502719DDBF7FFBF
:10294000FFFFFFFFFFFFFFFFFFFFFFFFFFFFFFFF97
:10295000FFFFFFFFFFFFFFFFFFFFFFFFFFFFFFFF87
:10296000FFFFFFFFFFFFFFFFFFFFFFFFFFFFFFFF77
:10297000FFFFFFFFFFFFFFFFFFFFFFFFFFFFFFFF67
:10298000FFFFFFFFFFFFFFFFFFFFFFFFFFFFFFFF57
:10299000FFFFFFFFFFFFFFFFFFFFFFFFFFFFFFFF47
:1029A000FFFFFFFFFFFFFFFFFFFFFFFFFFFFFFFF37
:1029B000FFFFFFFFFFFFFFFFFFFFFFFFF7FF9E7E11
:1029C000131403B703D903B9039803B70397039705
:1029D00003770B570B560B56035503550B550B55E9
:1029E0000B550B350B350B350B3403150B150B1431
:1029F0000B140AF40AF40AF402F40AF402F402F5DD
:102A000002F502F602F502F602D502D502509DDA71
:102A1000F7FFFFFFFFFFFFFFFFFFFFFFFFFFFFFFCE
:102A2000FFFFFFFFFFFFFFFFFFFFFFFFFFFFFFFFB6
:102A3000FFFFFFFFFFFFFFFFFFFFFFFFFFFFFFFFA6
:102A4000FFFFFFFFFFFFFFFFFFFFFFFFFFFFFFFF96
:102A5000FFFFFFFFFFFFFFFFFFFFFFFFFFFFFFFF86
:102A6000FFFFFFFFFFFFFFFFFFFFFFFFFFFFFFFF76
:102A7000FFFFFFFFFFFFFFFFFFFFFFFFFFFFFFFF66
:102A8000FFFFFFFFFFFFFFFFFFFFFFFFFFFFF7FF5E
:102A9000963D131403B703B8039903B903B803971A
:102AA00003B80398037803780397037703770377D2
:102AB0000377037703570357035703560356033629
:102AC000033603360336033603360316031603169E
:102AD00003150315031602F602F602D60AD50A50AC
:102AE0009DDAF7FFFFFFFFFFFFFFFFFFFFFFFFFF85
:102AF000FFFFFFFFFFFFFFFFFFFFFFFFFFFFFFFFE6
:102B0000FFFFFFFFFFFFFFFFFFFFFFFFFFFFFFFFD5
:102B1000FFFFFFFFFFFFFFFFFFFFFFFFFFFFFFFFC5
:102B2000FFFFFFFFFFFFFFFFFFFFFFFFFFFFFFFFB5
:102B3000FFFFFFFFFFFFFFFFFFFFFFFFFFFFFFFFA5
:102B4000FFFFFFFFFFFFFFFFFFFFFFFFFFFFFFFF95
:102B5000FFFFFFFFFFFFFFFFFFFFFFFFFFFFFFFF85
:102B6000F7FF9E7E1334039703B803B903B80397A6
:102B700003B7039703980378037803770376037703
:102B8000037703770356035603560356035603365B
:102B900003360336033603360316031603150316EE
:102BA000031502F5031502F602F602F602D602D567
:102BB00002309DBAF7FFFFFFFFFFFFFFFFFFFFFFA0
:102BC000FFFFFFFFFFFFFFFFFFFFFFFFFFFFFFFF15
:102BD000FFFFFFFFFFFFFFFFFFFFFFFFFFFFFFFF05
:102BE000FFFFFFFFFFFFFFFFFFFFFFFFFFFFFFFFF5
:102BF000FFFFFFFFFFFFFFFFFFFFFFFFFFFFFFFFE5
:102C0000FFFFFFFFFFFFFFFFFFFFFFFFFFFFFFFFD4
:102C1000FFFFFFFFFFFFFFFFFFFFFFFFFFFFFFFFC4
:102C2000FFFFFFFFFFFFFFFFFFFFFFFFFFFFFFFFB4
:102C3000FFFFF7FF9E7E0AF3037603B803B803781D
:102C40000377039703970398037803770377037653
:102C50000377037703570356035703560356033688
:102C6000033603360336033603160316031603161C
:102C700002F5031503150315031602F602F602D634
:102C800002D502509DBAFFFFFFFFFFFFFFFFFFFFCE
:102C9000FFFFFFFFFFFFFFFFFFFFFFFFFFFFFFFF44
:102CA000FFFFFFFFFFFFFFFFFFFFFFFFFFFFFFFF34
:102CB000FFFFFFFFFFFFFFFFFFFFFFFFFFFFFFFF24
:102CC000FFFFFFFFFFFFFFFFFFFFFFFFFFFFFFFF14
:102CD000FFFFFFFFFFFFFFFFFFFFFFFFFFFFFFFF04
:102CE000FFFFFFFFFFFFFFFFFFFFFFFFFFFFFFFFF4
:102CF000FFFFFFFFFFFFFFFFFFFFFFFFFFFFFFFFE4
:102D0000FFFFFFFFF7FF963E0AF30B9703D90398E7
:102D1000039803B80397039703980378035703773F
:102D200003770377035703570357035703560337B4
:102D3000035603360336033603360316031603160B
:102D40000316031602F503150314031502F502F624
:102D500002F502D502509DDBF7FFFFFFFFFFFFFFEB
:102D6000FFFFFFFFFFFFFFFFFFFFFFFFFFFFFFFF73
:102D7000FFFFFFFFFFFFFFFFFFFFFFFFFFFFFFFF63
:102D8000FFFFFFFFFFFFFFFFFFFFFFFFFFFFFFFF53
:102D9000FFFFFFFFFFFFFFFFFFFFFFFFFFFFFFFF43
:102DA000FFFFFFFFFFFFFFFFFFFFFFFFFFFFFFFF33
:102DB000FFFFFFFFFFFFFFFFFFFFFFFFFFFFFFFF23
:102DC000FFFFFFFFFFFFFFFFFFFFFFFFFFFFFFFF13
:102DD000FFFFFFFFFFFFF7FF9E5F12F30B760397E6
:102DE00003770B770B770376037703770B570B5635
:102DF0000B560B560B560B560B5603360336033643
:102E0000033603360336031603160316031603159B
:102E100002F502F502F502F502F402F402F402D51D
:102E200002D502D40AB30A2F9599F7FFFFFFFFFFDF
:102E3000FFFFFFFFFFFFFFFFFFFFFFFFFFFFFFFFA2
:102E4000FFFFFFFFFFFFFFFFFFFFFFFFFFFFFFFF92
:102E5000FFFFFFFFFFFFFFFFFFFFFFFFFFFFFFFF82
:102E6000FFFFFFFFFFFFFFFFFFFFFFFFFFFFFFFF72
:102E7000FFFFFFFFFFFFFFFFFFFFFFFFFFFFFFFF62
:102E8000FFFFFFFFFFFFFFFFFFFFFFFFFFFFFFFF52
:102E9000FFFFFFFFFFFFFFFFFFFFFFFFFFFFFFFF42
:102EA000FFFFFFFFFFFFFFFFF7FF95FC12B20B14C0
:102EB0000B150B350B150B140B140B140B140AF418
:102EC0000AF40AF30AF30AF30AD40AD30AD30AD398
:102ED0000AD30AB30AB30AB30AB30AB30A930A932A
:102EE0000A920A930A920A720A720A7202720272B1
:102EF000025202720A520A5109CD9D99F7FFFFFF53
:102F0000FFFFFFFFFFFFFFFFFFFFFFFFFFFFFFFFD1
:102F1000FFFFFFFFFFFFFFFFFFFFFFFFFFFFFFFFC1
:102F2000FFFFFFFFFFFFFFFFFFFFFFFFFFFFFFFFB1
:102F3000FFFFFFFFFFFFFFFFFFFFFFFFFFFFFFFFA1
:102F4000FFFFFFFFFFFFFFFFFFFFFFFFFFFFFFFF91
:102F5000FFFFFFFFFFFFFFFFFFFFFFFFFFFFFFFF81
:102F6000FFFFFFFFFFFFFFFFFFFFFFFFFFFFFFFF71
:102F7000FFFFFFFFFFFFFFFFFFFFFFFFC6DE6497BE
:102F80006D5A651A651A6D3A64F96D3A651A6D1ACB
:102F90006D1A6D1965196D196D196CF96CF96CF96B
:102FA0006CFA6CF96CF96CF964D964D96CD96CD988
:102FB0006CD96CD96CD96CD96CB96CB96CB96CB969
:102FC0006CB964B96CB96CB96C986415BE3BFFFF01
:102FD000FFDFFFDFFFFFFFFFFFFFFFFFFFFFFFFF41
:102FE000FFFFFFFFFFFFFFFFFFFFFFFFFFFFFFFFF1
:102FF000FFFFFFFFFFFFFFFFFFFFFFFFFFFFFFFFE1
:10300000FFFFFFFFFFFFFFFFFFFFFFFFFFFFFFFFD0
:10301000FFFFFFFFFFFFFFFFFFFFFFFFFFFFFFFFC0
:10302000FFFFFFFFFFFFFFFFFFFFFFFFFFFFFFFFB0
:10303000FFFFFFFFFFFFFFFFFFFFFFFFFFFFFFFFA0
:10304000FFFFFFFFFFFFFFFFFFFFFFFFFFFFFFFF90
:10305000F7FFEFFFEFFFEFFFEFFFEFFFEFFFEFFFF8
:10306000EFFFEFFFEFFFF7FFF7FFF7FFF7FFEFFFD0
:10307000EFFFF7FFF7FFEFFFEFFFF7FFF7FFF7FFB8
:10308000F7FFF7FFEFFFF7FFF7FFF7FFF7FFF7FF98
:10309000FFFFF7FFF7FFF7FFF7FFF7FFF7FFFFFF70
:1030A000FFFFFFFFFFFFFFFFFFFFFFFFFFFFFFFF30
:1030B000FFFFFFFFFFFFFFFFFFFFFFFFFFFFFFFF20
:1030C000FFFFFFFFFFFFFFFFFFFFFFFFFFFFFFFF10
:1030D000FFFFFFFFFFFFFFFFFFFFFFFFFFFFFFFF00
:1030E000FFFFFFFFFFFFFFFFFFFFFFFFFFFFFFFFF0
:1030F000FFFFFFFFFFFFFFFFFFFFFFFFFFFFFFFFE0
:10310000FFFFFFFFFFFFFFFFFFFFFFFFFFFFFFFFCF
:10311000FFFFFFFFFFFFFFFFFFFFFFFFFFFFFFFFBF
:10312000FFFFFFFFFFFFFFFFFFFFFFFFFFFFFFFFAF
:10313000FFFFFFFFFFFFFFFFFFFFFFFFFFFFFFFF9F
:10314000FFFFFFFFFFFFFFFFFFFFFFFFFFFFFFFF8F
:10315000FFFFFFFFFFFFFFFFFFFFFFFFFFFFFFFF7F
:10316000FFDFFFFFFFFFFFFFFFFFFFFFFFFFFFFF8F
:10317000FFFFFFFFFFFFFFFFFFFFFFFFFFFFFFFF5F
:10318000FFFFFFFFFFFFFFFFFFFFFFFFFFFFFFFF4F
:10319000FFFFFFFFFFFFFFFFFFFFFFFFFFFFFFFF3F
:1031A000FFFFFFFFFFFFFFFFFFFFFFFFFFFFFFFF2F
:1031B000FFFFFFFFFFFFFFFFFFFFFFFFFFFFFFFF1F
:1031C000FFFFFFFFFFFFFFFFFFFFFFFFFFFFFFFF0F
:1031D000FFFFFFFFFFFFFFFFFFFFFFFFFFFFFFFFFF
:1031E000FFFFFFFFFFFFFFFFFFFFFFFFFFFFFFFFEF
:1031F000FFFFFFFFFFFFFFFFFFFFFFFFFFFFFFFFDF
:10320000FFFFFFFFFFFFFFFFFFFFFFFFFFFFFFFFCE
:10321000FFFFFFFFFFFFFFFFFFFFFFFFFFFFFFFFBE
:10322000FFFFFFFFFFFFFFFFFFFFFFFFFFFFFFFFAE
:10323000FFFFFFFFFFFFFFFFFFFFFFFFFFFFFFFF9E
:10324000FFFFFFFFFFFFFFFFFFFFFFFFFFFFFFFF8E
:10325000FFFFFFFFFFFFFFFFFFFFFFFFFFFFFFFF7E
:10326000FFFFFFFFFFFFFFFFFFFFFFFFFFFFFFFF6E
:10327000FFFFFFFFFFFFFFFFFFFFFFFFFFFFFFFF5E
:10328000FFFFFFFFFFFFFFFFFFFFFFFFFFFFFFFF4E
:10329000FFFFFFFFFFFFFFFFFFFFFFFFFFFFFFFF3E
:1032A000FFFFFFFFFFFFFFFFFFFFFFFFFFFFFFFF2E
:1032B000FFFFFFFFFFFFFFFFFFFFFFFFFFFFFFFF1E
:1032C000FFFFFFFFFFFFFFFFFFFFFFFFFFFFFFFF0E
:1032D000FFFFFFFFFFFFFFFFFFFFFFFFFFFFFFFFFE
:1032E000FFFFFFFFFFFFFFFFFFFFFFFFFFFFFFFFEE
:1032F000FFFFFFFFFFFFFFFFFFFFFFFFFFFFFFFFDE
:10330000FFFFFFFFFFFFFFFFFFFFFFFFFFFFFFFFCD
:10331000FFFFFFFFFFFFFFFFFFFFFFFFFFFFFFFFBD
:10332000FFFFFFFFFFFFFFFFFFFFFFFFFFFFFFFFAD
:10333000FFFFFFFFFFFFFFFFFFFFFFFFFFFFFFFF9D
:10334000FFFFFFFFFFFFFFFFFFDFFFFFFFFFFFFFAD
:10335000FFFFFFFFFFFFFFFFFFFFFFFFFFFFFFFF7D
:10336000FFFFFFFFFFFFFFFFFFFFFFFFFFFFFFFF6D
:10337000FFFFFFFFFFFFFFFFFFFFFFFFFFFFFFFF5D
:10338000FFFFFFFFFFFFFFFFFFFFFFFFFFFFFFFF4D
:10339000FFFFFFFFFFFFFFFFFFFFFFFFFFFFFFFF3D
:1033A000FFFFFFFFFFFFFFFFFFFFFFFFFFFFFFFF2D
:1033B000FFFFFFFFFFFFFFFFFFFFFFFFFFFFFFFF1D
:1033C000FFFFFFDFFFFFFFFFFFFFFFFFFFFFFFFF2D
:1033D000FFDFFFFFFFFFFFFFFFFFFFFFFFFFFFFF1D
:1033E000FFFFFFFFFFFFFFFFFFFFFFFFFFFFFFFFED
:1033F000FFFFFFFFFFFFFFFFFFFFFFFFFFFFFFFFDD
:10340000FFFFFFFFFFFFFFFFFFFFFFFFFFFFFFFFCC
:10341000FFFFFFFFFFFFFFFFFFFFFFFFFFFFFFFFBC
:10342000FFFFFFFFFFFFFFFFFFFFFFFFFFFFFFFFAC
:10343000FFFFFFFFFFFFFFFFFFFFFFFFFFFFFFFF9C
:10344000FFFFFFFFFFFFFFFFFFFFFFFFFFFFFFFF8C
:10345000FFFFFFFFFFFFFFFFFFFFFFFFFFFFFFFF7C
:10346000FFFFFFFFFFFFFFFFFFFFFFFFFFFFFFFF6C
:10347000FFDFFFFFFFFFFFFFFFFFFFFFFFFFFFFF7C
:10348000FFFFFFFFFFFFFFFFFFFFFFFFFFFFFFFF4C
:10349000FFFFFFFFFFFFFFFFFFFFFFFFFFFFFFFF3C
:1034A000FFFFFFFFFFFFFFFFFFFFFFFFFFFFFFFF2C
:1034B000FFFFFFFFFFFFFFFFFFFFFFFFFFFFFFFF1C
:1034C000FFFFFFFFFFFFFFFFFFFFFFFFFFFFFFFF0C
:1034D000FFFFFFFFFFFFFFFFFFFFFFFFFFFFFFFFFC
:1034E000FFFFFFFFFFFFFFFFFFFFFFFFFFFFFFFFEC
:1034F000FFFFFFFFFFFFFFFFFFFFFFFFFFFFFFFFDC
:10350000FFFFFFFFFFFFFFFFFFFFFFFFFFFFFFFFCB
:10351000FFFFFFFFFFFFFFFFFFFFFFFFFFFFFFFFBB
:10352000FFFFFFFFFFFFFFFFFFFFFFFFFFFFFFFFAB
:10353000FFFFFFFFFFFFFFFFFFFFFFFFFFFFFFFF9B
:10354000FFFFFFFFFFFFFFDFFFFFFFFFFFFFFFFFAB
:10355000FFFFFFFFFFFFFFFFFFFFFFFFFFFFFFFF7B
:10356000FFFFFFFFFFFFFFFFFFDFFFFFFFFFFFFF8B
:10357000FFFFFFDFFFFFFFFFFFFFFFFFFFFFFFFF7B
:10358000FFFFFFFFFFFFFFFFFFFFFFFFFFFFFFFF4B
:10359000FFFFFFDFFFFFFFFFFFFFFFFFFFFFFFFF5B
:1035A000FFFFFFFFFFDFFFFFFFDFFFFFFFFFFFFF6B
:1035B000FFFFFFFFFFFFFFFFFFFFFFFFFFDFFFFF3B
:1035C000FFFFFFFFFFFFFFFFFFFFFFFFEFFFE7DF53
:1035D000DF9FDF9FE7DFE7FFEFDFEFBFE7BFE7BF7B
:1035E000E7BFE7BFE7BFE7BFE7BFEF9FFFFFFFFF13
:1035F000F7FFDF7EDF5EEFDFF7FFFFFFF7DFE79E1E
:10360000E7BFEFDFF7FFF7FFEFBFE79FE77EF7FFCB
:10361000FFFFFFFFF7FFDF3DDF3DF7FFF7FFF7FF9E
:10362000FFFFF7FFEFBFEF9FE79FE7BFEFBFEF9E03
:10363000E77FEFBFE79FEF9FF7DFE75EEFBFF7FFA3
:10364000FFFFFFFFE75EE77EEF9EFFFFFFFFFFFF4D
:10365000EF9FD71DDF5EF7FFFFFFF7DFE77FEF9FED
:10366000EF7FEFBFE77FEF9FE77EEF9FEF7FE77F83
:10367000EF9FE77EF7DFE75DEF9FE75EFFFFFFFF6E
:10368000FFFFF7DFF7DFFFFFFFFFFFFFF7BFE73EBB
:10369000EF7FF7DFFFFFFFFFE75EEF7FE73E861D6F
:1036A00054758DB98DFB54975CD8DF9FBE9C5497A1
:1036B0004C779DFAC73F6CF8543574D5C6DCF7FFDC
:1036C000EFFF95B97D388D997D17B69DEFFFE7DF48
:1036D0009DD854355C76E7DFF7FFB69C53B18D3645
:1036E000E7DFEFFFC6DD74B58D788D588D7895993D
:1036F000EFFFF7FFF7FFCEFC84B54B736C36D6FDBA
:10370000D71D74964B726C14C6DEDF5F84D64332CD
:103710008519F7FFF7FF84F55B90ADB8F7FFF7FF6A
:10372000A5BA7C9484D5953884B6B63AEFDF745642
:103730004B1163B3CEFFBE7D532F8493CEFD8CF728
:1037400053525330B63BEFBF9D3542CEA5B9FFFF74
:10375000FFFFFFFF73F38CB6F7FFFFFFFFFFEFBF25
:103760008C7552D15B33F7FFF7DFADB952EF94B5EB
:103770006539861DD7FF7DFC1B334C56EFFFE7FFF5
:103780002BB51354BF7FDFFF6D9D1AF28579E7FFDC
:10379000E7FF74D62AAED7FFDFFF8D992AB0BEFFB0
:1037A000EFFFDFFF339312B16CD8E7FFD7FF437110
:1037B000E7DFEFFFB6BE2A8E7CF6E7FFE7FF6C740B
:1037C0005371EFFFF7FFFFFFEFFFBE9D09AD6437B9
:1037D000EFFFF7FFAE5F016C7CF8EFFFF7FFCF1F45
:1037E000018C09EEB63CF7FFCF7F6C54DF7FF7FF0B
:1037F000955B21CDA5FAEFFFE7FF42CE7C74F7FF82
:10380000D77F00E93AB0E7DFE7FF198AE79FF7FFC4
:10381000C6DF116B3AAFEFFFF7FFF7FF21EBEFFFCA
:10382000FFFFFFDFF7FF0066428FF7FFFFFFFFFF9D
:10383000FFFFD6DF298E00298456F7FFF7FF426D80
:10384000DF3F8D77DFFFBFDF33B422EFE7FFF7FF06
:10385000EFFF2BB52395DFFFDFFF7E1E1AF38DDB15
:10386000DFFF969F22F16CF7E7FFF7FFE7FF1AD221
:1038700033B5EFFFE7FF7D9A23531AD28E1FDFFF88
:103880005BF2F7FFEFFF64B909EDEFFFF7FFF7FF1A
:10389000F7FF7433F7FFF7FFF7FEFFFFCF1F09AE07
:1038A0006CB9F7FFF7FFBEFF118C8D18F7FFFFFF14
:1038B000DF3F43722B1211EDDFFFCF7F9578E79F3B
:1038C000F7FF094C4B34F7FFFFFFF7FFC6DB8CB463
:1038D000F7FFEFFF84F6010A9DFEA61E84D7FFFFC7
:1038E000F7FFCF3F11AC5372F7FFFFFFFFFF3A8E98
:1038F000EFFFF7FFFFFF8CD7320E112BA59CFFFFC8
:10390000FFFFFFFFCEDD9519214C10ACBDFFEFDFAF
:103910005B70DF3FEFFFE7FF655A1B119E5CE7FF1F
:10392000FFFFEFFF33F61B548D99A63B4C991B13F9
:103930008DDBDFFF5CFA0AB1961CEFFFF7FFEFFFAC
:103940001B341B54CF3FEFFF74F6CFFF0A712335B2
:10395000BFBF53F3F7FFD75F33541A70F7FFFFFF72
:10396000F7FFF7FFEFFFE7DFF7FFF7FFF7FFCF1FE7
:1039700009CE6479F7FFEFDFC6DF116C9538F7FFEA
:10398000FFFFD6FD74B785DD01CE22B1DFFF8D17B5
:10399000E79FCF1F094D5BD7F7FFEFBFEFFFEFFFAB
:1039A000EFFFEFFFF7FFE7DF11AD3AF3220DEFFF77
:1039B000F7DFFFFFCF1F19AD4AF1F7FFFFFFFFFF52
:1039C0003A6DEFFFF7FFF7FF42AFEFFF006A639535
:1039D000F7FFFFFFF7FFC67AA599DF1F002A296FBF
:1039E000F7FF5B51E73FE7FFA69D1B1233F5DFFFB3
:1039F000E7FFEFDFE7FF2BD61B74C73FE7FF6D9DA7
:103A000012F38DDBD7FF5D1B12D195FBEFFFFFFF9C
:103A1000EFFF1B541B54CF7FEFDF6C74DFFFA67FDB
:103A20001230653B4C35EFFFCF1E33131A50EFFFBA
:103A3000C6BC4351331133316496E7FFD75FF7FFBC
:103A4000CF1F09AE6499F7FFF7FFC6DF116B8CF843
:103A5000F7FFF7FFD71D6C34DFFF4C1709EE6477D3
:103A60009DBAEFDFC6BD012C5BD7F7FF84953AD036
:103A70002A8F3AAFADDBFFFFFFFF9D5C0089A5BA3F
:103A8000F7FFFFFFF7DFCEFF19AC5352F7FFFFFF41
:103A9000FFFF3A6DEFFFF7FF8CD684B6BE7F21F1B2
:103AA000112DC67DF7FFFFFFBE5A9517F7FF8C99C2
:103AB00008496B766353E73FDFFF43F42353A77F47
:103AC000D7FF8D98CEFDE7FF2BD61B74D7DFE7FF1E
:103AD0007DFE1B1385DBDFFF965E22F16CF7E7FFAF
:103AE000F7FFE7FF12D133B4EFFFEFDF7CD5E7FF3D
:103AF000E7FF6C770A9112B0EFFFEFFF5C1611EE53
:103B0000EFFFE7FFB71F23122B32DFFFA65D2A4C22
:103B1000AE3CCF5F09AD6C77F7FFF7FFBEDF118CCE
:103B20008CF8F7FFF7FFCEFD6C34E7FFDFFF1A2FAD
:103B300011AD6C56E7BFF7FF012A4B74EFDFEFFFC3
:103B4000A63F00CB84D9EFDFF7DFFFFFB5DF088AA0
:103B5000C69DF7FFFFFFFFFFCEFF116B5353F7FF2B
:103B6000F7DFFFFF3A2CF7FFEFFF63D2745484D8DE
:103B70006BF8008A8CB8F7FFFFFFCE9C94F6EFDF5E
:103B8000F7DF52B1088B298EEF9F7E3F12F275DD71
:103B9000CFFF96FF3393CF7FDFFF2BD61353D7FF93
:103BA000DFFF7DDD12D28DFCE7FFE7FF5C1322AF64
:103BB000D7FFDFFF8D991A2DCF7FEFFFEFFF74D670
:103BC000DFFFF7FFE7BF339401EEEFFFF7FFBEBF64
:103BD00019CC7CD7DFFFAF1F124E3B31E7FF9DDBD7
:103BE000220DC77FBF1F096B84F8FFFFF7FFC75F78
:103BF000014B853AEFFFF7FFDF5F6414E7FFEFFF4C
:103C0000BEBE094C5394EFDFF7FF84F70129B65D80
:103C1000EFFF9DBE00AA8497F7FFF7FFF7FFB63FBF
:103C20000069C6BFF7FFFFFFFFFFF7FF196A21CD4D
:103C3000EFFFF7FFBE3B7C14F7FFAE1D7476EFFF7E
:103C4000F7FFEFDF3A510089F7FFF7FFCE9D9D594F
:103C5000F7FFFFFFDF1F214D10CBEF9F3C9A3C7811
:103C600054B8549734174477D7DF8DBA3417345784
:103C70007518AEBE4C573BF64BD4A63BF7FFEFFF93
:103C8000963D4C565C976CB7D77FF7FFEFBF84D457
:103C90003B716C96F7FFF7FFB73F1AD1EFFFF7FFC5
:103CA000F7FFD79F64354BD44C158DFC7495E7FF17
:103CB000DFFF8D7A5C56226F8519EFFFFFFFCE9CE8
:103CC00043523B534332A5FCE7BF4B0E3B1095BA22
:103CD000EFFFF7FF959D5BD6F7FFF7FFEFFFB69E6F
:103CE0004B315B935334A59D9518F7FFF7FF8CF785
:103CF00042D23A9242B0ADB9FFFFFFFFF7FFEFDFCC
:103D000042F22A5063728C95F7FFD6FF21CD42D044
:103D100084B4F7FF7C5642B232313A50F7FF635019
:103D20003A2D63B2F7FFFFFFADBE4231EF9FF6EDD4
:103D3000EEA7EE86F6C6F6858342A5ECD76EC6AC36
:103D4000BECEBE8E962EA6B3A6B2BF149673765381
:103D500096B596968E769F189EB6555176BA765938
:103D60007E797E785E1776BA9F1B4DB85EBC7F5D0C
:103D700009681A902DBD1CF92D7B34B91C9724F9C4
:103D80002CB924DA24D9247824992D1A2CD9347802
:103D900034D9341623551C5A13F71C3824391438D7
:103DA0002417245725FC23F6216F4335220F32D4E4
:103DB00021AD320F7D5A75395C7900251041218C77
:103DC0002A532A5311B03B36194D3A705C170A1228
:103DD0002AF511B019F033152BB8116C320F4B784E
:103DE0004B773AF432113AD44315A317AA53AB35A3
:103DF000D45BBB5738A540A7B377A2F5A2D4AB35A7
:103E000069CC79EF92319A739A93698C8A529A733A
:103E100089D1AB15D4BB8A3181D08A1171AD4928C3
:103E2000821192B382518A3289F18A938A72EECCDE
:103E3000EEA7E664EE85FF2593A08487DFAEC6ABD0
:103E4000BEADC6CF95EB9650A6D3AED29EB47E1330
:103E50008EB58E958E958E96B7586D9355D676996C
:103E600076587E99661755D79F3C665A3DFA87BEAD
:103E70001AEC096A253C1D3A1D1A2CF91C771CD92D
:103E80001CB91CB91CB91C7914581CB924B9247864
:103E9000353A23530AD2149B13B714181C390BD785
:103EA00013F71C16153B24B921F02A942210223254
:103EB000194D194C7D5B7D5A5C9A00260000214CFF
:103EC00021D11A32094F2AB4116E21CE4BB611D12D
:103ED00022D511F1094E22732BB9096D29AC433853
:103EE0004378327219AF3AB532F58336AA539A72D3
:103EF000D41AAAF52023590ABB579A949AB4A2F56A
:103F0000616C694C9A528A129A94698E81B09212AD
:103F100081D19273D4BB9AB3714E81D1696D490836
:103F200081D0929371EF79D081D17A118A32EEAA41
:103F3000EE86E643E644FF66B4A06B62D78ECECB36
:103F4000BEABC6F0A62B8E0DAEF4A6B0AEF47DD3FC
:103F50007E548E958E958675AF588E1545536EB9E5
:103F60006E5876796E5845758EFB86FC35B877BFEE
:103F7000349300A61499155B14D9255B1C78149909
:103F800014D914B9149A1CBA14580C7814591C3842
:103F90002D3B1B52020F0C7B0BB70BD714390B9721
:103FA0000C181BF70C78257B2A7119D2225219D0D4
:103FB000112C08EB7D5B85BB4C5A00470000212C7F
:103FC00011701232014F1A3311B0116D435419F1AF
:103FD0001A951253014E11D12B78012C29AC43793B
:103FE00032D62A3119D03A962AF66336A23291D0C7
:103FF000CBB99252304679CFB2F69294AB159AB3C0
:1040000050EA610C9A5381D19A7479D0794F91F228
:1040100081D189F1CC5AB397690D8190694C40C820
:1040200089F29252698E718E81B179F181F1EEC778
:10403000F684EE44DDE3FEE6E6227300BEACCF2C50
:10404000BE8ABECFBECF8DEBA6B3AEB2BF138DF18D
:104050006DF386958E958E9596B5A6D74D73669819
:1040600076786E387E9A5DB65E17971C4E3A571D6D
:1040700045D800C613F61D5D14B9257C24DA0C79E9
:1040800014DA14B914991CDA1CB914380BF813F8A3
:104090001CD93496120E0B7714190BD7141813D79A
:1040A0000C181BF813D62DDC32F3117132D519CF51
:1040B000194C090E6CBB95FC3BF8008A0001212BC2
:1040C00011701A52099009B21A32114C3AF3225265
:1040D0001A741A9509D0099022F700CA320F4BB909
:1040E00019D132732A53327533174B15923299D046
:1040F000B31681B0694D9A739A539AD4BBB8929211
:104100003847696E923381D18A128A11796F92127F
:1041100089F281D1B3B7CC5A718E714E612C388738
:104120009A9481F1698E71AE81D1821279F0EF0B90
:10413000EEA4EE65DDE3DDC3FF258B409528DFAD02
:10414000C6AABE8CCF539E0C962EBF14BF109E2EB7
:10415000761186B68E758E958654AF386DD445949B
:1041600076996E587EB96E5845558F1B76DC3E7B2E
:104170004E9B016903741D9E14B9251B251B0C3829
:104180001CBA1CDA14791CBA24DA13D70BF80BB852
:104190000C175F3E3B3100EB14590BF8141813F861
:1041A00003D713F713D72DFC335411503B3619CDD9
:1041B000116D11704B787D7B5CBA012E00021929BC
:1041C00001501A5411B001702AD6218D21AF1A1056
:1041D000227422D61A94121222F7006731F04B781B
:1041E000198E4B373AB5325432D632F57A73A1F183
:1041F0009212921289F18A319273A2F5B377A2D307
:104200003867616E8A138A1189D2923281D091F116
:1042100089F281B0A315DCDC821160CB612B3066A2
:104220009AD479D079D0823179B081F179CFF76F92
:10423000EEC7EE84E624CD21EE64B4C58425DFAD5F
:10424000CECBBE8ACF32B66F8DABBF13B6CFC6EF23
:1042500085CE86D596F7863486549ED68E765D7347
:104260006E5876796E7776B95DF77EDA5E1835B876
:104270004EDC2B9102F10DBE14FA1CB9255C1478AA
:1042800014791CFB14991CBA24FA13B60BB70BF85B
:104290000356679F5D9900050BB60C391418141866
:1042A0000BD70BF80C17253A3BD5116F331621CFDE
:1042B000118F09902A95649A757C2AB4000110A583
:1042C00009701A3411D1012F32D721CF08CA1A111F
:1042D0002AD62B172AF60A12545B320E10A83A93EC
:1042E00029F04B583AB4329332952AD562B4AA12C7
:1042F00089D1A27481D179D09AD4A2F5AB36B31505
:10430000386740CA92338A1181B09A7381F081B0C4
:1043100089F17990A2D5DCBC9AD4588A58EA4088B1
:1043200082528A118231821179B081D181F0FF6F7E
:10433000EF0CEE84EE44CD00CD02DE8B9465C6EB2F
:10434000CEEBC6AAC6CFCED295CBB6EEAEADD75188
:104350009E2F6DAF8EF68E9586758E959ED67E15A8
:104360006E16769966576E987E9A6E7935353578E1
:10437000469B6E1922EF04161D5C1CB91D5B1CD9EF
:1043800014381CFB14BA1CBA24D91C1713760C1849
:1043900003563DFD66DE008602B20C7A0C18141836
:1043A0000BF80C1914171417343621F02A9521F044
:1043B00009B011B01A125C5B651C2AF50002108569
:1043C00011B01A3411B0014F229521F00068223249
:1043D00033582B16331701F264FD5C180002218C50
:1043E000325343383AB4329332742AD54B14923252
:1043F00091D1B2B681D0616D9AD4AAF5AB56B336DD
:10440000612B202582118A1281B09A5389F0718F15
:104410008A1181B0A294D43BBB9858CA4067594CCA
:1044200071B08A32823179D079D081B08A11F6EBBD
:10443000FF4EF6C6EE64D561ABE0F74DBD69A5A7AA
:10444000CF4CC6CBBE6BD712AE2DAE8AAECCC73129
:10445000CF3454695D6E97178E968E959ED59ED7F4
:10446000761666576E576E377EB96E3824F52DB9BD
:104470003DFAA7FF5C1101291D3C14FB0CFA255ADB
:104480001C5814BA1CDB1CBA1C9824F91B960BD7B9
:104490000BB70BD94EBF1A2D01AE0CBA0C180BD7A7
:1044A0000C180C7A23D613352C592A5219F32232C0
:1044B00011D011D111D15C5B3B9809D00006192BAA
:1044C00022111A1311B1094F121321F108A92A72EE
:1044D0002B5822F5333609F243FA6D5E002108A706
:1044E000327343173AD432733AB53AD52B14725219
:1044F000A1D2BAD68A31510C8211AB56BBD8AAF5DB
:10450000A2F41823494A823281B189F1923179CFDC
:104510008A1189D19232C3B9D45C616C2003823193
:10452000618F81D0821171B079D079908A12DD6566
:10453000FF4AF6E7F6A5DDE2BC60DDE8D60BA5068E
:10454000D78DC6CBBE8AD70FBE6DAE28BF0CA68C4A
:10455000E7F7AE5212826DB0A7388E7496B59EF60C
:104560007E775E166E77765776577E593D772DB9F2
:104570002DFA7FDF969900230BD71D5E0CBA255BC1
:104580002CF914791499149914791D1A24580B567E
:10459000141803572DBE349600E913F814390BD7BD
:1045A00003F80C7A23961B5524FB2AD419912AB4BC
:1045B00019D011B11A123AD419F2014E012E221358
:1045C0002A3219F21A12017009D221F121AD2230DA
:1045D0001AB522D73357121122945D1F00C60885E1
:1045E000327232954316327342D53AB522F45A7478
:1045F000BA54B2D59233612D618EB377C439929398
:10460000DCBC594B080171CF89B281B09A938231D9
:10461000798F91F181B0B357E4BD7A3008018250AF
:1046200069F0612E8A1279D0718F712E7990D4C47D
:10463000F667FF08EE86E644E645D5A6CD86A4E5F6
:10464000D72CCEEBC6ABD72EBE4AB607CF0CA68B67
:10465000C731EFBB4C0822A59EF696D696949ED500
:104660008E9865D76E377678765886995577255720
:104670002E3B469CAFBE2167022F1D9F14DA14FA11
:10468000257A1CB90C180C79147A14BA2CB9137643
:1046900014190B970C9A465C08C80A1114BB1C79B4
:1046A00003D80C5A237623B6253C2315194F3337EC
:1046B0002A72092E1A532A31199011B1019219F355
:1046C0002A1211B11A1209B1099119D13250220FCF
:1046D00011D222F83B9919EF11B05CBF116A10C7D3
:1046E00042B221F14B972A523A953A952AF54294D3
:1046F000B294BAD59A33718F596D9AB4BC199AB3E2
:10470000DCBCA336080040A881D281D192538A1123
:10471000716F92128190A2D5E49DA2F5100179EFFC
:104720007A3158ED92538232696E690D714FDD8690
:10473000DD64FEE7F6A8EE66FF07E6AAD6079C2230
:10474000BE29D76BCEABE72EC609B5A6CF0CB6CB2C
:10475000A68CF7DAB67301405D2EA75796959E9505
:10476000969775F7661676786E587EB97E182CF691
:104770002E1B2D9997FF538F012A1DBE1CFA0CB9D1
:10478000257A251A03D90C39149A04592CFA1BB628
:1047900003F813F803B846DF1A4D008A147B24DBB4
:1047A0000BF803F923B72BF71CDB1B96198F2AB5DF
:1047B0004397112C11D1223121F019D2097211D253
:1047C000221209911A1211F2015019F1325121EEFF
:1047D00011D123183BBA19EF114E545E19EF198C01
:1047E0004B13096D53F832922A543A9532F63294AB
:1047F0008A73C2B59A5381F1616D79F0B3F8A3352C
:10480000C419D45C38671003718F81D181D18A12A9
:10481000718F89D189B09273D3FBB357180279CEC7
:104820008AD350ED92538A52718F694E692EF6E900
:10483000CD04EE06FEE9EEA8EE64FFCFFF8E9BA14D
:104840009C64E78CD6C9E70CD66AAD66CECBC6CCE5
:10485000AE8ACF52FFFB1A8212C3A77796D69E74F8
:104860009EB5865665F66E576E576E77A75B4CD42D
:1048700025582DB96F9F759601AB157C151A14B983
:104880001D3A255A0C5A0C19149904392D1B2C1653
:1048900003970C1903973E5F3CF7000703561CDB98
:1048A0001C5903B724392BD61418247A227111917C
:1048B0004C3B21CC00CB2A94327211B2095111B178
:1048C000221209911A331A32012F221221CF198E86
:1048D000223222F733991A0F194E4BBB22522A93D8
:1048E0005355090B5C193B1421F23AD53AD622B440
:1048F0005232BAB5A2738A32696E616EABB7AB96AB
:10490000B3F7E4BD79B0080150EA7970796F92523B
:1049100079F0796F91F289F1B317AB3620048A10E0
:10492000A355594E89F17A1179F079B0690EFF09D2
:10493000E628CCE3F687F708EE65F6A9FFF4DE0774
:104940007A40C5C8F749DE67EF4DB608B608D70DFF
:10495000B68BB6CDFFFB648B018096F59EF79674FF
:1049600096B596B66DF666176E576657A7DD651550
:104970000C34361B467B767A23920D3B14F91CDAF5
:1049800014FB1D3A24FA0C180C590C591CFB3CD78B
:1049900003550C39039724FB671E00A801CF1CDCCC
:1049A000249A03B71CBA2B9513961D3C1B74110E49
:1049B0003BBB2A91006832D52A5219D1099109715D
:1049C00019F209B11A3222B3013019D221F019902B
:1049D0001A121A742B7911EE112D4BB92A932AB59C
:1049E0005BB721AD4B97539621F142F53AB52AF6C4
:1049F0002A73A275B273923279B0610DA355B3D701
:104A0000BC38DCDCAAB620052825694E796F9252A5
:104A100081F1714E9A5389F1A2748A7240A99A5217
:104A2000A33569AF797081F1823179B060CDF6A894
:104A3000F6C9DDA6DD64F6C7F6E8EE44FF90FF9008
:104A40008AA09342FF48EE66E70AD6EBADA7CEEB0D
:104A5000BECBA6ABEFF895B2122196B49EF68E545B
:104A600096B5A71776155DD66E576E578F3B7DB6F8
:104A70001C33367C35F9669B2CB704F91D1A1CD9FA
:104A800014BA255B251914380C590C9A0C594D5A37
:104A900023D603D80BF80BD7677F228E008A143BEE
:104AA00024BA0C170C9A23B51375153C2438090E3B
:104AB00022953B7708C92252223211D111B20150FE
:104AC0001A1211F21A122A94015111B1221119D29B
:104AD000099012322B38010A114C4BDA32D422736E
:104AE00064193A71327353D72A323AD53AB53AD665
:104AF0001AB47AD4BA9499F289D1692F8A92B3D729
:104B0000AC17CCBAC359590B0801510B79B08A3292
:104B10008211718F92529A539A5371AF614D9A7369
:104B2000A2F569EF712E8A327A1179D0690EEE689A
:104B3000F6E9F6C9DD65EDE6F6E9E684F6A9FFF3E8
:104B4000C4E379E0E667F6E6E688EF4DB5E8BE69CE
:104B5000CF0DAE8BD7D4A6133BA7A6F49ED59673E4
:104B600096749F178E965DD56E3876586E7896BA85
:104B70003C7325DA2DF9567C3D5A0498151A2D5AA6
:104B800014571CFA1CF914580C3814BB04183D5B5C
:104B90003C5703760C3903564EBF3C9600060B5724
:104BA0001CDB1C7903D7349823B50C5A24FB1AB2AA
:104BB000094E3BBA116C116E225311D119D3015019
:104BC0001A33221211B12A740171099019D019F304
:104BD00009701A332AF700C908C943B93B36227253
:104BE0005C39533419B14B973A93329432943AD694
:104BF00022D552D392B492539212799181F1B39704
:104C0000A3D6BC79CB798A71000040C9719079D064
:104C1000823179F08A31A2739A7379B0718F8A32B6
:104C2000AB3669F060ED925379F079B0714FE628B8
:104C3000EE89F709EE67E504EE68EEE8EE23FFF093
:104C4000FF4C8200BCC5FF67E667F70BD6ABA5C774
:104C5000D72DB6CCC7509DF16D2DB7959EB3A6D379
:104C600086128E759F3865F45E1876595E16A7BD5C
:104C70005CD50C752E3B465C4DBA0C570CDA461CC5
:104C8000249603F614D91C780BD7149B04591CDA0C
:104C900044B80B360C7903762D7C4E1C002502326D
:104CA0001CDC2CBA033545BD443602F51D5D4D793B
:104CB00008CB2AD621EE00AA227419F119F201704C
:104CC0001A122A5311902A5309B10990094D11D291
:104CD0001A122AD52296096E00262A9343992AB3DE
:104CE0005397535419B043573AD4327332B542D61E
:104CF00032B42A934AD56AF58A7391F389D2AB56B6
:104D0000ABD6B458C378B37600004088694F612EA3
:104D10008A527A1081F092119AB39A947970718FB5
:104D2000B37771F0508B923379F0718F798FE607FA
:104D3000EE88E688E625E564EE06F6E8EE63FF2BEE
:104D4000FFF3A3809B20FF68EE87E668F76DA5C799
:104D5000B628CF2DB6CDA671754FA7349ED3AF140C
:104D600096527DB2A7397E3655B66E795E1697BDDE
:104D70007D970B92367D2E1A563A24D804585E9CA5
:104D8000667C02D10C78253B13D613D814DB04586B
:104D9000353A23D7041803D8145A573E00E7010BBD
:104DA000149B2CDB03562DBD5D9A01AD04186FBF1B
:104DB00032D0006C225100A9223519D111B01191C5
:104DC00011B122121A1222731A12121300AA00CC65
:104DD00022944BF92AD61A75008900863B373B3658
:104DE00042F54B142A12431732933AB43AD53AB5E6
:104DF0003AD42A732AB533355AF49A33A1F3A33738
:104E0000BC38C4DABB98BB97100140A781B158AD3C
:104E100081F171AF716E694D9292AB37714F714EE6
:104E2000AB3579F058CC92338A1171AF798FEECBD4
:104E3000EEAAF6C8E645B4A2BC62F6A7F6C6EE66D0
:104E4000FFF4DE088220DDC6FF27E647F70BCE8C95
:104E50009547C70CB6CCC752752D7DF0AF559ED384
:104E6000A6D386118E75A7195DB45E376E78871B41
:104E7000761823912DDC25FA563B3D9A0CD94E1B12
:104E800066DE1C7703531D1A353B135514990459DC
:104E9000255B34380375043903B85F7F22CE0026C2
:104EA0000C1924BC13B814785EDE19CC01D04EFF67
:104EB0005DD900072253114B11B21A13118F19D269
:104EC00019F211B011F122522A943BDA11D00006E6
:104ED000117043F93B5722D711B0000219CF3B376D
:104EE0003AD54B3532523AF632B43AD4431632956B
:104EF0003AD4325332B52B1532F4725399F29AD513
:104F0000BC39CD3CC3F9B3151822302592337970E2
:104F10007990796F692E610C696D71CE694D81B19F
:104F20009A738A11592D8A33925371AE79AFEF2F4C
:104F3000F6EDFEE8F6C7BD4482E0CD03FF28E605A6
:104F4000F76FFFD092E1B3C3FF27E686E688F76DDF
:104F50009D68A62AC72EC77195CE6D2DAF759EB2DE
:104F6000A7149EB37E13A73976144D947EDA8F1B57
:104F70005DD62B6E24F8363C461A45FB1D7A3DBBA8
:104F80003DDB2DFC13F50C373DFE23B50B9504BB23
:104F900014FB34B80B34043903774EBF44B6000514
:104FA00003771C9B1C390375579F2AAF006B257E26
:104FB00077DF10E8115021F0012E1A54119019F2E8
:104FC000223311B011B022322A7354DC339800041A
:104FD000004822F633562B161A740005088732D57E
:104FE0003AF65377325132B53B153AB442F632B500
:104FF00032B432743AB532F522D54A7299F29A54E3
:10500000ABD8CD3CCC9A9AB3180220039A549A7428
:105010008190816F794F712E58CA3865510B89F292
:1050200089D29A93618E7170A2B5696D718FEF2FDD
:10503000FF4FF6C8FF6AFF2982E07A80F687EE66A6
:10504000DE28FFF3C5259280E626F707DE46FF8AB5
:10505000C62A8548CF8FB6EDBF126D2D96B39ED36D
:105060009ED3A71586548EB696B64D1186FAA79E86
:105070004554234D14133E7E35DA3DFA25BA3DFBE7
:1050800024D72DFD361D0BF51D5B2C770A9114DB03
:1050900004592D392BB403B803B8253C561C0046DF
:1050A00002D3147A249A03564F7F2B31008B0C9B2A
:1050B00067FF3ACE002A2A73010C1A3519D111B0B4
:1050C0002234221211B01A1319F14C7A553E00669F
:1050D000000209D222B433361A75006900023293F5
:1050E0003B1753B82A302A94437732733AB43AB50F
:1050F00032B52A9532B43AD52AF6327391F29A1221
:10510000AB77C4FBDD1C8A72080128058A12B2F64F
:1051100099D2899081707970690C200238C781B169
:105120008191B3567A30486BB33758EB694EEEAA8B
:10513000FF70F6E9F6C9FF89E6265940AC01FF4841
:10514000D5C5F7B0F74D92C0B464FF69E666E6A531
:10515000F74D8D69AEACBEEDD7B3858F758EAF358B
:105160009EB3A6F496957E34AF7A5D526E37977DE6
:105170004DD66534134F2E3C35DA35FA2DBA2DBA9B
:10518000359A1D19363E3E1D0C971C571AB20BD787
:10519000049A257B3C76033603F80C194EFF1189DF
:1051A00001CE0C5A1CBB0398469E2AEF01CF14BCBB
:1051B0004EDF553600042253116F11D219F2118FB0
:1051C0001A132A9419B019F21A113B986D7F090825
:1051D00000001A1122B422B4225400A9004443163C
:1051E0003B1743563292227443573AB432743A947E
:1051F00032D532D63274329432F62AD46232A1F2E7
:10520000AAF5BC99E57E82700000488881D1B31769
:10521000A23389B08170794F796E38A72064696FA5
:105220007970AB16AB1650AB9A7350CB694DF6A69E
:10523000FF31F74DF6A8FEE8FFC993226180EE65C5
:10524000F686E6CEFFF3BCA392E0EE67F708DE66D3
:10525000FF6CA5CA7D68CF6FC750AE506D0CAF15FF
:105260009ED39ED4A6F57E339EF886565DD576DB1A
:105270005638A71B2B6E0CD635FB35FB359A257996
:10528000361C25591D5B3EBF4E9C13520A0E0B75F2
:1052900004DC0CDB3CD81395041903774EFF3B4F1D
:1052A00000CB145B1C9A0C18251B2BB402D31CDCFE
:1052B000251B673C08C510ED19D111B11A3311B087
:1052C00009B12A9419B011D2223322955D1E198991
:1052D000000019F1333622B511F2006710E94B597D
:1052E00043163B363AD422124356431532543A946D
:1052F0003AB53AB6329532943AD52AF6329381F2DB
:10530000B294BC39ED9F724E0000690D7990A2D520
:10531000AAB589D18190794F816F50E92023590D29
:1053200081B19253BB9879F0610C616D716EF64357
:10533000FF2EF792F6C8F6A6FFC9D58648C0C4E28C
:10534000FF47DE4BFFF7EEAA8280BC63FF6ADE6791
:10535000F6E9D6AC6CC7BF0EBF0ED7526CEC7E110F
:10536000AF3596B4A7158E737E34A7196E155638CF
:105370005658C7FF5BF00370361C2DFA35BA2D7AEC
:105380002DFC35BA14F92E1D6FFF343400E912F2EA
:105390000CDB045A353A2C1603D803773DFE4CD566
:1053A000006A141A145914790BD82C990BD71C9A2B
:1053B000141857BF224B00062A541211225519B057
:1053C000012F2A9521D009B12A3419F3447D21ED0A
:1053D0000000116F3B773398121300CA10A93AB539
:1053E00043573B563AD522133B3642D432533A9573
:1053F0003A9532953AD632B4329432D622F54A12E0
:1054000099F1C3D8F59F620C0000794F794F9273E0
:10541000B2F691F289907970816F610B180350EBAD
:1054200081D289D1BB57A2F4486871CF696EDD4241
:10543000FF09F794F70BF6A4FF47FF0961809B6013
:10544000FF48E648F796FFF39B818A80F6A9E6C7F6
:10545000E667FFAE8D298DCAC74FE7D3856D4CAB8C
:10546000AF9696949EF59EF575D1A7198EB84DF618
:105470004E17B7FF84F3028C361C25DA35DB35BBBB
:10548000259A35DB2539153A5FDF6EDD00A709CD9A
:105490000C79049A253B3C77039703F8149A45DB73
:1054A000012B0B360C391CBA0B7724FB1CB913F8F3
:1054B0000C183F1F447300002A942293225519D0E0
:1054C000010D2AB62A1109502A5419F233DB22B3EE
:1054D000000008AB3AF54C9B22D711D20005114CC5
:1054E0004358437732B42A343AF72A122A123AD66A
:1054F0003295327442F63AB52A733AB53B571A32AE
:10550000716FC337ED5F720D0000690D816F8A11F5
:10551000B2F6A23389908150794F690C200340C9BB
:1055200089D281D1A2B5B39750EA696F694EBC6345
:10553000EE45FF4EF74FEEA4F6C5FFC97A818AC04B
:10554000FF07EEC6E6CFFFF7CE287A20BC23FF2860
:10555000E6A7FF6CC60B7508C770C70FC712546B60
:1055600086529ED59694AF7886537613B79C66364E
:105570004DF68F5CAE7912AB2518257A2DFB35FAE6
:105580002D9935FB357914D8365D6FFF1B3000241B
:1055900013D704FB0CFB3CD81396141903B73E7EBB
:1055A000228D01AE0C3B1CBA1C3914592CF90BB6D8
:1055B0001CBB25BD563B000111AF2AF61A332A73D6
:1055C000118F1A343273092F2A95221222D73BDC0D
:1055D00008A800032A104C9B33791214008700049A
:1055E00032D553DA43152A33431719B019CF42F78E
:1055F000329532943AD53AD52A533A9443171AB48D
:10560000498FAA54D43BA3352005486A816F79D0CD
:10561000A274AA7491D18150794F714D282430879A
:1056200081B189D19233C3F9596C694E614DD52747
:10563000D4E2FEC8F771F6E8FF46EEA67220AC226F
:10564000FF06FEE7DE47F7D3F7928B019260FEE795
:10565000E6E7EEC9EF0E7D08A6ADB6EEE7F47D2DC8
:1056600054CDAF5796B5A6F69EF56DD1B75A7EB814
:1056700045D56678CF9E336D1412253A25BB2DFA99
:1056800035D82DBA461B24F71D3A5FFF3D7800023E
:105690001B140D1C04B9351823B50BD90BD72E1FBD
:1056A00033F300A8141B14791CBA03D82CD91C1688
:1056B000147A0C795F3E21A9006832F61A332AB5B4
:1056C0002A3309702A7319702255221222343BFEA4
:1056D00022730000198B3BD933D9127508C9000217
:1056E0002A945BFB4B7629F143372A7322103AD573
:1056F00032B5329432943AF63274327442F62B1642
:1057000039D091D1BB37B3983068488B716E696ED0
:105710009212AA749A138170794F796E384628458F
:1057200079B189F281B1CC1A69EE612D694EF62901
:10573000CCE3EE24FF2FF6EBFF66D5A47A60DDC53F
:10574000FEE6F6A7E645EF2DFFF4B48379A0E60563
:10575000EF07E688FF8E9D4985AAC750DF92AE51BC
:10576000442B9F169ED59694AF577E129E969F3AD5
:1057700045D64DD6CFFF64B20B2D359B15392DFB89
:105780003DF92D9A3E5D35581498477F4EDD004413
:10579000129214DC04992D1934160BB70BF81CDC8B
:1057A000457908E90B360C591CBA0BB824D9247773
:1057B0000BD80C38571F339200052A951A532294A0
:1057C00032B500ED225221F119F32A332212337936
:1057D0002B780002112933382BB922D708880024EE
:1057E00032D54BB94B9721F03B1632D532933294D8
:1057F00032953294329442F632942A533AD6333761
:105800003A1191D1AA75B37838A950AB694E612C81
:1058100081D1A233A23489B1712E796E48882024B7
:1058200079B08A12794FCC197A5050AB696FFE6902
:10583000EE27E5A3F6EBF6ABFEA4D5E6ABE4F66502
:10584000F6C6EE65F6A8EE88FFEEDE0871A0C4C2CB
:10585000F727E6A8FF4BBDEB7D08D7B2B6AECF75F4
:105860005CAD75B0A7379694AF17969575D2AF7BA0
:10587000663745D5A7DE96380ACA45FB14B71DBB67
:1058800035FC35B92DFC45BA1C962E7F577F09484B
:105890000A31149B04B914DB44D913960C1903D7AD
:1058A000467F2A6E018E0C5A1C7A1C391CB92CB703
:1058B0000B76253B35DE347700261A131A33123364
:1058C00032F610EC21F2221011B12A752232229305
:1058D0002B57006708EB22D72B582B190025008582
:1058E0003B373B174B9822522AB432B53B162AB4A9
:1058F0002A743A9532943AF532B42A333AB63316CA
:1059000042519A119A13B378490A408A696F610C1F
:1059100079CF91D199F391F2712E794E50EA180313
:10592000698E9233796FC3B98A92382879D0F62874
:10593000F669EDE6F6CADE08DD41F78AD5EADD0450
:10594000FEE7F665FEC7E667FF69F78C71C0ABA19D
:10595000FF28DEA9EEA7F6EC8D6AC72F9E2CD7D7BD
:1059600085903C09AF789ED59E95AF186DB1A6D8AD
:105970008EFA46166EB9B79E12CA3DD935590CD863
:105980002DFE3DDA259A467D34F71D1B57DF12CDDB
:105990000A3124BC1458045A353B23F603F803B7E4
:1059A000363F443600EA0C3B14391C7A0C3924D8B3
:1059B0001375465E24782374192A19D219F2121429
:1059C000227410EB21D22231119022551A5219F073
:1059D0002253114E092F1A552AF722F8002508A53F
:1059E000433832B653B932B4225232B53AF632D5D0
:1059F000223332B53AB432D532B42A533AB52AF604
:105A00003A3191D199D2D43C6A0F2005698F610D4A
:105A1000718E89F089B09A338150710E612C200407
:105A2000592C923389F1BB578251300781F2F5E846
:105A3000F629F648F6C9E689CCC2FEE7F76CCCC673
:105A4000F665F6C7F667EEC7EEE7FFEC8AC192800F
:105A5000F6E8DF4CCE48FF2BADEBA62CA66EBF348C
:105A6000BF152B868653A7179674AF388633967565
:105A70009EFA4DF65E58B7FF438E14735E9D1C76FA
:105A80001DBD3DFB2D79365D3D591458473F3D15F1
:105A900012B12CFD1C580C381C9A2C7803D713F823
:105AA0001D1C44F9118D0BF90C391C7A0BF81CDA0A
:105AB00013B64E9F2BD5124F226F119112132297BE
:105AC00011D1112C221319F119D022141A3319F003
:105AD00021F019B0099122752A9522D7006608A7EE
