S015000030305F554152545F64656275672E73726563AE
S3150000000060040020E10F0000210E0000DD0F00005B
S31500000010DD0F0000DD0F0000DD0F0000DD0F00002A
S31500000020000000000000000000000000DD0F0000DE
S31500000030DD0F000000000000DD0F0000DD0F0000F6
S3150000004065080000D9070000F50800003D0900001A
S315000000504000350000000000030000007C05002081
S3150000006014000020000000007C050020E4050020AC
S315000000704C06002000000000000000000000000008
S31500000080000000000000000000000000000000006A
S31500000090000000000000000000000000000000005A
S315000000A0000000000000000000000000000000004A
S315000000B00348044B834202D0034B03B118477047F1
S315000000C0600000206000002000000000064B074989
S315000000D0C91A891048BF0131491003D0044B0BB12E
S315000000E001481847704700BF6000002060000020EC
S315000000F00000000010B5064C237843B9FFF7D8FF7F
S31500000100044B13B10448AFF300800123237010BDE4
S315000001107C0400200000000084A2000108B5054B05
S315000001201BB105490548AFF30080BDE80840FFF75D
S31500000130CDBF00BF000000008004002084A20001A3
S31500000140022801D80120704708B501F073F9092289
S3150000015003461A60002008BD022801D80020704717
S3150000016008B501F067F9092203461A604FF0FF301F
S3150000017008BD00BF08B501F05DF9092203461A6003
S315000001804FF0FF3008BD00BF022808B504D84FF471
S31500000190005300204B6008BD01F04CF909230360B1
S315000001A0002008BD0149024800F03CB9742900004E
S315000001B0E8040020004870479C040020002110B489
S315000001C0044B054C19702180402204485DF8044B0D
S315000001D001F0E1B8980400209A0400209C04002055
S315000001E0044B1B88012B83BF034B187880F001005A
S315000001F0002070479A0400209804002008B503796F
S31500000200022B1BD0042B04D0012B01D1174A1370EB
S3150000021008BD8268D3B23A2B14D05C2B1DD0144B88
S315000002201B78002BF4D013490B883E2BF0D81248CC
S3150000023003F1010CA1F800C0C25408BD01220F4B06
S315000002401A7008BD00210B4B40220B48198001F0A3
S31500000250A2F80122064B1A7008BD0023054A04487D
S315000002600549128803708B5408BD00BFDD040020C9
S31500000270980400209A0400209C040020DC0400203E
S3150000028038B50D46044641220021284601F083F880
S3150000029014B194F9003003B938BD05F120032A469C
S315000002A02046044901F008F80028C4BF012385F858
S315000002B0403038BD2429000010B50648144600F029
S315000002C067F805490B78002BFCD000230B702046FD
S315000002D010BD00BFE8040020DC04002010B506486D
S315000002E0144600F04FF805490B78002BFCD000238C
S315000002F00B70204610BD00BFE8040020DD0400207E
S3150000030000B593B0FFF75AFFFFF74CFF114D124CA3
S31500000310124EFFF765FF0028FBD0FFF74BFF01A940
S31500000320FFF7AEFF9DF844303BB1284609AA01A964
S3150000033000F0B0FF019BA34202D0FFF73FFFE8E7C2
S31500000340BDF80830742BF8D1304609A900F0A2FF99
S31500000350F3E700BF302900007072696E4C29000077
S31500000360022800D070470249024800F0EDBB00BFEA
S31500000370A8290000E004002008B5FFF7C1FF00200F
S3150000038008BD00BF03460020C3E90512704700BF41
S3150000039010B4046AA37803F07B03A3708378046A1D
S315000003A003F00303D21A0B44C0E90332A37843F0E7
S315000003B08003A370837803F00303022B06D0036A3D
S315000003C00A780020DA705DF8044B70470B88026AE1
S315000003D043F47E43D38100205DF8044B704700BF91
S315000003E0F0B5846A85B005460F4694466E46B4B1AC
S315000003F094E80F0086E80F00EB6920461B78A7609B
S31500000400236084F804C0EB6AE3606B6A9847AC6AC1
S315000004101CB196E80F0084E80F0005B0F0BD344625
S31500000420EAE700BF012203460878824012F0060F71
S3150000043005D0CA6952681278120700F1CB810022F2
S315000004404FF0010C00F580002DE9F04100F58C50CD
S315000004500002C3E907101A704D6998785D628D69CC
S315000004606CF30100C3E90A2598704878D44C904291
S3150000047014BF65460225987865F30100987091F9D6
S315000004800B5091F80AE0680905F01F0620300CFAB7
S3150000049006F644F82060BFF34F8FBFF36F8FC9484D
S315000004A005F1C00650F8267062F3104740F8267032
S315000004B050F82660C44E4FEA0E1E67195FFA8EFE8C
S315000004C087F800E346F8253091F9055091F804E0E5
S315000004D06F0905F01F0820370CFA08F844F8278042
S315000004E0BFF34F8FBFF36F8F05F1C00750F827801A
S315000004F062F3104840F8278050F827704FEA0E1E26
S3150000050067195FFA8EFE87F800E346F8253091F901
S31500000510075091F806E06F0905F01F0820370CFA1E
S3150000052008F844F82780BFF34F8FBFF36F8F05F1AC
S31500000530C00750F8278062F3104840F8278050F82B
S3150000054027704FEA0E1E67195FFA8EFE87F800E3E2
S3150000055046F8253091F9095091F808E06F0905F041
S315000005601F0820370CFA08F844F82780BFF34F8F8E
S31500000570BFF36F8F05F1C00750F8278062F310486C
S3150000058040F8278050F827004FEA0E10C0B22C44DE
S3150000059084F8000346F82530EFF310868CF31088B4
S315000005A04FF000450C788948E540446824EA050484
S315000005B04460406886F31088186A8270186A02716F
S315000005C0186A4272186A8272186AC272186A42837C
S315000005D040F2F93208780CFA00FC1CEA020F02D04D
S315000005E040201A6AD0740625012240F2F9301C6AAE
S315000005F025770C78A240024240F0CA80CA78487833
S315000006008C78D200032842EA041200F0D580002834
S315000006100CBFE220F2201C6AD2B222701A6A9071D4
S31500000620CC69227B082A00F0C380186A520002F0C7
S315000006300202427300256278A078D201400100F0E0
S315000006402000D2B20243186A0572207802380128C7
S31500000650186A40F2A280D2B2C27160681A6A8478BF
S3150000066054704578147865F301041470C478947452
S31500000670D479007804F0A30400F05C002043D07124
S315000006800020C3E90300C3E90500DC694D4A94F97B
S315000006900540CD6904F1C00152F8216095F800C00B
S315000006A060F3104642F821600CF0030C52F821105A
S315000006B0BFF35F8F4FF0010E6109890004F01F043C
S315000006C001F1604101F561410EFA04F4C1F880417F
S315000006D00C60D96991F90B4004F1C00152F8216010
S315000006E060F3104642F8216052F82110BFF35F8F85
S315000006F06109890004F01F0401F160410EFA04F457
S3150000070001F56141C1F880410C60D96991F9074052
S3150000071004F1C00152F8216060F3104642F82160EE
S3150000072052F82110BFF35F8F6109890004F01F049E
S3150000073001F160410EFA04F401F56141C1F880410E
S315000007400C60D96991F9091001F1C00452F82460CE
S3150000075060F3104642F8246052F82420BFF35F8FFE
S315000007604A09920001F01F0102F160420EFA01F1FE
S3150000077002F56142C2F8801111601A6A4CF0700CE1
S3150000078082F802C06989124A19815A60BDE8F0816F
S315000007904FF478401A6A908230E7FF25457020783A
S315000007A0022808BF42F01002186AD2B2C27167E787
S315000007B00A201A6A50733DE7F22042F040022AE707
S315000007C000E100E0006000405C05002000400840B9
S315000007D05549435303207047EFF30383103B1F4AE9
S315000007E05BB203F1C00152F8210020F4803042F8D8
S315000007F0210052F821201A4A52F82300C3691B69C6
S3150000080083B1036903B17047026A0021937803F04C
S315000008107F0343F004039370436AC160C3B180222F
S31500000820FFF7DEBD0369026A002BEED08378C1684C
S3150000083003F00303022B0CD00B78D3708278D0E937
S31500000840031302F003029B1A1144C0E90313D9E70C
S3150000085070470B8843F47E43D381EFE70060004086
S315000008605C05002010B582B0EFF30383103B1F4AEE
S315000008705BB203F1C00152F8210020F4803042F847
S31500000880210052F821201A4A52F82340A27802F099
S315000008900303022B236A0CBF198A5979A3690CBF7B
S315000008A0C1F30801C9B2019143B9636AB3B1042225
S315000008B0204602B0BDE81040FFF792BD02F00302E9
S315000008C001A9606900F0BFFDD4E90521A37803F012
S315000008D003031A44C91AC4E9052109B102B010BDBF
S315000008E0636A002BFAD00122E2E700BF00600040F5
S315000008F05C05002010B5EFF303830E4A103B5CB293
S3150000090052F82400026A937803F07B039370436ADB
S315000009101BB102220021FFF763FD074A04F1C00361
S3150000092052F8231021F4803142F8231052F8233074
S3150000093010BD00BF5C0500200060004010B5EFF35D
S3150000094003831A4A103B5CB252F82400837803F002
S315000009500303022B036A0CBF198A597993F804C062
S315000009600CBFC1F30801C9B21CF0100F0CF038021D
S3150000097006D093F81CC01CF0010F08BF42F04002DD
S3150000098093F804C00CF0C70C83F804C0436A0BB19B
S31500000990FFF726FD064A04F1C00352F8231021F49E
S315000009A0803142F8231052F8233010BD5C05002038
S315000009B0006000402DE9F84F0388DBB182464FF016
S315000009C0000B4FF00109DFF8D0800024304D4FEACC
S315000009D0CB07DAF8043035F8022BD9198988914209
S315000009E00AD00134032CF4D1BAF800300BF1010B14
S315000009F05B45EAD8BDE8F88FDB5909FA04F603F03F
S31500000A00B853B3F1807FF6B298F8BB3413D03342B3
S31500000A1031D1204A04F1200612F81630DB09E0D065
S31500000A2012F81630012123F08003C82002F8163090
S31500000A3000F0B0F9D5E7334211D0164A04F120018F
S31500000A4012F81130DB09CCD112F81130C82043F06E
S31500000A50800302F81130012100F09CF9C1E7012062
S31500000A6000F088FA98F8BB340120334388F8BB3489
S31500000A7000F050FAE1E7012000F07CFA98F8BB3468
S31500000A80012023EA060388F8BB3400F043FAC0E7E6
S31500000A90DC2900000030084000E00140F8B50646B9
S31500000AA0FFF788FFEFF31082012383F31088234FAB
S31500000AB03B681BB92249CB704023CB703B6801339E
S31500000AC03B6082F31088338823B300211D4D08E074
S31500000AD01B01134445F82340328801318BB29A42F8
S31500000AE018D9736853F8314003EBC1029288E003CA
S31500000AF04FEA1223D2B2EBD502EB031055F820E0F1
S31500000B0024F4803C2EF4803E45F820E01B0145F895
S31500000B1020C0DEE7EFF31082012383F310883B68E1
S31500000B2013B13B68013B3B603B681BB9802004491D
S31500000B30CB70C87082F31088F8BD00BF580500203E
S31500000B40000D08400008084008B5034B036008463E
S31500000B50FFF7A4FF002008BD54524F50064B07492B
S31500000B6093F826001A6A51F82030C2F3026204494B
S31500000B70D3400B60704700BF00E0014060040020D6
S31500000B8078050020704700BFF8B54AF203500123EC
S31500000B904549464AA1F8FE03A2F80431B2F80431E9
S31500000BA09BB2002BFAD101204FF400454FF0090CFF
S31500000BB03F4CDFF818E13F4EC4F804E0DFF810E1DF
S31500000BC03D4FC4F80CE0A2F800013C4A3649B0603B
S31500000BD030602760A5602561626191F82620086A69
S31500000BE054F82220364EC0F30260C240326081F8CB
S31500000BF0133481F8A2C091F880341BB991F881347E
S31500000C0099074CD0284D95F88034002B3CD0002213
S31500000C10254B83F8812483F880240023224981F818
S31500000C20323091F83C301A07FBD543F2021000230C
S31500000C301D4A088581F82A3092F83C309B06FBD580
S31500000C400320052319494FF0F10C81F81C011D49B9
S31500000C50116282F8263092F82630156A54F823007D
S31500000C60C5F30264E04030600123F0244FF42540D0
S31500000C70154981F80CC00B720C7382F8303082F87B
S31500000C805230A2F8FE03F8BD0121C82085F8801471
S31500000C9000F080F895F88034012BFBD1B7E74FF4CC
S31500000CA07A70FFF76FFFB8E700E0014000C001402F
S31500000CB06004002000700040002D310100C2EB0BE3
S31500000CC078050020211201200020004000127A0041
S31500000CD000366E0138B50025284C0121C82084F85D
S31500000CE0285000F057F884F8245094F82430002B4C
S31500000CF0FBD194F82430214943F0020384F82430D0
S31500000D0091F82430C3F340009B07F9D41B4A81F8BD
S31500000D10220092F8223003F0FF00002BF9D192F85E
S31500000D204030164960F3C71382F8403091F84030DE
S31500000D30DB09FBD191F84200104A63F3C71081F832
S31500000D40420092F84230DB09FBD192F844000B498D
S31500000D5063F3C71082F8440091F84430C3F3C0141B
S31500000D60DB09F9D1012000F005F9054B012083F8D4
S31500000D70BB44BDE8384000F0CDB800BF00300840A5
S31500000D8000E00140704700BFA0F101000028FBD140
S31500000D90704700BF1F4B204A1B6800FB01F19342BE
S31500000DA013D302F1854202F5071203F5741302F616
S31500000DB0834203F6FF03A2FB03231B0DA3FB0131B2
S31500000DC04FF0FF30F9B1FFF7DFBF4FF47A7210B47E
S31500000DD0A1FB02C41148B0FBF3F34FF0FF3044B956
S31500000DE0BCFBF3FC4FEA9C0088B15DF8044BFFF7AF
S31500000DF0CBBF9B00B1FBF3F1A1FB0212002AF4D199
S31500000E00084620B1F1E71846002BDCD170475DF8A3
S31500000E10044B70477805002000127A0000CA9A3BFE
S31500000E2070B500240B4B0C4EB3F82021B3F840519B
S31500000E30ADB2154025FA04F3DB0704D556F8243085
S31500000E40E0B203B198470134102CF3D1014BA3F85B
S31500000E50305170BD006000401805002070B50320B9
S31500000E6084B000F087F86FF0FF054FF0FF31254A98
S31500000E70254C13885088002BA5640BBF002601263D
S31500000E800B466FF00103CDE90111039138B3918848
S31500000E9023F0020359B3D28823F0040322BB019343
S31500000EA019491A4A0B67C2F88032029B03204B6726
S31500000EB0C2F88432039B164C8B67C2F8883200F066
S31500000EC029F800230F4931F8022B03F1C000013342
S31500000ED00AB144F82020042BF5D104B070BD9088E7
S31500000EE00028D8D1D28842B123F00803D7E7D288A8
S31500000EF0002AD4D023F00803D1E7002ECFD10B4629
S31500000F00CEE700BFD42900000080004000E100E0E9
S31500000F1000600040EFF31081012383F31088124B29
S31500000F2033F8102092B22AB133F81020013A92B267
S31500000F3023F8102033F810309BB293B910B40B4A43
S31500000F400B4CB2F8FE3334F810009BB243F4254341
S31500000F5023EA0003A2F8FE3381F310885DF8044B00
S31500000F60704781F3108870476C05002000E001404F
S31500000F70BC2A000030B4EFF31081012383F31088FC
S31500000F800E4A32F810309BB26BB90D4C0D4DB4F8C9
S31500000F90FE3335F810C09BB243EA0C0343F42543F5
S31500000FA09BB2A4F8FE3332F8103001339BB222F81C
S31500000FB0103081F3108830BC704700BF6C050020EC
S31500000FC000E00140BC2A000008B500F033FA0C220C
S31500000FD003461A604FF0FF3008BD00BF00BE7047E1
S31500000FE008B500F035F8FFF7C7F9FEE7F8B5174F73
S31500000FF005463E68A6B17C6806EB460604EB860607
S3150000100002E00C34B4420BD0637AAB42F9D1D4E996
S3150000101000020021121A0C3400F0BDF9B442F3D1DB
S31500001020BE6896B1FC6804EB061602E01034A642D0
S315000010300BD0637BAB42F9D1D4E90002A168121A46
S31500001040103400F000FAA642F3D1F8BDE4290000FE
S315000010504FF47001274B284A70B50020C3F888105A
S315000010609A60FFF77DF9FFF78FFD0120FFF778F90A
S31500001070224B83F30A880020FFF7B8FFFFF76EFDC7
S31500001080FFF728FE0320FFF775FF00234FF6FF70DA
S315000010901B4903F1080201330C2B21F81200F8D189
S315000010A000240320FFF736FF0320FFF763FF154BED
S315000010B003205C609C60DC601C61FFF72BFF022054
S315000010C0FFF74EF90120FFF791FF0F4D0F4B5B1B0A
S315000010D0A3424FEAA30605DD55F8043B01349847C1
S315000010E0A642F9DCFFF7BAFEBDE870400020FFF724
S315000010F049BE00BF00ED00E00000000060000020D7
S31500001100000D084000000E407C2C0000802C0000E2
S31500001110002310B504468360818119464366C28167
S3150000112008228361C0E90033C0E904335C3000F073
S3150000113032F90D4B246263620C4BA3620C4BE362E3
S315000011400C4B23630C4B9C4206D003F1680294427D
S3150000115002D0D0339C4205D104F15800BDE81040BE
S3150000116000F06EB910BD00BF0D1300003313000070
S315000011706B1300008F1300007C050020024A034910
S31500001180034800F069B800BF0400002045230000B2
S315000011901400002041680C4B994210B5044601D05A
S315000011A001F0D0F8A168094B994202D0204601F01F
S315000011B0C9F8E168064B994204D02046BDE81040C4
S315000011C001F0C0B810BD00BF7C050020E40500207A
S315000011D04C06002010B50B4B04210B4C0B4A204645
S315000011E01A600022FFF794FF04F16800012209212A
S315000011F0FFF78EFF04F1D00002221221BDE8104055
S31500001200FFF786BFB40600207C0500207D11000094
S31500001210014800F016B900BFBD060020014800F0E5
S3150000122011B900BFBD06002010B50446FFF7F0FF58
S31500001230236A1BB1BDE81040FFF7F0BF044B2362E1
S31500001240044B1B68002BF5D1FFF7C4FFF2E700BF84
S3150000125095110000B40600202DE9F843074688469C
S3150000126014460026D4E90195B9F1010905D524688B
S31500001270002CF7D13046BDE8F883AB89012B07D99E
S31500001280B5F90E30013303D029463846C047064328
S315000012906835E9E70FB407B5064904AB086853F8A3
S315000012A0042B8168019300F0D5FB03B05DF804EBD5
S315000012B004B07047100000200EB430B59CB04FF457
S315000012C001721FACADF81420029054F8045B06902E
S315000012D000F0C6F80B4B2A46039002A90B93002395
S315000012E007900F9314934FF6FF730748ADF8163027
S315000012F023460068019400F00DFA1CB0BDE83040AA
S3150000130003B070472F1300001000002010B50C46E4
S31500001310B1F90E1000F06AF80028ABBF636DA3891F
S315000013201B1823F48053ACBF6365A38110BD002056
S3150000133070472DE9F0411F468B8905460C46DB05B3
S31500001340164605D502230022B1F90E1000F03CF82E
S31500001350A3893246B4F90E10284623F48053A3819C
S315000013603B46BDE8F04100F053B810B50C46B1F964
S315000013700E1000F029F8431CA38915BF606523F4FD
S31500001380805343F48053A38118BFA38110BDB1F9E4
S315000013900E1000F009B802440346934200D170478C
S315000013A003F8011BF9E7000038B50023054D044694
S315000013B008462B60FEF7D0FE431C02D12B6803B112
S315000013C0236038BDB806002038B50446064D0846E9
S315000013D0114600222A601A46FEF7CCFE431C02D1B3
S315000013E02B6803B1236038BDB806002038B5044623
S315000013F0064D0846114600222A601A46FEF76EFF81
S31500001400431C02D12B6803B1236038BDB806002007
S3150000141038B50446064D0846114600222A601A468B
S31500001420FEF74AFF431C02D12B6803B1236038BD87
S31500001430B8060020014B1868704700BF1000002056
S315000014407047704770470A44431E914200D1704767
S3150000145010B511F8014B914203F8014FF9D110BDB7
S31500001460034613F8012B002AFBD1181A01387047DE
S3150000147038B50546002941D051F8043C0C1F002B15
S31500001480B8BFE41800F0E0F81D4A136833B963608A
S3150000149014602846BDE8384000F0DCB8A34208D9FD
S315000014A0206821188B4201BF19685B680918216002
S315000014B0EDE71A465B680BB1A342FAD911685018DA
S315000014C0A0420BD120680144501811608342E0D13C
S315000014D018685B68084453601060DAE702D90C2389
S315000014E02B60D6E7206821188B4202BF19685B681B
S315000014F00918636008BF21605460CAE738BD00BFA1
S31500001500C406002070B50F4E0C460546316811B969
S3150000151001F044F830602146284601F03FF8431CAC
S3150000152003D14FF0FF34204670BDC41C24F00304E1
S31500001530A042F8D0211A284601F030F80130F2D145
S31500001540EFE700BFC00600202DE9F843CD1C064694
S3150000155025F0030508350C2D38BF0C25002D01DBC1
S31500001560A94204D90C2333600020BDE8F883DFF8D4
S31500001570D48000F069F8D8F800301C4644BB2946F0
S315000015803046FFF7BFFF431C044658D1D8F8004049
S315000015902746002F43D1002C4BD0236839463046CE
S315000015A004EB030900F0FAFF814542D12168304679
S315000015B06D1A2946FFF7A6FF01303AD023682B445F
S315000015C02360D8F800305A6862BBC8F800700FE094
S315000015D02268521B20D40B2A17D96119A342256011
S315000015E018BF5960636808BFC8F8001062514B60A5
S315000015F0304600F02FF804F10B00231D20F0070001
S31500001600C21A1CBF1B1AA350AFE76268A3420CBFE5
S31500001610C8F800205A60EBE723466468AEE73C460C
S315000016207F68B6E71A465B68A342FBD10023536086
S31500001630DEE70C233046336000F00CF894E70560D3
S31500001640D6E700BFC40600200148FFF7FABE00BF78
S31500001650BC0600200148FFF7F5BE00BFBC0600200F
S3150000166038B54B1C144603D14FF0FF35284638BD1C
S315000016709389CDB223F020039381636B52688BB1BB
S31500001680A36B934208DD23685A1E226003F8015CAF
S31500001690636801336360E9E7214600F0B4FE002881
S315000016A0F1D0E1E72169236851B1994208D213F8D4
S315000016B0011CA94204D1013B013223606260D5E7D7
S315000016C0C4E90F3204F1440363630323A36323468F
S315000016D003F8465F23600123DCE710B50C46496B2F
S315000016E069B104F14403994201D0FFF7C1FE00201D
S315000016F0236C6063636013B1E36B236010BD2369E1
S315000017004FF0FF30236000236360A38943F020037A
S31500001710A381F3E72DE9F04F0C46ADF5237D0021BB
S3150000172006460DF10408A64F0093CDF81881CDE9C1
S315000017304411A449A091A449A19192F80090B9F14D
S31500001740000F00F0588117F80930551C13F00803F4
S3150000175019D06368002B0FDD23681A78BA5C12076C
S3150000176001D42A46E9E7459A0133013223604592BE
S315000017706268013A6260ECE7A19B214630469847D1
S315000017800028E9D0EDE7B9F1250F40F086804193B6
S31500001790439353782A2B04BF1023951C4FF00A025B
S315000017A008BF4193AA461AF8011BA1F13003092B81
S315000017B01ED9DFF818B20322584600F0FFFE38B1F2
S315000017C0A0EB0B000123419A5546834013434193F6
S315000017D015F8013B782B06D8572B10D8252B5CD053
S315000017E056D8002B74D0032347930A23429387E0ED
S315000017F0439B554602FB031130394391D2E7A3F1CF
S315000018005802202AEFD801A151F822F0DF18000073
S31500001810E7170000E717000039190000E717000076
S31500001820E7170000E7170000E7170000E7170000BA
S31500001830E7170000E71700004F19000035190000F0
S31500001840971800009718000097180000E717000087
S31500001850F1180000E7170000E7170000E71700007F
S31500001860E71700005F190000F9180000D7180000FC
S31500001870E7170000E71700005B190000E7170000F4
S3150000188035190000E7170000E7170000DF18000011
S31500001890453B022BA7D8052331E06368002B0DDDFD
S315000018A023681A784A4540F0A680013362682360AF
S315000018B0013A459B62600133459352E7A19B21465D
S315000018C0304698470028EBD04498002840F08B809B
S315000018D04FF0FF308BE0419A42F020024192419A4C
S315000018E042F40072419210226E2B429202D905E018
S315000018F000234293032302E00823429304234793E1
S315000019006368002B3ADD419B590604D423681A7894
S31500001910BA5C120739D4479B022B48DC6B46224639
S3150000192041A9304600F03EFB012864D002287FF42E
S3150000193018AFC9E70A22D7E72946404600F02AFD34
S31500001940419B054643F0400341930123D7E7419B62
S3150000195043F0400341930023D1E70223CFE74198A8
S31500001960C3063FF5FEAE009BC007459A03F104018E
S3150000197000911B684CBF1A801A60F2E6A19B2146B3
S31500001980304698470028BED09EE7459A01324592D8
S315000019906268013A002A626002DD01332360B5E71E
S315000019A0A19B2146304698470028AFD08CE7042BF0
S315000019B00EDC6B46224641A9304600F04DFBB3E7EC
S315000019C0212B000061160000DB160000C62A00006D
S315000019D00A4B002B3FF4C5AE6B46224641A9304662
S315000019E0AFF30080A0E7A3895B063FF571AF0DF565
S315000019F0237DBDE8F08F4498F9E700BF00000000A2
S31500001A009368013B002B936010B408DA9469A342F3
S31500001A1001DB0A2903D15DF8044B00F02BBD1368E6
S31500001A20581C1060084619705DF8044B7047F8B5ED
S31500001A3006460F461446D518AC4201D1002007E0F1
S31500001A403A4614F8011B3046FFF7DAFF431CF3D180
S31500001A50F8BD00002DE9F04F0D469DB0144698469E
S31500001A60064618B1036A0BB9FFF7DEFB6B6ED907A2
S31500001A7005D4AB899A0502D4A86DFFF7E2FCAB89C1
S31500001A801B0701D52B699BB92946304600F030FD6E
S31500001A9070B16B6EDC0704D54FF0FF301DB0BDE8AA
S31500001AA0F08FAB899805F7D4A86DFFF7CBFCF3E769
S31500001AB00023CDF80C804FF00109DFF8B4810993BB
S31500001AC020238DF8293030238DF82A3023469A4674
S31500001AD013F8012B0AB1252AF9D1BAEB040B0BD066
S31500001AE05B46224629463046FFF7A1FF013000F04B
S31500001AF0A780099A5A4409929AF80030002B00F000
S31500001B009F8000234FF0FF320AF1010A04930793E6
S31500001B108DF853301A93CDE90523544605225448CF
S31500001B2014F8011B00F04AFD049AD8B9D10644BF47
S31500001B3020238DF85330130744BF2B238DF85330E1
S31500001B409AF800302A2B15D0079A544600204FF0F9
S31500001B500A0C214611F8013B303B092B4BD9B0B199
S31500001B60079214E0A0EB0803A24609FA03F3134315
S31500001B700493D2E7039B191D1B68002B0391BBBF7F
S31500001B805B4242F0020207930793B8BF04922378A0
S31500001B902E2B0AD163782A2B32D1039B02341A1DCD
S31500001BA01B6843EAE37303920593DFF8D4A003228C
S31500001BB02178504600F002FD38B1A0EB0A00402221
S31500001BC0049B013482401343049314F8011B06223C
S31500001BD028488DF8281000F0F1FC00283FD0264B4D
S31500001BE01BBB039B073323F0070308330393099BAF
S31500001BF03B4409936AE70CFB02320C460120A8E736
S31500001C00002301344FF00A0C19460593204610F8BC
S31500001C10012B303A092A03D9002BC6D00591C4E717
S31500001C200CFB012104460123F0E703AB2A4604A975
S31500001C3030460093114BAFF300800746781CD6D18F
S31500001C406B6ED90705D4AB899A0502D4A86DFFF748
S31500001C50F9FBAB895B063FF51FAF09981EE703AB9F
S31500001C602A4604A930460093044B00F07DF8E4E7C9
S31500001C70CA2A0000D02A0000000000002F1A000027
S31500001C80C62A00002DE9F047164698468A68074698
S31500001C900B690C46DDF820909342B8BF13463360BB
S31500001CA091F843200AB1013333602368990642BF95
S31500001CB0336802333360256815F0060506D104F152
S31500001CC0190AE36832689B1AAB422BDC94F843305E
S31500001CD02268003B18BF0123920630D404F1430268
S31500001CE041463846C847013023D023681A3454F891
S31500001CF00A2C03F00603042B0ABF54F80E5C0025D9
S31500001D0033684FF0000608BFED1A54F8123C08BFBE
S31500001D1025EAE5759342C4BF9B1AED18B5421AD160
S31500001D20002008E00123524641463846C8470130A4
S31500001D3003D14FF0FF30BDE8F0870135C1E7E11868
S31500001D405A1C30200233224481F8430094F845108F
S31500001D5082F84310C2E70123224641463846C84767
S31500001D600130E6D00136D9E72DE9FF470F7E9146CF
S31500001D7080460C46782F9A460C9E01F1430207D8FE
S31500001D80622F0AD8002F00F0D180582F00F0B880BB
S31500001D9004F1420684F842703AE0A7F16303152B7A
S31500001DA0F6D801A151F823F0011E0000151E00000F
S31500001DB0911D0000911D0000911D0000911D000065
S31500001DC0151E0000911D0000911D0000911D0000D0
S31500001DD0911D0000131F00003F1E0000CD1E0000D5
S31500001DE0911D0000911D0000351F0000911D00008F
S31500001DF03F1E0000911D0000911D0000D51E000031
S31500001E0033681A1D1B68326004F1420684F84230BA
S31500001E1001239CE033682068191D3160060601D550
S31500001E201D6803E04506FBD5B3F90050002D03DA23
S31500001E302D236D4284F8433058480A2311E0216867
S31500001E403368080653F8045B02D4490648BFADB2AE
S31500001E506F2F3360514814BF0A230823002184F8EA
S31500001E6043106668002EA66005DB21682E4321F02C
S31500001E70040121604BD01646B5FBF3F103FB115765
S31500001E80C75D06F8017D2F460D46BB42F4D9082BE7
S31500001E900BD12368DF0708D5236961689942DEBF45
S31500001EA0302306F8013C06F1FF36921B22614B46B1
S31500001EB003AA21464046CDF800A0FFF7E3FE013015
S31500001EC04AD14FF0FF3004B0BDE8F087236843F0F5
S31500001ED02003236078273248236884F845701F065C
S31500001EE0316851F8045B02D45F0648BFADB2316079
S31500001EF0D90744BF43F0200323601DB11023ADE78B
S31500001F002648E9E7236823F020032360F6E7164610
S31500001F10BDE733682568181D616930602E061B68A9
S31500001F2001D5196002E06806FBD519800023164624
S31500001F302361BCE7336800211A1D32601E6862689F
S31500001F40304600F03BFB08B1801B6060636823618C
S31500001F50002384F84330AAE72369324649464046BF
S31500001F60D0470130ADD023689B0713D4E068039BAC
S31500001F709842B8BF1846A6E701233246494640466E
S31500001F80D04701309DD00135E36803995B1AAB4217
S31500001F90F2DCEBE7002504F11906F5E7D72A000085
S31500001FA0E82A00002DE9F84315468A6880460C4663
S31500001FB032B98A69002A14BF4FF0FF3201228A60C3
S31500001FC022680027DFF88C90D1065FBF1A68111DC2
S31500001FD019601668A06988B1012807D12B681A789C
S31500001FE063699B5C53B9002F31D022E0022820D1CF
S31500001FF02B681B7819F803301B071AD4236801379E
S31500002000DA065EBF2B681B7806F8013B2A686B6808
S315000020100132013B2A60A2686B60013AA26042B1BC
S31500002020002BD7DCD4F88031294640469847002853
S31500002030D0D0236813F0100305D1E2680132E260C4
S31500002040A26902B13370236900203B442361BDE8D5
S31500002050F88300BF212B00002DE9F04F984687B08A
S31500002060724B0C468246164627464FF0000B93E805
S31500002070070003AB83E807006D4BA1696D4A03298E
S3150000208008BF1A46A36801925A1EB2F5AE7F89BFF1
S315000020906FF4AE754FF0000903EB050940F25D13CE
S315000020A088BFA36057F81C3B43F450633D4623604A
S315000020B0316803AB0222097853F82B0000F07EFA50
S315000020C028B3BBF1010F59D162682AB922680821E9
S315000020D042F4007261602260226822F4A0622260EB
S315000020E0A268511EA16092B13268511C316012780B
S315000020F005F8012B7268013A002A726007DCD4F8F1
S315000021008021314650469047002840F085800BF1EB
S31500002110010BBBF1030FCBD163680BB90A236360D4
S3150000212063684FF0000B44496069C91A00F032F940
S31500002130A3682268002B3DD03168606991F800C021
S3150000214010F80C00002835D0BCF1300F24D1100552
S3150000215022D50BF1010BB9F1000F03D0013309F1C0
S31500002160FF39A3607368013B002B73601BDD336886
S3150000217001333360A368013BA360D9E7BBF1020FCB
S31500002180AED1226802F4C061B1F5007FBFD1102143
S3150000219042F480726160A2E722F4106222600B783A
S315000021A005F8013BDEE7D4F88031314650469847C2
S315000021B00028DFD02368D9050DD5BD4209D905F120
S315000021C0FF3915F8011CD4F87C3132464D4650468D
S315000021D09847BD4228D0226812F0100213D12A7007
S315000021E0394663685046019EB047D8F800302168EA
S315000021F01A1D11F0200FC8F800201B680FD01860B8
S31500002200E3680133E360ED1B236900205D442B4442
S31500002210236107B0BDE8F08F4FF0000BCAE7CA078D
S315000022204CBF18801860EBE70120F2E7142B000082
S315000022302927000009280000092B0000B1F90C200D
S315000022402DE9F041160705460C4654D44B68002B81
S3150000225002DC0B6C002B48DDE66A002E45D000231D
S3150000226012F480522F68216A2B6030D0626DA389E8
S31500002270590705D56368D21A636B0BB1236CD21A62
S315000022800023E66A216A2846B047431CA38906D183
S3150000229029681D292BD82A4ACA40D60727D50022E5
S315000022A0D90462602269226004D5421C01D12B68E0
S315000022B003B96065616B2F60B9B104F144039942BB
S315000022C002D02846FFF7D4F8002363630DE001230C
S315000022D02846B0470246501CC9D12B68002BC6D0F1
S315000022E01D2B01D0162B1DD12F60002021E043F0BD
S315000022F040031BB21AE00F69002FF6D093070E6851
S315000023000F600CBF4B690023A6EB07088B60B8F182
S31500002310000FEADD43463A46216A2846A66AB047D8
S31500002320002808DCB4F90C3043F040034FF0FF30CE
S31500002330A381BDE8F0810744A8EB0008E7E700BFEA
S315000023400100402038B50B6905460C4613B9002537
S31500002350284638BD18B1036A0BB9FEF765FFB4F914
S315000023600C30002BF3D0626ED00704D4990502D44A
S31500002370A06DFFF766F828462146FFF75FFF636EFC
S315000023800546DA07E4D4A3899B05E1D4A06DFFF7DF
S3150000239059F8DDE770B50B78044601385E2B04F179
S315000023A0FF0513BF4A1C8A1C4B78002108BF012178
S315000023B000F8011FA842FBD10BB9501E70BD81F079
S315000023C001011046E154024612F8015B2D2D05D09D
S315000023D05D2D16D0002DF1D02B46F2E746785D2E06
S315000023E0FAD0B342F8DC02301A4601329642A154C2
S315000023F0FBDCF21A5D1C013AB342A8BF0022AB18FF
S31500002400E1E71046DAE72DE9F0410C46496B04F1A5
S31500002410440399421AD14FF48061FFF795F818B931
S315000024204FF0FF30BDE8F0814FF48063606300F247
S31500002430FD30A36394F84630837094F845304370BA
S3150000244094F84430037020600020EBE7A66B770019
S315000024503A4600F0C1F805460028E1D000EB060830
S31500002460014632464046FEF7EEFFC4F80080C4E956
S315000024700D57E9E7F8B50E461446054618B1036A46
S315000024800BB9FEF7D1FEA369A360A3891A0701D58C
S31500002490236943B92146284600F02AF818B14FF0BF
S315000024A0FF373846F8BD2368F6B222693746981AD0
S315000024B06369834205DC21462846FFF743FF00286F
S315000024C0EDD1A368013BA36023685A1C22601E70ED
S315000024D0431C62699A4204D0A389DB07E1D50A2E20
S315000024E0DFD121462846FFF72DFF0028D9D0D6E7B1
S315000024F038B5294B05460C46186818B1036A0BB95E
S31500002500FEF792FEB4F90C30190722D4DA0607D486
S3150000251009222A6043F040034FF0FF30A38133E0E5
S31500002520580712D5616B41B104F14403994202D0B8
S315000025302846FEF79DFF00236363A38923F0240347
S31500002540A3810023636023692360A38943F0080302
S31500002550A38123694BB9A38903F42073B3F5007FE4
S3150000256003D02146284600F076F9B4F90C3013F072
S3150000257001020AD00022A26062695242A261226967
S3150000258042B913F08000C5D138BD990758BF6269BA
S31500002590A260F4E70020F7E71000002038B500231A
S315000025A0054D044608462B60FEF70EFD431C02D17E
S315000025B02B6803B1236038BDB8060020C9B20346B4
S315000025C0024410B59342184601D1002003E0047876
S315000025D001338C42F6D110BD2DE9F0410746144671
S315000025E00D4621B91146BDE8F041FEF7ADBF2AB947
S315000025F02546FEF73DFF2846BDE8F08100F08AF942
S315000026008442064602D8B4EB500FF4D82146384629
S31500002610FEF79AFF804608B94546ECE7B4422246E3
S31500002620294628BF3246FEF70EFF29463846FEF7F2
S315000026301FFFF1E7242B2DE9F0478646904601D887
S31500002640012B06D1FEF7F6FE162303600020BDE837
S31500002650F0870D4633482A4615F8014B065D16F0FD
S315000026600806F8D12D2C10D12C780126951C33F0B4
S31500002670100215D1302C0DD12A7802F0DF02582A2B
S3150000268008D16C78023510230AE02B2C04BF2C7875
S31500002690951CECE7002BF6D1302C14BF0A23082337
S315000026A006F1004C00220CF1FF3C1046BCFBF3F98E
S315000026B003FB19CAA4F13007092F0FD83C46A342E1
S315000026C01BDD571C07D0814514D301D1A24511DB70
S315000026D000FB0340012215F8014BEBE7A4F141078B
S315000026E0192F01D8373CEAE7A4F16107192F04D85E
S315000026F0573CE4E74FF0FF32EDE7531C08D12223A5
S315000027006046CEF80030B8F1000FA0D0691E06E092
S3150000271006B14042B8F1000F99D0002AF6D1C8F8A8
S31500002720001094E7212B0000FFF784BF2DE9F0434A
S3150000273086460D46334E284615F8014B375D17F091
S315000027400807F8D12D2C10D12C780127851C33F0E1
S31500002750100015D1302C0DD1287800F0DF00582854
S3150000276008D16C78023510230AE02B2C04BF2C7894
S31500002770851CECE7002BF6D1302C14BF0A23082366
S315000027804FF0FF380026B8FBF3F803FB08F9304694
S315000027906FEA0909A4F1300CBCF1090F10D86446A0
S315000027A0A3421EDDB6F1FF3F07D0804516D301D107
S315000027B0A14513DB00FB0340012615F8014BE9E7B1
S315000027C0A4F1410CBCF1190F01D8373CE8E7A4F19C
S315000027D0610CBCF1190F04D8573CE1E74FF0FF3606
S315000027E0EBE7731C06D122233046CEF8003032B90F
S315000027F0BDE8F08307B14042002AF9D006B1691E50
S315000028001160F5E7212B0000FFF790BF70B50C466D
S31500002810B1F90E1096B0154600291E460CDAA389AA
S31500002820002113F0800F14BF40234FF48063002073
S3150000283031602B6016B070BD6A4600F049F800287A
S31500002840EDDB019901F47041A1F50053594259415C
S315000028504FF48063EBE78B89F7B59D0706460C4678
S3150000286007D504F14703236023610123636103B0A5
S31500002870F0BD01AB6A46FFF7C9FF009F054630462B
S315000028803946FEF761FE48B9B4F90C309A05EED424
S3150000289023F0030343F00203A381E2E7A389206048
S315000028A043F08003A381019BC4E904075BB1B4F93B
S315000028B00E10304600F01EF828B1A38923F003035A
S315000028C043F00103A381A3891D43A581CFE700003F
S315000028D038B50023064D0446084611462B60FDF721
S315000028E053FC431C02D12B6803B1236038BD00BFE3
S315000028F0B806002038B50023054D044608462B606F
S31500002900FDF71EFC431C02D12B6803B1236038BDC2
S31500002910B806002051F8043C181F002BBCBF0B580A
S31500002920C0187047253331732025333173000000FA
S31500002930434D443A2025732C204152473A202573B3
S315000029400D0A00007072696E74000000436F6D6DB1
S31500002950616E642072656365697665642077697463
S315000029606820617267756D656E743A2025730D0A6D
S3150000297000000000020200000C000C010C020C0317
S315000029800000000000000000FD0100000000000043
S315000029909429000000010000000000200F00FFFF46
S315000029A000000000FFFF000004000000B429000042
S315000029B00000000000000100080100000000010006
S315000029C000030000000001040103000000000104F0
S315000029D0020300008C018D018E018F0102040304A5
S315000029E004040000040000008C2A00000800000017
S315000029F00C2A000002000000FC290000000000680C
S31500002A0000000068600000206000002000000068F0
S31500002A10000000680000006000010C08000000686B
S31500002A20000000680000007000010908000000684E
S31500002A3000000068000000080001020800000068AD
S31500002A40000000685000000000010108000000209E
S31500002A50000000200000006000010C0300000020C0
S31500002A6000000020000000700001090300000020A3
S31500002A700000002000000008000002030000002003
S31500002A806000002050000000000001030000006804
S31500002A9000000068000100080000006800000068EF
S31500002AA00001000860000020600000200000000314
S31500002AB07C040020C806002000000003010002007C
S31500002AC0080010002000686C4C00232D302B2000DD
S31500002AD06566674546470030313233343536373818
S31500002AE03941424344454600303132333435363776
S31500002AF0383961626364656600412D46612D66382A
S31500002B003930313233343536375D002B2D003030D5
S31500002B10007858000B2B00000E2B0000112B000034
S31500002B200020202020202020202028282828282097
S31500002B30202020202020202020202020202020208F
S31500002B4020881010101010101010101010101010F7
S31500002B5010040404040404040404041010101010E7
S31500002B6010104141414141410101010101010101B1
S31500002B700101010101010101010101011010101003
S31500002B801010424242424242020202020202020283
S31500002B9002020202020202020202020210101010D7
S31500002BA020000000000000000000000000000000FF
S31500002BB0000000000000000000000000000000000F
S31500002BC000000000000000000000000000000000FF
S31500002BD000000000000000000000000000000000EF
S31500002BE000000000000000000000000000000000DF
S31500002BF000000000000000000000000000000000CF
S31500002C0000000000000000000000000000000000BE
S31500002C1000000000000000000000000000000000AE
S31500002C20000000004275696C742077697468205250
S31500002C30656E6573617320416476616E63656420B9
S31500002C40466C657869626C6520536F66747761724D
S31500002C5065205061636B6167652076657273696F85
S31500002C606E20362E342E3000362E342E30000000E4
S30900002C700000040650
S30900002C74F8B500BFEA
S30900002C78F8B500BFE6
S30900002C7C1D01000030
S30900002C80F500000055
S30D00002C84DCE7FF7F0100000000
S3090100A100FFFFFFFF58
S3090100A200FFFDFFFF59
S3090100A280F8F8FFFFE5
S70500000FE10A
