S015000030305F554152545F64656275672E73726563AE
S3150000000060040020ED0E00002D0D0000E90E00003A
S31500000010E90E0000E90E0000E90E0000E90E0000FE
S31500000020000000000000000000000000E90E0000D3
S31500000030E90E000000000000E90E0000E90E0000D5
S315000000406D070000E1060000FD07000045080000FE
S3150000005040003500000000000300000038050020C5
S31500000060140000200000000038050020A005002034
S31500000070080600200000000000000000000000004C
S31500000080000000000000000000000000000000006A
S31500000090000000000000000000000000000000005A
S315000000A0000000000000000000000000000000004A
S315000000B00348044B834202D0034B03B118477047F1
S315000000C0600000206000002000000000064B074989
S315000000D0C91A891048BF0131491003D0044B0BB12E
S315000000E001481847704700BF6000002060000020EC
S315000000F00000000010B5064C237843B9FFF7D8FF7F
S31500000100044B13B10448AFF300800123237010BDE4
S315000001107C0400200000000084A2000108B5054B05
S315000001201BB105490548AFF30080BDE80840FFF75D
S31500000130CDBF00BF000000008004002084A20001A3
S31500000140022801D80120704708B501F0ADF909224F
S3150000015003461A60002008BD022801D80020704717
S3150000016008B501F0A1F9092203461A604FF0FF30E5
S3150000017008BD00BF08B501F097F9092203461A60C9
S315000001804FF0FF3008BD00BF022808B504D84FF471
S31500000190005300204B6008BD01F086F90923036077
S315000001A0002008BD08B50649064800F0BFF800B9AA
S315000001B008BD0B21044B054A054800F069FD00BF48
S315000001C098190000A40400204419000088190000B2
S315000001D05819000003790146022B0CD0042B04D0D9
S315000001E0012B07D1064A13707047012205480831D2
S315000001F000F052B870470122034B1A70704700BFD7
S3150000020099040020A40400209804002010B5064894
S31500000210144600F041F805490B78002BFCD000236A
S315000002200B70204610BD00BFA404002098040020D7
S3150000023010B50648144600F029F805490B78002B3E
S31500000240FCD000230B70204610BD00BFA404002084
S315000002509904002008B5FFF7A5FF024800F0F6FF55
S31500000260FEE700BF78190000022800D07047024957
S31500000270024800F0EDBB00BFCC1900009C04002032
S3150000028008B5FFF7E7FF002008BD00BF03460020C2
S31500000290C3E90512704700BF10B4046AA37803F0DF
S315000002A07B03A3708378046A03F00303D21A0B441A
S315000002B0C0E90332A37843F08003A370837803F088
S315000002C00303022B06D0036A0A780020DA705DF871
S315000002D0044B70470B88026A43F47E43D3810020A7
S315000002E05DF8044B704700BFF0B5846A85B00546DB
S315000002F00F4694466E46B4B194E80F0086E80F00A8
S31500000300EB6920461B78A760236084F804C0EB6A7B
S31500000310E3606B6A9847AC6A1CB196E80F0084E804
S315000003200F0005B0F0BD3446EAE700BF01220346E0
S315000003300878824012F0060F05D0CA695268127812
S31500000340120700F1CB8100224FF0010C00F580006E
S315000003502DE9F04100F58C500002C3E907101A7030
S315000003604D6998785D628D696CF30100C3E90A25D1
S3150000037098704878D44C904214BF65460225987808
S3150000038065F30100987091F90B5091F80AE068093D
S3150000039005F01F0620300CFA06F644F82060BFF37D
S315000003A04F8FBFF36F8FC94805F1C00650F826700E
S315000003B062F3104740F8267050F82660C44E4FEAA4
S315000003C00E1E67195FFA8EFE87F800E346F82530A1
S315000003D091F9055091F804E06F0905F01F082037E0
S315000003E00CFA08F844F82780BFF34F8FBFF36F8FDE
S315000003F005F1C00750F8278062F3104840F82780BF
S3150000040050F827704FEA0E1E67195FFA8EFE87F8BE
S3150000041000E346F8253091F9075091F806E06F0998
S3150000042005F01F0820370CFA08F844F82780BFF3B8
S315000004304F8FBFF36F8F05F1C00750F8278062F327
S31500000440104840F8278050F827704FEA0E1E6719AB
S315000004505FFA8EFE87F800E346F8253091F90950D9
S3150000046091F808E06F0905F01F0820370CFA08F824
S3150000047044F82780BFF34F8FBFF36F8F05F1C00796
S3150000048050F8278062F3104840F8278050F827007C
S315000004904FEA0E10C0B22C4484F8000346F825300B
S315000004A0EFF310868CF310884FF000450C788948DE
S315000004B0E540446824EA05044460406886F31088F1
S315000004C0186A8270186A0271186A4272186A827211
S315000004D0186AC272186A428340F2F93208780CFA36
S315000004E000FC1CEA020F02D040201A6AD0740625CE
S315000004F0012240F2F9301C6A25770C78A2400242AC
S3150000050040F0CA80CA7848788C78D200032842EA3C
S31500000510041200F0D58000280CBFE220F2201C6AED
S31500000520D2B222701A6A9071CC69227B082A00F036
S31500000530C380186A520002F00202427300256278F4
S31500000540A078D201400100F02000D2B20243186A1E
S315000005500572207802380128186A40F2A280D2B2C9
S31500000560C27160681A6A847854704578147865F3A5
S3150000057001041470C4789474D479007804F0A30448
S3150000058000F05C002043D0710020C3E90300C3E9FA
S315000005900500DC694D4A94F90540CD6904F1C001B6
S315000005A052F8216095F800C060F3104642F82160C9
S315000005B00CF0030C52F82110BFF35F8F4FF0010EC1
S315000005C06109890004F01F0401F1604101F56141F0
S315000005D00EFA04F4C1F880410C60D96991F90B4018
S315000005E004F1C00152F8216060F3104642F8216020
S315000005F052F82110BFF35F8F6109890004F01F04D0
S3150000060001F160410EFA04F401F56141C1F880413F
S315000006100C60D96991F9074004F1C00152F82160D4
S3150000062060F3104642F8216052F82110BFF35F8F45
S315000006306109890004F01F0401F160410EFA04F417
S3150000064001F56141C1F880410C60D96991F9091041
S3150000065001F1C00452F8246060F3104642F82460A9
S3150000066052F82420BFF35F8F4A09920001F01F0160
S3150000067002F160420EFA01F102F56142C2F8801100
S3150000068011601A6A4CF0700C82F802C06989124A2D
S3150000069019815A60BDE8F0814FF478401A6A908259
S315000006A030E7FF2545702078022808BF42F0100287
S315000006B0186AD2B2C27167E70A201A6A50733DE718
S315000006C0F22042F040022AE700E100E0006000402C
S315000006D01805002000400840554943530320704741
S315000006E0EFF30383103B1F4A5BB203F1C00152F8DC
S315000006F0210020F4803042F8210052F821201A4AC5
S3150000070052F82300C3691B6983B1036903B17047BB
S31500000710026A0021937803F07F0343F00403937089
S31500000720436AC160C3B18022FFF7DEBD0369026A76
S31500000730002BEED08378C16803F00303022B0CD0A4
S315000007400B78D3708278D0E9031302F003029B1A68
S315000007501144C0E90313D9E770470B8843F47E437D
S31500000760D381EFE7006000401805002010B582B085
S31500000770EFF30383103B1F4A5BB203F1C00152F84B
S31500000780210020F4803042F8210052F821201A4A34
S3150000079052F82340A27802F00303022B236A0CBF0F
S315000007A0198A5979A3690CBFC1F30801C9B201912D
S315000007B043B9636AB3B10422204602B0BDE81040D3
S315000007C0FFF792BD02F0030201A9606900F075FE11
S315000007D0D4E90521A37803F003031A44C91AC4E92E
S315000007E0052109B102B010BD636A002BFAD00122BF
S315000007F0E2E700BF006000401805002010B5EFF3E7
S3150000080003830E4A103B5CB252F82400026A9378C6
S3150000081003F07B039370436A1BB102220021FFF7AA
S3150000082063FD074A04F1C00352F8231021F4803116
S3150000083042F8231052F8233010BD00BF18050020DF
S315000008400060004010B5EFF303831A4A103B5CB218
S3150000085052F82400837803F00303022B036A0CBFCB
S31500000860198A597993F804C00CBFC1F30801C9B2BB
S315000008701CF0100F0CF0380206D093F81CC01CF0C8
S31500000880010F08BF42F0400293F804C00CF0C70CF9
S3150000089083F804C0436A0BB1FFF726FD064A04F14C
S315000008A0C00352F8231021F4803142F8231052F885
S315000008B0233010BD18050020006000402DE9F84FD8
S315000008C00388DBB182464FF0000B4FF00109DFF8D9
S315000008D0D0800024304D4FEACB07DAF8043035F8E3
S315000008E0022BD919898891420AD00134032CF4D1FC
S315000008F0BAF800300BF1010B5B45EAD8BDE8F88F7A
S31500000900DB5909FA04F603F0B853B3F1807FF6B267
S3150000091098F8BB3413D0334231D1204A04F1200673
S3150000092012F81630DB09E0D012F81630012123F058
S315000009308003C82002F8163000F0B2F9D5E733423A
S3150000094011D0164A04F1200112F81130DB09CCD17E
S3150000095012F81130C82043F0800302F8113001214B
S3150000096000F09EF9C1E7012000F08AFA98F8BB343E
S315000009700120334388F8BB3400F052FAE1E7012046
S3150000098000F07EFA98F8BB34012023EA060388F8C3
S31500000990BB3400F045FAC0E7001A000000300840FA
S315000009A000E00140F8B50646FFF788FFEFF3108236
S315000009B0012383F31088234F3B681BB92249CB7070
S315000009C04023CB703B6801333B6082F31088338849
S315000009D023B300211D4D08E01B01134445F82340B5
S315000009E0328801318BB29A4218D9736853F8314074
S315000009F003EBC1029288E0034FEA1223D2B2EBD591
S31500000A0002EB031055F820E024F4803C2EF4803EDF
S31500000A1045F820E01B0145F820C0DEE7EFF3108221
S31500000A20012383F310883B6813B13B68013B3B60AD
S31500000A303B681BB980200449CB70C87082F31088CC
S31500000A40F8BD00BF14050020000D0840000808404E
S31500000A5008B5034B03600846FFF7A4FF002008BD56
S31500000A6054524F50064B074993F826001A6A51F81C
S31500000A702030C2F302620449D3400B60704700BFC6
S31500000A8000E001406004002034050020704700BFEC
S31500000A90F8B54AF2035001234549464AA1F8FE0338
S31500000AA0A2F80431B2F804319BB2002BFAD101202E
S31500000AB04FF400454FF0090C3F4CDFF818E13F4E6C
S31500000AC0C4F804E0DFF810E13D4FC4F80CE0A2F8EA
S31500000AD000013C4A3649B06030602760A560256158
S31500000AE0626191F82620086A54F82220364EC0F337
S31500000AF00260C240326081F8133481F8A2C091F8D6
S31500000B0080341BB991F8813499074CD0284D95F85B
S31500000B108034002B3CD00022254B83F8812483F8B7
S31500000B2080240023224981F8323091F83C301A079C
S31500000B30FBD543F2021000231D4A088581F82A30AE
S31500000B4092F83C309B06FBD50320052319494FF04C
S31500000B50F10C81F81C011D49116282F8263092F8C9
S31500000B602630156A54F82300C5F30264E04030606D
S31500000B700123F0244FF42540154981F80CC00B726F
S31500000B800C7382F8303082F85230A2F8FE03F8BDBA
S31500000B900121C82085F8801400F082F895F8803489
S31500000BA0012BFBD1B7E74FF47A70FFF76FFFB8E779
S31500000BB000E0014000C001406004002000700040D9
S31500000BC0002D310100C2EB0B34050020211201205B
S31500000BD00020004000127A0000366E0138B500256C
S31500000BE0284C0121C82084F8285000F059F884F8D0
S31500000BF0245094F82430002BFBD194F8243021495A
S31500000C0043F0020384F8243091F82430C3F3400003
S31500000C109B07F9D41B4A81F8220092F8223003F090
S31500000C20FF00002BF9D192F84030164960F3C71344
S31500000C3082F8403091F84030DB09FBD191F8420050
S31500000C40104A63F3C71081F8420092F84230DB097C
S31500000C50FBD192F844000B4963F3C71082F84400B5
S31500000C6091F84430C3F3C014DB09F9D1012000F038
S31500000C7007F9054B012083F8BB44BDE8384000F076
S31500000C80CFB800BF0030084000E00140704700BF09
S31500000C9000BEFEE7A0F101000028FBD1704700BFAF
S31500000CA01F4B204A1B6800FB01F1934213D302F14C
S31500000CB0854202F5071203F5741302F6834203F622
S31500000CC0FF03A2FB03231B0DA3FB01314FF0FF30F3
S31500000CD0F9B1FFF7DFBF4FF47A7210B4A1FB02C47B
S31500000CE01148B0FBF3F34FF0FF3044B9BCFBF3FC03
S31500000CF04FEA9C0088B15DF8044BFFF7CBBF9B0021
S31500000D00B1FBF3F1A1FB0212002AF4D1084620B18F
S31500000D10F1E71846002BDCD170475DF8044B7047AD
S31500000D203405002000127A0000CA9A3B70B50024F0
S31500000D300B4B0C4EB3F82021B3F84051ADB2154021
S31500000D4025FA04F3DB0704D556F82430E0B203B1E4
S31500000D5098470134102CF3D1014BA3F8305170BDE4
S31500000D6000600040D404002070B5032084B000F079
S31500000D7087F86FF0FF054FF0FF31254A254C1388A1
S31500000D805088002BA5640BBF002601260B466FF08A
S31500000D900103CDE90111039138B3918823F00203D1
S31500000DA059B3D28823F0040322BB019319491A4A86
S31500000DB00B67C2F88032029B03204B67C2F884326D
S31500000DC0039B164C8B67C2F8883200F029F8002383
S31500000DD00F4931F8022B03F1C00001330AB144F880
S31500000DE02020042BF5D104B070BD90880028D8D1FE
S31500000DF0D28842B123F00803D7E7D288002AD4D09C
S31500000E0023F00803D1E7002ECFD10B46CEE700BF73
S31500000E10F81900000080004000E100E0006000409A
S31500000E20EFF31081012383F31088124B33F810205F
S31500000E3092B22AB133F81020013A92B223F8102068
S31500000E4033F810309BB293B910B40B4A0B4CB2F87E
S31500000E50FE3334F810009BB243F4254323EA000323
S31500000E60A2F8FE3381F310885DF8044B704781F3D6
S31500000E70108870472805002000E00140E01A0000B5
S31500000E8030B4EFF31081012383F310880E4A32F851
S31500000E9010309BB26BB90D4C0D4DB4F8FE3335F8DE
S31500000EA010C09BB243EA0C0343F425439BB2A4F85B
S31500000EB0FE3332F8103001339BB222F8103081F342
S31500000EC0108830BC704700BF2805002000E00140B4
S31500000ED0E01A000008B500F0E7FA0C2203461A6093
S31500000EE04FF0FF3008BD00BF00BE704708B500F0E8
S31500000EF035F8FFF7C5F9FEE7F8B5174F05463E6822
S31500000F00A6B17C6806EB460604EB860602E00C34C6
S31500000F10B4420BD0637AAB42F9D1D4E90002002186
S31500000F20121A0C3400F072FAB442F3D1BE6896B1CC
S31500000F30FC6804EB061602E01034A6420BD0637B75
S31500000F40AB42F9D1D4E90002A168121A103400F0BC
S31500000F50B4FAA642F3D1F8BD081A00004FF47001A6
S31500000F60274B284A70B50020C3F888109A60FFF70F
S31500000F707BF9FFF78DFD0120FFF776F9224B83F30E
S31500000F800A880020FFF7B8FFFFF76CFDFFF726FE83
S31500000F900320FFF775FF00234FF6FF701B4903F18F
S31500000FA0080201330C2B21F81200F8D1002403208B
S31500000FB0FFF736FF0320FFF763FF154B03205C6046
S31500000FC09C60DC601C61FFF72BFF0220FFF74CF9E9
S31500000FD00120FFF791FF0F4D0F4B5B1BA3424FEA1A
S31500000FE0A30605DD55F8043B01349847A642F9DC13
S31500000FF0FFF7BAFEBDE870400020FFF747BE00BF0E
S3150000100000ED00E00000000060000020000D084038
S3150000101000000E40441B0000481B0000002310B5D2
S3150000102004468360818119464366C2810822836132
S31500001030C0E90033C0E904335C3000F0E7F90D4B3A
S31500001040246263620C4BA3620C4BE3620C4B23637A
S315000010500C4B9C4206D003F16802944202D0D03376
S315000010609C4205D104F15800BDE8104000F022BAB8
S3150000107010BD00BF5D1200007F120000B712000015
S31500001080DB12000038050020024A0349034800F03D
S3150000109069B800BF04000020CD170000140000202E
S315000010A041680C4B994210B5044601D000F08EFB06
S315000010B0A168094B994202D0204600F087FBE168FF
S315000010C0064B994204D02046BDE8104000F07EBB96
S315000010D010BD00BF38050020A0050020080600202E
S315000010E010B50B4B04210B4C0B4A20461A6000220C
S315000010F0FFF794FF04F1680001220921FFF78EFF34
S3150000110004F1D00002221221BDE81040FFF786BF8D
S31500001110700600203805002089100000014800F004
S31500001120CAB900BF79060020014800F0C5B900BF62
S315000011307906002010B50446FFF7F0FF236A1BB1BD
S31500001140BDE81040FFF7F0BF044B2362044B1B6859
S31500001150002BF5D1FFF7C4FFF2E700BFA110000096
S31500001160700600202DE9F8430746884614460026F7
S31500001170D4E90195B9F1010905D52468002CF7D108
S315000011803046BDE8F883AB89012B07D9B5F90E3097
S31500001190013303D029463846C04706436835E9E798
S315000011A0036A70B505460E4684680BB9FFF7C2FFA1
S315000011B0636EDB0705D4A389980502D4A06D00F001
S315000011C07AF9A389190702D52369002B35D121465F
S315000011D0284600F0C5F880B34FF0FF35636EDA0796
S315000011E005D4A3899B0502D4A06D00F065F92846B5
S315000011F070BD002B04DAA2699A4217DC0A2915D0C1
S3150000120023685A1C22601970A36816F8011F013B57
S31500001210A3600029EDD1002B11DA22460A212846C7
S3150000122000F05FF80130D7D00A25D7E722462846D6
S3150000123000F057F80130E7D1CEE7013EE4E7236836
S315000012405A1C22600A221A70EEE70000024B014681
S315000012501868FFF7A5BF00BF1000002010B50C46A8
S31500001260B1F90E1000F0FCF80028ABBF636DA3893E
S315000012701B1823F48053ACBF6365A38110BD2DE911
S31500001280F0411F468B8905460C46DB05164605D5FB
S3150000129002230022B1F90E1000F0D0F8A3893246DD
S315000012A0B4F90E10284623F48053A3813B46BDE8CB
S315000012B0F04100F0E7B810B50C46B1F90E1000F099
S315000012C0BDF8431CA38915BF606523F4805343F41E
S315000012D08053A38118BFA38110BDB1F90E1000F091
S315000012E09DB8F8B50E461446054618B1036A0BB903
S315000012F0FFF720FFA369A360A3891A0701D5236915
S3150000130043B92146284600F02BF818B14FF0FF37B5
S315000013103846F8BD2368F6B222693746981A6369DB
S31500001320834205DC2146284600F050FA0028EDD11C
S31500001330A368013BA36023685A1C22601E70431CED
S3150000134062699A4204D0A389DB07E1D50A2EDFD170
S315000013502146284600F03AFA0028D9D0D6E7000000
S3150000136038B5294B05460C46186818B1036A0BB9FF
S31500001370FFF7E0FEB4F90C30190722D4DA0607D4D9
S3150000138009222A6043F040034FF0FF30A38133E087
S31500001390580712D5616B41B104F14403994202D05A
S315000013A0284600F097F800236363A38923F02403FB
S315000013B0A3810023636023692360A38943F00803A4
S315000013C0A38123694BB9A38903F42073B3F5007F86
S315000013D003D02146284600F046FAB4F90C3013F043
S315000013E001020AD00022A26062695242A261226909
S315000013F042B913F08000C5D138BD990758BF62695C
S31500001400A260F4E70020F7E710000020024403463C
S31500001410934200D1704703F8011BF9E738B5002362
S31500001420054D044608462B60FEF796FE431C02D186
S315000014302B6803B1236038BD7406002038B5044616
S31500001440064D0846114600222A601A46FEF792FE0D
S31500001450431C02D12B6803B1236038BD74060020FB
S3150000146038B50446064D0846114600222A601A463B
S31500001470FEF7DEFE431C02D12B6803B1236038BDA4
S315000014807406002038B50446064D0846114600226B
S315000014902A601A46FEF7BAFE431C02D12B6803B136
S315000014A0236038BD74060020014B1868704700BFE2
S315000014B0100000207047704770470A44431E91424F
S315000014C000D1704710B511F8014B914203F8014F56
S315000014D0F9D110BD38B50546002941D051F8043C74
S315000014E00C1F002BB8BFE41800F0E0F81D4A136883
S315000014F033B9636014602846BDE8384000F0DCB8B4
S31500001500A34208D9206821188B4201BF19685B687D
S3150000151009182160EDE71A465B680BB1A342FAD9B8
S3150000152011685018A0420BD1206801445018116070
S315000015308342E0D118685B68084453601060DAE7BC
S3150000154002D90C232B60D6E7206821188B4202BFF4
S3150000155019685B680918636008BF21605460CAE7B0
S3150000156038BD00BF8006002070B50F4E0C460546FC
S31500001570316811B900F0D6F930602146284600F0EE
S31500001580D1F9431C03D14FF0FF34204670BDC41C73
S3150000159024F00304A042F8D0211A284600F0C2F92C
S315000015A00130F2D1EFE700BF7C0600202DE9F843B9
S315000015B0CD1C064625F0030508350C2D38BF0C2535
S315000015C0002D01DBA94204D90C2333600020BDE8BD
S315000015D0F883DFF8D48000F069F8D8F800301C46AC
S315000015E044BB29463046FFF7BFFF431C044658D18B
S315000015F0D8F800402746002F43D1002C4BD0236853
S315000016003946304604EB030900F08CF9814542D196
S31500001610216830466D1A2946FFF7A6FF01303AD0F9
S3150000162023682B442360D8F800305A6862BBC8F898
S3150000163000700FE02268521B20D40B2A17D96119BB
S31500001640A342256018BF5960636808BFC8F8001038
S3150000165062514B60304600F02FF804F10B00231D59
S3150000166020F00700C21A1CBF1B1AA350AFE762681E
S31500001670A3420CBFC8F800205A60EBE72346646813
S31500001680AEE73C467F68B6E71A465B68A342FBD1E5
S3150000169000235360DEE70C233046336000F00CF87D
S315000016A094E70560D6E700BF800600200148FFF7F3
S315000016B002BF00BF780600200148FFF7FDBE00BF4D
S315000016C078060020B1F90C202DE9F04116070546F1
S315000016D00C4654D44B68002B02DC0B6C002B48DD07
S315000016E0E66A002E45D0002312F480522F68216A44
S315000016F02B6030D0626DA389590705D56368D21A6D
S31500001700636B0BB1236CD21A0023E66A216A284662
S31500001710B047431CA38906D129681D292BD82A4A1C
S31500001720CA40D60727D50022D90462602269226002
S3150000173004D5421C01D12B6803B96065616B2F602B
S31500001740B9B104F14403994202D02846FFF7C2FE1C
S31500001750002363630DE001232846B0470246501C70
S31500001760C9D12B68002BC6D01D2B01D0162B1DD13D
S315000017702F60002021E043F040031BB21AE00F69FE
S31500001780002FF6D093070E680F600CBF4B6900233D
S31500001790A6EB07088B60B8F1000FEADD43463A4630
S315000017A0216A2846A66AB047002808DCB4F90C303E
S315000017B043F040034FF0FF30A381BDE8F0810744BA
S315000017C0A8EB0008E7E700BF0100402038B50B6929
S315000017D005460C4613B90025284638BD18B1036ADC
S315000017E00BB9FFF7A7FCB4F90C30002BF3D0626EEF
S315000017F0D00704D4990502D4A06DFFF75CFE2846F5
S315000018002146FFF75FFF636E0546DA07E4D4A38936
S315000018109B05E1D4A06DFFF74FFEDDE770B50C46E2
S31500001820B1F90E1096B0154600291E460CDAA389AA
S31500001830002113F0800F14BF40234FF48063002073
S3150000184031602B6016B070BD6A4600F049F800287A
S31500001850EDDB019901F47041A1F50053594259415C
S315000018604FF48063EBE78B89F7B59D0706460C4678
S3150000187007D504F14703236023610123636103B0A5
S31500001880F0BD01AB6A46FFF7C9FF009F054630462B
S315000018903946FFF78BFE48B9B4F90C309A05EED4F9
S315000018A023F0030343F00203A381E2E7A389206048
S315000018B043F08003A381019BC4E904075BB1B4F93B
S315000018C00E10304600F01EF828B1A38923F003035A
S315000018D043F00103A381A3891D43A581CFE700003F
S315000018E038B50023064D0446084611462B60FEF720
S315000018F04BFC431C02D12B6803B1236038BD00BFEB
S315000019007406002038B50023054D044608462B60B2
S31500001910FEF716FC431C02D12B6803B1236038BDC9
S315000019207406002038B50023054D044608462B6092
S31500001930FFF7D0FA431C02D12B6803B1236038BDF0
S31500001940740600204653505F535543434553532076
S315000019503D3D2065727200002E2E2F7372632F5547
S315000019604152545F64656275672F756172745F6476
S31500001970656275672E63000048656C6C6F20576F53
S31500001980726C64210D000000554152545F6465621B
S3150000199075675F496E697400020200000C000C0155
S315000019A00C020C030000000000000000D50100003E
S315000019B000000000B819000000010000000000202F
S315000019C00F00FFFF00000000FFFF00000400000002
S315000019D0D819000000000000000001000801000006
S315000019E000000100000300000000010401030000E4
S315000019F000000104020300008C018D018E018F019D
S31500001A00020403040404000004000000B01A0000ED
S31500001A1008000000301A000002000000201A000032
S31500001A2000000068000000686000002060000020E0
S31500001A3000000068000000680000006000010C085B
S31500001A40000000680000006800000070000109083E
S31500001A50000000680000006800000008000102089D
S31500001A600000006800000068500000000001010846
S31500001A7000000020000000200000006000010C03B0
S31500001A800000002000000020000000700001090393
S31500001A9000000020000000200000000800000203F3
S31500001AA0000000206000002050000000000001033C
S31500001AB000000068000000680001000800000068DF
S31500001AC0000000680001000860000020600000209F
S31500001AD0000000037C0400208406002000000003B0
S31500001AE00100020008001000200000004275696C29
S31500001AF07420776974682052656E6573617320413E
S31500001B006476616E63656420466C657869626C65AF
S31500001B1020536F667477617265205061636B6167ED
S31500001B20652076657273696F6E20362E342E30000E
S31100001B30362E342E3000000000000406A3
S30900001B3CF8B500BF33
S30900001B40F8B500BF2F
S30900001B441D01000079
S30900001B48F50000009E
S3090100A100FFFFFFFF58
S3090100A200FFFDFFFF59
S3090100A280F8F8FFFFE5
S70500000EEDFF
