:020000040800F2
:100000006007002079160008A5030008A703000870
:10001000AB030008AF030008B303000800000000B2
:10002000000000000000000000000000B70300080E
:10003000B903000800000000BB030008BD0300086E
:1000400093160008931600089316000893160008EC
:1000500093160008931600089316000893160008DC
:1000600093160008931600089316000893160008CC
:1000700093160008931600089316000893160008BC
:1000800093160008931600089316000893160008AC
:10009000931600089316000893160008931600089C
:1000A000931600089316000893160008931600088C
:1000B000931600089316000893160008931600087C
:1000C000931600089316000893160008931600086C
:1000D00093160008272400089316000893160008BA
:1000E000931600089316000893160008931600084C
:1000F000931600089316000893160008931600083C
:10010000931600089316000893160008931600082B
:10011000931600089316000893160008931600081B
:10012000931600089316000893160008931600080B
:1001300000F002F800F03AF80AA090E8000C8244BF
:100140008344AAF10107DA4501D100F02FF8AFF29C
:10015000090EBAE80F0013F0010F18BFFB1A43F0A5
:10016000010318476811010088110100103A24BFEB
:1001700078C878C1FAD8520724BF30C830C144BF0C
:1001800004680C607047000000230024002500264E
:10019000103A28BF78C1FBD8520728BF30C148BFEA
:1001A0000B6070471FB51FBD10B510BD02F0A4F95C
:1001B0001146FFF7F7FF00F009F802F0C2F903B4A7
:1001C000FFF7F2FF03BC02F0D3F800000EB502F017
:1001D00065F801F09DF8B7E04FF6FF7080231A46EE
:1001E00000210090084601F06EF858483823692233
:1001F000002100900B2001F004F800200C214FF6A4
:10020000FF724FF47843CDE90021029050A24621BD
:100210000A2000F0B2FB00200C214FF6FF724FF4D1
:100220007843CDE9002102904EA25A21072000F028
:10023000A4FB00200C214FF6FF724FF47843CDE968
:10024000002102904CA26E21102000F096FB4FF48A
:100250007A7002F060F84FF6FF7080231A46002192
:100260000090084601F02FF84FF4784080232022B8
:1002700000210090084601F026F84FF4FC6080232E
:10028000402200210090202001F01DF81F20802333
:10029000602200210090402001F015F84FF6E07038
:1002A00080231A4600210090602001F00CF84FF4E2
:1002B0007A7002F030F84FF4784040231A4600215B
:1002C0000090084600F0FFFF4FF4FC6040238022BE
:1002D00000210090184600F0F6FF1F2080234022E6
:1002E00011460090002000F0EEFF4FF6FF708023D3
:1002F0001A4640210090084600F0E5FF4FF47A705E
:1003000002F009F84FF6FF7080231A460021009092
:10031000084600F0D8FF1D4880231A4600210090AF
:10032000084600F06EFF01200C214FF6FF720023FB
:10033000CDE90021029016A26E210D2000F01DFBD8
:100340004FF47A7001F0E7FF46E700005C270008F1
:10035000312E3434205446545F4C4344205445538A
:10036000540000005245534F4C5554494F4E3A31BA
:1003700032387831323800004452495645522049CB
:10038000433A535437373335000000004C550008CA
:10039000636F6C6F722064657074682031366269B7
:1003A00074000000704700BFFEE700BFFEE700BF1B
:1003B000FEE700BFFEE770477047704770470000D8
:1003C0000CB50020019000906C48006840F480302B
:1003D0006A49086000BF6948006800F40030009076
:1003E0000198401C0190009818B90198B0F5A06FD1
:1003F000F1D16248006800F4003010B10120009093
:1004000001E0002000900098012843D15C4800687A
:1004100040F010005A4908600846006820F00300C8
:1004200008600846006840F00200086053484068D1
:10043000524948600846406848600846406840F4B1
:10044000806048600846406820F47C104860084698
:10045000406840F4E81048600846006840F080704A
:10046000086000BF4548006800F000700028F9D01F
:100470004248406820F00300404948600846406810
:1004800040F00200486000BF3C48406800F00C00AB
:100490000828F9D10CBD10B5FFF792FF10BD10B5BB
:1004A0003648006840F0010034490860084640685A
:1004B00034490840314948600846006832490840DC
:1004C0002E4908600846006820F48020086008462D
:1004D000406820F4FE0048604FF41F008860FFF77A
:1004E000DAFF4FF000602949086010BD10B5002107
:1004F00000200022214B5B6803F00C0121B104298C
:1005000006D0082928D107E0214B224C236027E0A0
:100510001F4B204C236023E0184B5B6803F47010E2
:10052000164B5B6803F48032022303EB904022B940
:10053000194B4343174C23600DE0104B5B6803F4E9
:10054000003323B1144B4343124C236003E0104BA0
:100550004343104C236003E00D4B0E4C236000BF5F
:1005600000BF064B5B68C3F303130C4CE15C094B03
:100570001B68CB40074C236010BD000000100240F8
:10058000002002400000FFF8FFFFF6FE08ED00E04B
:1005900000127A000000002000093D000400002045
:1005A00070B505460E4614463146284600F081FED9
:1005B000204601F049F870BD2DE9FF4F85B0814616
:1005C0008A460020039083460798A0EB0905089807
:1005D000A0EB0A06CDF80890CDF804A0002D01DDAF
:1005E000012705E00DB9002702E04FF0FF376D420B
:1005F000002E02DD4FF0010806E016B94FF00008AA
:1006000002E04FF0FF387642B54201DD2C4600E0B3
:100610003446002004901EE0019A91B2029A90B2F2
:10062000129AFFF7BDFF039828440390B344039840
:10063000A04205DD0398001B039002983844029005
:10064000A34504DDABEB040B0198404401900498F2
:10065000401C80B20490611C04988842DCDD09B023
:10066000BDE8F08F2DE9F84305460E46174698463B
:10067000089C33463A46314628460094FFF79CFFD3
:1006800043462A46314628460094FFF795FF4346E5
:100690003A46414628460094FFF78EFF43463A46C5
:1006A000314638460094FFF787FFBDE8F8832DE90F
:1006B000F84304460D4616461F46DDF820803B46AB
:1006C000324629462046CDF8008000F0FCFDBDE80A
:1006D000F8832DE9F04104460D4616461F46DDF825
:1006E0001880EA1991B2A21990B24246FFF758FF5A
:1006F000EA1991B2A21B90B24246FFF751FFEA1BE2
:1007000091B2A21990B24246FFF74AFFEA1B91B29A
:10071000A21B90B24246FFF743FFAA1991B2E21919
:1007200090B24246FFF73CFFAA1991B2E21B90B289
:100730004246FFF735FFAA1B91B2E21990B242463A
:10074000FFF72EFFAA1B91B2E21B90B24246FFF7C1
:1007500027FFBDE8F0812DE9FF4F81B082461746A3
:100760009846DDF838B000243D467800C0F1030615
:10077000BBF1000F20D01CE0A14609E04B46224609
:10078000CDF8008050460299FFF7A3FF09F1010957
:10079000A945F3DD002E04DA042000FB0460861D69
:1007A00006E0601B042101FB006000F10A066D1EDB
:1007B000641CAC42E0DD19E016E02B462246CDF881
:1007C000008050460299FFF784FF002E04DA0420CF
:1007D00000FB0460861D06E0601B042101FB006035
:1007E00000F10A066D1E641CAC42E6DD05B0BDE8F2
:1007F000F08F2DE9F84F05460E4617469846DDE97D
:100800000A9A0C9C43463A46314628460094FFF724
:10081000D3FE53464A46414638460094FFF7CCFE85
:1008200033462A46514648460094FFF7C5FEBDE8C8
:10083000F88F2DE9FF5F80468A4617469B460F9D3D
:1008400000200290CDF80080284605EBD071C1F35E
:1008500047042046E21704EB5272D2102146E317F8
:1008600004EB5373DB10A4EBC3030BB1012300E0D3
:1008700000231A446A4392B20192A7F12000C7B242
:100880000AEB0500401E83B208EB0400401E82B252
:100890005146404600F0ECFC002669E00C2D07D1E3
:1008A00007EB4700FE4901EB8000805D03901BE0F1
:1008B000102D05D1FB4800EB0710805D039013E07D
:1008C000182D07D107EB4700F74901EB0010805DB9
:1008D000039009E0202D05D1F44800EB8710805DDE
:1008E000039001E0BDE8FF9F4FF000093AE0109847
:1008F000C8B9012000FA09F00399084018B1584618
:1009000000F0A2FE02E00E9800F09EFE0298401C4D
:10091000C0B20290029890FBF4F104FB1100E8B918
:100920000020029021E0012000FA09F0039908401C
:1009300020B15A4651464046FFF732FE08F1010009
:100940001FFA80F80098A8EB0000A04206D1DDF85D
:1009500000800AF101001FFA80FA06E009F10100A7
:1009600000F0FF09B9F1080FC1DB00BF701C86B2AF
:100970000198864292DB00BFB4E72DE9FE4F0546A1
:100980000F4614469846DDE90D6ADDF8309017E011
:100990007F2D01DC7F2F01DDBDE8FE8FF0B2CDE9B8
:1009A000010ACDF800902278434639462846FFF7E1
:1009B00040FF304606EBD07105EB61018DB2641C3F
:1009C00020787E2802DC20782028E1DA00BFE3E7E7
:1009D00010B50246012000E050430B1EA1F10104B6
:1009E000E1B2F9D110BD2DE9FF4F85B00746914620
:1009F0001D46DDE913A600200490304606EBD071B9
:100A0000C1F3470B002434E0281B401EC1B20A206A
:100A1000FFF7DEFFB9FBF0F00A21B0FBF1F201FBBA
:100A200012080498A0B9681EA04211DDB8F1000FA9
:100A30000CD1159804FB0B71CDE900A6029088B289
:100A40002022129B0699FFF7F4FE10E0012004908B
:100A5000159808F13001CAB204FB0B71CDE900A66C
:100A6000029088B2129B0699FFF7E3FE00BF601C5C
:100A7000C4B2AC42C8DB09B0BDE8F08F2DE9FF4F2E
:100A800087B0804691461E46DDE9177BDDF858A009
:100A9000149D384607EBD071C1F3470104913146EC
:100AA0000A20FFF795FF019001F078FD494602907A
:100AB00001F088FD039001F051FD0590002432E023
:100AC000281B401EC1B20A20FFF782FF0599B1FB27
:100AD000F0F00A21B0FBF1F201FB12000690A81B16
:100AE000A04210D1AA1BCDE9017BCDF800A004994A
:100AF00002FB018188B22E22159B0899FFF799FE0F
:100B0000641C681CC5B2CDE9017BCDF800A0069934
:100B10003031CAB2049904FB018188B2159B08994F
:100B2000FFF787FE641CAC42CAD30BB0BDE8F08F60
:100B30002DE9FF5F0646894692469B460F9C0020A2
:100B4000039000962046E21704EB5272D210214621
:100B5000E31704EB5373DB10A4EBC3030BB10123C6
:100B600000E000231A44624392B2019205200290F1
:100B7000002579E005EB850000EBC5004C4911F834
:100B800010009AF8001088426BD105EB850000EB4D
:100B9000C500474901EB400040789AF801108842AF
:100BA0005FD109EB0400401E83B23019401E82B2AF
:100BB0004946304600F05CFB00274FE04FF000084C
:100BC00046E0109808BB05EB850000EBC5003849EE
:100BD00001EB4000801CC05D012101FA08F10840D2
:100BE00018B1584600F030FD02E00E9800F02CFDE0
:100BF0000398401CC0B20390039890FBF4F104FBEF
:100C0000110008BB0020039025E005EB850000EBF8
:100C1000C500274901EB4000801CC05D012101FA9D
:100C200008F1084020B15A4649463046FFF7B8FC63
:100C3000701C86B20098301AA04205D1009E09F1BE
:100C400001001FFA80F906E008F1010000F0FF083A
:100C5000B8F1080FB5DB00BF781CC7B20198874216
:100C6000ACDB00BF681C85B20298854282DBBDE820
:100C7000FF9F2DE9FF5F0646894692469B460F9CE3
:100C80000020039000962046E21704EB5272D21027
:100C90002146E31704EB5373DB10A4EBC30309E015
:100CA0004CD50008C0D90008B0DF000880F100086A
:100CB000400901080BB1012300E000231A446243FC
:100CC00092B2019226200290002571E005EB0510FA
:100CD000FA4911F810009AF80010884265D105EB26
:100CE0000510F64901EB400040789AF8011088425F
:100CF0005BD109EB0400401E83B23019401E82B262
:100D00004946304600F0B4FA00274BE04FF00008A7
:100D100042E01098F8B905EB0510E84901EB4000F6
:100D2000801CC05D012101FA08F1084018B1584645
:100D300000F08AFC02E00E9800F086FC0398401C4C
:100D4000C0B20390039890FBF4F104FB1100F8B9D2
:100D50000020039023E005EB0510D84901EB40008B
:100D6000801CC05D012101FA08F1084020B15A46FB
:100D700049463046FFF714FC701C86B20098301AC2
:100D8000A04205D1009E09F101001FFA80F906E09A
:100D900008F1010000F0FF08B8F1080FB9DB00BF4F
:100DA000781CC7B201988742B0DB00BF681C85B2CF
:100DB000029885428ADBBDE8FF9F2DE9FF5F06466A
:100DC000894692469B460F9C002003900096204641
:100DD000E21704EB5272D2102146E31704EB53736F
:100DE000DB10A4EBC3030BB1012300E000231A4482
:100DF000624392B2019205200290002579E005EB52
:100E0000850000EB4510AE4911F810009AF800106B
:100E100088426BD105EB850000EB4510A84901EB3A
:100E2000400040789AF8011088425FD109EB040035
:100E3000401E83B23019401E82B24946304600F04F
:100E400017FA00274FE04FF0000846E0109808BB63
:100E500005EB850000EB4510994901EB4000801C33
:100E6000C05D012101FA08F1084018B1584600F0B0
:100E7000EBFB02E00E9800F0E7FB0398401CC0B2C9
:100E80000390039890FBF4F104FB110008BB0020D1
:100E9000039025E005EB850000EB4510884901EB48
:100EA0004000801CC05D012101FA08F1084020B11A
:100EB0005A4649463046FFF773FB701C86B20098CD
:100EC000301AA04205D1009E09F101001FFA80F9F5
:100ED00006E008F1010000F0FF08B8F1080FB5DBEB
:100EE00000BF781CC7B201988742ACDB00BF681C0A
:100EF00085B20298854282DBBDE8FF9F2DE9FF5F46
:100F00000646894692469B460F9C00200390009619
:100F10002046E21704EB5272D2102146E31704EB8D
:100F20005373DB10A4EBC3030BB1012300E00023D8
:100F30001A44624392B2019205200290002571E0AA
:100F400005EB85105F4911F810009AF800108842EF
:100F500065D105EB85105B4901EB400040789AF8BC
:100F6000011088425BD109EB0400401E83B23019A6
:100F7000401E82B24946304600F07AF900274BE025
:100F80004FF0000842E01098F8B905EB85104D4984
:100F900001EB4000801CC05D012101FA08F108400E
:100FA00018B1584600F050FB02E00E9800F04CFBE0
:100FB0000398401CC0B20390039890FBF4F104FB2B
:100FC0001100F8B90020039023E005EB85103D499E
:100FD00001EB4000801CC05D012101FA08F10840CE
:100FE00020B15A4649463046FFF7DAFA701C86B2FD
:100FF0000098301AA04205D1009E09F101001FFAA5
:1010000080F906E008F1010000F0FF08B8F1080FD0
:10101000B9DB00BF781CC7B201988742B0DB00BFC4
:10102000681C85B2029885428ADBBDE8FF9F2DE9E6
:10103000FE4F8046894617469A46DDE90D460C9DCF
:1010400036E00C2C09D153463A4649464046CDE994
:1010500001460095FFF76CFD25E0102C09D15346A1
:101060003A4649464046CDE901460095FFF701FE64
:1010700019E0182C09D153463A4649464046CDE975
:1010800001460095FFF799FE0DE0202C09D153464B
:101090003A4649464046CDE901460095FFF72EFF06
:1010A00001E0BDE8FE8FBF1C08EB04001FFA80F8CA
:1010B00038780028C5D100BFF3E70000C209010855
:1010C000CE0E0108401001082DE9FF4F83B00646FF
:1010D00089461546DDE91148109FB2464FF0000BD6
:1010E0006CE0BBF1000F2ED104EBD4714910C1F1BB
:1010F0008001B14203DBC4F18001494502DA07B047
:10110000BDE8F08F2878802802DD4FF0010B55E014
:1011100028780D2806D109EB04001FFA80F95646FD
:101120006D1C0EE0CDE9014800972A78494630460B
:10113000069BFFF77EFB204604EBD07106EB6101B6
:101140008EB26D1C3AE0C4F18000B04203DBC4F102
:101150008000484500DAD2E74FF0000B0C2C09D193
:10116000CDE9014800972A4649463046069BFFF7DD
:10117000DFFC20E0102C09D1CDE9014800972A4678
:1011800049463046069BFFF774FD14E0182C09D140
:10119000CDE9014800972A4649463046069BFFF7AD
:1011A0000CFE08E0CDE9014800972A464946304642
:1011B000069BFFF7A3FEAD1C301986B228780028E5
:1011C0008FD100BF9BE72DE9FE4F0E4614461F4608
:1011D000DDE90D9ADDF83080204601F06AF985B22C
:1011E0008021A1EBC50000EBD071C1F34F0B3B4652
:1011F0002246314658468DE80007FFF765FFBDE8F7
:10120000FE8F2DE9FC5F0746884615461E46DDF831
:101210003090002408EB0600401E83B27819401E6F
:1012200082B24146384600F023F8A2461CE04FF057
:10123000000B13E019F814200192012000EB440088
:1012400019F800100091DDE9001241EA022000F0D7
:10125000FBF9641C0BF101001FFA80FBAB45E9DBD5
:101260000AF101001FFA80FAB245E0DBBDE8FC9FFD
:101270002DE9F04104460D4616461F462A2000F08F
:10128000C7F9A11C88B200F0DFF9B11C88B200F0E8
:10129000DBF92B2000F0BCF9E91C88B200F0D4F98E
:1012A000F91C88B200F0D0F92C2000F0B1F9BDE8AB
:1012B000F08170B504460D462B462246294620464D
:1012C000FFF7D6FF70BD2DE9F04706460F461446DE
:1012D0001D46DDF820A0681E83B2601E82B239462A
:1012E0003046FFF7C5FFB9460EE0B04606E050466F
:1012F00000F0AAF908F101001FFA80F8A045F6DB1A
:1013000009F101001FFA80F9A945EEDBBDE8F0877D
:1013100010B500F003F904217E4800F048FB1420CA
:1013200000F0F9FF04217B4800F043FB142000F09B
:10133000F2FF0421774800F03AFB782000F0EBFF41
:101340004021754800F033FB112000F061F978204E
:1013500000F0E1FFB12000F05BF9052000F066F934
:101360003A2000F063F93A2000F060F9B22000F072
:101370004FF9052000F05AF93A2000F057F93A20C9
:1013800000F054F9B32000F043F9052000F04EF9C5
:101390003A2000F04BF93A2000F048F9052000F01F
:1013A00045F93A2000F042F93A2000F03FF9B42024
:1013B00000F02EF9032000F039F9022000F036F990
:1013C000C02000F025F9A92000F030F9092000F034
:1013D0002DF9842000F02AF9C12000F019F9C42069
:1013E00000F024F9C22000F013F90D2000F01EF9DE
:1013F000002000F01BF9C32000F00AF98D2000F056
:1014000015F96A2000F012F9C42000F001F98D20CE
:1014100000F00CF9EE2000F009F9C52000F0F8F812
:10142000052000F003F9362000F0F2F8C82000F0A3
:10143000FDF83A2000F0ECF8052000F0F7F8E02085
:1014400000F0E6F8072000F0F1F81E2000F0EEF8BA
:101450000F2000F0EBF8192000F0E8F83A2000F037
:10146000E5F8342000F0E2F82C2000F0DFF82E2020
:1014700000F0DCF82C2000F0D9F82A2000F0D6F893
:10148000312000F0D3F83A2000F0D0F8002000F02E
:10149000CDF8022000F0CAF8012000F0C7F81020B3
:1014A00000F0C4F8E12000F0B3F8042000F0BEF82A
:1014B0001B2000F0BBF80B2000F0B8F8132000F060
:1014C000B5F8302000F0B2F82A2000F0AFF825205F
:1014D00000F0ACF82A2000F0A9F8292000F0A6F8C6
:1014E000272000F0A3F8302000F0A0F83D2000F005
:1014F0009DF8002000F09AF8012000F097F80420F1
:1015000000F094F8102000F091F8292000F080F805
:1015100010BD000000140140000C014008B501217D
:101520002C2000F053FC2020ADF8000010208DF896
:10153000030003208DF8020069464C4800F08AF948
:101540008020ADF8000010208DF8030003208DF8F6
:1015500002006946454800F07DF90420ADF800001E
:1015600010208DF8030003208DF8020069464048E2
:1015700000F070F92020ADF8000010208DF8030075
:1015800003208DF8020069463A4800F063F9102004
:10159000ADF800008DF8030003208DF802006946C5
:1015A000324800F057F94020ADF8000010208DF8C7
:1015B000030003208DF8020069462E4800F04AF926
:1015C00008BD70B504461021284800F0F2F9002546
:1015D00017E02021254800F0ECF904F0800020B14C
:1015E0008021224800F0E3F903E080211F4800F049
:1015F000E0F920211D4800F0DAF96006040E681CAD
:10160000C5B2082DE5DB1021184800F0D0F970BDF7
:1016100010B504462021174800F0CBF92046FFF70B
:10162000D0FF2021134800F0C2F910BD10B50446C8
:101630002021104800F0BBF92046FFF7C2FF20210F
:101640000C4800F0B4F910BD10B50446202109483B
:1016500000F0ADF92012FFF7B4FFE0B2FFF7B1FFE1
:101660002021044800F0A3F910BD0000000801404B
:1016700000140140000C0140094880470948004718
:10168000FEE7FEE7FEE7FEE7FEE7FEE7FEE7FEE732
:10169000FEE7FEE704480549054A064B704700008F
:1016A0009F0400083101000860010020600700204D
:1016B000600300206003002031490143314A11607A
:1016C000704770B5002100230F22C47804B32D4C5D
:1016D000246804F4E064C4F5E064210AC1F1040361
:1016E000CA40447804FA03F1847814402143090184
:1016F000254C0678A155047804F01F050124AC4060
:1017000005786D11AD0005F1E025C5F8004109E04F
:10171000047804F01F050124AC401C4D06787611B6
:1017200045F8264070BD1A4A0A400243154B1B1F5C
:101730001A60704739B1134A121D12680243114BE7
:101740001B1D1A6006E00F4A121D126882430D4BE2
:101750001B1D1A607047042808D14FF0E021096969
:1017600041F004014FF0E022116107E04FF0E02169
:10177000096921F004014FF0E02211617047000077
:101780000000FA050CED00E000E400E080E100E07C
:1017900080FFFF1F10B50446CC48844208D10121C8
:1017A000042000F02DFB0021042000F029FB46E07E
:1017B000C748844208D10121082000F021FB002104
:1017C000082000F01DFB3AE0C248844208D1012104
:1017D000102000F015FB0021102000F011FB2EE07E
:1017E000BD48844208D10121202000F009FB0021DE
:1017F000202000F005FB22E0B848844208D10121F6
:10180000402000F0FDFA0021402000F0F9FA16E037
:10181000B348844208D10121802000F0F1FA002170
:10182000802000F0EDFA0AE0AE48844207D10121A1
:10183000801500F0E5FA0021A01500F0E1FA10BDD6
:1018400010B50121084600F0DBFA0021012000F06C
:10185000D7FA10BD2DE9F0410246002500260020F0
:1018600000230024002791F803C00CF00F0591F825
:1018700003C00CF0100CBCF1000F03D091F802C0B3
:101880004CEA050591F800C0BCF1000F31D0146896
:1018900000202BE04FF0010C0CFA00F3B1F800C06F
:1018A0000CEA03069E4220D183004FF00F0C0CFA85
:1018B00003F7BC4305FA03FC4CEA040491F803C0A7
:1018C000BCF1280F06D14FF0010C0CFA00FCC2F855
:1018D00014C00AE091F803C0BCF1480F05D14FF0E5
:1018E000010C0CFA00FCC2F810C0401C0828D1D32F
:1018F0001460B1F800C0BCF1FF0F34DD5468002063
:101900002EE000F1080C4FF0010808FA0CF3B1F8D2
:1019100000C00CEA03069E4221D183004FF00F0C59
:101920000CFA03F7BC4305FA03FC4CEA040491F8F3
:1019300003C0BCF1280F05D100F1080C08FA0CF81F
:10194000C2F8148091F803C0BCF1480F07D100F130
:10195000080C4FF0010808FA0CF8C2F81080401C7F
:101960000828CED35460BDE8F0814FF6FF710180A6
:10197000022181700421C1707047024600209368E3
:101980000B400BB1012000E0002070470146886841
:1019900080B2704702460020D3680B400BB1012093
:1019A00000E0002070470146C86880B270470161BE
:1019B0007047416170470AB1016100E041617047C1
:1019C000C16070474FF480320A4382618161826155
:1019D00082698269704702460020434B18684FF6BF
:1019E0008073184040EA021008433F4B186070476C
:1019F0003E49C8617047F0B50A4600230024002123
:101A0000002500F00046B6F1004F02D1364EF169D4
:101A100001E0354E7168C0F3034583B200F440160F
:101A2000B6F5401F08D121F070612F4E766826F080
:101A300070662D4F7E6012E000F48016B6F5801FB0
:101A400006D1032606FA05F4A14341F0706106E0D1
:101A5000460D360103FA06F6B14341F0706122B13A
:101A6000460D360103FA06F6314300F00046B6F1A2
:101A7000004F02D11C4EF16101E01B4E7160F0BDC0
:101A800030B500228B071C0F0F2303FA04F2164B0C
:101A900008338C1053F824309343134C08348D10C2
:101AA00044F8253023468C1053F824308C07240F3B
:101AB00000FA04F423430C4C08348D1044F825300C
:101AC00030BD0A49DC310860704700000008014061
:101AD000000C0140001001400014014000180140BA
:101AE000001C014000200140000001400000204295
:101AF000DF48006840F00100DD49086008464068A2
:101B0000DC490840DA49486008460068DA4908407C
:101B1000D74908600846006820F48020086008461D
:101B2000406820F4FE0048604FF41F008860704752
:101B3000CF49096821F48031CD4A11601146096806
:101B400021F480211160B0F5803F03D0B0F5802FE3
:101B50000ED106E0C649096841F48031C44A1160DB
:101B600007E0C349096841F4A021C14A116000E0BF
:101B700000BF00BF704710B50146002200230020BF
:101B80004A11012A02D1BA4C236806E0022A02D186
:101B9000B74C236A01E0B64C636A01F01F020124CE
:101BA00094401C400CB1012000E0002010BD38B56D
:101BB000002000900024002500BF3120FFF7DBFF4C
:101BC00005460098401C00900098B0F5A06F01D029
:101BD000002DF2D03120FFF7CEFF08B1012400E044
:101BE0000024204638BD01460020A14A106820F09C
:101BF000F80040EAC10010607047A04908607047D3
:101C0000024600209A4B586820F47C1042EA0103F7
:101C10001843974B586070479849086670470146CB
:101C20000020934A506820F003000843506070473A
:101C30008F48406800F00C007047014600208C4A35
:101C4000506820F0F00008435060704701460020C3
:101C5000874A506820F4E0600843506070470146AE
:101C60000020834A506820F4605040EAC100506070
:101C7000704729B17E4A527A02437D4B5A7204E082
:101C80007B4A527A82437A4B5A7270477B49D831E9
:101C90000860704701460020754A506820F44040B3
:101CA0000843506070470021714A20321170704A19
:101CB00082F82010012802D004280AD104E0012172
:101CC0006B4A2032117005E00521694A20321170FB
:101CD00000E000BF00BF7047694908607047644971
:101CE000096A0143624A11627047654944390860D4
:101CF000704730B500210022002400235C4D6D6840
:101D000005F00C0121B1042905D0082923D105E0F3
:101D10005C4D056022E05B4D05601FE0544D6D6831
:101D200005F47012524D6D6805F48034022505EB00
:101D300092421CB9544D554305600BE04C4D6D6803
:101D400005F400351DB1504D5543056002E04D4D81
:101D50005543056002E04B4D056000BF00BF444D98
:101D60006D6805F0F0010909484D6B5C0568DD40C0
:101D700045603F4D6D6805F4E061090A434D6B5CB9
:101D80004568DD4085603A4D6D6805F46051C90ACB
:101D90003E4D6B5C4568DD40C560354D6D6805F4B2
:101DA0004041890B3A4D6B5CC568B5FBF3F50561A5
:101DB00030BD29B12E4A526902432D4B5A6104E0CD
:101DC0002B4A526982432A4B5A61704729B1284AEB
:101DD00092690243264B9A6104E0254A9269824344
:101DE000234B9A61704729B1214AD2690243204BA3
:101DF000DA6104E01E4AD26982431D4BDA61704702
:101E000029B11B4AD2680243194BDA6004E0184A30
:101E1000D2688243164BDA60704729B1144A1269BE
:101E20000243134B1A6104E0114A12698243104BBA
:101E30001A61704712494039086070470F49C864F9
:101E400070470B49C87170470948406A40F080707C
:101E500007494862704701460020054A92680A40D7
:101E60000AB1012000E000207047014988727047E4
:101E7000001002400000FFF8FFFFF6FE00004242A3
:101E80008004424200127A0000093D001400002044
:101E90002400002010B50446FB48844209D10121EA
:101EA0008803FFF7ADFF00214FF48040FFF7A8FF44
:101EB00032E0F648844209D101214804FFF7ADFF22
:101EC00000214FF40030FFF7A8FF25E0F0488442DE
:101ED00009D101218804FFF7A0FF00214FF48020E1
:101EE000FFF79BFF18E0EB48844209D10121C804A9
:101EF000FFF793FF00214FF40020FFF78EFF0BE068
:101F0000E548844208D101210805FFF786FF00213A
:101F10004FF48010FFF781FF10BD2DE9F04786B028
:101F200005460E460024A24600BFA1460027B08900
:101F300000B100BF2F462C8A4CF6FF700440F08899
:101F400004432C82AC894EF6F3100440B0883189EA
:101F50000843718908430443AC81AC8A4FF6FF40C3
:101F60000440B0890443AC8201A8FFF7C2FEC64812
:101F7000874202D1DDF810A001E0DDF80CA0A889AD
:101F800000F4004040B10AEBCA0000EB0A103168CF
:101F90004900B0FBF1F807E00AEBCA0000EB0A10B9
:101FA00031688900B0FBF1F86420B8FBF0F004015F
:101FB0002009642101FB1089A88900F4004040B188
:101FC000322000EBC900B0FBF1F000F00700044341
:101FD00008E0322000EB09106421B0FBF1F000F0C2
:101FE0000F0004432C8106B0BDE8F0874FF4165172
:101FF000016000218180C18001810C21418100218B
:102000008181704710B502460020108A4FF2FF030D
:1020100018400B884C8823438C882343CC88234367
:102020001843108210BD0021018041808180C18051
:10203000704721B1828942F40052828104E0828992
:102040004DF6FF731A4082817047F0B503460024B5
:1020500000260025002040F66A17B94200D100BFD3
:102060001846C1F3421401F01F06012707FA06F5CE
:10207000012C01D10C3004E0022C01D1103000E021
:1020800014301AB107682F43076002E00768AF43B6
:102090000760F0BD1AB1838A0B43838202E0838A12
:1020A0008B4383827047028A4FF6F0731A40028294
:1020B000028A0A430282704782894FF2FF731A40F4
:1020C000828182890A438281704721B1828942F0EC
:1020D0000202828104E082894FF6FD731A408281F8
:1020E0007047028A4FF6DF731A400282028A0A435F
:1020F0000282704721B1028A42F48042028204E0E7
:10210000028A4BF6FF731A4002827047C1F308023D
:102110008280704701468888C0F308007047818933
:1021200041F0010181817047028BD2B20283028BA0
:1021300042EA012202837047028B02F47F4202834B
:10214000028B0A430283704721B1828A42F0200247
:10215000828204E0828A4FF6DF731A4082827047DF
:1021600021B1828A42F01002828204E0828A4FF614
:10217000EF731A408282704721B1828A42F00802CE
:10218000828204E0828A4FF6F7731A408282704797
:1021900021B1828942F40042828103E08289C2F344
:1021A0000E028281704721B1828A42F400628282EB
:1021B00004E0828A4FF2FF731A4082827047828A5B
:1021C0004FF6FB731A408282828A0A4382827047EA
:1021D00021B1828A42F00202828204E0828A4FF6B2
:1021E000FD731A408282704702460020B1F5007FDD
:1021F00000D100BF13880B400BB1012000E000208C
:10220000704701F40072B2F5007F00D100BFCA43ED
:102210000280704770B5024600240023002500208C
:1022200040F66A16B14200D100BFC1F3421501F079
:102230001F03012606FA03F3012D02D196893340CC
:1022400006E0022D02D1168A334001E0968A33401F
:102250000C12012606FA04F41688344013B10CB1AE
:10226000012000E0002070BD10B50022002340F6E0
:102270006A14A14200D100BF0A1201249440A3B203
:10228000DC43048010BD00000038014000440040E1
:1022900000480040004C00400050004010B56FF076
:1022A0000400FFF758FA2E4800682E49B0FBF1F001
:1022B0002D4908700846007800EB4001C1EBC010C2
:1022C0004FF6FF7101EAC0002849088010BD0146A1
:1022D000254A12784A434FF0E0235A6100229A615E
:1022E0001A46126942F001021A6100BF4FF0E02263
:1022F000106900F001021AB100F48032002AF5D012
:102300004FF0E022126922F001024FF0E0231A613F
:1023100000229A6170470146144A12884A434FF0DE
:10232000E0235A6100229A611A46126942F00102C2
:102330001A6100BF4FF0E022106900F001021AB1EB
:1023400000F48032002AF5D04FF0E022126922F02A
:1023500001024FF0E0231A6100229A6170470000E9
:102360000000002000127A00280000202A0000202F
:10237000014600BF704700BF494A128802F0400280
:10238000002AF9D0C2B2464B1B1D1A80704710B507
:1023900086B00446012144F20400FFF717FD4FF414
:1023A0000070ADF8140003208DF8160018208DF889
:1023B000170005A93B48FFF74DFA4FF48060ADF8D0
:1023C000140004208DF8170005A93648FFF742FADB
:1023D00025208DF8000003208DF801008DF8020003
:1023E00001208DF803006846FFF76BF90194002087
:1023F000ADF80800ADF80A00ADF80C00ADF810001B
:102400000C20ADF80E0001A92548FFF786FD01223A
:1024100040F225512248FFF718FE01212048FFF71E
:1024200008FE06B010BD10B540F225511C48FFF75C
:10243000F1FE10B31A48FFF76DFEC4B21A480088C7
:1024400000F40040C8B91848008800F4804060B12A
:102450000A2C03D000201449088020E0124800888C
:1024600040F400401049088019E00D2C06D10E48B8
:10247000008840F480400C49088010E00A48008839
:10248000C0F30D0009490C5407480088401C064958
:10249000088008460088C72801DD0020088010BD9C
:1024A00000380140000801403000002034000020C6
:1024B000704710B5431C02E010F8011B71B1810791
:1024C000FAD14FF0013202C88C1A8C4314EAC211BF
:1024D000F9D0C01A0A0603D0C01E10BDC01A10BD24
:1024E0000A0401D0801E10BD0902FCD0401E10BDA0
:1024F0007047704770477047754600F02BF8AE463E
:1025000005006946534620F00700854618B020B5FF
:10251000FFF7C0F8BDE820404FF000064FF000077D
:102520004FF000084FF0000B21F00701AC46ACE87B
:10253000C009ACE8C009ACE8C009ACE8C0098D46E8
:10254000704710B50446AFF300802046BDE8104048
:10255000FDF735BE00487047FC000020C10DD1F1E9
:102560009E0206DB4FEA002343F0004323FA02F009
:102570007047004207D54FEA4001B1F1FE4F02D249
:102580004FF00000704710B500F09DF8499224808C
:10259000002070476FEA200070470000B0FA80F317
:1025A00010FA03F2C3F19D030AD0D90501EB122002
:1025B000530638BF704700F1010008BF20F001004A
:1025C000704700004FF47F0C1CEAD0121EBF1CEABB
:1025D000D11392EA0C0F93EA0C0F00F0478090EAB7
:1025E000010F48BF42F480724FF0004C4CEA0020CB
:1025F0004CEA012102EB0302A0FB0113A2F5000249
:10260000002918BF43F001035B0028BF4FEA3303E2
:1026100042EB22425FEA132C4CEBC2502EBFBCEBC4
:10262000436FB2F57C0F70474FEA036CBCF1004F6B
:1026300008BF20F00100B2F57C0F38BF70470BD502
:1026400082F0FF0212F5803FC8BF704700F1C04022
:10265000D8BF00F00040704700F5000C5FEA4C0C5A
:1026600048BF7047B0F1C04000F073B890EA010F66
:102670000CEAD11348BF42F48072624538BF63450B
:1026800004D280EA010000F00040704710B500F06D
:102690001AF800BF8900013E00F007B800F009B841
:1026A0005FEA410C5FEA1C6C08D080EA010000F090
:1026B00050B85FEA400C5FEA1C6CF6D14FF0004066
:1026C000A0F5800070470EF1020E2EF0030E5EF8AA
:1026D000044B244204D44FEA4102B2F17F4F11D897
:1026E0004FEA4003B3F17F4F0CD80ED14FEAD07CB4
:1026F000B2F17F4F0CEB4C0C0CF1020C08BF4CEB11
:10270000D17C04E04FF0080C01E04FEAD17C0CEBE7
:102710004C0324FA03F404F00704B4F1040C06D2C9
:102720000EEB840CBDE810404CF0010C6047DFE874
:102730000CF0070802024FF00040A0F5800010BD29
:102740000846420018BFD2F1807288BF00F00040F6
:1027500010BDFF2141EAD050C0057047FFFFFFFFC9
:10276000FFFFFFFFFFFFFFFFFFFFFFFFFFFFFFFF79
:10277000FFFFFFFFFFFFFFFFFFFFFFFFFFFFFFFF69
:10278000FFFFFFFFFFFFFFFFFFFFFFFFFFFFFFFF59
:10279000FFFFFFFFFFFFFFFFFFFFEFFF96BF13D716
:1027A0000C7A047A047A0459047A047A043B043BD0
:1027B000043A043A045A045A045A045A043A043AA9
:1027C000043A043A043A043A043A0419041904197C
:1027D00003D83437EFFFFFFFFFFFE7FF12F40BD9F9
:1027E00003F803F803D903B90BB913149E3CF7FFA0
:1027F000FFFFFFFFFFDFFFDFFFFFFFFFFFFFFFFF29
:10280000FFFFFFFFFFFFFFFFFFFFFFFFFFFFFFFFD8
:10281000FFFFFFFFFFFFFFFFFFFFFFFFFFFFFFFFC8
:10282000FFFFFFFFFFFFFFFFFFFFFFFFFFFFFFFFB8
:10283000FFFFFFFFFFFFFFFFFFFFFFFFFFFFFFFFA8
:10284000FFFFFFFFFFFFFFFFFFFFFFFFFFFFFFFF98
:10285000FFFFFFFFFFFFFFFFFFFFFFFFFFFFFFFF88
:10286000FFFFFFFFFFFFFFFFFFFFFFFFEFFF969F51
:1028700013D7047A047A047A045A047A045A043B7B
:10288000043B043A043904390439043A043A04197B
:102890000419041904190419041903F903F9041992
:1028A00003F803B72C17EFFFFFFFFFFFE7FF0AD383
:1028B00003B903D803D703B803990B980AF4963CDD
:1028C000F7FFFFFFFFFFFFFFFFFFFFFFFFFFFFFF20
:1028D000FFFFFFFFFFFFFFFFFFFFFFFFFFFFFFFF08
:1028E000FFFFFFFFFFFFFFFFFFFFFFFFFFFFFFFFF8
:1028F000FFFFFFFFFFFFFFFFFFFFFFFFFFFFFFFFE8
:10290000FFFFFFFFFFFFFFFFFFFFFFFFFFFFFFFFD7
:10291000FFFFFFFFFFFFFFFFFFFFFFFFFFFFFFFFC7
:10292000FFFFFFFFFFFFFFFFFFFFFFFFFFFFFFFFB7
:10293000FFFFFFFFFFFFFFFFFFFFFFFFFFFFEFFFB7
:10294000969F13D7045A047B045B045A045A045A12
:10295000045B043B043A043904390439041904398A
:10296000041904180418041903F903F903F903F905
:1029700003F903F903B82C17E7FFFFFFFFFFE7FF99
:102980000AD40BB903B803B803B8039903990AF43E
:10299000961CF7FFF7FFFFFFFFFFFFFFFFFFFFFFA3
:1029A000FFFFFFFFFFFFFFFFFFFFFFFFFFFFFFFF37
:1029B000FFFFFFFFFFFFFFFFFFFFFFFFFFFFFFFF27
:1029C000FFFFFFFFFFFFFFFFFFFFFFFFFFFFFFFF17
:1029D000FFFFFFFFFFFFFFFFFFFFFFFFFFFFFFFF07
:1029E000FFFFFFFFFFFFFFFFFFFFFFFFFFFFFFFFF7
:1029F000FFFFFFFFFFFFFFFFFFFFFFFFFFFFFFFFE7
:102A0000FFFFFFFFFFFFFFFFFFFFFFFFFFFFFFFFD6
:102A1000EFFF969F13B6045A045B045B045B045AF1
:102A2000045A045B045A043A043904390419041999
:102A300004190419041904190419041903F903F9F0
:102A400003F903F903F903B82C37E7FFFFFFFFFF92
:102A5000EFFF0AD40B9903B803B803B8039903999D
:102A60000AF4961BF7FFFFFFFFFFFFFFFFFFFFFFCB
:102A7000FFFFFFFFFFFFFFFFFFFFFFFFFFFFFFFF66
:102A8000FFFFFFFFFFFFFFFFFFFFFFFFFFFFFFFF56
:102A9000FFFFFFFFFFFFFFFFFFFFFFFFFFFFFFFF46
:102AA000FFFFFFFFFFFFFFFFFFFFFFFFFFFFFFFF36
:102AB000FFFFFFFFFFFFFFFFFFFFFFFFFFFFFFFF26
:102AC000FFFFFFFFFFFFFFFFFFFFFFFFFFFFFFFF16
:102AD000FFFFFFFFFFFFFFFFFFFFFFFFFFFFFFFF06
:102AE000FFFFEFFF96BF13B60C39045A043B045A9C
:102AF000045A045A045A043A0439043904190419CA
:102B00000419041A041A041A041A041903F903F91B
:102B100003F803F803F803F803B82C17E7FFFFFFE7
:102B2000FFFFEFFF0AD30B98039703B703B703B870
:102B300003980AF49E1BF7FFFFFFFFFFFFFFFFFF55
:102B4000FFFFFFFFFFFFFFFFFFFFFFFFFFFFFFFF95
:102B5000FFFFFFFFFFFFFFFFFFFFFFFFFFFFFFFF85
:102B6000FFFFFFFFFFFFFFFFFFFFFFFFFFFFFFFF75
:102B7000FFFFFFFFFFFFFFFFFFFFFFFFFFFFFFFF65
:102B8000FFFFFFFFFFFFFFFFFFFFFFFFFFFFFFFF55
:102B9000FFFFFFFFFFFFFFFFFFFFFFFFFFFFFFFF45
:102BA000FFFFFFFFFFFFFFFFFFFFFFFFFFFFFFFF35
:102BB000FFFFFFFFEFFF96BF1BB51439043A043A3D
:102BC000043A045A045A045A043A04390439043AB7
:102BD000041A041A041A041A041A041A041A041A05
:102BE00003F903F903F803F803F803B82C17E7FF18
:102BF000FFFFFFFFEFFF0AD30B98039803B703B75C
:102C000003B803980AF49DFBFFFFFFFFFFFFFFFFE0
:102C1000FFFFFFFFFFFFFFFFFFFFFFFFFFFFFFFFC4
:102C2000FFFFFFFFFFFFFFFFFFFFFFFFFFFFFFFFB4
:102C3000FFFFFFFFFFFFFFFFFFFFFFFFFFFFFFFFA4
:102C4000FFFFFFFFFFFFFFFFFFFFFFFFFFFFFFFF94
:102C5000FFFFFFFFFFFFFFFFFFFFFFFFFFFFFFFF84
:102C6000FFFFFFFFFFFFFFFFFFFFFFFFFFFFFFFF74
:102C7000FFFFFFFFFFFFFFFFFFFFFFFFFFFFFFFF64
:102C8000FFFFFFFFFFFFEFFF969F13B60C39043ADB
:102C9000043A043A045A043A043A043A0419041966
:102CA000041A041A03FA03FA03F903F903F903F9FE
:102CB00003FA03F903F903F803F803D803B72C1751
:102CC000E7FFFFFFFFFFE7FF0AB3037803780398EE
:102CD0000398039803780AD49DFBF7FFFFFFFFFFDB
:102CE000FFFFFFFFFFFFFFFFFFFFFFFFFFFFFFFFF4
:102CF000FFFFFFFFFFFFFFFFFFFFFFFFFFFFFFFFE4
:102D0000FFFFFFFFFFFFFFFFFFFFFFFFFFFFFFFFD3
:102D1000FFFFFFFFFFFFFFFFFFFFFFFFFFFFFFFFC3
:102D2000FFFFFFFFFFFFFFFFFFFFFFFFFFFFFFFFB3
:102D3000FFFFFFFFFFFFFFFFFFFFFFFFFFFFFFFFA3
:102D4000FFFFFFFFFFFFFFFFFFFFFFFFFFFFFFFF93
:102D5000FFFFFFFFFFFFFFFFEFFF969F13B60C394A
:102D6000043A043A043A045A0439041903F80BD714
:102D70000BB60BB60BB70BB70B960B9513950BB6A3
:102D800003D803F903F903F903F803D803D8039729
:102D90002BF6E7FFFFFFFFFFE7FF0A700B350B3550
:102DA0000B350B350B350B150A919DDAF7FFFFFF3D
:102DB000FFFFFFFFFFFFFFFFFFFFFFFFFFFFFFFF23
:102DC000FFFFFFFFFFFFFFFFFFFFFFFFFFFFFFFF13
:102DD000FFFFFFFFFFFFFFFFFFFFFFFFFFFFFFFF03
:102DE000FFFFFFFFFFFFFFFFFFFFFFFFFFFFFFFFF3
:102DF000FFFFFFFFFFFFFFFFFFFFFFFFFFFFFFFFE3
:102E0000FFFFFFFFFFFFFFFFFFFFFFFFFFFFFFFFD2
:102E1000FFFFFFFFFFFFFFFFFFFFFFFFFFFFFFFFC2
:102E2000FFFFFFFFFFFFFFFFFFFFEFFF96BF0B96C8
:102E30000C590439043A04390439041813D74D5B8A
:102E4000655A6539651865186539651965186539F4
:102E50005D5B1BD603D703D803F903F903D803D866
:102E600003972C16EFFFFFFFFFFFEFFF5C1464D802
:102E700064D864B76CB76CD864B85C35BE9CF7FF97
:102E8000FFFFFFFFFFFFFFFFFFFFFFFFFFFFFFFF52
:102E9000FFFFFFFFFFFFFFFFFFFFFFFFFFFFFFFF42
:102EA000FFFFFFFFFFFFFFFFFFFFFFFFFFFFFFFF32
:102EB000FFFFFFFFFFFFFFFFFFFFFFFFFFFFFFFF22
:102EC000FFFFFFFFFFFFFFFFFFFFFFFFFFFFFFFF12
:102ED000FFFFFFFFFFFFFFFFFFFFFFFFFFFFFFFF02
:102EE000FFFFFFFFFFFFFFFFFFFFFFFFFFFFFFFFF2
:102EF000FFFFFFFFFFFFFFFFFFFFFFFFEFFF8E5F03
:102F000013B60C390439045A043A04390C180B333B
:102F1000CFFFDFFFE7FFE7FFE7FFE7FFE7FFEFFF99
:102F2000DFFFCFFF34570BB703F903F903B803D81A
:102F300003B803972BF6EFFFFFFFFFFFFFFFEFFF45
:102F4000EFFFEFFFEFFFF7FFF7FFEFFFEFFFFFFFF1
:102F5000FFFFF7FFF7FFFFFFFFFFFFFFFFDFFFFFB1
:102F6000FFFFFFFFFFFFFFFFFFFFFFFFFFFFFFFF71
:102F7000FFFFFFFFFFFFFFFFFFFFFFFFFFFFFFFF61
:102F8000FFFFFFFFFFFFFFFFFFFFFFFFFFFFFFFF51
:102F9000FFFFFFFFFFFFFFFFFFFFFFFFFFFFFFFF41
:102FA000FFFFFFFFFFFFFFFFFFFFFFFFFFFFFFFF31
:102FB000FFFFFFFFFFFFFFFFFFFFFFFFFFFFFFFF21
:102FC000FFFFFFFFFFFFFFFFFFFFFFFFFFFFF7FF19
:102FD0009E9F139604180459043A043A043A0C18B4
:102FE0001353CFFFEFFFF7FFF7FFF7FFFFFFFFFFE1
:102FF000F7FFE7FFDFFF33F50B9603D803B803F9BC
:1030000003B803B803972BF6EFFFFFFFFFFFFFFFA7
:10301000FFFFF7FFF7FFF7FFFFFFF7FFEFFFF7FFF8
:10302000FFDFFFDFFFFFFFFFFFFFFFFFFFFFFFFFF0
:10303000FFFFFFFFFFFFFFFFFFFFFFFFFFFFFFFFA0
:10304000FFFFFFFFFFFFFFFFFFFFFFFFFFFFFFFF90
:10305000FFFFFFFFFFFFFFFFFFFFFFFFFFFFFFFF80
:10306000FFFFFFFFFFFFFFFFFFFFFFFFFFFFFFFF70
:10307000FFFFFFFFFFFFFFFFFFFFFFFFFFFFFFFF60
:10308000FFFFFFFFFFFFFFFFFFFFFFFFFFFFFFFF50
:10309000FFFFFFFFFFFFFFFFFFFFFFFFFFFFFFFF40
:1030A000F7FF967F13750C5904590419041A043A52
:1030B0000BF81B33D7FFF7FFFFFFFFFFFFFFFFFFFB
:1030C000FFFFFFFFF7FFD7FF33F50BB603F903D878
:1030D00003D803B803B803772BF6EFFFFFFFFFFF1A
:1030E000F7FFEFFFEFFFEFFFEFFFEFFFEFFFEFFF68
:1030F000EFFFFFFFFFFFFFFFFFFFFFFFFFFFFFFFF0
:10310000FFFFFFFFFFFFFFFFFFFFFFFFFFFFFFFFCF
:10311000FFFFFFFFFFFFFFFFFFFFFFFFFFFFFFFFBF
:10312000FFFFFFFFFFFFFFFFFFFFFFFFFFFFFFFFAF
:10313000FFFFFFFFFFFFFFFFFFFFFFFFFFFFFFFF9F
:10314000FFFFFFFFFFFFFFFFFFFFFFFFFFFFFFFF8F
:10315000FFFFFFFFFFFFFFFFFFFFFFFFFFFFFFFF7F
:10316000FFFFFFFFFFFFFFFFFFFFFFFFFFFFFFFF6F
:10317000FFFFEFFF967F13760BF803D8041903F9CE
:1031800003B813F71AF2D7FFF7FFFFFFFFFFFFFFA8
:10319000FFBFFFFFFFFFF7FFD7FF33F5039603D90C
:1031A00003D903D803B803B803772BF6EFFFFFFF6B
:1031B000FFFFEFFF4BD4549954984C7854785478CF
:1031C00054994BF5B65BF7FFFFFFFFFFFFFEFFFFD4
:1031D000FFFFFFFFFFFFFFFFFFFFFFFFFFFFFFFFFF
:1031E000FFFFFFFFFFFFFFFFFFFFFFFFFFFFFFFFEF
:1031F000FFFFFFFFFFFFFFFFFFFFFFFFFFFFFFFFDF
:10320000FFFFFFFFFFFFFFFFFFFFFFFFFFFFFFFFCE
:10321000FFFFFFFFFFFFFFFFFFFFFFFFFFFFFFFFBE
:10322000FFFFFFFFFFFFFFFFFFFFFFFFFFFFFFFFAE
:10323000FFFFFFFFFFFFFFFFFFFFFFFFFFFFFFFF9E
:10324000FFFFFFFFF7FF9E7E2B942C3734782C373F
:103250002C3734583C163331DFDFF7FFFFFFFFFF19
:10326000FFFFFFFFFFFFFFFFEFFFD7FF33F50BB7B8
:1032700003D803B803D803B803B803772BF6EFFFDE
:10328000FFFFFFFFE7FF0A5013350B150B350B153A
:103290000AF513150A719DDAF7FFF7FFFFFFFFFF2D
:1032A000FFFFFFFFFFFFFFFFFFFFFFFFFFFFFFFF2E
:1032B000FFFFFFFFFFFFFFFFFFFFFFFFFFFFFFFF1E
:1032C000FFFFFFFFFFFFFFFFFFFFFFFFFFFFFFFF0E
:1032D000FFFFFFFFFFFFFFFFFFFFFFFFFFFFFFFFFE
:1032E000FFFFFFFFFFFFFFFFFFFFFFFFFFFFFFFFEE
:1032F000FFFFFFFFFFFFFFFFFFFFFFFFFFFFFFFFDE
:10330000FFFFFFFFFFFFFFFFFFFFFFFFFFFFFFFFCD
:10331000FFFFFFFFFFFFFFFFF7FFEFFFE7FFE7FF05
:10332000EFFFEFFFE7FFE7FFF7FFFFFFFFFFFFFF05
:10333000FFFFFFFFFFFFFFDFFFFFFFFFDFFF33B4F4
:103340000B7503D803B803D803B8039803772BD7BA
:10335000EFFFFFFFFFFFEFFF0A920B570B560B56D5
:10336000035603560B570AB29DDAF7FFFFFFFFFF24
:10337000FFFFFFFFFFFFFFFFFFFFFFFFFFFFFFFF5D
:10338000FFFFFFFFFFFFFFFFFFFFFFFFFFFFFFFF4D
:10339000FFFFFFFFFFFFFFFFFFFFFFFFFFFFFFFF3D
:1033A000FFFFFFFFFFFFFFFFFFFFFFFFFFFFFFFF2D
:1033B000FFFFFFFFFFFFFFFFFFFFFFFFFFFFFFFF1D
:1033C000FFFFFFFFFFFFFFFFFFFFFFFFFFFFFFFF0D
:1033D000FFFFFFFFFFFFFFFFFFFFFFFFFFFFFFFFFD
:1033E000FFFFFFFFFFFFFFFFFFFFF7FFF7FFEFFF0D
:1033F000EFFFEFFFEFFFEFFFEFFFEFFFEFFFEFFF5D
:10340000F7FFEFFFF7FFEFFFF7FFF7FFEFFFD7FF44
:1034100034160B7603B803B803B803B803B80377C0
:103420002BD7EFFFFFFFFFFFEFFF0A920357037752
:1034300003560376037703370AB29DFBF7FFFFFFBE
:10344000FFFFFFFFFFFFFFFFFFFFFFFFFFFFFFFF8C
:10345000FFFFFFFFFFFFFFFFFFFFFFFFFFFFFFFF7C
:10346000FFFFFFFFFFFFFFFFFFFFFFFFFFFFFFFF6C
:10347000FFFFFFFFFFFFFFFFFFFFFFFFFFFFFFFF5C
:10348000FFFFFFFFFFFFFFFFFFFFFFFFFFFFFFFF4C
:10349000FFFFFFFFFFFFFFFFFFFFFFFFFFFFFFFF3C
:1034A000FFFFFFFFFFFFFFFFFFFFFFFFFFFFFFFF2C
:1034B000FFFFFFFFFFFFFFFFFFFFF7FFD79F965CB8
:1034C00096BE96BF969F96BF9EBF969E96BF96BF8E
:1034D00096BF969F9E9F9E9F969F969F9EBF969FEC
:1034E00086BF2417037703B803B80398039803989B
:1034F00003772BD6EFFFFFFFFFFFE7FF0A9203578B
:10350000037703760357035703370AB29DFBF7FF90
:10351000FFFFFFFFFFFFFFFFFFFFFFFFFFFFFFFFBB
:10352000FFFFFFFFFFFFFFFFFFFFFFFFFFFFFFFFAB
:10353000FFFFFFFFFFFFFFFFFFFFFFFFFFFFFFFF9B
:10354000FFFFFFFFFFFFFFFFFFFFFFFFFFFFFFFF8B
:10355000FFFFFFFFFFFFFFFFFFFFFFFFFFFFFFFF7B
:10356000FFFFFFFFFFFFFFFFFFFFFFFFFFFFFFFF6B
:10357000FFFFFFFFFFFFFFFFFFFFFFFFFFFFFFFF5B
:10358000FFFFFFFFFFFFFFFFFFFFFFFFF7FF9E7D36
:1035900023731BB51BF61BD61BD623D61BB51BD519
:1035A0001BB51BB61BB61BB61B961BB613B61B95DD
:1035B00013B513D70BB703D903B903B803B80398EE
:1035C000039803772BD6EFFFFFFFFFFFE7FF0A9279
:1035D0000357037703760357035703370AB295FB64
:1035E000F7FFFFFFFFFFFFFFFFFFFFFFFFFFFFFFF3
:1035F000FFFFFFFFFFFFFFFFFFFFFFFFFFFFFFFFDB
:10360000FFFFFFFFFFFFFFFFFFFFFFFFFFFFFFFFCA
:10361000FFFFFFFFFFFFFFFFFFFFFFFFFFFFFFFFBA
:10362000FFFFFFFFFFFFFFFFFFFFFFFFFFFFFFFFAA
:10363000FFFFFFFFFFFFFFFFFFFFFFFFFFFFFFFF9A
:10364000FFFFFFFFFFFFFFFFFFFFFFFFFFFFFFFF8A
:10365000FFFFFFFFFFFFFFFFFFFFFFFFFFFFF7FF82
:103660009E7E135313F70C180BF90BD80BD80BF7DE
:103670000BD70BD70BD80BD80BB70BB70BB70BB7B8
:1036800003960BD7037603B703B803B803B80377E1
:103690000398037703572BD6EFFFFFFFFFFFE7FFEA
:1036A0000A920357037703560357033603360AB2C9
:1036B00095FBF7FFFFFFFFFFFFFFFFFFFFFFFFFF90
:1036C000FFFFFFFFFFFFFFFFFFFFFFFFFFFFFFFF0A
:1036D000FFFFFFFFFFFFFFFFFFFFFFFFFFFFFFFFFA
:1036E000FFFFFFFFFFFFFFFFFFFFFFFFFFFFFFFFEA
:1036F000FFFFFFFFFFFFFFFFFFFFFFFFFFFFFFFFDA
:10370000FFFFFFFFFFFFFFFFFFFFFFFFFFFFFFFFC9
:10371000FFFFFFFFFFFFFFFFFFFFFFFFFFFFFFFFB9
:10372000FFFFFFFFFFFFFFFFFFFFFFFFFFFFFFFFA9
:10373000F7FF967E13750C1803F903FA03FA03F9E1
:1037400003F803F803F803F903D903D803D803B83F
:1037500003B703B703B803B8039703980398039715
:1037600003B70397037703572BD6EFFFFFFFFFFF46
:10377000EFFF0A7103570357035603570336033607
:103780000A9295FBF7FFFFFFFFFFFFFFFFFFFFFF21
:10379000FFFFFFFFFFFFFFFFFFFFFFFFFFFFFFFF39
:1037A000FFFFFFFFFFFFFFFFFFFFFFFFFFFFFFFF29
:1037B000FFFFFFFFFFFFFFFFFFFFFFFFFFFFFFFF19
:1037C000FFFFFFFFFFFFFFFFFFFFFFFFFFFFFFFF09
:1037D000FFFFFFFFFFFFFFFFFFFFFFFFFFFFFFFFF9
:1037E000FFFFFFFFFFFFFFFFFFFFFFFFFFFFFFFFE9
:1037F000FFFFFFFFFFFFFFFFFFFFFFFFFFFFFFFFD9
:10380000FFFFF7FF9EBF13750BF8041A03FA03FAC4
:10381000041903D803F803F903F903D903D803D82B
:1038200003D703B703B8039703B8039703D80397E5
:10383000037603970397039703572BD6EFFFFFFFFA
:10384000FFFFEFFF0A7103370357035603370336B1
:1038500003360A9295FBF7FFFFFFFFFFFFFFFFFF15
:10386000FFFFFFFFFFFFFFFFFFFFFFFFFFFFFFFF68
:10387000FFFFFFFFFFFFFFFFFFFFFFFFFFFFFFFF58
:10388000FFFFFFFFFFFFFFFFFFFFFFFFFFFFFFFF48
:10389000FFFFFFFFFFFFFFFFFFFFFFFFFFFFFFFF38
:1038A000FFFFFFFFFFFFFFFFFFFFFFFFFFFFFFFF28
:1038B000FFFFFFFFFFFFFFFFFFFFFFFFFFFFFFFF18
:1038C000FFFFFFFFFFFFFFFFFFFFFFFFFFFFFFFF08
:1038D000FFFFFFFFF7FF8E5E137503F8041903FA6D
:1038E00003D903F903F803F903F903F903D903D959
:1038F00003D803B703B703B803D903B803970397F3
:1039000003B7039703770397037703562BD6EFFF8D
:10391000FFFFFFFFEFFF0A7103370357035603371B
:103920000336033602929DFBF7FFFFFFFFFFFFFF09
:10393000FFFFFFFFFFFFFFFFFFFFFFFFFFFFFFFF97
:10394000FFFFFFFFFFFFFFFFFFFFFFFFFFFFFFFF87
:10395000FFFFFFFFFFFFFFFFFFFFFFFFFFFFFFFF77
:10396000FFFFFFFFFFFFFFFFFFFFFFFFFFFFFFFF67
:10397000FFFFFFFFFFFFFFFFFFFFFFFFFFFFFFFF57
:10398000FFFFFFFFFFFFFFFFFFFFFFFFFFFFFFFF47
:10399000FFFFFFFFFFFFFFFFFFFFFFFFFFFFFFFF37
:1039A000FFFFFFFFFFFFF7FF967E13950BF803B8AD
:1039B00003F903D903F803F803D803D903D903D9CA
:1039C00003D903D803B803B803B803B9039803B8FD
:1039D00003980397039703980378037703562BB64E
:1039E000E7FFFFFFFFFFEFFF0A71033703360356C0
:1039F00003370336031602929DFBF7FFFFFFFFFF1D
:103A0000FFFFFFFFFFFFFFFFFFFFFFFFFFFFFFFFC6
:103A1000FFFFFFFFFFFFFFFFFFFFFFFFFFFFFFFFB6
:103A2000FFFFFFFFFFFFFFFFFFFFFFFFFFFFFFFFA6
:103A3000FFFFFFFFFFFFFFFFFFFFFFFFFFFFFFFF96
:103A4000FFFFFFFFFFFFFFFFFFFFFFFFFFFFFFFF86
:103A5000FFFFFFFFFFFFFFFFFFFFFFFFFFFFFFFF76
:103A6000FFFFFFFFFFFFFFFFFFFFFFFFFFFFFFFF66
:103A7000FFFFFFFFFFFFFFFFF7FF969F0B340BF8E1
:103A800003F903D903B8041903F803D803B803B73B
:103A900003B703B803B703B7039703B803980398B2
:103AA00003770397039703760B760B770B560B354B
:103AB00033B4EFFFFFFFFFFFEFFF0A510337033679
:103AC00003360336033603160A929DFBF7FFFFFF0A
:103AD000FFFFFFFFFFFFFFFFFFFFFFFFFFFFFFFFF6
:103AE000FFFFFFFFFFFFFFFFFFFFFFFFFFFFFFFFE6
:103AF000FFFFFFFFFFFFFFFFFFFFFFFFFFFFFFFFD6
:103B0000FFFFFFFFFFFFFFFFFFFFFFFFFFFFFFFFC5
:103B1000FFFFFFFFFFFFFFFFFFFFFFFFFFFFFFFFB5
:103B2000FFFFFFFFFFFFFFFFFFFFFFFFFFFFFFFFA5
:103B3000FFFFFFFFFFFFFFFFFFFFFFFFFFFFFFFF95
:103B4000FFFFFFFFFFFFFFFFFFFFF7FF967F0B5514
:103B50000BD803F803D803D803F803D803B70B96A0
:103B600013751355137513750B550B551335133505
:103B700013350B350B350B340B340B340B3413343A
:103B80000AF22B52EFFFFFFFFFFFEFFF0A510B3747
:103B900003360336033603160316029295DBF7FF4E
:103BA000FFFFFFFFFFFFFFFFFFFFFFFFFFFFFFFF25
:103BB000FFFFFFFFFFFFFFFFFFFFFFFFFFFFFFFF15
:103BC000FFFFFFFFFFFFFFFFFFFFFFFFFFFFFFFF05
:103BD000FFFFFFFFFFFFFFFFFFFFFFFFFFFFFFFFF5
:103BE000FFFFFFFFFFFFFFFFFFFFFFFFFFFFFFFFE5
:103BF000FFFFFFFFFFFFFFFFFFFFFFFFFFFFFFFFD5
:103C0000FFFFFFFFFFFFFFFFFFFFFFFFFFFFFFFFC4
:103C1000FFFFFFFFFFFFFFFFFFFFFFFFF7FF967FA5
:103C20000B550BD803F803D903D803F803D80B5569
:103C3000763F861E85FC85FD861D7DDD861D85FD06
:103C400085DD85FD85FD85FD7DFD7DFD7DFD7DDCC5
:103C50007DFC7DBB95FBF7FFFFFFFFFFEFFF0A51E8
:103C600003170336033603360316031602729DDB71
:103C7000F7FFFFFFFFFFFFFFFFFFFFFFFFFFFFFF5C
:103C8000FFFFFFFFFFFFFFFFFFFFFFFFFFFFFFFF44
:103C9000FFFFFFFFFFFFFFFFFFFFFFFFFFFFFFFF34
:103CA000FFFFFFFFFFFFFFFFFFFFFFFFFFFFFFFF24
:103CB000FFFFFFFFFFFFFFFFFFFFFFFFFFFFFFFF14
:103CC000FFFFFFFFFFFFFFFFFFFFFFFFFFFFFFFF04
:103CD000FFFFFFFFFFFFFFFFFFFFFFFFFFFFFFFFF4
:103CE000FFFFFFFFFFFFFFFFFFFFFFFFFFFFF7FFEC
:103CF000967F13540BD803D903D903D903D80BD714
:103D00000AF3CFFFEFFFF7FFF7FFEFFFEFFFEFFF44
:103D1000F7FFF7FFF7FFEFFFEFFFEFFFEFFFEFFF1B
:103D2000EFFFEFFFEFFFF7FFFFFFFFFFFFFFE7FFF3
:103D30000A510B17033603360316031603160271D6
:103D40009DDBF7FFFFFFFFFFFFFFFFFFFFFFFFFF11
:103D5000FFFFFFFFFFFFFFFFFFFFFFFFFFFFFFFF73
:103D6000FFFFFFFFFFFFFFFFFFFFFFFFFFFFFFFF63
:103D7000FFFFFFFFFFFFFFFFFFFFFFFFFFFFFFFF53
:103D8000FFFFFFFFFFFFFFFFFFFFFFFFFFFFFFFF43
:103D9000FFFFFFFFFFFFFFFFFFFFFFFFFFFFFFFF33
:103DA000FFFFFFFFFFFFFFFFFFFFFFFFFFFFFFFF23
:103DB000FFFFFFFFFFFFFFFFFFFFFFFFFFFFFFFF13
:103DC000F7FF967E0B540BD803D903D903D803D839
:103DD0000BB612F2D7FFF7FFFFFFFFFFFFFFFFFF5A
:103DE000FFDFFFFFFFFFFFFFFFFFFFFFFFFFFFFF03
:103DF000FFFFFFFFFFFFFFFFFFFFFFFFFFFEFFFFD4
:103E0000E7FF0A510B1703360316031603160316B2
:103E100002719DDBF7FFFFFFFFFFFFFFFFFFFFFFCB
:103E2000FFFFFFFFFFFFFFFFFFFFFFFFFFFFFFFFA2
:103E3000FFFFFFFFFFFFFFFFFFFFFFFFFFFFFFFF92
:103E4000FFFFFFFFFFFFFFFFFFFFFFFFFFFFFFFF82
:103E5000FFFFFFFFFFFFFFFFFFFFFFFFFFFFFFFF72
:103E6000FFFFFFFFFFFFFFFFFFFFFFFFFFFFFFFF62
:103E7000FFFFFFFFFFFFFFFFFFFFFFFFFFFFFFFF52
:103E8000FFFFFFFFFFFFFFFFFFFFFFFFFFFFFFFF42
:103E9000FFFFF7FF967E0B5503D803D903D903D84C
:103EA00003D80BB612B1D7DFFFFFFFFFFFFFFFDE26
:103EB000FFFFFFFFFFFFFFFFFFFFFFFFFFFFFFFF12
:103EC000FFFFFFFFFFFFFFFFFFFFFFFFFFFFFFFF02
:103ED000FFFFEFFF02310B1603360316031602F63F
:103EE00002F602719DDBF7FFFFFFFFFFFFFFFFFF01
:103EF000FFFFFFFFFFFFFFFFFFFFFFFFFFFFFFFFD2
:103F0000FFFFFFFFFFFFFFFFFFFFFFFFFFFFFFFFC1
:103F1000FFFFFFFFFFFFFFFFFFFFFFFFFFFFFFFFB1
:103F2000FFFFFFFFFFFFFFFFFFFFFFFFFFFFFFFFA1
:103F3000FFFFFFFFFFFFFFFFFFFFFFFFFFFFFFFF91
:103F4000FFFFFFFFFFFFFFFFFFFFFFFFFFFFFFFF81
:103F5000FFFFFFFFFFFFFFFFFFFFFFFFFFFFFFFF71
:103F6000FFFFFFFFF7FF967E0B5403B803D903D979
:103F700003D803D80BB60AD2DFFFF7FFF7FFF7FF2E
:103F8000F7FFFFFFFFFFFFFFF7FFF7FFF7FFF7FF69
:103F9000F7FFFFFFF7FFF7FFF7FFFFFFFFFFFFFF51
:103FA000FFFFF7FFE7FF023102F6031603160316C1
:103FB00002F602F502719DDBF7FFFFFFFFFFFFFF37
:103FC000FFFFFFFFFFFFFFFFFFFFFFFFFFFFFFFF01
:103FD000FFFFFFFFFFFFFFFFFFFFFFFFFFFFFFFFF1
:103FE000FFFFFFFFFFFFFFFFFFFFFFFFFFFFFFFFE1
:103FF000FFFFFFFFFFFFFFFFFFFFFFFFFFFFFFFFD1
:10400000FFFFFFFFFFFFFFFFFFFFFFFFFFFFFFFFC0
:10401000FFFFFFFFFFFFFFFFFFFFFFFFFFFFFFFFB0
:10402000FFFFFFFFFFFFFFFFFFFFFFFFFFFFFFFFA0
:10403000FFFFFFFFFFFFF7FF967E133403B803D99E
:1040400003B803B703D703B70B14AF5FCFDFD7BFF6
:10405000CFBFCFBFCF9FCF9FD7BFD7BFCFBFCFBF20
:10406000D79FD79FD79FD79FCF9FCF7FD79FD79FD0
:10407000CF9FCF9FD7BFC7BF027202F603160316AA
:10408000031602F602F502719DDBF7FFFFFFFFFF4B
:10409000FFFFFFFFFFFFFFFFFFFFFFFFFFFFFFFF30
:1040A000FFFFFFFFFFFFFFFFFFFFFFFFFFFFFFFF20
:1040B000FFFFFFFFFFFFFFFFFFFFFFFFFFFFFFFF10
:1040C000FFFFFFFFFFFFFFFFFFFFFFFFFFFFFFFF00
:1040D000FFFFFFFFFFFFFFFFFFFFFFFFFFFFFFFFF0
:1040E000FFFFFFFFFFFFFFFFFFFFFFFFFFFFFFFFE0
:1040F000FFFFFFFFFFFFFFFFFFFFFFFFFFFFFFFFD0
:10410000FFFFFFFFFFFFFFFFF7FF965E13340BB7C4
:1041100003D803B803B803B703B70B762BF833B64D
:1041200033B533D533D533D53BB433B433B433B5EA
:1041300033B5339433943394339433953374339445
:1041400033733394337433742B7502B40B3702F624
:10415000031602F602F502F502719DDBF7FFFFFF81
:10416000FFFFFFFFFFFFFFFFFFFFFFFFFFFFFFFF5F
:10417000FFFFFFFFFFFFFFFFFFFFFFFFFFFFFFFF4F
:10418000FFFFFFFFFFFFFFFFFFFFFFFFFFFFFFFF3F
:10419000FFFFFFFFFFFFFFFFFFFFFFFFFFFFFFFF2F
:1041A000FFFFFFFFFFFFFFFFFFFFFFFFFFFFFFFF1F
:1041B000FFFFFFFFFFFFFFFFFFFFFFFFFFFFFFFF0F
:1041C000FFFFFFFFFFFFFFFFFFFFFFFFFFFFFFFFFF
:1041D000FFFFFFFFFFFFFFFFFFFFF7FF9E7E1314B0
:1041E00003B703D903B9039803B70397039703777A
:1041F0000B570B560B56035503550B550B550B55CB
:104200000B350B350B350B3403150B150B140B1439
:104210000AF40AF40AF402F40AF402F402F502F5CC
:1042200002F602F502F602D502D502509DDAF7FF3A
:10423000FFFFFFFFFFFFFFFFFFFFFFFFFFFFFFFF8E
:10424000FFFFFFFFFFFFFFFFFFFFFFFFFFFFFFFF7E
:10425000FFFFFFFFFFFFFFFFFFFFFFFFFFFFFFFF6E
:10426000FFFFFFFFFFFFFFFFFFFFFFFFFFFFFFFF5E
:10427000FFFFFFFFFFFFFFFFFFFFFFFFFFFFFFFF4E
:10428000FFFFFFFFFFFFFFFFFFFFFFFFFFFFFFFF3E
:10429000FFFFFFFFFFFFFFFFFFFFFFFFFFFFFFFF2E
:1042A000FFFFFFFFFFFFFFFFFFFFFFFFF7FF963D51
:1042B000131403B703B8039903B903B8039703B8FA
:1042C00003980378037803970377037703770377DB
:1042D0000377035703570357035603560336033632
:1042E0000336033603360336031603160316031587
:1042F0000315031602F602F602D60AD50A509DDA15
:10430000F7FFFFFFFFFFFFFFFFFFFFFFFFFFFFFFC5
:10431000FFFFFFFFFFFFFFFFFFFFFFFFFFFFFFFFAD
:10432000FFFFFFFFFFFFFFFFFFFFFFFFFFFFFFFF9D
:10433000FFFFFFFFFFFFFFFFFFFFFFFFFFFFFFFF8D
:10434000FFFFFFFFFFFFFFFFFFFFFFFFFFFFFFFF7D
:10435000FFFFFFFFFFFFFFFFFFFFFFFFFFFFFFFF6D
:10436000FFFFFFFFFFFFFFFFFFFFFFFFFFFFFFFF5D
:10437000FFFFFFFFFFFFFFFFFFFFFFFFFFFFF7FF55
:104380009E7E1334039703B803B903B8039703B7AA
:10439000039703980378037803770376037703770B
:1043A0000377035603560356035603560336033664
:1043B00003360336033603160316031503160315D7
:1043C00002F5031502F602F602F602D602D5023015
:1043D0009DBAF7FFFFFFFFFFFFFFFFFFFFFFFFFF9C
:1043E000FFFFFFFFFFFFFFFFFFFFFFFFFFFFFFFFDD
:1043F000FFFFFFFFFFFFFFFFFFFFFFFFFFFFFFFFCD
:10440000FFFFFFFFFFFFFFFFFFFFFFFFFFFFFFFFBC
:10441000FFFFFFFFFFFFFFFFFFFFFFFFFFFFFFFFAC
:10442000FFFFFFFFFFFFFFFFFFFFFFFFFFFFFFFF9C
:10443000FFFFFFFFFFFFFFFFFFFFFFFFFFFFFFFF8C
:10444000FFFFFFFFFFFFFFFFFFFFFFFFFFFFFFFF7C
:10445000F7FF9E7E0AF3037603B803B80378037769
:10446000039703970398037803770377037603771B
:104470000377035703560357035603560336033691
:10448000033603360336031603160316031602F526
:10449000031503150315031602F602F602D602D51C
:1044A00002509DBAFFFFFFFFFFFFFFFFFFFFFFFF6F
:1044B000FFFFFFFFFFFFFFFFFFFFFFFFFFFFFFFF0C
:1044C000FFFFFFFFFFFFFFFFFFFFFFFFFFFFFFFFFC
:1044D000FFFFFFFFFFFFFFFFFFFFFFFFFFFFFFFFEC
:1044E000FFFFFFFFFFFFFFFFFFFFFFFFFFFFFFFFDC
:1044F000FFFFFFFFFFFFFFFFFFFFFFFFFFFFFFFFCC
:10450000FFFFFFFFFFFFFFFFFFFFFFFFFFFFFFFFBB
:10451000FFFFFFFFFFFFFFFFFFFFFFFFFFFFFFFFAB
:10452000FFFFF7FF963E0AF30B9703D90398039812
:1045300003B8039703970398037803570377037728
:10454000037703570357035703570356033703569D
:104550000336033603360336031603160316031613
:10456000031602F503150314031502F502F602F50E
:1045700002D502509DDBF7FFFFFFFFFFFFFFFFFFAC
:10458000FFFFFFFFFFFFFFFFFFFFFFFFFFFFFFFF3B
:10459000FFFFFFFFFFFFFFFFFFFFFFFFFFFFFFFF2B
:1045A000FFFFFFFFFFFFFFFFFFFFFFFFFFFFFFFF1B
:1045B000FFFFFFFFFFFFFFFFFFFFFFFFFFFFFFFF0B
:1045C000FFFFFFFFFFFFFFFFFFFFFFFFFFFFFFFFFB
:1045D000FFFFFFFFFFFFFFFFFFFFFFFFFFFFFFFFEB
:1045E000FFFFFFFFFFFFFFFFFFFFFFFFFFFFFFFFDB
:1045F000FFFFFFFFF7FF9E5F12F30B760397037732
:104600000B770B770376037703770B570B560B5615
:104610000B560B560B560B56033603360336033632
:10462000033603360316031603160316031502F5A5
:1046300002F502F502F502F402F402F402D502D505
:1046400002D40AB30A2F9599F7FFFFFFFFFFFFFF80
:10465000FFFFFFFFFFFFFFFFFFFFFFFFFFFFFFFF6A
:10466000FFFFFFFFFFFFFFFFFFFFFFFFFFFFFFFF5A
:10467000FFFFFFFFFFFFFFFFFFFFFFFFFFFFFFFF4A
:10468000FFFFFFFFFFFFFFFFFFFFFFFFFFFFFFFF3A
:10469000FFFFFFFFFFFFFFFFFFFFFFFFFFFFFFFF2A
:1046A000FFFFFFFFFFFFFFFFFFFFFFFFFFFFFFFF1A
:1046B000FFFFFFFFFFFFFFFFFFFFFFFFFFFFFFFF0A
:1046C000FFFFFFFFFFFFF7FF95FC12B20B140B1566
:1046D0000B350B150B140B140B140B140AF40AF402
:1046E0000AF30AF30AF30AD40AD30AD30AD30AD381
:1046F0000AB30AB30AB30AB30AB30A930A930A9233
:104700000A930A920A720A720A72027202720252C0
:1047100002720A520A5109CD9D99F7FFFFFFFFFF70
:10472000FFFFFFFFFFFFFFFFFFFFFFFFFFFFFFFF99
:10473000FFFFFFFFFFFFFFFFFFFFFFFFFFFFFFFF89
:10474000FFFFFFFFFFFFFFFFFFFFFFFFFFFFFFFF79
:10475000FFFFFFFFFFFFFFFFFFFFFFFFFFFFFFFF69
:10476000FFFFFFFFFFFFFFFFFFFFFFFFFFFFFFFF59
:10477000FFFFFFFFFFFFFFFFFFFFFFFFFFFFFFFF49
:10478000FFFFFFFFFFFFFFFFFFFFFFFFFFFFFFFF39
:10479000FFFFFFFFFFFFFFFFFFFFC6DE64976D5ABD
:1047A000651A651A6D3A64F96D3A651A6D1A6D1AD3
:1047B0006D1965196D196D196CF96CF96CF96CFA54
:1047C0006CF96CF96CF964D964D96CD96CD96CD971
:1047D0006CD96CD96CD96CB96CB96CB96CB96CB951
:1047E00064B96CB96CB96C986415BE3BFFFFFFDF10
:1047F000FFDFFFFFFFFFFFFFFFFFFFFFFFFFFFFFE9
:10480000FFFFFFFFFFFFFFFFFFFFFFFFFFFFFFFFB8
:10481000FFFFFFFFFFFFFFFFFFFFFFFFFFFFFFFFA8
:10482000FFFFFFFFFFFFFFFFFFFFFFFFFFFFFFFF98
:10483000FFFFFFFFFFFFFFFFFFFFFFFFFFFFFFFF88
:10484000FFFFFFFFFFFFFFFFFFFFFFFFFFFFFFFF78
:10485000FFFFFFFFFFFFFFFFFFFFFFFFFFFFFFFF68
:10486000FFFFFFFFFFFFFFFFFFFFFFFFFFFFF7FF60
:10487000EFFFEFFFEFFFEFFFEFFFEFFFEFFFEFFFC8
:10488000EFFFEFFFF7FFF7FFF7FFF7FFEFFFEFFF98
:10489000F7FFF7FFEFFFEFFFF7FFF7FFF7FFF7FF78
:1048A000F7FFEFFFF7FFF7FFF7FFF7FFF7FFFFFF58
:1048B000F7FFF7FFF7FFF7FFF7FFF7FFFFFFFFFF38
:1048C000FFFFFFFFFFFFFFFFFFFFFFFFFFFFFFFFF8
:1048D000FFFFFFFFFFFFFFFFFFFFFFFFFFFFFFFFE8
:1048E000FFFFFFFFFFFFFFFFFFFFFFFFFFFFFFFFD8
:1048F000FFFFFFFFFFFFFFFFFFFFFFFFFFFFFFFFC8
:10490000FFFFFFFFFFFFFFFFFFFFFFFFFFFFFFFFB7
:10491000FFFFFFFFFFFFFFFFFFFFFFFFFFFFFFFFA7
:10492000FFFFFFFFFFFFFFFFFFFFFFFFFFFFFFFF97
:10493000FFFFFFFFFFFFFFFFFFFFFFFFFFFFFFFF87
:10494000FFFFFFFFFFFFFFFFFFFFFFFFFFFFFFFF77
:10495000FFFFFFFFFFFFFFFFFFFFFFFFFFFFFFFF67
:10496000FFFFFFFFFFFFFFFFFFFFFFFFFFFFFFFF57
:10497000FFFFFFFFFFFFFFFFFFFFFFFFFFFFFFDF67
:10498000FFFFFFFFFFFFFFFFFFFFFFFFFFFFFFFF37
:10499000FFFFFFFFFFFFFFFFFFFFFFFFFFFFFFFF27
:1049A000FFFFFFFFFFFFFFFFFFFFFFFFFFFFFFFF17
:1049B000FFFFFFFFFFFFFFFFFFFFFFFFFFFFFFFF07
:1049C000FFFFFFFFFFFFFFFFFFFFFFFFFFFFFFFFF7
:1049D000FFFFFFFFFFFFFFFFFFFFFFFFFFFFFFFFE7
:1049E000FFFFFFFFFFFFFFFFFFFFFFFFFFFFFFFFD7
:1049F000FFFFFFFFFFFFFFFFFFFFFFFFFFFFFFFFC7
:104A0000FFFFFFFFFFFFFFFFFFFFFFFFFFFFFFFFB6
:104A1000FFFFFFFFFFFFFFFFFFFFFFFFFFFFFFFFA6
:104A2000FFFFFFFFFFFFFFFFFFFFFFFFFFFFFFFF96
:104A3000FFFFFFFFFFFFFFFFFFFFFFFFFFFFFFFF86
:104A4000FFFFFFFFFFFFFFFFFFFFFFFFFFFFFFFF76
:104A5000FFFFFFFFFFFFFFFFFFFFFFFFFFFFFFFF66
:104A6000FFFFFFFFFFFFFFFFFFFFFFFFFFFFFFFF56
:104A7000FFFFFFFFFFFFFFFFFFFFFFFFFFFFFFFF46
:104A8000FFFFFFFFFFFFFFFFFFFFFFFFFFFFFFFF36
:104A9000FFFFFFFFFFFFFFFFFFFFFFFFFFFFFFFF26
:104AA000FFFFFFFFFFFFFFFFFFFFFFFFFFFFFFFF16
:104AB000FFFFFFFFFFFFFFFFFFFFFFFFFFFFFFFF06
:104AC000FFFFFFFFFFFFFFFFFFFFFFFFFFFFFFFFF6
:104AD000FFFFFFFFFFFFFFFFFFFFFFFFFFFFFFFFE6
:104AE000FFFFFFFFFFFFFFFFFFFFFFFFFFFFFFFFD6
:104AF000FFFFFFFFFFFFFFFFFFFFFFFFFFFFFFFFC6
:104B0000FFFFFFFFFFFFFFFFFFFFFFFFFFFFFFFFB5
:104B1000FFFFFFFFFFFFFFFFFFFFFFFFFFFFFFFFA5
:104B2000FFFFFFFFFFFFFFFFFFFFFFFFFFFFFFFF95
:104B3000FFFFFFFFFFFFFFFFFFFFFFFFFFFFFFFF85
:104B4000FFFFFFFFFFFFFFFFFFFFFFFFFFFFFFFF75
:104B5000FFFFFFFFFFFFFFFFFFFFFFFFFFFFFFFF65
:104B6000FFFFFFFFFFFFFFDFFFFFFFFFFFFFFFFF75
:104B7000FFFFFFFFFFFFFFFFFFFFFFFFFFFFFFFF45
:104B8000FFFFFFFFFFFFFFFFFFFFFFFFFFFFFFFF35
:104B9000FFFFFFFFFFFFFFFFFFFFFFFFFFFFFFFF25
:104BA000FFFFFFFFFFFFFFFFFFFFFFFFFFFFFFFF15
:104BB000FFFFFFFFFFFFFFFFFFFFFFFFFFFFFFFF05
:104BC000FFFFFFFFFFFFFFFFFFFFFFFFFFFFFFFFF5
:104BD000FFFFFFFFFFFFFFFFFFFFFFFFFFFFFFFFE5
:104BE000FFDFFFFFFFFFFFFFFFFFFFFFFFFFFFDF15
:104BF000FFFFFFFFFFFFFFFFFFFFFFFFFFFFFFFFC5
:104C0000FFFFFFFFFFFFFFFFFFFFFFFFFFFFFFFFB4
:104C1000FFFFFFFFFFFFFFFFFFFFFFFFFFFFFFFFA4
:104C2000FFFFFFFFFFFFFFFFFFFFFFFFFFFFFFFF94
:104C3000FFFFFFFFFFFFFFFFFFFFFFFFFFFFFFFF84
:104C4000FFFFFFFFFFFFFFFFFFFFFFFFFFFFFFFF74
:104C5000FFFFFFFFFFFFFFFFFFFFFFFFFFFFFFFF64
:104C6000FFFFFFFFFFFFFFFFFFFFFFFFFFFFFFFF54
:104C7000FFFFFFFFFFFFFFFFFFFFFFFFFFFFFFFF44
:104C8000FFFFFFFFFFFFFFFFFFFFFFFFFFFFFFDF54
:104C9000FFFFFFFFFFFFFFFFFFFFFFFFFFFFFFFF24
:104CA000FFFFFFFFFFFFFFFFFFFFFFFFFFFFFFFF14
:104CB000FFFFFFFFFFFFFFFFFFFFFFFFFFFFFFFF04
:104CC000FFFFFFFFFFFFFFFFFFFFFFFFFFFFFFFFF4
:104CD000FFFFFFFFFFFFFFFFFFFFFFFFFFFFFFFFE4
:104CE000FFFFFFFFFFFFFFFFFFFFFFFFFFFFFFFFD4
:104CF000FFFFFFFFFFFFFFFFFFFFFFFFFFFFFFFFC4
:104D0000FFFFFFFFFFFFFFFFFFFFFFFFFFFFFFFFB3
:104D1000FFFFFFFFFFFFFFFFFFFFFFFFFFFFFFFFA3
:104D2000FFFFFFFFFFFFFFFFFFFFFFFFFFFFFFFF93
:104D3000FFFFFFFFFFFFFFFFFFFFFFFFFFFFFFFF83
:104D4000FFFFFFFFFFFFFFFFFFFFFFFFFFFFFFFF73
:104D5000FFFFFFFFFFFFFFFFFFFFFFFFFFFFFFFF63
:104D6000FFFFFFFFFFDFFFFFFFFFFFFFFFFFFFFF73
:104D7000FFFFFFFFFFFFFFFFFFFFFFFFFFFFFFFF43
:104D8000FFFFFFFFFFFFFFDFFFFFFFFFFFFFFFFF53
:104D9000FFDFFFFFFFFFFFFFFFFFFFFFFFFFFFFF43
:104DA000FFFFFFFFFFFFFFFFFFFFFFFFFFFFFFFF13
:104DB000FFDFFFFFFFFFFFFFFFFFFFFFFFFFFFFF23
:104DC000FFFFFFDFFFFFFFDFFFFFFFFFFFFFFFFF33
:104DD000FFFFFFFFFFFFFFFFFFFFFFDFFFFFFFFF03
:104DE000FFFFFFFFFFFFFFFFFFFFEFFFE7DFDF9F9B
:104DF000DF9FE7DFE7FFEFDFEFBFE7BFE7BFE7BF1B
:104E0000E7BFE7BFE7BFE7BFEF9FFFFFFFFFF7FF8A
:104E1000DF7EDF5EEFDFF7FFFFFFF7DFE79EE7BF35
:104E2000EFDFF7FFF7FFEFBFE79FE77EF7FFFFFF3B
:104E3000FFFFF7FFDF3DDF3DF7FFF7FFF7FFFFFF66
:104E4000F7FFEFBFEF9FE79FE7BFEFBFEF9EE77F63
:104E5000EFBFE79FEF9FF7DFE75EEFBFF7FFFFFFD3
:104E6000FFFFE75EE77EEF9EFFFFFFFFFFFFEF9F85
:104E7000D71DDF5EF7FFFFFFF7DFE77FEF9FEF7FD5
:104E8000EFBFE77FEF9FE77EEF9FEF7FE77FEF9F2B
:104E9000E77EF7DFE75DEF9FE75EFFFFFFFFFFFFC6
:104EA000F7DFF7DFFFFFFFFFFFFFF7BFE73EEF7F13
:104EB000F7DFFFFFFFFFE75EEF7FE73E861D5475DC
:104EC0008DB98DFB54975CD8DF9FBE9C54974C776F
:104ED0009DFAC73F6CF8543574D5C6DCF7FFEFFF79
:104EE00095B97D388D997D17B69DEFFFE7DF9DD889
:104EF00054355C76E7DFF7FFB69C53B18D36E7DFBC
:104F0000EFFFC6DD74B58D788D588D789599EFFFDC
:104F1000F7FFF7FFCEFC84B54B736C36D6FDD71D7B
:104F200074964B726C14C6DEDF5F84D643328519EB
:104F3000F7FFF7FF84F55B90ADB8F7FFF7FFA5BA71
:104F40007C9484D5953884B6B63AEFDF74564B110D
:104F500063B3CEFFBE7D532F8493CEFD8CF75352A7
:104F60005330B63BEFBF9D3542CEA5B9FFFFFFFFE3
:104F7000FFFF73F38CB6F7FFFFFFFFFFEFBF8C75EA
:104F800052D15B33F7FFF7DFADB952EF94B5653916
:104F9000861DD7FF7DFC1B334C56EFFFE7FF2BB57B
:104FA0001354BF7FDFFF6D9D1AF28579E7FFE7FF9E
:104FB00074D62AAED7FFDFFF8D992AB0BEFFEFFF70
:104FC000DFFF339312B16CD8E7FFD7FF4371E7DF00
:104FD000EFFFB6BE2A8E7CF6E7FFE7FF6C745371D5
:104FE000EFFFF7FFFFFFEFFFBE9D09AD6437EFFF57
:104FF000F7FFAE5F016C7CF8EFFFF7FFCF1F018C6E
:1050000009EEB63CF7FFCF7F6C54DF7FF7FF955B6F
:1050100021CDA5FAEFFFE7FF42CE7C74F7FFD77FE3
:1050200000E93AB0E7DFE7FF198AE79FF7FFC6DF3D
:10503000116B3AAFEFFFF7FFF7FF21EBEFFFFFFF39
:10504000FFDFF7FF0066428FF7FFFFFFFFFFFFFF65
:10505000D6DF298E00298456F7FFF7FF426DDF3F28
:105060008D77DFFFBFDF33B422EFE7FFF7FFEFFFFE
:105070002BB52395DFFFDFFF7E1E1AF38DDBDFFFED
:10508000969F22F16CF7E7FFF7FFE7FF1AD233B5DF
:10509000EFFFE7FF7D9A23531AD28E1FDFFF5BF2EB
:1050A000F7FFEFFF64B909EDEFFFF7FFF7FFF7FF39
:1050B0007433F7FFF7FFF7FEFFFFCF1F09AE6CB9A0
:1050C000F7FFF7FFBEFF118C8D18F7FFFFFFDF3FE3
:1050D00043722B1211EDDFFFCF7F9578E79FF7FF2B
:1050E000094C4B34F7FFFFFFF7FFC6DB8CB4F7FF2B
:1050F000EFFF84F6010A9DFEA61E84D7FFFFF7FF8F
:10510000CF3F11AC5372F7FFFFFFFFFF3A8EEFFF67
:10511000F7FFFFFF8CD7320E112BA59CFFFFFFFF7F
:10512000FFFFCEDD9519214C10ACBDFFEFDF5B70AA
:10513000DF3FEFFFE7FF655A1B119E5CE7FFFFFFB4
:10514000EFFF33F61B548D99A63B4C991B138DDB57
:10515000DFFF5CFA0AB1961CEFFFF7FFEFFF1B348D
:105160001B54CF3FEFFF74F6CFFF0A712335BFBF4B
:1051700053F3F7FFD75F33541A70F7FFFFFFF7FFC2
:10518000F7FFEFFFE7DFF7FFF7FFF7FFCF1F09CECE
:105190006479F7FFEFDFC6DF116C9538F7FFFFFF8B
:1051A000D6FD74B785DD01CE22B1DFFF8D17E79FF5
:1051B000CF1F094D5BD7F7FFEFBFEFFFEFFFEFFF0B
:1051C000EFFFF7FFE7DF11AD3AF3220DEFFFF7DF57
:1051D000FFFFCF1F19AD4AF1F7FFFFFFFFFF3A6D49
:1051E000EFFFF7FFF7FF42AFEFFF006A6395F7FFAE
:1051F000FFFFF7FFC67AA599DF1F002A296FF7FF87
:105200005B51E73FE7FFA69D1B1233F5DFFFE7FF8A
:10521000EFDFE7FF2BD61B74C73FE7FF6D9D12F34F
:105220008DDBD7FF5D1B12D195FBEFFFFFFFEFFF7B
:105230001B541B54CF7FEFDF6C74DFFFA67F12304F
:10524000653B4C35EFFFCF1E33131A50EFFFC6BC42
:105250004351331133316496E7FFD75FF7FFCF1F18
:1052600009AE6499F7FFF7FFC6DF116B8CF8F7FF03
:10527000F7FFD71D6C34DFFF4C1709EE64779DBA3A
:10528000EFDFC6BD012C5BD7F7FF84953AD02A8F9C
:105290003AAFADDBFFFFFFFF9D5C0089A5BAF7FFCA
:1052A000FFFFF7DFCEFF19AC5352F7FFFFFFFFFF01
:1052B0003A6DEFFFF7FF8CD684B6BE7F21F1112D3A
:1052C000C67DF7FFFFFFBE5A9517F7FF8C99084977
:1052D0006B766353E73FDFFF43F42353A77FD7FF8A
:1052E0008D98CEFDE7FF2BD61B74D7DFE7FF7DFE41
:1052F0001B1385DBDFFF965E22F16CF7E7FFF7FFFC
:10530000E7FF12D133B4EFFFEFDF7CD5E7FFE7FF14
:105310006C770A9112B0EFFFEFFF5C1611EEEFFF12
:10532000E7FFB71F23122B32DFFFA65D2A4CAE3CEE
:10533000CF5F09AD6C77F7FFF7FFBEDF118C8CF8FC
:10534000F7FFF7FFCEFD6C34E7FFDFFF1A2F11AD3B
:105350006C56E7BFF7FF012A4B74EFDFEFFFA63F64
:1053600000CB84D9EFDFF7DFFFFFB5DF088AC69DEA
:10537000F7FFFFFFFFFFCEFF116B5353F7FFF7DF80
:10538000FFFF3A2CF7FFEFFF63D2745484D86BF819
:10539000008A8CB8F7FFFFFFCE9C94F6EFDFF7DFB3
:1053A00052B1088B298EEF9F7E3F12F275DDCFFF41
:1053B00096FF3393CF7FDFFF2BD61353D7FFDFFF4B
:1053C0007DDD12D28DFCE7FFE7FF5C1322AFD7FF34
:1053D000DFFF8D991A2DCF7FEFFFEFFF74D6DFFF30
:1053E000F7FFE7BF339401EEEFFFF7FFBEBF19CC25
:1053F0007CD7DFFFAF1F124E3B31E7FF9DDB220D55
:10540000C77FBF1F096B84F8FFFFF7FFC75F014B22
:10541000853AEFFFF7FFDF5F6414E7FFEFFFBEBEE3
:10542000094C5394EFDFF7FF84F70129B65DEFFFD6
:105430009DBE00AA8497F7FFF7FFF7FFB63F00690C
:10544000C6BFF7FFFFFFFFFFF7FF196A21CDEFFF90
:10545000F7FFBE3B7C14F7FFAE1D7476EFFFF7FF3E
:10546000EFDF3A510089F7FFF7FFCE9D9D59F7FF17
:10547000FFFFDF1F214D10CBEF9F3C9A3C7854B8C3
:10548000549734174477D7DF8DBA341734577518CB
:10549000AEBE4C573BF64BD4A63BF7FFEFFF963D15
:1054A0004C565C976CB7D77FF7FFEFBF84D43B7146
:1054B0006C96F7FFF7FFB73F1AD1EFFFF7FFF7FF43
:1054C000D79F64354BD44C158DFC7495E7FFDFFFF7
:1054D0008D7A5C56226F8519EFFFFFFFCE9C4352F9
:1054E0003B534332A5FCE7BF4B0E3B1095BAEFFF91
:1054F000F7FF959D5BD6F7FFF7FFEFFFB69E4B31A9
:105500005B935334A59D9518F7FFF7FF8CF742D2B4
:105510003A9242B0ADB9FFFFFFFFF7FFEFDF42F273
:105520002A5063728C95F7FFD6FF21CD42D084B408
:10553000F7FF7C5642B232313A50F7FF63503A2DB2
:1055400063B2F7FFFFFFADBE4231EF9FF6EDEEA76E
:10555000EE86F6C6F6858342A5ECD76EC6ACBECE07
:10556000BE8E962EA6B3A6B2BF149673765396B58A
:1055700096968E769F189EB6555176BA76597E7954
:105580007E785E1776BA9F1B4DB85EBC7F5D09685A
:105590001A902DBD1CF92D7B34B91C9724F92CB918
:1055A00024DA24D9247824992D1A2CD9347834D9A2
:1055B000341623551C5A13F71C3824391438241771
:1055C000245725FC23F6216F4335220F32D421AD19
:1055D000320F7D5A75395C7900251041218C2A5390
:1055E0002A5311B03B36194D3A705C170A122AF54E
:1055F00011B019F033152BB8116C320F4B784B7773
:105600003AF432113AD44315A317AA53AB35D45BFD
:10561000BB5738A540A7B377A2F5A2D4AB3569CC68
:1056200079EF92319A739A93698C8A529A7389D1DD
:10563000AB15D4BB8A3181D08A1171AD4928821152
:1056400092B382518A3289F18A938A72EECCEEA7A4
:10565000E664EE85FF2593A08487DFAEC6ABBEADC2
:10566000C6CF95EB9650A6D3AED29EB47E138EB520
:105670008E958E958E96B7586D9355D676997658A9
:105680007E99661755D79F3C665A3DFA87BE1AEC3D
:10569000096A253C1D3A1D1A2CF91C771CD91CB926
:1056A0001CB91CB91C7914581CB924B92478353A92
:1056B00023530AD2149B13B714181C390BD713F7B2
:1056C0001C16153B24B921F02A9422102232194DC0
:1056D000194C7D5B7D5A5C9A00260000214C21D13B
:1056E0001A32094F2AB4116E21CE4BB611D122D5F0
:1056F00011F1094E22732BB9096D29AC4338437857
:10570000327219AF3AB532F58336AA539A72D41A67
:10571000AAF52023590ABB579A949AB4A2F5616C52
:10572000694C9A528A129A94698E81B0921281D1F0
:105730009273D4BB9AB3714E81D1696D490881D0FF
:10574000929371EF79D081D17A118A32EEAAEE86E6
:10575000E643E644FF66B4A06B62D78ECECBBEAB09
:10576000C6F0A62B8E0DAEF4A6B0AEF47DD37E545B
:105770008E958E958675AF588E1545536EB96E58B9
:1057800076796E5845758EFB86FC35B877BF3493B5
:1057900000A61499155B14D9255B1C78149914D9AB
:1057A00014B9149A1CBA14580C7814591C382D3B8F
:1057B0001B52020F0C7B0BB70BD714390B970C182D
:1057C0001BF70C78257B2A7119D2225219D0112C83
:1057D00008EB7D5B85BB4C5A00470000212C117003
:1057E0001232014F1A3311B0116D435419F11A9549
:1057F0001253014E11D12B78012C29AC437932D6AA
:105800002A3119D03A962AF66336A23291D0CBB912
:105810009252304679CFB2F69294AB159AB350EAD1
:10582000610C9A5381D19A7479D0794F91F281D1D8
:1058300089F1CC5AB397690D8190694C40C889F2BF
:105840009252698E718E81B179F181F1EEC7F68441
:10585000EE44DDE3FEE6E6227300BEACCF2CBE8A4A
:10586000BECFBECF8DEBA6B3AEB2BF138DF16DF33D
:1058700086958E958E9596B5A6D74D736698767853
:105880006E387E9A5DB65E17971C4E3A571D45D806
:1058900000C613F61D5D14B9257C24DA0C7914DAE0
:1058A00014B914991CDA1CB914380BF813F81CD964
:1058B0003496120E0B7714190BD7141813D70C1833
:1058C0001BF813D62DDC32F3117132D519CF194CD8
:1058D000090E6CBB95FC3BF8008A0001212B11706E
:1058E0001A52099009B21A32114C3AF322521A7420
:1058F0001A9509D0099022F700CA320F4BB919D175
:1059000032732A53327533174B15923299D0B3162E
:1059100081B0694D9A739A539AD4BBB89292384722
:10592000696E923381D18A128A11796F921289F24B
:1059300081D1B3B7CC5A718E714E612C38879A944D
:1059400081F1698E71AE81D1821279F0EF0BEEA4F4
:10595000EE65DDE3DDC3FF258B409528DFADC6AAEC
:10596000BE8CCF539E0C962EBF14BF109E2E761168
:1059700086B68E758E958654AF386DD445947699DB
:105980006E587EB96E5845558F1B76DC3E7B4E9B1C
:10599000016903741D9E14B9251B251B0C381CBA04
:1059A0001CDA14791CBA24DA13D70BF80BB80C17CD
:1059B0005F3E3B3100EB14590BF8141813F803D772
:1059C00013F713D72DFC335411503B3619CD116DFD
:1059D00011704B787D7B5CBA012E000219290150B1
:1059E0001A5411B001702AD6218D21AF1A102274D9
:1059F00022D61A94121222F7006731F04B78198ED2
:105A00004B373AB5325432D632F57A73A1F192124D
:105A1000921289F18A319273A2F5B377A2D33867D3
:105A2000616E8A138A1189D2923281D091F189F202
:105A300081B0A315DCDC821160CB612B30669AD477
:105A400079D079D0823179B081F179CFF76FEEC713
:105A5000EE84E624CD21EE64B4C58425DFADCECB43
:105A6000BE8ACF32B66F8DABBF13B6CFC6EF85CE31
:105A700086D596F7863486549ED68E765D736E589C
:105A800076796E7776B95DF77EDA5E1835B84EDCDA
:105A90002B9102F10DBE14FA1CB9255C147814790F
:105AA0001CFB14991CBA24FA13B60BB70BF8035657
:105AB000679F5D9900050BB60C39141814180BD7A5
:105AC0000BF80C17253A3BD5116F331621CF118FE8
:105AD00009902A95649A757C2AB4000110A5097072
