S016000030335F534448495F5344636172642E7372656394
S31500000000A0040020BD200000211F0000B920000030
S31500000010B9200000B9200000B9200000B920000076
S31500000020000000000000000000000000B9200000F1
S31500000030B920000000000000B9200000B92000002F
S315000000406D0F0000111C000089150000FD14000052
S30D000000501916000061160000FC
S31500000058000100007C3300002103000000000000BE
S315000000680000000000020000000000DFDFDF0CFFD8
S31500000078FFFF00000000102800000000000000003C
S31500000088000080004000350000000000030000006A
S31500000098E80B00204800002000000000E80B0020C4
S315000000A8500C0020B80C00200000000000000000E2
S315000000B80000000000000000000000000000000032
S315000000C80000000000000000000000000000000022
S315000000D80000000000000000000000000000000012
S309000000E8000000000E
S315000000EC0348044B834202D0034B03B118477047B5
S315000000FC940000209400002000000000064B0749E5
S3150000010CC91A891048BF0131491003D0044B0BB1F1
S3150000011C01481847704700BF940000209400002047
S3150000012C0000000010B5064C237843B9FFF7D8FF42
S3150000013C044B13B10448AFF300800123237010BDA8
S3150000014CBC0400200000000084A2000108B5054B89
S3150000015C1BB105490548AFF30080BDE80840FFF721
S3150000016CCDBF00BF00000000C004002084A2000127
S3150000017C00200749074BD1F8FC2042F08072C1F8E9
S3150000018CFC201A6842F001021A605860704700BFE2
S3150000019C00ED00E0001000E0014B5868704700BF0E
S315000001AC001000E0081A7047044B054A1B68A2FBB6
S315000001BC03239B0CB0FBF3F0704700BFE40B00204D
S315000001CC83DE1B43014B1868704700BFE40B00200D
S315000001DC022801D80120704708B502F073FA0922EB
S315000001EC03461A60002008BD022801D8002070477B
S315000001FC08B502F067FA092203461A604FF0FF3081
S3150000020C08BD00BF08B502F05DFA092203461A6064
S3150000021C4FF0FF3008BD00BF022808B504D84FF4D4
S3150000022C005300204B6008BD02F04CFA0923036012
S3150000023C002008BD08B50649064800F07FFF00B946
S3150000024C08BD0B21044B054A054801F015FE00BFFD
S3150000025CA83300004C0B0020943100004C330000F6
S3150000026CA831000003790146022B0CD0042B04D0D4
S3150000027C012B07D1064A1370704701220548083135
S3150000028C00F012BF70470122034B1A70704700BF73
S3150000029CD90400204C0B0020D804002010B50648C9
S315000002AC144600F001FF05490B78002BFCD0002307
S315000002BC0B70204610BD00BF4C0B0020D80400204C
S315000002CC10B50648144600F0E9FE05490B78002BDC
S315000002DCFCD000230B70204610BD00BF4C0B002039
S315000002ECD904002008B50649064800F055FB00B9AC
S315000002FC08BD0C21044B054A054801F0BDFD00BFA5
S3150000030C00000020EC08002094310000703300003F
S3150000031CC83100000388802B03D101220A4B1A60D6
S3150000032C0388B3F5807F03D10222074B1A6003883A
S3150000033C202B03D10122054B1A600388402B02D1D6
S3150000034C0222024B1A607047DC080020E0080020ED
S3150000035C00234FF01A0C2DE9F04387B0404ACDE943
S3150000036C0133CDE903333F4D02F50074504205933A
S3150000037C8318A5FB0361C9080CFB1133413302F842
S3150000038C013FA242F4D14FF47A71012001F07CFDB9
S3150000039C354801A900F0D6FB00285AD10123334970
S315000003AC1A46314800F0F8F900284CD1DFF8E490F1
S315000003BCD9F80030002BFBD0012300241A462C4917
S315000003CC2948C9F8004000F0AFFA002835D1D9F811
S315000003DC0030002BFBD00023264C274E274D04F56E
S315000003EC00786742C9F8003005E014F8010F01F0F7
S315000003FCCBFFA0450ED03B1906FB03F3B5EB730FF1
S3150000040CF3D3202001F0C0FF14F8010F01F0BCFF5C
S3150000041CA045F0D14FF400721449154802F0FAF8D1
S3150000042C28B1174802F00EF807B0BDE8F08315485E
S3150000043C02F008F807B0BDE8F0836921124B134AA5
S3150000044C134801F019FD63210F4B104A104801F0B7
S3150000045C13FD5F210C4B0D4A0D4801F00DFD00BF3D
S3150000046CDB0400204FECC44EEC080020DC0400201A
S3150000047CDC060020DB060020C54EECC4899DD8099D
S3150000048C08320000EC310000943100005C330000AF
S3150000049CC8310000E00800202DE9F84339482DED5D
S315000004AC028B01F0CFFF8021374801F05BFFFFF78D
S315000004BC89FE0146354801F055FFFFF76DFE022512
S315000004CC4FF000088146324C324F334E01232A46F8
S315000004DC39463046C4F8008000F026FA002841D18F
S315000004EC2368002BFCD02368022B46D00135B5F5CA
S315000004FC817FEBD1FFF750FE01464846FFF752FECF
S3150000050C08EE100AFFF750FE0446FFF75BFE07EEF7
S3150000051C900AB8EE488AF8EEE77A9FED206AC8EEA4
S3150000052C276A9FED1F7AC6EE267A67EE877AFCEE6F
S3150000053CE77A214617EE904A1A4801F013FF214636
S3150000054C194801F00FFF6423C4F3090203FB02F2FE
S3150000055C1648A10A920A01F005FFBDEC028B204653
S3150000056CBDE8F88302462946114801F0FBFEBDECB6
S3150000057C028B00242046BDE8F88329460D4801F07D
S3150000058CF1FEF4E724320000483200006432000029
S3150000059CE0080020DC060020EC08002000000048E3
S315000005AC0000803AC4320000E4320000FC32000045
S315000005BC7C320000A832000008B5FFF7D9FDFFF722
S315000005CC39FEFFF78FFE064801F03CFFFFF7C0FE31
S315000005DCFFF762FF0146034801F0C4FEFEE700BFC9
S315000005EC1C3300002C330000022800D0704702494F
S315000005FC024801F035B900BFDC330000E4080020E6
S3150000060C006800F05DBC00BF08B5FFF7D5FF002001
S3150000061C08BD00BF002370B44FF4F946046A95B2C6
S3150000062CA363046A120CE363046A4362236C23F02B
S3150000063C010343F004032364036A5E64046AA36C37
S3150000064C43F44073A364036A9D60036ADA60036A29
S3150000065C196070BC704700BF10B41C4B1C4A1B6A57
S3150000066C1268C3F30264A240C3F30223DA40914238
S3150000067C844627D2002301E08C4209D901330A2B88
S3150000068C22FA03F4F8D149F640405DF8044B704762
S3150000069C0120984080084FF48053DCF8201001E0CC
S315000006AC013BF0D0CA6B9204FAD58B6C03F4007341
S315000006BC034343F480738B64CCF80C4000205DF844
S315000006CC044B70471446FF20E5E700BF00E00140ED
S315000006DCE40B0020F0B402274468066A6468756C63
S315000006EC646845F4407524687564056A43EA020C2F
S315000006FC1CF0030FC5F8B0711ED00026012500F1C1
S3150000070C3C07A760C0E90D62C0E90B310C4B80F8C1
S3150000071C28502360036A0332603389B2C2F38F0216
S3150000072C6360A181E2814368F0BC5B68D3E9011286
S3150000073C1868096852681047A360024BE9E700BFC6
S3150000074C000028A0000018A0D0F83C321BB310B54E
S3150000075CD0F8403204468C4684B0D3B193E80700F7
S3150000076C0DF1100E0EE907009CE8070083E8070060
S3150000077CD4F8442218469A60D4F83C329847D4F8F8
S3150000078C403223B104AA12E9070083E8070004B03B
S3150000079C10BD0B46ECE770472DE9F0471E46036A81
S315000007AC0446D86B00F48140802860D11746A27F9E
S315000007BC002A6AD0627A002A5ED14FF0020A60687B
S315000007CC5A6CD0F804C0D0F81480DCF8040042F45B
S315000007DC4072D0F800905A64236A0D46C3F8B0A153
S315000007EC41EA08039B0755D004F13C0318464246E0
S315000007FC01F071FF01234544C9F80400C4E90B5606
S3150000080C6363284B84F828A0C4F83880C9F80030F4
S3150000081C236A08F103086033C9F80830C8F38F0857
S3150000082CB3B2A9F80C30A9F80E8063685B685A68F5
S3150000083C186811689A6853689847054678BB6368C8
S3150000084C227F5B690AB903FB07F7012E226A18D9C6
S3150000085C4FF4807111611921226A5661206A3A4659
S3150000086CC3642046FFF7D6FE2846BDE8F08749F656
S3150000087C42452846BDE8F08749F645452846BDE879
S3150000088CF087002111611821E8E749F6444528460E
S3150000089CBDE8F0874FF02843C9F80410B6E71825D1
S315000008ACE7E700BF000030A8F0B5036A0546DB6B2E
S315000008BC0E4603F48143802B174683B00DD0194C9A
S315000008CC01E0013C09D00121084601F0DDFA2B6A52
S315000008DCDB6B03F48143802BF3D131463A46284631
S315000008ECFFF798FE6B6A0193019B190213D442F22F
S315000008FC10740AE0013C12D00121084601F0C4FA3A
S3150000090C6B6A0193019B1B0205D4019BDA07F1D597
S3150000091C002003B0F0BD49F6474003B0F0BD1420EB
S3150000092C03B0F0BD404B4C00F8B51D46036ADE6BB8
S3150000093C06F4814CBCF1800F22D1837F04463BB375
S3150000094C174642680B4652692946FFF7C3FE064610
S3150000095CA0B96368227F5B690AB903FB07F7012D0F
S3150000096C226A11D94FF4807111611221226A5561E4
S3150000097C206A3A46C3642046FFF74CFE3046F8BD63
S3150000098C49F642463046F8BD002111611121EFE7C8
S3150000099C49F644463046F8BD0022F8B54B680D467C
S315000009AC5B6804461B681A604B68D3E90112186829
S315000009BC12689047064608B13046F8BD01464FF41A
S315000009CC1272204601F01EFE584B65602362EFF34F
S315000009DC1087012282F3108855492B788868C3F159
S315000009EC0C0302FA03F320EA03038B608B6887F38C
S315000009FC1088236A00209E63236A4E4FC3F8C06199
S31500000A0C236ADFF83CC1C3F8C02163684A491B7EE0
S31500000A1C93420CBF40F2053240F21D32236A1A642F
S31500000A2CAB68C4F83C32EB68C4F84002C4F84432F4
S31500000A3CAA7F95F91A30120107EB030ED2B28EF883
S31500000A4C00234CF8234003F1C00251F822E060F376
S31500000A5C104E41F822E051F82220BFF35F8F4FF081
S31500000A6C010E5A09920003F01F0302F1604202F5CF
S31500000A7C61420EFA03F3C2F88031136095F91C300B
S31500000A8C834221DB95F820201F441201D2B287F84D
S31500000A9C00234CF8234003F1C00251F8227060F396
S31500000AAC104741F8227051F82220BFF35F8F5A0984
S31500000ABC920003F01F030EFA03F102F1604303F5F3
S31500000ACC6143C3F88011196095F91D30002B26DBA4
S31500000ADC95F8212003F160411201D2B201F5614172
S31500000AEC81F80023144A4CF8234003F1C00152F854
S31500000AFC210020F4803042F8210052F82120BFF367
S31500000B0C5F8F01215A09920003F01F0302F1604224
S31500000B1C02F5614201FA03F3C2F880311360002337
S31500000B2C064AA37722603046F8BD00BF0020094074
S31500000B3C0040084000E100E0006000404948445392
S31500000B4CC00B002000232DE9F04101272024026A66
S31500000B5C8377C2F8C031026A0E46C2F8C071026AC7
S31500000B6CA7499464026A86B09366026A0546C2F87F
S31500000B7CB031026AC2F8CC31026AC2F8E031FFF732
S31500000B8C6BFD044618B1204606B0BDE8F0814CF268
S31500000B9CE0022B6A38461A654FF47A7101F074F943
S31500000BAC224621462846FFF77FFE04460028EAD156
S31500000BBC4FF4D57208212846FFF776FE1428044612
S31500000BCCE1D049F647432A6A9842926900F0B98007
S31500000BDCB2F5D57F00F0B5802B7AFF2B00F007819C
S31500000BEC002202212846FFF75FFE04460028CAD1E0
S31500000BFC6B6803211F78284602373F043A46FFF7F5
S31500000C0C53FE04460028BED12A6A2B7A92690BB190
S31500000C1C170C3F043A4609212846FFF745FE0446C1
S31500000C2C0028B0D12B6A297A9A6901921A6A029223
S31500000C3C9A6A03921B6B04939DF812309B0900F081
S31500000C4CA680002940F0C98040F6FF74BDF8083034
S31500000C5CBDF80A00C3F3C2129DF80C3003F003036F
S31500000C6C9B0243EA90139DF80D00A34200F00F007F
S31500000C7C00F01D8102320133934001228240520A58
S31500000C8C02FB03F32B6101233A4607212846AB618D
S31500000C9CFFF70AFE044600287FF475AF039B580243
S31500000CAC00F1B48057492846FFF7D6FC04460028C5
S31500000CBC7FF469AF6B68102128465A69FFF7F4FD7B
S31500000CCC044600287FF45FAF6B683A463721284606
S31500000CDC5F78FFF7E9FD044600287FF454AF462100
S31500000CEC2846C7F34102FFF7DFFD044600287FF4D0
S31500000CFC4AAF082F00F0DD80A7F10101B1FA81F1AE
S31500000D0C4909890044F2E0032A6A43EA4133136530
S31500000D1C6B685A7E32B12A6A926BC2F3C01282F0A9
S31500000D2C01026A725B696B612EB105F108070FCF80
S31500000D3C0FC63B68336001232046AB7706B0BDE88F
S31500000D4CF08140F60677DFF8C08002E0013F3FF401
S31500000D5C43AF002237212846FFF7A6FD044600289C
S31500000D6C7FF411AF424669212846FFF79DFD0446E4
S31500000D7C00287FF408AF2B6A9B69002B4FEA13629D
S31500000D8CE4DA0123C2F380122A772B7228E70120BA
S31500000D9C9DF80C30BDF80A2003F003039B0243EACE
S31500000DAC9213BDF808409DF80D20C4F3C21402F04E
S31500000DBC0F02904002345A1C400AA24000FB02F279
S31500000DCC2A61B9B19DF808309DF8072003F03F035E
S31500000DDC5B0043EAD213013356E7012B7FF453AF82
S31500000DEC029BC3F3152301339B022B614BE749F698
S31500000DFC4044C8E640F6FF729342E3D12961E1E72D
S31500000E0C801A060040787D010080FF4040220121B7
S31500000E1C284605F13C03FFF75DFC00287FF442AF42
S31500000E2C40224FF4F94C2B6A4FF6F17418612B6A79
S31500000E3C0621DA642B6A98632B6AD863686248F2D7
S31500000E4CFF002A6A136C23F0010343F004031364B6
S31500000E5C2B6AC3F844C02A6A936C43F440739364B8
S31500000E6C2B6A9C602B6AD8602B6A19606B6A00939C
S31500000E7C009B19023FF516AF0F4C0CE0013C3FF4FA
S31500000E8C11AF0121084600F0FFFF6B6A0093009B2F
S31500000E9C1B023FF507AF009B5A07EFD595F84C3070
S31500000EAC03F00F030F2B3FF4FDAE0449FBE629615B
S31500000EBCE9E6012126E700BFA086010080F0FA02D0
S31500000ECC70B5D0E90C129142044690F8283084B0E3
S31500000EDC12D0012B31D0022BE56AA66B39D0D4E99E
S31500000EEC0C230133354493426363E56208BF94F8DF
S31500000EFC283001D004B070BD012BFBD10025C4E90C
S31500000F0C0C556368E56284F82850A5635B689A689B
S31500000F1C1868136998472023226A2046C2F8B051F4
S31500000F2CD4F8442201A90392ADF80A50CDF8065024
S31500000F3CADF80430FFF708FCDCE7826B04F13C01EA
S31500000F4CC06A01F0C8FB94F82830E56A022BA66B40
S31500000F5CC5D13246294604F13C0001F0BCFBBEE784
S31500000F6CF0B585B0EFF3038300224949103B5EB21E
S31500000F7C51F82640CDE90122236A0392196948F2F9
S31500000F8C7F3062F300011961226A936BD56B03F013
S31500000F9C0503D94305409163E943226AD80743EA1E
S31500000FAC0545D16312D50822ADF80420226A1169D1
S31500000FBCC9054CBF916A916902911168262957D0CF
S31500000FCC116C21F0040141F001011164314F2F40E5
S31500000FDC002F31D15B0715D4636AA27F2B43636262
S31500000FEC1AB1BDF80430002B4DD12B4A06F1C003C3
S31500000FFC52F8231021F4803142F8231052F8233092
S3150000100C05B0F0BD94F82830012BE5D0C4E90C7777
S3150000101C6368E76284F82870A7635B689A68186847
S3150000102C13699847BDF8043043F02003ADF804303B
S3150000103C236AC3F8B071CFE700270122BDF804304C
S3150000104C45F4000543F04003ADF80430236A1A61F9
S3150000105CC4E90C776368E76284F82870A7635B6859
S3150000106C9A68186813699847236AC3F8B071B3E78E
S3150000107CD26B02F48142802A0CBF88224FF4847210
S3150000108CADF80420A2E7204601A9FFF75DFBACE70B
S3150000109CC00B002000007F8000600040034600204B
S315000010ACC3E90512704700BF10B4046AA37803F0B5
S315000010BC7B03A3708378046A03F00303D21A0B44F0
S315000010CCC0E90332A37843F08003A370837803F05E
S315000010DC0303022B06D0036A0A780020DA705DF847
S315000010EC044B70470B88026A43F47E43D38100207D
S315000010FC5DF8044B704700BFF0B5846A85B00546B1
S3150000110C0F4694466E46B4B194E80F0086E80F007D
S3150000111CEB6920461B78A760236084F804C0EB6A51
S3150000112CE3606B6A9847AC6A1CB196E80F0084E8DA
S3150000113C0F0005B0F0BD3446EAE700BF01220346B6
S3150000114C0878824012F0060F05D0CA6952681278E8
S3150000115C120700F1CB8100224FF0010C00F5800044
S3150000116C2DE9F04100F58C500002C3E907101A7006
S3150000117C4D6998785D628D696CF30100C3E90A25A7
S3150000118C98704878D44C904214BF654602259878DE
S3150000119C65F30100987091F90B5091F80AE0680913
S315000011AC05F01F0620300CFA06F644F82060BFF353
S315000011BC4F8FBFF36F8FC94805F1C00650F82670E4
S315000011CC62F3104740F8267050F82660C44E4FEA7A
S315000011DC0E1E67195FFA8EFE87F800E346F8253077
S315000011EC91F9055091F804E06F0905F01F082037B6
S315000011FC0CFA08F844F82780BFF34F8FBFF36F8FB4
S3150000120C05F1C00750F8278062F3104840F8278094
S3150000121C50F827704FEA0E1E67195FFA8EFE87F894
S3150000122C00E346F8253091F9075091F806E06F096E
S3150000123C05F01F0820370CFA08F844F82780BFF38E
S3150000124C4F8FBFF36F8F05F1C00750F8278062F3FD
S3150000125C104840F8278050F827704FEA0E1E671981
S3150000126C5FFA8EFE87F800E346F8253091F90950AF
S3150000127C91F808E06F0905F01F0820370CFA08F8FA
S3150000128C44F82780BFF34F8FBFF36F8F05F1C0076C
S3150000129C50F8278062F3104840F8278050F8270052
S315000012AC4FEA0E10C0B22C4484F8000346F82530E1
S315000012BCEFF310868CF310884FF000450C788948B4
S315000012CCE540446824EA05044460406886F31088C7
S315000012DC186A8270186A0271186A4272186A8272E7
S315000012EC186AC272186A428340F2F93208780CFA0C
S315000012FC00FC1CEA020F02D040201A6AD0740625A4
S3150000130C012240F2F9301C6A25770C78A240024281
S3150000131C40F0CA80CA7848788C78D200032842EA12
S3150000132C041200F0D58000280CBFE220F2201C6AC3
S3150000133CD2B222701A6A9071CC69227B082A00F00C
S3150000134CC380186A520002F00202427300256278CA
S3150000135CA078D201400100F02000D2B20243186AF4
S3150000136C0572207802380128186A40F2A280D2B29F
S3150000137CC27160681A6A847854704578147865F37B
S3150000138C01041470C4789474D479007804F0A3041E
S3150000139C00F05C002043D0710020C3E90300C3E9D0
S315000013AC0500DC694D4A94F90540CD6904F1C0018C
S315000013BC52F8216095F800C060F3104642F821609F
S315000013CC0CF0030C52F82110BFF35F8F4FF0010E97
S315000013DC6109890004F01F0401F1604101F56141C6
S315000013EC0EFA04F4C1F880410C60D96991F90B40EE
S315000013FC04F1C00152F8216060F3104642F82160F6
S3150000140C52F82110BFF35F8F6109890004F01F04A5
S3150000141C01F160410EFA04F401F56141C1F8804115
S3150000142C0C60D96991F9074004F1C00152F82160AA
S3150000143C60F3104642F8216052F82110BFF35F8F1B
S3150000144C6109890004F01F0401F160410EFA04F4ED
S3150000145C01F56141C1F880410C60D96991F9091017
S3150000146C01F1C00452F8246060F3104642F824607F
S3150000147C52F82420BFF35F8F4A09920001F01F0136
S3150000148C02F160420EFA01F102F56142C2F88011D6
S3150000149C11601A6A4CF0700C82F802C06989124A03
S315000014AC19815A60BDE8F0814FF478401A6A90822F
S315000014BC30E7FF2545702078022808BF42F010025D
S315000014CC186AD2B2C27167E70A201A6A50733DE7EE
S315000014DCF22042F040022AE700E100E00060004002
S315000014ECC00B002000400840554943530320704769
S315000014FCEFF30383103B1F4A5BB203F1C00152F8B2
S3150000150C210020F4803042F8210052F821201A4A9A
S3150000151C52F82300C3691B6983B1036903B1704791
S3150000152C026A0021937803F07F0343F0040393705F
S3150000153C436AC160C3B18022FFF7DEBD0369026A4C
S3150000154C002BEED08378C16803F00303022B0CD07A
S3150000155C0B78D3708278D0E9031302F003029B1A3E
S3150000156C1144C0E90313D9E770470B8843F47E4353
S3150000157CD381EFE700600040C00B002010B582B0AD
S3150000158CEFF30383103B1F4A5BB203F1C00152F821
S3150000159C210020F4803042F8210052F821201A4A0A
S315000015AC52F82340A27802F00303022B236A0CBFE5
S315000015BC198A5979A3690CBFC1F30801C9B2019103
S315000015CC43B9636AB3B10422204602B0BDE81040A9
S315000015DCFFF792BD02F0030201A9606901F07BF8E6
S315000015ECD4E90521A37803F003031A44C91AC4E904
S315000015FC052109B102B010BD636A002BFAD0012295
S3150000160CE2E700BF00600040C00B002010B5EFF30E
S3150000161C03830E4A103B5CB252F82400026A93789C
S3150000162C03F07B039370436A1BB102220021FFF780
S3150000163C63FD074A04F1C00352F8231021F48031EC
S3150000164C42F8231052F8233010BD00BFC00B002007
S3150000165C0060004010B5EFF303831A4A103B5CB2EE
S3150000166C52F82400837803F00303022B036A0CBFA1
S3150000167C198A597993F804C00CBFC1F30801C9B291
S3150000168C1CF0100F0CF0380206D093F81CC01CF09E
S3150000169C010F08BF42F0400293F804C00CF0C70CCF
S315000016AC83F804C0436A0BB1FFF726FD064A04F122
S315000016BCC00352F8231021F4803142F8231052F85B
S315000016CC233010BDC00B0020006000402DE9F84F00
S315000016DC0388DBB182464FF0000B4FF00109DFF8AF
S315000016ECD0800024304D4FEACB07DAF8043035F8B9
S315000016FC022BD919898891420AD00134032CF4D1D2
S3150000170CBAF800300BF1010B5B45EAD8BDE8F88F4F
S3150000171CDB5909FA04F603F0B853B3F1807FF6B23D
S3150000172C98F8BB3413D0334231D1204A04F1200649
S3150000173C12F81630DB09E0D012F81630012123F02E
S3150000174C8003C82002F8163000F09EFBD5E7334222
S3150000175C11D0164A04F1200112F81130DB09CCD154
S3150000176C12F81130C82043F0800302F81130012121
S3150000177C00F08AFBC1E7012000F064FC98F8BB344A
S3150000178C0120334388F8BB3400F02CFCE1E7012040
S3150000179C00F058FC98F8BB34012023EA060388F8BD
S315000017ACBB3400F01FFCC0E72C34000000300840AE
S315000017BC00E00140F8B50646FFF788FFEFF310820C
S315000017CC012383F31088234F3B681BB92249CB7046
S315000017DC4023CB703B6801333B6082F3108833881F
S315000017EC23B300211D4D08E01B01134445F823408B
S315000017FC328801318BB29A4218D9736853F831404A
S3150000180C03EBC1029288E0034FEA1223D2B2EBD566
S3150000181C02EB031055F820E024F4803C2EF4803EB5
S3150000182C45F820E01B0145F820C0DEE7EFF31082F7
S3150000183C012383F310883B6813B13B68013B3B6083
S3150000184C3B681BB980200449CB70C87082F31088A2
S3150000185CF8BD00BFBC0B0020000D08400008084076
S3150000186C08B5034B03600846FFF7A4FF002008BD2C
S3150000187C54524F50034609019B6841F00101C9B20D
S3150000188C00205977704700BF0023826818465377AB
S3150000189C704700BF034601229B6800201A777047E9
S315000018AC30B44FF480654FF4803403468D600C6081
S315000018BC9C684FF6FF72B4F810C0E4681CF4404FF5
S315000018CC18BF2A464C609B68002030BC9B689BB2B4
S315000018DCC1E90223704700BF06207047034600206B
S315000018ECD9605A61704700BF30B400244268124D6B
S315000018FC526803461178A03145F8214081680C776F
S3150000190CD168A9B14FF0010C92F901100B4D4809A1
S3150000191C01F01F0120300CFA01F145F82010BFF33D
S3150000192C4F8FBFF36F8F064992F9012041F8224081
S3150000193C0020186030BC70470060004000E100E0F9
S3150000194CC00B00202DE9F047002643686B4A5C6803
S3150000195C2378A03342F8236083681E772378658941
S3150000196CA03342F8235083685E77CA7891F80280D8
S3150000197C9646C8F3810CC2F381074FEA8C1C930977
S3150000198CCD894CEA873C0EF0C0079B03C2F30112CB
S3150000199C802FADB243EA022308D0402F06D0C02FC9
S315000019AC00F0A380B24643F400530AE08A8905EBA3
S315000019BC0545C8F3001625F0FC251FFA82FA43EA02
S315000019CC063366890EB143F00103C668CEB318F030
S315000019DC200F5BD1102694F9017094F802E007F100
S315000019EC60484FEA0E1EDFF818915FFA8EFE08F576
S315000019FC614888F800E3DFF804E149F8270007F1AD
S31500001A0CC0085EF8289029F480394EF828905EF8C4
S31500001A1C28E0BFF35F8F4FF001084FEA571E4FEADD
S31500001A2C8E0E07F01F070EF1604E0EF5614E08FA8A
S31500001A3C07F7CEF88071CEF8007091F803E00EF03F
S31500001A4CC007C02F27D04FF0000EF04687681FFA4C
S31500001A5C8CFCC7F8288087689BB2C7F82CE087688F
S31500001A6CA7F814C087683B824F6883681F60836839
S31500001A7C8968596083689D608368C3F80CA0836885
S31500001A8C62689A618368DE74BDE8F087C02F14BF64
S31500001A9C1C2610269FE70EF00C07B1F80CE0B1F8E7
S31500001AAC0E80042F1FFA8EFE1FFA88F908BFF04627
S31500001ABC8F7818BFB4F8088007F00C0708BF4CF4F1
S31500001ACC005C042F82684F6818BF1EFB09F9176269
S31500001ADC8F68826814BF1FFA89FE4CF0200C08EB45
S31500001AEC08480EEB0E4E5762B0E78A8905EB0545A2
S31500001AFC25F0FC251FFA82FA63E700BF0060004060
S31500001B0CC00B002038B500254A684160137804469E
S31500001B1C03F1012340339B018360D368C36053698F
S31500001B2CC0E90453EFF3108E4FF0010C8CF31088C0
S31500001B3C084B1A6822F480021A601B688EF3108810
S31500001B4C054B83F800C00968FFF7FCFE034B2846DB
S31500001B5C236038BD004008400052004043414D44CC
S31500001B6C10B50446FFF7EEFE0122A36800201A7793
S31500001B7C10BD00BF0346002230B45968084D4C68AE
S31500001B8C10462178A03145F8212099680A772178EA
S31500001B9C6489A03145F821409B685A7730BC704760
S31500001BAC0060004030B482B001910092002241687E
S31500001BBC134D4C682178A03145F8212081680A77AD
S31500001BCC21786489A03145F8214081684A77019AC9
S31500001BDC12B1019982681160009A12B1826800995B
S31500001BEC51608268118A11F4404F14BFD360936020
S31500001BFC8368012200201A7702B030BC704700BF00
S31500001C0C0060004010B582B0EFF30383103B0D4A21
S31500001C1C5BB203F1C00152F8210020F4803042F887
S31500001C2C210052F82120084A01A852F82340626983
S31500001C3CE36801929847A368DA680AB101221A7719
S31500001C4C02B010BD00600040C00B0020064B0749D7
S31500001C5C93F826001A6A51F82030C2F3026204493E
S31500001C6CD3400B60704700BF00E00140A004002089
S31500001C7CE40B0020704700BFF8B54AF2035001236D
S31500001C8C4549464AA1F8FE03A2F80431B2F80431DC
S31500001C9C9BB2002BFAD101204FF400454FF0090CF2
S31500001CAC3F4CDFF818E13F4EC4F804E0DFF810E1D2
S31500001CBC3D4FC4F80CE0A2F800013C4A3649B0602E
S31500001CCC30602760A5602561626191F82620086A5C
S31500001CDC54F82220364EC0F30260C240326081F8BE
S31500001CEC133481F8A2C091F880341BB991F8813471
S31500001CFC99074CD0284D95F88034002B3CD0002207
S31500001D0C254B83F8812483F880240023224981F80B
S31500001D1C323091F83C301A07FBD543F202100023FF
S31500001D2C1D4A088581F82A3092F83C309B06FBD573
S31500001D3C0320052319494FF0F10C81F81C011D49AC
S31500001D4C116282F8263092F82630156A54F8230070
S31500001D5CC5F30264E04030600123F0244FF42540C3
S31500001D6C154981F80CC00B720C7382F8303082F86E
S31500001D7C5230A2F8FE03F8BD0121C82085F8801464
S31500001D8C00F082F895F88034012BFBD1B7E74FF4BD
S31500001D9C7A70FFF76FFFB8E700E0014000C0014022
S31500001DACA004002000700040002D310100C2EB0B96
S31500001DBCE40B0020211201200020004000127A00C2
S31500001DCC00366E0138B50025284C0121C82084F850
S31500001DDC285000F059F884F8245094F82430002B3D
S31500001DECFBD194F82430214943F0020384F82430C3
S31500001DFC91F82430C3F340009B07F9D41B4A81F8B1
S31500001E0C220092F8223003F0FF00002BF9D192F851
S31500001E1C4030164960F3C71382F8403091F84030D1
S31500001E2CDB09FBD191F84200104A63F3C71081F825
S31500001E3C420092F84230DB09FBD192F844000B4980
S31500001E4C63F3C71082F8440091F84430C3F3C0140E
S31500001E5CDB09F9D1012000F0F5F8054B012083F8D8
S31500001E6CBB44BDE8384000F0BDB800BF00300840A8
S31500001E7C00E00140704700BF00BEFEE7A0F1010084
S31500001E8C0028FBD1704700BF1F4B204A1B6800FB84
S31500001E9C01F1934213D302F1854202F5071203F5C1
S31500001EAC741302F6834203F6FF03A2FB03231B0DF6
S31500001EBCA3FB01314FF0FF30F9B1FFF7DFBF4FF451
S31500001ECC7A7210B4A1FB02C41148B0FBF3F34FF0C5
S31500001EDCFF3044B9BCFBF3FC4FEA9C0088B15DF8BB
S31500001EEC044BFFF7CBBF9B00B1FBF3F1A1FB021236
S31500001EFC002AF4D1084620B1F1E71846002BDCD1B4
S31500001F0C70475DF8044B7047E40B002000127A0012
S31500001F1C00CA9A3B70B500240B4B0C4EB3F820212B
S31500001F2CB3F84051ADB2154025FA04F3DB0704D5DE
S31500001F3C56F82430E0B203B198470134102CF3D193
S31500001F4C014BA3F8305170BD006000407C0B0020A3
S31500001F5C30B5032085B000F075F800256FF0FF0052
S31500001F6C4FF0FF321B4B1C4C986421462B464FF00E
S31500001F7C010ECDE90122039231F8020B0EFA03FC95
S31500001F8C013310B1012522EA0C02062BF4D1F5B16E
S31500001F9C0192124B0F4903200A67C3F88022029A5A
S31500001FAC4A67C3F88422039A8A67C3F8882200F02A
S31500001FBC19F800230A4834F8022B03F1C001013347
S31500001FCC0AB140F82120062BF5D105B030BD4FF0F3
S31500001FDCFF32DEE7008000402034000000E100E024
S31500001FEC00600040EFF31081012383F31088124B3D
S31500001FFC33F8102092B22AB133F81020013A92B27B
S3150000200C23F8102033F810309BB293B910B40B4A56
S3150000201C0B4CB2F8FE3334F810009BB243F4254354
S3150000202C23EA0003A2F8FE3381F310885DF8044B13
S3150000203C704781F310887047D80B002000E00140F0
S3150000204C3835000030B4EFF31081012383F3108888
S3150000205C0E4A32F810309BB26BB90D4C0D4DB4F8DC
S3150000206CFE3335F810C09BB243EA0C0343F4254308
S3150000207C9BB2A4F8FE3332F8103001339BB222F82F
S3150000208C103081F3108830BC704700BFD80B00208D
S3150000209C00E001403835000008B500F013FB0C22B7
S315000020AC03461A604FF0FF3008BD00BF00BE7047F4
S315000020BC08B500F035F8FEF7A7FAFEE7F8B5174FA6
S315000020CC05463E68A6B17C6806EB460604EB86061A
S315000020DC02E00C34B4420BD0637AAB42F9D1D4E9AA
S315000020EC00020021121A0C3400F08CFAB442F3D11F
S315000020FCBE6896B1FC6804EB061602E01034A642E4
S3150000210C0BD0637BAB42F9D1D4E90002A168121A59
S3150000211C103400F0E0FAA642F3D1F8BD60340000AA
S3150000212C4FF47001274B284A70B50020C3F888106D
S3150000213C9A60FEF759FAFFF79FFD0120FEF754FA55
S3150000214C224B83F30A880020FFF7B8FFFFF77EFDCA
S3150000215CFFF738FE0320FFF775FF00234FF6FF70DD
S3150000216C1B4903F1080201330C2B21F81200F8D19C
S3150000217C00240320FFF736FF0320FFF763FF154B00
S3150000218C03205C609C60DC601C61FFF72BFF022067
S3150000219CFEF72AFA0120FFF791FF0F4D0F4B5B1B41
S315000021ACA3424FEAA30605DD55F8043B01349847D4
S315000021BCA642F9DCFFF7CCFEBDE870400020FFF725
S315000021CC59BE00BF00ED00E000000000A00000209A
S315000021DC000D084000000E40D0350000D43500003C
S315000021EC002310B504468360818119464366C2817B
S315000021FC08228361C0E90033C0E904335C3000F087
S3150000220C01FA0D4B246263620C4BA3620C4BE36226
S3150000221C0C4B23630C4B9C4206D003F16802944290
S3150000222C02D0D0339C4205D104F15800BDE81040D1
S3150000223C00F04EBA10BD00BF6124000083240000DC
S3150000224CBB240000DF240000E80B0020024A0349EF
S3150000225C034800F069B800BF38000020992F000031
S3150000226C4800002041680C4B994210B5044601D039
S3150000227C00F08CFEA168094B994202D0204600F072
S3150000228C85FEE168064B994204D02046BDE8104015
S3150000229C00F07CBE10BD00BFE80B0020500C0020E7
S315000022ACB80C002010B50B4B04210B4C0B4A2046E6
S315000022BC1A600022FFF794FF04F16800012209213D
S315000022CCFFF78EFF04F1D00002221221BDE8104068
S315000022DCFFF786BF200D0020E80B002059220000D6
S315000022EC014800F0F6B900BF290D0020014800F0A6
S315000022FCF1B900BF290D002010B50446FFF7F0FF19
S3150000230C236A1BB1BDE81040FFF7F0BF044B2362F4
S3150000231C044B1B68002BF5D1FFF7C4FFF2E700BF97
S3150000232C71220000200D00202DE9F843074688464F
S3150000233C14460026D4E90195B9F1010905D524689E
S3150000234C002CF7D13046BDE8F883AB89012B07D9B1
S3150000235CB5F90E30013303D029463846C04706433B
S3150000236C6835E9E70FB407B5064904AB086853F8B6
S3150000237C042B8168019300F0DDFA03B05DF804EBE1
S3150000238C04B0704744000020024B0146186882686E
S3150000239C00F085BE44000020036A70B505460E4663
S315000023AC84680BB9FFF7A8FF636EDB0705D4A38916
S315000023BC980502D4A06D00F08CF9A389190702D5F3
S315000023CC2369002B35D12146284600F0C5F880B389
S315000023DC4FF0FF35636EDA0705D4A3899B0502D44B
S315000023ECA06D00F077F9284670BD002B04DAA269BF
S315000023FC9A4217DC0A2915D023685A1C22601970D8
S3150000240CA36816F8011F013BA3600029EDD1002B30
S3150000241C11DA22460A21284600F05FF80130D7D09F
S3150000242C0A25D7E72246284600F057F80130E7D1AF
S3150000243CCEE7013EE4E723685A1C22600A221A7092
S3150000244CEEE70000024B01461868FFF7A5BF00BF78
S3150000245C4400002010B50C46B1F90E1000F00EF930
S3150000246C0028ABBF636DA3891B1823F48053ACBF44
S3150000247C6365A38110BD2DE9F0411F468B89054686
S3150000248C0C46DB05164605D502230022B1F90E10C3
S3150000249C00F0E2F8A3893246B4F90E10284623F46C
S315000024AC8053A3813B46BDE8F04100F0F9B810B566
S315000024BC0C46B1F90E1000F0CFF8431CA38915BFDA
S315000024CC606523F4805343F48053A38118BFA38122
S315000024DC10BDB1F90E1000F0AFB8F8B50E461446A3
S315000024EC054618B1036A0BB9FFF706FFA369A3608B
S315000024FCA3891A0701D5236943B92146284600F05A
S3150000250C2BF818B14FF0FF373846F8BD2368F6B2F2
S3150000251C22693746981A6369834205DC21462846A8
S3150000252C00F034FD0028EDD1A368013BA3602368BD
S3150000253C5A1C22601E70431C62699A4204D0A389FD
S3150000254CDB07E1D50A2EDFD12146284600F01EFD19
S3150000255C0028D9D0D6E7000038B5294B05460C46DD
S3150000256C186818B1036A0BB9FFF7C6FEB4F90C303C
S3150000257C190722D4DA0607D409222A6043F040034D
S3150000258C4FF0FF30A38133E0580712D5616B41B190
S3150000259C04F14403994202D0284600F0A9F800231E
S315000025AC6363A38923F02403A38100236360236957
S315000025BC2360A38943F00803A38123694BB9A3893C
S315000025CC03F42073B3F5007F03D02146284600F0B0
S315000025DC2AFDB4F90C3013F001020AD00022A260D5
S315000025EC62695242A261226942B913F08000C5D1D8
S315000025FC38BD990758BF6269A260F4E70020F7E777
S3150000260C4400002002440346934200D1704703F86D
S3150000261C011BF9E710B56AB10139841810F8012BC2
S3150000262C11F8013F9A4203D1A04201D0002AF5D1FC
S3150000263CD01A10BD1046FCE738B50023054D0446EC
S3150000264C08462B60FDF7D0FD431C02D12B6803B165
S3150000265C236038BD240D002038B50446064D0846C7
S3150000266C114600222A601A46FDF7CCFD431C02D106
S3150000267C2B6803B1236038BD240D002038B5044601
S3150000268C064D0846114600222A601A46FDF718FE2A
S3150000269C431C02D12B6803B1236038BD240D0020E6
S315000026AC38B50446064D0846114600222A601A46DD
S315000026BCFDF7F4FD431C02D12B6803B1236038BD32
S315000026CC240D0020014B1868704700BF4400002001
S315000026DC7047704770470A44431E914200D17047B9
S315000026EC10B511F8014B914203F8014FF9D110BD09
S315000026FC38B50546002941D051F8043C0C1F002B77
S3150000270CB8BFE41800F0E0F81D4A136833B96360EB
S3150000271C14602846BDE8384000F0DCB8A34208D95E
S3150000272C206821188B4201BF19685B680918216063
S3150000273CEDE71A465B680BB1A342FAD9116850183B
S3150000274CA0420BD120680144501811608342E0D19D
S3150000275C18685B68084453601060DAE702D90C23EA
S3150000276C2B60D6E7206821188B4202BF19685B687C
S3150000277C0918636008BF21605460CAE738BD00BF02
S3150000278C300D002070B50F4E0C460546316811B958
S3150000279C00F0DCFC30602146284600F0D7FC431CD8
S315000027AC03D14FF0FF34204670BDC41C24F0030443
S315000027BCA042F8D0211A284600F0C8FC0130F2D10C
S315000027CCEFE700BF2C0D00202DE9F843CD1C064683
S315000027DC25F0030508350C2D38BF0C25002D01DB23
S315000027ECA94204D90C2333600020BDE8F883DFF836
S315000027FCD48000F069F8D8F800301C4644BB294652
S3150000280C3046FFF7BFFF431C044658D1D8F80040AA
S3150000281C2746002F43D1002C4BD02368394630462F
S3150000282C04EB030900F092FC814542D12168304645
S3150000283C6D1A2946FFF7A6FF01303AD023682B44C0
S3150000284C2360D8F800305A6862BBC8F800700FE0F5
S3150000285C2268521B20D40B2A17D96119A342256072
S3150000286C18BF5960636808BFC8F8001062514B6006
S3150000287C304600F02FF804F10B00231D20F0070062
S3150000288CC21A1CBF1B1AA350AFE76268A3420CBF47
S3150000289CC8F800205A60EBE723466468AEE73C466E
S315000028AC7F68B6E71A465B68A342FBD100235360E8
S315000028BCDEE70C233046336000F00CF894E7056035
S315000028CCD6E700BF300D00200148FFF702BF00BF5E
S315000028DC280D00200148FFF7FDBE00BF280D002083
S315000028EC9368013B002B936010B408DA9469A342F9
S315000028FC01DB0A2903D15DF8044BFFF7EEBD136823
S3150000290C581C1060084619705DF8044B7047F8B5F2
S3150000291C06460F461446D518AC4201D1002007E0F6
S3150000292C3A4614F8011B3046FFF7DAFF431CF3D185
S3150000293CF8BD00002DE9F04F0D469DB014469846A3
S3150000294C064618B1036A0BB9FFF7D6FC6B6ED907AE
S3150000295C05D4AB899A0502D4A86DFFF7BAFEAB89EC
S3150000296C1B0701D52B699BB929463046FFF7F4FDA9
S3150000297C70B16B6EDC0704D54FF0FF301DB0BDE8AF
S3150000298CF08FAB899805F7D4A86DFFF7A3FEF3E794
S3150000299C0023CDF80C804FF00109DFF8B4810993C0
S315000029AC20238DF8293030238DF82A3023469A4679
S315000029BC13F8012B0AB1252AF9D1BAEB040B0BD06B
S315000029CC5B46224629463046FFF7A1FF013000F050
S315000029DCA780099A5A4409929AF80030002B00F005
S315000029EC9F8000234FF0FF320AF1010A04930793EC
S315000029FC8DF853301A93CDE90523544605225448D5
S31500002A0C14F8011B00F0B2FB049AD8B9D10644BFE6
S31500002A1C20238DF85330130744BF2B238DF85330E6
S31500002A2C9AF800302A2B15D0079A544600204FF0FE
S31500002A3C0A0C214611F8013B303B092B4BD9B0B19E
S31500002A4C079214E0A0EB0803A24609FA03F313431A
S31500002A5C0493D2E7039B191D1B68002B0391BBBF84
S31500002A6C5B4242F0020207930793B8BF04922378A5
S31500002A7C2E2B0AD163782A2B32D1039B02341A1DD2
S31500002A8C1B6843EAE37303920593DFF8D4A0032291
S31500002A9C2178504600F06AFB38B1A0EB0A004022C0
S31500002AAC049B013482401343049314F8011B062241
S31500002ABC28488DF8281000F059FB00283FD0264BEB
S31500002ACC1BBB039B073323F0070308330393099BB4
S31500002ADC3B4409936AE70CFB02320C460120A8E73B
S31500002AEC002301344FF00A0C19460593204610F8C2
S31500002AFC012B303A092A03D9002BC6D00591C4E71D
S31500002B0C0CFB012104460123F0E703AB2A4604A97A
S31500002B1C30460093114BAFF300800746781CD6D194
S31500002B2C6B6ED90705D4AB899A0502D4A86DFFF74D
S31500002B3CD1FDAB895B063FF51FAF09981EE703ABCA
S31500002B4C2A4604A930460093044B00F07DF8E4E7CE
S31500002B5C423500004C350000000000001B29000027
S31500002B6C483500002DE9F047164698468A68074610
S31500002B7C0B690C46DDF820909342B8BF13463360C0
S31500002B8C91F843200AB1013333602368990642BF9A
S31500002B9C336802333360256815F0060506D104F157
S31500002BAC190AE36832689B1AAB422BDC94F8433063
S31500002BBC2268003B18BF0123920630D404F143026D
S31500002BCC41463846C847013023D023681A3454F896
S31500002BDC0A2C03F00603042B0ABF54F80E5C0025DE
S31500002BEC33684FF0000608BFED1A54F8123C08BFC4
S31500002BFC25EAE5759342C4BF9B1AED18B5421AD166
S31500002C0C002008E00123524641463846C8470130A9
S31500002C1C03D14FF0FF30BDE8F0870135C1E7E1186D
S31500002C2C5A1C30200233224481F8430094F8451094
S31500002C3C82F84310C2E70123224641463846C8476C
S31500002C4C0130E6D00136D9E72DE9FF470F7E9146D4
S31500002C5C80460C46782F9A460C9E01F1430207D803
S31500002C6C622F0AD8002F00F0D180582F00F0B880C0
S31500002C7C04F1420684F842703AE0A7F16303152B7F
S31500002C8CF6D801A151F823F0ED2C0000012D00001F
S31500002C9C7D2C00007D2C00007D2C00007D2C00007E
S31500002CAC012D00007D2C00007D2C00007D2C0000E9
S31500002CBC7D2C0000FF2D00002B2D0000B92D0000EF
S31500002CCC7D2C00007D2C0000212E00007D2C0000A8
S31500002CDC2B2D00007D2C00007D2C0000C12D00004A
S31500002CEC33681A1D1B68326004F1420684F84230C0
S31500002CFC01239CE033682068191D3160060601D556
S31500002D0C1D6803E04506FBD5B3F90050002D03DA28
S31500002D1C2D236D4284F8433058480A2311E021686C
S31500002D2C3368080653F8045B02D4490648BFADB2B3
S31500002D3C6F2F3360514814BF0A230823002184F8EF
S31500002D4C43106668002EA66005DB21682E4321F031
S31500002D5C040121604BD01646B5FBF3F103FB11576A
S31500002D6CC75D06F8017D2F460D46BB42F4D9082BEC
S31500002D7C0BD12368DF0708D5236961689942DEBF4A
S31500002D8C302306F8013C06F1FF36921B22614B46B6
S31500002D9C03AA21464046CDF800A0FFF7E3FE01301A
S31500002DAC4AD14FF0FF3004B0BDE8F087236843F0FA
S31500002DBC2003236078273248236884F845701F0661
S31500002DCC316851F8045B02D45F0648BFADB231607E
S31500002DDCD90744BF43F0200323601DB11023ADE790
S31500002DEC2648E9E7236823F020032360F6E7164616
S31500002DFCBDE733682568181D616930602E061B68AF
S31500002E0C01D5196002E06806FBD519800023164629
S31500002E1C2361BCE7336800211A1D32601E686268A4
S31500002E2C304600F0A3F908B1801B6060636823612B
S31500002E3C002384F84330AAE72369324649464046C4
S31500002E4CD0470130ADD023689B0713D4E068039BB1
S31500002E5C9842B8BF1846A6E7012332464946404673
S31500002E6CD04701309DD00135E36803995B1AAB421C
S31500002E7CF2DCEBE7002504F11906F5E75335000003
S31500002E8C64350000B1F90C202DE9F0411607054612
S31500002E9C0C4654D44B68002B02DC0B6C002B48DD23
S31500002EACE66A002E45D0002312F480522F68216A60
S31500002EBC2B6030D0626DA389590705D56368D21A89
S31500002ECC636B0BB1236CD21A0023E66A216A28467F
S31500002EDCB047431CA38906D129681D292BD82A4A39
S31500002EECCA40D60727D50022D9046260226922601F
S31500002EFC04D5421C01D12B6803B96065616B2F6048
S31500002F0CB9B104F14403994202D02846FFF7F0FB0D
S31500002F1C002363630DE001232846B0470246501C8C
S31500002F2CC9D12B68002BC6D01D2B01D0162B1DD159
S31500002F3C2F60002021E043F040031BB21AE00F691A
S31500002F4C002FF6D093070E680F600CBF4B69002359
S31500002F5CA6EB07088B60B8F1000FEADD43463A464C
S31500002F6C216A2846A66AB047002808DCB4F90C305A
S31500002F7C43F040034FF0FF30A381BDE8F0810744D6
S31500002F8CA8EB0008E7E700BF0100402038B50B6945
S31500002F9C05460C4613B90025284638BD18B1036AF8
S31500002FAC0BB9FFF7A9F9B4F90C30002BF3D0626E0C
S31500002FBCD00704D4990502D4A06DFFF78AFB2846E6
S31500002FCC2146FFF75FFF636E0546DA07E4D4A38953
S31500002FDC9B05E1D4A06DFFF77DFBDDE770B50C46D4
S31500002FECB1F90E1096B0154600291E460CDAA389C7
S31500002FFC002113F0800F14BF40234FF48063002090
S3150000300C31602B6016B070BD6A4600F07DF8002862
S3150000301CEDDB019901F47041A1F500535942594178
S3150000302C4FF48063EBE78B89F7B59D0706460C4694
S3150000303C07D504F14703236023610123636103B0C1
S3150000304CF0BD01AB6A46FFF7C9FF009F0546304647
S3150000305C3946FFF7B9FB48B9B4F90C309A05EED4EA
S3150000306C23F0030343F00203A381E2E7A389206064
S3150000307C43F08003A381019BC4E904075BB1B4F957
S3150000308C0E10304600F052F828B1A38923F0030342
S3150000309C43F00103A381A3891D43A581CFE770B536
S315000030AC0D461446064618B1036A0BB9FFF724F908
S315000030BC636ED80705D4A389990502D4A06DFFF7D2
S315000030CC08FBA368013B002BA36005DAA2699342B7
S315000030DC12DBEBB20A2B0FD023685A1C22601D7030
S315000030ECEDB2636EDA0705D4A3899B0502D4A06DF5
S315000030FCFFF7F0FA284670BD294622463046FFF700
S3150000310CECF90546EDE7000038B50023064D0446FC
S3150000311C084611462B60FDF77FF8431C02D12B683D
S3150000312C03B1236038BD00BF240D002038B5002341
S3150000313C054D044608462B60FDF74AF8431C02D1A0
S3150000314C2B6803B1236038BD240D002038B500234D
S3150000315C054D044608462B60FEF79EFF431C02D124
S3150000316C2B6803B1236038BD240D0020C9B2034679
S3150000317C024410B59342184601D1002003E00478AE
S3150000318C01338C42F6D110BD4653505F5355434321
S3150000319C455353203D3D2065727200002E2E2F7331
S315000031AC72632F554152545F64656275672F756162
S315000031BC72745F64656275672E6300002E2E2F7322
S315000031CC72632F534448495F5344636172642F738F
S315000031DC6468695F7364636172642E630000000047
S315000031EC0D0A5344E58DA1E8AFBBE58699E695B08B
S315000031FCE68DAEE68890E58A9F210D000D0A5344B4
S3150000320CE58DA1E8AFBBE58699E695B0E68DAEE90E
S3150000321C9499E8AFAF210D000D0AE6ADA3E59CA885
S3150000322CE6B58BE9878F5344E58DA1E8AFBBE58FF7
S3150000323C96E9809FE5BAA62E2E2E0D00E8AFBBE5CB
S3150000324C8F96E695B0E68DAEE9878F3A20256420F9
S3150000325C4B420D0A00000000E7B3BBE7BB9FE697A5
S3150000326CB6E9929F3A20256420487A0D0A000000A0
S3150000327CE8AFBBE58F96E99499E8AFAF2120E59DC1
S3150000328C97E58FB73A2025642C20E99499E8AFAFDF
S3150000329CE7A0813A2025640D0A000000E4BCA0E8F2
S315000032ACBE93E99499E8AFAF2120E59D97E58FB7DA
S315000032BC3A2025640D0A0000E8AFBBE58F96E5AE13
S315000032CC8CE688902120E88097E697B63A2025640C
S315000032DC2075730D0A000000E8AFBBE58F96E980F8
S315000032EC9FE5BAA63A202564204B422F730D0A009F
S315000032FCE8AFBBE58F96E9809FE5BAA63A20256430
S3150000330C2E25303264204D422F730D0A000000002A
S3150000331C48656C6C6F20576F726C64210D00000051
S3150000332C5344E58DA1E8AFBBE58F96E9809FE5BADE
S3150000333CA63A202564204B422F730D0A000000008C
S3150000334C554152545F64656275675F496E697400D6
S3150000335C5344436172645F4F7065726174696F6E3A
S3150000336C000000005344436172645F496E69740047
S3150000337C340B002088330000343400002400002075
S3150000338C9033000000010A000100000001008500D6
S3150000339C0D06000000000000EC08002002020000F0
S315000033AC0C020C030C040C050000000000000000CD
S315000033BC7102000000000000C8330000000100008C
S315000033CC340000200F00FFFF00000000FFFF00008C
S315000033DC07000000E83300000000000000000100B8
S315000033EC08010000000001000003000000000104B9
S315000033FC0103000000000104020300000000011597
S3150000340C0B040000000001150C040000000001155F
S3150000341C0D040000820020008C018D018E018F01AD
S3150000342C0204030404040000111B00006D1B0000C1
S3150000343CB11B0000A1180000811B000081180000C0
S3150000344C95180000AD180000F5180000E5180000EE
S3150000345CE918000004000000083500000800000010
S3150000346C8834000002000000783400000000006878
S3150000347C00000068A0000020A000002000000068EA
S3150000348C000000680000006000010C0800000068E5
S3150000349C00000068000000700001090800000068C8
S315000034AC0000006800000008000102080000006827
S315000034BC0000006858000000000101080000002010
S315000034CC000000200000006000010C03000000203A
S315000034DC000000200000007000010903000000201D
S315000034EC000000200000000800000203000000207D
S315000034FC9400002058000000000001030000006842
S3150000350C0000006800010008000000680000006868
S3150000351C0001000894000020A00000200000000319
S3150000352CBC040020340D0020000000030100020042
S3150000353C080010002000232D302B2000686C4C0056
S3150000354C6566674546470030313233343536373891
S3150000355C39414243444546003031323334353637EF
S3150000356C3839616263646566000000004275696CF7
S3150000357C7420776974682052656E65736173204197
S3150000358C6476616E63656420466C657869626C6509
S3150000359C20536F667477617265205061636B616747
S315000035AC652076657273696F6E20362E342E300068
S311000035BC362E342E3000000000000406FD
S309000035C8F8B500BF8D
S309000035CCF8B500BF89
S309000035D05901000097
S309000035D431010000BB
S3090100A100FFFFFFFF58
S3090100A200FFFDFFFF59
S3090100A280F8F8FFFFE5
S705000020BD1D
